:020000040800F2
:10000000A01000200935000811350008133500083C
:1000100015350008173500081935000800000000E4
:100020000000000000000000000000001B35000878
:100030001D350008000000001F350008BD2600081F
:100040002335000823350008233500082335000830
:100050002335000823350008233500082335000820
:100060002335000823350008233500082335000810
:100070002335000823350008233500082335000800
:10008000233500082335000823350008C52600085D
:10009000C72600082335000823350008233500084B
:1000A00023350008233500082335000823350008D0
:1000B00023350008233500082335000823350008C0
:1000C00023350008233500082335000823350008B0
:1000D00023350008B526000823350008233500081D
:1000E000233500082335000823350008DFF80CD03D
:1000F00008F0EAF90048004701010008A0100020BC
:1001000008B54FF4407003F0D3FC00F06FFF02F02D
:10011000F7FF02F01DFB02F055FB02F017FD02F0A5
:10012000ADFC284908700846007840B1264801789F
:10013000042002F034FC00202449087102E0012070
:100140002249087102F0CDFF03F03EF901F0A5F954
:100150001F4800684FF4FA72B0FBF2F1B1F1807FF2
:1001600000D31DE021F07F40401E4FF0E02250619F
:1001700050170F22002807DA13071D0E154B00F049
:100180000F04241F1D5503E013071C0E124B1C54B3
:1001900000BF00204FF0E02290610720106100BFF7
:1001A00001200C230DA201460090142001F02CF92F
:1001B00000F053FF05E00548407810B100200349E6
:1001C0004870F8E700000020BE020020CC060020A6
:1001D0007400002018ED00E000E400E044415020ED
:1001E000436F6E6E6563740010B57848008A784975
:1001F000488108464089B0F5BB7F07DC0846408946
:10020000B0F5AA7F02DD0120C87002E0002070492D
:10021000C87070480088704908800846008800B29D
:100220006A49488200206B4908806B48008848B9B9
:1002300002F0C1FA00206649487108720870C8814E
:10024000887004E002F0B0FA012061490872604849
:10025000807910B95E48C07988B15D48807888B9E6
:100260005E480078401C5D49087008460078032805
:1002700008D10020087056498871C87102E000203A
:100280005649087010BD10B501205149487002F060
:1002900062FB5348007820B100215248008800F0EA
:1002A00040FE10BD10B5504802F0A7FA10BD10B5C1
:1002B00003F0A5F802F04EF94548007A08B900F0BD
:1002C000B0FC10BD10B54948007801280CD1484851
:1002D0000078212804DA46480178401C02F024FB0B
:1002E00000204249087001E000F0E8FB10BD10B5A5
:1002F00002F0E3FB3F48007848B13F4801783F48AF
:1003000002F013FF02F023FF00203A49087000F0CA
:10031000EEFA10BD10B53A480088012804DBFFF75B
:10032000E6FF00203649088036480088022804DBB2
:10033000FFF7C8FF002033490880334800880528AC
:1003400004DBFFF7B4FF00202F4908802F48008806
:100350000A2804DBFFF7A6FF00202C4908802C4860
:100360000088192804DBFFF78EFF00202849088049
:1003700028480088B0F5FA7F04DBFFF735FF00203E
:100380002449088010BD10B51D480088401C1C4938
:1003900008801C480088401C1A4908801A480088B8
:1003A000401C1949088019480088401C17490880DA
:1003B00017480088401C1649088016480088401CD1
:1003C00014490880FFF7A6FF10BD0000B801002007
:1003D000CC06002062000020600000200E000020FB
:1003E00040000020380000200AD7233DD200002022
:1003F000000B0020640000205E000020F0060020BA
:100400000200002004000020060000200800002058
:100410000A0000200C000020B0F9001040F2AA529F
:10042000914208DDB0F9001040F20E62914202DA0A
:1004300040F2DC510180B0F9041040F2AA5291421E
:1004400008DDB0F9041040F20E62914202DA40F287
:10045000DC518180B0F9061040F2AA52914208DDC9
:10046000B0F9061040F20E62914202DA40F2DC511D
:10047000C180B0F9021040F2AA52914208DDB0F9F1
:10048000021040F20E62914202DA40F2DC514180E9
:100490007047B0F90010B1F57A7F02DC4FF47A7141
:1004A00001E0B0F900100180B0F90010B1F5FA6F69
:1004B00002DB4FF4FA6101E0B0F900100180B0F9FD
:1004C0000410B1F57A7F02DC4FF47A7101E0B0F9E3
:1004D00004108180B0F90410B1F5FA6F02DB4FF41B
:1004E000FA6101E0B0F904108180B0F90610B1F5AD
:1004F0007A7F02DC4FF47A7101E0B0F90610C18016
:10050000B0F90610B1F5FA6F02DB4FF4FA6101E0C1
:10051000B0F90610C180B0F90210B1F57A7F02DCA3
:100520004FF47A7101E0B0F902104180B0F9021085
:10053000B1F5FA6F02DB4FF4FA6101E0B0F9021095
:100540004180B0F90810B1F57A7F02DC4FF47A717E
:1005500001E0B0F908100181B0F90810B1F5FA6FA7
:1005600002DB4FF4FA6101E0B0F908100181B0F943
:100570000A10B1F57A7F02DC4FF47A7101E0B0F92C
:100580000A104181B0F90A10B1F5FA6F02DB4FF49D
:10059000FA6101E0B0F90A104181B0F90C10B1F52F
:1005A0007A7F02DC4FF47A7101E0B0F90C1081819E
:1005B000B0F90C10B1F5FA6F02DB4FF4FA6101E00B
:1005C000B0F90C1081817047FE490A68091DFE4B85
:1005D0001B7831F81310511AFA4A1160FB490A6866
:1005E000091DF94B1B7831F81310511AF74A1160A5
:1005F000F7490A68091DF44B1B7831F81310511A9A
:10060000F34A1160F3490A68091DEF4B1B7831F872
:100610001310511AEF4A1160EF490A68091DEA4B9D
:100620001B7831F81310511AEB4A1160EB490A6834
:10063000091DE54B1B7831F81310511AE74A116078
:10064000E7490A68091DE04B1B7831F81310511A6D
:10065000E34A1160E3490A68091DDB4B1B7831F856
:100660001310511ADF4A116001888AB2D549091D59
:10067000D54B1B7821F8132041888AB2D349091D34
:10068000D14B1B7821F81320C1888AB2D049091DAB
:10069000CD4B1B7821F8132081888AB2CD49091DE2
:1006A000C94B1B7821F8132001898AB2CA49091D58
:1006B000C54B1B7821F8132041898AB2C749091D0F
:1006C000C14B1B7821F8132081898AB2C449091DC6
:1006D000BD4B1B7821F81320018A8AB2C149091D3C
:1006E000B94B1B7821F81320B6490A68091DB64B8F
:1006F0001B7831F813101144B24A1160B3490A68EB
:10070000091DB14B1B7831F813101144AF4A116029
:10071000AF490A68091DAC4B1B7831F8131011441E
:10072000AB4A1160AB490A68091DA74B1B7831F829
:1007300013101144A74A1160A7490A68091DA24B6A
:100740001B7831F813101144A34A1160A3490A68B9
:10075000091D9D4B1B7831F8131011449F4A1160FD
:100760009F490A68091D984B1B7831F813101144F2
:100770009B4A11609B490A68091D934B1B7831F80D
:1007800013101144974A11608E4909680A22B1FB7F
:10079000F2F109B201808D490968B1FBF2F109B2A9
:1007A00041808B490968B1FBF2F109B2C1808949E6
:1007B0000968B1FBF2F109B2818087490968B1FB90
:1007C000F2F109B2018185490968B1FBF2F109B280
:1007D000418183490968B1FBF2F109B28181814904
:1007E0000968B1FBF2F109B2018277490978491C25
:1007F000754A1170114609780A2901D1002111703A
:10080000704710B504467848407800286DD0774886
:10081000007890B900207449C88008818880488099
:100820000120724908700020714908607149086010
:10083000714908607149086010BD6C480078401C1F
:100840006A490870B4F900006949096808446849B0
:100850000860B4F9020067490968084465490860FE
:10086000B4F9040064490968084463490860B4F9AC
:100870000600624909680844604908605B480078DE
:10088000332832D159480078401E584908705848DA
:100890000068097890FBF1F0A0F2DC505249C88062
:1008A000544800685149097890FBF1F0A0F2DC50FF
:1008B0004D490881504800684C49097890FBF1F097
:1008C000A0F2DC50484988804C48006847490978C4
:1008D00090FBF1F0A0F2DC504349488000204349EE
:1008E00008704149487000F06DFB00BFA4E72DE996
:1008F000F0474349088907F0A1FC05464FF07A51BB
:1009000007F0A4FA044607F0AFFC00F57A70364908
:10091000C988401A00B23B4908803949C88907F0A4
:100920008DFC05464FF07A5107F090FA044607F027
:100930009BFCC0F5FA602C498988401A00B2314905
:1009400088802F49488907F079FC05464FF07A5195
:1009500007F07CFA044607F087FC00F57A7022491C
:100960000989401A00B2274948802549888907F03B
:1009700065FC05464FF07A5107F068FA044607F027
:1009800073FCC0F5FA6018494988401A00B21D4945
:10099000C8801B49888807F051FC05464FF07A5102
:1009A00007F054FA044607F05FFCC0F5FA6000B2A5
:1009B000144908811249088807F040FC05464FF0A9
:1009C0007A5121E0CC010020100000201402002008
:1009D000FC010020E40100202C0200204402002041
:1009E0005C02002074020020BE02002011000020E2
:1009F00014000020180000201C000020200000200F
:100A0000EE0A0020B801002007F020FA044607F0A3
:100A10002BFCC0F5FA6000B2204948812049488883
:100A200007F00CFC05464FF07A5107F00FFA044628
:100A300007F01AFCC0F5FA6000B21849888118491D
:100A4000088A07F0FBFB80461549C88807F0F6FBCB
:100A500081464FF0804107F0F9F90746414607F01B
:100A600027FA06460F4907F0F1F905460E4907F047
:100A7000EDF9044607F0F8FB00B208490882084681
:100A8000FFF7A2FD0548FFF7BCFE0448FFF701FD94
:100A90000248FFF7C1FCBDE8F0870000B801002064
:100AA000EE0A00209A99993F0000C84270B50446AA
:100AB0000D462946204601F037FF70BD70B5002471
:100AC000AA222146641CFE484254AF222146641CDF
:100AD000425403222146641C425400222146641CD5
:100AE0004254F84842782146641CF5484254F5487F
:100AF00002782146641CF2484254F248C2782146EA
:100B0000641CEF484254EF4882782046611CCCB206
:100B1000EB490A54EB48C2792046611CCCB2E84943
:100B20000A54E84882792046611CCCB2E4490A5450
:100B3000E44842792046611CCCB2E1490A54E148BC
:100B400002792046611CCCB2DD490A54DD48427A64
:100B50002046611CCCB2DA490A54DA48027A2046AF
:100B6000611CCCB2D6490A54D648C27A2146601CD0
:100B7000C4B2D3484254D348827A2046611CCCB2D6
:100B8000CF490A54CF48427B2046611CCCB2CC49A5
:100B90000A54CC48027B2046611CCCB2C8490A5496
:100BA000C848C27B2046611CCCB2C5490A54C5481E
:100BB000827B2046611CCCB2C1490A54C148427CA8
:100BC0002046611CCCB2BE490A54BE48027C204675
:100BD000611CCCB2BA490A54BA48C27C2046611C96
:100BE000CCB2B7490A54B748827C2046611CCCB2CB
:100BF000B3490A54201FC8700025002005E0B04901
:100C0000095C2944CDB2411CC8B2A042F7DB2046A2
:100C1000611CCCB2AA490D542146A948FFF746FFF2
:100C200070BD70B50024AA222146641CA448425419
:100C30002146641C425403222146641C4254002273
:100C40002146641C42549F4842782146641C9C48BB
:100C500042549C4802782146641C99484254994861
:100C6000C2782146641C96484254964882782046B1
:100C7000611CCCB292490A549248C2792046611C48
:100C8000CCB28F490A548F4882792046611CCCB27D
:100C90008B490A548B4842792046611CCCB2884962
:100CA0000A54884802792046611CCCB284490A540F
:100CB0008448427A2046611CCCB281490A5481485A
:100CC000027A2046611CCCB27D490A547D48C27A22
:100CD0002146601CC4B27A4842547A48827A20463F
:100CE000611CCCB276490A547648427B2046611C8E
:100CF000CCB273490A547348027B2046611CCCB2C3
:100D00006F490A546F48C27B2046611CCCB26C49C3
:100D10000A546C48827B2046611CCCB268490A5454
:100D20006848427C2046611CCCB265490A5465483B
:100D3000027C2046611CCCB261490A546148C27CE5
:100D40002046611CCCB25E490A545E48827C204633
:100D5000611CCCB25A490A54201FC87000250020DB
:100D600005E05749095C2944CDB2411CC8B2A042F4
:100D7000F7DB2046611CCCB251490D542146504846
:100D800002F0D3F902F0E3F970BD2DE9F047044613
:100D900089464FF0000A002005E0215C514401F033
:100DA000FF0A411CC8B2A9F101018142F5DC04EB44
:100DB000090010F8010C504501D0BDE8F0872078FB
:100DC000AA2802D16078AA2800D0F6E7A0780128E6
:100DD0004CD12179090209B2627941EA020007F097
:100DE00032FA0746384A394B07F047F9054607F00B
:100DF0004FFA37494861A179090209B2E27941EA1B
:100E0000020007F020FA07462F4A304B07F035F969
:100E1000054607F03DFA2E498861217A090209B298
:100E2000627A41EA020007F00EFA0546264A274B8D
:100E300007F023F9074607F02BFA2549C861A17A84
:100E40000906E27A41EA0241227B41EA0221627B01
:100E500041EA020007F0F7F905461E4A1E4B07F06B
:100E60000CF9074607F014FA19490862A07805281A
:100E700055D12079617941EA002015498881207A8D
:100E80000870607A4871A07AE17A41EA002010493E
:100E9000C881207B617B41EA00200D4908820F4810
:100EA000007810B30846008A0D49098888421DD190
:100EB000012007498871002008490870094913E09A
:100EC0008C020020B80100209A9999999999B93F0C
:100ED000CC0600207B14AE47E17A843F400000201E
:100EE000380000202A000020087010E03148007807
:100EF000401C30490870084600780A2807D10120B4
:100F00002D49C87100202D4908702A4908702A48C7
:100F1000807B00F0080010B100202749887000BFD6
:100F20004BE72DE9F84306460F460024A046AA22C7
:100F30002146641C22484254AF222146641C42547C
:100F4000F1222146641C425400222146641C425472
:100F500000969DF801202146641C42549DF8002013
:100F60002146641C425400979DF801202146641CD0
:100F700042549DF800202046611CCCB210490A540E
:100F8000201FC870002506E00D48405D404400F079
:100F9000FF08681CC5B2A542F6DB2046611CCCB236
:100FA000074901F8008020210548FFF77FFDBDE8D3
:100FB000F88300002A000020CC060020400000201A
:100FC0008C02002010B50C210E4802F0C8F910BDAB
:100FD00010B500200B49087048704880888008814F
:100FE000C88044204881FFF7EDFF10BD10B50C21EB
:100FF000044802F095F903484089442801D0FFF7DE
:10100000E7FF10BDBE02002010B50A461AB1022348
:10101000F84C236003E00223F64C241D23600021DA
:1010200015E02023F34C241D236000F080031BB146
:101030001023241F236003E01023EE4C241D2360A3
:101040002023EC4C23604306180E4B1CD9B2082910
:10105000E7DB0223E74C236010BD30B500241CE021
:1010600004F1B001C8B20021FFF7CEFF002108460D
:10107000FFF7CAFF00211020FFF7C6FF002508E098
:10108000DD4901EBC501085D0121FFF7BDFF681CCB
:10109000C5B2802DF4DB601CC4B2082CE0DB30BD8F
:1010A00000B500218D20FFF7AFFF00211420FFF7CE
:1010B000ABFF0021AF20FFF7A7FF00BD00B5002167
:1010C0008D20FFF7A1FF00211020FFF79DFF0021D9
:1010D000AE20FFF799FF00BD30B500240CE00025DD
:1010E00006E00020C44901EBC5010855681CC5B2E3
:1010F000802DF6DB601CC4B2082CF0DBFFF7ADFFDF
:1011000030BDF0B5144600267F2801DC3F2900DD04
:10111000F0BD0B46CF1701EB5777FF10C7F107075C
:10112000FAB2CF1701EB5777FF10A1EBC707FDB25B
:10113000C5F107070123BB40DEB24CB1AE4B03EB58
:10114000C0039B5C3343AC4F07EBC007BB5408E0C4
:10115000A94B03EBC0039B5CB343A74F07EBC0074E
:10116000BB5400BFD4E72DE9F04F80460C4615462E
:101170001E46A346A5F12000C5B200273EE00C2E76
:1011800007D105EB45009D4901EB800010F8079061
:1011900004E09B4800EB051010F807904FF0000AA0
:1011A00026E009F0800028B121464046099AFFF761
:1011B000A8FF09E0099808B9012000E000200246D4
:1011C00021464046FFF79DFF4FEA49604FEA10690C
:1011D000601CC4B2A4EB0B00B04205D15C4608F120
:1011E000010000F0FF0806E00AF1010000F0FF0A2C
:1011F000BAF1080FD5DB00BF781CC7B2B742BEDB1F
:10120000BDE8F08F2DE9F04F07460C4690461D468D
:10121000A346002634E008EB48007A4901EB800041
:1012200010F806904FF0000A24E009F0800028B181
:1012300021463846099AFFF764FF09E0099808B982
:10124000012000E00020024621463846FFF759FF02
:101250004FEA49604FEA1069601CC4B2A4EB0B006E
:10126000A84203D15C46781CC7B206E00AF101002F
:1012700000F0FF0ABAF1080FD7DB00BF701CC6B23E
:10128000AE42C8DBBDE8F08F2DE9F84306460F46B5
:1012900014461D46DDF82090012000906006020EE5
:1012A0002B4639463046FFF7ADFF0120A84605EB37
:1012B000D87106EB61010090C8B2012101EB440135
:1012C000CAB22B463946FFF79DFFBDE8F8832DE9EA
:1012D000F04F07460C4690461D46A34600262FE0D9
:1012E00018F806904FF0000A24E009F0800028B1B9
:1012F00021463846099AFFF704FF09E0099808B922
:10130000012000E00020024621463846FFF7F9FEA2
:101310004FEA49604FEA1069601CC4B2A4EB0B00AD
:10132000A84203D15C46781CC7B206E00AF101006E
:1013300000F0FF0ABAF1080FD7DB00BF701CC6B27D
:10134000AE42CDDBBDE8F08F10B50246012000E0D3
:1013500050430B1EA1F10104E1B2F9D110BD2DE9FA
:10136000FF4F81B0074691461E460E9D4FF0000A82
:10137000002439E0301B401EC1B20A20FFF7E4FF11
:10138000B9FBF0F00A21B0FBF1F201FB1208BAF14F
:10139000000F16D1701EA04213DDB8F1000F0ED160
:1013A0000120AB4605EBDB71491001FB0471009095
:1013B000C8B22B4620220299FFF7D5FE12E04FF06B
:1013C000010A0120AB4605EBDB71491001FB0471FA
:1013D0000090C8B208F13001CAB22B460299FFF75B
:1013E000C2FE00BF601CC4B2B442C3DB05B0BDE89E
:1013F000F08F0000100C0140CA020020C08C0008D1
:1014000034910008249700082DE9F84105460E465E
:1014100014461F46DDF81C8018E07A2D03DD0025F8
:1014200006F11000C6B23A2E04DD0020054606463D
:10143000FFF752FECDF8008022783B463146284621
:10144000FFF791FE05F10800C5B2641C2078002862
:10145000E3D1BDE8F88178B505460E46144618E09C
:101460007A2D03DD002506F11000C6B23A2E04DD08
:10147000002005460646FFF72FFE01200090227847
:10148000102331462846FFF76EFE05F10800C5B26D
:10149000641C20780028E3D178BD08B5012108201C
:1014A00002F0A2FA0121084602F09EFA0121454805
:1014B00002F07BFF0121444802F077FF3B20ADF8AA
:1014C000000010208DF8030003208DF8020069460B
:1014D0003E4802F099FE08203C49143108604FF460
:1014E0007A7001F0D6F808203849103108600021E0
:1014F000AE20FFF789FD0021D520FFF785FD0021F3
:101500005020FFF781FD0021A820FFF77DFD00217D
:101510003F20FFF779FD0021D320FFF775FD002163
:101520000846FFF771FD00214020FFF76DFD002107
:101530008D20FFF769FD00211420FFF765FD0021D4
:101540002020FFF761FD00210220FFF75DFD002153
:10155000A120FFF759FD0021C020FFF755FD002114
:10156000DA20FFF751FD00211220FFF74DFD002189
:101570008120FFF749FD0021EF20FFF745FD002105
:10158000D920FFF741FD0021F120FFF73DFD0021AB
:10159000DB20FFF739FD00213020FFF735FD00216A
:1015A000A420FFF731FD0021A620FFF72DFD00212B
:1015B000AF20FFF729FDFFF78FFD00200449887059
:1015C00008BD00000004300000023000000C0140A3
:1015D000CC0600202DE9F84F04460E4690461F46E3
:1015E000DDE90B5ADDF828900D2C7ED2DFE804F0FF
:1015F000071019222B343D464F58616A7400301988
:10160000C2B22B46494638460095FFF73DFE74E0CE
:101610003019C2B22B46494638460095FFF734FED2
:101620006BE03019C2B22B46494638460095FFF7A9
:101630002BFE62E03019C2B22B464946384600956F
:10164000FFF722FE59E03019C2B22B464946384610
:101650000095FFF719FE50E03019C2B22B464946FB
:1016600038460095FFF710FE47E03019C2B22B460E
:10167000494638460095FFF707FE3EE03019C2B2F2
:101680002B46494638460095FFF7FEFD35E03019F8
:10169000C2B22B46494638460095FFF7F5FD2CE0CF
:1016A0003019C2B22B46494638460095FFF7ECFD8B
:1016B00023E03019C2B22B46494638460095FFF761
:1016C000E3FD1AE03019C2B22B4649463846009570
:1016D000FFF7DAFD11E008E03019C2B22B464946A7
:1016E00038460095FFF7D0FD07E02B4642464946B5
:1016F00038460095FFF7C8FD00BF00BFBDE8F88F72
:101700003EB5FE480078FE490978884205D0FB487E
:101710000078FB490870FFF7DFFC0220F7490870EA
:1017200001200C23F7A2322100900020FFF76CFE6D
:10173000F548B0F90800A0F57A70292190FBF1F086
:10174000C4B201200C2132220F23CDE900210290E6
:1017500018222046FFF73EFFEB48B0F90800A0F240
:10176000DC50292190FBF1F0C4B201200C2132227F
:101770001B23CDE9002102900A462046FFF72AFFED
:1017800001200C23E1A2322100902C20FFF73CFE27
:10179000DD48B0F90A00A0F57A70292190FBF1F03C
:1017A000C4B201200C2132223B23CDE9002102905A
:1017B00018222046FFF70EFFD348B0F90A00A0F226
:1017C000DC50292190FBF1F0C4B201200C2132221F
:1017D0004723CDE9002102900A462046FFF7FAFE92
:1017E00001200C23CAA2322100905820FFF70CFEE2
:1017F000C548B0F90C00A0F57A70292190FBF1F0F2
:10180000C4B201200C2132226723CDE900210290CD
:1018100018222046FFF7DEFEBB48B0F90C00A0F20C
:10182000DC50292190FBF1F0C4B201200C213222BE
:101830007323CDE9002102900A462046FFF7CAFE35
:10184000FFF70BFC3EBD2DE9F84300260025A84616
:1018500014E0012008EB4801AE4B03EB810208EBDA
:101860004801282303EB41010090C8B20C23314604
:10187000FFF72DFD08F1010000F0FF08B8F1080F97
:10188000E7DBA549B1F90000C11700EB9171C1F385
:101890008707B806050EA1480078B84203D09F48D4
:1018A0000770FFF719FC17B1012F7CD1A9E106F1F0
:1018B0000D00C6B24FF0000814E0012008EB48010B
:1018C000974B03EB810208EB4801002303EB410136
:1018D0000090C8B20C233146FFF7F9FC08F1010073
:1018E00000F0FF08B8F10A0FE7DB8B48B0F9000001
:1018F000A84201D1002400E001248A48007800F0C9
:101900000100D0B14FF0000813E008EB4801864B0E
:1019100003EB810208EB48015E2303EB4101C8B2EF
:101920000C2331460094FFF7D2FC08F1010000F0CF
:10193000FF08B8F1060FE8DB19E04FF0000813E0EC
:1019400008EB4801794B03EB810208EB48015E2369
:1019500003EB4101C8B20C2331460094FFF7B7FCFA
:1019600008F1010000F0FF08B8F1060FE8DB681C81
:10197000C5B206F10D00C6B24FF0000816E0012016
:1019800008EB48016A4B03EB810208EB4801002396
:1019900003EB41010090C8B20C233146FFF797FCDE
:1019A00008F1010000E053E200F0FF08B8F10A0F6F
:1019B000E5DB5948B0F90000A84201D1002400E05D
:1019C00001245848007800F00200D0B14FF0000820
:1019D00013E008EB4801544B03EB810208EB48018C
:1019E0005E2303EB4101C8B20C2331460094FFF79C
:1019F0006EFC08F1010000F0FF08B8F1060FE8DB0B
:101A000019E04FF0000813E008EB4801474B03EBE7
:101A1000810208EB48015E2303EB4101C8B20C23AD
:101A200031460094FFF753FC08F1010000F0FF0875
:101A3000B8F1060FE8DB681CC5B206F10D00C6B2AE
:101A40004FF0000814E0012008EB4801394B03EB8C
:101A5000810208EB4801002303EB41010090C8B26A
:101A60000C233146FFF733FC08F1010000F0FF08BA
:101A7000B8F10A0FE7DB2848B0F90000A84201D10D
:101A8000002400E001242748007800F00400D0B1D1
:101A90004FF0000813E008EB4801234B03EB8102F1
:101AA00008EB48015E2303EB4101C8B20C23314629
:101AB0000094FFF70CFC08F1010000F0FF08B8F1FA
:101AC000060FE8DB19E04FF0000813E008EB4801CF
:101AD000164B03EB810208EB48015E2303EB410147
:101AE000C8B20C2331460094FFF7F1FB08F1010066
:101AF00000F0FF08B8F1060FE8DB1DE04100002010
:101B0000420000204C3A0000B80100204D3A00008D
:101B1000523A0000AC990008340000204500002033
:101B20000C9A0008380000208C9E0008D49E000803
:101B3000849A0008FC9A0008681CC5B206F10D00E2
:101B4000C6B24FF0000814E0012008EB4801F84B42
:101B500003EB810208EB4801002303EB41010090F5
:101B6000C8B20C233146FFF7B2FB08F1010000F0C8
:101B7000FF08B8F10A0FE7DBEE48B0F90000A84211
:101B800001D1002400E00124EB48007800F00800B7
:101B9000D0B14FF0000813E008EB4801E74B03EB2E
:101BA000810208EB48015E2303EB4101C8B20C231C
:101BB00031460094FFF78BFB08F1010000F0FF08AD
:101BC000B8F1060FE8DB19E04FF0000813E008EB6E
:101BD0004801DB4B03EB810208EB48015E2303EB7A
:101BE0004101C8B20C2331460094FFF770FB08F1A5
:101BF000010000F0FF08B8F1060FE8DB681CC5B271
:101C000027E106F10D00C6B24FF0000814E00120F4
:101C100008EB4801CB4B03EB810208EB48010023A2
:101C200003EB41010090C8B20C233146FFF74FFB94
:101C300008F1010000F0FF08B8F10A0FE7DBBD482A
:101C4000B0F90000A84201D1002400E00124BA4804
:101C5000007800F01000D0B14FF0000813E008EB5E
:101C60004801B64B03EB810208EB48015E2303EB0E
:101C70004101C8B20C2331460094FFF728FB08F15C
:101C8000010000F0FF08B8F1060FE8DB19E04FF0A3
:101C9000000813E008EB4801A94B03EB810208EBB5
:101CA00048015E2303EB4101C8B20C233146009486
:101CB000FFF70DFB08F1010000F0FF08B8F1060F77
:101CC000E8DB681CC5B206F10D00C6B24FF0000893
:101CD00014E0012008EB48019B4B03EB810208EB69
:101CE0004801002303EB41010090C8B20C233146A8
:101CF000FFF7EDFA08F1010000F0FF08B8F10A0F54
:101D0000E7DB8C48B0F90000A84201D1002400E0D4
:101D100001248948007800F02000D0B14FF000087D
:101D200013E008EB4801854B03EB810208EB480107
:101D30005E2303EB4101C8B20C2331460094FFF748
:101D4000C6FA08F1010000F0FF08B8F1060FE8DB61
:101D500019E04FF0000813E008EB4801784B03EB63
:101D6000810208EB48015E2303EB4101C8B20C235A
:101D700031460094FFF7ABFA08F1010000F0FF08CC
:101D8000B8F1060FE8DB681CC5B206F10D00C6B25B
:101D90004FF0000814E0012008EB48016B4B03EB07
:101DA000810208EB4801002303EB41010090C8B217
:101DB0000C233146FFF78BFA08F1010000F0FF0811
:101DC000B8F10A0FE7DB5B48B0F90000A84201D187
:101DD000002400E001245848007800F04000D0B111
:101DE0004FF0000813E008EB4801544B03EB81026D
:101DF00008EB48015E2303EB4101C8B20C233146D6
:101E00000094FFF764FA08F1010000F0FF08B8F150
:101E1000060FE8DB19E04FF0000813E008EB48017B
:101E2000474B03EB810208EB48015E2303EB4101C2
:101E3000C8B20C2331460094FFF749FA08F10100BB
:101E400000F0FF08B8F1060FE8DB681CC5B200E03F
:101E500000BF00BFFFF701F9BDE8F8832DE9F843A3
:101E6000002500263A48C0893A490880A84614E06F
:101E7000012008EB4801384B03EB810208EB4801D5
:101E8000222303EB41010090C8B20C232946FFF73F
:101E90001EFA08F1010000F0FF08B8F10A0FE7DBB5
:101EA0002E49B1F90000C11700EB9171C1F387070A
:101EB000B806060E2A480078B84203D028480770B2
:101EC000FFF70AF917B1012F7ED1ABE105F10D0043
:101ED000C5B24FF0000814E0012008EB4801214B87
:101EE00003EB810208EB4801002303EB4101009062
:101EF000C8B20C232946FFF7EAF908F1010000F007
:101F0000FF08B8F1080FE7DB3046711CCEB2134969
:101F1000B1F90010884201D1002400E001240D48ED
:101F2000007800F0010010B14FF0000830E033E01D
:101F3000749B000834000020380000208C9E0008AC
:101F4000D49E00081C9F00085CA100084CA2000859
:101F5000CC0600203E000020EC9B00083A00002048
:101F600046000020649C000808EB4801F74B03EB97
:101F7000810208EB4801682303EB4101C8B20C233E
:101F800029460094FFF7A3F908F1010000F0FF08CB
:101F9000B8F1040FE8DB1BE04FF0000813E008EB9A
:101FA0004801EB4B03EB810208EB4801682303EB8C
:101FB0004101C8B20C2329460094FFF788F908F1C3
:101FC000010000F0FF0800E068E2B8F1040FE6DB72
:101FD00005F10D00C5B24FF0000814E0012008EB38
:101FE0004801DC4B03EB810208EB4801002303EBC3
:101FF00041010090C8B20C232946FFF768F908F1A7
:10200000010000F0FF08B8F1080FE7DB3046711C53
:10201000CEB2D149B1F90010884201D1002400E0CC
:102020000124CE48007800F00200D0B14FF0000843
:1020300013E008EB4801C54B03EB810208EB4801B4
:10204000682303EB4101C8B20C2329460094FFF733
:102050003EF908F1010000F0FF08B8F1040FE8DBD9
:1020600019E04FF0000813E008EB4801B84B03EB10
:10207000810208EB4801682303EB4101C8B20C233D
:1020800029460094FFF723F908F1010000F0FF084A
:10209000B8F1040FE8DB05F10D00C5B24FF0000800
:1020A00014E0012008EB4801AD4B03EB810208EB83
:1020B0004801002303EB41010090C8B20C232946DC
:1020C000FFF705F908F1010000F0FF08B8F10A0F69
:1020D000E7DB3046711CCEB29F49B1F9001088424F
:1020E00001D1002400E001249C48007800F00400A5
:1020F000D0B14FF0000813E008EB4801934B03EB1D
:10210000810208EB4801682303EB4101C8B20C23AC
:1021100029460094FFF7DBF808F1010000F0FF0802
:10212000B8F1040FE8DB19E04FF0000813E008EB0A
:102130004801874B03EB810208EB4801682303EB5E
:102140004101C8B20C2329460094FFF7C0F808F1FA
:10215000010000F0FF08B8F1040FE8DB05F10D0005
:10216000C5B24FF0000814E0012008EB48017D4B98
:1021700003EB810208EB4801002303EB41010090CF
:10218000C8B20C232946FFF7A2F808F1010000F0BD
:10219000FF08B8F1080FE7DB3046711CCEB26E497C
:1021A000B1F90010884201D1002400E001246B48FD
:1021B000007800F08000D0B14FF0000813E008EB89
:1021C0004801624B03EB810208EB4801682303EBF3
:1021D0004101C8B20C2329460094FFF778F808F1B2
:1021E000010000F0FF08B8F1040FE8DB19E04FF040
:1021F000000813E008EB4801554B03EB810208EBA4
:102200004801682303EB4101C8B20C23294600941E
:10221000FFF75DF808F1010000F0FF08B8F1040FC6
:10222000E8DB3CE105F10D00C5B24FF0000814E019
:10223000012008EB48014C4B03EB810208EB4801FD
:10224000002303EB41010090C8B20C232946FFF79D
:102250003EF808F1010000F0FF08B8F10A0FE7DBD3
:102260003046711CCEB23C49B1F90010884201D110
:10227000002400E001243948007800F04000D0B18B
:102280004FF0000813E008EB4801304B03EB8102EC
:1022900008EB4801682303EB4101C8B20C2329462F
:1022A0000094FFF714F808F1010000F0FF08B8F1FE
:1022B000040FE8DB19E04FF0000813E008EB4801D9
:1022C000234B03EB810208EB4801682303EB410138
:1022D000C8B20C2329460094FEF7F9FF08F101006B
:1022E00000F0FF08B8F1040FE8DB05F10D00C5B2FE
:1022F0004FF0000814E0012008EB48011B4B03EBF2
:10230000810208EB4801002303EB41010090C8B2B1
:102310000C232946FEF7DBFF08F1010000F0FF085F
:10232000B8F10E0FE7DB3046711CCEB20A49B1F9A5
:102330000010884201D1002400E001240748007801
:1023400000F0100060B34FF0000825E02C9E00085C
:102350005C9E0008C49C00083A0000203E0000205B
:10236000249D0008E4A30008D4A10008949F00085D
:1023700008EB4801AF4B03EB810208EB48016823EF
:1023800003EB4101C8B20C2329460094FEF79FFFDE
:1023900008F1010000F0FF08B8F1040FE8DB19E0D4
:1023A0004FF0000813E008EB4801A34B03EB810258
:1023B00008EB4801682303EB4101C8B20C2329460E
:1023C0000094FEF784FF08F1010000F0FF08B8F167
:1023D000040FE8DB05F10D00C5B24FF0000814E072
:1023E000012008EB4801954B03EB810208EB480103
:1023F000002303EB41010090C8B20C232946FEF7ED
:1024000066FF08F1010000F0FF08B8F1090FE7DBF3
:102410003046711CCEB28A49B1F90010884201D110
:10242000002400E001248748008800F40070D0B147
:102430004FF0000813E008EB48017E4B03EB8102EC
:1024400008EB4801682303EB4101C8B20C2329467D
:102450000094FEF73CFF08F1010000F0FF08B8F11E
:10246000040FE8DB19E04FF0000813E008EB480127
:10247000714B03EB810208EB4801682303EB410138
:10248000C8B20C2329460094FEF721FF08F1010091
:1024900000F0FF08B8F1040FE8DB00E000BF00BF68
:1024A000FEF7DBFDBDE8F88307B5B0F5E16F05DDAC
:1024B000654A1278521C644B1A700AE0624A12781C
:1024C000022A03DD0A88521E12B20A8000225E4BE5
:1024D0001A70B0F5966F05DA5C4A1278521C5B4BA5
:1024E0001A700AE0594A1278022A03DD0A88521C3F
:1024F00012B20A800022554B1A70B1F90020002A4E
:1025000003DABDF908200A8007E0B1F90020BDF91F
:1025100008309A4201DD00220A800EBD17B5B0F5E1
:10252000E16F02DCB0F5966F05DA494A1278521C69
:10253000474B1A700DE0464A1278022A06DD0A88D7
:10254000BDF808400123A3405A400A800022404BB6
:102550001A701EBD00B53F4880783F49097888420F
:102560001CD03C488078012807D13A48008A3B4972
:102570000880002037498871C871374800780128E1
:1025800008D13448008A35490988884202D00120A0
:10259000334908702F4880782F4908702D4880787B
:1025A000012802D0022820D115E02E49898888B25E
:1025B0002D49B1F900202D49FFF776FF2548007A13
:1025C00040B12849C98888B22849B1F90020234977
:1025D000FFF7A4FF0AE02349898888B22449B1F9AA
:1025E00000201749FFF760FF00E000BF00BF00BDFB
:1025F00010B5184880781F490978884205D01548D9
:1026000080781C490870FEF767FD1248807820B179
:10261000012805D0022809D105E0FFF771F806E08E
:10262000FFF711F903E0FFF719FC00E000BF00BF5E
:1026300010BD00002C9E00085C9E0008D4A4000879
:102640003A0000203E000020470000204800002003
:1026500049000020CC0600204A000020380000205D
:1026600040000020B8010020360000203400002087
:102670003C0000204B00002000B585B0684601F00A
:1026800046F90A490098B0FBF1F00949086005B025
:1026900000BD01B502E00098401E0090009800289F
:1026A000F9D108BD10B5FDF76EFE10BD40420F0018
:1026B0004C00002010B500F05BFB10BD10B5FFF71B
:1026C000F1FF10BD704710B505F020F910BD0000F6
:1026D00000B587B00121084601F093F901210846B1
:1026E00001F082F901215E4801F05FFE40F2CF70F7
:1026F000ADF814004720ADF810000020ADF816002A
:10270000ADF8120004A94FF0804002F025F96020D6
:10271000ADF800000120ADF802000020ADF8060081
:10272000ADF8080069464FF0804002F02CFA08210D
:10273000C80602F0BCFD0121880702F069FD0121F5
:10274000880702F065FC00204649088007B000BDFC
:1027500008B50121084601F047F90121424801F07E
:1027600024FE0121082001F03FF910208DF803001C
:1027700003208DF802004FF48050ADF80000694648
:102780003A4801F041FD4FF40060ADF8000003202D
:102790008DF8020018208DF803006946334801F0D7
:1027A00033FDFFF795FF08BD10B54FF480512F485A
:1027B00001F0D9FD10BD10B54FF480512B4801F048
:1027C000D0FD10BD10B5002414E0FFF7EDFF40F27E
:1027D000CF70244908802648FFF75BFFFFF7EBFF27
:1027E00000204FF08041A1F840002148FFF751FF41
:1027F000601CC4B2032CE8DB10BD2DE9F14F82B0A0
:102800001C480168029805F0C9FA1A4908601A497B
:102810001848006805F088FD02D8002015490860B6
:102820001448006805F06CFDCDE9000106F0F8F9E8
:1028300080460022114B05F079FB064600224FF03E
:10284000804305F08CFC044600220D4B05F015FC7E
:10285000824605F03CFD03490880BDE8FE8F00007C
:10286000000218004000004000023000000C01404F
:10287000C027090050000020DB0FC9400000F03FD6
:10288000003C9F4070B505460C4600F0E6F928462E
:1028900000F0C3F90646204600F0BFF900F0D6F973
:1028A000304670BD70B5044600F0D7F9204600F000
:1028B000B4F9002000F0B1F9054600F0C7F9284648
:1028C00070BD2DE9F04107460D46164600F0C5F9EA
:1028D000384600F0A2F98046002404E0285D00F0AC
:1028E0009CF9601CC4B2B442F8DB00F0AFF940467A
:1028F000BDE8F0812DE9F04107460D46164600F08F
:10290000ACF9384600F089F98046002405E0002043
:1029100000F083F92855601CC4B2B442F7DB00F024
:1029200095F94046BDE8F08170B504460D46052294
:102930007E492A20FFF7C5FF2A462146A020FFF73F
:10294000C0FF70BD70B504460D462A462146A8203A
:10295000FFF7B7FF70BD10B575480078F0B1754846
:10296000008800280ADD002071490870724800784C
:10297000401E71490870FEF725FB0FE06E48017894
:102980000078401C6C4B18702520FFF77BFF6A48CD
:1029900000787D2802DD00206749087010BD70B501
:1029A00004460D46052265492A20FFF78AFF0522C5
:1029B0005E493020FFF785FF01212120FFF762FFEC
:1029C00001212220FFF75EFF1A212420FFF75AFF82
:1029D00029462520FFF756FF07212620FFF752FF43
:1029E000012C08D1FF213120FFF74CFF0F212020BF
:1029F000FFF748FF41E0022C08D1FF213120FFF70B
:102A000041FF0E212020FFF73DFF36E0032C1AD1B5
:102A1000FF21E120FFF736FFFF21E220FFF732FF21
:102A20000F212020FFF72EFF502000F0F6F8732032
:102A300000F0F3F801213C20FFF724FF06213D20A0
:102A4000FFF720FF19E00E212020FFF71BFFFF21D9
:102A5000E120FFF717FFFF21E220FFF713FF5020CF
:102A600000F0DBF8732000F0D8F801213C20FFF7DC
:102A700009FF06213D20FFF705FF70BD1CB50522AB
:102A80002A493020FFF71DFF052269461020FFF775
:102A900031FF002408E01DF804002449095D884244
:102AA00000D003E0601CC4B2052CF4DB00BF052C91
:102AB00001D101201CBD0020FCE710B50720FFF765
:102AC000F1FE044604F0400000B36020FFF7EAFE88
:102AD0001B49087008460078212813DA0846027856
:102AE00018496120FFF706FF154801781548FEF7E1
:102AF0004CF910480088401C0E49088001201249FA
:102B0000087003E0FF21E220FFF7BCFE04F0100094
:102B100030B104F0010018B1FF21E120FFF7B2FE4F
:102B200021462720FFF7AEFE10BD00005400002014
:102B30005F00002062000020BE020020590000203B
:102B40005E000020F00600206400002000B587B081
:102B50000121082000F048FF0121880300F051FF07
:102B60000121102000F040FF4FF46040ADF8040058
:102B700001208DF8060018208DF8070001A93A48B9
:102B800001F042FB4FF40050ADF8040001208DF835
:102B9000060010208DF8070001A9344801F034FB2D
:102BA0004FF48040ADF8040001208DF8060010209D
:102BB0008DF8070001A92D4801F026FB4FF40051C4
:102BC0002A4801F0CEFB4FF48041284801F0C9FBB0
:102BD0000020ADF808004FF48270ADF80A00002024
:102BE000ADF80C00ADF80E00ADF810004FF4007019
:102BF000ADF812000820ADF814000020ADF8160062
:102C00000720ADF8180002A9194801F071FC012154
:102C1000174801F012FD07B000BD10B5044600BF13
:102C20000221134801F08DFD0028F9D021461048FB
:102C300001F034FD00BF01210D4801F082FD0028A4
:102C4000F9D00B4801F02CFDC0B210BD10B54FF407
:102C50000051064801F085FB10BD10B54FF400513E
:102C6000024801F080FB10BD000C01400010014043
:102C70000038004010B588B004460121880300F0F8
:102C8000B3FE0121084600F0AFFE0121042000F050
:102C9000ABFE4FF40070ADF8040003208DF8060081
:102CA00018208DF8070001A9A64801F0ADFA4FF4ED
:102CB0008060ADF8040003208DF8060004208DF834
:102CC000070001A99F4801F09FFA0121042001F0AB
:102CD0006CFB04940020ADF81400ADF81600ADF8BC
:102CE0001800ADF81C000C20ADF81A000020ADF85B
:102CF0000800ADF80A004FF40070ADF80C00002099
:102D0000ADF80E0004A9904802F0A3FC02A98E4879
:102D100002F014FD012240F225518B4802F031FDF2
:102D20000121894802F021FD25208DF800000520B1
:102D30008DF8010001208DF802008DF8030068462F
:102D400000F0BBFE08B010BD08B57F4802F03EFCA5
:102D5000002240F225517C4802F013FD25208DF819
:102D6000000000208DF80300684600F0A6FE08BDB4
:102D700010B50821744802F0D3FD10B1724802F07A
:102D800065FD7148008800F08000F0B16E480C309D
:102D9000008800F08000C0B16C4801780078401CC9
:102DA0006A4A10706A48405C6749091D08801046ED
:102DB000007868490978884207D163480C30008858
:102DC00020F0800060490C3108805F48008800F0E6
:102DD000200000286DD05C48001D0088C4B25E4809
:102DE000007838B9AA2C05D101205B4908705B48EE
:102DF00004705DE058480078012807D1AA2C05D15D
:102E00000220554908705548447051E052480078F6
:102E1000022807D1F12C05DC03204F4908704F48E8
:102E2000847045E04C48007803280CD1FF2C0ADA66
:102E30000420494908704948C4704948047000207A
:102E40004849087034E044480078042819D14448BF
:102E50000078002815DD42480078401E404908707F
:102E6000404800783F490978491C3E4A1170001DCE
:102E70003A490C543A480078D0B9052036490870D0
:102E800016E03548007805280FD100203249087037
:102E900034480078001D31490C5432480078401DF8
:102EA000C1B22E48FFF740FD02E000202A49087019
:102EB00000BF10BD10B50446264801780078401CBC
:102EC000244A107022484454012240F227711E48BF
:102ED00002F057FC10BD10B504460FE020780D2815
:102EE00002D1FFF7E7FF08E020780A2802D1FFF7B8
:102EF000E1FF02E02078FFF7DDFF641C2078002866
:102F0000ECD110BD70B504460D4600200AE0225CED
:102F100010490B780978491C0E4E31700C49CA547F
:102F2000411CC8B2A842F2DB07480C30008800F010
:102F3000800028B9012240F22771034802F021FCE9
:102F400070BD00000008014000380140650000200D
:102F5000EE0800206600002067000020EE09002037
:102F6000680000206900002008B50121084600F033
:102F70002EFD01214FF4017000F036FDFF20ADF869
:102F8000000000208DF803006946594801F03CF923
:102F900008BD00B591B0574802F044FF564806906E
:102FA00056480790002008900920099000200A90B8
:102FB00080200B9040000C9080000D9020200E90FF
:102FC00000020F900020109006A94A4802F0CCFFA2
:102FD0000121484802F0F3FF47484C3802F0FAFC60
:102FE000012002F0DBFE0020019001208DF8080096
:102FF0008DF809004FF46020039000200490092010
:103000008DF8140001A93C484C3802F00AFD4FF439
:10301000004000F04DFC06230122002136484C38C8
:1030200002F097FD06230222012133484C3802F0BA
:1030300090FD0623032202212F484C3802F089FD1F
:103040000723042203212C484C3802F082FD06237A
:103050000522042128484C3802F07BFD06231A463D
:10306000052125484C3802F074FD06230722194635
:1030700021484C3802F06DFD0623082207211E4826
:103080004C3802F066FD0723092211211A484C38FA
:1030900002F05FFD012118484C3802F0F9FC0121D3
:1030A00015484C3802F0E9FC13484C3802F007FD93
:1030B00000BF11484C3802F007FD0028F9D10E4836
:1030C0004C3802F00BFD00BF0B484C3802F00BFDF2
:1030D0000028F9D1012108484C3802F00EFD11B04A
:1030E00000BD10B5FFF740FFFFF753FF10BD000014
:1030F00000080140080002404C240140EE0A002074
:1031000010B504F085FB04F071FB04F057FB03F0ED
:1031100043FD00207B49087004F0A5FB6420FFF705
:10312000B8FA012004F09FFB10BD70B502460020E4
:103130000AE0145C744B1D781B785B1C724E337074
:10314000724B5C55431CD8B28842F2DB70BD10B59F
:103150006D4800786E490978884263DD6A480078D6
:103160006B490978401A3F281FDB00206949087025
:103170003F206949087000200BE065490A7809780A
:10318000491C634B197061498A5C634B411C5A545A
:10319000C8B23F28F1DB40224FF48C715E4803F047
:1031A00003FF022003F0E0FFABE05A480078401C28
:1031B0005849087008460078584909788842F3D180
:1031C0000020544908705048007851490978401A45
:1031D00051490870002015E04B4909784C4A127893
:1031E000891A814208DD4A4909780144474A525CFC
:1031F000494B411C5A5403E00022474B411C5A548E
:10320000411CC8B23F28E7DB3F48007840490870BE
:1032100040224FF48C71404803F0C6FE022003F0B8
:10322000A3FF6EE03848007839490978884268DAA7
:1032300037480078C0F580703349097808443F2842
:103240001FDB0020334908703F20334908700020FD
:103250000BE02F490A780978491C2D4B19702B492E
:103260008A5C2D4B411C5A54C8B23F28F1DB4022E6
:103270004FF48C71284803F097FE022003F074FF8E
:103280003FE024480078401C224908700846007836
:1032900022490978884234D100201E4908701C4810
:1032A000007840421849097808441B4908700020FA
:1032B00018E017490978C1F58071134A1278114452
:1032C000814209DD124909780144C9B20F4A525CB2
:1032D000114B411C5A5403E000220F4B411C5A541D
:1032E000411CC8B23F28E4DB074800780849087051
:1032F00040224FF48C71084803F056FE022003F080
:1033000033FF10BDD20000206C000020400B0020D5
:103310006B0000206D0000205C0C00206A00002083
:1033200018B50246002016E04B1E441CA3420ADBDF
:10333000244BC35A00939DF8003013549DF801406C
:10334000431CD45405E01F4BC35A00939DF8003032
:103350001354831C98B28842E6DB012018BD2DE986
:10336000F04105460E4600F030FC164800F072FCB5
:103370008046B8F1040F02D00020BDE8F08100249F
:103380001BE0701E611C884206DB295D601C285C06
:1033900001EB002087B203E0285D00F57F4087B293
:1033A00008496018394600F058FD8046B8F1040F0E
:1033B00001D00020E1E7A01C84B2B442E1DB01208F
:1033C000DBE700000000010808B50121092000F03A
:1033D0000BFB0220ADF8000048208DF80300694681
:1033E000424800F011FF4FF40070ADF80000482093
:1033F0008DF8030069463D4800F006FF08BD10B592
:1034000000203B49C88139480830006800F00200BC
:1034100028B90846B0F90E0040F00100C8813348D1
:103420000830006800F4007030B93148B0F90E007F
:1034300040F002002E49C8812D48807B00F0010039
:10344000A8B12C480078401C2A490870084600782A
:10345000C82804D1012028490870FFF7B3F925488E
:103460000078FA2823DBFA20224908701FE021485F
:103470000078022818DB1F480078642814DC1F48F5
:103480000078012810D11D488078401C1B498870A5
:1034900008468078022804DC0846807B00F008009B
:1034A00010B100201549887000201249087010489A
:1034B000807B00F00200A8B111480078401C104940
:1034C000087008460078C82804D101200D494870CA
:1034D000FFF778F90A480078FA2806DBFA2008494D
:1034E000087002E000200649087010BD000C014081
:1034F000B8010020700000205F000020CC060020F2
:1035000071000020BE0200200648804706480047A0
:10351000FEE7FEE7FEE7FEE7FEE7FEE7FEE7FEE783
:10352000FEE7FEE70B360008ED0000080CB50020B2
:10353000019000906C48006840F480306A4908604F
:1035400000BF6948006800F4003000900198401CFA
:103550000190009818B90198B0F5A06FF1D16248B8
:10356000006800F4003010B10120009001E000205C
:1035700000900098012843D15C48006840F010009A
:103580005A4908600846006820F0030008600846B1
:10359000006840F0020008605348406852494860A3
:1035A0000846406848600846406840F480604860CB
:1035B0000846406820F47C1048600846406840F4A3
:1035C000E81048600846006840F08070086000BF5E
:1035D0004548006800F000700028F9D04248406873
:1035E00020F00300404948600846406840F002006F
:1035F000486000BF3C48406800F00C000828F9D142
:103600000CBD10B5FFF792FF10BD10B5364800682D
:1036100040F00100344908600846406834490840D9
:103620003149486008460068324908402E49086020
:103630000846006820F4802008600846406820F4AE
:10364000FE0048604FF41F008860FFF7DAFF4FF07C
:1036500000602949086010BD10B50021002000223B
:10366000214B5B6803F00C0121B1042906D0082925
:1036700028D107E0214B224C236027E01F4B204C30
:10368000236023E0184B5B6803F47010164B5B68F3
:1036900003F48032022303EB904022B9194B4343D9
:1036A000174C23600DE0104B5B6803F4003323B12B
:1036B000144B4343124C236003E0104B4343104C24
:1036C000236003E00D4B0E4C236000BF00BF064B90
:1036D0005B68C3F303130C4CE15C094B1B68CB40E4
:1036E000074C236010BD0000001002400020024083
:1036F0000000FFF8FFFFF6FE08ED00E000127A0080
:103700007400002000093D0078000020DF480068B8
:1037100040F00100DD49086008464068DC49084087
:10372000DA49486008460068DA490840D749086025
:103730000846006820F4802008600846406820F4AD
:10374000FE0048604FF41F0088607047CF49096849
:1037500021F48031CD4A11601146096821F480219D
:103760001160B0F5803F03D0B0F5802F0ED106E098
:10377000C649096841F48031C44A116007E0C34971
:10378000096841F4A021C14A116000E000BF00BFF8
:10379000704710B501460022002300204A11012A7B
:1037A00002D1BA4C236806E0022A02D1B74C236A40
:1037B00001E0B64C636A01F01F02012494401C40F2
:1037C0000CB1012000E0002010BD38B500200090B1
:1037D0000024002500BF3120FFF7DBFF05460098DD
:1037E000401C00900098B0F5A06F01D0002DF2D0E1
:1037F0003120FFF7CEFF08B1012400E0002420466D
:1038000038BD01460020A14A106820F0F80040EAC7
:10381000C10010607047A049086070470246002050
:103820009A4B586820F47C1042EA01031843974BE6
:103830005860704798490866704701460020934ACF
:10384000506820F003000843506070478F4840687C
:1038500000F00C007047014600208C4A506820F0B0
:10386000F00008435060704701460020874A5068C6
:1038700020F4E06008435060704701460020834A0E
:10388000506820F4605040EAC1005060704729B190
:103890007E4A527A02437D4B5A7204E07B4A527A46
:1038A00082437A4B5A7270477B49D831086070471F
:1038B00001460020754A506820F44040084350609B
:1038C00070470021714A20321170704A82F820102E
:1038D000012802D004280AD104E001216B4A2032D9
:1038E000117005E00521694A2032117000E000BF27
:1038F00000BF70476949086070476449096A01431D
:10390000624A11627047654944390860704730B5B2
:1039100000210022002400235C4D6D6805F00C019D
:1039200021B1042905D0082923D105E05C4D0560AB
:1039300022E05B4D05601FE0544D6D6805F4701288
:10394000524D6D6805F48034022505EB92421CB996
:10395000544D554305600BE04C4D6D6805F4003542
:103960001DB1504D5543056002E04D4D5543056076
:1039700002E04B4D056000BF00BF444D6D6805F08F
:10398000F0010909484D6B5C0568DD4045603F4D1D
:103990006D6805F4E061090A434D6B5C4568DD40E4
:1039A00085603A4D6D6805F46051C90A3E4D6B5C07
:1039B0004568DD40C560354D6D6805F44041890BB3
:1039C0003A4D6B5CC568B5FBF3F5056130BD29B1B7
:1039D0002E4A526902432D4B5A6104E02B4A526928
:1039E00082432A4B5A61704729B1284A926902439F
:1039F000264B9A6104E0254A92698243234B9A61DF
:103A0000704729B1214AD2690243204BDA6104E0B0
:103A10001E4AD26982431D4BDA61704729B11B4AA5
:103A2000D2680243194BDA6004E0184AD268824334
:103A3000164BDA60704729B1144A12690243134BDE
:103A40001A6104E0114A12698243104B1A617047EF
:103A500012494039086070470F49C86470470B49E4
:103A6000C87170470948406A40F080700749486251
:103A7000704701460020054A92680A400AB10120B9
:103A800000E0002070470149887270470010024032
:103A90000000FFF8FFFFF6FE0000424280044242B1
:103AA00000127A0000093D008800002098000020E4
:103AB00031490143314A1160704770B5002100233C
:103AC0000F22C47804B32D4C246804F4E064C4F5D8
:103AD000E064210AC1F10403CA40447804FA03F106
:103AE0008478144021430901254C0678A1550478B7
:103AF00004F01F050124AC4005786D11AD0005F1FF
:103B0000E025C5F8004109E0047804F01F05012410
:103B1000AC401C4D0678761145F8264070BD1A4A17
:103B20000A400243154B1B1F1A60704739B1134AF4
:103B3000121D12680243114B1B1D1A6006E00F4A4A
:103B4000121D126882430D4B1B1D1A60704704281A
:103B500008D14FF0E021096941F004014FF0E02263
:103B6000116107E04FF0E021096921F004014FF0F5
:103B7000E0221161704700000000FA050CED00E042
:103B800000E400E080E100E080FFFF1F014600202C
:103B9000FE4A106800F03800084310607047FB4987
:103BA000096821F00801F94A1160114609680143CA
:103BB00011607047F549096821F01001F34A11605E
:103BC00011460968014311607047F148EF494860A8
:103BD000F04848607047EE48EC494860ED4848605E
:103BE0007047EA48006940F08000E8490861704782
:103BF000E648006940F08000E4490861704704200D
:103C0000E249C96801F0010109B101200EE0DF4974
:103C1000C96801F0040109B1022007E0DB49C96865
:103C200001F0100109B1032000E00420704700B545
:103C300002460423FFF7E3FF034603E0FFF7DFFF3D
:103C40000346521E012B01D1002AF7D102B90523E8
:103C5000184600BD30B5044604254FF43020FFF768
:103C6000E6FF0546042D17D1C848006940F0020060
:103C7000C649086108464461006940F04000086197
:103C80004FF43020FFF7D3FF0546C048006941F6E6
:103C9000FD710840BD490861284630BD10B50424B7
:103CA0004FF43020FFF7C3FF0446042C16D1B74869
:103CB000006940F00400B54908610846006940F019
:103CC000400008614FF43020FFF7B1FF0446AF48D1
:103CD000006941F6FB710840AC490861204610BDFF
:103CE00000B502460423FFF78AFF034603E0FFF70F
:103CF00086FF0346521E012B01D1002AF7D102B9DB
:103D00000523184600BD10B504244FF43020FFF7FA
:103D1000E7FF0446042C16D19C48006940F00400DB
:103D20009A4908610846006940F0400008614FF474
:103D30003020FFF7D5FF04469448006941F6FB7137
:103D4000084092490861204610BD00208F49C9698A
:103D500001F0020109B1012000E00020704730B5F8
:103D6000A5250424FFF7F1FF00B100254FF4302012
:103D7000FFF75DFF0446042C3AD1854883498860EB
:103D8000844888600846006940F0200008610846C1
:103D9000006940F0400008614FF43020FFF747FF12
:103DA0000446042C1BD17948006941F6DF710840B4
:103DB000764908610846006940F0100008617648BD
:103DC0000580E002FFF733FF0446052C10D06F4852
:103DD000006941F6EF7108406C49086108E0052C64
:103DE00006D06A48006941F6EF71084067490861EA
:103DF000204630BD78B506460C46042500200090CC
:103E0000E802FFF714FF0546042D24D15F4800693E
:103E100040F001005D4908613480E802FFF707FFC8
:103E20000546042D10D1B01C0090200C009908808C
:103E3000E802FFF7FCFE05465448006941F6FE71B2
:103E400008405249086106E05048006941F6FE7199
:103E500008404E490861284678BD70B504460D46B5
:103E60000426F002FFF7E3FE0646042E11D1474870
:103E7000006940F00100454908612580F002FFF724
:103E8000D6FE06464148006941F6FE7108403F49AA
:103E90000861304670BD70B505460E460424E00248
:103EA000FFF7C5FE0446042C17D13948374988600E
:103EB000384888600846006940F0100008612E808C
:103EC000E002FFF7B4FE0446052C06D02F48006937
:103ED00041F6EF7108402D490861204670BD2DE97B
:103EE000F04304464FF6FF763746B046B146042508
:103EF000E443E6B2C4F30727C4F307484FEA146962
:103F0000E802FFF794FE0546042D49D120481F49D9
:103F10008860204888600846006940F01000086109
:103F2000FF2E06D01C4808300680E802FFF77FFE0F
:103F30000546042D08D1FF2F06D017480A30078008
:103F4000E802FFF774FE0546042D0AD1B8F1FF0F11
:103F500007D011480C30A0F80080E802FFF767FE98
:103F60000546042D0AD1B9F1FF0F07D00A480E30DB
:103F7000A0F80090E802FFF75AFE0546052D0FD085
:103F80000248006941F6EF71084007E00020024056
:103F900023016745AB89EFCD00F8FF1F6649086133
:103FA0002846BDE8F08330B5054604244FF43020A0
:103FB000FFF73DFE0446042C41D160485E4988600D
:103FC0005F4888600846006940F0200008610846A4
:103FD000006940F0400008614FF43020FFF727FEF1
:103FE0000446042C22D15448006941F6DF71084090
:103FF000514908610846006940F0100008611DB190
:1040000000205049088002E0A5204E4908804FF466
:104010003020FFF70CFE0446052C10D046480069FE
:1040200041F6EF7108404449086108E0052C06D0CC
:104030004148006941F6DF7108403F490861204668
:1040400030BDF0B505460E46174604243B483A49B4
:1040500088603B488860E002FFF7E9FD0446042CD5
:1040600019D13548006940F010003349086147F024
:10407000F800304328433349891C0880E002FFF7E9
:10408000D6FD0446052C06D02B48006941F6EF7199
:104090000840294908612046F0BD2748C0698008CA
:1040A00070472548006A704700202349096801F0DD
:1040B000200109B1012000E00020704729B11E4A0B
:1040C000126902431C4B1A6104E01B4A12698243C5
:1040D000194B1A61704701460020012908D1164A80
:1040E000D26902F001020AB1012008E0002006E0D6
:1040F000114AD2680A400AB1012000E0002070474E
:104100000D49C860704704200B49C96801F00101DE
:1041100009B101200EE00849C96801F0040109B1A4
:10412000022007E00449C96801F0100109B1032029
:1041300000E0042070470000002002402301674592
:10414000AB89EFCD00F8FF1F10B50446CC48844280
:1041500008D101210420FFF761FC00210420FFF7B2
:104160005DFC46E0C748844208D101210820FFF7E2
:1041700055FC00210820FFF751FC3AE0C248844278
:1041800008D101211020FFF749FC00211020FFF782
:1041900045FC2EE0BD48844208D101212020FFF7D4
:1041A0003DFC00212020FFF739FC22E0B848844282
:1041B00008D101214020FFF731FC00214020FFF70A
:1041C0002DFC16E0B348844208D101218020FFF77E
:1041D00025FC00218020FFF721FC0AE0AE48844244
:1041E00007D101218015FFF719FC0021A015FFF769
:1041F00015FC10BD10B501210846FFF70FFC00218A
:104200000120FFF70BFC10BD2DE9F041024600250F
:104210000026002000230024002791F803C00CF0A2
:104220000F0591F803C00CF0100CBCF1000F03D087
:1042300091F802C04CEA050591F800C0BCF1000FEE
:1042400031D0146800202BE04FF0010C0CFA00F381
:10425000B1F800C00CEA03069E4220D183004FF063
:104260000F0C0CFA03F7BC4305FA03FC4CEA0404F8
:1042700091F803C0BCF1280F06D14FF0010C0CFAE5
:1042800000FCC2F814C00AE091F803C0BCF1480F6A
:1042900005D14FF0010C0CFA00FCC2F810C0401C14
:1042A0000828D1D31460B1F800C0BCF1FF0F34DD91
:1042B000546800202EE000F1080C4FF0010808FAC5
:1042C0000CF3B1F800C00CEA03069E4221D1830032
:1042D0004FF00F0C0CFA03F7BC4305FA03FC4CEA51
:1042E000040491F803C0BCF1280F05D100F1080CBB
:1042F00008FA0CF8C2F8148091F803C0BCF1480F1A
:1043000007D100F1080C4FF0010808FA0CF8C2F8C8
:104310001080401C0828CED35460BDE8F0814FF6D1
:10432000FF710180022181700421C1707047024633
:10433000002093680B400BB1012000E00020704783
:104340000146886880B2704702460020D3680B405F
:104350000BB1012000E0002070470146C86880B220
:10436000704701617047416170470AB1016100E027
:1043700041617047C16070474FF480320A438261E7
:104380008161826182698269704702460020434BE5
:1043900018684FF68073184040EA021008433F4BFC
:1043A000186070473E49C8617047F0B50A4600235F
:1043B00000240021002500F00046B6F1004F02D194
:1043C000364EF16901E0354E7168C0F3034583B2A2
:1043D00000F44016B6F5401F08D121F070612F4E51
:1043E000766826F070662D4F7E6012E000F480162D
:1043F000B6F5801F06D1032606FA05F4A14341F065
:10440000706106E0460D360103FA06F6B14341F04D
:10441000706122B1460D360103FA06F6314300F011
:104420000046B6F1004F02D11C4EF16101E01B4E77
:104430007160F0BD30B500228B071C0F0F2303FA0B
:1044400004F2164B08338C1053F824309343134C6A
:1044500008348D1044F8253023468C1053F824304E
:104460008C07240F00FA04F423430C4C08348D10FD
:1044700044F8253030BD0A49DC310860704700003F
:1044800000080140000C01400010014000140140F0
:1044900000180140001C01400020014000000140C4
:1044A0000000204210B50446BE48844208D10121D4
:1044B0008014FFF7B3FA0021A014FFF7AFFA16E05B
:1044C000B948844208D101210014FFF7B4FA002151
:1044D0002014FFF7B0FA0AE0B448844207D1012162
:1044E000C013FFF7A8FA0021E013FFF7A4FA10BDEC
:1044F00010B50022028802F441520B884C882343F5
:104500008C882343CC8823430C8923434C89234341
:104510008C892343CC8923431A430280838B4FF237
:10452000FF74234083830B8A038210BD2DE9F04F73
:1045300085B005460C464FF0000902274FF00008F1
:104540004FF0010B0026B246A88B4FF24001084005
:10455000A88302202884B5F81C90A068022801D105
:1045600000BF38E0A08810B94FF0010B01E04FF018
:10457000020B8D48854200D100E000BF6846FFF77E
:10458000C6F9DDF800A0E088B0F5007F0AD14FEA57
:104590001A2000EB80004000A168B0FBF1F0401D44
:1045A00086B20BE04FEA4B10BAFBF0F000EB800054
:1045B0004000A168B0FBF1F0401D86B20A20B6FBB6
:1045C000F0F606F00108A6EB0800C0F34F074FF61F
:1045D000FF7000EA0828022F01DBFF2F02DD02270F
:1045E0004FF00008E08840EA080038432884A0889B
:1045F000A1890843618808432188084340F400608A
:1046000040EA0909A5F81C9005B0BDE8F08F00212B
:10461000018041808180C180018141818181C1818E
:104620000721018270470021018041808180C18083
:104630000221816000218181704721B1028842F00E
:104640004002028004E002884FF6BF731A400280E5
:10465000704721B1828B42F48062828304E0828BB6
:104660004FF6FF331A408283704730B50024002391
:104670000C110125A540ABB21AB185881D43858078
:1046800002E085889D43858030BD1AB183880B4345
:10469000838002E083888B438380704781817047E9
:1046A0000146888970474FF6FF62914204D0028824
:1046B00042F48072028004E002884FF6FF631A40E1
:1046C0000280704721B1828842F00402828004E0B7
:1046D00082884FF6FB731A408280704702884FF23F
:1046E000FF731A40028002880A43028070470188E3
:1046F00041F480510180704721B1028842F4005298
:10470000028004E002884DF6FF731A400280704771
:1047100002460020012901D0108B00E0908A7047EA
:104720000146088A7047B1F5804F04D1028842F4EF
:104730008042028004E002884BF6FF731A40028038
:1047400070470246002013890B400BB1012000E0A6
:1047500000207047CA4302817047F0B5024600202E
:1047600000240023002501F00F070126BE40B4B24B
:104770000B1101269E40B3B2968806EA03051689FE
:10478000264016B10DB1012000E00020F0BD10B5AB
:10479000002201F00F040123A3409AB2D343038106
:1047A00010BD00000030014000380040003C0040D7
:1047B00010B50446FE48844208D10121C014FFF719
:1047C0002DF90021E014FFF729F9C4E0B4F1804F7E
:1047D00008D101210846FFF72EF900210120FFF73B
:1047E0002AF9B8E0F348844208D101210220FFF7FA
:1047F00022F900210220FFF71EF9ACE0EE488442C6
:1048000008D101210420FFF716F900210420FFF749
:1048100012F9A0E0E948844208D101210820FFF7FD
:104820000AF900210820FFF706F994E0E4488442E1
:1048300008D101211020FFF7FEF800211020FFF71A
:10484000FAF888E0DF48844208D101212020FFF7F0
:10485000F2F800212020FFF7EEF87CE0DA488442ED
:1048600008D101214014FFF7D9F800216014FFF7A7
:10487000D5F870E0D548844209D10121C804FFF77A
:10488000CDF800214FF40020FFF7C8F863E0D048CE
:10489000844209D101210805FFF7C0F800214FF437
:1048A0008010FFF7BBF856E0CA48844209D10121C5
:1048B0004805FFF7B3F800214FF40010FFF7AEF8FA
:1048C00049E0C548844208D101214020FFF7B3F8F0
:1048D00000214020FFF7AFF83DE0C048844208D1F6
:1048E00001218020FFF7A7F800218020FFF7A3F81F
:1048F00031E0BB48844208D101218015FFF79BF8C5
:104900000021A015FFF797F825E0B648844209D1A9
:1049100001210804FFF782F800214FF48030FFF7EF
:104920007DF818E0B048844209D101214804FFF71E
:1049300075F800214FF40030FFF770F80BE0AB483A
:10494000844208D101218804FFF768F800214FF460
:104950008020FFF763F810BD00220288944B984234
:104960000ED0994B98420BD0B0F1804F08D0914BAC
:10497000984205D0904B984202D0904B984204D177
:104980004FF68F731A404B881A438D4B984207D0CD
:104990008C4B984204D04FF6FF431A40CB881A4301
:1049A00002808B8883850B880385814B98420BD0CE
:1049B000854B984208D08B4B984205D08A4B984241
:1049C00002D08A4B984201D10B7A0386012383825D
:1049D000704770B5002400220023058C4FF6FE7648
:1049E00035400584028C8388048B4FF68F752C40EC
:1049F000B51E2C400D882C43751E2A400D892A4374
:104A00004D882A436A4DA8420BD06F4DA84208D06A
:104A1000744DA84205D0744DA84202D0734DA842EF
:104A200013D14FF6F7752A404D892A434FF6FB758F
:104A30002A408D882A434FF6FF652B404FF6FF55DD
:104A40002B408D892B43CD892B4383800483CD88D4
:104A50008586028470BD70B5002400220023058C79
:104A60004FF6EF7635400584028C8388048B48F638
:104A7000FF752C404FF6FF452C400D884FF6FF7612
:104A800006EA05252C434FF6DF752A400D8906EA14
:104A900005152A434D8806EA05152A43444DA842C8
:104AA00002D0494DA8421DD14FF67F752A404D894D
:104AB0004FF6FF7606EA05152A434FF6BF752A40E2
:104AC0008D8806EA05152A434FF6FF352B404FF235
:104AD000FF752B408D8906EA85052B43CD8906EAB3
:104AE00085052B4383800483CD880587028470BDB0
:104AF00070B5002400220023058C4FF6FF66354078
:104B00000584028C8388848B4FF68F752C404FF67A
:104B1000FC752C400D882C434FF6FF552A400D891B
:104B20004FF6FF7606EA05252A434D8806EA052555
:104B30002A431F4DA84202D0234DA8421DD14FF257
:104B4000FF752A404D894FF6FF7606EA05252A4370
:104B50004FF6FF352A408D8806EA05252A434EF692
:104B6000FF752B404DF6FF752B408D8906EA051524
:104B70002B43CD8906EA05152B4383808483CD889A
:104B80008587028470BD70B5002200230024058C47
:104B90004EF6FF7635400584038C8488828B48F678
:104BA000FF752A404FF6FF452A400D8820E000009F
:104BB000002C01400004004000080040000C0040B0
:104BC000001000400014004000340140004C01403F
:104BD000005001400054014000180040001C0040FB
:104BE00000200040004001400044014000480140D6
:104BF0004FF6FF7606EA05252A434DF6FF752B4052
:104C00000D8906EA05352B434D8806EA05352B4309
:104C1000FA4DA84202D0FA4DA84208D14BF6FF75D2
:104C20002C408D894FF6FF7606EA85152C4384804B
:104C30008283CD88A0F84050038470BD828B4FF2F0
:104C4000FF331A408283828B4FF6FF7303EA0123FE
:104C50001A4382837047F0B50C46154600220021A6
:104C60000026078C4EF6FF7C07EA0C070784828B30
:104C7000018C4FF6FF7707EA043640F6FF473A40CB
:104C80004FF6FF7707EA05273A434FF6FF7707EA23
:104C900003373A43D94FB8420ED0D94FB8420BD060
:104CA000B0F1804F08D0D74FB84205D0D64FB842A8
:104CB00002D0D64FB84206D14DF6FF77394046F4C0
:104CC0008057394305E047F6FF57394044F4805791
:104CD000394382830184F0BD828B4FF6F3731A400F
:104CE0008283828B0A4382837047F0B50C46154657
:104CF000002200210026078C4FF6FF6C07EA0C0704
:104D00000784828B018C4FF6FF7707EA04264FF663
:104D10000C773A404FF6FF7707EA03172F433A43E1
:104D2000B64FB8420ED0B64FB8420BD0B0F1804F5C
:104D300008D0B44FB84205D0B34FB84202D0B34FF9
:104D4000B84206D14FF6FF57394046F480773943D1
:104D500005E04FF2FF57394044F4807739438283AE
:104D60000184F0BD028B4FF2FF331A400283028BA5
:104D70004FF6FF7303EA01231A4302837047F0B52D
:104D80000C461546002200210026078C4FF6EF7CCA
:104D900007EA0C070784028B018C4FF6FF7707EABE
:104DA000041640F6FF473A404FF6FF7707EA03370D
:104DB0003A434FF6FF7707EA05273A438F4FB84249
:104DC0000ED08F4FB8420BD0B0F1804F08D08D4F2E
:104DD000B84205D08C4FB84202D08C4FB84206D1B1
:104DE0004FF6DF77394046F01007394305E04FF6BC
:104DF0005F77394044F01007394302830184F0BDE6
:104E0000028B4FF6F3731A400283028B0A4302832C
:104E10007047F0B50C46154600220021068C4FF66F
:104E2000FE773E400684028B018C4FF60C763240B2
:104E30007E1C06EA03162E433243704EB0420ED05B
:104E40006F4EB0420BD0B0F1804F08D06D4EB042E3
:104E500005D06D4EB04202D06C4EB04206D14FF636
:104E6000FD76314044F00106314305E04FF6F5761A
:104E7000314044F00106314302830184F0BD70B536
:104E800005460C465D4885420ED05D4885420BD0F4
:104E9000B5F1804F08D05B48854205D05A4885421D
:104EA00002D05A48854200D100E000BF208850B9A6
:104EB0002389A28861882846FFF7ABFFE18828464E
:104EC000FFF79EFF25E0208804280AD12389A288C5
:104ED00061882846FFF753FFE1882846FFF742FF25
:104EE00017E0208808280AD12389A28861882846EB
:104EF000FFF7FBFEE1882846FFF7EEFE09E0238975
:104F0000A28861882846FFF7A6FEE1882846FFF7B9
:104F100095FE70BD2DE9F04105460C46002601279F
:104F2000608808B9022600E00026A088012801D187
:104F3000022700E001272088A0B92389A288618880
:104F40002846FFF766FFE1882846FFF759FF2389C7
:104F50003A4631462846FFF712FFE1882846FFF718
:104F600001FF13E02389A28861882846FFF707FF25
:104F7000E1882846FFF7F6FE23893A46314628465F
:104F8000FFF747FFE1882846FFF73AFFBDE8F081C9
:104F90000A884B881A438B881A43CB881A430B899B
:104FA0001A434B891A438B891A43A0F8442070474F
:104FB0004FF6FF71818000210180C1804180017224
:104FC00070470021018041808180C1800181418141
:104FD0008181C18170470021018041800121818050
:104FE0000021C180018170470021018041808180C2
:104FF000C18001814181818170470000002C014006
:10500000003401400004004000080040000C004053
:1050100021B1028842F00102028004E002884FF6CA
:10502000FE731A400280704731B1B0F8442042F458
:105030000042A0F8442005E0B0F84420C2F30E027C
:10504000A0F8442070471AB183890B43838102E0A2
:1050500083898B43838170478182704741EA0203D1
:10506000A0F8483070471AB183890B43838102E06E
:1050700083898B438381704701894FF6F872114011
:10508000018170470A46002101894FF68F7319404C
:1050900011430181704730B504460D46294620462C
:1050A000FFF7F0FF208940F00700208130BD2DE997
:1050B000F04104460D4616461F46602D06D13B467C
:1050C000012231462046FFF75AFE05E03B46012209
:1050D00031462046FFF79DFE29462046FFF7D2FFC6
:1050E000208940F007002081BDE8F08130B50C46F2
:1050F00000210189C9B24FF6FF7505EA0325154362
:1051000025432943018130BD2DE9F04105460E4676
:1051100017469846002443463A4631462846FFF74C
:10512000E5FF2C894FF6F870044044F007044FF671
:105130008F70044044F070042C81BDE8F081F0B51C
:1051400004460D4616461F463B4632462946204633
:10515000FFF7CCFF208940F480402081F0BD01851D
:10516000828270470A46002101884FF68F731940EA
:10517000114301807047F0B50C4615461E460021CC
:10518000002200230189028B038C4FF6F877394007
:1051900021434FF6FC473A4040F201173A434FF69D
:1051A000DD773B404FF6FF7707EA06172F433B4377
:1051B000018102830384F0BD0A460021018B4FF672
:1051C0008F7319401143018370470A460021018BF8
:1051D00048F6FF7319404FF6FF7303EA02231943A1
:1051E000018370470A460021818B4FF68F73194067
:1051F0001143818370470A460021818B48F6FF7373
:1052000019404FF6FF7303EA022319438183704765
:1052100021B1028842F08002028004E002884FF649
:105220007F731A400280704721B1828842F00402E5
:10523000828004E082884FF6FB731A4082807047B8
:1052400021B1828842F00802828004E082884FF611
:10525000F7731A408280704721B1828842F00102C0
:10526000828004E082884FF6FE731A408280704785
:105270000A460021018B4FF6F77319401143018351
:1052800070470A460021018B4FF2FF7319404FF619
:10529000FF7303EA02231943018370470A46002182
:1052A000818B4FF6F77319401143818370470A468B
:1052B0000021818B4FF2FF7319404FF6FF7303EA11
:1052C00002231943818370470A460021018B4FF660
:1052D000FB7319401143018370470A460021018B7B
:1052E0004FF6FF3319404FF6FF7303EA02231943C9
:1052F000018370470A460021818B4FF6FB731940EA
:105300001143818370470A460021818B4FF6FF339A
:1053100019404FF6FF7303EA022319438183704754
:105320000A460021018B4FF67F7319401143018318
:1053300070470A460021018BC1F30E014FF6FF733F
:1053400003EA02231943018370470A460021818B37
:105350004FF67F7319401143818370470A4600213D
:10536000818BC1F30E014FF6FF7303EA0223194349
:10537000818370470A460021018C4FF6FD73194066
:105380001143018470470A460021018C4FF6F773E0
:1053900019401143018470470A460021018C4FF6E1
:1053A000DF7319404FF6FF7303EA021319430184B8
:1053B00070470A460021018C4FF67F7319404FF663
:1053C000FF7303EA02131943018470470A46002160
:1053D000018C4FF6FF5319404FF6FF7303EA022387
:1053E0001943018470470A460021018C4FF2FF7374
:1053F00019404FF6FF7303EA0223194301847047F3
:105400000A460021018C4DF6FF7319404FF6FF73D9
:1054100003EA023319430184704730B500230124A5
:105420008C40A3B2048C9C430484048C02FA01F5E2
:10543000ADB22C43048430BD30B5002304248C402D
:10544000A3B2048C9C430484048C02FA01F5ADB22F
:105450002C43048430BD70B5034600200024184658
:10546000183001258D40ACB21D8CA5431D8409B1B7
:10547000082909D100EB6100056825F07005056079
:105480000568154305600EE00D1FC5F34E05284461
:10549000056825F4E045056005684FF6FF7606EAE5
:1054A00002263543056070BD21B1028842F0020238
:1054B000028004E002884FF6FD731A4002807047B4
:1054C00021B1028842F00402028004E002884FF613
:1054D000FB731A400280704721B1828842F080023B
:1054E000828004E082884FF67F731A408280704782
:1054F00002884FF6F7731A40028002880A4302803E
:10550000704782884FF68F731A40828082880A43E0
:105510008280704702894FF6F8731A40028102892F
:105520000A430281704702894FF67F731A40028155
:1055300002890A43028170478184704781857047E0
:10554000818670470187704781877047A0F84010B7
:10555000704702884FF6FF431A40028002880A43D0
:10556000028070470146888E70470146088F704759
:105570000146888F70470146B1F8400070470146E8
:10558000888C70470146088D704702460020138AB8
:105590000B400BB1012000E000207047CA4302829B
:1055A000704730B50246002000230024158A05EA22
:1055B0000103958905EA010413B10CB1012000E053
:1055C000002030BDCA4302827047000010B5044677
:1055D000FB48844209D101218803FEF71FFA00210C
:1055E0004FF48040FEF71AFA32E0F648844209D1BF
:1055F00001214804FEF71FFA00214FF40030FEF7A6
:105600001AFA25E0F048844209D101218804FEF706
:1056100012FA00214FF48020FEF70DFA18E0EB4853
:10562000844209D10121C804FEF705FA00214FF494
:105630000020FEF700FA0BE0E548844208D1012182
:105640000805FEF7F8F900214FF48010FEF7F3F992
:1056500010BD2DE9F04786B005460E460024A2464F
:1056600000BFA1460027B08900B100BF2F462C8A99
:105670004CF6FF700440F08804432C82AC894EF64F
:10568000F3100440B088318908437189084304430A
:10569000AC81AC8A4FF6FF400440B0890443AC8231
:1056A00001A8FEF734F9C648874202D1DDF810A000
:1056B00001E0DDF80CA0A88900F4004040B10AEB3D
:1056C000CA0000EB0A1031684900B0FBF1F807E0AE
:1056D0000AEBCA0000EB0A1031688900B0FBF1F850
:1056E0006420B8FBF0F004012009642101FB10895B
:1056F000A88900F4004040B1322000EBC900B0FBA3
:10570000F1F000F00700044308E0322000EB09103C
:105710006421B0FBF1F000F00F0004432C8106B0CF
:10572000BDE8F0874FF41651016000218180C180EF
:1057300001810C21418100218181704710B5024611
:105740000020108A4FF2FF0318400B884C88234337
:105750008C882343CC8823431843108210BD00213A
:10576000018041808180C180704721B1828942F4EB
:105770000052828104E082894DF6FF731A408281D3
:105780007047F0B50346002400260025002040F6AF
:105790006A17B94200D100BF1846C1F3421401F0A4
:1057A0001F06012707FA06F5012C01D10C3004E091
:1057B000022C01D1103000E014301AB107682F43D9
:1057C000076002E00768AF430760F0BD1AB1838A43
:1057D0000B43838202E0838A8B4383827047028A71
:1057E0004FF6F0731A400282028A0A43028270471F
:1057F00082894FF2FF731A40828182890A43828133
:10580000704721B1828942F00202828104E08289DC
:105810004FF6FD731A4082817047028A4FF6DF739C
:105820001A400282028A0A430282704721B1028A28
:1058300042F48042028204E0028A4BF6FF731A406F
:1058400002827047C1F3080282807047014688884F
:10585000C0F308007047818941F0010181817047E0
:10586000028BD2B20283028B42EA0122028370478A
:10587000028B02F47F420283028B0A430283704749
:1058800021B1828A42F02002828204E0828A4FF6AD
:10589000DF731A408282704721B1828A42F010027F
:1058A000828204E0828A4FF6EF731A408282704748
:1058B00021B1828A42F00802828204E0828A4FF695
:1058C000F7731A408282704721B1828942F4004204
:1058D000828103E08289C2F30E028281704721B186
:1058E000828A42F40062828204E0828A4FF2FF736D
:1058F0001A4082827047828A4FF6FB731A40828276
:10590000828A0A438282704721B1828A42F002026F
:10591000828204E0828A4FF6FD731A4082827047C9
:1059200002460020B1F5007F00D100BF13880B4074
:105930000BB1012000E00020704701F40072B2F5C5
:10594000007F00D100BFCA430280704770B5024695
:10595000002400230025002040F66A16B14200D141
:1059600000BFC1F3421501F01F03012606FA03F33D
:10597000012D02D19689334006E0022D02D1168A0C
:10598000334001E0968A33400C12012606FA04F4F3
:105990001688344013B10CB1012000E0002070BD26
:1059A00010B50022002340F66A14A14200D100BFC6
:1059B0000A1201249440A3B2DC43048010BD00000D
:1059C000003801400044004000480040004C0040C6
:1059D0000050004010B50446FA48844208D1012125
:1059E0004015FEF71BF800216015FEF717F817E0C9
:1059F000F548844208D101210015FEF70FF8002177
:105A00002015FEF70BF80BE0F048844208D1012185
:105A1000C803FEF703F800214FF40040FDF7FEFF36
:105A200010BD30B50246002000235068E84C2040ED
:105A30000D790C6844EA0524204350609068E54CD9
:105A40002040D1E902542C434D7944EA45042043D7
:105A50009060D06A20F470000C7C641EE4B2234392
:105A600040EA0350D06230BD0021016001714171F4
:105A70008160C16001210174704721B1826842F0E8
:105A80000102826003E0826822F0010282607047B6
:105A900021B1826842F48072826003E0826822F45D
:105AA00080728260704710B50023CBB21AB144688F
:105AB0001C43446002E044689C43446010BD81681C
:105AC00041F0080181607047014600208A6802F0B9
:105AD00008020AB1012000E000207047816841F00F
