:020000040800F2
:10000000B8260020450100084D0100084F010008F6
:1000100051010008530100085501000800000000CC
:100020000000000000000000000000005701000870
:1000300059010008000000005B0100085D01000894
:100040005F0100085F0100085F0100085F01000810
:100050005F0100085F0100085F0100085F01000800
:100060005F0100085F0100085F0100085F010008F0
:100070005F0100085F0100085F0100085F010008E0
:100080005F0100085F0100085F010008412A0008C5
:10009000692A00085F0100085F0100085F0100088D
:1000A0005F0100085F0100085F0100085F010008B0
:1000B0005F0100085F0100085F0100085F010008A0
:1000C0005F0100085F0100085F0100085F01000890
:1000D0005F0100085F0100085F0100085F01000880
:1000E0005F0100085F0100085F0100085F01000870
:1000F0005F0100085F0100085F0100085F01000860
:100100005F0100085F0100085F0100085F0100084F
:100110005F0100085F0100085F0100085F0100083F
:100120005F0100085F0100085F0100085F0100082F
:10013000DFF80CD000F03CF800480047CD2E000856
:10014000B82600200648804706480047FEE7FEE73D
:10015000FEE7FEE7FEE7FEE7FEE7FEE7FEE7FEE777
:10016000412900083101000840EA01039B0703D040
:1001700009E008C9121F08C0042AFAD203E011F8E6
:10018000013B00F8013B521EF9D27047D2B201E0A8
:1001900000F8012B491EFBD270470022F6E710B58C
:1001A00013460A4604461946FFF7F0FF204610BDE5
:1001B000064C074D06E0E06840F0010394E80700B4
:1001C00098471034AC42F6D3FFF7B6FF4C45000811
:1001D0006C45000870B58C1810F8015B15F007032A
:1001E00001D110F8013B2A1106D110F8012B03E0D0
:1001F00010F8016B01F8016B5B1EF9D12B0705D4D8
:100200000023521E0DD401F8013BFAE710F8013B20
:10021000CB1A921C03E013F8015B01F8015B521E3C
:10022000F9D5A142D8D3002070BD00002DE9F04FD0
:1002300085B00446049000208E1CCDE90101C04920
:100240000870C04A14F8011B0546D175927D81469D
:10025000914274D214F8011B5FEA01086FD014F8C0
:1002600001BB5FEACB7101D00B2700E00A275FEAF0
:100270008B7170D5B9F1000F3DD0B248BD42B0F8D6
:100280000AA010D15FEACB600DD46946584601F050
:10029000BFFB02281ED1BAF1010A03D3A84909788D
:1002A0000029F2D0F9E00A2D03D00A25284601F0F2
:1002B000F9F9DFF88C9269460E2001F0A9FB0228BB
:1002C00006D1BAF1010A03D399F800100029F2D03F
:1002D0004FF000090128E5D1009906F8011B0099AB
:1002E000090A06F8011B0099090C06F8021B00997F
:1002F000090E06F8011C5FEACB614CD5E17854F891
:10030000040BBD4261F31F6003908E48B0F80CA04F
:1003100003D03D46384601F0C5F98A484789002197
:10032000584601F075FB022802D0012806D107E0EB
:100330007F1E03D3824909780029F0D0ADE0D4E0D4
:10034000804847896946584601F062FB022803D07D
:10035000012816D107E03EE07F1E12D378490978C4
:100360000029EFD00DE07749009A09691140039AFE
:10037000914206D0BAF1010A03D3714909780029E4
:10038000DED07049009A09691140039A91426DD0FC
:1003900040F010006AE0B9F1000F71D1BD4203D006
:1003A0003D46384601F07EF96648DFF894A147895A
:1003B0000021584601F02CFB022802D001286CD104
:1003C00006E07F1E69D39AF800100029F0D064E09F
:1003D0004FF0010954E0B9F1000F2AD00A2D03D0E3
:1003E0000A25284601F05EF95648B0F80AA0694689
:1003F0000E2001F00DFB022802D001284DD107E0AC
:10040000BAF1010A49D34E4909780029EFD044E0F6
:10041000009806F8010B00984FF00009000A06F852
:10042000010B0098000C06F8020B0098000E06F86D
:10043000010CE17854F8040B61F31F6000905FEA4F
:100440008B6103D53F490861012019E0BD4203D00B
:100450003D46384601F026F93A48DFF8E4A04789DE
:100460006946584601F0D4FA022802D0012814D176
:1004700006E07F1E11D39AF800100029F0D00CE09E
:100480000199491C01912E49097831B9A8F101015E
:100490005FEA01087FF4E3AE0CE0B8F1000F09D089
:1004A00014F8011B8A0701D5C90600D5241DA8F13F
:1004B0000108F2E7012834D10A2D02D00A2001F008
:1004C000F1F820481E4FB9F1000F45891ED069464A
:1004D0000E2001F09DFA022802D0012821D105E06A
:1004E0006D1E1ED339780029F1D01AE0009906F864
:1004F000011B0099090A06F8011B0099090C06F86E
:10050000021B0099090E06F8011C0AE000210E20CA
:1005100001F07EFA022804D16D1E02D33978002939
:10052000F4D0DDE901121170029948700298311A75
:10053000049805B0201A41EA0040BDE8F08F0000A1
:1005400000000020041400202DE9F84F0025894602
:10055000CF1C4F49064628460D70DFF8388116F843
:10056000011B88F8171098F81620914224D236F80B
:10057000024B002C20D016F801AB5FEACA7001D004
:100580000B2000E00A20834601F08CF85FEA8A70B5
:100590005CD54048DFF8F88046890021504601F0DC
:1005A00037FA022802D0012866D131E0761E63D3E3
:1005B00098F800100029F0D05EE03CB9BBF10A0FBA
:1005C00002D00A2001F06EF84FF00E0A3148468939
:1005D0006946504601F01CFA022802D001284BD18E
:1005E00006E0761E48D398F800100029F0D043E0CA
:1005F000009907F8011B0099090A07F8011B0099E7
:10060000090C07F8021B0099090E07F8011C6D1C64
:10061000641ED2D230E0F17856F8040B61F31F600B
:1006200000901C48B0F80A806946504601F0F0F985
:10063000022802D001281FD107E0B8F101081BD31E
:10064000134909780029EFD016E06D1C641EE2D230
:10065000BBF10A0F02D00A2001F024F80D480C4E1D
:10066000448900210E2001F0D3F9022804D1641E30
:1006700002D331780029F4D089F800502A0A89F889
:10068000012089F80200A7EB0900BDE8F88F0000FF
:1006900000000020041400202DE9FF470278A2F199
:1006A00080031F2B04D800F0A1F904B0BDE8F08747
:1006B00001F8012B0C4610F801CB01260221FF2383
:1006C000C04F0025C04A4FF00119BCF1170F76D278
:1006D000DFE80CF00C375568F8F7F675F5767E759F
:1006E000757575758084A2B0BADEF4000178621C5D
:1006F0000020062921D006DC05291ED2DFE801F002
:100700001D1D1D1D0C00F0290DD0FD2915D0FE2941
:1007100011D0FF2911D109E0AC480168116040688F
:100720005060082009E01320107005E04020107090
:100730005570022001E016700120207000F10210B7
:10074000B3E7027822B1012A40D023703E462EE161
:1007500090F801804FF400561120CDE90251CDE907
:100760000060DFF86C926946484600F0A9FC5FEA39
:10077000C870484601D0466128E0066126E025465B
:10078000047804B90124012C04D0022C06D00024E2
:100790002C70BEE0167001F065FDF9E7117001F0F4
:1007A0001BFDF5E715704FF47C40CDE90005CDE960
:1007B00002516946874800F083FC2570F7E0FDE0B0
:1007C000008800EB4000C000401EFDD12570BDE751
:1007D00065701EE0214600F02FFBC0E0C178006884
:1007E00061F31F607C4928B17C4B984204D356705A
:1007F00056600EE023700DE0794B55700344B3FB57
:10080000F0F0022803D90323B0FBF3F000E001204D
:10081000506025700E46CAE010F8016B0EB94FF417
:1008200080760146304602F05FF8F61DF00825702C
:10083000060453E0007800F00301491C1175C0F371
:1008400080005075257064E004F8015B27460124A0
:10085000264610F8018B15E010F8015B8146014631
:100860003A46284601F086F815F03F0000D14020B6
:10087000C01DC1080C44641C09EB01002A0601D507
:100880000F440E44B8F10108E6D264F31F468EE02F
:1008900010F8016B002196750B460BE002EB030C80
:1008A00010F8017B8CF8187002EB430C5B1CACF861
:1008B00020103944B342F1D300200BE011E079E07D
:1008C00055E033E027E013181B7EC91A02EB400302
:1008D000401C1986B042F6D32570360406F1011685
:1008E00065E01178022913D10078D075917D884296
:1008F0000ED20E2000F0D6FE00F0D2FF2570607000
:10090000010AA170010CE170000E2071354E4EE01D
:1009100023704E464BE001781172B0F801105181FE
:10092000B0F80300908125702F4E40E012782146E8
:10093000012A16D0022A17D00446401C10F8012BB9
:1009400042B110F8013B9E0701D5DB0600D5001D22
:10095000521EF6D1001B0D7000044D70801C06461F
:1009600025E000F055F8FAE7FFF760FCF7E70646E8
:100970001078214601280BD002280DD00D704D7043
:10098000A5700320F17889070AD540F480260EE08F
:10099000304600F0BDF9F5E73046FFF7D5FDF1E749
:1009A000B6F801104FF4802202EB8146064306F1AF
:1009B00001107AE6214600F025FBD0E704F8013C5F
:1009C000484672E60100020004140020E0430008DB
:1009D00000100140000C01400100040080A8120139
:1009E000FF502502050001000100050000784FF0CE
:1009F000011208701046704710B501F01DFB01F0A0
:100A0000D7FA01F08BFBBDE8104001F0A3BB00005A
:100A10002DE9F04F87B0044605900020DFF8E8A2EA
:100A2000CDE901018D1C8AF8000003906678A41CB2
:100A30000746002E71D014F8018B5FEA88716DD5DE
:100A4000A7B3B248B0F80A9008F01100012807D007
:100A5000574669460E2001F03FFC02280ED013E0F5
:100A60006946404601F038FC02280ED1B9F101096F
:100A700003D39AF800100029F2D0F8E0B9F1010987
:100A800002D339780029E4D000270128F5D1009954
:100A900005F8011B0099090A05F8011B0099090CCA
:100AA00005F8021B0099090E05F8011C5FEAC861F0
:100AB0004FD5E17854F8040B61F31F60049093481C
:100AC000B0F80CB05FEAC87013D09048B0F80A9044
:100AD0000021404601F000FC022802D0012807D185
:100AE00007E0B9F1010903D39AF800100029EFD00B
:100AF000BDE08648B0F80A906946404601F0ECFB3C
:100B0000022802D0012818D109E0B9F1010914D353
:100B10009AF800100029EFD00FE0C6E055E07B49BD
:100B2000009A09691140049A914206D0BBF1010B69
:100B300003D39AF800100029DBD07449009A0969A0
:100B40001140049A914201D040F01000012817D1C1
:100B500039E06E49B1F80A905FEAC87113D097BBCB
:100B60000021404601F0B8FB022802D001287ED1C6
:100B700007E0B9F101097AD39AF800100029EFD003
:100B800075E001271FE06946404601F0A5FB0228F9
:100B900002D001286BD107E0B9F1010967D39AF8B7
:100BA00000100029EFD062E0009905F8011B0099C0
:100BB000090A05F8011B0099090C05F8021B0099A8
:100BC000090E05F8011C002146E01FB34F48B0F89C
:100BD0000A9069460E2001F07FFB022802D001280E
:100BE00045D107E0B9F1010941D39AF80010002975
:100BF000EFD03CE0009805F8010B0098000A05F8DA
:100C0000010B0098000C05F8020B0098000E05F887
:100C1000010C0027E17854F8040B61F31F60009089
:100C20005FEA886103D539490861012015E037483A
:100C3000B0F80A906946404601F04EFB022802D007
:100C4000012814D107E0B9F1010910D39AF8001076
:100C50000029EFD00BE0012103910199491C01917A
:100C60009AF8001019B9761E7FF4E5AE09E046B196
:100C700014F8011B8A0701D5C90600D5241D761E6C
:100C8000F5E7012832D10FB3204857464689694617
:100C90000E2001F021FB022802D0012826D105E018
:100CA000761E23D339780029F1D01FE0009905F88A
:100CB000011B0099090A05F8011B0099090C05F8A8
:100CC000021B0099090E05F8011C0FE0039969B198
:100CD0000E485746468900210E2001F0FDFA0228F1
:100CE00004D1761E02D339780029F4D0DDE901124F
:100CF0001170029948700298291A059807B0201AB5
:100D000041EA0040BDE8F08F0000002004140020FC
:100D10002DE9F84F0025DFF81881064628468A4657
:100D2000CF1C88F80050B6F80140F61C002C73D098
:100D300016F8019BDFF8FCB05FEA89715BD55FEACA
:100D4000C97139D0BBF80A600021484601F0C4FAE5
:100D5000022802D001285FD12EE0761E5CD398F8DD
:100D600000100029F0D057E024B95FEAC97001D023
:100D70004FF00E09BBF80A606946484601F0ACFA2C
:100D8000022802D0012847D106E0761E44D398F805
:100D900000100029F0D03FE0009907F8011B0099EE
:100DA000090A07F8011B0099090C07F8021B0099B2
:100DB000090E07F8011C6D1C641ED5D22CE0F178D9
:100DC00056F8040B61F31F6000901A48B0F80A80CF
:100DD0006946484601F080FA022802D001281BD15A
:100DE00007E0B8F1010817D39BF800100029EFD0F5
:100DF00012E06D1C00E0C346641EE0D20D485E4662
:100E0000448900210E2001F067FA022804D1641EF3
:100E100002D331780029F4D08AF800502A0A8AF8DF
:100E200001208AF80200A7EB0A00BDE8F88F000055
:100E300000000020041400202DE9F0438946417988
:100E4000D0F80260447861F31F665249057885B096
:100E5000E00701F1040206D0EB074FF4806001D0F7
:100E6000086000E01060A00706D5AB074FF40060F3
:100E700001D5086000E01060600707D5A808C30727
:100E80004FF4005001D0086000E0106020064FF0E1
:100E9000000727D5E8095FEAC0783F480097019727
:100EA000029703974FF480534FF0020C07D00B606A
:100EB0006946CDF80CC0009300F002F912E013600F
:100EC0001121CDE900310121CDE9021C694600F074
:100ED000F7F802F06FFB31480490042204A930486F
:100EE00002F09CFC2B48001FB6B32E498E4200D95D
:100EF0000E464FF0E022976106EBC601C900516132
:100F000005211161E10704D00168C1F38021A942E4
:100F10001CD1A10705D50168C1F3C021B1EB550F64
:100F200014D1610705D50168C1F34031B1EB950FCC
:100F30000CD1A10602D5B7EB551F07D121060AD562
:100F40000168C1F30031B1EBD51F04D01169C1F3C1
:100F500000410029D6D0176101680268C1F38021E1
:100F6000C2F3C02241EA42020168C1F3403142EAC1
:100F700081020849083909680068C1F3803142EAF2
:100F8000C101000B41EAC01089F8000005B0064815
:100F9000BDE8F083100C0140000C01400400FA058C
:100FA0000CED00E0C0C62D0001000600134808B596
:100FB000002101704170222242600172642242814C
:100FC0008181012201610275417581750C48816939
:100FD00041F008018161816901F008010091816996
:100FE00041F010018161806900F01000009001F073
:100FF000F3F8BDE8084001F035B900000414002002
:1010000000100240F8B50D46144904460026087841
:10101000012803D0FF22022810D10AE02179D4F858
:10102000010061F31F6000906946002001F054F94F
:1010300010E02078C875897D884201D32A700AE0C3
:10104000082000F02FFB2179D4F8010061F31F6024
:1010500000F0FAFE2E700248F8BD000004140020D3
:101060000100050030B528B302C8134A14230A440E
:10107000B2FBF3F29200C263104A8263022242770B
:101080000B6843F6F0729343D0E900242243D0E981
:1010900002452C4322430469224344692243846964
:1010A00022431A430A6000214163012242770177FB
:1010B000084630BD012030BDF8FFFDBF00000240F2
:1010C0002DE9F84FDFF8A491002409F1040A0AF190
:1010D000040B23464FF00F080BF1040EBEE001276E
:1010E000A7403A40BA4272D1DFF884C14D68A5EBFF
:1010F0000C0665452BD00DDC032D34D005DC35B353
:10110000012D19D0022D2FD11BE0112D16D0122D3B
:101110002AD119E0B6F5881F19D006DCB6F5803F54
:1011200015D0B6F5801F1FD111E0B6F5001F0ED007
:10113000B6F5041F18D10AE0CB6815E0CB681B1D7B
:1011400012E0CB6808330FE0CB680C330CE08B68FF
:101150002BB1012B4FF0080303D0476104E00423B7
:1011600002E0076100E00023FF2A01D8064601E003
:1011700000F104064FEA840501D9A5F1200537687E
:1011800008FA05FC27EA0C0703FA05F547EA050704
:1011900037604D68ED0060D5364DAE6946F001060A
:1011A000AE61AD6924F0030605F001050095324DEE
:1011B0007719BE68A5072D0F08FA05FC26EA0C066C
:1011C000DFF8B8C0604503D14FF0000C17E044E0F1
:1011D000DFF8ACC0604502D14FF0010C0FE0DFF842
:1011E000A4C0604502D14FF0020C08E0DFF898C0BF
:1011F000604502D14FF0030C01E04FF0040C0CFAF3
:1012000005FC4CEA060CC7F808C04D68D9F8006028
:10121000ED034D4601D5164300E096432E604D6820
:10122000DAF80060AD03554601D5164300E0964359
:101230002E604D68DBF80060ED025D4601D5164377
:1012400000E096432E604D68DEF80060AD02754602
:1012500001D5164300E096432E60641C0A6832FAFA
:1012600004F57FF43CAFBDE8F88F000000040140B6
:101270000000111000100240000001400008014071
:10128000000C014000100140001401400AB101614E
:1012900070470904FBE7002809DB00F01F02012169
:1012A00091404009800000F1E020C0F80011704733
:1012B000F0B40E4B1B68C3F30223C3F10704042CE4
:1012C00000D904241D1D072D01D2002300E0DB1EE0
:1012D000012606FA04F56D1E0D409D409E40761EC7
:1012E000164045EA0601F0BC01F008BC0CED00E038
:1012F0000448054900684968044AC1F30221515C69
:10130000C84070477C11002000100240444500088E
:101310000448054900684968044AC1F3C221515C88
:10132000C84070477C11002000100240444500086E
:1013300070B5040005D00025A56294F8510010B1E5
:1013400006E0012070BD84F85050204600F02EF8D1
:10135000022084F851002068016821F040010160FA
:10136000D4E901010843D4E9031211430843616938
:101370000843218B01F400710843E1690843216AA5
:101380000843A16A084321680860A069042101EAB2
:101390001040216848602068C16921F40061C16182
:1013A0006565012084F85100002070BDF0B585B05E
:1013B000002400940194029403940646384D016879
:1013C000384802220323A94243D1816941F4805164
:1013D0008161816901F480510491816941F00401C6
:1013E00081618069304D00F004000490A020CDE9B7
:1013F0000002694603932846FFF762FE4020CDE9CC
:101400000004694628460294FFF75AFE284D2748F3
:10141000802701C5102091C5254845F810496C6109
:10142000AC61EC61FFF71EFEB5646E62204D1F4893
:1014300044351438C5E90004C5E902472C616C61E4
:10144000AC612846EC61FFF70DFEF5646E6205B0F5
:10145000F0BD184DA942FAD1C16941F48041C16182
:10146000C16901F480410491816941F00801816101
:101470008069114D00F0080004904FF42040CDE940
:101480000002694603932846FFF71AFE4FF4804096
:10149000CDE90004694628460294FFF711FED6E71D
:1014A00000300140001002400008014030000240BE
:1014B0007C13002000380040000C014070B504008F
:1014C00004D094F83900002510B106E0012070BD69
:1014D00084F83850204600F023F8242084F839009E
:1014E0002068C16821F40051C160204601F04CFA27
:1014F0002068016921F4904101612068416921F06F
:101500002A0141612068C16841F40051C160E5636E
:10151000202084F8390084F83A00002070BD0000D3
:10152000F0B585B00024009401940294039406461B
:10153000374F0168374802220323374DB94221D182
:10154000816941F480418161816901F480410491A4
:10155000816941F0040181618069694600F00400FD
:1015600004901002CDE9000203932846FFF7A8FD7E
:101570002815CDE90004694628460294FFF7A0FD2E
:1015800005B0F0BD254FB942FAD1C16941F400312F
:10159000C161C16901F400310491816941F0040124
:1015A00081618069694600F0040004900420CDE95F
:1015B000000203932846FFF783FD0820CDE90004CD
:1015C000694628460294FFF77BFD164D1448802794
:1015D000C5E90004C5E902472C616C61AC6128468D
:1015E000EC61FFF73FFD75630D486E6244351430C2
:1015F00001C5102091C50B4845F8104944306C6175
:10160000AC61EC61FFF72EFD35636E62B8E7000058
:101610000038014000100240000801400044004032
:101620006C0002404412002070B50A460178012483
:10163000072909D0064D2978002904D1014605481B
:10164000FEF792FD2C7070BD0348047070BD000061
:1016500001000020441400200000002070471CB549
:1016600002F011F800281BD09E208DF80000E72022
:101670008DF801006946102001F036F902F003F8F8
:1016800000280DD000208DF800006946082001F0E8
:101690002BF901A9002001F0D5FF012800D000207E
:1016A0001CBD00000349497809B100F005B800F0FD
:1016B00053B8000004140020F0B5254C4FF4006727
:1016C00027602515221D15602560156025601760AF
:1016D0001560256015602560531423601D49CE7D7B
:1016E00001EB460CBCF8201019B115602560491EAD
:1016F000FBD118491831715C07E0C60701D023609F
:1017000000E01360156025604008491EF5D1BCF863
:10171000301071B1C00701D0236000E01360156084
:101720002560236001E015602560491EFBD127601C
:1017300005E02760C00701D0236000E0136015605A
:101740002560156025601760156025602360F0BD79
:10175000100C0140041400202DE9F0434E4C4FF4CE
:10176000006CC4F800C02715251D2F604B4B59682D
:101770000A46521EFDD127600A46521EFDD12F6037
:101780000A46521EFDD127600A46521EFDD1C5F8F9
:1017900000C02F600A46521EFDD127600A46521E25
:1017A000FDD12F600A46521EFDD127600A46521E07
:1017B000FDD14FF40056266093F8178003EB4809DB
:1017C000B9F820304BB12F600A46521EFDD1276078
:1017D0000A46521EFDD15B1EF5D1304A183218F868
:1017E00002300DE0C20701D0266000E02E602F60BD
:1017F0000A46521EFDD127600A46521EFDD14008FE
:101800005B1EEFD1B9F830201AB3C00701D02660B3
:1018100000E02E602F600846401EFDD1276008467C
:10182000401EFDD1266007E02F600846401EFDD116
:1018300027600846401EFDD1521EF5D1C4F800C0F5
:101840002F600846401EFDD127600846401EFDD18E
:101850000EE0C4F800C0C00701D0266000E02E6092
:101860002F600846401EFDD127600846401EFDD16E
:101870002F600846401EFDD127600846401EFDD15E
:10188000C5F800C02F600846401EFDD12760491EE4
:10189000FDD12660BDE8F083100C01400414002047
:1018A000F0B5324C4FF4006626602315251D2B60E1
:1018B0002F4A51680846401EFDD123600846401E4D
:1018C000FDD12E602B600846401EFDD123600846E6
:1018D000401EFDD12B600846401EFDD12360084606
:1018E000401EFDD1D27D4AB12B600846401EFDD17D
:1018F00023600846401EFDD1521EF5D1DFF86CC0B2
:1019000000271F22ACF1080C2B600846401EFDD1B9
:10191000DCF800002360C0F3803E0846401EFDD185
:1019200047EACE704708521EEED126602B6008466B
:10193000401EFDD1DCF800002360C0F38032084671
:10194000401EFDD147EAC2702B600A46521EFDD1EF
:1019500023600A46521EFDD12E602B600A46521E9D
:10196000FDD12360491EFDD1F0BD0000100C0140E7
:10197000041400202DE9F04F814610F03F0000D103
:101980004020DFF884A0DFF884E05FEA49644FF488
:1019900000634FF4005BAAF104084FF4806C01D59A
:1019A000444600E0544623602AE0002611F8015B1B
:1019B00008231DE0EC075C4601D0474600E057468F
:1019C0003C60CAF800C0DEF8044027467F1EFDD107
:1019D0000D4F0C3F3F68C8F800C0C7F38037641E46
:1019E000FDD174086D08401E44EAC7165B1E01D085
:1019F0000028DFD1DE405FEA096301D502F8016B00
:101A00000028D2D1BDE8F08F140C0140041400204E
:101A1000034A52780AB100F005B800F0BDB80000E2
:101A2000041400202DE9F04F594D89464FF400660B
:101A300001462E602F152B1D1F602F601E601F603A
:101A40002F601F602F60DFF84CB19BF8170018B1B2
:101A50001F602F60401EFBD14808C0074FF40054A0
:101A600001D02C6000E01C601F60494A083A1068F1
:101A70002F60C0F3803040004FEA910C5FEACC7CCD
:101A800001D02C6000E01C601F60D2F800C02F6005
:101A9000CCF3803C40EA0C004FEAD10C5FEACC7CEE
:101AA00001D02C6000E01C601F60924612682F601D
:101AB000C2F3803240EA8200012801D02E6056E055
:101AC000344A5FEA817C917DD27DA1EB02082CD55E
:101AD00000221F211F60DAF800C02F604FEA9C3CF3
:101AE00042EACC725208491EF4D1B8F1010815D06F
:101AF0001F60DAF80010C1F3803100E01F602F6032
:101B0000B8F10108FAD12E601F602F6042EAC1715E
:101B1000B9F1000F2DD0C9F800102AE02E601F6027
:101B2000DAF80010C1F38031EFE7D9F800101F2276
:101B30005FEAC17C01D02C6000E01C601F602F6058
:101B40004908521EF4D1B8F101080AD0C90701D0E2
:101B50002C6000E01C601F602F60B8F10108FAD112
:101B6000ACE72E60C90701D02C6000E01C601F604C
:101B70002F601F602F601E601F602F602C609BF81D
:101B8000081001E01F602F60491EFBD2BDE8F08FF6
:101B9000100C0140041400202DE9F04FA84B4FF425
:101BA00000668E461E601A151C1D2260A54F7968BE
:101BB0000D466D1EFDD11A600D466D1EFDD12660CD
:101BC00022600D466D1EFDD11A600D466D1EFDD1C1
:101BD00022600D466D1EFDD11A600D466D1EFDD1B1
:101BE00097F817C0BCF1000F0AD022600D466D1E99
:101BF000FDD11A600D466D1EFDD1BCF1010CF4D172
:101C000045085FEAC57C4FF4005501D01D6000E037
:101C1000256022608C46BCF1010CFCD1DFF82082EB
:101C2000A8F10808D8F800C01A60CCF3803C0F4631
:101C30007F1EFDD187084FEA4C0CFF0701D01D60C5
:101C400000E02560174622600A46521EFDD1D8F8F2
:101C50000020B946C2F380321F600F467F1EFDD1BF
:101C60004CEA020CC208D20701D01D6000E02560DA
:101C70004F46C4F800900A46521EFDD1D8F8002005
:101C8000C246C2F380321F608846B8F10108FCD119
:101C90004CEA820BBBF1010F08D01E60276008469A
:101CA000401EFDD11F60491EFDD1A6E0654A5FEAD6
:101CB000807C907DD27DA0EB020852D54FF0000CC5
:101CC0001F2227600846401EFDD1DAF800001F6081
:101CD000C0F380390846401EFDD14CEAC9704FEA76
:101CE000500C521EEDD1A8F10100020024D0276053
:101CF0000846401EFDD1DAF80000B846C0F380392E
:101D00001F600846401EFDD1521E0AD0C4F8008054
:101D10000846401EFDD1C3F800800846401EFDD194
:101D2000F2E71E60C4F800800846401EFDD1C3F8EB
:101D30000080491EFDD10CE01E60384627600A462F
:101D4000521EFDD1DAF800201860C2F38039491E16
:101D5000FDD14CEAC970BEF1000F4ED0CEF80000A4
:101D60004BE0DEF800004FF01F0CC20701D01D60F1
:101D700000E0256027600A46521EFDD11F600A461A
:101D8000521EFDD14008BCF1010CEED1B8F10102A8
:101D900025D0C00701D01D6000E0256027600846FF
:101DA000401EFDD1BC461F600846401EFDD1521E9C
:101DB0000AD0C4F800C00846401EFDD1C3F800C0D8
:101DC0000846401EFDD1F2E71E60C4F800C0084678
:101DD000401EFDD1C3F800C0491EFDD10DE01E60BC
:101DE000C00701D01D6000E025603A462760084624
:101DF000401EFDD11A60491EFDD12760114842687E
:101E00001146491EFDD11F601146491EFDD12660B5
:101E100027601146491EFDD11F601146491EFDD1A4
:101E20001D60057A07E027601046401EFDD11F6047
:101E30001146491EFDD16D1EF5D25846BDE8F08F02
:101E4000100C0140041400202DE9F043564B4FF4D0
:101E500000671F601E151C1D2660DFF85091D9F821
:101E600004100A46521EFDD11E600A46521EFDD1C4
:101E7000276026600A46521EFDD11E600A46521E89
:101E8000FDD126600A46521EFDD11E600A46521E32
:101E9000FDD199F81750B5F1000809D026600A461F
:101EA000521EFDD11E600A46521EFDD16D1EF5D197
:101EB0004FF40055256026600A46521EFDD11E6073
:101EC0000A46521EFDD126600A46521EFDD11E60F2
:101ED0000A46521EFDD126600A46521EFDD11E60E2
:101EE0000A46521EFDD14FF01F0CC20701D01D60E3
:101EF00000E0256026600A46521EFDD11E600A469B
:101F0000521EFDD14008BCF1010CEED199F816200B
:101F1000A2EB0802521E26D0C00701D01D6000E0CF
:101F2000256026600846401EFDD1B4461E60084666
:101F3000401EFDD1521E0AD0C4F800C00846401E03
:101F4000FDD1C3F800C00846401EFDD1F2E71F6076
:101F5000C4F800C00846401EFDD1C3F800C00846C2
:101F6000401EFDD10DE01F60C00701D01D6000E0E4
:101F7000256026600846401EFDD11E600846401EB2
:101F8000FDD126600846401EFDD11E600846401E59
:101F9000FDD1276026600846401EFDD11E60491E07
:101FA000FDD11D60BDE8F083100C01400414002039
:101FB0001E4808B5416941F00101416140691C4971
:101FC00000F0010000901B4801604FF48041416027
:101FD000402181608021C1600021016141618161F6
:101FE000C161FFF73FF8002211460C20FFF760F9AE
:101FF0000C20FFF750F9002211460D20FFF758F989
:102000000D20FFF748F9002211461020FFF750F984
:102010001020FFF740F9002211461120FFF748F980
:10202000BDE808401120FFF736B90000001002405B
:1020300008000240801100202DE9F04F85B00024F7
:1020400032480094019402940394816941F0100194
:102050008161816901F010010491816941F02001E1
:102060008161816901F020010491816941F00401DD
:102070008161816901F004010491816941F00801E5
:1020800081618069DFF8889000F008004FF4C04556
:102090000490002229464846FFF7F8F8DFF874A0BC
:1020A0004FF48877002239465046FFF7EFF8DFF803
:1020B00068B041F60448002241465846FFF7E6F86A
:1020C0000095022601250396CDE90154694648464C
:1020D000FEF7F6FF00970396CDE901546946504696
:1020E000FEF7EEFF0320CDE900046946584602944E
:1020F000FEF7E6FFCDF800800396CDE9015469466E
:102100005846FEF7DDFF05B0BDE8F08F0010024035
:102110000010014000080140000C01400C480B4930
:102120004FF4007201604FF48271416000218160C0
:10213000C1600161C0E905120822C0E907214162BE
:1021400081620A21C162FFF7F3B80000003001404C
:10215000CC1200200B480A494FF4007201604FF482
:102160008271416000218160C1600161C0E9051296
:10217000C1610162416281620A21C162FFF7D8B880
:1021800000380040241300200848074901604FF43C
:10219000E1314160002181600C22C160C0E904127C
:1021A0008161C161FFF78AB900380140C411002084
:1021B0000848074901604FF4E13141600021816026
:1021C0000C22C160C0E904128161C161FFF776B9D8
:1021D00000440040041200202DE9F04186B01E4862
:1021E00000240294816941F01001816180691B49DA
:1021F00000F0100004904FF43C4008604FF4305061
:102200000127DFF85880CDE900070325A8F1100861
:10221000694603954046FEF753FF4FF410401126E0
:1022200003958DE8C10069464046FEF749FFB803B3
:10223000CDE9000469464046CDE90245FEF740FF7E
:102240007803CDE9000669460548CDE90245FEF769
:1022500037FF06B0BDE8F08100100240100C0140CD
:10226000001001402DE9FF41194900244FF4E050CE
:10227000029408604FF440600127DFF85480CDE9F4
:1022800000070325A8F11008694603954046FEF7AC
:1022900017FF3803112603958DE8C10069464046B3
:1022A000FEF70EFF4FF46040CDE90004694640465A
:1022B000CDE90245FEF704FF7803CDE90006694643
:1022C0000448CDE90245FEF7FBFEBDE8FF810000B2
:1022D000100C014000100140034A52780AB100F08E
:1022E00005B800F027B90000041400202DE9F34FD1
:1022F0008E4D804685B04FF40060286046102C1D3E
:1023000026602E605FEAC87101D0286000E020607E
:1023100026602E604FEA5801CB0701D0286000E00C
:10232000206026602E6008EB01024FEA9801CB077F
:1023300001D0286000E0206026602E600A444FEA49
:10234000D801CB0701D0286000E0206026602E6015
:102350001144C90701D0286000E0206026602E608B
:102360000021206026602E60286026602E60824654
:10237000CDE900010220CDE902106C488B46694688
:102380001038FEF79DFE6A48007D011E03D02660CE
:102390002E60491EFBD1A1462660644F083F3A6873
:1023A0002E60C2F3C02226603B682E60C3F3C023B8
:1023B00042EA4302266039682E60C1F3C02142EA36
:1023C00081044FF0010E012C1AD0022C70D0042C85
:1023D0007FD0213004D049460E602E60401EFBD1D4
:1023E0000220CDE902B05148CDE900AE564669461B
:1023F0001038FEF765FE2E6007B02046BDE8F08F6E
:102400005FEA88712ED5002211462020CC46CCF8F8
:1024100000603B682E60C3F3C0235208194442EAAF
:10242000C372401EF3D1CCF8006038682E6081EA98
:10243000D021C80700D00824069800B102603C48AB
:10244000007D20B1CCF800602E60401EFAD1022041
:10245000CDE902B03548CDE900AE69461038FEF747
:102460002FFE29E020B149460E602E60401EFBD1B0
:102470000220CDE902B02D48CDE900AE57466946AD
:102480001038FEF71DFE06980022202100684B46FA
:102490005FEAC07C01D02F6000E01F601E602E60EC
:1024A00002444008491EF3D1D00702D02F6001E05A
:1024B0000FE01F601E602E601D48007A30B1494653
:1024C000C9F800A00E602E60401EFBD1C5F800A028
:1024D00092E7174B597D41B15FEA887105D52121FB
:1024E0004A4616602E60491EFBD11F4620B1494660
:1024F0000E602E60401EFBD10220CDE902B00B48D9
:10250000CDE900AE69461038FEF7DAFD787D002887
:10251000DCD05FEA8870D9D44946C9F800A02120F0
:102520000E602E60401EFBD1D0E70000100C014071
:10253000041400202DE9F34FE94C85B04FF40061FD
:1025400007464FF0000C21604E10251D2E60E54A15
:10255000506803465B1EFDD1266003465B1EFDD11D
:10256000FB0701D0216000E029602E6003465B1E5E
:10257000FDD1266003465B1EFDD10CEB07084FEA38
:10258000570C5FEACC7301D0216000E029602E6017
:1025900003465B1EFDD1266003465B1EFDD1C4448D
:1025A000BB085FEAC37801D0216000E029602E609B
:1025B0008046B8F10108FCD126608046B8F10108D8
:1025C000FCD19C44FB085FEAC37801D0216000E0A5
:1025D00029602E608046B8F10108FCD12660804653
:1025E000B8F10108FCD16344DB0701D0216000E0B1
:1025F00029602E6003465B1EFDD1266003465B1EEC
:10260000FDD129602E608446BCF1010CFCD126600E
:102610008446BCF1010CFCD121602E608446BCF1E3
:10262000010CFCD126609046401EFDD10220CDE970
:102630000230AB488A4600919B46019369461038A8
:10264000FEF73EFD98F8143041461A000BD0D1F841
:1026500004C02E606046401EFDD126606046401ECC
:10266000FDD15B1EF5D12E60D8F8040003465B1E39
:10267000FDD1DFF86CC2ACF1080CDCF8003026604C
:10268000C3F3C0230146491EFDD12E600146491EF9
:10269000FDD1DCF800102660C1F3C0218046B8F1FE
:1026A0000108FCD143EA4101A9462E6005466D1E92
:1026B000FDD18B4D083D2D682660C5F3C02503462E
:1026C0005B1EFDD141EA85054FF0010E012D20D0A2
:1026D000022D7DD0042D7BD021320AD04B461E60C6
:1026E0000146491EFDD126600146491EFDD1521EFC
:1026F000F5D10220CDE902B07948CDE900AE5646C9
:1027000069461038FEF7DCFC266007B02846BDE8B5
:10271000F08FB90749D50022DFF8C881114620277C
:10272000C9F8006003465B1EFDD16D4B083B1B687A
:102730002660C3F3C02C03465B1EFDD152086144E2
:1027400042EACC727F1EEBD1CC46C9F8006003464A
:102750005B1EFDD1624B083B1B683746C3F3C023A9
:102760002660401EFDD15940C80700D008250698B4
:1027700000B1026098F8142062B1D8F80430CCF8A7
:1027800000701846401EFDD127601946491EFDD134
:10279000521EF4D10220CDE902B05148CDE900AE7D
:1027A00069461038FEF78CFC43E052B14B461E6080
:1027B0000146491EFDD126600146491EFDD1521E2B
:1027C000F5D10220CDE902B0D0466946444800E088
:1027D00043E0CDE900AE1038FEF772FC0698002702
:1027E000202301683F48CC464268C80702D0C4F89D
:1027F000008001E0CCF80080CCF800601046401E5C
:10280000FDD126601046401EFDD10F4449085B1ED5
:10281000EBD1F80702D0C4F8008001E0CCF80080CA
:102820003146CCF800601046401EFDD12160521E9A
:10283000FDD12C48027A6AB14F46C9F800A043681E
:102840003E601846401EFDD126601946491EFDD146
:10285000521EF5D1C4F800A057E7DFF888C09CF8F5
:10286000151071B1B9070CD52123C846C8F800600E
:102870000146491EFDD126600146491EFDD15B1E61
:10288000F4D1E04652B14B461E600146491EFDD1CF
:1028900026600146491EFDD1521EF5D10220CDE928
:1028A00002B00F48CDE900AE69461038FEF708FCCB
:1028B00098F815100029CDD0B907CBD44F46C9F8E8
:1028C00000A0D8F8043021223E601946491EFDD1EF
:1028D00026601846401EFDD1521EF5D1BAE7000011
:1028E000100C014004140020F0B5144C0023DFF854
:1028F00048C04FF400671A46ACF1040E7E106568BC
:1029000016E012B911F8013B0822DC0702D0CEF81C
:10291000007001E0CCF80070CCF800602C46641E1A
:10292000FDD1CEF800602C46641EFDD15B08521E1E
:10293000401EE6D2F0BD0000140C0140041400203B
:102940000D48016841F00101016041680B4A1140E6
:10295000416001680A4A11400160016821F4802148
:102960000160416821F4FE0141604FF41F01816064
:102970000449C00308607047001002400000FFF8DF
:10298000FFFFF6FE08ED00E02DE9F0410446006887
:102990000169E26821F4405111430161A168206995
:1029A0000143606901432068C26841F20C639A43A5
:1029B0000A43C26020684169A26921F44071114351
:1029C00041611E49206864253226884202D1FEF703
:1029D0009FFC01E0FEF78CFC00EBC00101EB001155
:1029E00060686FF018078000B1FBF0F2B2FBF5F2FF
:1029F000B1FBF0F37A4303EB8202B1FBF0F306EB99
:102A00000212B2FBF5F2B3FBF5F302F0F00202EBB7
:102A10000312B1FBF0F3B1FBF0F0B0FBF5F078433B
:102A200003EB800006EB0010B0FBF5F0216800F02E
:102A30000F0010448860BDE8F081000000380140BC
:102A400070B5074E074C47F6FF7505E0258001F08D
:102A50000F01304601F020F821880804F6D470BD3B
:102A6000C8150020445C00402DE9F041DFF87C806F
:102A70001F4D47F6FF7605E02E8004F00F0140461B
:102A800001F00AF82C882004F6D41A4F60054FF0A4
:102A9000000609D54FF6FF302880381D06804046D5
:102AA00001F074FA80203880200513D54FF2FF70B2
:102AB000288038884106104804D03E80018821F4DF
:102AC00000610180018841F008010180018841F026
:102AD00004010180E00405D54EF6FF7028804046D1
:102AE00000F0D6FE2E80BDE8F0810000C815002061
:102AF000445C00404C5C0040405C00400907090E0B
:102B0000002804DB00F1E02080F80014704700F09A
:102B10000F0000F1E02080F8141D704702E008C8A3
:102B2000121F08C1002AFAD170477047002001E047
:102B300001C1121F002AFBD1704710B54B78042B3E
:102B40002EDD202B06D0212B11D0222B22D0232B9F
:102B500026D121E0D378116863F31F6140F82C1F60
:102B600011790171517941719179817118E010F8F1
:102B70002C1F11700188090A51700168090C9170AD
:102B80000168090ED1700179117141795171807913
:102B9000907105E0026A00E0426A0AB149889047F4
:102BA000002010BD38B542680446808C116881420F
:102BB0000CD951680C3251F8205004F120012846FC
:102BC000FFF7BBFFE96909B12846884700200346A3
:102BD000024601460090204601F040FA38BD704799
:102BE00001488260012070476C11002010B5417AC5
:102BF000006801F0FDFA002010BD000070B5DDE9AD
:102C0000040408810B60A04200D92046441C6608D9
:102C100014880E4D640805EB8404958860F309055B
:102C20009580002205E033F8025B521C24F8045B17
:102C3000D2B2B242F7D34A8A521C4A820A6802448C
:102C40000A600A89121A0A81C88170BD00600040BA
:102C50002DE9F05F804691468A46900500D0FEE758
:102C60001F48204F01683A1541B9012101603869B8
:102C7000000603D51C4878601C48786093465C4683
:102C8000A1452BD3454601F099FB386940F002007D
:102C900038617D61386940F04000386101F08EFB99
:102CA000386920F0020038614646554601F086FB3F
:102CB000386940F0010038612888308001F07EFBDF
:102CC000A41EAD1CB61C022CF6D2386920F00100FF
:102CD0003861A9F5806908F58068D0E7BDE8F09F04
:102CE000781100200020024023016745AB89EFCD19
:102CF00070B500F58055044695F85E0008B1206D6A
:102D000048B3204600F092F9002813DD4FF001018E
:102D100085F85E1094F834100A0682B204F1580166
:102D2000204603D5BDE8704000F0F8BBBDE8704018
:102D300000F06DB90FDA94F83400000605D5207A5A
:102D400040F08001206801F06BFA01212046BDE8C7
:102D5000704000F0D3BB0021F8E7F8B543680446A3
:102D6000808C196881420DD9596851F82000C168DA
:102D700041B1618C4569CAB2090A1DB1E68C0C33B8
:102D80000096A847002003460246014600902046D0
:102D900001F064F9F8BD0000044810B54260114626
:102DA0000348FEF741FC012010BD00006C1100201B
:102DB0005816002010B5417A006801F019FAFEF7A4
:102DC0004DFC002010BD000070B5354B044619883D
:102DD00047F27000014043F22002514048F2802542
:102DE000294319802F4968230B8028230B818D8963
:102DF00022236FF3090563F38F258D81284D2D1D47
:102E00002B8848F281060340534033432B80C8236C
:102E10000B82A8230B838B8B10256FF3090365F3BB
:102E20008F238B831E4B08331D8848F28266054032
:102E3000554035431D804FF494730B84E8230B8574
:102E40008B8D22256FF3090365F38F23144D8B853A
:102E500010352B880340534048F2840003432B80F5
:102E60004FF4D470A1F840004FF4B470A1F84800BA
:102E7000B1F84C0022226FF3090062F38F20A1F811
:102E80004C00882104F10800FDF787F90020A0819B
:102E90000548A0610548E0610548C4F88C0070BD94
:102EA000005C004000600040FD440008F844000859
:102EB0000445000810B5002305E0DC0021FA04F405
:102EC000C4545B1CDBB29342F7D310BD08B500209D
:102ED00000F09AFE0446134901F053F9204600F031
:102EE000FBFFFDF789FDFEF761F8FFF74DF9FFF7EE
:102EF0005FF90D4E0D4C0E4D00274FF080083068E5
:102F000008B101F03FFA206840B1CDF8008083B2EB
:102F1000297A084A286801F0A1F82760064800F0DD
:102F200036FFECE700110020701100207411002022
:102F30004C000020981600208C00002070B515462B
:102F4000049884020448224600EB83212846FDF7BA
:102F50000BF9204670BD00000060000810B5114656
:102F6000029884020348224600EB8320FFF770FE9C
:102F7000204610BD0060000838B5044600F58050BA
:102F8000002290F85E1004F1280551B101292ED0DD
:102F900080F85E2029462046BDE838401F2200F018
:102FA00036B8154BA16A994203D1B0F858001F28D2
:102FB00017D0009294F8351020230522204600F007
:102FC0002BFA94F8340028B9206B18B1617A206884
:102FD00001F026F9207A40F08001206801F020F904
:102FE000D8E70648A064E06AE064206B20652046CC
:102FF000BDE83840FFF77CBE55534243555342531A
:103000004FF480601860282010600020704770B571
:103010000D460446417A134600682A4601F0DDF861
:10302000617A2068BDE8704001F0E2B8F8B590F828
:10303000371000264FF0FF3500F1370700F1580434
:10304000232972D00FDC15291DD005DC09B3032913
:1030500034D0122917D154E01A2968D01B2954D032
:103060001E2910D15FE02F295DD006DC25297BD0F9
:1030700028297AD02A2906D1ACE0352913D0552940
:1030800001D05A2976D00096202390F835100522D9
:1030900011E00446006A30B1826822B194F835101C
:1030A0002046904708B10020F8BD009694F83510EE
:1030B0003A230222204600F0AFF903E00646787872
:1030C000C00701D02846F8BD12212046FDF765F85B
:1030D0002078A6F6A17620F07F00703020700C20BA
:1030E000E07106F50056A078317861F30300A07016
:1030F00070782073B078607338791228E3D9122081
:10310000F8BDBDE8F84000F069B839790A090AD17C
:103110008A0708D5026A32B1536923B101F001026E
:1031200090F8351098473046F8BD47E0FFE7054670
:103130008665A07820F08000A070286A58B1C26827
:103140004AB195F83510284690470028A0780ED04F
:1031500020F08000A07003202070042028653879BA
:103160000428E1D90420DFE72CE02FE002E040F062
:103170008000EFE786650546C665E07820F08000B0
:10318000E070286A58B1C2684AB195F835102846EF
:1031900090470028E0780ED020F08000E070A67103
:1031A0000620E071B7F80700082140BA2965082811
:1031B000BADB0820B8E740F08000EFE7BDE8F84050
:1031C00000F0F6B8BDE8F84000F0BCB8BDE8F84043
:1031D00000F082B8BDE8F84000F027B92DE9F041D1
:1031E000064600F1370558304FF0FF3424210746DA
:1031F000FCF7D3FF306A60B1D0F810C0BCF1000F0B
:1032000007D096F835103B462A463046E047041E64
:1032100045DC6878C0071ED0A8787870A87820B1FF
:1032200080280AD0832812D110E000203871802035
:10323000072478718320B87109E01AA00E24016870
:1032400079604168B9600089B88100E00424200AEF
:10325000B870FC701CE078783C4640F080007870D4
:103260000220B870F878102220F00F00801CF8704F
:103270001F2038710EA00168B9604068F8600FA186
:1032800004F11000FCF770FF11A0006820622424F4
:10329000B5F80300346540BA844200DC2046BDE83E
:1032A000F08100005455534231323334353600003A
:1032B0005465656E79555342000000004D5343201C
:1032C000424F542044454D4F202020200000000054
:1032D000312E302000000000F8B5054600F128042A
:1032E000006D00282DDDD4F81120E18AA66812BAFD
:1032F00049BA22F0FF03B6FBF1F1227D4FF480576B
:1033000013430246B84200D33A46B2FBF1F2301AF8
:10331000AF6992B24FF0FF3657B1B0FBF1F00092B7
:103320000344617B05F158022846B847002808DAB3
:1033300000200090617B11230322284600F06CF8E6
:103340003046F8BD2DE9FC4100268665C665476913
:10335000054600F1580407B395F8351001AB6A46ED
:103360002846B847002818DB0098401E0090000E41
:1033700020700098000C60700098000AA0700098FF
:10338000E0700198010E2171010C6171010AA171B7
:10339000E07108202865BDE8FC81009695F835109D
:1033A0003A230222284600F037F84FF0FF30F2E7C8
:1033B0002DE9FC4100268665C66506664769054617
:1033C00000F15804EFB195F8351001AB6A46284674
:1033D000B847002815DB0820E0700098010E217125
:1033E000010C6171010AA171E07102202072019843
:1033F000010C6172010AA172E0720C202865BDE81F
:10340000FC81009695F835103A230222284600F0F8
:1034100003F84FF0FF30F2E7A0F6A17000F500507E
:10342000009902704370817070472DE9F84F04468F
:1034300004F5805300F1280500F14806373093F871
:103440005E1000274FF0FF3A4FF4805911B1012967
:1034500021D01DE0216A012069B18A682AB1697B07
:103460002046904748B1216A21B1CA6812B1697BF0
:103470002046904728B1B0683BE00097697B3A232B
:1034800032E00097697B272307222046FFF7C4FF1D
:103490005046BDE8F88FD0F80210B3F8583009BA9A
:1034A00021F0FF024179B0F807000A43A96840BA49
:1034B000B1FBF0F0B3FBF0F3D4F81CC01FFA83F8B3
:1034C000BCF1000F0DD0B368CDF80080C91AB1FB74
:1034D000F0F08318697B04F158022046E047002889
:1034E00004DA0097697B03230322CEE7B168081A48
:1034F000B0604845CDD34846CBE70000064A826419
:1035000080F8541041F25E0102220A540D2200F1AB
:10351000480100F003B800005553425338B50C463B
:1035200041F25C0113460A5200210091017A0068C1
:10353000224600F093FD38BD2DE9FF41FDF736FD31
:103540001A4900244FF4E050029408604FF44060A0
:103550000127DFF85880CDE900070325A8F11008FE
:10356000694603954046FDF7ABFD380311260395E8
:103570008DE8C10069464046FDF7A2FD4FF460406A
:10358000CDE9000469464046CDE90245FDF798FDC6
:103590007803CDE9000669460548CDE90245FDF707
:1035A0008FFD04B00120BDE8F0810000100C014047
:1035B00000100140F8B50020204904460090401E4C
:1035C000086064254860FFF7B7FFFEF748F8002859
:1035D00024D01E21002000F007F900281ED0002171
:1035E000082000F001F9002818D04FF0A041042075
:1035F00000F0FAF8002811D04FF020466946042068
:1036000000F020F8002809D0009836EA000002D027
:10361000641CAC42F2DBAC4201D10020F8BD084989
:10362000042000F0E1F80028F8D00021082000F084
:10363000DBF80028F2D00120F8BD000008000020CF
:10364000000F005038B50C4600F00C006946801C95
:1036500000F028F8002222609DF8031042EA016180
:1036600021609DF8022041EA024121609DF801207D
:1036700041EA022121609DF80020114321600128C8
:1036800000D0002038BD1CB500206A46FF2111542F
:10369000401CC0B20828FAD311463320FFF724F9A2
:1036A00001201CBD70B50D46064600242946304653
:1036B000FEF712FE022803D1641CE4B20A2CF5D3F3
:1036C00070BD000038B50D46044600F07F4100F0A3
:1036D000F0000143082000F087F8002805D034B935
:1036E0000E484168A94201D1012038BD456004F06F
:1036F0000C04042229466846641CFFF7DBFB69467C
:103700002046FFF7CFFF012805D10E200021FFF74B
:10371000C9FF0128E9D0002038BD000008000020C2
:10372000F8B50D4604462AB3960813490020FFF762
:10373000C9FF00281FD00527042221466846FFF74D
:10374000B9FB69463846FFF7ADFF012812D10D27B6
:10375000002407E029463846FFF7A4FF012809D1D5
:10376000641C2D1DB442F5D30E200021FFF79AFFF3
:10377000012800D00020F8BD5200002370B50C468F
:10378000054608490020FFF79DFF002809D0A8073B
:10379000C00E04FA00F1284600F006F8002800D018
:1037A000012070BD5000002338B50C4601460422AC
:1037B0006846FFF77FFB05206946FFF773FF012886
:1037C00010D1042221466846FFF774FB0D2069469C
:1037D000FFF768FF012805D10E200021FFF762FFE7
:1037E000012800D0002038BD38B5082806D10A4A83
:1037F00013688B4201D1012038BD116000F00C0428
:1038000004226846FFF756FB69462046FFF74AFF49
:103810000128F1D0002038BD080000202DE9F0413A
:1038200014460E46054608E031782846FFF7A6FF05
:10383000002829D0641E6D1C761C24B3A807F3D180
:10384000DFF84880032C1CD9D8F80000411E29401D
:10385000471ABC4201D224F003073A4631462846B3
:10386000FFF75EFF00280FD03D443E44E41BE9E72C
:1038700031782846FFF782FF002805D0641E6D1CB2
:10388000761C002CF4D10120BDE8F081040000205A
:103890000448018821F0040101804FF41C4101809B
:1038A00070470000405C004010B50446008B617A10
:1038B00083B26269206800F090FC617A206800F0B1
:1038C00097FC0020E072A07A30B1042804D8216867
:1038D000496801EB80008464002010BD30B4C468E6
:1038E00011461CB1A44630BC1A46604730BC0020CB
:1038F00070470000F8B50D4604680978C1F341131C
:103900006268012B01D00020F8BDEB88EBB10906FD
:1039100012D50C3216462946FFF70FF9EB88E08CDA
:10392000834201D0802000E0002032460090002138
:10393000204600F093FB06E0002120460C3200F008
:103940004CFC064860610120F8BD29460C32FFF7A7
:10395000F4F80020034602460090E8E7A52B000893
:10396000027A8A4202D1016929B10847827A8A42E1
:1039700001D10021C17200207047406888B10A78E7
:1039800002F00302012A0CD18A880368934208D905
:10399000406850F8220020B1426812B1526802B16A
:1039A0001047002070470000F0B511F07F0F48F27B
:1039B000C0064CF280044BF68F7548F2800348F63F
:1039C0008F7218D00F064FEA41601E4901EBD050AC
:1039D000B0F8001C25D5490605D5B0F8001C1140EB
:1039E0003143A0F8001CB0F8001C48F6BF7211402B
:1039F00081F0300122E014480188490603D501888E
:103A00001140314301800188490403D501881140E8
:103A1000214301800188294081F4405119430180EC
:103A2000F0BD490405D5B0F8001C11402143A0F8B1
:103A3000001CB0F8001C294081F440511943A0F843
:103A4000001CF0BD00500040005C0040002204E07B
:103A50000021491CC829FCD3521C8242F8D370476C
:103A60000B48816941F0040181610A48016841F411
:103A700080210160016821F400210160016841F4A6
:103A80004031016003498014103108607047000024
:103A900000100240040801402DE9F04180461F4813
:103AA0000E4600EB8105B5F8004C20040AD540F61F
:103AB0008F77A6B104EA0700A5F8000C314640460E
:103AC00000F07AFA200627D548F60F700440A5F8D2
:103AD000004C31464046BDE8F04100F0FDBA2005FB
:103AE00008D508F12001404600F04AFA404600F0AF
:103AF000C1FB03E03146404600F05EFA084804EAA4
:103B0000070101804BF68F71214081F4405148F24A
:103B1000800211430180D5E7BDE8F08100500040EC
:103B2000005C0040F8B50E46044670880021020A89
:103B30000D46082A45D2DFE802F044040A10444446
:103B40001C37D4F88C00016810E00D783AE0D4F806
:103B50008C004168F1B34D8834E0D4F88C10C0B2C9
:103B6000CA68824249D9896851F820100029ECD1ED
:103B700043E021680A200870216806204870D4F8C4
:103B80008C1020680968D1F80220C0F80220C9888A
:103B9000C180D4F88C0021680068407C08722168DC
:103BA00000200A2548720BE0D4F88C00416801B16E
:103BB0004D8820682A46FCF7D7FA2168072048700C
:103BC000216839B1F088A84200D8054620688842AB
:103BD00005D000E011E02A46FCF7C6FA2168E08C27
:103BE000A84201D0802000E000200A4600902B4629
:103BF0000021204600F032FAF8BD2046BDE8F8402A
:103C0000002100F00DBB0000024800F58071086043
:103C100008467047C814002010B50446808C617AAD
:103C200083B2226A206800F0D8FA617A2068BDE881
:103C3000104000F0DDBA30B4C46811461CB1A4468F
:103C400030BC1A46604730BC00207047F8B50468A5
:103C50000A7802F003036568012B22D14B78062B0A
:103C60001FD14B882226B6EB132F1AD1038E876AF9
:103C70009EB2B7B1AEB1C888B04200D8064620683F
:103C8000B84204D032463946FCF76EFA2768E08C19
:103C9000B04201D0802000E0002033463A46009038
:103CA00016E0C2F34112012A51D14A7800260C2AAB
:103CB0004DD2DFE802F04C3312154C4C4C4C4C28E2
:103CC000061C4988090A80F8341013E0884714E07C
:103CD0000021204600F0C2F91EE090F8340028735D
:103CE000E08C01280DD08020012300902CE0897801
:103CF00080F83510C1690029E8D100231A460096E2
:103D0000E6E70020F0E7CB880021204605F10C0211
:103D100000F063FA0F4860610120F8BD628C86698B
:103D2000170A02F0FF0C00233EB1C988009105F18B
:103D30000C0362463946B04783B2E08C984201D00A
:103D4000802000E00020009005F10C02C0E7002078
:103D5000F8BD00005B2D0008016901B10847002093
:103D6000704710B504461F2200F12801FFF74FF9F4
:103D700041F25E0000210155206A002806D001684A
:103D8000002903D02046BDE81040084710BD70B59B
:103D900000F580540646B4F85800002520B130469E
:103DA000FFF7EAF8A4F85850B4F85A0000280ED0EB
:103DB00094F85E10304641B1012909D084F85E5074
:103DC0001F2200F12801FFF722F9A4F85A5070BD14
:103DD000B4F85C10026D511A0165FEF789FFF4E733
:103DE000114630B441F258021352C4681CB1A446C3
:103DF00030BC1A46604730BC0120704738B50446D5
:103E0000006842680878C0F34113012B04D14B7855
:103E1000FE2B03D0FF2B18D0002038BD4B8893B960
:103E2000C98801290FD100060DD5A07A107320682A
:103E3000C18C012901D0802100E0002100910123E3
:103E400000210C3213E0012038BD4A884AB9C988E4
:103E500039B9000605D4206A18B1416809B1204675
:103E600088470020002300901A461946206800F079
:103E7000F5F8E8E710B500F58051B1F85C20A1F83D
:103E80005A20016901B18847002010BD30B4406854
:103E90004C060CD001F07F0400EB8400806D30B143
:103EA000446824B1E46814B1A44630BC604730BC17
:103EB0000020704740684A060DD001F07F0200EBF9
:103EC0008200806C002806D04268002A03D09268E5
:103ED000002A00D01047704710B5FFF7C1FD14202D
:103EE000FFF7B4FD164AD06940F40000D061154CCC
:103EF0000120208000232380201D01884905FCD556
:103F000003801048103003804FF41C4020809069DB
:103F100040F0040090610C48016841F48021016088
:103F2000016821F400210160016821F44031016041
:103F30004FF0E0214FF48010C1F8000110BD0000E7
:103F400000100240405C00400408014030B5888801
:103F500009880A4B4908C0F3090003EB8101431C9F
:103F60005D08002307E031F8044B02F8014B240AF6
:103F700002F8014B5B1CAB42F5D330BD0060004042
:103F80000A460149FFF7E2BF0860004070B5456886
:103F9000002D10D0A9688847002409E0686850F80F
:103FA000240020B1416811B1096801B18847641C3F
:103FB0002868A042F2D870BD2DE9F0470D460746AB
:103FC00001EB850007EB8004224800EB810081466D
:103FD000B0F8008C204800EB0516E06A2834F8B1F0
:103FE000F6B1A189421831463846FFF7AFFFB188D4
:103FF0006FF30901B180A18901448BB2A381B96932
:10400000495D814202D16089834209D30026C5B14E
:10401000294638466268FFF739FFC8B16089A08138
:10402000A089618988420AD24BF68F7108EA0100A3
:1040300080F4405048F280010843A9F8000CBDE824
:10404000F087796911B1384688477E616660E7E795
:10405000A681E5E700500040086000402DE9FC41E2
:104060001E460B468C001A49089F6518B5F8004C8F
:1040700003EB830100EB81014FEAD71C31F8387F55
:104080006CF3000721F810794FF0FF3C0F891FB93E
:10409000C4F30117022F02D06046BDE8FC8100275F
:1040A0004F82C769FF5CCDE900670A4E06EB031635
:1040B00013463246FEF7A2FD48F6BF70044084F076
:1040C000300048F280010843A5F8000C0020E4E726
:1040D00000500040006000402DE9FC410B460446C2
:1040E00001EB830004EB80011D4800EB8305B5F86C
:1040F000000C1C4800264E8700EB0312088E283166
:1041000048B90F7CFF071CD0D4F81CC0CF891CF81D
:1041100003C0674515D1E669F35CCDE9000320468D
:104120000B68FEF76BFDB5F8000C48F6BF71084050
:1041300080F0300048F280010843A5F8000CBDE88B
:10414000FC812BB119462046BDE8FC41FFF7B2BE09
:1041500021690029F3D0204688472661EFE7000057
:104160000050004000600040017A002905D0034A59
:1041700041F0800111800021017270474C5C0040C9
:10418000704710B50022CA640A654A658A65CA6527
:104190000A664A6613468A661AE04A6852F823207D
:1041A000AAB11468844200D01060147A34B104F0CB
:1041B0007F04042C02D801EB8404A264547A34B145
:1041C00004F07F04042C02D801EB8404A2655B1C7C
:1041D0000A689A42E1D8416010BD01EB810100EB11
:1041E00081000021C2624386818608467047000034
:1041F0000A4A02EB8102B2F8003C01EB810100EBBC
:104200008100002181864BF68F70034083F440507B
:1042100048F280010843A2F8000C704700500040AB
:1042200010B511F07F0F48F6BF7348F280020CD032
:104230000C064FEA41600D4901EBD050B0F8001C6C
:104240000BD5194081F010010CE00949088818408D
:1042500080F010001043088010BD4BF68F7319409A
:1042600081F480511143A0F8001C10BD00500040A3
:10427000005C004070B500F1200405462146FFF7C0
:104280007CFB002805D121462846BDE8704000F09F
:1042900001B870BD38B504464A78002537480C2A65
:1042A0006AD2DFE802F01351693A69060E691E27E7
:1042B0003137887820722046FFF762FF304820614E
:1042C0001AE02046BDE83840FFF72CBCA189016008
:1042D000E08C022801D0802000E000200223009022
:1042E00006E0617A11E0802000E0002001230090C8
:1042F000224A04E08878607200231A460095002163
:104300002046FFF7ABFE38BDA17A0160E08C0128A2
:10431000EBD0E8E78878A072EEE7087800F00300B9
:10432000022803D0488801280AD025E0097901F045
:104330007F00052820D22046BDE83840FFF770BF37
:10434000E07A40F0010015E0087800F00300022850
:1043500003D0488801280AD00EE0097901F07F00D7
:10436000052809D22046BDE83840FFF71DBBE07A9A
:1043700020F00100E072BFE70021DCE71000002020
:104380006941000838B50A4C207800280FD0094947
:10439000A1F14100FCF780F9074800250095017A5A
:1043A00000684023034AFFF759FE2570012038BDFD
:1043B0000100002085140020140000204FF480101C
:1043C000064902E0002803DD401ECA68D207F9D181
:1043D000C868800601D52020C860704700200240D0
:1043E0003939365F3939360012010002EF020140D7
:1043F0008304110000010102030100000902820090
:104400000401008064090400000203000000092187
:104410001101000122180007058203400001070571
:104420000203400001080B0102020201000904011D
:104430000001020201000524001001052401000111
:104440000424020205240600010705880310000168
:1044500009040200020A0000000705810220000191
:1044600007050102200001090403000208065000AC
:104470000705840240000107050402400001000016
:10448000040309040E034B0053005F00440049007D
:104490005900000022034B0053002000390039006E
:1044A0003600200043004D005300490053002D000A
:1044B0004400410050000000180339003900360064
:1044C0005F003900390036005F00390039003600DE
:1044D000804400088444000894440008B84400085C
:1044E0000600FF0901A1010902150025FF750895C5
:1044F00040810209039102C040204000404020401A
:1045000000400000E8430008FC430008D0440008D5
:1045100004000000A9380008F538000861390008D7
:10452000DD380008193C00084D3C0008593D0008E2
:10453000373C0008633D0008FD3D0008753E00085B
:10454000E13D000800000000010203046C45000882
:104550000000002080110000D4010008F045000890
:1045600080110020381500002C2B00085102120485
:104570001324452408020213992D1B08B504C11306
:1045800058163320404BE04418B2181A143814015E
:10459000010813E12B1B08ED041A982C32201ADFB6
:1045A0000C01241A34409A049013013014083D2F52
:1045B0001B085D0401FF01FF01FF01FF01FF01FF77
:1045C00001FF01FF01FF01FF01FF01FF01FF01FFEB
:1045D00001FF01FF015422141B204C04411A8C08D6
:1045E000320413F0101420C92D0271081324F400B2
:0400000508000131BD
:00000001FF
