:020000040800F2
:10000000E00F002001010008AF200008551E000885
:10001000AD200008E7010008E33D000800000000F3
:100020000000000000000000000000007523000830
:10003000FD0A00080000000073230008CD29000815
:100040001B0100081B0100081B0100081B01000820
:100050001B0100081B0100081B0100081B01000810
:100060001B0100081B0100081B0100081B01000800
:10007000CD0A0008D90A00081B0100081B0100086E
:10008000E50A0008F10A00081B0100081B0100082E
:100090006D3D00081B0100081B0100081B01000842
:1000A0001B0100081B0100081B0100081B010008C0
:1000B0001B0100081B0100081B0100081B010008B0
:1000C0001B0100081B0100081B0100081B010008A0
:1000D0001B0100081B0100081B0100081B01000890
:1000E0001B0100081B0100081B010008DFF80CD0F1
:1000F00000F03CF800480047253E0008E00F0020D3
:100100000648804706480047FEE7FEE7FEE7FEE7B1
:10011000FEE7FEE7FEE7FEE7FEE7FEE7312A00081E
:10012000ED00000840EA01039B0703D009E008C97D
:10013000121F08C0042AFAD203E011F8013B00F8AC
:10014000013B521EF9D27047D2B201E000F8012BF8
:10015000491EFBD270470022F6E710B513460A4647
:1001600004461946FFF7F0FF204610BD064C074D28
:1001700006E0E06840F0010394E807009847103477
:10018000AC42F6D3FFF7B6FF383F0008583F0008EF
:1001900070B58C1810F8015B15F0070301D110F849
:1001A000013B2A1106D110F8012B03E010F8016B76
:1001B00001F8016B5B1EF9D12B0705D40023521EF9
:1001C0000DD401F8013BFAE710F8013BCB1A921C61
:1001D00003E013F8015B01F8015B521EF9D5A1425F
:1001E000D8D3002070BDFEE70020704703480021EF
:1001F000018041808180C1800846704788000020CE
:10020000044810B5D0F8B802402101F0CDFD00201F
:1002100010BD0000BC0300202DE9FF47047889468B
:100220004CB1012C08D0002489F8004004B04FF0F4
:100230000110BDE8F0870124154801251549057016
:1002400000264FF4E050029608604FF44060DFF85B
:100250004480CDE900050227A8F1100869460397FC
:10026000404600F025FD2803009001AA112082E8F5
:10027000A1006946404600F01BFD4FF46040CDE907
:10028000000669464046CDE9026700F011FDCBE764
:10029000C80B0020100C01402DE9FF470278A2F1A5
:1002A00080031F2B04D800F041F904B0BDE8F087AB
:1002B00001F8012B0C4610F801CB0126FF21924BCF
:1002C000DFF848920025924A4FF0020A4FF00117DA
:1002D000BCF1170F7AD2DFE80CF00C37484CBFC8DE
:1002E000E379FF5A637979797979676C8898A2B94B
:1002F000BC000278611C0020062A21D006DC052AF9
:100300001ED2DFE802F01D1D1D1D0C00F02A0DD0CD
:10031000FD2A15D0FE2A11D0FF2A11D109E07D480F
:1003200002680A6040684860082009E011200870EF
:1003300005E0402008704D70022001E00E700120A1
:10034000207000F10210B0E7027812B1012A0AD140
:1003500023E040787049C2074FF4005001D0486153
:100360001BE0086119E0217018E02146FFF754FFF7
:100370001DE015704FF47C40CDE90005CDE9025A2F
:100380006946664800F094FC25703146A9E0008873
:1003900000EB4000C000401EFDD125701946A0E0D2
:1003A0006570257051469CE0214600F0E7FA014651
:1003B00097E0C378006863F31F60594B0028D2D0E0
:1003C0005849884203D356705660E6E798E056498C
:1003D00055700144B1FBF0F0022803D90321B0FBB2
:1003E000F1F000E001205060D7E710F8016B014602
:1003F0000EB94FF48076304602F0BEFAF61D257035
:10040000F008010401F101116BE0007800F0030134
:10041000491C1175C0F38000507525701AE02170D9
:100420000122114610F8014B0BE000BF10F8013B10
:1004300013F03F0300D14023DB1DDB081A441844AE
:10044000521C641EF2D262F31F414AE00078217010
:10045000D7E72170394644E001781172B0F80110F5
:100460005181B0F80300908148E012782146012ABA
:1004700013D0421C12F8013B4BB100BF12F8014BE4
:10048000A60701D5E40600D5121D5B1EF6D1101A91
:100490000D7000044D70801C89E700F04DF886E770
:1004A00006461078214601280AD00D704D70A570BF
:1004B0000320F178890707D540F4802111E00BE093
:1004C000304600F0C9F9F4E7B6F801104FF4802285
:1004D00002EB8141014304E01278012A04D021702B
:1004E000494601F10110E0E60179D0F8010061F31D
:1004F0001F6000906946002001F03EFF2570EFE785
:1005000004F8011C3846D0E6010002000100050095
:10051000C80B0020303F000800100140000C0140D3
:100520000100040080A81201FF50250200784FF05E
:1005300001120870104670472DE9F04F87B08B46C6
:1005400001F1020904460590C1490020029008709B
:1005500001906578A41C8046002D6FD0DFF8F4A2CE
:1005600014F8016BB1076AD5B8F1000F3BD0BAF8A7
:100570000A7006F0110001280AD0DFF8D48269461B
:100580000E2001F0F9FE022812D04FF0000805E01D
:100590006946304601F0F0FE022802D0012806D15B
:1005A0000FE07F1E03D3AA4909780029F0D0FCE0B0
:1005B0007F1E03D398F800100029E0D04FF0000808
:1005C000F3E0009989F80010009A09F10101120A7C
:1005D00001F8012B009A120C01F8012B009A120E5F
:1005E00001F8012B8946F1064DD5E17854F8040B4A
:1005F00061F31F600490BAF80C000390F00712D06A
:10060000BAF80A700021304601F0B6FE022802D086
:10061000012807D107E07F1E791C03D08C49097897
:100620000029EFD0C1E0BAF80A706946304601F0FF
:10063000A3FE022804D0012819D108E0D5E060E02B
:100640007F1E14D3824909780029EED00FE0DAF832
:10065000102000990A4004998A4208D00399491E43
:100660000391491C03D07A4909780029DBD0DAF8D4
:10067000102000990A4004998A4201D040F01000ED
:10068000012816D13BE0BAF80A70F10715D0B8F18D
:10069000000F34D10021304601F06EFE022802D056
:1006A000012806D106E07F1E7FD369490978002919
:1006B000F0D07AE04FF0010821E06946304601F0C1
:1006C0005BFE022802D001286FD106E07F1E6CD3AA
:1006D0005F4909780029F0D067E0009989F8001097
:1006E000009A09F10101120A01F8012B009A120C7B
:1006F00001F8012B009A120E01F8012B8946002106
:1007000048E0B8F1000F25D0BAF80A7069460E200B
:1007100001F032FE022802D0012846D106E07F1EF9
:1007200043D34B4909780029F0D03EE0009889F87E
:100730000000009909F10100090A00F8011B009965
:100740004FF00008090C00F8011B0099090E00F891
:10075000011B8146E17854F8040B61F31F6000909F
:10076000B10603D5CAF81000012014E0BAF80A70E7
:100770006946304601F000FE022802D0012814D15B
:1007800007E07F1E791C10D0314909780029EFD08D
:100790000BE0012101910299491C02912C49097831
:1007A00019B96D1E7FF4DCAE09E045B114F8011BE8
:1007B0008A0701D5C90600D5241D6D1EF5E701285D
:1007C00037D1B8F1000F24D0BAF80A50204E69464C
:1007D0000E2001F0D1FD022802D0012829D105E028
:1007E0006D1E26D331780029F1D022E0009989F8D6
:1007F0000010009A09F10101120A01F8012B009A78
:10080000120C01F8012B009A120E01F8012B8946F7
:100810000FE0019969B1BAF80A500D4E00210E207F
:1008200001F0AAFD022804D16D1E02D331780029FF
:10083000F4D002998BF800108BF801000598A9EB11
:100840000B01201A07B041EA0040BDE8F08F00001C
:1008500076010020C80B00202DE9F84FDFF8148145
:100860000027044638460D4601F1030A88F8007057
:10087000B4F80160E41C002E73D014F8019BDFF87B
:10088000F8B05FEA89715CD55FEAC9713CD0BBF80A
:100890000A400021484601F06FFD022802D00128DD
:1008A0005FD131E0641E5CD398F800100029F0D0CD
:1008B00057E026B95FEAC97001D04FF00E09BBF8C6
:1008C0000A406946484601F057FD022802D0012837
:1008D00047D106E0641E44D398F800100029F0D0F8
:1008E0003FE000998AF80010009A0AF10101120A0B
:1008F00001F8012B009A120C01F8012B009A120E3C
:1009000001F8012B8A467F1C761ED2D229E0E178BD
:1009100054F8040B61F31F600090BBF80A8069462D
:10092000484601F029FD022802D0012819D107E02C
:10093000B8F1010815D30F4909780029EFD010E06C
:100940007F1C761EE3D2BBF80A400A4E00210E201F
:1009500001F012FD022804D1641E02D3317800296F
:10096000F4D02F70390A6970A870AAEB0500BDE8B1
:10097000F88F000076010020C80B00202DE9FF470A
:1009800089464179D0F80260447861F31F664B498B
:100990000578E00701F1040206D0EB074FF4806010
:1009A00001D0086000E01060A00706D5AB074FF447
:1009B000006001D5086000E01060600707D5A80856
:1009C000C3074FF4005001D0086000E0106020061B
:1009D0004FF000071BD5E8095FEAC0783848009758
:1009E0000197029703974FF480534FF0020C04D005
:1009F0000B60CDF80CC0009306E013601121CDE927
:100A000000310121CDE9021C694600F051F92B4962
:100A1000091FAEB32B48864200D906464FF0E020AE
:100A2000876106EBC602D200426105220261E2073D
:100A300004D00A68C2F38022AA421BD1A20705D5BE
:100A40000A68C2F3C022B2EB550F13D1620705D575
:100A50000A68C2F34032B2EB950F0BD1A20601D562
:100A60006A0907D122060AD50A68C2F30032B2EB3E
:100A7000D51F04D00269C2F30042002AD7D0076113
:100A800008680A68C0F38020C2F3C02240EA42022C
:100A90000868C0F3403042EA80020848083800681D
:100AA0000968C0F3803042EAC000090B40EAC11077
:100AB00089F8000004B00448BDE8F087100C01403C
:100AC000000C0140C0C62D0001000600014800F0E6
:100AD00017B80000F0020020014800F011B8000033
:100AE000AC020020014800F00BB8000034030020E5
:100AF000014800F005B800007803002070477047F7
:100B00002DE9F05FC16B0C6801680B68D0F840C03C
:100B1000042202FA0CF2494DDFF824A1494E4A4F53
:100B2000DFF828B1DFF828E122422CD05A072AD575
:100B30000A68920603D40A6822F004020A60016877
:100B4000A94201D1042219E0514501D1402215E00A
:100B5000B14202D14FF4806210E0B94202D14FF4A9
:100B600080420BE0594502D14FF4802206E07145E6
:100B700002D14FF4800201E04FF080622F49083922
:100B80004A60C16A3BE04FF0020808FA0CF818EA24
:100B9000040F4FF000094FF0010235D05FEA83786F
:100BA00032D50B689B0605D40B6823F00A030B6053
:100BB00080F821200168A94201D1022219E05145A3
:100BC00001D1202215E0B14202D14FF4007210E0B1
:100BD000B94202D14FF400520BE0594502D14FF413
:100BE000003206E0714502D14FF4001201E04FF0EF
:100BF0000072124908394A6080F82090816A002901
:100C00001AD0BDE8F05F0847082505FA0CF5254223
:100C100012D01B0710D50B6823F00E030B6090F861
:100C20004010C36B02FA01F15960826380F8212001
:100C300080F82090016BE2E7BDE8F09F08000240D9
:100C40001C000240300002404400024058000240B4
:100C50006C00024030B528B308C813491422194467
:100C6000B1FBF2F18900C163104981630221417730
:100C70001A6843F6F0718A43D0E900142143D0E9A1
:100C800002452C432143046921434469214384697B
:100C9000214311431960002141630122427701770A
:100CA000084630BD012030BDF8FFFDBF0000024006
:100CB0002DE9F84FDFF8B891002409F1040A0AF190
:100CC000040B23460F270BF1040EC9E00125A540B4
:100CD0002A40AA427DD1674ED1F804C0ACEB060889
:100CE000B44532D014DCBCF1030F3AD009DCBCF1BE
:100CF000000F2AD0BCF1010F1CD0BCF1020F31D182
:100D00001DE0BCF1110F17D0BCF1120F2AD119E070
:100D1000B8F5881F19D006DCB8F5803F15D0B8F5B6
:100D2000801F1FD111E0B8F5001F0ED0B8F5041FC9
:100D300018D10AE0CB6815E0CB681B1D12E0CB6828
:100D400008330FE0CB680C330CE08B682BB1012B20
:100D50004FF0080303D0456104E0042302E005617D
:100D600000E00023FF2A01D8064601E000F1040656
:100D70004FEA840501D9A5F12005D6F8008007FACD
:100D800005FC28EA0C0803FA05F548EA0508C6F848
:100D900000804D68ED0062D5374DAE6946F0010622
:100DA000AE61AD6924F0030605F001050095334DF1
:100DB00006EB050CDCF80850A607360F07FA06F814
:100DC00025EA0805DFF8B880404503D14FF0000858
:100DD00017E044E0DFF8AC80404502D14FF0010855
:100DE0000FE0DFF8A480404502D14FF0020808E090
:100DF000DFF89880404502D14FF0030801E04FF042
:100E0000040808FA06F848EA0508CCF808804D6896
:100E1000D9F80060ED034D4601D5164300E0964336
:100E20002E604D68DAF80060AD03554601D51643D3
:100E300000E096432E604D68DBF80060ED025D46F1
:100E400001D5164300E096432E604D68DEF8006041
:100E5000AD02754601D5164300E096432E60641C32
:100E60000D682A46E5407FF431AFBDE8F88F0000F9
:100E70000004014000001110001002400000014079
:100E800000080140000C0140001001400014014026
:100E90000AB1016170470904FBE70000014880685E
:100EA00070470000900000200248816802781144D9
:100EB0008160704790000020074810B5016841F03C
:100EC00010010160032000F075F8002000F006F822
:100ED00000F024F8002010BD0020024070B50D4D38
:100EE00004464FF47A712878B1FBF0F00A4909689A
:100EF000B1FBF0F000F0AEFE48B9102C07D2002292
:100F00002146501E00F036F800206C6070BD0120B4
:100F100070BD0000900000209C0000200C4808B527
:100F2000816941F001018161816901F00101009154
:100F3000C16941F08051C161C06900F080500090EA
:100F40000448416821F0E06141F00071416008BD52
:100F50000010024000000140002809DB00F01F02E1
:100F6000012191404009800000F1E020C0F800110B
:100F700070470000F0B40E4B1B680C46C3F302230D
:100F8000C3F10705042D00D90425191D072901D235
:100F9000002300E0DB1E012606FA05F1491E214070
:100FA00099409E40761E16403143F0BC02F01ABFB5
:100FB0000CED00E0064900F0070208684FF6FF0359
:100FC000184040EA0220034A1043086070470000BE
:100FD0000CED00E00000FA0510B50C0605D501F097
:100FE000070100EB4110283003E000EB411000F551
:100FF000947099B232B1012202730181190C4181BE
:10100000002010BD00220273C180F9E7704700EB99
:101010004112D0F86802D26B02F03FB800EB4112E7
:10102000D0F86802D2F83C2102F09AB870B50446B4
:101030000B0601F0070004EB40114FF001024FF0E6
:10104000000503D581F82920283103E081F82951D2
:1010500001F59471087094F82802012808D084F8EA
:101060002822206802F0B5FC84F82852002070BDC8
:10107000022070BD70B5044601F00F006268904216
:1010800001D9012070BD0B0601F0070004EB4011EF
:101090004FF001024FF0000503D581F829202831D7
:1010A00003E081F8295101F594718D70087094F86E
:1010B0002802012808D084F82822206802F02CFD9C
:1010C00084F82852002070BD022070BD2DE9F04147
:1010D00004460F0601F0070004EB40114FF0010633
:1010E0004FF0000503D581F82960283103E081F82D
:1010F000295101F5947108700A61CB704A7802B1E8
:10110000C881022B00D10D7194F82802012809D062
:1011100084F82862206802F027FB284684F82852C9
:10112000BDE8F0810220FBE770B50C4601F0070531
:1011300000EB4511C1E94F230022C1F8442181F899
:10114000292181F8285101F594716207006802F0A5
:1011500038FD002070BD70B504460D4601F0070053
:101160006168884201D9012070BD29064FF0000650
:101170004FF0010205D504EB401181F829202831F8
:1011800005E004EB451181F8296101F594718A703D
:10119000087094F82802012807D084F828222068D3
:1011A00002F0F6FC680702D006E0022070BD04F5EC
:1011B0000C71206802F0AEFC84F82862002070BD3B
:1011C00070B50C4601F0070500EB4511C1E90F238E
:1011D00000224A64012281F8292001F8285F620771
:1011E000006802F0EEFC002070BD10B504460068F7
:1011F00002F0C2FD000402D5204600F059FF20682D
:1012000002F0BAFD40050CD5206830F8441F21F4E7
:1012100080610180204600F0FBF80021204600F0AC
:1012200012F9206802F0A8FD400405D5206830F8C6
:10123000441F21F480410180206802F09DFD80045C
:1012400005D5206830F8441F21F400510180206842
:1012500002F092FDC00414D5206830F8401F21F040
:1012600004010180206830F8401F21F0080101804E
:10127000204600F0E0F8206830F8441F21F4805147
:101280000180206802F078FD00051FD5206830F845
:10129000401F41F008010180206830F8441F21F40C
:1012A00000610180206830F8401F41F00401018096
:1012B000206802F061FDC00405D5206830F8441FA5
:1012C00021F480510180204600F0F2F8206802F0FD
:1012D00053FD800508D5206830F8441F21F40071C3
:1012E0000180204600F0ABF8206802F045FDC00503
:1012F00005D5206830F8441F21F48071018010BDAD
:101300002DE9F04186B0040004D094F829020025AC
:1013100020B108E0012006B0BDE8F08184F8285231
:10132000204600F057F8032084F82902206802F0D4
:10133000EAFB04F11001142288466846FEF7F2FE2B
:1013400094E80F0002F043FB0227B0BB00212068A5
:1013500002F02CFD002001260DE000BF04EB40113F
:1013600081F8296001F8280FC881CD700D614D61A9
:10137000401CC0B28D6161688142EFD800200FE04F
:1013800004EB401181F8295181F8280181F82B5193
:10139000C1F83851C1F83C51401CC0B2C1F84051AD
:1013A00061688142ECD8142241466846FEF7BAFED5
:1013B00094E80F0002F098FB10B184F82972A9E7B5
:1013C00084F8245084F82962206802F08BFB002006
:1013D000A1E7000008B500680B49884212D10B480C
:1013E000C16941F40001C161C069002200F400003C
:1013F000009011461420FFF7BDFDBDE80840142001
:10140000FFF7AABD08BD0000005C004000100240CC
:1014100070B5044680680125022801D0FFF76FFBF4
:101420002946D4F8680201F076FFD4F86802BDE8D6
:10143000704001F032BFD0F8680201F056BFD0F81A
:10144000680201F05CBF10B5044690F8280201283C
:101450000BD0012084F8280284F82410206802F0C0
:10146000A7FC002084F8280210BD022010BDD0F88F
:10147000682200F50C71104601F059BF10B5044602
:1014800090F82802012810D0012084F82802014693
:101490002046FFF7BBFD206802F022FB206802F027
:1014A0005EFC002084F8280210BD022010BD000060
:1014B00010B50446D0F8680201F078FFA069002852
:1014C00004D00348016841F00601016010BD00002E
:1014D00010ED00E02DE9F84305460078354CC007D3
:1014E00054D0E0690026C00008D4E06940F0805084
:1014F000E061E069012600F0805000902E4801680C
:10150000C90512D40168804641F480710160FFF77B
:10151000C5FC074605E000BFFFF7C0FCC01B642800
:1015200023D8D8F80000C005F6D5206A10F4407022
:1015300021D0A98801F4407181421CD0206A1F4942
:10154000012220F440700A6000220A602062C00775
:1015500011D0FFF7A3FC074641F2883808E000BF2E
:10156000FFF79CFCC11B414502D90320BDE8F8836D
:10157000206A8007F4D5206A696820F44070084327
:1015800020621EB1E06920F08050E0612878800779
:1015900005D56068A96820F4404008436060287859
:1015A000C00605D56068E96820F4800008436060E3
:1015B0000020DBE70010024000700040400442427F
:1015C0002DE9F0470F46050061D0434E306800F02A
:1015D0000700B84209D2306820F007003843306075
:1015E000306800F00700B84251D128683B4C8107B1
:1015F00012D5400703D5606840F4E0606060287849
:10160000000703D5606840F4605060606068A968B6
:1016100020F0F000084360602878C00728D0686890
:10162000012810D02168022810D0890700292EDA5D
:10163000616821F0030101436160FFF72FFC8046E0
:1016400041F288390DE021688903EFE78901EDE770
:10165000FFF724FCA0EB0801494502D90320BDE8AF
:10166000F0876068696800F00C00B0EB810FEFD183
:10167000306800F00700B8420BD9306820F007004E
:1016800038433060306800F00700B84201D00120D4
:10169000E5E72878400705D56068E96820F4E06050
:1016A000084360602878000706D56068296920F43F
:1016B000605040EAC100606000F038F86168084A94
:1016C000C1F30311515CC840064908600648006830
:1016D000FFF704FC0020C2E7002002400010024097
:1016E000183F00089C000020940000200448054991
:1016F00000684968044AC1F30221515CC840704740
:101700009C00002000100240283F000804480549C2
:1017100000684968044AC1F3C221515CC84070475F
:101720009C00002000100240283F000812A185B054
:101730000FC98DE80F0014A0144A00680490516886
:10174000134801F00C03042B10D0082B0ED1C1F369
:101750008343C9031DF803000AD5516804AAC1F3E5
:101760004041515C0A4A5043B0FBF1F005B070476C
:1017700008494843FAE70000020304050607080980
:101780000A0B0C0D0E0F1010010200000010024099
:1017900000127A0000093D002DE9F84F040070D0D6
:1017A0002078C04DC00749D06868C0F38100012887
:1017B00007D06868C0F38100022809D16868C003B7
:1017C00006D52868800339D560680028E7D035E061
:1017D0006068B0F5803F0BD010B1B0F5A02F11D0EC
:1017E000286820F480302860286820F4802002E0F7
:1017F000286840F480302860606890B1FFF74EFBA5
:1018000006460AE0286840F480202860F0E700BF20
:10181000FFF744FB801B642873D828688003F7D542
:101820000CE0FFF73BFB064605E000BFFFF736FB89
:10183000801B6428F0D828688003F7D420789A4E5B
:1018400080074FF001094FF0000839D5686810F0A3
:101850000C0F07D06868C0F38100022809D16868BE
:10186000C00306D42868800714D52069012808D150
:1018700010E02069B0B1C6F80090FFF70FFB0746F3
:1018800005E00AE1FFF70AFBC01B0228C4D828685C
:101890008007F7D52868616920F0F80040EAC100A8
:1018A00028600DE0C6F80080FFF7F8FA074604E06C
:1018B000FFF7F4FAC01B022823D828688007F7D462
:1018C000207800072CD57948A169D9B1C0F80090DB
:1018D000FFF7E4FA074604E0FFF7E0FAC01B02282E
:1018E0000FD8686A8007F7D571484FF4FA5100683D
:1018F000B0FBF1F0009000BF0098411E0091FAD2B9
:101900000EE080E0C0F80080FFF7C8FA074604E068
:10191000FFF7C4FAC01B022875D8686A8007F7D49D
:101920002078400760D5E8690027C00008D4E8693E
:1019300040F08050E861E869012700F08050009095
:101940005C480168C90513D40168834641F480717D
:101950000160FFF7A3FA824606E000BFFFF79EFA98
:10196000A0EB0A0064284ED8DBF80000C005F5D5CE
:10197000E06801280AD008B1052813D0286A20F0B1
:1019800001002862286A20F0040002E0286A40F082
:1019900001002862E06841F2883B98B1FFF77EFAC7
:1019A00082460BE0286A40F004002862EEE700BFA0
:1019B000FFF774FAA0EB0A0159455AD8286A800744
:1019C000F6D50CE0FFF76AFA824605E0FFF766FA03
:1019D000A0EB0A0159454CD8286A8007F6D41FB1FC
:1019E000E86920F08050E861E06988B36968C1F374
:1019F0008101022944D00228C6F8608004D0FFF794
:101A00004DFA044638E034E0FFF748FA074604E0B0
:101A1000FFF744FAC01B02282BD828688001F7D4AE
:101A2000206AB0F5803F05D16868A16820F40030D5
:101A300008436860D4E908010843696821F4741117
:101A400008436860C6F86090FFF728FA044606E08D
:101A500025E000BFFFF722FA001B022809D82868FA
:101A60008001F7D51BE000BFFFF718FA001B022822
:101A700002D90320BDE8F88F28688001F4D40EE075
:101A80000128F7D06868226A00F48031914204D1BD
:101A9000616A00F47010884201D00120EAE700205A
:101AA000E8E7000000100240000042428004424289
:101AB0009C0000200070004070B5040005D0002597
:101AC000A56294F8510010B106E0012070BD84F8C1
:101AD0005050204600F02EF8022084F85100206873
:101AE000016821F040010160D4E901010843D4E913
:101AF00003121143084361690843218B01F400710B
:101B00000843E1690843216A0843A16A0843216840
:101B10000860A069042101EA10402168486020683B
:101B2000C16921F40061C1616565012084F851003B
:101B3000002070BDF0B585B000240094019402949B
:101B4000039406463B4D03683B4902200322AB4207
:101B500048D18B6943F480538B618B6903F48053C4
:101B600004938B6943F004038B618969334D01F061
:101B700004010491A021CDE9001003926946284692
:101B8000FFF796F84020CDE9000469462846029404
:101B9000FFF78EF82B4D2A48802701C5102091C5EC
:101BA000284845F810496C61AC61EC61FFF752F8C8
:101BB00008B1FEF7A4FFB5646E622148224D1438C7
:101BC000C5E90004C5E902472C616C61AC61284697
:101BD000EC61FFF73FF808B1FEF791FFF5646E6224
:101BE00005B0F0BD194DAB42FAD1CB6943F4804347
:101BF000CB61CB6903F4804304938B6943F0080302
:101C00008B618969124D01F0080104914FF4204164
:101C1000CDE90010039269462846FFF749F84FF4D2
:101C20008040CDE90004694628460294FFF740F859
:101C3000D6E70000003001400010024000080140DB
:101C400030000240AC020020F002002000380040CA
:101C5000000C014010B5401EB0F1807F01D301207F
:101C600010BD4FF0E02460610F21601702F0BAF858
:101C70000020A06107202061002010BD70B5040085
:101C800004D094F83900002510B106E0012070BDA1
:101C900084F83850204600F023F8242084F83900D6
:101CA0002068C16821F40051C160204600F0E4FEC4
:101CB0002068016921F4904101612068416921F0A7
:101CC0002A0141612068C16841F40051C160E563A7
:101CD000202084F8390084F83A00002070BD00000C
:101CE000F0B585B000240646009401940294039454
:101CF00000682749884249D12648C16941F400312A
:101D0000C161C16901F400310491816941F00401AC
:101D100081618069204D00F004000490042000904F
:101D2000022001900320039069462846FEF7C0FF79
:101D30000820CDE90004694628460294FEF7B8FF62
:101D4000174D16488027C5E90004C5E902472C61F4
:101D50006C61AC612846EC61FEF77CFF08B1FEF7D0
:101D6000CEFE75636E620D480E4D143001C5102015
:101D700091C50C4845F810496C61AC61EC61FEF707
:101D800069FF08B1FEF7BBFE35636E6205B0F0BDBA
:101D90000044004000100240000801406C00024076
:101DA00034030020780300202DE9F0410A46017831
:101DB0000125072917D0124E7378134C114F218833
:101DC00013B13B88994210D0104B01EB81110B44A9
:101DD00001461846FEF7A6F92088401C80B22080F4
:101DE000012804D005E00A480570BDE8F081002014
:101DF0002080398880B28842F7D17570F5E70000FD
:101E0000000000208A0000208800002080080020B8
:101E10007601002010B50C480C4902880B880C494B
:101E20009A4201D18C785CB1521C92B2002402809B
:101E3000012A00D104800088984200D18C7010BD26
:101E40000120087010BD00008E0000208C000020D2
:101E500000000020FEE70000F0B500230A24302532
:101E600037261F4611E000BFB4EB107F02D905EB07
:101E7000107C01E006EB107C01F813C001EB430C71
:101E800000015B1C8CF80170DBB29342ECD3F0BD17
:101E90001E4808B5416941F00101416140691C4992
:101EA00000F0010000901B4801604FF48041416048
:101EB000402181608021C160002101614161816117
:101EC000C161FEF7C7FE002211460C20FFF752F851
:101ED0000C20FFF741F8002211460D20FFF74AF8C9
:101EE0000D20FFF739F8002211461020FFF742F8C5
:101EF0001020FFF731F8002211461120FFF73AF8C1
:101F0000BDE808401120FFF727B80000001002408C
:101F100008000240680200202DE9F04F85B000243F
:101F20002E480094019402940394816941F01001B9
:101F30008161816901F010010491816941F0200102
:101F40008161816901F020010491816941F00401FE
:101F50008161816901F004010491816941F0080106
:101F600081618069DFF8789000F008004FF4C04587
:101F70000490002229464846FEF78AFFDFF864A055
:101F80004FF48877002239465046FEF781FFDFF88C
:101F900058B04FF4E058002241465846FEF778FF0B
:101FA0000095022601250396CDE90154694648466D
:101FB000FEF77EFE00970396CDE901546946504630
:101FC000FEF776FECDF800800396CDE90154694610
:101FD0005846FEF76DFE05B0BDE8F08F00100240D8
:101FE0000010014000080140000C01400C480B4962
:101FF0004FF4007201604FF48271416000218160F2
:10200000C1600161C0E905120822C0E907214162EF
:1020100081620A21C162FFF74FBD0000003001401C
:10202000780100200B480A494FF4007201604FF418
:102030008271416000218160C1600161C0E90512C7
:10204000C1610162416281620A21C162FFF734BD50
:1020500000380040D001002010B500220F49104880
:1020600000F0F4FF08B1FEF74AFD0E490C4801F0FC
:10207000C3F908B1FEF743FD0B49094800F0E0FD44
:1020800008B1FEF73CFD064801F00CFA002803D029
:10209000BDE81040FEF733BD10BD00000400002075
:1020A000BC030020A400002078000020FEE7704759
:1020B0002DE9F05F044648F60F7B4FF0020A4FF41B
:1020C00080684AE1B0F8441011F00F0629D030F8CA
:1020D0002670390479D530F8261040F68F721140F9
:1020E00041F0800120F8261004EB461595F83401E4
:1020F00005F594750028206868D0297830F82120EB
:1021000052047DD5B0F850200AEBC1010A4408EB17
:102110004201415AC1F309015FEA010971D02A89DC
:10212000D2E0C9062DD4018801EA0B0141F4004137
:102130000180206804F12805B0F850202B780AEBC4
:10214000C3010A4408EB4201405AC0F3090060642D
:10215000E16B0844E06300212046FEF758FF94F845
:1021600024000028ADD0A8690028AAD194F8240042
:10217000216840F08000A1F84C00002084F8240081
:10218000EBE0018804F594750A0520D5B0F85020DD
:102190002B78062101EBC3010A4408EB4201405AA7
:1021A00004F50C71C0F30903EB61EA88206801F0C3
:1021B000E7FD2068018840F68F72114041F08001F0
:1021C00001802046FFF753F9C7E0A2E058E0090478
:1021D00055D5018840F68F72114041F08001018091
:1021E0002168B1F850202B78062000EBC300024490
:1021F00008EB4200085A83059B0DEB6110D001E00B
:1022000053E065E0696959B1EA88206801F0B8FDDA
:10221000E96968690844686100212046FEF7FEFE0E
:102220002068B0F850100844296900F20C4051B100
:102230003E2910D84A08C90700D0521C4FF6FF713A
:1022400001EA82210FE0018821F4F8410180018830
:1022500041F4004107E04A09C90600D1521E4FF47B
:10226000004141EA82210180206801884BF68F728B
:10227000114081F4405148F28002114301806CE02A
:10228000B0F850202B78062101EBC3010A4408EB7B
:102290004201415AC1F309015FEA010924D0EA88E9
:1022A0004B46696901F06CFD1EE0B0F85030062223
:1022B00002EBC1015A1808EB4201415AC1F309016E
:1022C0005FEA010904D06A894B46696901F058FD4B
:1022D0002878226832F8201048F68F73194048F2A7
:1022E000C003194322F82010E8694844E86168698E
:1022F00000EB09026A61AB6913B12869484504D94A
:1023000029782046FEF78AFE03E029782046FEF76A
:102310000BFF380621D5216804EB461031F8262042
:1023200002EA0B0242F4004221F826202168B1F8AB
:10233000505010F8282F0AEBC2022A4408EB420240
:10234000895AC1F30901C16142690A4442610178B5
:102350008369204653B1FEF733FF2068B0F844107C
:1023600009043FF5AFAE0020BDE8F09FFEF74FFE39
:10237000F3E7704770470000034A52780AB100F053
:1023800005B800F01BB90000C80B00202DE9F34F81
:10239000884D074685B04FF40060286044102E1D1C
:1023A00034602C60F90701D0286000E030603460B0
:1023B0002C607908CB0701D0286000E030603460E1
:1023C0002C607A18B908CB0701D0286000E0306093
:1023D00034602C600A44F908CB0701D0286000E083
:1023E000306034602C601144C90701D0286000E0DF
:1023F000306034602C600021306034602C602860D4
:1024000034602C604FF0020B8146CDE90001CDE92C
:10241000021B68488A4669461038FEF749FC664840
:10242000007D011E03D034602C60401EFBD1B046FD
:10243000334634605F48083802682C60C2F3C0221B
:10244000346006682C60C6F3C02642EA46021C606F
:1024500003682C60C3F3C02342EA83064FF0010EE9
:10246000012E19D0022E7CD0042E7AD0213104D036
:10247000404604602C60491EFBD14E48CDE9009EC9
:102480004C4669461038CDE902ABFEF711FC2C60D2
:1024900007B03046BDE8F08FBA072BD500273A4683
:1024A000202341460C60D0F800C02C60CCF3C02C37
:1024B0007F08624447EACC775B1EF3D10C6000686A
:1024C0002C6082EAD022D00700D00826069800B1FE
:1024D00007603948007D18B10C602C60401EFBD1AC
:1024E0003448CDE9009E69461038CDE902ABFEF7CD
:1024F000DFFB28E021B1404604602C60491EFBD17F
:102500002C48CDE9009E69461038CDE902ABFEF7B4
:10251000CFFB069800212027006842464FEA0903B6
:102520005FEAC07C01D02B6000E0136014602C6077
:10253000014440087F1EF3D1C80701D02B6000E0A2
:10254000136014602C601C48007A30B14146C8F812
:1025500000900C602C60401EFBD1C5F8009097E7FE
:10256000FFE7154A507D38B1B80705D5212043460D
:102570001C602C60401EFBD121B1404604602C60E1
:10258000491EFBD10B48CDE9009E69461038CDE9C4
:1025900002ABFEF78DFB0848407D0028DDD0B80770
:1025A000DBD44146C8F8009021200C602C60401E0E
:1025B000FBD1D2E7100C0140C80B00202DE9F34FEE
:1025C000EB4D85B04FF4006107464FF0000C2960D9
:1025D0004C102E1D3460E74A506803465B1EFDD147
:1025E0002C6003465B1EFDD1FB0701D0296000E093
:1025F0003160346003465B1EFDD12C6003465B1ED8
:10260000FDD17B08BC445FEAC37801D0296000E0BB
:10261000316034604FEA0008B8F10108FCD12C6049
:102620004FEA0008B8F10108FCD19C44BB085FEAFE
:10263000C37801D0296000E0316034604FEA0008BF
:10264000B8F10108FCD12C604FEA0008B8F101088C
:10265000FCD19C44FB085FEAC37801D0296000E00C
:10266000316034604FEA0008B8F10108FCD12C60F9
:102670004FEA0008B8F10108FCD16344DB0701D040
:10268000296000E03160346003465B1EFDD12C60A0
:1026900003465B1EFDD1316034608446BCF1010C01
:1026A000FCD12C604FEA000CBCF1010CFCD129607C
:1026B00034608446BCF1010CFCD12C609046401E75
:1026C000FDD10220CDE90230A9488A4600919B46FF
:1026D000019369461038FEF7EBFA98F814C04246A9
:1026E0005FEA0C010BD05068346003465B1EFDD1DD
:1026F0002C6003465B1EFDD1BCF1010CF4D13460AB
:10270000D8F8040003465B1EFDD1DFF864C2ACF1CB
:10271000080CDCF800302C60C3F3C0230246521EC4
:10272000FDD134600246521EFDD1DCF800202C6041
:10273000C2F3C0224FEA0008B8F10108FCD143EA15
:102740004202B14634600646761EFDD1DCF80060D8
:10275000E046C6F3C0262C6003465B1EFDD142EA6C
:1027600086064FF0010E012E20D0022E7DD0042EC1
:102770007BD021310AD04B461C600246521EFDD14F
:102780002C600246521EFDD1491EF5D10220CDE932
:1027900002B07748CDE900AE544669461038FEF7DE
:1027A00087FA2C6007B03046BDE8F08FBA0746D5EF
:1027B000002211465FF02007C9F8004003465B1E67
:1027C000FDD1D8F800302C60C3F3C02C03465B1E4B
:1027D000FDD15208614442EACC727F1EECD14B46D7
:1027E000C9F80040DFF88CC107467F1EFDD1D8F83C
:1027F00000702C60C7F3C027401EFDD17940C80788
:1028000000D00826069800B102609CF814205AB146
:10281000DCF804001C600146491EFDD12C60014615
:10282000491EFDD1521EF5D10220CDE902B050481B
:10283000CDE900AE69461038FEF73AFA41E051B1F1
:102840004B461C600246521EFDD12C600246521EB1
:10285000FDD1491EF5D10220CDE902B04448CDE9B1
:1028600000AED0466946103800E03EE0FEF720FAA0
:10287000069840490023006849684FF0200C4F46F5
:10288000C207424601D02A6000E03A603C600A4636
:10289000521EFDD12C600A46521EFDD10344400851
:1028A000BCF1010CECD1D807404601D0286000E013
:1028B000386022463C600846401EFDD12A60491E11
:1028C000FDD12C48027A6AB14B46C9F800A0406895
:1028D0001C600146491EFDD12C600146491EFDD1F8
:1028E000521EF5D1C5F800A05CE7DFF888C09CF85F
:1028F000152072B1BA070CD52123C846C8F800408C
:102900000246521EFDD12C600246521EFDD15B1EB6
:10291000F4D1E04651B14B461C600246521EFDD137
:102920002C600246521EFDD1491EF5D10220CDE990
:1029300002B00F48CDE900AE69461038FEF7B8F98D
:1029400098F815100029CDD0B907CBD44B46C9F85B
:1029500000A0D8F8040021221C600146491EFDD1C8
:102960002C600146491EFDD1521EF5D1BAE7000088
:10297000100C0140C80B0020F0B5124F124A002580
:102980002C464FF4006EA7F1040C3E15526815E07A
:1029900014B911F8015B0824EB0702D0CCF800E071
:1029A00001E0C7F800E03E6013465B1EFDD1CCF8A5
:1029B000006013465B1EFDD16D08641E401EE7D209
:1029C000F0BD0000140C0140C80B0020FEF76CBAEB
:1029D00030B593B028216846FDF7BDFB14210AA845
:1029E000FDF7B9FB002401200F9410941194010409
:1029F00012948DE8130004904FF4E010CDE9081014
:102A0000022507956846FEF7C7FE0F20CDE90A05A7
:102A10006802CDE90C4002210AA80E94FEF7D0FD11
:102A200010200F9012940FA8FEF754FD13B030BD84
:102A30000D48016841F00101016041680B4A1140F5
:102A4000416001680A4A11400160016821F4802157
:102A50000160416821F4FE0141604FF41F01816073
:102A60000449C00308607047001002400000FFF8EE
:102A7000FFFFF6FE08ED00E02DE9F0410446006896
:102A80000169E26821F44051114301612169A068A4
:102A90000843616908432168CA6841F20C639A439C
:102AA0000243CA6020684169A26921F44071114360
:102AB00041611E49206864253226884202D1FEF712
:102AC00025FE01E0FEF712FE00EBC00101EB001154
:102AD00060686FF018078000B1FBF0F2B2FBF5F20E
:102AE000B1FBF0F37A4303EB8202B1FBF0F306EBA8
:102AF0000212B2FBF5F2B3FBF5F302F0F00202EBC7
:102B00000312B1FBF0F3B1FBF0F0B0FBF5F078434A
:102B100003EB800006EB0010B0FBF5F0216800F03D
:102B20000F0010448860BDE8F081000000380140CB
:102B3000D0F8B802002180F850100846704770B5F0
:102B40000546D0F8B842D5F8BC226178D268207822
:102B50009047402322460121284600F095FB0020A3
:102B600070BD70B50446812100F08EFA0025012168
:102B70002046E56200F088FAC4F86C51D4F8B80237
:102B800048B1D4F8BC0204F52E74806880472068F0
:102B900000F0E5FD2560002070BD10B5D0F8B8420A
:102BA000E16C012908D1D0F8BC0223786178C268B1
:102BB000184690470020E064002010BD0A210180E3
:102BC000004870476C0100202921018000487047AF
:102BD000DC00002029210180004870470801002006
:102BE00029210180004870473401002070B5044657
:102BF000002640230322812100F03AFB01254023D7
:102C0000032229462046E56200F032FB5420C4F836
:102C10006C5100F0A5FDC4F8B80278B1054600205B
:102C200085F85000D4F8BC024068804740232A460B
:102C30000121204600F028FB304670BD0126FBE74D
:102C400002460220002902D00020C2F8BC127047C0
:102C500010B5134690F89C42D0F8B822032C0BD143
:102C600092F850400CB1012010BD012482F8504070
:102C70000A46812100F0A3FBFFF7CCF8002010BD2D
:102C8000F8B50022D0F8B832ADF800200E7815461D
:102C9000144616F0600622D0202E56D14A78921E95
:102CA0000A2A52D2DFE802F0100851515151511452
:102CB0000C05887818644BE0012203F1400135E0EF
:102CC0004888000A586443E0012203F144012DE0E2
:102CD0000122DA64CA88194600F064F838E04E78B8
:102CE00036B1062E0BD00A2E23D00B2E2DD128E084
:102CF00090F89C22032A28D10222694616E04B88CC
:102D00002226B6EB132F07D1CA88212A00D9212207
:102D1000D0F8BC120D6808E02126B6EB132F04D1C1
:102D2000CA880E4D092A00D90922294600F054F814
:102D30000EE090F89C22032A07D1012203F14801FA
:102D4000F4E790F89C22032A04D000F020F8022433
:102D50002046F8BD88789864FAE7000060010020FA
:102D600010B5D0F8B42252689047002010BD134629
:102D700010B50A46002100F087FA002010BD134666
:102D800010B50A46002100F01AFB002010BD10B556
:102D90000446802100F0F8FA2046BDE810400021EA
:102DA00000F0F2BA10B50323C0F85C21C0F89432E9
:102DB000C0F8602113460A46002100F065FA0020A1
:102DC00010BD10B505210023C0F894121A4619460B
:102DD00000F05AFA002010BD10B50223C261C0F8FD
:102DE0009432026213460A46002100F0E8FA0020FD
:102DF00010BD10B504210023C0F894121A461946DC
:102E000000F0DDFA002010BD10B50A46024903A00B
:102E100000F0ECF8004810BD800600204375737484
:102E20006F6D2048494420436F6E6669670000005B
:102E300012200880004870472400002010B50A4680
:102E4000024903A000F0D2F8004810BD800600201F
:102E5000437573746F6D2048494420496E746572E0
:102E60006661636500000000042008800048704728
:102E70002000002010B50A46024903A000F0B6F871
:102E8000004810BD8006002053544D6963726F6581
:102E90006C656374726F6E696373000010B50A46E7
:102EA000024903A000F0A2F8004810BD80060020EF
:102EB0004B532039393620576972656C657373201E
:102EC000434D5349532D44415000000010B51A2082
:102ED00008800A480168001D0468001D0068081881
:102EE00009D008220649FEF7B7FF05490422103130
:102EF0002046FEF7B1FF0248801E10BDE8F7FF1F15
:102F00003A000020F8B504460020ADF800004888DB
:102F10000D46010A082948D2DFE801F047040917E5
:102F200047473C45D4F8B012207C0A6819E0207C61
:102F300002260028D4F8B40205D0C16A6846884742
:102F4000014646703EE0816AF8E7C0B206282CD2FE
:102F5000DFE800F0030A1014181CD4F8B00242682D
:102F600005E0694690471CE0D4F8B0028268E2B1FF
:102F7000207CF6E7D4F8B002C268F8E7D4F8B002D3
:102F80000269F4E7D4F8B0024269F0E7D4F8B0027D
:102F90008269ECE7207C40B9D4F8B402416B684602
:102FA000884701460EE0207C20B129462046FFF7E5
:102FB000EEFEF8BDD4F8B402016B684688470146BE
:102FC00007204870BDF8000048B1EA8852B182423B
:102FD00000D90246ADF800202046FFF7FDFEE88844
:102FE0000028E6D12046FFF704FFF8BD70B50023A6
:102FF00000281ED00446002502E06D1CEDB2641CC2
:103000002678002EF9D1022404EB450414801278AE
:10301000CA545B1C0322CA5400245B1C06E0CA5439
:103020005B1CDAB28C54521CD3B2401C0278002ACA
:10303000F5D170BD01004FF0000004D0012901D08E
:10304000022901D0022070470120704710B580B1DD
:10305000D0F8B43213B10023C0F8B43209B1C0F8CB
:10306000B012012180F89C12027000F0BBF8002021
:1030700010BD022010BD10B5D0F8C002FDF7FAFF58
:10308000BDE81040FFF7D6BF10B5D0F8C002FDF77D
:10309000CDFFBDE81040FFF7CDBF2DE9F041174649
:1030A000044651B1D4F8B40242691AB194F89C02B2
:1030B000032851D00220BDE8F081D4F894320025D5
:1030C00004F11400022B03D0042B3AD0C3B33CE02C
:1030D000D0E903639E4207D9F11AC1608AB239462A
:1030E0002046FFF74CFE12E08068B0FBF3F103FBD3
:1030F000110199B9984211D3D4F8981288420DD28F
:10310000002211462046FFF73AFEC4F898520023E9
:103110001A461946204600F0B7F816E0D4F8B40273
:10312000C16829B194F89C02032801D12046884740
:103130008021204600F028F92046FFF742FE04E0F7
:10314000FFE78021204600F01FF994F8A002012833
:1031500004D184F8A05201E0204690470020AAE75D
:1031600070B51546044649B1D4F8B40282691AB163
:1031700094F89C02032830D0022070BDD4F8941239
:1031800004F5AA70032902D005291ED027E0D0E952
:1031900003218A420BD9531AC3600846834200D3E5
:1031A00003469AB229462046FFF7E1FD17E0D4F81E
:1031B000B402016929B194F89C02032801D1204688
:1031C00088472046FFF715FE09E000200146C4F8B5
:1031D0009402204600F0D8F801E0204690470020F5
:1031E00070BD000010B519490446C1F86802C0F866
:1031F000C01217480860082048600220886000203C
:103200008861C86108620846FEF77AF808B1FDF7E0
:1032100076FC0022D4F8C0021823114604F530745D
:10322000FDF7DAFE5823002280212068FDF7D4FE46
:103230009823002281212068FDF7CEFED8230022AA
:1032400001212068FDF7C8FE002010BD5C090020A8
:10325000005C00400A06D0F8C00201F07F0100EBDC
:10326000411002D590F82A00704790F82A01704763
:1032700010B51C461346D0F8C0022246FDF726FFC3
:10328000BDE81040FFF7D6BE10B5D0F8C002FDF77C
:103290004BFFBDE81040FFF7CDBE70B500220446DD
:1032A00040231146FFF7E4FF40260125C4F864617E
:1032B0003346002280212046C4F85851FFF7D8FF3A
:1032C0006662A56184F89C520020C4F89402606094
:1032D000C4F8A402D4F8B80228B1D4F8B40200218A
:1032E000426820469047002070BD90F89C12042947
:1032F00003D190F89D1280F89C120020704710B501
:1033000090F89C12032904D1D0F8B412C96901B114
:103310008847002010BD01740020704710B5D0F818
:10332000C002FEF790F8BDE81040FFF783BE70B50D
:10333000044600F52A70054600F04AF80120C4F85A
:103340009402B4F8AE02C4F8980294F8A80210F0FF
:103350001F010AD001290DD0022910D000F08001F0
:10336000204600F011F8002070BD2946204600F0EC
:103370009EF8F8E72946204600F0CAF9F3E7294607
:10338000204600F01DF9EEE710B5D0F8C002FDF7B9
:10339000E2FEBDE81040FFF74DBE10B5D0F8C00208
:1033A000FEF76CF8BDE81040FFF744BE90F89C12A1
:1033B00080F89D12042180F89C120020704710B5FF
:1033C000D0F8C002FDF7FCFEBDE81040FFF732BEAA
:1033D0000A7802704A7842708A78CB7802EB03222E
:1033E00042800A794B7902EB032282808A79C9797B
:1033F00002EB0121C18070470246002011B1C2F8E2
:10340000B41270470220704710B5D0F8B4220224DD
:103410001AB11268904700B90024204610BD000080
:1034200070B50E461E4D897804462970012931D8A1
:1034300094F89C0202280BD003280FD03146204676
:10344000FFF7A5FC29782046BDE87040FFF788BC4F
:10345000D9B10320616084F89C0209E071B1606811
:10346000884212D0C1B22046FFF77AFC2978616009
:103470002046FFF7C9FF02280CD006E0022084F89E
:103480009C0220466160FFF76BFC2046BDE870405F
:10349000FFF7AFBC31462046BDE87040FFF777BC70
:1034A000A000002010B5FFF778FF002010BD2DE927
:1034B000F0410A78002612F0600208D0202A01D0DC
:1034C000402A70D1D0F8B422926890476DE04B78D2
:1034D000002201250A2B66D2DFE803F0405D655724
:1034E000650805652C29FFF70DFD5EE00446888818
:1034F000D8B9C888C8B94888802816D200F07F0794
:1035000094F89C02032810D084F89E723946204615
:10351000FFF704FF2046FFF76CFC1FB1022084F880
:103520009C0242E084F89C523FE020463BE0FFF7DB
:1035300077FF3AE0CB88012B35D190F89C32012BF4
:1035400004D0022B02D0032B2DD104E08260012293
:1035500000F1080116E00122011D13E090F89C2201
:10356000012A03D0022A01D0032A1CD1CA88022AC8
:1035700019D1C560D0F8A41209B10321C16002229B
:1035800000F10C01FFF728FC0FE0498801290CD15C
:10359000C0F8A45211E090F89C32012B08D0022B05
:1035A00006D0032B04D0FFF7F2FB3046BDE8F081D4
:1035B00049880129F9D1C0F8A422FFF71AFCF4E7E1
:1035C0002DE9F0410A46044610780027097910F0E9
:1035D00060030AD0202B01D0402B50D1D4F8B40284
:1035E00011468368204698478FE0C0F341100128B8
:1035F00006D05078D0B301282AD003283FD107E065
:10360000D4F8B402114683682046BDE8F04118475B
:1036100094F89C02022802D0032872D10AE071B308
:1036200080296ED02046FFF7AFFE80212046FFF7AD
:10363000ABFE6AE0508838B931B1802904D0D08817
:1036400010B92046FFF7A0FE2046FFF7D2FB5CE052
:1036500094F89C020228E2D0032852D1508898BBEB
:103660004806F1D02046FFF706FDEDE7FFE794F8A6
:103670009C020026022803D0032842D112E040E039
:1036800009B180293DD1080601F07F0000EB8000E0
:1036900004EB800101D5143101E001F5AA71022289
:1036A0000E602AE0080601F00F0000EB800004EB3A
:1036B00080000AD5806920B301F07F0000EB800014
:1036C00004EB800514350BE01FE0D0F85801C0B1C1
:1036D00001F07F0000EB800004EB800505F5AA7582
:1036E00041B1802906D02046FFF7B4FD10B101207A
:1036F000286000E02E60022229462046FFF76CFB7E
:1037000003E011462046FFF742FB3846BDE8F08152
:1037100070B5054608780C4610F0600003D02028EC
:1037200001D0402816D195F89C02012803D0022828
:1037300001D003280ED1207903280BD8D5F8B40284
:10374000826828469047E188014306D12846FFF762
:1037500050FB02E02846FFF71AFB002070BD7047BF
:1037600000487047040900202DE9F0470C784FF01D
:10377000000C30F8243048F68F121340CA78002A23
:103780007DD0012A7CD0022A03D0032A79D04FF0C1
:10379000010C48F28002134320F824300D7830F8F1
:1037A000254048F68F731C402C43144320F82540D5
:1037B0000F7B48F6BF744BF68F7948F2C0054CF288
:1037C0008006EFB391F80080C24630F8287048F2C6
:1037D00080181F4047EA080720F82A70B0F8507098
:1037E00091F80080074407EB0817B1F8088028F02B
:1037F0000108A7F80084B0F8507091F800800744E1
:1038000007EB0817B1F80A8028F00108A7F8088428
:103810004F7891F80080002F30F828704FEA474722
:103820007ED0002F05DA30F828701F40374320F88B
:1038300028700F7830F827805FEA486809D500E0E3
:1038400033E030F8278008EA030848EA050820F842
:1038500027800F7830F827501D40354320F8275037
:10386000CB780D78012B30F8253003EA040301D022
:1038700083F02003134320F825300B7802E00BE09F
:1038800010E00CE030F8231001EA0901114320F8A0
:1038900023106046BDE8F08743F4007379E743F4F2
:1038A000C06376E743F4806373E74F7827B3B0F8DB
:1038B00050600F78064406EB0716CF8827F0010703
:1038C000A6F800740F7830F82760760605D530F832
:1038D00027601E402E4320F82760CB78012B06D0AE
:1038E0000B7830F82310214081F02001CEE70B78CF
:1038F00030F823102140C9E7B0F850400D78044457
:1039000004EB0514CD8825F00105A4F80854B0F89F
:1039100050400D78044404EB051404F20C4400E01C
:1039200030E00D6955B13E2D10D86F08ED0700D07D
:103930007F1C4FF6FF7505EA87250FE0258825F4E3
:10394000F8452580258845F4004507E06F09ED0618
:1039500000D17F1E4FF4004545EA872525800D786C
:1039600030F82540640405D530F825401C40344328
:1039700020F825400B7830F8231001EA090181F482
:10398000405183E7002F05DA30F828701F40374395
:1039900020F828700E7830F826707F0605D530F8AC
:1039A00026701F402F4320F826700F7830F82760CC
:1039B0001E402E4320F827600D7830F8253003EAAA
:1039C000090383F44053134320F825308FE7002088
:1039D00070472DE9F04391F80C804F780A7848F64B
:1039E000BF7C4BF68F7948F2800348F2C0054CF259
:1039F000800648F68F74B8F1000F28D0002F30F8F9
:103A000022704FEA474748D0002F05DA30F822707D
:103A10002740374320F822700A7830F822707F065A
:103A200005D530F8227027402F4320F822700D78FA
:103A300030F825202240324320F825200C7830F839
:103A4000242002EA0C021A4320F824201AE07FB155
:103A500030F82260760605D530F8226026402E43E5
:103A600020F822600A7830F8221001EA0C010EE0FA
:103A700030F822506D0405D530F8225025403543EA
:103A800020F822500A7830F8221001EA090119437F
:103A900020F822100020BDE8F083002F05DA30F86E
:103AA00022702740374320F822700A7830F82260CD
:103AB000760605D530F8226026402E4320F8226095
:103AC0000E7830F8262022402A4320F826200C7851
:103AD00030F8242002EA09021A4320F82420C1E722
:103AE000002070470020704700B50121A0F8401069
:103AF0000021A0F84010A0F84410A0F8501000F0E9
:103B00002EF9002000BD30F8401F21F43F41018014
:103B1000002070470020704730B50A7BB2BB4A785E
:103B200048F68F7548F28004C2B10B7830F8232034
:103B3000520607D530F823202A4048F2C0052A4310
:103B400020F82320CA78012A20D00A7830F82210E1
:103B500048F6BF73194081F0200114E00A7830F86C
:103B600022305B0407D530F822302B404CF2800520
:103B70002B4320F822300A7830F822104BF68F734E
:103B8000194081F44051214320F82210002030BD1B
:103B900010B54A780978002A48F2800330F82120CD
:103BA00005D048F6BF74224082F0100204E04BF6C4
:103BB0008F74224082F480521A4320F82120002082
:103BC00010BDF0B50E46054691F801C00022097BF4
:103BD0003469B06948F28007BCF1010F04D0A042FB
:103BE0004FD9001BB0614EE0A04202D9001BB0616A
:103BF00001E00446B26169B1307835F82010490619
:103C0000B5F85010294401EB001012D5A0F80C446F
:103C1000728911E0A3B2F2882846716900F0CEF8EB
:103C2000B5F850003178284400EB0110A0F80444A6
:103C30001EE0A0F804443289A3B22846716900F05E
:103C4000BDF8707848F68F7110B1012807D00FE0E9
:103C5000327835F82200084048F2C00105E0327899
:103C600035F8220008404CF28001084325F8220074
:103C7000317835F8210048F6BF72104080F03000EE
:103C800068E00446B2614FF6FF724FF4004381B31F
:103C9000BCF1000F15D027E0018821F4F841018024
:103CA000018841F400410AE03E2C3ED86108E30758
:103CB00000D0491C02EA812101E043EA8121018010
:103CC00040E0B5F850003178284400EB011000F2D4
:103CD00004407CB13E2C15D861085FEAC47C00D05A
:103CE000491C02EA81210180707810B1012821D09D
:103CF00028E00FE0018821F4F8410180018841F4B7
:103D00000041F0E761095FEAC46C00D1491E43EA53
:103D10008121E8E7B5F850003178284400EB011024
:103D200000F20C40002CBFD1B6E76109E206C4D115
:103D3000491EC2E7B5F850104819317800EB011060
:103D4000A0F80C44317835F821004BF68F72104002
:103D500080F44050384325F821000020F0BD30F8B1
:103D6000401F41F43F410180002070470148FDF7AA
:103D70003CBA00005C090020B0F844007047000025
:103D800010B500EB42005C0800F5806009D000BF70
:103D900030F8042B01F8012B120A01F8012B641EE4
:103DA000F6D1DA0701D00088087010BD00207047F6
:103DB00011B98021A0F84C100020704710B55B1C91
:103DC00000EB42005B0800F5806009D011F8012B80
:103DD00011F8014B42EA042220F8042B5B1EF5D1B6
:103DE00010BDFEE70907090E002804DB00F1E02002
:103DF00080F80014704700F00F0000F1E02080F818
:103E0000141D704702E008C8121F08C1002AFAD129
:103E100070477047002001E001C1121F002AFBD14A
:103E200070470000FDF748F8FEF7D2FDFEF774F882
:103E3000FEF72EF8FEF7DAF80C480B490C22016069
:103E40004FF4E131416000218160C160C0E904129A
:103E50008161C161FDF712FFFEF7FEF8FEF7E2F89F
:103E600000F006F8FCE700000044004028020020B3
:103E70002DE9F041204E214A214C318810888142A1
:103E800001D16178A9B31F4D90461F4F29881F4A61
:103E900001EB811100EB801039441044FCF7FCF970
:103EA0003088401C012800D1002080B23080B8F852
:103EB00000200021904200D16170207848B121702B
:103EC0002888402200EB8010C1191148FEF7C0FE7F
:103ED0000CE02888401C012800D100200D4980B248
:103EE00028800988884201D10120A0700120BDE806
:103EF000F081FFE70020FAE78A0000208800002018
:103F0000000000208C000020C10800208008002054
:103F1000BC0300208E000020000000000000000014
:103F2000010203040607080900000000010203045F
:103F30003939365F39393600583F00080000002013
:103F40007801000090010008184000087801002066
:103F5000680E0000143E0008320113312E1B086960
:103F6000041A75041A9D041ACD041A09041A3D0492
:103F70001704030904120132021640830409041DC8
:103F80000201020335031A1A03120617FF0901A1E1
:103F900001151326FF2809750895400901810206BD
:103FA000300A910295010901B102C022541420ED9A
:103FB000011B08E90413010282082990821053248E
:103FC000F413ED2B1B0863044B812C281A9B0C1A4D
:103FD00031041A3F04C11AD5101AC9041AE1041A8F
:103FE000BD04140902291301011BC032B7112A02B2
:103FF000B115092111011401222116070581034081
:104000002D0107050107291A09562C691A31130ACF
:084010000632022A40180000EC
:04000005080000ED02
:00000001FF
