:020000040800F2
:10000000A02700204501000847290008171C000808
:10001000452900082B0200080D38000800000000E8
:100020000000000000000000000000002F2E00086B
:100030004912000800000000512D0008ED350008AD
:100040005F0100085F0100085F0100085F01000810
:100050005F0100085F0100085F0100085F01000800
:100060005F0100085F0100085F0100085F010008F0
:1000700019120008251200085F0100085F0100083E
:10008000311200083D1200085F01000855370008D2
:100090007D3700085F0100085F0100085F0100086C
:1000A0005F0100085F0100085F0100085F010008B0
:1000B0005F0100085F0100085F0100085F010008A0
:1000C0005F0100085F0100085F0100085F01000890
:1000D0005F0100085F0100085F0100085F01000880
:1000E0005F0100085F0100085F0100085F01000870
:1000F0005F0100085F0100085F0100085F01000860
:100100005F0100085F0100085F0100085F0100084F
:100110005F0100085F0100085F0100085F0100083F
:100120005F0100085F0100085F0100085F0100082F
:10013000DFF80CD000F03CF8004800475D3B0008B9
:10014000A02700200648804706480047FEE7FEE754
:10015000FEE7FEE7FEE7FEE7FEE7FEE7FEE7FEE777
:10016000F13500083101000840EA01039B0703D084
:1001700009E008C9121F08C0042AFAD203E011F8E6
:10018000013B00F8013B521EF9D27047D2B201E0A8
:1001900000F8012B491EFBD270470022F6E710B58C
:1001A00013460A4604461946FFF7F0FF204610BDE5
:1001B000064C074D06E0E06840F0010394E80700B4
:1001C00098471034AC42F6D3FFF7B6FF6C4F0008E7
:1001D0008C4F000870B58C1810F8015B15F0070300
:1001E00001D110F8013B2A1106D110F8012B03E0D0
:1001F00010F8016B01F8016B5B1EF9D12B0705D4D8
:100200000023521E0DD401F8013BFAE710F8013B20
:10021000CB1A921C03E013F8015B01F8015B521E3C
:10022000F9D5A142D8D3002070BDFEE770B50D46C8
:100230000478002C00D101240948012C06D0022C9E
:1002400009D000242C704FF0011070BD0121017005
:1002500002F044FDF6E70221017002F0F9FCF1E73B
:10026000701500200278407842EA002000EB400040
:10027000C000401EFDD10870004870470100020018
:100280007FB50546084900240C700194029440F69D
:1002900003610091022103916946044801F0CEF800
:1002A0002C7004B0012070BD70150020000C0140BE
:1002B00030B504464278801C002A0BD010F8013B70
:1002C0009D0703D5DB0602D5001D00E0001D521E70
:1002D000002AF3D100220A704A70001B0004801C1F
:1002E00030BD00002DE9FF470D460278DFF8488059
:1002F0000027002A07D0012A1BD0FF202870404683
:1003000004B0BDE8F087467802974FF4005400949B
:100310001120019002200390DFF8209069464846A2
:1003200001F08CF8F00702D0C9F8144001E0C9F8D8
:1003300010402F704046E3E701000200001001402A
:100340000022062824D006DC052821D2DFE800F0B0
:10035000202020200C00F0280DD0FD2818D0FE28E9
:1003600013D0FF2814D10AE00A4802680A604068E6
:10037000486008220CE013200870012208E04020A9
:10038000087000204870022202E00120087001225B
:1003900010467047004E0008F0B510F8014B104EA3
:1003A000B4750022002308E010F8015BF7183D76D1
:1003B00006EB43073A842A445B1CA342F4D3002093
:1003C00006E033181B7ED21A06EB40031A86401C47
:1003D000A042F6D300200870641C2004401CF0BD2D
:1003E0007015002010B50C460E490A78022A14D167
:1003F0000078C875897D88420FD20E2001F028FC54
:1004000001F05AFD002121706070010AA170010CF9
:10041000E170000E2071044810BDFF2020704FF0E5
:10042000011010BD70150020050001002DE9F047F6
:10043000002201F8012B88460125012410F8017BD8
:1004400015E010F8016B814642464946304601F0FE
:10045000A1FD06F03F0000B94020C01DC10809EB16
:1004600001000D446D1C320601D588440C447F1EEA
:10047000791CE6D1204665F31F40BDE8F0870000F7
:100480002DE9F04F85B004460494002002900391BA
:100490008E1CC44900220A7000258146C24A14F805
:1004A000011BD175927D91427ED214F8018BB8F177
:1004B000000F7AD014F801BB5FEACB7101D00B2793
:1004C00000E00A275FEA8B7170D5B9F1000F3AD0CE
:1004D000B548B0F80AA0BD4210D15FEACB600DD498
:1004E0006946584601F0AAFD02281ED1BAF1010A58
:1004F0001BD3AC4909780029F2D016E00A2D03D0AD
:100500000A25284601F0A4FBDFF8989269460E20E0
:1005100001F094FD022806D1BAF1010A03D399F83B
:1005200000100029F2D04FF0000901283DD10099B8
:1005300031700099090A71700099090CB170009925
:10054000090EF170361D5FEACB6154D520786178D1
:10055000E27840EA0120A178090441EA02610843F7
:100560000190241D9048B0F80CA0BD4203D03D4638
:10057000284601F06DFB8C4847890021584601F060
:100580005DFD022806D17F1E791C03D085490978BC
:100590000029F2D0012808D1834847896946584686
:1005A00001F04CFD022802E0DEE0A0E041E006D1CF
:1005B0007F1E791C03D07B4909780029EED00128E1
:1005C0000DD17949009A09691140019A914206D0EA
:1005D000BAF1010A03D3734909780029DCD07249C2
:1005E000009A09691140019A914201D040F010002F
:1005F00001287CD172E0B9F1000F6FD1BD4203D068
:100600003D46284601F024FB67484789DFF894A15E
:100610000021584601F012FD022806D17F1E791CE8
:1006200003D09AF800100029F2D0012864D1814645
:1006300054E0B9F1000F25D00A2D03D00A25284631
:1006400001F006FB5848B0F80AA069460E2001F0F8
:10065000F5FC022806D1BAF1010A03D35149097801
:100660000029F2D0012847D1009830700098000A84
:1006700070700098000CB0700098000EF070361D7D
:100680004FF0000920786178E27840EA0120A178F3
:10069000090441EA026108430090241D5FEA8B616E
:1006A00003D541490861012018E0BD4203D03D4611
:1006B000284601F0CDFA3C484789DFF8E8A06946B2
:1006C000584601F0BBFC022806D17F1E791C03D0DE
:1006D0009AF800100029F2D001280DD10299491C86
:1006E00002913049097811B9A8F1010800E003E04E
:1006F000B8F1000F7FF4DEAEB8F1000F0DD014F8A2
:10070000011B8A0703D5C90602D5241D00E0241D5C
:10071000A8F10108B8F1000FF1D1012834D10A2D58
:1007200002D00A2001F094FAB9F1000F1DD01E4842
:1007300045891C4F69460E2001F080FC022805D136
:100740006D1E691C02D039780029F3D001281BD115
:10075000009931700099090A71700099090CB17003
:100760000099090EF170361D0EE00F4845890D4FB6
:1007700000210E2001F062FC022805D16D1E691CCB
:1007800002D039780029F3D0DDE902121170039903
:1007900048700398311A049805B0201A41EA0040C5
:1007A000BDE8F08F19000020701500202DE9F84FEA
:1007B0000446002600208846CF1C524900220A70B9
:1007C000DFF844B114F8011B8BF817109BF81620C2
:1007D000914254D22178627841EA0225A41C002D6E
:1007E0004DD014F8019B5FEAC97002D04FF00B0A9C
:1007F00001E04FF00A0A504601F02AFA5FEA8970D8
:100800005DD541484489DFF8FCB00021484601F03D
:1008100015FC022806D1641E611C03D09BF8001051
:100820000029F2D0012862D126E03DB9BAF10A0FC1
:1008300002D00A2001F00CFA4FF00E093248448928
:100840006946484601F0FAFB022806D1641E611C85
:1008500003D09BF800100029F2D0012847D100995D
:1008600039700099090A79700099090CB9700099DA
:10087000090EF9703F1D761C6D1E691CD5D136E03E
:1008800020786178E27840EA0120A178090441EA01
:10089000026108430090241D1B48B0F80AB0694665
:1008A000484601F0CBFB022806D1BBF1010B03D374
:1008B000144909780029F2D0012818D1761C6D1E40
:1008C000681CDDD1BAF10A0F02D00A2001F0C0F98C
:1008D0000D4844890B4D00210E2001F0AFFB02288A
:1008E00005D1641E611C02D029780029F3D088F854
:1008F0000060310A88F8011088F80200A7EB0800B0
:10090000BDE8F88F190000207015002070B504466E
:100910000D460E492078C875897D884203D3FF2093
:100920002870012070BD082001F092F96078A1784C
:10093000227940EA0120E178090441EA0261084392
:1009400001F01CFE00202870012070BD70150020F1
:1009500010B50278A2F180031F2B02D800F066F8D0
:1009600010BD01F8012B0C4610F8011B172957D2B6
:10097000DFE801F00C14181C44484C565020245653
:1009800056565656282C3034383C40000078611CAE
:10099000FFF7D6FC207000F1021010BD2146FFF7D2
:1009A000A1FC3AE02146FFF741FC36E02046FFF784
:1009B00067FC32E02146FFF755FC2EE0204600F0B0
:1009C0003DF82AE0214600F0B5FA26E0214600F085
:1009D0007FFA22E0214600F07DFB1EE0214600F078
:1009E0003DF81AE02146FFF721FD16E02146FFF70A
:1009F000D3FC12E02146FFF7F5FC0EE0214600F0A3
:100A0000DFFB0AE0214600F0A5FB06E0214600F0EE
:100A1000AFFB02E0214600F0E9FB00F1011010BD40
:100A2000FF2004F8010C4FF0011010BD4FF001122F
:100A300003780B70007880381046704700214170B1
:100A400001700220704710B501F0A2FE01F05CFEBB
:100A500001F010FFBDE8104001F032BF0078064AF7
:100A600000F003035B1C1375C0F380005075002079
:100A700008704FF001107047701500202DE9F04FFD
:100A800087B0044606940020049005918D1CDFF881
:100A9000DCA200218AF80010002703916678A41CCC
:100AA000002E7DD014F8018B5FEA887179D587B369
:100AB000AF48B0F80A9008F0110001280DD101A943
:100AC000404602F0B5F9022815D1B9F1010912D357
:100AD0009AF800100029F2D00DE001A90E2002F0D2
:100AE000A7F9022806D1B9F1010903D39AF8001039
:100AF0000029F2D00027012852D1019929700199CB
:100B0000090A69700199090CA9700199090EE97027
:100B10002D1D5FEAC86152D520786178E27840EAFD
:100B20000120A178090441EA026108430290241DD2
:100B30008F48B0F80CB05FEAC87011D08C48B0F89C
:100B40000A900021404602F073F9022806D1B9F15B
:100B5000010903D39AF800100029F2D001281FD10F
:100B60008348B0F80A9001A9404602F061F90228D2
:100B700006D1B9F1010903D39AF800100029F2D087
:100B8000012810D17A49019A09691140029A9142CB
:100B900009D0BBF1010B06D39AF80010002901E03F
:100BA0008AE042E0DCD07249019A09691140029A58
:100BB000914201D040F0100001287DD132E06C4913
:100BC000B1F80A905FEAC87111D05FBB00214046BE
:100BD00002F02EF9022806D1B9F1010903D39AF8DF
:100BE00000100029F2D0012872D101271AE001A9D2
:100BF000404602F01DF9022806D1B9F1010903D3DC
:100C00009AF800100029F2D0012861D101992970C9
:100C10000199090A69700199090CA9700199090ED5
:100C2000E9702D1D0021039148E0F7B15048B0F85C
:100C30000A9001A90E2002F0FBF8022806D1B9F1B2
:100C4000010903D39AF800100029F2D001283FD1FE
:100C5000019828700198000A68700198000CA8702B
:100C60000198000EE8702D1D002720786178E27849
:100C700040EA0120A178090441EA02610843019099
:100C8000241D5FEA886103D539490861012015E018
:100C90003748B0F80A9001A9404602F0C9F8022886
:100CA00006D1B9F1010903D39AF800100029F2D056
:100CB00001280DD1012100E00AE003910499491CAB
:100CC00004919AF8001019B9761E002E7FF4EAAE4E
:100CD0005EB114F8011B8A0703D5C90602D5241D8D
:100CE00000E0241D761E002EF3D101282FD1EFB194
:100CF0001F48468901A90E2002F09AF8022806D161
:100D0000761E711C03D09AF800100029F2D0012839
:100D10001DD1019929700199090A69700199090C7D
:100D2000A9700199090EE9702D1D10E0039971B1A8
:100D30000F48468900210E2002F07AF8022806D1D9
:100D4000761E711C03D09AF800100029F2D0DDE95C
:100D500004121170059948700598291A069807B071
:100D6000201A41EA0040BDE8F08F00001900002081
:100D7000701500202DE9F84F044600260020894612
:100D8000CF1CDFF818A100218AF80010641C21781C
:100D9000627841EA0225A41C002D74D014F8018B5E
:100DA000DFF8FCB05FEA88715BD55FEAC87135D0C7
:100DB000BBF80A400021404602F03AF8022806D16A
:100DC000641E611C03D09AF800100029F2D001289B
:100DD00059D123E025B95FEAC87001D04FF00E0861
:100DE000BBF80A406946404602F022F8022806D1C4
:100DF000641E611C03D09AF800100029F2D001286B
:100E000041D1009939700099090A79700099090C4B
:100E1000B9700099090EF9703F1D761C6D1E691C92
:100E2000D8D130E020786178E27840EA0120A178DA
:100E3000090441EA026108430090241D1848B0F8F3
:100E40000AB06946404601F0F3FF022806D1BBF123
:100E5000010B03D39AF800100029F2D0012812D117
:100E6000761C6D1E681CDDD10D48448900210E20C2
:100E700001F0DEFF022806D1641E611C03D09AF83F
:100E800000100029F2D089F80060310A89F80110B9
:100E900089F80200A7EB0900BDE8F88F19000020CF
:100EA0007015002038B50C464178827841EA02225C
:100EB000C1780079090441EA006002430092694662
:100EC000002001F0B5FF00202070012038BD000097
:100ED00030B50278437842EA03228378C0781B0455
:100EE00043EA006002430F48002A08D00E4D002458
:100EF0000E4BAA4206D301225A705A600FE0FF221D
:100F00000A7030BD5C700A4D1544B5FBF2F2022A3E
:100F100003D90325B2FBF5F200E001225A600C7000
:100F200030BD00000100040080A8120170150020EF
:100F3000FF5025022DE9F04786B0884605784478B1
:100F40008178C27841EA022601794079090441EAB0
:100F5000006006435849E00701F1040206D0EB07A0
:100F60004FF4806001D0086000E01060A00706D553
:100F7000AB074FF4007001D5086000E01060600717
:100F80004FF0010308D5A808C00702D04B48036002
:100F900002E04A48001D036020064FF000072BD5F1
:100FA000E80902970397049705975FEAC0794448D8
:100FB0004FF4006C4FF0020A09D0C1F800C0CDF820
:100FC00008C0CDF814A002A900F038FA14E0C2F865
:100FD00000C0CDF808C0112103910493CDF814A0EE
:100FE00002A900F02BFA02F069FE364801900422B3
:100FF00001A9354802F0DEFF304B2F481B1F001FB0
:10100000DEB332498E4200D90E464FF0E02CCCF8C8
:10101000187006EBC601C900CCF814100521CCF8F5
:101020001010E10704D00168C1F38022AA421CD14C
:10103000A10705D50168C1F34021B1EB550F14D1CB
:10104000610705D51968C1F30001B1EB950F0CD10B
:10105000A10602D5B7EB551F07D121060BD50168B4
:10106000C1F3C021B1EBD51F05D0DCF81010C1F3DE
:1010700000410029D5D0CCF810700168C1F380215F
:101080000268C2F3402241EA42021968C1F300013A
:1010900042EA8102094908390968C1F3400142EA7C
:1010A000C1010068C00A41EAC01088F8000006B01B
:1010B0000748BDE8F0870000100C0140100801400F
:1010C000000C01400400FA050CED00E0C0C62D0044
:1010D0000100060070B50D4610F8014B0146002CCA
:1010E00001D14FF48074204602F0FCF900202870F2
:1010F000E41DE008401C0004401C70BD08B5134806
:1011000000210170417022224260017264224281FA
:101110008181016101220275417581750C488169E7
:1011200041F008018161816901F008010091816944
:1011300041F010018161806900F01000009001F021
:1011400087FDBDE8084001F0C9BD00007015002012
:1011500000100240054A1278012A03D0022A03D067
:10116000FFF7A6B8FFF78ABCFFF78AB97015002011
:1011700010B504461148007801280CD002280ED082
:1011800000200870487088700320E17889070AD52C
:1011900040F4802010BD2046FFF7ECFDF5E7204627
:1011A000FFF704FBF1E76178A27841EA022104220B
:1011B00002EB810140EA014010BD000070150020E3
:1011C00010B5084A037813724378847843EA0423FD
:1011D0005381C378007943EA002090810020087091
:1011E000014810BD701500200100050010B5094A26
:1011F0001278012A07D0022A08D0FF2008700120A7
:1012000040F4A02010BDFFF74DFEF9E7FFF77EFB8D
:10121000F6E7000070150020014800F029B8000032
:10122000E8140020014800F023B80000A4140020B6
:10123000014800F01DB800006C130020014800F0C8
:1012400017B80000B0130020704700BF00BF0A228B
:101250008221FE20401E10F0FF00FBD1491E11F03C
:10126000FF01F7D1521E12F0FF02F3D170470000C8
:101270002DE9F05FC16B0A6801680B68046C4FF0E0
:10128000040A0AFA04FA4E4D4E4E4F4FDFF83CC1A5
:10129000DFF83C81DFF83C911AEA020F31D05FEAB7
:1012A000437A2ED50A68920603D40A6822F0040213
:1012B0000A600168A94201D1042119E0B14201D1BB
:1012C000402115E0B94202D14FF4806110E0614540
:1012D00002D14FF480410BE0414502D14FF480210F
:1012E00006E0494502D14FF4800101E04FF08061F2
:1012F000334A083A5160C16A00295FD0BDE8F05F07
:1013000008474FF0020E0EFA04FE1EEA020F4FF0DD
:10131000000A4FF0010B35D05FEA837E32D50A68B0
:10132000920605D40A6822F00A020A6080F821B009
:101330000168A94201D1022119E0B14201D1202165
:1013400015E0B94202D14FF4007110E0614502D1BD
:101350004FF400510BE0414502D14FF4003106E05B
:10136000494502D14FF4001101E04FF00071144AD9
:10137000083A516080F820A0816A00291ED0BDE89B
:10138000F05F08470825A540154217D01A0715D564
:101390000A6822F00E020A6090F84010C26B0BFA45
:1013A00001F15160C0F838B080F821B080F820A079
:1013B000016B002902D0BDE8F05F0847BDE8F09F4F
:1013C000080002401C00024030000240440002407D
:1013D000580002406C00024030B5002827D0001DA4
:1013E000144A50F8041C14230A44B2FBF3F292008E
:1013F000C263114A8263022242770A6843F6F0739D
:101400009A43D0E900342343D0E902452C432343D7
:1014100004692343446923438469234313430B60D2
:1014200000214163012242770177002030BD012075
:1014300030BD0000F8FFFDBF000002402DE9F84F6D
:1014400000240023DFF8C4914FF00F0809F1040ACB
:101450000AF1040B0BF1040ED1E00127A7403A403A
:10146000BA4275D1DFF8A8C14D68A5EB0C066545F9
:101470002BD00DDC032D34D005DC35B3012D19D074
:10148000022D2FD11BE0112D16D0122D2AD119E0DB
:10149000B6F5881F19D006DCB6F5803F15D0B6F535
:1014A000801F1FD111E0B6F5001F0ED0B6F5041F46
:1014B00018D10AE0CB6815E0CB681B1D12E0CB68A1
:1014C00008330FE0CB680C330CE08B6823B1012BA1
:1014D00004D00823476105E0042303E008230761E3
:1014E00000E00023FF2A01D8054601E000F10405D1
:1014F00002D84FEA840603E0A4F108064FEA860604
:101500002F6808FA06FC27EA0C0703FA06F647EAF2
:1015100006072F604D68ED0070D53E4DAE6946F070
:101520000106AE61AD6905F0010500953A4D24F064
:1015300003067719BE68A5072D0F08FA05FC26EAF1
:101540000C06DFF8D8C0604503D14FF0000C17E05F
:1015500054E0DFF8CCC0604502D14FF0010C0FE041
:10156000DFF8C0C0604502D14FF0020C08E0DFF8A0
:10157000B8C0604502D14FF0030C01E04FF0040CFD
:101580000CFA05FC4CEA060CC7F808C04D68ED03E0
:1015900005D5D9F800501543C9F8005004E0D9F832
:1015A00000509543C9F800504D68AD0305D5DAF8F1
:1015B00000501543CAF8005004E0DAF80050954393
:1015C000CAF800504D68ED0205D5DBF80050154310
:1015D000CBF8005004E0DBF800509543CBF8005006
:1015E0004D68AD0205D5DEF800501543CEF8005029
:1015F00004E0DEF800509543CEF80050641C0A6801
:1016000032FA04F57FF429AFBDE8F88F00040140F9
:1016100000001110001002400000014000080140CD
:10162000000C01400010014000140140002A01D0CC
:10163000016170470904016170470000014880683A
:101640007047000098110020024881680278114418
:101650008160704798110020002809DB00F01F020C
:10166000012191404009800000F1E020C0F8001104
:1016700070470000F0B40D460D4B1B68C3F3022306
:10168000C3F10704042C00D90424191D072901D231
:10169000002300E0DB1E012606FA04F1491E294062
:1016A00099409E40761E16403143F0BC02F0AFB820
:1016B0000CED00E001480068704700009411002024
:1016C00000B5FFF7F7FF04494968044AC1F3022156
:1016D000515CC84000BD000000100240644F00088B
:1016E00000B5FFF7E7FF04494968044AC1F3C22186
:1016F000515CC84000BD000000100240644F00086B
:1017000070B50446002C05D00025A56294F8510060
:1017100010B106E0012070BD84F85050204600F062
:101720002FF8022084F851002068016821F0400160
:101730000160D4E901010843D4E9031211430843CD
:1017400061690843218B01F400710843E169084392
:10175000216A0843A16A084321680860A06904213E
:1017600001EA1040216848602068C16921F40061E5
:10177000C1616565012084F85100002070BD000042
:10178000F0B585B0064600240194029403940494B5
:10179000384D3168384802220323A94243D1816978
:1017A00041F480518161816901F480510091816926
:1017B00041F004018161806900F004000090A020E4
:1017C0000190029204932D4D01A92846FFF736FEA1
:1017D000402001900294039401A92846FFF72EFEB1
:1017E000284D2748286010206860AC608027EF6093
:1017F0002C616C61AC61EC612846FFF7EDFDB564CE
:101800006E621F481438443528606C60AC60EF602D
:101810002C616C61AC61EC612846FFF7DDFDF5647D
:101820006E6205B0F0BD184DA942FAD1C16941F40C
:101830008041C161C16901F480410091816941F039
:1018400008018161806900F0080000904FF4204099
:101850000190029204930D4D01A92846FFF7EEFD79
:101860004FF4804101910294039401A92846FFF7A7
:10187000E5FDD6E7003001400010024000080140BD
:1018800030000240A414002000380040000C014049
:101890002DE9F84F04460A9E8A4693461F460125C5
:1018A0004FF0000894F8500001280ED0012084F871
:1018B0005000FFF7C3FE814694F85100616801288B
:1018C0000DD0B1F5827F07D102E00220BDE8F88F8C
:1018D000A16809B9042802D04FF00208C3E0BAF1A8
:1018E000000F28D0BBF1000F25D0380023D094F88A
:1018F0005100042802D0052084F8510000206065C2
:10190000C4F838B0E787A787C4F830A0E786A78671
:101910002064606420680168490603D4016841F0CE
:1019200040010160E068B0F5006F07D06068E8B37F
:10193000012F48D07DE04FF0010894E0606808B1C5
:10194000012F39D1206B21680088C860206B801C72
:101950002063E08E401EE0862EE0206881688907C3
:101960000DD5E18E59B1012D09D1216B0988C160D6
:10197000206B801C2063E08E401EE08600252068DE
:101980008168C9070BD0E18F49B1C068A16B08809D
:10199000A06B801CA063E08F401EE0870125FFF74D
:1019A0004DFEA0EB0900B04206D300E00BE0701C36
:1019B00002D04FF0030856E0E08E0028CDD1E08F32
:1019C0000028CAD13BE0206B216800780873206BA7
:1019D000401C2063E08E401EE0862AE0206881687B
:1019E00089070DD5E18E59B1012D09D1216B0978F7
:1019F0000173206B401C2063E08E401EE0860025B2
:101A000020688168C9070BD0E18F49B1C068A16B1C
:101A10000870A06B401CA063E08F401EE08701258A
:101A2000FFF70CFEA0EB0900B04201D3701C11D1EE
:101A300086B1E08E0028D1D1E08F0028CED14A4671
:101A40003146204601F085F938B14FF001082020D9
:101A5000606508E04FF0030805E0A06818B9206849
:101A6000C1688068009001205034607000202070B0
:101A700040462BE770B50446002C04D094F839009A
:101A8000002510B106E0012070BD84F838502046D2
:101A900000F022F8242084F839002068C16821F47D
:101AA0000051C160204601F0CBFD2068016921F49E
:101AB000904101612068416921F02A01416120685B
:101AC000C16841F40051C160E563202084F8390009
:101AD00084F83A00002070BDF0B585B006460024B9
:101AE0000194029403940494374F316837480222DA
:101AF0000323374DB94221D1816941F4804181618D
:101B0000816901F480410091816941F004018161A2
:101B1000806900F00400009010020190029204938A
:101B200001A92846FFF78AFC291501910294039424
:101B300001A92846FFF782FC05B0F0BD254FB94248
:101B4000FAD1C16941F40031C161C16901F40031C8
:101B50000091816941F004018161806900F0040015
:101B60000090042001900292049301A92846FFF7F7
:101B700065FC082001900294039401A92846FFF710
:101B80005DFC164D144828606C60AC608027EF60E7
:101B90002C616C61AC61EC612846FFF71DFC75633C
:101BA0006E620D4814304435286010206860AC60C7
:101BB000EF602C616C61AC61EC612846FFF70CFCB6
:101BC00035636E62B8E70000003801400010024043
:101BD00000080140004400406C0002406C130020EB
:101BE00070B50A4601780125072909D0064C2178ED
:101BF000002904D101460548FEF7B6FA257070BDEC
:101C00000348057070BD000001000020A4110020F1
:101C1000190000207047FEE708B50020009002F090
:101C2000DFF868B14EF29E7002F0E9F850B102F0B0
:101C3000D7F848B1684602F0B2F838B1012008BDC3
:101C4000002008BD002008BD002008BD002008BD00
:101C500003494978002901D000F004B800F06CB8BD
:101C6000701500202DE9F043304D4FF4007CC5F88D
:101C700000C02C152E1D34602C6034602C60C6F81A
:101C800000C034602C6034602C60294F01223A601F
:101C90002849CB7D01EB4309B9F82010002904D075
:101CA00034602C60491E0029FAD122491831595C50
:101CB000491EDFF87C8008F1040859B1C30701D040
:101CC0003A6001E0C8F8002034602C604008491EEA
:101CD0000029F3D1B9F83010A1B1C00701D03A60A2
:101CE00001E0C8F8002034602C603A60491E21B140
:101CF00034602C60491E0029FAD1C5F800C0346058
:101D00002C6009E0C5F800C0C00701D03A6001E0CE
:101D1000C8F8002034602C6034602C60C6F800C025
:101D200034602C603A60BDE8F0830000100C014084
:101D300010080140701500202DE9F0475B4C4FF46E
:101D40000078C4F8008004F1040C2715CCF800706A
:101D5000574B59680A46521EFDD127600A46521E4B
:101D6000FDD1CCF800700A46521EFDD127600A460C
:101D7000521EFDD1CCF80080CCF800700A46521EED
:101D8000FDD127600A46521EFDD1CCF800700A46EC
:101D9000521EFDD127600A46521EFDD1454E012537
:101DA000356093F8179003EB490ABAF820305BB11D
:101DB000CCF800700A46521EFDD127600A46521E1A
:101DC000FDD15B1E002BF3D1394A183219F80230CD
:101DD0005B1EDFF8E09009F1040993B1C20701D05E
:101DE000356001E0C9F80050CCF800700A46521E78
:101DF000FDD127600A46521EFDD140085B1E002B14
:101E0000ECD1BAF830204AB3C00701D0356001E008
:101E1000C9F80050CCF800700846401EFDD127607C
:101E20000846401EFDD13560521E5AB1CCF80070F4
:101E30000846401EFDD127600846401EFDD1521EB7
:101E4000002AF3D1C4F80080CCF800700846401E88
:101E5000FDD127600846401EFDD110E0C4F8008087
:101E6000C00701D0356001E0C9F80050CCF800701F
:101E70000846401EFDD127600846401EFDD1CCF823
:101E800000700846401EFDD127600846401EFDD167
:101E9000CCF80080CCF800700846401EFDD12760C9
:101EA000491EFDD13560BDE8F0870000100C0140EF
:101EB00070150020100801402DE9F041324A4FF41E
:101EC000007515601315141D2360304E71680846A7
:101ED000401EFDD113600846401EFDD125602360E1
:101EE0000846401EFDD113600846401EFDD1236008
:101EF0000846401EFDD113600846401EFDD1F67D08
:101F000056B123600846401EFDD113600846401EAE
:101F1000FDD1761E002EF4D100271F26DFF870C0F9
:101F200023600846401EFDD1DCF80000C0F34008E5
:101F300013600846401EFDD147EAC8704708761E68
:101F4000002EEDD1156023600846401EFDD1DCF85F
:101F50000000C0F3400613600846401EFDD147EA6A
:101F6000C67023600E46761EFDD113600E46761EA7
:101F7000FDD1256023600C46641EFDD11360491E0F
:101F8000FDD1BDE8F0810000100C0140701500206B
:101F9000080801402DE9F04F00F03F03002B00D16D
:101FA0004023DFF88CA045064FF40074AAF1040B1F
:101FB00002D5CBF8004001E0CAF800404FF001091B
:101FC0004FF48068DFF86CE02DE011F8016B00271A
:101FD000082420E0F50703D0174DC5F8009003E072
:101FE000154D2D1DC5F80090CAF80080DEF804C01C
:101FF00065466D1EFDD1104D083D2D68C5F34005A9
:10200000CBF80080BCF1010CFCD176087F0847EAD0
:10201000C517641E5B1E0CB1002BDBD1E740040624
:1020200001D502F8017B002BCFD1BDE8F08F000075
:10203000140C01407015002010080140034A52782A
:10204000002A01D000F004B800F000B9701500209B
:102050002DE9F04F7A4F4FF400733B6007F1040C09
:102060005E00CCF800603E60CCF80030CCF8006038
:102070003E60CCF800603E60DFF8C8E19EF81720B3
:10208000002A05D0CCF800603E60521E002AF9D12B
:1020900042086D4CD507A4F104084FF0010202D0AC
:1020A000C8F8002000E02260CCF80060DFF898B1AA
:1020B000ABF10C0BDBF80050C5F340053E606D0042
:1020C0004FEA90095FEAC97902D0C8F8002000E021
:1020D0002260CCF80060DBF80090C9F340093E6054
:1020E00045EA09054FEAD0095FEAC97902D0C8F884
:1020F000002000E02260CCF80060DBF80090C9F31B
:1021000040093E6045EA8909B9F1010F04D03B60FE
:10211000CCF800603E607BE0DFF828A185079AF8E4
:1021200016009AF817A0A0EB0A0A38D500241F2041
:10213000CCF80060DBF800506D083E6044EAC574DE
:102140006408401E0028F3D1AAF1010ABAF1000F79
:1021500018D0CCF80060DBF80000C0F340003E600F
:10216000AAF1010ABAF1000F07D0CCF800603E6076
:10217000AAF1010ABAF1000FF7D13B60CCF8006078
:102180003E6007E03B60CCF80060DBF80000C0F385
:1021900040003E6044EAC07079B3086038E00868E7
:1021A0001F21C50702D0C8F8002000E02260CCF84B
:1021B00000603E604008491E0029F2D1AAF1010AE0
:1021C000BAF1000F1AD0C00702D0C8F8002000E012
:1021D0002260CCF800603E60AAF1010ABAF1000F5B
:1021E00007D0CCF800603E60AAF1010ABAF1000FF6
:1021F000F7D13B60CCF800603E6009E03B60C0076F
:1022000002D0C8F8002000E02260CCF800603E60F8
:10221000CCF800603E60CCF80030CCF800603E6046
:10222000C8F800209EF8080002E0CCF800603E608C
:10223000401E411CF9D109F0FF00BDE8F08F0000FD
:10224000100C014070150020140801402DE9F84FD2
:10225000C74D4FF4007CC5F800C005F1040A4FF4E7
:102260008069CAF80090DFF80CE3DEF8042013461A
:102270005B1EFDD1C5F8009013465B1EFDD1CAF868
:1022800000C0CAF8009013465B1EFDD1C5F800904F
:1022900013465B1EFDD1CAF8009013465B1EFDD1AC
:1022A000C5F8009013465B1EFDD19EF8174064B13F
:1022B000CAF8009013465B1EFDD1C5F80090134686
:1022C0005B1EFDD1641E002CF2D14308DC07AA4B33
:1022D0004FF00106A3F1040701D03E6000E01E604C
:1022E000CAF800901446641EFDD1DFF88CB2ABF141
:1022F0000C0BDBF80040C4F34004C5F80090904696
:10230000B8F10108FCD164004FEA90085FEAC87890
:1023100001D03E6000E01E60CAF800909046B8F11F
:102320000108FCD1DBF80080C8F34008C5F8009034
:102330009646BEF1010EFCD144EA08044FEAD008EB
:102340005FEAC87801D03E6000E01E60CAF80090E5
:102350009046B8F10108FCD1DBF80080C8F34008D2
:10236000C5F800909646BEF1010EFCD144EA8804FF
:102370000094009C012C0BD0C5F800C0CAF8009056
:102380001046401EFDD1C5F80090521EFDD1C2E09E
:10239000DFF8E081840798F8160098F81780A0EB22
:1023A000080E5ED500241F23CAF800901046401E78
:1023B000FDD1DBF80000C0F34008C5F800901046DE
:1023C000401EFDD144EAC87044085B1E002BEBD1CF
:1023D000AEF1010EBEF1000F2FD0C846CAF8009032
:1023E0001046401EFDD1DBF80000C0F34000C5F8E8
:1023F000008013465B1EFDD1AEF1010EBEF1000F51
:102400000ED0CAF8008013465B1EFDD1C5F80080CF
:1024100013465B1EFDD1AEF1010EBEF1000FF0D1EF
:10242000AB46C5F800C0CAF8008013465B1EFDD15C
:10243000CBF80080521EFDD10EE0C5F800C04B461F
:10244000CAF800901046401EFDD1DBF80000C0F332
:1024500040002B60521EFDD144EAC070F1B3086009
:1024600059E008681F24C10701D03E6000E01E60EB
:10247000CAF800901146491EFDD1C5F800901146DA
:10248000491EFDD14008641E002CECD1AEF1010EB6
:10249000BEF1000F2FD0C00701D03E6000E01E60EB
:1024A0004946CAF800901046401EFDD129601046EA
:1024B000401EFDD1AEF1010EBEF1000F0DD0CAF8E5
:1024C00000101046401EFDD129601046401EFDD16F
:1024D000AEF1010EBEF1000FF1D100E01BE02B4682
:1024E000C5F800C0CAF800101046401EFDD11960A2
:1024F000521EFDD10FE0C5F800C0C00701D03E60FC
:1025000000E01E604946CAF800901046401EFDD10A
:102510002960521EFDD1CAF8009016494A6810463B
:10252000401EFDD1C5F800901046401EFDD1CAF8EE
:1025300000C0CAF800901046401EFDD1C5F80090BA
:102540001046401EFDD13E600B7A09E0CAF80090AB
:102550001046401EFDD1C5F800901146491EFDD120
:102560005B1E581CF2D10098C0B2BDE8F88F000085
:10257000100C014070150020140801402DE9F04FA7
:102580005E4B4FF400751D601E151F1D3E60DFF889
:102590007081D8F804100A46521EFDD11E600A460A
:1025A000521EFDD13D603E600A46521EFDD11E60A6
:1025B0000A46521EFDD13E600A46521EFDD11E60E3
:1025C0000A46521EFDD198F81740A44654B13E6009
:1025D0000A46521EFDD11E600A46521EFDD1641EDF
:1025E000002CF4D1474C4FF00109C4F800903E6034
:1025F0000A46521EFDD11E600A46521EFDD13E60A3
:102600000A46521EFDD11E600A46521EFDD13E6092
:102610000A46521EFDD11E600A46521EFDD14FF0E1
:102620001F0ADFF8E0B0ABF1040BC20702D0CBF811
:10263000009001E0C4F800903E600A46521EFDD1B1
:102640001E600A46521EFDD14008AAF1010ABAF1E5
:10265000000FEAD198F81620A2EB0C02521E3AB3F2
:10266000C00702D0CBF8009001E0C4F800903446D7
:102670003E600846401EFDD11C600846401EFDD14C
:10268000521E52B13C600846401EFDD11C600846F7
:10269000401EFDD1521E002AF4D11A461D603C6036
:1026A0000846401EFDD114600846401EFDD110E0D2
:1026B0001D60C00702D0CBF8009001E0C4F8009084
:1026C00032463E600846401EFDD11A600846401E54
:1026D000FDD13E600846401EFDD11E600846401EEA
:1026E000FDD13D603E600846401EFDD11E60491E82
:1026F000FDD1CBF80090BDE8F08F0000100C014038
:10270000701500201408014008B51E48416941F0C9
:1027100001014161406900F0010000901B481A4925
:1027200001604FF480414160402181608021C1609F
:102730000021016141618161C161FEF74DFE00220E
:1027400011460C20FEF796FF0C20FEF785FF0022B5
:1027500011460D20FEF78EFF0D20FEF77DFF0022B3
:1027600011461020FEF786FF1020FEF775FF0022AD
:1027700011461120FEF77EFFBDE808401120FEF74C
:102780006BBF00000010024008000240A8120020A9
:102790002DE9F04F85B00024019402940394049431
:1027A0003048816941F010018161816901F01001B7
:1027B0000091816941F020018161816901F020016E
:1027C0000091816941F004018161816901F0040196
:1027D0000091816941F008018161806900F0080081
:1027E0000090DFF884904FF4C04500222946484607
:1027F000FEF71CFFDFF874A04FF4887700223946FB
:102800005046FEF713FFDFF868B041F60448002297
:1028100041465846FEF70AFF0195012502950394AB
:102820000226049601A94846FEF708FE0197029584
:102830000394049601A95046FEF700FE0320019080
:102840000294039401A95846FEF7F8FDCDF80480E0
:1028500002950394049601A95846FEF7EFFD05B0D2
:10286000BDE8F08F00100240001001400008014058
:10287000000C014010B510480E4901604FF4827100
:10288000416000218160C160016141614FF40072CB
:1028900082610822C2610162416281620A21C162D1
:1028A000FEF72EFF054908B10220087001200870CC
:1028B00010BD000000300140F41300200300002090
:1028C0000B480A4901604FF4827141600021816028
:1028D000C160016141614FF400728261C1610162B6
:1028E000416281620A21C162FEF70ABF00380040DE
:1028F0004C1400200848074901604FF4E131416061
:1029000000218160C16001610C2242618161C1616D
:10291000FFF7B0B800380140EC1200200848074922
:1029200001604FF4E131416000218160C1600161CB
:102930000C2242618161C161FFF79CB800440040F4
:102940002C130020FEE7704710B505220D493020FA
:1029500000F040F90B4905220A31102000F0DCF8A4
:102960000020084A02F10A01145C0B5CA34203D167
:10297000401CC0B20528F7D3052801D0012010BDA6
:10298000002010BD0A00002070B5072000F0E8F814
:102990000446600614D5602000F0E2F802460026E6
:1029A0000E4D212A07D20E49612000F0B5F8012012
:1029B0002870AE8004E02E70FF21E22000F02EF996
:1029C000E00605D5E00703D0FF21E12000F026F95D
:1029D0002146BDE87040272000F020B90400002007
:1029E0002C15002009498888401C80B2888001236A
:1029F000012803D14A78521C4A708B70B0F5FA7FD7
:102A000002D38B80002088708878704704000020F3
:102A10002DE9F04104460D463D4F4FF480760022EB
:102A200031463846FEF702FE05223A492A2000F0D8
:102A3000D1F838490522491F302000F0CBF8012198
:102A4000212000F0EBF80121222000F0E7F81A2104
:102A5000242000F0E3F82946252000F0DFF80F21BC
:102A6000262000F0DBF8012C24D0022C2BD0032CE4
:102A700032D00E21202000F0D1F8FF21E12000F01B
:102A8000CDF8FF21E22000F0C9F8502000F074F9E1
:102A9000732000F071F901213C2000F0BFF80621FD
:102AA0003D2000F0BBF831463846BDE8F041012238
:102AB000FEF7BCBD4121312000F0B0F80F212020ED
:102AC00000F0ACF8EFE74121312000F0A7F80E212B
:102AD000202000F0A3F8E6E7FF21E12000F09EF8B7
:102AE000FF21E22000F09AF80F21202000F096F854
:102AF000502000F041F9732000F03EF901213C2004
:102B000000F08CF806213D2000F088F8CBE70000AB
:102B1000000801400F0000202DE9F04104460D4659
:102B20001646DFF83880002210214046FEF77EFD71
:102B3000204600F021F90746002405E0002000F0BF
:102B40001BF92855641CE4B2B442F7D301221021CA
:102B50004046FEF76BFD3846BDE8F08100080140B5
:102B600070B50546094C002210212046FEF75EFD97
:102B7000284600F001F9002000F0FEF80546012289
:102B800010212046FEF752FD284670BD0008014086
:102B90002DE9F04107460E460C4D4FF4807400229B
:102BA00021462846FEF742FD052209492A2000F069
:102BB00011F832463946A02000F00CF8214628468C
:102BC000BDE8F0410122FEF731BD000000080140E0
:102BD0000A0000202DE9F04104460D461646DFF8B4
:102BE0003880002210214046FEF720FD204600F0EC
:102BF000C3F80746002404E0285D00F0BDF8641C1B
:102C0000E4B2B442F8D3012210214046FEF70EFD93
:102C10003846BDE8F08100000008014070B5064666
:102C20000D460A4C002210212046FEF7FFFC3046DC
:102C300000F0A2F80646284600F09EF80122102176
:102C40002046FEF7F3FC304670BD0000000801404E
:102C50002DE9F04186B0002404941D48816941F0BB
:102C600010018161806900F010000190194940F65F
:102C70000160086040F2016002900126039603257E
:102C80000595DFF8508002A9A8F110084046FEF72C
:102C9000D5FBF0020290112703970496059502A92F
:102CA0004046FEF7CBFB0220029003940494059566
:102CB00002A94046FEF7C2FB7003029003970494FA
:102CC000059502A90448FEF7B9FB06B0BDE8F081FE
:102CD00000100240100C0140001001402DE9FF419E
:102CE0000024029418494FF4606008604FF4C060FB
:102CF00000900127019703250395DFF84C80694672
:102D0000A8F110084046FEF799FBF8020090112642
:102D100001960297039569464046FEF78FFB40F601
:102D20000300009001940294039569464046FEF723
:102D300085FB780300900196029403956946034849
:102D4000FEF77CFBBDE8FF81100C01400010014044
:102D5000704738B504460B46009200228021204679
:102D600000F01CF828B1606D40F020006065032081
:102D700038BD002038BD00003EB50190FF2401237E
:102D800002AA01A904480094FEF782FD00B1029452
:102D90009DF808003EBD0000F41300202DE9F0412D
:102DA00004460E4617461D46DDF8188008E0681CEC
:102DB00006D0FEF743FCA0EB0800A8420BD255B1A9
:102DC0002068806836EA00002FD00020B842EED19B
:102DD0000020BDE8F0812068416821F0E0014160F9
:102DE0006068B0F5827F0BD1A068B0F5004F02D0CB
:102DF000B0F5806F04D12068016821F040010160C6
:102E0000A06AB0F5005F09D12068016821F4005183
:102E100001602068016841F40051016001205034D4
:102E20006070002020700320D3E70120CEE77047B8
:102E3000034A5278002A01D000F004B800F05EB9CD
:102E4000701500202DE9F34F85B00546A94E4FF4CB
:102E50000079C6F8009006F104083715C8F800702C
:102E60003760E80702D0C6F8009001E0C8F800908B
:102E7000C8F80070376029466808C20702D0C6F853
:102E8000009001E0C8F80090C8F800703760014475
:102E9000A808C20702D0C6F8009001E0C8F8009068
:102EA000C8F8007037600144E808C20702D0C6F8CD
:102EB000009001E0C8F80090C8F80070376008443E
:102EC000C00702D0C6F8009001E0C8F80090C8F82A
:102ED000007037604FF0000AC8F80090C8F8007022
:102EE0003760C6F80090C8F800703760CDF808A0C9
:102EF000CDF80CA0CDF804904FF0020BCDF810B037
:102F00007C4801A91038FEF799FA7B48007D0146FC
:102F100028B1C8F800703760401E0028F9D1C8F801
:102F20000070DFF8D0E1AEF1080EDEF80000C0F36B
:102F300040203760C8F80070DEF80020C2F340225D
:102F4000376040EA4200C8F80070DEF80020C2F3A3
:102F50004022376040EA82044FF0010C012C1ED061
:102F6000022C71D0042C6FD0213129B1C8F8007027
:102F70003760491E0029F9D1CDF80CA0CDF8049096
:102F8000CDF808C0CDF810B05A4801A91038FEF7A6
:102F900055FAC6F80090E0B207B0BDE8F08FA80778
:102FA00035D5002200212020C8F80070DEF800305E
:102FB000C3F3402337601944520842EAC372401EEB
:102FC0000028F1D1C8F80070DEF80000400A376030
:102FD0004140C80700D00824069808B1069802604E
:102FE0004548007D28B1C8F800703760401E0028B1
:102FF000F9D1CDF80CA0CDF80490CDF808C0CDF8EB
:1030000010B03C4801A91038FEF718FA31E029B198
:10301000C8F800703760491E0029F9D1CDF80CA01E
:10302000CDF80490CDF808C0CDF810B0314801A912
:103030001038FEF703FA0698006800222021C30723
:1030400003D0C6F8009002E022E0C8F80090C8F86B
:103050000070376002444008491E0029EFD1D007B4
:1030600002D0C6F8009001E0C8F80090C8F80070DF
:1030700037602148007A38B1C8F80090C8F800706D
:103080003760401E0028F9D1C6F80090E0B283E70F
:10309000194A507D40B1A80706D52120C8F8007014
:1030A0003760401E0028F9D129B1C8F80070376098
:1030B000491E0029F9D1CDF80CA0CDF80490CDF827
:1030C00008C0CDF810B00B4801A91038FEF7B6F9CA
:1030D0000948407D50B1A80708D4C8F800902120C5
:1030E000C8F800703760401E0028F9D1C6F800907B
:1030F000E0B251E7100C0140701500202DE9F34FAC
:1031000085B006460022F54C4FF40079C4F80090D3
:1031100004F104082715C8F80070F14D68680146ED
:10312000491EFDD127600146491EFDD1F10702D09D
:10313000C4F8009001E0C8F80090C8F8007001469B
:10314000491EFDD127600146491EFDD19319720821
:10315000D10702D0C4F8009001E0C8F80090C8F888
:1031600000700146491EFDD127600146491EFDD170
:103170001344B208D10702D0C4F8009001E0C8F8A7
:103180000090C8F800700146491EFDD12760014635
:10319000491EFDD11344F208D10702D0C4F80090B3
:1031A00001E0C8F80090C8F800700146491EFDD142
:1031B00027600146491EFDD19918C90702D0C4F8FD
:1031C000009001E0C8F80090C8F800700146491E60
:1031D000FDD127600146491EFDD18A46C8F80090FE
:1031E000C8F800700146491EFDD127600146491EFE
:1031F000FDD1C4F80090C8F800700146491EFDD109
:103200002760401EFDD1CDF808A0CDF80CA0CDF868
:1032100004904FF0020BCDF810B0B04801A910385F
:10322000FEF70CF92A7D11000CD06B68C8F800700D
:103230001846401EFDD127601846401EFDD1521E83
:10324000002AF3D1C8F8007068680246521EFDD10A
:10325000DFF888C2ACF1080CDCF80020C2F3402291
:10326000276003465B1EFDD1C8F8007003465B1E55
:10327000FDD1DCF80030C3F3402327608646BEF161
:10328000010EFCD142EA4303C8F800700246521E08
:10329000FDD1DCF80020C2F34022276005466D1EF8
:1032A000FDD143EA8205012D24D0022D71D0042DD9
:1032B0006FD0213159B1C8F800700246521EFDD1BD
:1032C00027600246521EFDD1491E0029F3D1CDF8D8
:1032D0000CA0CDF8049001200290CDF810B07F48EA
:1032E00001A91038FEF7AAF8C4F80090E8B207B0B8
:1032F000BDE8F08FB2074DD54FF0000E002320221D
:10330000C8F800700146491EFDD1DCF80010C1F379
:10331000402627600146491EFDD133444FEA5E0135
:1033200041EAC67E521E002AEAD13A46C8F8007029
:103330006B4E0146491EFDD1DCF80010C1F340215F
:103340002260401EFDD14B40D80700D008250698CA
:1033500010B10698C0F800E0337D63B17668C8F814
:1033600000203046401EFDD122603146491EFDD16D
:103370005B1E002BF3D1CDF80CA0CDF804900120FA
:103380000290CDF810B0554801A91038FEF756F854
:1033900047E05CE059B1C8F800700246521EFDD10A
:1033A00027600246521EFDD1491E0029F3D1CDF8F7
:1033B0000CA0CDF8049001200290CDF810B0474841
:1033C00001A91038FEF73AF8069800684FF0000C93
:1033D000202643494B68C10702D0C4F8009001E0A1
:1033E000C8F80090C8F800701946491EFDD1276042
:1033F0001A46521EFDD184444008761E002EEAD1A2
:103400005FEACC7002D0C4F8009001E0C8F80090E8
:103410003946C8F800701846401EFDD121605B1E79
:10342000FDD12F48017A71B1C8F800904268C8F800
:1034300000701046401EFDD127601046401EFDD191
:10344000491E0029F3D1C4F80090E8B24FE7DFF835
:1034500090C09CF8152072B1B2070CD52123C8F892
:1034600000700246521EFDD127600246521EFDD159
:103470005B1E002BF3D159B1C8F800700246521EF2
:10348000FDD127600246521EFDD1491E0029F3D10D
:10349000CDF80CA0CDF8049001200290CDF810B02A
:1034A0000E4801A91038FDF7C9FF0D48417D89B1CB
:1034B000B1070FD4C8F8009021214268C8F8007005
:1034C0001046401EFDD127601046401EFDD1491E0A
:1034D0000029F3D1C4F80090E8B208E7100C0140CD
:1034E000701500202DE9F04100220023134C124FEB
:1034F0004FF40076A7F1040C4FF48068656815E07E
:1035000013B911F8012B0823D40702D0CCF80060BE
:1035100000E03E60C7F800802C46641EFDD1CCF868
:1035200000802C46641EFDD152085B1E401E441CC8
:10353000E6D1BDE8F0810000140C014070150020B8
:10354000AFF300800CB5002201920092254801687B
:1035500041F480310160016801F40031009101996A
:10356000491C019100990029F5D00168890302D511
:103570000121009100E000920099012930D11A49FF
:103580000A6842F010020A600A6822F007020A6024
:103590000A6842F004020A60416841604168416083
:1035A000416841F480614160416821F47C114160CF
:1035B000416841F4E8114160016841F080710160A7
:1035C00001688901FCD5416821F00301416041682F
:1035D00041F0020141604168C1F381010229FAD141
:1035E0000CBD00000010024000200240FEF72CB885
:1035F00010B50F48016841F00101016041680D4AB2
:103600001140416001680C4A11400160016821F4D9
:1036100080210160416821F4FE0141604FF41F01E7
:103620008160FFF78DFF05494FF00060086010BD15
:10363000001002400000FFF8FFFFF6FE08ED00E07A
:103640002DE9F041044620680169E26821F4405107
:1036500011430161A1682069014360690143206849
:10366000C26841F20C639A430A43C2602068416910
:10367000A26921F4407111434161354920686425F4
:103680003226884232D1FEF72BF800EBC00101EB65
:10369000001061686FF018078900B0FBF1F2B2FB0F
:1036A000F5F2B0FBF1F37A4303EB8202B0FBF1F3E6
:1036B00006EB0212B2FBF5F2B3FBF5F302F0F002F7
:1036C00002EB0312B0FBF1F3B0FBF1F0B0FBF5F04D
:1036D000784303EB800006EB0010B0FBF5F02168A7
:1036E00000F00F0010448860BDE8F081FDF7E8FFAE
:1036F00000EBC00101EB001061686FF01807890052
:10370000B0FBF1F2B2FBF5F2B0FBF1F37A4303EB5D
:103710008202B0FBF1F306EB0212B2FBF5F2B3FB4F
:10372000F5F302F0F00202EB0312B0FBF1F3B0FB91
:10373000F1F0B0FBF5F0784303EB800006EB0010EE
:10374000B0FBF5F0216800F00F0010448860CBE773
:103750000038014070B5074E074C47F6FF7505E08D
:10376000258001F00F01304600F086FD2188080415
:10377000F6D470BDB0160020445C00402DE9F04145
:103780001F4F204D47F6FF7605E02E8004F00F0115
:10379000384600F071FD2C882004F6D4DFF86880EC
:1037A00060054FF000060BD54FF6FF30288008F17A
:1037B00004000680384601F001F88020A8F80000D7
:1037C000200511D54FF2FF702880B8F800004006A0
:1037D00007D0A8F800600B48001F018821F40061A1
:1037E0000180384600F030FCE00405D54EF6FF704D
:1037F0002880384600F01CFC2E80BDE8F0810000D7
:10380000B0160020445C00404C5C0040FEE7090715
:10381000090E002804DB00F1E02080F80014704756
:1038200000F00F0000F1E02080F8141D704702E066
:1038300008C8121F08C1002AFAD17047704700203B
:1038400001E001C1121F002AFBD1704710B54B786F
:10385000042B37DD202B06D0212B17D0222B28D08C
:10386000232B2FD12AE011785378D47841EA032111
:1038700093781B0443EA0463194340F82C1F117921
:10388000017151794171917981711BE010F82C1F00
:1038900011700188090A51700168090C9170016862
:1038A000090ED1700179117141795171807990714E
:1038B00008E0026A32B14988904703E0426A0AB1DF
:1038C00049889047002010BD38B504466268A08C36
:1038D000116881420CD9516851F820500C3204F122
:1038E00020012846FFF7B2FFE96909B12846884759
:1038F00000200346024601460090204600F0C6FF25
:1039000038BD704701488260012070478411002053
:1039100010B5417A006801F089F8002010BD70B53B
:103920000C46DDE9045116461A46258122608D4277
:1039300000D90D462B46314600F01EFF608A401C20
:1039400060822068284420602089401B2081E58116
:1039500070BD000070B5054601F01EFA084C2169E3
:1039600041F0020121616561206940F04000206161
:1039700001F012FA206920F00200206170BD000001
:103980000020024004480169090603D5034941604B
:103990000349416070470000002002402301674551
:1039A000AB89EFCD2DE9F04105460F461446A00541
:1039B00000D0FEE70C48016819B901210160FFF74A
:1039C000E1FF4FF480660BE02846FFF7C3FF324665
:1039D0003946284601F0F2F9A4F5806405F58065C2
:1039E000B442F1D2BDE8F08190110020F8B5044650
:1039F0006368A08C196881420DD9596851F820007C
:103A0000C16841B1618CCAB2090A45691DB1E68C31
:103A10000C330096A847002003460246014600905A
:103A2000204600F033FFF8BD10B511460348416051
:103A30000348FEF7D5F8012010BD000084110020D6
:103A40004017002010B5417A006800F0EFFFFEF744
:103A5000E1F8002010BD000070B50446344B198811
:103A600047F27000014043F22002514048F28025A5
:103A7000294319802F4968230B8028230B81222595
:103A80008B896FF3090365F38F238B81284D2D1DDF
:103A90002B8848F281060340534033432B80C823D0
:103AA0000B82A8230B8310258B8B6FF3090365F31F
:103AB0008F238B831E4B08331D8848F28266054096
:103AC000554035431D804FF494730B84E8230B85D8
:103AD00022258B8D6FF3090365F38F238B85144D9E
:103AE00010352B880340534048F2840003432B8059
:103AF0004FF4D470A1F840004FF4B470A1F848001E
:103B00002222B1F84C006FF3090062F38F20A1F874
:103B10004C00882104F10800FCF73FFB0020A08145
:103B20000548A0610548E0610548C4F88C0070BDF7
:103B3000005C0040006000401D4F0008184F000866
:103B4000244F000810B5002305E0DC0021FA04F43E
:103B5000C4545B1CDBB29342F7D310BD08B5002000
:103B600000F042FC04461749204600F026FF20469C
:103B700000F0AEFDFCF767FFFDF7C0FAFEF7BAFEF6
:103B8000FEF7CCFEFEF7E0FE0F49087018B93321AE
:103B90000320FEF73DFF00260C4C80270C4D07E06C
:103BA000009783B2297A0B4A286800F06FFE2660DE
:103BB000FEF7EAFEFEF716FF01F04EF82068002837
:103BC000F6D0EDE718110020000000208C11002035
:103BD000640000208017002070B515460498840208
:103BE0000448224600EB83212846FCF7BDFA204614
:103BF00070BD00000060000810B5114602988402F4
:103C00000348224600EB8320FFF7CCFE204610BD80
:103C1000006000084FF480601860282010600020C9
:103C2000704770B504460D461346617A2A462068EF
:103C300000F0F1FE617A2068BDE8704000F0F6BE49
:103C40002DE9FF41FDF75AFA0024029419494FF477
:103C5000606008604FF4C060009001270197032561
:103C60000395DFF850806946A8F110084046FDF73B
:103C7000E5FBF8020090112601960297039569462C
:103C80004046FDF7DBFB40F60300009001940294F0
:103C9000039569464046FDF7D1FB780300900196F5
:103CA0000294039569460448FDF7C8FB04B001205F
:103CB000BDE8F081100C014000100140F8B5002073
:103CC0000090002464252349401E08604860FFF7E7
:103CD000B7FFFDF7A1FF90B11E21002000F050F9C1
:103CE00078B10021082000F04BF960B14FF0A041FD
:103CF000042000F045F940B14FF0204611E00020CB
:103D0000F8BD0020F8BD0020F8BD0020F8BD6946D0
:103D1000042000F023F850B1009936EA010002D0E7
:103D2000641CAC42F3DBAC4203D10020F8BD0020A0
:103D3000F8BD0949042000F023F930B10021082022
:103D400000F01EF918B10120F8BD0020F8BD0020D8
:103D5000F8BD000020000020000F005038B50C46D0
:103D600000F00C00801C694600F055F8002222602B
:103D70009DF8031042EA016121609DF8022041EAAA
:103D8000024121609DF8012041EA022121609DF855
:103D9000002011432160012800D0002038BD1CB54F
:103DA00004460020019001A90820FFF79BFB69460B
:103DB0000020FFF7D3FF012801D000201CBD9DF893
:103DC00000009DF803109DF8012040EA01609DF875
:103DD0000210090441EA02210843206001201CBDB1
:103DE0001CB500206A46FF211154401CC0B20828AF
:103DF000FAD369463320FFF775FB01201CBD08B5D7
:103E00008DF80000000A8DF8010069461020FFF7C8
:103E100069FB012008BD70B505460E4600243146F9
:103E20002846FFF705F8022803D1641CE4B20A2CE7
:103E3000F5D370BD38B504460D4604F07F4104F05B
:103E4000F0000143082000F09BF808B14CB901E0F4
:103E5000002038BD0F484168A94201D1012038BD7A
:103E6000456004F00C04641C042229466846FFF7F0
:103E700069FE69462046FFF7CEFF012801D00020E9
:103E800038BD0E200021FFF7C6FF0128F8D0002022
:103E900038BD000020000020F8B507460D46002A76
:103EA00013D0960816490020FFF7C4FF78B1052407
:103EB000042239466846FFF745FE69462046FFF76B
:103EC000AAFF012805D00020F8BD0020F8BD002081
:103ED000F8BD0D27002409E029463846FFF79BFF6F
:103EE000012801D00020F8BD2D1D641CB442F3D37D
:103EF0000E200021FFF78FFF0128F4D00020F8BD2D
:103F00005200002370B505460C4609490020FFF712
:103F100091FF48B1A807C00E04FA00F1284600F04E
:103F200009F818B1012070BD002070BD002070BDDF
:103F30005000002338B50C46014604226846FFF7BE
:103F400001FE05206946FFF766FF012801D0002029
:103F500038BD042221466846FFF7F4FD0D2069466E
:103F6000FFF759FF012801D0002038BD0E200021A5
:103F7000FFF751FF012801D0002038BD012038BDD6
:103F800038B5082806D10A4A13688B4201D10120AE
:103F900038BD116000F00C0404226846FFF7D2FD22
:103FA00069462046FFF737FF0128F1D0002038BDD1
:103FB000200000202DE9F04105460E46144607E09A
:103FC00031782846FFF79EFF40B16D1C761C641EB9
:103FD0000CB1A807F4D1DFF8548014E00020BDE84C
:103FE000F081D8F80000411E2940471ABC4201D296
:103FF00024F003073A4631462846FFF74DFF28B123
:104000003D443E44E41B032CEBD809E00020E6E7E6
:1040100031782846FFF776FF30B16D1C761C641EA0
:10402000002CF5D10120DAE70020D8E71C000020A1
:104030000448018821F0040101804FF41C410180F3
:1040400070470000405C00400448018841F00801CE
:104050000180018841F0040101807047405C00400C
:1040600010B50446208B617A83B26269206800F043
:10407000D2FC617A206800F0D9FC0020E072A07ABE
:1040800038B1042805D821684968401E01EB80003A
:10409000C464002010BD30B411461A46C468002C18
:1040A00002D0A44630BC604730BC002070470000FE
:1040B000F8B50D46046862682978C1F34113012BF5
:1040C00001D00020F8BDEB88F3B1090613D50C32FE
:1040D00016462946FFF7BAFBEB88E08C834201D0F5
:1040E000802000E00020009032460021204600F0B1
:1040F000CDFB0120F8BD0C320021204600F08BFCE6
:10410000084860610120F8BD0C322946FFF79EFB8C
:1041100000200346024601460090204600F0B6FB10
:104120000120F8BDC9380008027A8A4202D101692B
:1041300029B10847827A8A4201D10021C172002048
:1041400070474068002811D00A7802F00302012A63
:104150000CD18A880368934208D9406850F822003D
:1041600020B1426812B1526802B110470020704776
:10417000F0B501F07F0048F2C0064CF280054BF626
:104180008F7448F2800348F68F7200281DD00F0606
:104190004FEA4160234901EBD0502ED5B0F8001C06
:1041A000490605D5B0F8001C11403143A0F8001CA9
:1041B000B0F8001C48F6BF72114081F0100181F088
:1041C00020011943A0F8001CF0BD174801884906DA
:1041D00003D501881140314301800188490403D58A
:1041E00001881140294301800188214081F48051D8
:1041F00081F4005119430180F0BDB0F8001C49045E
:1042000005D5B0F8001C11402943A0F8001CB0F8F7
:10421000001C214081F4805181F400511943A0F821
:10422000001CF0BD00500040005C0040002204E093
:104230000021491CC829FCD3521C8242F8D3704784
:104240000B48816941F0040181610A48016841F429
:1042500080210160016821F400210160016841F4BE
:10426000403101600349801410310860704700003C
:1042700000100240040801402DE9F04180460E463E
:104280001F4800EB8605B5F8004C20040AD540F61F
:104290008F77A6B104EA0700A5F8000C3146404626
:1042A00000F0A2FA200628D548F60F700440A5F8C1
:1042B000004C31464046BDE8F04100F027BB2005E8
:1042C00008D508F12001404600F072FA404600F09F
:1042D000F5FB03E03146404600F086FA094804EA5F
:1042E000070101804BF68F7204EA020181F440510C
:1042F00048F2800211430180D4E7BDE8F08100005C
:1043000000500040005C0040F8B504460E46002115
:1043100000257088020A082A46D2DFE802F0450428
:104320000A1045451C38D4F88C00016871B30D782B
:104330003AE0D4F88C00416841B34D8834E0C0B213
:10434000D4F88C20D36883422ED9916851F820107C
:10435000E1B10D7828E021680A2008702168062064
:104360004870D4F88C1020680968D1F80220C0F891
:104370000220C988C180D4F88C0021680068407C84
:1043800008722168002048720A2521680CE0D4F8E0
:104390008C00416801B14D8820682A46FBF7E4FE95
:1043A0002168072048702168C1B1F088A84200D870
:1043B00005462068884203D02A46FBF7D5FE2168CF
:1043C000E08CA84201D0802000E000200A46009046
:1043D0002B460021204600F059FAF8BD2046BDE8E2
:1043E000F840002100F03ABB024800F580710860F7
:1043F00008467047B015002010B50446A08C617ABD
:1044000083B2226A206800F006FB617A2068BDE86A
:10441000104000F00BBB30B411461A46C468002CA3
:1044200002D0A44630BC604730BC0020704700007A
:10443000F8B5046865680A7802F00303012B27D1F8
:104440004B78062B24D14B882226B6EB132F1FD195
:10445000038E9FB2866ADEB1D7B1C888B84200D851
:1044600007462068B04204D03A463146FBF77CFE4E
:104470002668E08CB84201D0802000E00020009047
:104480003B4632460021204600F000FA0120F8BDEC
:10449000C2F34112012A01D00020F8BD4A7800265B
:1044A0000C2A73D2DFE802F07253163872727272FD
:1044B000724806294988090A80F83410C16901B197
:1044C000884700231A4619462046009600F0DEF978
:1044D0000120F8BD90F834002873E08C012801D049
:1044E000802000E000200090012305F10C02002153
:1044F000204600F0CBF90120F8BD897880F835100E
:10450000C16901B1884700231A4619462046009622
:1045100000F0BCF90120F8BDE08C012801D080201A
:1045200000E000200090012305F10C02002120464C
:1045300000F0ACF90120F8BDCB8805F10C02002198
:10454000204600F068FA124860610120F8BD628CD4
:1045500002F0FF0C170A002386693EB1C98800915A
:1045600005F10C0362463946B04783B2E08C9842AD
:1045700001D0802000E00020009005F10C02002115
:10458000204600F083F90120F8BDFFE70020FBE79B
:10459000ED3900080169002900D008470020704764
:1045A00010B504461F2204F128012046FFF739FB0D
:1045B00041F25E0000210155206A002806D0016802
:1045C000002903D02046BDE81040084710BD30B494
:1045D00011461A4641F258031A52C468002C02D000
:1045E000A44630BC604730BC0120704738B5044653
:1045F000206842680878C0F34113012B04D14B783E
:10460000FE2B03D0FF2B19D0002038BD4B889BB95F
:10461000C988012910D100060ED5A07A1073206830
:10462000C18C012901D0802100E0002100910123EB
:104630000C32002100F02AF9012038BD4A884AB91D
:10464000C98839B9000605D4206A18B1416809B192
:10465000204688470020002300901A46194620680B
:1046600000F014F9012038BD10B500F580515A3121
:104670004A880A800169002900D08847002010BDBF
:1046800030B440684C060DD001F07F04641E00EB8E
:104690008400C06D30B1446824B1E46814B1A4460C
:1046A00030BC604730BC0020704740684A060ED0DE
:1046B00001F07F02521E00EB8200C06C002806D081
:1046C0004268002A03D09268002A00D01047704741
:1046D00010B5FFF7B5FD1420FFF7A8FD154AD06906
:1046E00040F40000D061144B0120188000241C808D
:1046F000181D01884905FCD504800F48103004803E
:104700004FF41C401880906940F0040090610B4801
:10471000016841F480210160016821F400210160F9
:10472000016821F44031016005494FF480100860B0
:1047300010BD000000100240405C00400408014031
:1047400000E100E030B58888C0F309000988094B12
:10475000490803EB8101431C5D08002306E031F8A2
:10476000044B1470240A5470921C5B1CAB42F6D3A9
:1047700030BD00000060004030B5581C4508088876
:104780000A4C400804EB8004888863F309008880A1
:10479000002008E01178537841EA0321921C24F8A4
:1047A000041B401CC0B2A842F4D330BD00600040DE
:1047B0000A460149FFF7C6BF0860004070B545686A
:1047C000002D10D0A9688847002409E0686850F8D7
:1047D000240020B1416811B1096801B18847641C07
:1047E0002868A042F2D870BD2DE9F04706460D4674
:1047F00005EB850006EB80042834224800EB850990
:10480000B9F8008C204800EB0517606800281FD01D
:10481000F7B1A189421839463046FFF793FFB988AE
:104820006FF30901B980A18901448BB2A381B169F9
:10483000495D814202D16089834209D30027C5B115
:10484000294630466268FFF71BFFC8B16089A08126
:10485000A089618988420AD24BF68F7008EA000865
:1048600088F4405048F280010843A9F8000CBDE8E4
:10487000F087716911B13046884777616760E7E773
:10488000A781E5E700500040086000402DE9FC41A9
:104890001746089A0C461B4901EB8406B6F8005CE3
:1048A00004EB840100EB810128314FEAD21C0A8A13
:1048B0006CF300020A820A894FF0FF3C002A02D002
:1048C0006046BDE8FC81C5F30112022A01D06046B2
:1048D000F7E700224A82C269125DCDE900320A4A36
:1048E0003B4602EB0412FFF71AF848F6BF7005408A
:1048F00085F0300048F280010843A6F8000C002043
:10490000DFE7000000500040006000402DE9FC415E
:1049100004460B4603EB830004EB800128311E485C
:1049200000EB8305B5F8000C00264E821B4800EB17
:1049300003120889002809D10F7CFF071ED0D4F884
:104940001CC0CF891CF803C0674517D1E669F35C2A
:10495000CDE9000320460B68FEF7E1FFB5F8000C37
:1049600048F6BF71084080F0100080F0200048F247
:1049700080010843A5F8000CBDE8FC812BB1194665
:104980002046BDE8FC41FFF790BE21690029F3D025
:10499000204688472661EFE7005000400060004055
:1049A000017A002905D0034A41F0800111800021DD
:1049B000017270474C5C0040704710B50022CA6419
:1049C0000A654A658A65CA650A664A668A66002378
:1049D0001CE04A6852F82320BAB11468844200D01F
:1049E0001060147A3CB104F07F04042C03D8641ED8
:1049F00001EB8404E264547A3CB104F07F04042C9B
:104A000003D8641E01EB8404E2655B1C0A689A42C9
:104A1000DFD8416010BD01EB810100EB8100C26273
:104A20004386002181860020704700000A4A02EB7D
:104A30008102B2F8003C01EB810100EB8100002112
:104A400081864BF68F70034083F4405048F280011A
:104A50000843A2F8000C70470050004010B501F068
:104A60007F0048F6BF7348F2800200280FD00C0682
:104A70004FEA41600F4901EBD05010D5B0F8001C4F
:104A8000194081F010011143A0F8001C10BD0A4923
:104A90000888184080F010001043088010BDB0F85E
:104AA000001C4BF68F73194081F480511143A0F81C
:104AB000001C10BD00500040005C004070B5054671
:104AC00005F1200421462846FFF73BFB002805D1CD
:104AD00021462846BDE8704000F002B870BD0000D5
:104AE00038B504464A78002559480C2A7ED2DFE8BA
:104AF00002F01A84A95EA90615A92A3A44548878B6
:104B000020722046FFF758FF5248206100231A46C2
:104B1000194620460095FFF7B9FE38BD2046BDE88E
:104B20003840FFF7F1BBA1890160E08C022801D079
:104B3000802000E0002000900223454A002120460A
:104B4000FFF7A4FE38BD617A0160E08C012801D036
:104B5000802000E00020009001233D4A00212046F3
:104B6000FFF794FE38BD8878607200231A46194614
:104B700020460095FFF78AFE38BDA17A0160E08CDF
:104B8000012801D0802000E0002000900123304A5D
:104B900000212046FFF77AFE38BD8878A0720023F6
:104BA0001A46194620460095FFF770FE38BD087872
:104BB00000F00300022803D0488801280AD016E03C
:104BC000097901F07F00052811D22046BDE8384060
:104BD000FFF744BFE07A40F00100E07200231A467C
:104BE000194620460095FFF751FE38BD2AE02046C1
:104BF000BDE838400021FFF731BF087800F003001E
:104C0000022803D0488801280AD015E0097901F06C
:104C10007F00052810D22046BDE83840FFF7A8BA2B
:104C2000E07A20F00100E07200231A46194620467F
:104C30000095FFF72BFED8E72046BDE8384000215D
:104C4000FFF70CBF2046BDE838400021FFF706BF44
:104C500028000020A14900082DE9F041484C494BAB
:104C60000026257818784849484A082D10D2DFE8F0
:104C700005F004101C27323C484F00287DD01E70E0
:104C80004248202242492038FBF76EFA012020706A
:104C900073E000203D4A203A135C0B54401CC0B224
:104CA0001E28F9D30220207067E0002865D01E700E
:104CB0001E2237493548FBF757FA032020705CE085
:104CC00000200D18135CAB77401CC0B21E28F8D32F
:104CD0000420207051E0E0B31E701E222C492B48A6
:104CE000FBF742FA0520207047E000200D18135C06
:104CF00085F83C30401CC0B20528F7D30620207050
:104D00003BE024492048FBF723FE0720207034E0D5
:104D100000201E491F4D20312A5C0A54401CC0B29D
:104D20001E28F9D319481E212030FDF731FFFCF76A
:104D30008CFA0020154F40372918897F3954401CC0
:104D4000C0B21E28F8D311481E214030FDF720FFC5
:104D500000E012E0FCF779FA0020291891F83C10E5
:104D60003954401CC0B21E28F7D3084805214030F2
:104D7000FDF70EFFFCF769FA26700020BDE8F08110
:104D80000200002004000020A41100204612002090
:104D90002C150020E51100204FF48010064902E098
:104DA000002803DD401ECA68D207F9D1C868800612
:104DB00001D52020C8607047002002402DE9F04155
:104DC00005460C461646FFF7E7FF0C4F386940F0E2
:104DD0000100386109E02078617840EA01202880EC
:104DE000FFF7DAFFB61EA41CAD1C022EF3D2386901
:104DF00020F001003861BDE8F08100000020024091
:104E00003939365F3939360012010002EF020140AC
:104E10008304110000010102030100000902820065
:104E2000040100806409040000020300000009215D
:104E30001101000122180007058203400001070547
:104E40000203400001080B010202020100090401F3
:104E500000010202010005240010010524010001E7
:104E6000042402020524060001070588031000013E
:104E700009040200020A0000000705810220000167
:104E80000705010220000109040300020806500082
:104E900007058402400001070504024000010000EC
:104EA000040309040E034B0053005F004400490053
:104EB0005900000022034B00530020003900390044
:104EC0003600200043004D005300490053002D00E0
:104ED000440041005000000018033900390036003A
:104EE0005F003900390036005F00390039003600B4
:104EF000A04E0008A44E0008B44E0008D84E00088A
:104F00000600FF0901A1010902150025FF7508959A
:104F100040810209039102C04020400040402040EF
:104F200000400000084E00081C4E0008F04E00082B
:104F30000400000061400008B14000082941000859
:104F400097400008F94300083144000895450008DF
:104F500017440008A1450008ED450008694600080F
:104F6000CF45000800000000010203048C4F000838
:104F700000000020A4110000D40100081C5000080B
:104F8000A4110020FC1500003E380008920114AA6C
:104F9000BBCC3A01059102120413444F24080202CB
:104FA00013293A1B084504C1134017432040192414
:104FB00041B2181A3414140101081305391B0811E1
:104FC000041A802C32201A030C01241A54409A042B
:104FD0009013153C1408D93B1B08F90401FF01FF8D
:104FE00001FF01FF01FF01FF01FF01FF01FF01FFC1
:104FF00001FF01FF01FF01FF01FF01FF0154222C0E
:105000001B206404411AA408320413081114205907
:0C5010003A02710835A24A040172100037
:0400000508000131BD
:00000001FF
