:020000040800F2
:10000000104B002045010008ED3E00080B300008B1
:10001000893E000839080008055700080000000064
:10002000000000000000000000000000A9450008DA
:100030008B1B000800000000A14400084952000882
:100040005F0100085F0100085F0100085F01000810
:100050005F0100085F0100085F0100085F01000800
:100060005F0100085F0100085F0100085F010008F0
:10007000191B0008251B0008311B00083D1B000848
:10008000491B0008551B00085F010008495600087D
:10009000715600085F0100085F0100085F01000859
:1000A0005F0100085F0100085F0100085F010008B0
:1000B0005F0100085F0100085F0100085F010008A0
:1000C0005F0100085F0100085F0100085F01000890
:1000D0005F010008A1550008F55500085F01000800
:1000E0005F0100085F0100085F0100085F01000870
:1000F0005F0100085F0100085F0100085F01000860
:100100005F0100085F0100085F0100085F0100084F
:100110005F0100085F0100085F0100085F0100083F
:100120005F0100085F0100085F0100085F0100082F
:10013000DFF80CD000F0D8F9004800472576000819
:10014000104B00200648804706480047FEE7FEE7C0
:10015000FEE7FEE7FEE7FEE7FEE7FEE7FEE7FEE777
:100160006D5200083101000840EA01039B0703D0EB
:1001700009E008C9121F08C0042AFAD203E011F8E6
:10018000013B00F8013B521EF9D27047D2B201E0A8
:1001900000F8012B491EFBD270470022F6E710B58C
:1001A00013460A4604461946FFF7F0FF204610BDE5
:1001B00030B505462A460B4612F8010B13F8014BE1
:1001C00008B1A042F8D01CB1002802D06D1CF1E7A4
:1001D000284630BD30B504460020034600E05B1CD5
:1001E000934203D2E05CCD5C401BF8D030BD0346A7
:1001F00011F8012B00F8012B002AF9D1184670479D
:100200002DE9FE4F81EA030404F0004421F000418F
:1002100000944FF0000B23F0004350EA01045ED03D
:1002200052EA03045BD0C3F30A54C1F30A552C44C9
:10023000A4F2F3340194A0FB0254C1F3130141F47E
:100240008011C3F3130343F4801301FB024400FB4A
:10025000034E840A970A44EA815447EA8357A4FB71
:10026000076802958D0A05FB07854FEA932C04FB6E
:100270000C542705029D4FEA065847EA1637B5EB9E
:1002800008056EEB070C870E920E47EA811742EACB
:100290008312A7FB0201B6EB0B0164EB00042B0DEC
:1002A00043EA0C335E1844EB1C50DA465146E7FB38
:1002B0000201C5F313044FEA0B3343EA14534FEA28
:1002C0000432019C43EA0603A4F10C040294009C4E
:1002D000CDE900B400F0BAF803B0BDE8F08F00201B
:1002E0000146F9E72DE9F04D81EA030404F0004BE3
:1002F00021F0004514464FF0000A23F0004150EA77
:10030000050220D054EA01021DD0C5F30A57024667
:10031000C5F31303C1F31300C1F30A5640F480156B
:1003200043F48013A7EB0608101BD64608F2FD38ED
:1003300073EB050002D308F1010801E092185B415C
:10034000B8F1000F03DA00200146BDE8F08D00206F
:100350004FF48011064684460EE0171B73EB050729
:1003600005D3121B63EB050306434CEA010C490855
:100370004FEA300092185B4150EA0107EDD152EA92
:10038000030012D082EA040083EA0501084305D085
:10039000101BAB4106D20122002306E000224FF0E1
:1003A000004302E06FF0010253101AEB06004CEB21
:1003B000085110EB0A0041EB0B01BDE8F04D00F0D5
:1003C00036B80EB540F2334102910021CDE900115B
:1003D0000A460B4600F03AF803B000BDC1F30A52DA
:1003E00010B5C1F3130140F2FF3341F480119A427A
:1003F00001DA002010BD40F233439A42A2F23342A8
:1004000003DC524200F003F810BD904010BD202ADA
:1004100004DB203A21FA02F00021704721FA02F3AE
:10042000D040C2F12002914008431946704710B5F0
:10043000141E73F1000408DA401C41F10001921807
:100440005B411A4301D120F0010010BD2DE9F04DB0
:1004500092469B4611B1B1FA81F202E0B0FA80F205
:100460002032904600F052F804460F4640EA0A0057
:1004700041EA0B0153465A46084313D0114653EA4A
:10048000010019D0C8F140025046FFF7C0FF0546F1
:100490000E4650465946424600F038F8084305D00B
:1004A000012004E020463946BDE8F08D00200543D8
:1004B00046EAE0762C4337430A986305E40AA0EB4A
:1004C00008000022FD0A44EA47540A3002D5002001
:1004D0000146E9E7010510196941DDE90845001900
:1004E0006941BDE8F04DA2E7064C074D06E0E06823
:1004F00040F0010394E8070098471034AC42F6D36B
:10050000FFF71AFEE4C4000804C50008202A04DB33
:10051000203A00FA02F1002070479140C2F1200316
:1005200020FA03F319439040704770B58C1810F807
:10053000015B15F0070301D110F8013B2A1106D128
:1005400010F8012B03E010F8016B01F8016B5B1E42
:10055000F9D12B0705D40023521E0DD401F8013B1D
:10056000FAE710F8013BCB1A921C03E013F8015B89
:1005700001F8015B521EF9D5A142D8D3002070BD0D
:100580002DE9FC5F07F0C0FE0826734D012400280A
:1005900075D0082371A218210020009403F074FE86
:1005A000CDE900640423A846EA7818216E2003F000
:1005B0002FFEA878DFF8B491012803D099F8000045
:1005C000092830D16A4FDFF8ACA1387800EB800100
:1005D0000AEB810068A1FFF7EBFD684E00250028BB
:1005E00056D03878012200EB80010AEB8101644883
:1005F00006F0CCFA28B103F07BFC082361A200943A
:1006000054E0387800EB80010AEB810002F0FEFC38
:1006100001280AD003F06CFC08235EA2102100948C
:10062000002003F031FEBDE8FC9F03F061FC0022D6
:100630004FF40051594802F04BF8A346584C00279C
:100640004FF0230A07EB470004EB80020AEB40005F
:10065000C0B20C231021CDF800B003F035FE7F1C92
:10066000FFB2082FEED34C464EA001F061FC38B12A
:1006700007F04AFE0028D6D088F80250D3E75CE0A5
:100680002078012855D007F03FFE0028ECD148E043
:100690003878BB4600EB80010AEB81010122384823
:1006A00006F074FA70B1082341A2009410210020D2
:1006B00003F0EAFD02B00122BDE8F05F51033748C4
:1006C00002F006B803F014FC00224FF40051334846
:1006D00001F0FEFF0027232401200090304907EBA2
:1006E000470001EB800204EB4000C0B20C23102154
:1006F00003F0EAFD7F1CFFB2082FEDD34C465746AE
:100700009BF8000000EB800007EB800001F010FC7C
:100710000028ADD1207801280BD007F0F5FD002886
:10072000EED103F0E5FB25700520307002207070DB
:100730009EE72570357075709AE7AC70CDE900645E
:100740000423EA7818216E2003F062FD08231CA21E
:100750001821009464E7000008000020436F6E6ECB
:1007600065637465642121210000000030000020D1
:1007700031000020FC1E00204845580034000020B5
:10078000DC0300204F70656E204845582066616983
:100790006C6564004572726F722121000010014087
:1007A0007C9A000877726974652E62696E00000099
:1007B0004F70656E2042696E206661696C656400E9
:1007C000446973636F6E6E65637465640000000056
:1007D0007047000001490120087070473000002078
:1007E000064810B54178012903D0002101704170FD
:1007F00010BD012080F3138805F07AF93400002041
:10080000704770470149022008707047300000208F
:100810000149092008707047300000207047704778
:10082000014903200870704730000020012080F348
:10083000138805F05DF97047FEE70000072903D033
:1008400000EB8100826270475FF0000100EB8103E2
:10085000491CC9B29A620729F8D370472DE9F041C3
:100860000C4605461F46164650212046FFF795FCCC
:10087000201D29462022002511F8013B00F8013BEC
:1008800033B3521EF8D100BF14F8240F20F00F002C
:10089000093020F0F000903020700920A07044F85A
:1008A000246C607867F301006070B04714F8011F92
:1008B00060F3830104F8251B074804F8025B4168D4
:1008C00044F84C194460BDE8F08100BF00F8015BBA
:1008D000521EFBD1D8E700003C00002070B5044652
:1008E00000688047694E0025707094F82510C1F3A8
:1008F0008102824228D094F84A20521CD2B284F855
:100900004A20022A20D360F3830184F8251084F85A
:100910004A5094F8240000F00F01092904D002295C
:1009200002D0010705D00FE020F00F0084F824006A
:100930000AE0317891B320F00F003570401C84F844
:100940002400042084F8260094F8240010F00F01FD
:1009500030D0012959D002291FD194F84910491CDF
:10096000C9B284F849100F2917D320F00F000930BD
:1009700020F0F000903084F8240000090DD084F8B5
:100980004950A16A09B12046884714F8240F20F085
:100990000F00093020F0F000207070BDFFE720F05C
:1009A0000F00401C84F82400E16A0029CCD02046C6
:1009B0008847C9E794F82500C0F3810100F00300DF
:1009C0008142EAD184F8265094F84B00401CC0B212
:1009D00084F84B003228E0D394F84800401C10F013
:1009E000FF0084F8480008D084F84850032084F8B9
:1009F0002600616B09B12046884794F84B00FF2818
:100A0000CBD1322084F84B00C7E794F8261081B18F
:100A1000032931D00429C0D120F00F00093084F817
:100A20004B5020F0F000357010F1400084F82400A5
:100A3000B3E794F849100F2912D80221B1EB101F27
:100A40000ED184F82610216B09B12046884714F88E
:100A5000240F20F00F00093020F0F00090309BE7C9
:100A600020F00F0004F8495F801C20F0F000A57012
:100A7000203004F8250C90E720F00F00093084F8AE
:100A80004B5020F0F00035703030CFE73C000020B4
:100A90001FB5002001904FF4E070009001200290FB
:100AA000032003906946334801F016FD0023324AC3
:100AB000324933A0FFF7D2FE334A00212F48FFF717
:100AC000BDFE324A02212D48FFF7B8FE304A03210D
:100AD0002A48FFF7B3FE2F4A04212848FFF7AEFE4D
:100AE000264900232C4A50312CA0FFF7B7FE23489B
:100AF0002C4A00215030FFF7A1FE20482A4A02214B
:100B00005030FFF79BFE1D48284A03215030FFF765
:100B100095FE1A48264A04215030FFF78FFE1749E8
:100B20000023244AA03124A0FFF798FE1348244A4A
:100B30000021A030FFF782FE1048224A0221A03097
:100B4000FFF77CFE0D48204A0321A030FFF776FE18
:100B50000A481E4A0421A030FFF770FE074801F042
:100B600027FB0648503001F023FB0448A03001F079
:100B70001FFB1FBD000C0140A54400080C210020F4
:100B8000427574746F6E3100D5070008D1070008F4
:100B9000E107000801080008B144000842757474B8
:100BA0006F6E3200050800080308000811080008ED
:100BB0001D080008BD440008427574746F6E330050
:100BC000210800081F0800082D0800083708000841
:100BD000054810B5446803E02046FFF77FFEE46C4B
:100BE000002CF9D110BD00003C00002000B50246E9
:100BF000407800F008F80346107800F004F803EBA2
:100C00000010C0B200BD612801D4573804E041286B
:100C100001D4373800E03038C0B270472DE9F04FCA
:100C200087B0044605900020CDE9011001F10209CA
:100C3000C4490870C44914F8012B8246CA75897DDD
:100C400080468A4270D214F8015B002D6CD000BF40
:100C500014F8016BF10701D00B2100E00A218B464B
:100C6000B10775D5B8F1000F41D0B748DA454789CB
:100C70000ED1F0060CD46946304602F027FC02285B
:100C800017D17F1E03D3AF4909780029F3D004E1BF
:100C9000BAF10A0F03D00A20824602F03FFADFF8C9
:100CA000A48269460E2002F011FC022804D04FF005
:100CB00000080128EBD108E07F1E03D398F800104C
:100CC0000029EED04FF00008E7E0009989F8001005
:100CD000009A09F10101120A01F8012B009A120C85
:100CE00001F8012B009A120E01F8012B8946F1063A
:100CF00050D5E17854F8040B934F61F31F600490D2
:100D0000B88959460390DA4503D008468A4602F06E
:100D100005FABB467F890021304602F0D7FB022846
:100D200003D0012808D108E0DDE07F1E791C03D044
:100D3000844909780029EED0AFE0BBF80A70694613
:100D4000304602F0C3FB022803D0012818D107E087
:100D500041E07F1E14D37B4909780029EFD00FE0D2
:100D6000DBF81010009A1140049A914208D00399C0
:100D7000491E0391491C03D0724909780029DCD02F
:100D8000DBF8102000990A4004998A4271D040F0A3
:100D900010006EE0B8F1000F75D15946DA4503D066
:100DA00008468A4602F0BAF96748DFF898B14789E1
:100DB0000021304602F08AFB022802D001286CD1C3
:100DC00006E07F1E69D39BF800100029F0D064E094
:100DD0004FF0010857E0B8F1000F2DD0BAF10A0F1B
:100DE00003D00A20824602F099F95748478969469C
:100DF0000E2002F06BFB022802D001284DD107E043
:100E00007F1E791C49D04F4909780029EFD044E072
:100E1000009889F80000009909F10100090A00F81A
:100E2000011B00994FF00008090C00F8011B009904
:100E3000090E00F8011B8146E17854F8040B61F3B8
:100E40001F600090B10603D53F49086101201AE0F8
:100E50005946DA4503D008468A4602F05FF93A4817
:100E6000DFF8E0B047896946304602F02FFB0228E0
:100E700002D0012811D106E07F1E0ED39BF800108E
:100E80000029F0D009E00299491C02912D49097806
:100E900019B96D1E7FF4DCAE09E045B114F8011BF1
:100EA0008A0701D5C90600D5241D6D1EF5E7012866
:100EB00038D1BAF10A0F02D00A2002F02FF92248E5
:100EC000204EB8F1000F458921D069460E2002F06E
:100ED000FDFA022802D0012824D105E06D1E21D39D
:100EE00031780029F1D01DE0009989F80010009AAE
:100EF00009F10101120A01F8012B009A120C01F804
:100F0000012B009A120E01F8012B89460AE00021FC
:100F10000E2002F0DBFA022804D16D1E02D33178D4
:100F20000029F4D0DDE901120A7001994870019995
:100F30000598A9EB0101201A07B041EA0040BDE87D
:100F4000F08F0000440000208C3700202DE9F84F7E
:100F5000DFF83C810027044638460D4601F1030ABC
:100F600088F800704B4914F8012BCA75897D8A42B4
:100F700022D234F8026B002E1ED014F8019B5FEAD7
:100F8000C97001D00B2000E00A20834602F0C6F8A9
:100F90005FEA89705DD53F4844890021484602F0E8
:100FA00095FA022802D0012869D134E0641E66D384
:100FB00098F800100029F0D061E03EB9BBF10A0FAB
:100FC00002D00A2002F0AAF84FF00E0931484489F5
:100FD0006946484602F07AFA022802D001284ED12A
:100FE00006E0641E4BD398F800100029F0D046E0CC
:100FF00000998AF80010009A0AF10101120A01F81A
:10100000012B009A120C01F8012B009A120E01F824
:10101000012B8A467F1C761ECFD230E0E17854F84F
:10102000040B61F31F6000901A48B0F80A8069460B
:10103000484602F04BFA022802D001281FD107E0EF
:10104000B8F101081BD3124909780029EFD016E046
:101050007F1C761EE2D2BBF10A0F02D00A2002F0FA
:101060005DF80C480A4E448900210E2002F02EFA49
:10107000022804D1641E02D331780029F4D02F70E5
:10108000390A6970A870AAEB0500BDE8F88F000066
:10109000440000208C3700202DE9FF470278A2F1A0
:1010A00080031F2B04D800F099F904B0BDE8F08745
:1010B00001F8012B0C4610F801CB01250221FF237A
:1010C000DFF8F0920027BC4A4FF00116BCF11E0F6A
:1010D00075D2DFE80CF00F3A4B5EF1F0EF74EE6C76
:1010E000757474747474797D97A5B3D7ED74747442
:1010F000747474AE0278611C0020062A21D006DCCC
:10110000052A1ED2DFE802F01D1D1D1D0C00F02A6D
:101110000DD0FD2A15D0FE2A11D0FF2A11D109E0E9
:10112000A64802680A6040684860082009E0132069
:10113000087005E0402008704F70022001E00D703B
:101140000120207000F10210AFE705789C4A4FF4AF
:10115000005125B1012D02D023704E461FE1407889
:10116000C00701D0516128E0116126E027460478CC
:1011700034B1012C05D0022C07D000243C700EE1C4
:101180000124157003F044F9F8E7117003F0F2F848
:10119000F4E7177040F60360CDE90007CDE902716E
:1011A0006946884801F098F927702E46F7E00088D4
:1011B00000EBC000C000401EFDD12770CDE7F5E078
:1011C000677027700E46EAE0214600F071FB33E0BD
:1011D000C17800687C4E61F31F6000286DD07B49A8
:1011E000884202D3557055600AE07949577001442E
:1011F000B1FBF0F0022801D9801E00E00120506010
:101200002770CCE010F8015B0DB94FF480750146F2
:10121000284603F037FEED1DE8082770060458E065
:10122000007800F00301491C1175C0F3800050756F
:10123000E6E7214600F0E4F80646B0E004F8017B5A
:1012400025460124264610F8017B16E010F8018B94
:10125000814601462A46404602F0E8F818F03F0071
:1012600000D14020C01DC1080C44641C09EB0100E2
:101270005FEA086201D50D440E447F1EE6D264F396
:101280001F468CE010F8015B002195750B460BE0C2
:1012900002EB030C10F8016B8CF8186002EB430CA6
:1012A0005B1CACF820103144AB42F1D300200CE0C1
:1012B00012E077E053E033E027E024E013181B7ED0
:1012C000C91A02EB4003401C1986A842F6D32770C6
:1012D0002E0406F1011662E01178022913D100787C
:1012E000D075917D88420ED20E2001F017FF02F0DA
:1012F00033F827706070010AA170010CE170000ED4
:101300002071344E4BE0237049E001781172B0F83F
:1013100001105181B0F80300908127702E4E3EE0FD
:1013200012782146012A14D0022A15D0421C12F844
:10133000014B44B112F8013B9D0701D5DB0600D5F6
:10134000121D641EF6D1101A0F7000044F70801C1D
:1013500072E700F08BF86FE7FFF760FC6CE705467B
:101360001078214601280BD002280DD00F704F7045
:10137000A7700320E97889070AD540F480260EE09B
:10138000284600F003FAF5E72846FFF7DFFDF1E70E
:10139000B5F801104FF4802202EB8146064306F1B6
:1013A000011082E6214600F087FB45E704F8013C86
:1013B00030467AE6010002008C3700209EB6000815
:1013C00000100140000C01400100040080A812013F
:1013D000FF502502050001000100050000784FF0D4
:1013E000011208701046704710B502F047FC02F079
:1013F00001FC02F0BDFCBDE8104002F0DDBC0000C5
:101400002DE9F047002201F8012B012510F8017B9E
:101410008A46A946044620E014F8016B16F03F0006
:1014200000D14020C01D4FEAD008300608D50E4834
:10143000016821F0F0010160016841F08001016064
:1014400052462146304603F0B1F8300602D5C24478
:10145000C14401E0444445446D1C7F1EDCD249EA8E
:101460000540BDE8F0870000040C01402DE9F04F75
:1014700087B08B4601F1020904460590C14900205E
:101480000290087001906578A41C8046002D6FD0F2
:10149000DFF8F4A214F8016BB1076AD5B8F1000FB8
:1014A0003BD0BAF80A7006F0110001280AD0DFF824
:1014B000D48269460E2003F0BBF8022812D04FF008
:1014C000000805E06946304603F0B2F8022802D071
:1014D000012806D10FE07F1E03D3AA49097800290D
:1014E000F0D0FCE07F1E03D398F800100029E0D074
:1014F0004FF00008F3E0009989F80010009A09F114
:101500000101120A01F8012B009A120C01F8012BBB
:10151000009A120E01F8012B8946F1064DD5E178AB
:1015200054F8040B61F31F600490BAF80C000390A8
:10153000F00712D0BAF80A700021304603F078F8AC
:10154000022802D0012807D107E07F1E791C03D0B2
:101550008C4909780029EFD0C1E0BAF80A706946D1
:10156000304603F065F8022804D0012819D108E0BC
:10157000D5E060E07F1E14D3824909780029EED0BF
:101580000FE0DAF8102000990A4004998A4208D046
:101590000399491E0391491C03D07A49097800290F
:1015A000DBD0DAF8102000990A4004998A4201D071
:1015B00040F01000012816D13BE0BAF80A70F1079C
:1015C00015D0B8F1000F34D10021304603F030F8C7
:1015D000022802D0012806D106E07F1E7FD3694988
:1015E00009780029F0D07AE04FF0010821E069463F
:1015F000304603F01DF8022802D001286FD106E022
:101600007F1E6CD35F4909780029F0D067E000990C
:1016100089F80010009A09F10101120A01F8012B62
:10162000009A120C01F8012B009A120E01F8012BFE
:101630008946002148E0B8F1000F25D0BAF80A70B9
:1016400069460E2002F0F4FF022802D0012846D19C
:1016500006E07F1E43D34B4909780029F0D03EE0D5
:10166000009889F80000009909F10100090A00F8C2
:10167000011B00994FF00008090C00F8011B0099AC
:10168000090E00F8011B8146E17854F8040B61F360
:101690001F600090B10603D5CAF81000012014E0C5
:1016A000BAF80A706946304602F0C2FF022802D03A
:1016B000012814D107E07F1E791C10D03149097828
:1016C0000029EFD00BE0012101910299491C029100
:1016D0002C49097819B96D1E7FF4DCAE09E045B1DB
:1016E00014F8011B8A0701D5C90600D5241D6D1EFB
:1016F000F5E7012837D1B8F1000F24D0BAF80A5025
:10170000204E69460E2002F093FF022802D00128E5
:1017100029D105E06D1E26D331780029F1D022E0D1
:10172000009989F80010009A09F10101120A01F8E4
:10173000012B009A120C01F8012B009A120E01F8ED
:10174000012B89460FE0019969B1BAF80A500D4E94
:1017500000210E2002F06CFF022804D16D1E02D37E
:1017600031780029F4D002998BF800108BF8010031
:101770000598A9EB0B01201A07B041EA0040BDE82B
:10178000F08F0000440000208C3700202DE9F84F36
:10179000DFF814810027044638460D4601F1030A9C
:1017A00088F80070B4F80160E41C002E73D014F8BF
:1017B000019BDFF8F8B05FEA89715CD55FEAC97117
:1017C0003CD0BBF80A400021484602F031FF022815
:1017D00002D001285FD131E0641E5CD398F800107C
:1017E0000029F0D057E026B95FEAC97001D04FF068
:1017F0000E09BBF80A406946484602F019FF022864
:1018000002D0012847D106E0641E44D398F80010A6
:101810000029F0D03FE000998AF80010009A0AF100
:101820000101120A01F8012B009A120C01F8012B98
:10183000009A120E01F8012B8A467F1C761ED2D226
:1018400029E0E17854F8040B61F31F600090BBF8C5
:101850000A806946484602F0EBFE022802D00128C1
:1018600019D107E0B8F1010815D30F49097800290B
:10187000EFD010E07F1C761EE3D2BBF80A400A4E80
:1018800000210E2002F0D4FE022804D1641E02D3EF
:1018900031780029F4D02F70390A6970A870AAEB4A
:1018A0000500BDE8F88F0000440000208C370020C0
:1018B0002DE9F0478A464179D0F80260447861F317
:1018C0001F665B49057886B0E00701F1040206D087
:1018D000EB074FF4806001D0086000E01060A007C3
:1018E00006D5AB074FF4007001D5086000E010602A
:1018F00060074FF0010307D5A808C00701D04D4885
:1019000001E04C48001D036020064FF000072AD577
:10191000E8095FEAC078DFF8209100970197029705
:1019200003974FF400604FF0020C08D0086000905D
:101930006946CDF80CC0484600F0CEFD13E01060BB
:1019400000900DF10408112088E809106946484606
:1019500000F0C2FD06F0D8FC38480490042204A927
:10196000374806F0F9FF33493148091F001FEEB32D
:10197000344A964200D916460A22B6FBF2F6324B9A
:10198000D3F804205FEAC47C05D0D0F800C0CCF3C3
:10199000802CAC4523D15FEA847C06D5D0F800C00A
:1019A000CCF3402CBCEB550F19D15FEA447C06D533
:1019B000D1F800C00CF0010CBCEB950F0FD15FEA21
:1019C000846C02D55FEA551C09D15FEA046C0CD522
:1019D000D0F800C0CCF3C02CBCEBD51F05D0D3F899
:1019E00004C0ACEB020CB445CCD300E002E04FF0F5
:1019F000E022176102680368C2F38022C3F3402328
:101A0000096842EA430201F0010142EA8102094900
:101A1000083909680068C1F3400142EAC101C00AFF
:101A200041EAC0108AF8000006B00848BDE8F08717
:101A3000100C014010080140000C01400400FA05A0
:101A40000CED00E0C0C62D00001000E00100060013
:101A5000174808B50021017041708A1E426001726A
:101A60006422428181810122016102754175817583
:101A70001048816941F004018161816901F004012C
:101A80000091816941F008018161816901F00801DB
:101A90000091816941F010018161806900F01000BE
:101AA000009002F067FCBDE8084002F0B1BC000005
:101AB0008C37002000100240F8B504461448002678
:101AC0000D460278012A03D0FF21022A10D10AE034
:101AD0002179D4F8010061F31F600090694600206D
:101AE00002F0A6FD10E02278C275807D824201D30B
:101AF00029700AE0082001F011FB2179D4F80100D7
:101B000061F31F6001F038FF2E700248F8BD00003D
:101B10008C37002001000500014800F0BBBB00002D
:101B200008250020014800F0B5BB0000C4240020B7
:101B3000014800F0AFBB000004230020014800F082
:101B4000A9BB000048230020014800F0A3BB00000F
:101B50008C230020014800F09DBB0000D023002012
:101B600030B590F840500124AC40C56B6C600468FF
:101B700063604368102B036803D099600068C260FB
:101B800030BD9A600068C16030BD70472DE9F84FE4
:101B9000524E534C002570794FF00108F0BB757020
:101BA000502104F11800FEF7F8FA4EA14E4805F056
:101BB000C1F8E8B94D494C4805F0A1F94B4FA4F5DF
:101BC000C87907F1090A0DE0787A40B396F9010067
:101BD00000EB800109EB81005146FEF708FB7078AD
:101BE000401C70704149404805F089F90028EBD04D
:101BF00086F80580258165812022A2817821E181F6
:101C000025820821E174B2FBF1F1217184F8128080
:101C10003349257565751831314801E002E010E05F
:101C200001F0A4FF307918B135712D4801F076FF2D
:101C30002F4F3878012849D002281ED003284AD1D6
:101C400015E0274A002096F9011018324B4607E0AC
:101C500000EB800703EB870742F82070401CC0B2FE
:101C60000F468842F4DB23A042F82700C0E702F0C9
:101C70003FF91B4801F0A4FF2DE002F039F986F886
:101C80000480DFF8749000264FF01D0A06EB460032
:101C900009EB80020AEB4000C0B20C231021CDF802
:101CA000008002F011FB761CF6B20A2EEED3134927
:101CB000E07908704FF4FA7000F0FCFB02F018F9BC
:101CC0000F48052101700221417004E002F010F973
:101CD000034801F05CFF3D70BDE8F88F080000206C
:101CE0008C200020303A00001C0600200406002052
:101CF0003000002026000000DC9A0008310000209F
:101D0000340000202DE9F84F2E4F2F4C0025F87994
:101D10000126A0B9FE71258165812020A08178214E
:101D2000E1810821B0FBF1F02582E1742071A674F5
:101D30002575657507F10C01204601F017FFB8798C
:101D400018B1BD71204801F0E9FEDFF8808098F8F5
:101D5000000001282FD0022805D003282ED11A48D0
:101D600001F02EFF2AE002F0C3F8BE71DFF86090A8
:101D700000274FF01D0A00BF07EB470009EB800268
:101D80000AEB4000C0B20C231021009602F09CFA2E
:101D90007F1CFFB20A2FEFD30E49E07908704FF491
:101DA000FA7000F087FB02F0A3F80B4805210170E0
:101DB0000221417002E0044801F0E9FE88F8005079
:101DC000BDE8F88F08000020F4200020300000203B
:101DD000DC9A000854000020340000207CB5012467
:101DE0000825CDE90054002123462246084602F08A
:101DF0000FFA08231CA200211846009402F044FAAE
:101E00001A4800941A4900780823C0EBC00051F822
:101E100030200021102002F037FACDE900540123D0
:101E200002220821002002F0F3F908230EA219462D
:101E30001846009402F028FA0E4800940E490078E3
:101E4000082300EB800001EB80021946102002F00D
:101E50001BFA082309A210211E20009402F014FA94
:101E6000BDE87C4002F016B92E00000054000020AE
:101E7000BC39002031000020FC1E00205374617228
:101E80007420466C617368002DE9FC4101240C2725
:101E9000CDE90074002123462246084602F0B8F935
:101EA0000C2320A200210820009402F0EDF9002567
:101EB000DFF874805FF01E0605EB450008EB80023A
:101EC00006EB4000C0B20C230021009402F0FCF9A4
:101ED0006D1CEDB20A2DEFD3CDE90074012302226F
:101EE0000C21002002F094F90C230EA219460820C0
:101EF000009402F0C9F90D4F002500BF05EB450025
:101F000007EB800206EB40000C23C0B21946009498
:101F100002F0DAF96D1CEDB20A2DEFD3BDE8FC41F9
:101F200002F0DEB82E000000B49B00082C9C0008D4
:101F30002DE9FE4F01460122874804F027FE87491C
:101F40000870E0B9864D012400262C7006F0DCF9FB
:101F5000002815D006F058FE88B906F03BFE70B98F
:101F600006F080FE06F0D0F9002809D000F0B6FB9C
:101F70000290E00606F0C0FD20B106F023FE00202E
:101F8000BDE8FE8F06F09EFD0028F8D1DFF8C8B14D
:101F90004FF480674FF00C0A4FF47A7928780028C4
:101FA00054D06F4B3A460A336E496B4804F002FF37
:101FB0006889B84201D20020287006F100603A46D4
:101FC0006849804606F0C6FD0028D8D13A466649E1
:101FD000404606F091FA3A4662496348FEF7FAF83D
:101FE00078B101F085FF0C2360A208211420009431
:101FF00002F04AF9484600F05DFA01F079FF2C70D2
:10200000A7E006F58066DBF80C00FEF7DAF98046FB
:1020100030460091FEF7D5F94246009BFEF762F983
:102020000022564BFEF7ECF8FEF7D8F9CDE900A4F4
:10203000024603230021322002F0EAF80C2350A2CA
:1020400000214620009402F01FF9A7E700F046FBAC
:10205000064606F059F9002892D0E978A846491CAE
:10206000E9700298CDE900A4361AB6FBF9F2002116
:1020700055460223084602F0CBF80C2341A200216A
:102080000D20009402F000F94FF00A0AB6FBFAF0B6
:102090006427B0FBF7F107FB1102CDE900540223DE
:1020A0000021122002F0B4F80C2337A200211E20D8
:1020B000009402F0E9F8B6FBFAF0B0FBF7F207FB88
:1020C0001200B6FBF9F1B0FBF7F00844DBF80C1096
:1020D000CDE90054B1FBF0F2022300215A2002F0B6
:1020E00097F80C2329A200216920009402F0CCF873
:1020F0004FF40051274800F0E4FA002006F058FAA7
:10210000CDE90054032364220021322002F080F83C
:102110000C231BA200214620009402F0B5F80025F4
:102120001D4E232705EB450006EB800207EB400020
:10213000C0B20C231021009402F0C6F86D1CEDB261
:10214000082DEFD3484600F0B5F901F0D1FE88F82C
:102150000040012014E70000DC0300200100002003
:1021600008000020FC0A0020FC1A00205665726955
:102170006679204661696C642121000000005940A5
:10218000250000002E000000530000004B622F735A
:102190000000000000100140549B000880EA10403D
:1021A00080EA10200149C0B2085C7047A6B600085A
:1021B00090F82600704710B590F8211000220229EF
:1021C00005D00421816380F82020012010BD016822
:1021D0000B6823F00E030B6001680B6823F001030A
:1021E0000B6090F84030C46B012101FA03F3636087
:1021F00080F8211080F82020104610BD10B590F80E
:1022000021100024022903D00421816301243DE030
:1022100001680A6822F00E020A6001680A6822F06A
:1022200001020A601A4A0168914201D1012121E0AC
:10223000174A1432914201D110211BE0144A28326E
:10224000914201D1891515E0114A3C32914201D1E8
:1022500089140FE00E4A5032914202D14FF480317E
:1022600008E00B4A6432914202D14FF4801101E040
:102270004FF08071064A083A5160012180F8211020
:10228000002180F82010416B01B18847204610BD25
:10229000080002402DE9F05FC16B0C6801680B6813
:1022A000D0F840C0042202FA0CF2494DDFF824A114
:1022B000494E4A4FDFF828B1DFF828E122422CD0FE
:1022C0005A072AD50A68920603D40A6822F0040243
:1022D0000A600168A94201D1042219E0514501D1E7
:1022E000402215E0B14202D14FF4806210E0B942C1
:1022F00002D14FF480420BE0594502D14FF48022C5
:1023000006E0714502D14FF4800201E04FF0806297
:102310002F4908394A60C16A3BE04FF0020808FAC9
:102320000CF818EA040F4FF000094FF0010235D005
:102330005FEA837832D50B689B0605D40B6823F0DF
:102340000A030B6080F821200168A94201D1022212
:1023500019E0514501D1202215E0B14202D14FF4DC
:10236000007210E0B94202D14FF400520BE059451F
:1023700002D14FF4003206E0714502D14FF4001251
:1023800001E04FF00072124908394A6080F820904D
:10239000816A00291AD0BDE8F05F0847082505FAD0
:1023A0000CF5254212D01B0710D50B6823F00E0345
:1023B0000B6090F84010C36B02FA01F15960826320
:1023C00080F8212080F82090016BE2E7BDE8F09FC3
:1023D000080002401C00024030000240440002405D
:1023E000580002406C00024030B528B308C81349B9
:1023F00014221944B1FBF2F18900C16310498163D1
:10240000022141771A6843F6F0718A43D0E900143B
:102410002143D0E902452C43214304692143446907
:102420002143846921431143196000214163012242
:1024300042770177084630BD012030BDF8FFFDBF6F
:102440000000024070B5044690F8200000250128E5
:102450000CD0012084F8200094F821600020012E87
:1024600006D084F820000225284670BD022070BDE9
:10247000022684F82160A0632068066826F0010621
:1024800006602046FFF76CFBE06A002820680168C0
:1024900002D041F00E0106E021F004010160206845
:1024A000016841F00A0101602068016841F0010102
:1024B0000160D9E770B5044600F010F90546601CCC
:1024C00002D004480078044400F008F9401BA04200
:1024D000FAD370BDC80300202DE9F84FDFF8B8919A
:1024E000002409F1040A0AF1040B23460F270BF11B
:1024F000040EC9E00125A5402A40AA427DD1674EBD
:10250000D1F804C0ACEB0608B44532D014DCBCF101
:10251000030F3AD009DCBCF1000F2AD0BCF1010F47
:102520001CD0BCF1020F31D11DE0BCF1110F17D04E
:10253000BCF1120F2AD119E0B8F5881F19D006DCBA
:10254000B8F5803F15D0B8F5801F1FD111E0B8F560
:10255000001F0ED0B8F5041F18D10AE0CB6815E0B3
:10256000CB681B1D12E0CB6808330FE0CB680C333F
:102570000CE08B682BB1012B4FF0080303D04561B1
:1025800004E0042302E0056100E00023FF2A01D8F3
:10259000064601E000F104064FEA840501D9A5F1E1
:1025A0002005D6F8008007FA05FC28EA0C0803FA93
:1025B00005F548EA0508C6F800804D68ED0062D5CB
:1025C000374DAE6946F00106AE61AD6924F00306F1
:1025D00005F001050095334D06EB050CDCF80850BD
:1025E000A607360F07FA06F825EA0805DFF8B880CF
:1025F000404503D14FF0000817E044E0DFF8AC801D
:10260000404502D14FF001080FE0DFF8A4804045BB
:1026100002D14FF0020808E0DFF89880404502D16F
:102620004FF0030801E04FF0040808FA06F848EA02
:102630000508CCF808804D68D9F80060ED034D46D8
:1026400001D5164300E096432E604D68DAF800602D
:10265000AD03554601D5164300E096432E604D6804
:10266000DBF80060ED025D4601D5164300E09643BD
:102670002E604D68DEF80060AD02754601D5164348
:1026800000E096432E60641C0D682A46E5407FF406
:1026900031AFBDE8F88F00000004014000001110C8
:1026A000001002400000014000080140000C014001
:1026B00000100140001401408068084000D0012053
:1026C0007047C2680A4201D041617047016170479A
:1026D0000AB1016170470904FBE700000148806806
:1026E00070470000C8030020024881680278114446
:1026F00081607047C8030020002809DB00F01F023A
:10270000012191404009800000F1E020C0F8001153
:1027100070470000F0B40E4B1B680C46C3F3022355
:10272000C3F10705042D00D90425191D072901D27D
:10273000002300E0DB1E012606FA05F1491E2140B8
:1027400099409E40761E16403143F0BC03F0C0B95C
:102750000CED00E00148006870470000C003002055
:102760000448054900684968044AC1F30221515CE4
:10277000C8407047C00300200010024004B90008A0
:102780000448054900684968044AC1F3C221515C04
:10279000C8407047C00300200010024004B9000880
:1027A00070B5040005D00025A56294F8510010B161
:1027B00006E0012070BD84F85050204600F02EF84D
:1027C000022084F851002068016821F04001016076
:1027D000D4E901010843D4E90312114308436169B4
:1027E0000843218B01F400710843E1690843216A21
:1027F0000843A16A084321680860A069042101EA2E
:102800001040216848602068C16921F40061C161FD
:102810006565012084F85100002070BDF0B585B0D9
:10282000002400940194029403940646384D0368F2
:10283000384802210322AB4243D1836943F48053D9
:102840008361836903F480530493836943F0040331
:1028500083618069304D00F004000490A020CDE930
:102860000001039269462846FFF736FE4020CDE975
:102870000004694628460294FFF72EFE284D27489B
:10288000802701C5102091C5254845F810496C6185
:10289000AC61EC61FFF7A8FDB5646E62204D1F4886
:1028A00044351438C5E90004C5E902472C616C6160
:1028B000AC612846EC61FFF797FDF5646E6205B0E8
:1028C000F0BD184DAB42FAD1C36943F48043C361F4
:1028D000C36903F480430493836943F0080383616D
:1028E0008069114D00F0080004904FF42040CDE9BC
:1028F0000001039269462846FFF7EEFD4FF4804041
:10290000CDE90004694628460294FFF7E5FDD6E7C5
:102910000030014000100240000801403000024039
:10292000C424002000380040000C01402DE9F84F7D
:10293000044690F8500000270A9E1D4692468B469A
:102940004FF0010901280ED0012084F85000FFF754
:10295000C5FE804694F85100616801280CD0B1F59D
:10296000827F07D102E00220BDE8F88FA16809B993
:10297000042801D00227C2E0BBF1000F27D0BAF132
:10298000000F24D01DB394F85100042802D0052074
:1029900084F8510000206065C4F838A0E587A58759
:1029A000C4F830B0E586A5862064606420680168BC
:1029B000490603D4016841F040010160E068B0F5C8
:1029C000006F606805D0E8B3012D46D07FE0012795
:1029D00095E008B1012D39D1206B21680088C860CD
:1029E000206B801C2063E08E401EE0862EE0206875
:1029F000816889070FD5E18E69B1B9F1010F0AD15C
:102A0000216B0988C160206B801C2063E08E401E12
:102A1000E0864FF0000920688168C9070CD0E18F7B
:102A200051B1C068A16B0880A06B801CA063E08FCF
:102A3000401EE0874FF00109FFF750FEA0EB0800B1
:102A4000B04200E009E001D3701C50D1E08E0028B4
:102A5000CDD1E08F0028CAD13FE0206B21680078FB
:102A60000873206B401C2063E08E401EE0862EE041
:102A70002068816889070FD5E18E69B1B9F1010F2E
:102A80000AD1216B09780173206B401C2063E08E12
:102A9000401EE0864FF0000920688168C9070CD00D
:102AA000E18F51B1C068A16B0870A06B401CA0639E
:102AB000E08F401EE0874FF00109FFF70FFEA0EB0B
:102AC0000800B04202D3701C01D010E07EB1E08E4D
:102AD0000028CDD1E08F0028CAD142463146204699
:102AE00001F0F4FC28B101272020606507E00327EE
:102AF00005E0A06818B92068C168806800900120CE
:102B000084F85100002084F8500038462CE710B5B6
:102B1000401EB0F1807F01D3012010BD4FF0E024B2
:102B200060610F21601702F0D3FF0020A061072031
:102B30002061002010BD10B504460068416994F87A
:102B40003920C1F3C011212A0BD151B1416921F0C3
:102B500080014161206B08B1FFF72DFB204602F098
:102B60000BFC2068416994F83A20C1F38011222AB5
:102B70000BD151B1416921F040014161606B08B155
:102B8000FFF719FB204602F0E9FB002010BD70475B
:102B900070B5026804461068D168536910F00F0FD1
:102BA00050D003F0010501F4907635435DD0C207A3
:102BB00005D0CA0503D5E26B42F00102E263420789
:102BC00005D5DA0703D0E26B42F00202E263820726
:102BD00005D5DA0703D0E26B42F00402E263020794
:102BE00005D5DA0703D0E26B42F00802E263E26B3C
:102BF000002A33D0800604D5880602D5204602F08C
:102C0000C4FB20684069E16BC0F38010090700D461
:102C100028B3204602F0A2FB2068416949061AD574
:102C2000416921F040014161606BA0B11B494163E2
:102C3000606BFFF7E3FA002810D0606B416BBDE8D2
:102C400070400847830610D58B060ED52046BDE898
:102C5000704002F09ABB2046FFF799FF70BD2046F6
:102C6000FFF795FF0020E06370BD030606D50B0655
:102C700004D52046BDE8704002F02EBC4006F3D5D6
:102C80004806F1D5D168204621F04001D1602021CD
:102C900084F8391000F099F970BD0000BD520008A9
:102CA00070B5040004D094F83900002510B106E096
:102CB000012070BD84F83850204600F023F824200D
:102CC00084F839002068C16821F40051C1602046B1
:102CD00002F0A6FB2068016921F49041016120689F
:102CE000416921F02A0141612068C16841F4005125
:102CF000C160E563202084F8390084F83A000020A0
:102D000070BD00002DE9F04385B0002400940194CB
:102D1000029403940546DFF844C103685048022139
:102D20000322504F80264FF0100863454FD183692E
:102D300043F480438361836903F48043049383698C
:102D400043F0040383618069039200F0040004905F
:102D50000802CDE9000169463846FFF7BDFBF000E7
:102D6000CDE90004694638460294FFF7B5FB3F4FB2
:102D70003D484FF44059C7E902463C61E7E8050881
:102D80004FF0200887E810033848143FFFF72CFB6A
:102D90002F637D62354F344844371430C7E900044F
:102DA000C7E9024607F114033C6183E81003384683
:102DB000FFF71AFB6F630022114625207D62FFF7A3
:102DC000A9FC2520FFF798FC05B0BDE8F083DFF8EB
:102DD000A0C06345F8D1C36943F40033C361C3693C
:102DE00003F400330493836943F00403836180692F
:102DF000039200F0040004900420CDE9000169462C
:102E00003846FFF769FB0820CDE9000469463846DB
:102E10000294FFF761FB154F134888372830C7E944
:102E20000004C7E902463C617C61BC613846FC6134
:102E3000FFF7DAFA6F637D6244370B48C7E9024651
:102E40003C617C61BC613C30FC61C7E900083846EC
:102E5000FFF7CAFA2F637D62B6E700000038014031
:102E600000100240000801404400024004230020FA
:102E700000440040F8B5044690F83A0020283CD1C0
:102E8000C1B3BAB394F83800012836D0012084F8D1
:102E90003800A162A2850025E563222084F83A006B
:102EA000636B17489862636B1648D862636B164869
:102EB0001863606B134645630846666B21680246DB
:102EC0003046091DFFF7BEFA20680168416800918D
:102ED00084F83850C16841F48071C160206841694C
:102EE00041F0010141612068416941F040014161C7
:102EF0000020F8BDFFE70120FBE70220F9E7000012
:102F00001753000853530008CD520008704770470C
:102F10002DE9F843044690F839001F4616460D4641
:102F2000202850D1A5B19EB194F8380001284AD08C
:102F3000012084F838004FF00008C4F83C802120BC
:102F400084F83900FFF7CAFBA6848146E68426E0B0
:102F50000120BDE8F883E08C401EE084A0684B4669
:102F6000B0F5805F4FF000024FF0800120460097DF
:102F700003D002F0E2FAE8B90DE002F0DEFAC8B9D7
:102F800028882168C0F308004860206908B16D1CDA
:102F900005E0AD1C03E0216815F8010B4860E08CEA
:102FA0000028D8D14B46002240212046009702F04D
:102FB000C4FA08B10320CCE7202084F8390084F853
:102FC00038800020C5E70220C3E7704770B501785C
:102FD000012407290DD0084D2978002908D1014680
:102FE00040220648FDF7C0F805492C7040200860D3
:102FF00070BD0448047070BD02000020780A0020F3
:10300000B8030020440000207047FEE770B5ADF51E
:10301000936D0446402101A8FDF7BFF80122214627
:103020009BA803F0B3FD132225A111A803F0AEFD68
:1030300000F05EFF012000900C2324A20221142046
:1030400001F022F901AD2BE09DF804003A2803D0ED
:1030500000200DF5936D70BD681CFDF7C7FD064699
:10306000681DFDF7C3FD0446E81CFDF7BFFD04EB3A
:10307000002084B2E81DFDF7B9FD88B9214611A8EA
:1030800003F00CFA002409E005EB44000930FDF7D9
:10309000ADFD11A903F07FFE641CE4B2B442F3D38A
:1030A0009BAA402101A803F0D5F90028CCD111A892
:1030B00003F0C1F99BA803F0BEF90120C9E70000A5
:1030C00077726974652E62696E000000496E7665DC
:1030D0007274696E670000001CB505F05BFA002889
:1030E0001BD09E208DF80000E7208DF80100694676
:1030F000102001F0C7FE05F04DFA00280DD0002089
:103100008DF800006946082001F0BCFE01A90020EE
:1031100005F0D0F9012800D000201CBD03494978F2
:1031200009B100F005B800F063B800008C3700204A
:103130002DE9F0432B4A4FF4007717601115131D4A
:1031400019601160196011601F60196011601960C9
:103150001160254E01243460244D95F817C005EB0D
:103160004C09B9F820501DB1196011606D1EFBD1DA
:103170001E4D18351CF80550DFF86CC00CF1040C1E
:103180000AE000BF5FEAC07801D0346001E0CCF80B
:1031900000401960116040086D1EF3D1B9F830503D
:1031A0007DB1C00701D0346001E0CCF80040196067
:1031B0001160346001E0196011606D1EFBD1176071
:1031C00006E01760C00701D0346001E0CCF8004091
:1031D00019601160196011601F601960116034601E
:1031E000BDE8F083100C0140100801408C3700202E
:1031F0002DE9F047554B4FF40078C3F800801A15BD
:103200001C1D2260524F79680D466D1EFDD11A605B
:103210000D466D1EFDD122600D466D1EFDD11A605A
:103220000D466D1EFDD1C4F8008022600D466D1E56
:10323000FDD11A600D466D1EFDD122600D466D1E3A
:10324000FDD11A600D466D1EFDD1424E012535603F
:1032500097F817C007EB4C0AE146BAF820C0BCF15A
:10326000000F0AD022600F467F1EFDD11A600F4664
:103270007F1EFDD1BCF1010CF4D1DFF8D4C00CF1FC
:10328000180C19F80CC0DFF8CC9009F104090EE015
:10329000C70701D0356001E0C9F8005022600F4631
:1032A0007F1EFDD11A600F467F1EFDD14008BCF184
:1032B000010CEDD1BAF8307027B3C00701D03560EA
:1032C00001E0C9F8005022600846401EFDD11A6096
:1032D0000846401EFDD1356007E022600846401ECA
:1032E000FDD11A600846401EFDD17F1EF5D1C3F8FE
:1032F000008022600846401EFDD11A600846401E2C
:10330000FDD10FE0C3F80080C00701D0356001E0B7
:10331000C9F8005022600846401EFDD11A600846D8
:10332000401EFDD122600846401EFDD11A600846AD
:10333000401EFDD1C4F8008022600846401EFDD129
:103340001A60491EFDD13560BDE8F087100C0140C0
:103350008C37002010080140F0B5314C4FF4007656
:1033600026602215231D1A602E4841680D466D1EE9
:10337000FDD122600D466D1EFDD11E601A600D4606
:103380006D1EFDD122600D466D1EFDD11A600D46E9
:103390006D1EFDD122600D466D1EFDD1C57D4DB166
:1033A0001A600846401EFDD122600846401EFDD12D
:1033B0006D1EF5D10027DFF870C01F251A60084682
:1033C000401EFDD1DCF800002260C0F3400E08462C
:1033D000401EFDD147EACE7047086D1EEED1266033
:1033E0001A600846401EFDD1DCF800002260C0F3E0
:1033F00040050846401EFDD147EAC5701A600D46DB
:103400006D1EFDD122600D466D1EFDD11E601A603D
:103410000B465B1EFDD12260491EFDD1F0BD0000B0
:10342000100C01408C370020080801402DE9F04FB6
:1034300010F03F0500D14025DFF884A044064FF48A
:1034400000734FF0010EAAF1040B4FF4806801D510
:103450005C4600E0544623602EE000BF11F8016B8B
:1034600000244FF0080C1FE0F307734601D0154FFE
:1034700001E0144F3F1D3B60CAF80080124B5B68AF
:103480001F467F1EFDD10F4F083F3F68CBF80080DD
:10349000C7F340095B1EFDD1630876086D1E43EA41
:1034A000C914BCF1010C01D0002DDDD124FA0CF4BB
:1034B000030601D502F8014B002DCFD1BDE8F08FF6
:1034C000140C0140100801408C370020034A527848
:1034D0000AB100F005B800F0D1B800008C37002028
:1034E0002DE9F04F624C4FF4007626602215231D23
:1034F0001A6022601E601A6022601A6022605D4DB0
:10350000ED7D1DB11A6022606D1EFBD14508DFF80C
:1035100068B15FEAC57CABF104074FF0010501D04B
:103520003D6001E0CBF800501A60DFF84C81A8F153
:103530000C08D8F800C0A246CCF3400C22608408E6
:103540004FEA4C0CE40701D03D6001E0CBF800509D
:103550001A60D8F80040C146C4F34004CAF80020FD
:103560004CEA040CC408E40701D03D6001E0CBF84C
:1035700000501A60D9F80040CE46C4F340085446C3
:10358000CAF800204CEA880ABAF1010F01D026607F
:103590005BE0DFF8E0C05FEA80789CF816009CF8FA
:1035A00017C0A0EB0C092BD54FF000081F20F346E5
:1035B0001A60DBF800C022604FEA5C0C48EACC7C61
:1035C0004FEA5C08401EF3D1B9F1010011D01A6036
:1035D000DBF800C0CCF3400C00E01A602260401E13
:1035E000FBD126601A60226048EACC7079B308608B
:1035F0002DE026601A60DBF80000C0F3400CF2E713
:1036000008681F214FEA0B0C5FEAC07801D03D60CB
:1036100001E0CCF800501A6022604008491EF3D146
:10362000B9F101010AD0C00701D03D6001E0CCF83A
:1036300000501A602260491EFBD1A8E72660C0072F
:1036400001D03D6001E0CCF800501A6022601A60A1
:1036500022601E601A6022603D600648007A01E028
:103660001A602260401EFBD25046BDE8F08F000079
:10367000100C01408C370020140801402DE9F34F55
:10368000BA4B81B04FF400741C601A151F1D3A60CC
:10369000DFF8DCC2DCF804100D466D1EFDD11A60A7
:1036A0000D466D1EFDD13C603A600D466D1EFDD18C
:1036B0001A600D466D1EFDD13A600D466D1EFDD19E
:1036C0001A600D466D1EFDD19CF817604EB13A6030
:1036D0000D466D1EFDD11A600D466D1EFDD1761E84
:1036E000F5D14508DFF88C925FEAC578A9F10406A8
:1036F0004FF0010501D0356001E0C9F80050904657
:10370000BA463A600A46521EFDD19A4F0C3F3A68BB
:10371000C3F80080C2F3400C42468846B8F1010865
:10372000FCD14FEA90084FEA4C0C5FEAC87801D010
:10373000356001E0C9F80050CAF800204FEA0108DE
:10374000B8F10108FCD1BB463F689E46C7F340076D
:103750001A600B465B1EFDD1C3084CEA070CDB0761
:1037600001D0356001E0C9F80050CAF800200B46CE
:103770005B1EFDD1DBF80030CEF80020C3F340081B
:1037800073460F467F1EFDD14CEA880EBEF1010F35
:1037900009D01C60CAF800200846401EFDD11A60FE
:1037A000491EFDD1B9E0724F5FEA807CB87DFF7D94
:1037B000A0EB0700009057D54FF0000C5FF01F07FB
:1037C000CAF800200846401EFDD1DBF800001A6050
:1037D000C0F340080846401EFDD14CEAC8704FEACD
:1037E000500C7F1EECD10098401E29D0CAF8002052
:1037F0004FEA0108B8F10108FCD1DBF800701A604B
:10380000C7F3400917468846B8F10108FCD1401EAD
:103810000CD0CAF800708846B8F10108FCD11F60CE
:103820004FEA0108B8F10108FCD1F0E71C60CAF8C2
:1038300000700846401EFDD11F60491EFDD10DE0FD
:103840001C601746CAF800200846401EFDD1DBF870
:1038500000001F60C0F34009491EFDD102994CEAE7
:10386000C970D9B3086058E002984FF01F0C006887
:10387000C70701D0356001E0C9F80050CAF8002040
:103880000F467F1EFDD11A600F467F1EFDD14008F6
:10389000BCF1010CECD1009F7F1E2ED0C00701D0DF
:1038A000356001E0C9F800501046D046CAF8002043
:1038B0004FEA010CBCF1010CFCD118604FEA010C7D
:1038C000BCF1010CFCD17F1E0DD0C8F800008C4665
:1038D000BCF1010CFCD118608C4600E01DE0BCF18D
:1038E000010CFAD1EFE71C60C8F800000F467F1EFC
:1038F000FDD11860491EFDD10FE01C60C00701D04A
:10390000356001E0C9F800501746CAF800200846A3
:10391000401EFDD11F60491EFDD15146CAF800204E
:10392000134F78684FEA000CBCF1010CFCD11A600F
:103930004FEA000CBCF1010CFCD10C600A6004469B
:10394000641EFDD11A600446641EFDD135603D7AC7
:1039500007E00A600446641EFDD11A600446641E36
:10396000FDD16D1EF5D27046BDE8FE8F100C0140F2
:103970008C370020140801402DE9F04F644B4FF4C0
:1039800000771F601A151C1D2260624E71680D467B
:103990006D1EFDD11A600D466D1EFDD1276022609F
:1039A0000D466D1EFDD11A600D466D1EFDD12260C3
:1039B0000D466D1EFDD11A600D466D1EFDD196F8A7
:1039C00017C0BCF1000A0AD022600D466D1EFDD161
:1039D0001A600D466D1EFDD1BCF1010CF4D1DFF86B
:1039E00038810125C8F8005022608C46BCF1010CDA
:1039F000FCD11A604FEA010CBCF1010CFCD1226031
:103A00004FEA010CBCF1010CFCD11A604FEA010C29
:103A1000BCF1010CFCD122604FEA010CBCF1010C9D
:103A2000FCD11A604FEA010CBCF1010CFCD1DFF8AB
:103A3000E8904FF01F0CA9F10409B346C60702D065
:103A4000C9F8005001E0C8F8005022600E46761E0A
:103A5000FDD11A600E46761EFDD14008BCF1010C66
:103A6000ECD19BF816C0ACEB0A06761E2CD0C00732
:103A700002D0C9F8005001E0C8F80050104622609A
:103A80004FEA010CBCF1010CFCD118604FEA010CAB
:103A9000BCF1010CFCD1761E0CD020604FEA010C69
:103AA000BCF1010CFCD118604FEA010CBCF1010C17
:103AB000FCD1F0E71F6020600E46761EFDD1186035
:103AC0000846401EFDD10FE01F60C00702D0C9F8B4
:103AD000005001E0C8F8005022600846401EFDD1A9
:103AE0001A600846401EFDD122600846401EFDD1E6
:103AF0001A600846401EFDD1276022600846401E1D
:103B0000FDD11A60491EFDD1C9F80050BDE8F08F03
:103B1000100C01408C37002014080140F8B5044611
:103B2000C77C008A0025C0F347061BE06079A842E5
:103B30001BD9A079E17928448842228A61893A44D4
:103B400005FB021101D1002200E00122009222684F
:103B5000E37C52F820208819C1B2207A00F094FB4F
:103B60006D1CEDB22079A842E0D8F8BD00220160BA
:103B700051F822301B78262B07D0521CD2B2FF2AD4
:103B8000F6D30021C171817170474271F9E7427922
:103B9000C179521E91420BDA491CCAB2C2718179B5
:103BA0000379521A9A4201DB491C06E0FFF7B6BFBF
:103BB000817C012903D10021C1718171F6E7704731
:103BC000C17939B1491ECAB2C27181798A420ED215
:103BD000491E0BE0817C01290BD141794A1EC2713B
:103BE0000279914201D9891A00E000218171FFF721
:103BF00095BF70471E4808B5416941F00101416118
:103C000040691C4900F0010000901B4801604FF41E
:103C100080414160402181608021C16000210161BB
:103C200041618161C161FEF7DFFB002211460C207A
:103C3000FEF770FD0C20FEF75FFD002211460D20FF
:103C4000FEF768FD0D20FEF757FD002211461020FB
:103C5000FEF760FD1020FEF74FFD002211461120F7
:103C6000FEF758FDBDE808401120FEF745BD0000F5
:103C70000010024008000240FC2100202DE9F04F16
:103C800085B000243648009401940294039481691D
:103C900041F010018161816901F010010491816995
:103CA00041F020018161816901F020010491816965
:103CB00041F004018161816901F00401049181698D
:103CC00041F0080181618069DFF8989000F00800F8
:103CD0004FF460460490002231464846FEF7F8FC57
:103CE000DFF884A04FF48878002241465046FEF762
:103CF000EFFCDFF878B0002241F638415846FEF775
:103D0000E7FC0227012503970096CDE90154694697
:103D10004846FEF7E1FB012231464846FEF7D8FC53
:103D2000CDF800800397CDE9015469465046FEF76F
:103D3000D3FBE0200326CDE90005CDE90246694624
:103D40005046FEF7C9FB41F23B00CDE90005CDE945
:103D5000024669465846FEF7BFFB05B0BDE8F08F46
:103D6000001002400010014000080140000C01401A
:103D700010B50F480D49022401604FF48271416073
:103D800000218160C0E903142202C0E905128022EB
:103D9000C0E90712416281620A21C162FEF700FD9B
:103DA000044900B10C700120087010BD00300140C2
:103DB00014240020390000200C480B490222016025
:103DC0004FF48271416000218160C0E90312012239
:103DD00042615202C0E906210162416281620A2108
:103DE000C162FEF7DDBC0000003800406C240020FA
:103DF00010B5104C0E480C2120604FF4E13060608B
:103E00000020A060E060C4E90401A061E0612046F8
:103E1000FEF746FF2068C16841F01001C160064806
:103E2000A4F1440102782046BDE81040FFF722B813
:103E300000380140842200203800002010B5104CCA
:103E40000E480C2120604FF4E13060600020A0603B
:103E5000E060C4E90401A061E0612046FEF720FFB4
:103E60002068C16841F01001C1600648A4F18401D6
:103E700002782046BDE81040FEF7FCBF0044004039
:103E8000C422002038000020FEE70000F8B500241E
:103E9000144F01265FF01E0504EB440007EB80027F
:103EA00005EB4000C0B20C230021009600F00CFA94
:103EB000641CE4B20C2CEFD30B4F002404EB440041
:103EC00007EB800205EB40000C23C0B219460096B8
:103ED00000F0FAF9641CE4B20C2CEFD3BDE8F84012
:103EE00000F0D8B85C990008EC9900087047000011
:103EF00010B40021084B0A465FF0000003EB800479
:103F0000401CC0B262548028F8D3491CC9B20429AD
:103F1000F2D310BC00F0BEB84C35002030B5CC0850
:103F200001F0070301259D40EBB2064D05EB80052E
:103F3000C808285C0AB1184302E063EA0000C043E5
:103F4000285530BD4C350020F0B54B4885B081690F
:103F500041F001018161806900F00100049047484F
:103F6000416821F0E06141F0007141603B20012592
:103F7000CDE900050320424C039069462046FEF738
:103F8000ABFA01223B212046FEF7A2FB3C4E08245F
:103F9000103634600A20FEF78DFA371D3C600A2087
:103FA000FEF788FA34603D600021AE2000F0C2F9CF
:103FB0000021084600F0BEF90021102000F0BAF9F7
:103FC0000021084600F0B6F90021B02000F0B2F957
:103FD0000021812000F0AEF90021FF2000F0AAF9B5
:103FE0000021A12000F0A6F90021A62000F0A2F9EE
:103FF0000021A82000F09EF900211F2000F09AF96E
:104000000021C82000F096F90021D32000F092F999
:104010000021084600F08EF90021D52000F08AF931
:104020000021802000F086F90021D92000F082F9DB
:1040300000211F2000F07EF90021DA2000F07AF93B
:104040000021084600F076F90021DB2000F072F92B
:104050000021402000F06EF900218D2000F06AF967
:104060000021142000F066F9FFF742FF0021AF2085
:1040700000F060F905B0F0BD001002400000014002
:10408000000C01400246012000E05043491EC9B225
:10409000FBD2704770B5114E002400BF04F1B00090
:1040A000C0B2002100F046F90021084600F042F9B4
:1040B0000021102000F03EF95FF0000506EB8500BE
:1040C0000121005D00F036F96D1CEDB2802DF5D3B5
:1040D000641CE4B2042CE1D370BD00004C35002018
:1040E00070B5114E002400BF04F1B000C0B2002131
:1040F00000F020F90021084600F01CF900211020F2
:1041000000F018F95FF0000506EB85000121005D65
:1041100000F010F96D1CEDB2802DF5D3641CE4B2F3
:10412000042CE1D370BD00004C3500202DE9FC4F7C
:104130001C460E4682468B460190082B0DD0600728
:1041400000D0012000EBD40061084843C0B2814692
:10415000203AD0B2009000204BE00620F7E7082C70
:1041600013D00C2C18D0102C1BD0182C44D1009834
:10417000234900EBC00000BF01EB8001002711F8CC
:104180000850E80712D00B9A13E000981D4900EB85
:10419000400001EB4001F1E700981B4900EB4000B3
:1041A000EAE71A49009801EB0011E7E70B9828B3FA
:1041B000002231465046FFF7B1FE761C7F1C6D0889
:1041C000FFB2F6B2082FDCD30AF1010000F0FF0ABB
:1041D000082C0AD00199AAEB0100B0EB540F04D1CE
:1041E0000BF108008A4600F0FF0B08F101005E4663
:1041F000C0B280464845B2D3BDE8FC8F0122D8E763
:1042000042A90008A49C0008DE9E000852A30008F2
:104210002DE9FF4F81B00026DDE90EA91D4693462A
:10422000804634464FEA5A0727E0281B401EC1B299
:104230000A20FFF727FFBBFBF0F00A21B0FBF1F2E9
:1042400001FB120026B9691E8C4201DA48B1012631
:104250003030C2B207FB0480C0B25346CDF80090A4
:1042600006E007FB0480C0B253462022CDF8009040
:104270000299FFF75BFF641CE4B2AC42D5D305B0F2
:10428000BDE8F04FFFF706BF2DE9F8411E46154681
:1042900088460446079F0BE0334641462046009778
:1042A000FFF744FF082E0CD004EB5600C4B26D1C7F
:1042B0002A78A2F120005E28EED9BDE8F841FFF788
:1042C000E9BEA41DE4B2F2E72DE9FF4F98460C4683
:1042D000834689460025DDF834A024E002980026B4
:1042E000475D380601D5524603E0BAF1000F12D0FF
:1042F000002221465846FFF711FE641C7806E4B2FE
:10430000070EA4EB0901414507D10BF101004C4612
:1043100000F0FF0B05E00122EBE7761CF6B2082E59
:10432000DFD36D1CEDB24545D8D3BDE8FF4FFFF795
:10433000D7BE0000F0B50E4B02241A1F09B114605D
:1043400000E01C6001261E600021102720251D6052
:104350005FEA006C01D5176000E01F601560400641
:10436000491C000EC9B20829F1D316601460F0BDD3
:10437000140C01402DE9F04186B02248002402943B
:10438000816941F008018161816901F008010491AE
:10439000816941F00401816180691B4900F00400DA
:1043A000049040F60160086040F201600126DFF8E9
:1043B0005880CDE900060325A8F110086946039549
:1043C0004046FEF789F8F0021127CDE90007CDE954
:1043D000026569464046FEF77FF80220CDE90004F9
:1043E00069464046CDE90245FEF776F87003CDE90F
:1043F000000769460548CDE90245FEF76DF806B0AD
:10440000BDE8F08100100240100C01400010014096
:104410002DE9F0411F4886B0816941F004018161B6
:1044200080691D4900F004000024049002944FF4B8
:10443000606008604FF4C0600126DFF85C80CDE961
:1044400000060325A8F11008694603954046FEF7CB
:1044500043F8F0021127CDE90007CDE9026569466E
:104460004046FEF739F840F60300CDE900046946FE
:104470004046CDE90245FEF72FF87003CDE900076D
:1044800069460648CDE90245FEF726F806B0BDE8C4
:10449000F081000000100240100C014000100140AB
:1044A0007047000040210148FEF706B9000C0140AA
:1044B00080210148FEF700B9000C01404FF48071E3
:1044C0000148FEF7F9B80000000C014038B50B4672
:1044D000009204460022802100F01CF8002804D03D
:1044E000606D40F020006065032038BD3EB5FF24BC
:1044F0008DF80800012301AA02A905480094FEF7DF
:1045000015FA08B18DF804409DF804003EBD000086
:104510006C2400202DE9F0411D4617460E46044646
:10452000DDF8188008E0681C06D0FEF7D7F8A0EB8D
:104530000800A8420BD255B12068806836EA000016
:1045400030D00020B842EED10020BDE8F0812068D4
:10455000416821F0E00141606068B0F5827F0BD1D5
:10456000A068B0F5004F02D0B0F5806F04D120688C
:10457000016821F040010160A06AB0F5005F09D137
:104580002068016821F4005101602068016841F44D
:1045900000510160012084F85100002084F850008F
:1045A0000320D2E70120CDE770470000F0B510F0FE
:1045B0003F0300D1402305061B484FF480642DD5EE
:1045C000DFF864C0071DACF1080C002B25D00021DA
:1045D00008250BE03C60DCF800600460C6F3402670
:1045E00049085B1E41EAC6116D1E01D0002BF1D1B6
:1045F000E94002F8011BE8E711F8012B08250AE061
:104600005FEAC27C01D0066000E0076004605208E7
:104610005B1E6D1E05D0002BF2D1F0BD034E4FF096
:10462000C067002BE8D1F0BD100C0140000200046F
:10463000034A52780AB100F005B800F013BA00003E
:104640008C3700202DE9F04FFF4A8B46FD4E014686
:10465000166013151360C0074FF0C06701D01660D5
:1046600000E0176013604C08E50701D0166000E019
:104670001760136088080C44C50701D0166000E07D
:10468000176013600444C808C50701D0166000E035
:10469000176013602044C00701D0166000E0176067
:1046A00013601760136016601360DFF89C93A9F124
:1046B0000C09D9F8004024F0F004C9F80040D9F8FA
:1046C000004044F08004C9F80040E048E04C057D1B
:1046D000281E03D0236013606D1EFBD12360DFF81A
:1046E0006883A8F10808D8F800501360C5F3402586
:1046F0002360D8F800C01360CCF3402C45EA4C0589
:104700002360D8F800C01360CCF3402C45EA8C0538
:104710004FF4007A012D16D0022D74D0042DFCD058
:10472000213003D023601360401EFBD1D9F8001064
:1047300021F0F001C9F80010D9F8001041F0300163
:10474000C9F8001088E1890730D5002620202360B1
:10475000D8F800101360490A760846EAC176401E70
:10476000F5D13046FDF71AFD2360D8F8001013602C
:1047700080EA5120C00700D00825BBF1000F01D00E
:10478000CBF80060B148007D18B123601360401E73
:10479000FBD1D9F8001021F0F001C9F80010D9F8C8
:1047A000001041F03001C9F800101CE118B123607D
:1047B0001360401EFAE7D9F8001021F0F001C9F8A3
:1047C0000010D9F8001041F03001C9F80010DBF8F2
:1047D00000008046FDF7E2FC01465FEAC87001D0A8
:1047E000166000E017604FEA580013605FEAC07C73
:1047F00001D0166000E01760400813605FEAC07CDB
:1048000002D0166001E0F8E01760400813605FEA2C
:10481000C07C01D0166000E01760400813605FEABA
:10482000C07C01D0166000E01760400813605FEAAA
:10483000C07C01D0166000E01760400813605FEA9A
:10484000C07C01D0166000E01760400813605FEA8A
:10485000C07C01D0166000E01760400813605FEA7A
:10486000C07C01D0166000E01760400813605FEA6A
:10487000C07C01D0166000E01760400813605FEA5A
:10488000C07C01D0166000E01760400813605FEA4A
:10489000C07C01D0166000E01760400813605FEA3A
:1048A000C07C01D0166000E01760400813605FEA2A
:1048B000C07C01D0166000E01760400813605FEA1A
:1048C000C07C01D0166000E01760400813605FEA0A
:1048D000C07C01D0166000E01760400813605FEAFA
:1048E000C07C01D0166000E01760400813605FEAEA
:1048F000C07C01D0166000E01760400813605FEADA
:10490000C07C01D0166000E01760400813605FEAC9
:10491000C07C01D0166000E01760400813605FEAB9
:10492000C07C01D0166000E01760400813605FEAA9
:10493000C07C01D0166000E01760400813605FEA99
:10494000C07C01D0166000E01760400813605FEA89
:10495000C07C01D0166000E01760400813605FEA79
:10496000C07C01D0166000E01760400813605FEA69
:10497000C07C01D0166000E01760400813605FEA59
:10498000C07C01D0166000E01760400813605FEA49
:10499000C07C01D0166000E01760400813605FEA39
:1049A000C07C01D0166000E01760400813605FEA29
:1049B000C07C01D0166000E01760400813605FEA19
:1049C000C07C01D0166000E0176040081360C0078B
:1049D00001D0166000E017601360C80701D01660B0
:1049E00000E0176013601948007A98B3C4F800A07B
:1049F00023601360401EFBD12EE0144E777D37B14B
:104A00008E0704D5212623601360761EFBD118B1D2
:104A100023601360401EFAE7D9F8006026F0F00624
:104A2000C9F80060D9F8006046F03006C9F80060A7
:104A300087B1880710D4C4F800A021202360136038
:104A4000401E08E000020004100C01408C370020DA
:104A5000140C014000E0F1D1C2F800A02846BDE8E6
:104A6000F08F00002DE9F04FFF4A8B46FD4E0146C6
:104A7000166013151360C0074FF0C06701D01660B1
:104A800000E0176013604C08E50701D0166000E0F5
:104A90001760136088080C44C50701D0166000E059
:104AA000176013600444C808C50701D0166000E011
:104AB000176013602044C00701D0166000E0176043
:104AC00013601760136016601360DFF89C93A9F100
:104AD0000C09D9F8004024F0F004C9F80040D9F8D6
:104AE000004044F08004C9F80040E048E04C057DF7
:104AF000281E03D0236013606D1EFBD12360DFF8F6
:104B00006883A8F10808D8F800501360C5F3402561
:104B10002360D8F800C01360CCF3402C45EA4C0564
:104B20002360D8F800C01360CCF3402C45EA8C0514
:104B30004FF4007A012D16D0022D74D0042DFCD034
:104B4000213003D023601360401EFBD1D9F8001040
:104B500021F0F001C9F80010D9F8001041F030013F
:104B6000C9F8001088E1890730D50026202023608D
:104B7000D8F800101360490A760846EAC176401E4C
:104B8000F5D13046FDF70AFB2360D8F8001013601A
:104B900080EA5120C00700D00825BBF1000F01D0EA
:104BA000CBF80060B148007D18B123601360401E4F
:104BB000FBD1D9F8001021F0F001C9F80010D9F8A4
:104BC000001041F03001C9F800101CE118B1236059
:104BD0001360401EFAE7D9F8001021F0F001C9F87F
:104BE0000010D9F8001041F03001C9F80010DBF8CE
:104BF00000008046FDF7D2FA01465FEAC87001D096
:104C0000166000E017604FEA580013605FEAC07C4E
:104C100001D0166000E01760400813605FEAC07CB6
:104C200002D0166001E0F8E01760400813605FEA08
:104C3000C07C01D0166000E01760400813605FEA96
:104C4000C07C01D0166000E01760400813605FEA86
:104C5000C07C01D0166000E01760400813605FEA76
:104C6000C07C01D0166000E01760400813605FEA66
:104C7000C07C01D0166000E01760400813605FEA56
:104C8000C07C01D0166000E01760400813605FEA46
:104C9000C07C01D0166000E01760400813605FEA36
:104CA000C07C01D0166000E01760400813605FEA26
:104CB000C07C01D0166000E01760400813605FEA16
:104CC000C07C01D0166000E01760400813605FEA06
:104CD000C07C01D0166000E01760400813605FEAF6
:104CE000C07C01D0166000E01760400813605FEAE6
:104CF000C07C01D0166000E01760400813605FEAD6
:104D0000C07C01D0166000E01760400813605FEAC5
:104D1000C07C01D0166000E01760400813605FEAB5
:104D2000C07C01D0166000E01760400813605FEAA5
:104D3000C07C01D0166000E01760400813605FEA95
:104D4000C07C01D0166000E01760400813605FEA85
:104D5000C07C01D0166000E01760400813605FEA75
:104D6000C07C01D0166000E01760400813605FEA65
:104D7000C07C01D0166000E01760400813605FEA55
:104D8000C07C01D0166000E01760400813605FEA45
:104D9000C07C01D0166000E01760400813605FEA35
:104DA000C07C01D0166000E01760400813605FEA25
:104DB000C07C01D0166000E01760400813605FEA15
:104DC000C07C01D0166000E01760400813605FEA05
:104DD000C07C01D0166000E01760400813605FEAF5
:104DE000C07C01D0166000E0176040081360C00767
:104DF00001D0166000E017601360C80701D016608C
:104E000000E0176013601948007A98B3C4F800A056
:104E100023601360401EFBD12EE0144E777D37B126
:104E20008E0704D5212623601360761EFBD118B1AE
:104E300023601360401EFAE7D9F8006026F0F00600
:104E4000C9F80060D9F8006046F03006C9F8006083
:104E500087B1880710D4C4F800A021202360136014
:104E6000401E08E000020004100C01408C370020B6
:104E7000140C014000E0F1D1C2F800A02846BDE8C2
:104E8000F08F0000F0B50C4E00234FF40074371D76
:104E90001A4665000DE012B911F8013B08225FEADD
:104EA000C37C01D0346000E03C603D6035605B084D
:104EB000521E401EEFD2F0BD100C01402DE9F84FFC
:104EC000364D374C0027297860784FF001080129CA
:104ED00004D0032910D002292CD01FE0182804D2B6
:104EE0000C30C0B26070182801D318206070C0B2B6
:104EF0000C38CDF800800BE00C2801D30C38607022
:104F000010F0FF0F00D16770CDF8008060780C3092
:104F1000C1B20C2323A20020FFF7B6F92F70CDF801
:104F200000800C2320A261780020FFF7ADF900205B
:104F3000BDE8F88FFEF7DCFF6078194CE41C28B15F
:104F400005210C281ED0182820D023E0042084F846
:104F50000180DFF85890207000264FF01E0A00BF35
:104F600006EB460009EB80020AEB4000C0B20C23BE
:104F70000821CDF80080FFF7A7F9761CF6B20C2EB9
:104F8000EED307E002206070217002E0617006201D
:104F900020702F702F706078CAE70000300000206A
:104FA00031000020202000003E3E00005C990008F7
:104FB000F8B5224E224C00273178207A01250129AC
:104FC00004D003290FD002291ED02DE0102804D2CE
:104FD0000830C0B22072102801D310202072C0B255
:104FE0000838009509E020B1083810F0FF00207261
:104FF00000D127720095207A0830C1B2082311A28F
:105000006E20FFF741F90FE00F4920B1082805D0C5
:10501000102808D008E00D70032002E0022008707C
:105020000420487000E0A57037700095082307A29F
:10503000217A6E20FFF728F9F8BD0000300000202B
:105040000800002020200000340000203C3C00002C
:105050002DE9F843394D012400940C2336A2A97898
:105060006E20FFF711F9DFF8D880002798F80000CC
:10507000012804D003280ED002281FD058E0A878B9
:105080000C30C0B2A8700C2801D30C20A870C0B29C
:105090000C3800940BE0A8780C2801D30C38A870C9
:1050A00010F0FF0F00D1AF700094A8780C30C1B29F
:1050B0000C2324A26E20FFF7E7F839E0FEF718FF73
:1050C0001E48AA780721C01C1E2612B10C2A18D02F
:1050D0002EE001700621DFF870904170002500BFBE
:1050E00005EB450009EB800206EB4000C0B20C2343
:1050F00010210094FFF7E8F86D1CEDB20A2DEFD3F4
:1051000016E008220270DFF844904170002500BFCD
:1051100005EB450009EB800206EB4000C0B20C2312
:1051200010210094FFF7D0F86D1CEDB20A2DEFD3DB
:1051300088F80070BDE8F8833C3C00003100002096
:105140003000002020200000B49B00082C9C0008A8
:105150000CB50021244801910091026842F480328C
:105160000260026802F400320092019A521C01921D
:10517000009A002AF5D00268920333D501210091EC
:105180001A490A6842F010020A600A6822F007020F
:105190000A600A6842F004020A604168416041689E
:1051A0004160416841F480614160416821F47C11B3
:1051B0004160416841F4E8114160016841F080714B
:1051C000016001688901FCD5416821F0030141605B
:1051D000416841F0020141604168C1F38101022947
:1051E000FAD10CBD00910CBD00100240002002401D
:1051F00010B5134C134821780278914202D0017007
:10520000FEF776FE2078072819D2DFE800F00408C0
:105210000C1818101400BDE81040FEF737BEBDE8AA
:105220001040FCF76FBDBDE81040FCF7AFBCBDE817
:105230001040FCF7D3BDBDE81040FCF725BE10BD03
:10524000340000200000002010B5074C2078401CDE
:10525000C0B220700A2803D9FBF7BAFC00202070E6
:10526000BDE81040FDF740BAC40300200F4810B558
:10527000016841F00101016041680D4A114041603F
:1052800001680C4A11400160016821F4802101602D
:10529000416821F4FE0141604FF41F018160FFF776
:1052A00057FF05494FF00060086010BD0010024034
:1052B0000000FFF8FFFFF6FE08ED00E010B5406AC1
:1052C0000021C185C184FDF762FC10BD70B5446A40
:1052D0002068406994F83910C0F3C01000252129D6
:1052E00004D118B1E584204600F046F820684069F2
:1052F00094F83A10C0F38010222904D118B1E58542
:10530000204600F02BF8E06B40F01000E0632046F0
:10531000FDF73DFC70BD10B50146406A096809689B
:10532000890613D40021C1850168CA6822F48072FD
:10533000CA6001684A6922F001024A6101684A694B
:1053400022F040024A61202180F83A10FDF7DEFD8C
:1053500010BD10B5406AFDF7DAFD10BD0168CA68DE
:1053600022F49072CA6001684A6922F001024A611F
:10537000202180F83A1070470168CA6822F0C00204
:10538000CA60202180F83910704710B590F83A10A3
:10539000222901D0022010BD8168B1F5805F11D0B3
:1053A0000169002901681FD0496801F07F03816A03
:1053B0004A1C82620B70C18D491E0904090CC1850B
:1053C00018D02BE00269816A002A0268526805D071
:1053D000D2B20A80816A491C8162ECE7C2F30802FA
:1053E0000A80816A891CF7E74A68816A4B1C8362DC
:1053F0000A70E0E70168CA6822F02002CA6001680A
:10540000CA6822F48072CA6001684A6922F0010207
:105410004A61202180F83A10FDF778FD002010BD88
:105420002DE9F041044600680169E26821F4405129
:10543000114301612169A06808436169084321683B
:10544000CA6841F20C639A430243CA60206841690A
:10545000A26921F44071114341611E49206864250D
:105460003226884202D1FDF78BF901E0FDF778F989
:1054700000EBC00101EB001160686FF018078000BD
:10548000B1FBF0F2B2FBF5F2B1FBF0F37A4303EBC0
:105490008202B1FBF0F306EB0212B2FBF5F2B3FBB2
:1054A000F5F302F0F00202EB0312B1FBF0F3B1FBF3
:1054B000F0F0B0FBF5F0784303EB800006EB001052
:1054C000B0FBF5F0216800F00F0010448860BDE8E3
:1054D000F08100000038014090F83910212901D0F6
:1054E000022070478168B1F5805F016A0BD04A1CC9
:1054F0000262026809785160C18C491E0904090CD6
:10550000C1840ED017E009880268C1F30801516018
:1055100001690029016A02D0491C0162ECE7891C7B
:10552000FBE70168CA6822F08002CA600068C168AF
:1055300041F04001C160002070472DE9F0419846DC
:1055400017460E460446069D1DE0681C1BD02DB173
:10555000FDF7C4F8A0EB0800A84214D92068C16880
:1055600021F4D071C1602068416921F001014161DD
:10557000202084F8390084F83A00002084F83800AC
:105580000320BDE8F0812068006836EA000004D0FE
:105590000020B842D9D00020F3E70120F9E700004D
:1055A0000F4808B500680168C943C90612D40168EC
:1055B00041680091016840680948FDF7BCFA094854
:1055C0000068406808490978081A084908700849BD
:1055D00001200870BDE808400148FDF7D9BA000075
:1055E00084220020482300203800002036000020BC
:1055F000370000200F4808B500680168C943C90694
:1056000012D4016841680091016840680948FDF7BB
:1056100092FA09480068406808490978081A084958
:105620000870084901200870BDE808400148FDF7EE
:10563000AFBA0000C42200208C23002038000020D4
:10564000360000203700002070B5074D074C47F6A4
:10565000FF7605E0268000F00F01284603F020FCCD
:1056600020880104F6D470BDCC380020445C004092
:105670002DE9F041DFF87C801F4C47F6FF7605E00E
:10568000268005F00F01404603F00AFC2588280417
:10569000F6D41A4E68054FF0000709D54FF6FF30D3
:1056A0002080301D0780404603F070FE802030804F
:1056B000280513D54FF2FF7020803088410610482E
:1056C00004D03780018821F400610180018841F015
:1056D00008010180018841F004010180E80405D53A
:1056E0004EF6FF702080404603F0D6FA2780BDE8D2
:1056F000F0810000CC380020445C00404C5C00404D
:10570000405C0040FEE7000070B5040300F0FCF8C8
:1057100000F0A4F80F4E4FF4805500222946304681
:10572000FCF7D6FF2020FEF7E1FEC4F30740FEF7AA
:10573000DDFEC4F30720FEF7D9FEE0B2FEF7D6FE89
:10574000012229463046FCF7C3FFBDE8704000F057
:1057500085B80000000C014010B5FEF72DFB00F0ED
:105760003BF80449FF28088001D0002010BD01202B
:1057700010BD00003A0000202DE9F041DFF8548010
:1057800015460C4606464FF48057002239464046DF
:10579000FCF79EFF0320FEF7A9FEC4F30740FEF7C7
:1057A000A5FEC4F30720FEF7A1FEE0B2FEF79EFEC1
:1057B000002405E0FF20FEF799FE3055641CA4B2DA
:1057C000AC42F7D339464046BDE8F0410122FCF730
:1057D0007FBF0000000C014070B5124E00244FF452
:1057E0008055224629463046FCF772FF9020FEF78E
:1057F0007DFE0020FEF77AFE0020FEF777FE0020F7
:10580000FEF774FEFF20FEF771FE44EA0024FF203D
:10581000FEF76CFE0443012229463046FCF758FF90
:10582000204670BD000C014070B50B4E4FF4805502
:10583000002229463046FCF74BFF0520FEF756FEB6
:10584000FF20FEF753FE0446012229463046FCF7AE
:105850003FFF204670BD0000000C01402DE91040C4
:10586000FFF7E2FFC007FBD110BD00002DE9F05F9C
:10587000C1F30B06DFF88C800F0BC6F58054894608
:1058800082461546A24200D8144639038B464FF48F
:1058900080524046FFF770FF002006E0321818F8EB
:1058A0000210FF2903D1401C80B2A042F6D3A042CF
:1058B00022D23846FFF728FF002006E01AF8002021
:1058C0008319401C08F8032080B2A042F6D3594641
:1058D0004FF480524FEA080000F02CF8A5420FD098
:1058E000281BA244A144002685B24FF480547F1C9B
:1058F000A542CAD82C46C8E7224649465046EBE79F
:10590000BDE8F09F4C25002070B5094D4FF4805440
:10591000002221462846FCF7DBFE0620FEF7E6FDC6
:1059200021462846BDE870400122FCF7D1BE0000A8
:10593000000C01402DE9F0410746C8B2C0F5807463
:105940000E461546A24200D814464FF480782246EF
:105950003146384600F00EF8A54208D0281B2744EF
:10596000264485B24446A542F1D82C46EFE7BDE86F
:10597000F08100002DE9F04115460C460646FFF780
:10598000C3FFDFF850804FF480570022394640466D
:10599000FCF79EFE0220FEF7A9FDC4F30740FEF7C8
:1059A000A5FDC4F30720FEF7A1FDE0B2FEF79EFDC2
:1059B000002404E0305DFEF799FD641CA4B2AC4203
:1059C000F8D3012239464046FCF782FEBDE8F0419B
:1059D000FFF744BF000C01402DE9F843304C6078DC
:1059E000012805D0062803D0072801D0FFF700FCC6
:1059F00060782C4D082851D2DFE800F004083450BC
:105A0000503A3E47BDE8F843FFF758BA26480068C9
:105A100008B103F0B9FE25490026254C0868802707
:105A200048B10097884683B2217A224A206803F061
:105A300015FDC8F800602A781F492048FDF71AFABA
:105A40001F480178012908D1067000971D4A217A64
:105A500020681378184A03F001FDBDE8F8431A489E
:105A600003F098BBFFF7A4FABDE8F843FAF788BD46
:105A7000BDE8F843FFF7ECBA2A780F491348FDF761
:105A8000F9F9BDE8F84303F0EFBE2A780A490F4858
:105A9000FDF7F0F9BDE8F84303F092BEBDE8F883E6
:105AA0003400002038000020B8030020BC03002090
:105AB000940000209C39002040220020C4220020B5
:105AC0003700002036000020D4000020842200206F
:105AD0000907090E002804DB00F1E02080F800141B
