:020000040800F2
:10000000184B002045010008913A0008A72D000870
:100010002D3A000841070008CD55000800000000F7
:10002000000000000000000000000000A9420008DD
:100030005B1A000800000000A141000811510008EF
:100040005F0100085F0100085F0100085F01000810
:100050005F0100085F0100085F0100085F01000800
:100060005F0100085F0100085F0100085F010008F0
:10007000E9190008F5190008011A00080D1A00080E
:10008000191A0008251A00085F0100081155000818
:10009000395500085F0100085F0100085F01000892
:1000A0005F0100085F0100085F0100085F010008B0
:1000B0005F0100085F0100085F0100085F010008A0
:1000C0005F0100085F0100085F0100085F01000890
:1000D0005F01000869540008BD5400085F01000872
:1000E0005F0100085F0100085F0100085F01000870
:1000F0005F0100085F0100085F0100085F01000860
:100100005F0100085F0100085F0100085F0100084F
:100110005F0100085F0100085F0100085F0100083F
:100120005F0100085F0100085F0100085F0100082F
:10013000DFF80CD000F0C6F90048004771700008E5
:10014000184B00200648804706480047FEE7FEE7B8
:10015000FEE7FEE7FEE7FEE7FEE7FEE7FEE7FEE777
:10016000355100083101000840EA01039B0703D024
:1001700009E008C9121F08C0042AFAD203E011F8E6
:10018000013B00F8013B521EF9D27047D2B201E0A8
:1001900000F8012B491EFBD270470022F6E710B58C
:1001A00013460A4604461946FFF7F0FF204610BDE5
:1001B00030B504460020034600E05B1C934203D2A6
:1001C000E05CCD5C401BF8D030BD034611F8012B3C
:1001D00000F8012B002AF9D1184670472DE9FE4F8F
:1001E00081EA030404F0004421F0004100944FF040
:1001F000000B23F0004350EA01045ED052EA0304EE
:100200005BD0C3F30A54C1F30A552C44A4F2F3346F
:100210000194A0FB0254C1F3130141F48011C3F314
:10022000130343F4801301FB024400FB034E840AD2
:10023000970A44EA815447EA8357A4FB076802956A
:100240008D0A05FB07854FEA932C04FB0C54270508
:10025000029D4FEA065847EA1637B5EB08056EEBE4
:10026000070C870E920E47EA811742EA8312A7FB1A
:100270000201B6EB0B0164EB00042B0D43EA0C33D7
:100280005E1844EB1C50DA465146E7FB0201C5F309
:1002900013044FEA0B3343EA14534FEA0432019C30
:1002A00043EA0603A4F10C040294009CCDE900B4D7
:1002B00000F0BAF803B0BDE8F08F00200146F9E77E
:1002C0002DE9F04D81EA030404F0004B21F00045D4
:1002D00014464FF0000A23F0004150EA050220D0F6
:1002E00054EA01021DD0C5F30A570246C5F31303B1
:1002F000C1F31300C1F30A5640F4801543F4801390
:10030000A7EB0608101BD64608F2FD3873EB050074
:1003100002D308F1010801E092185B41B8F1000F27
:1003200003DA00200146BDE8F08D00204FF4801173
:10033000064684460EE0171B73EB050705D3121B18
:1003400063EB050306434CEA010C49084FEA300011
:1003500092185B4150EA0107EDD152EA030012D036
:1003600082EA040083EA0501084305D0101BAB4173
:1003700006D20122002306E000224FF0004302E0F3
:100380006FF0010253101AEB06004CEB085110EB12
:100390000A0041EB0B01BDE8F04D00F036B80EB598
:1003A00040F2334102910021CDE900110A460B468B
:1003B00000F03AF803B000BDC1F30A5210B5C1F322
:1003C000130140F2FF3341F480119A4201DA002018
:1003D00010BD40F233439A42A2F2334203DC524250
:1003E00000F003F810BD904010BD202A04DB203A35
:1003F00021FA02F00021704721FA02F3D040C2F145
:100400002002914008431946704710B5141E73F13D
:10041000000408DA401C41F1000192185B411A43C4
:1004200001D120F0010010BD2DE9F04D92469B4610
:1004300011B1B1FA81F202E0B0FA80F220329046B6
:1004400000F052F804460F4640EA0A0041EA0B0168
:1004500053465A46084313D0114653EA010019D0B7
:10046000C8F140025046FFF7C0FF05460E46504611
:100470005946424600F038F8084305D0012004E010
:1004800020463946BDE8F08D0020054346EAE07677
:100490002C4337430A986305E40AA0EB08000022C6
:1004A000FD0A44EA47540A3002D500200146E9E734
:1004B000010510196941DDE9084500196941BDE8E8
:1004C000F04DA2E7064C074D06E0E06840F001035E
:1004D00094E8070098471034AC42F6D3FFF72CFE9F
:1004E00098BE0008B8BE0008202A04DB203A00FAB3
:1004F00002F1002070479140C2F1200320FA03F37B
:1005000019439040704770B58C1810F8015B15F0D6
:10051000070301D110F8013B2A1106D110F8012B75
:1005200003E010F8016B01F8016B5B1EF9D12B079A
:1005300005D40023521E0DD401F8013BFAE710F850
:10054000013BCB1A921C03E013F8015B01F8015B3D
:10055000521EF9D5A142D8D3002070BD2DE9FC5F11
:1005600007F0CAFB0825484E012400287BD0082349
:1005700046A218210020009403F058FCCDE9005455
:100580000423F27818216E2003F014FCB078434F56
:10059000012802D0387809284FD1DFF80481DFF82C
:1005A0000491012298F8000000EB800109EB810121
:1005B0003D4806F075F9DFF8F4A04FF4005570B12E
:1005C00008233BA210210020009403F02FFC02B06E
:1005D00029465046BDE8F05F012201F03BBF03F021
:1005E00059FA00222946504601F034FFDFF8D0A026
:1005F00000254FF0230B00BF05EB45000AEB8002FE
:100600000BEB4000C0B20C231021009403F0DCFC83
:100610006D1CEDB2082DEFD32A4C002598F8000090
:1006200000EB800109EB810001F050FB38B100BF05
:1006300007F062FB002800D0B570BDE8FC9F387859
:1006400001280CD007F058FB0028E7D103F022FA6C
:100650003D700520207002206070E9E703E03D70E6
:1006600025706570E4E7B470CDE900540423F27896
:1006700018216E2003F09EFB082313A218210020EE
:10068000009403F0D3FBD8E704000020436F6E6EA4
:1006900065637465642121210000000011000020C1
:1006A00012000020041F0020E4030020001001407D
:1006B0004F70656E2042696E206661696C656400EA
:1006C0003694000818000020446973636F6E6E65ED
:1006D0006374656400000000704700000149012058
:1006E0000870704711000020064810B541780129B4
:1006F00003D000210170417010BD012080F31388E8
:1007000005F05EF91800002070477047014902208B
:1007100008707047110000200149092008707047D7
:10072000110000207047704701490320087070478E
:1007300011000020012080F3138805F041F9704773
:10074000FEE70000072903D000EB810082627047BA
:100750005FF0000100EB8103491CC9B29A620729CE
:10076000F8D370472DE9F0410C4605461F46164662
:1007700050212046FFF711FD201D2946202200258B
:1007800011F8013B00F8013B33B3521EF8D100BF12
:1007900014F8240F20F00F00093020F0F000903002
:1007A00020700920A07044F8246C607867F3010081
:1007B0006070B04714F8011F60F3830104F8251B33
:1007C000074804F8025B416844F84C194460BDE8EE
:1007D000F08100BF00F8015B521EFBD1D8E700009A
:1007E0002000002070B5044600688047694E00254F
:1007F000707094F82510C1F38102824228D094F8D9
:100800004A20521CD2B284F84A20022A20D360F334
:10081000830184F8251084F84A5094F8240000F0ED
:100820000F01092904D0022902D0010705D00FE0E9
:1008300020F00F0084F824000AE0317891B320F012
:100840000F003570401C84F82400042084F8260032
:1008500094F8240010F00F0130D0012959D002295A
:100860001FD194F84910491CC9B284F849100F29C6
:1008700017D320F00F00093020F0F000903084F8FA
:10088000240000090DD084F84950A16A09B120461E
:10089000884714F8240F20F00F00093020F0F000F2
:1008A000207070BDFFE720F00F00401C84F824008A
:1008B000E16A0029CCD020468847C9E794F8250092
:1008C000C0F3810100F003008142EAD184F8265090
:1008D00094F84B00401CC0B284F84B003228E0D39F
:1008E00094F84800401C10F0FF0084F8480008D03D
:1008F00084F84850032084F82600616B09B1204633
:10090000884794F84B00FF28CBD1322084F84B0065
:10091000C7E794F8261081B1032931D00429C0D14A
:1009200020F00F00093084F84B5020F0F0003570B3
:1009300010F1400084F82400B3E794F849100F291F
:1009400012D80221B1EB101F0ED184F82610216BB2
:1009500009B12046884714F8240F20F00F00093011
:1009600020F0F00090309BE720F00F0004F8495F82
:10097000801C20F0F000A570203004F8250C90E7D2
:1009800020F00F00093084F84B5020F0F000357053
:100990003030CFE7200000201FB5002001904FF439
:1009A000E0700090012002900320039069463348D4
:1009B00001F054FC0023324A324933A0FFF7D2FE43
:1009C000334A00212F48FFF7BDFE324A02212D484D
:1009D000FFF7B8FE304A03212A48FFF7B3FE2F4A3B
:1009E00004212848FFF7AEFE264900232C4A503147
:1009F0002CA0FFF7B7FE23482C4A00215030FFF708
:100A0000A1FE20482A4A02215030FFF79BFE1D48D4
:100A1000284A03215030FFF795FE1A48264A042140
:100A20005030FFF78FFE17490023244AA03124A03D
:100A3000FFF798FE1348244A0021A030FFF782FEFA
:100A40001048224A0221A030FFF77CFE0D48204AC0
:100A50000321A030FFF776FE0A481E4A0421A03089
:100A6000FFF770FE074801F065FA0648503001F0C4
:100A700061FA0448A03001F05DFA1FBD000C01408E
:100A8000A541000894200020427574746F6E3100F7
:100A9000DD060008D9060008E90600080907000875
:100AA000B1410008427574746F6E32000D07000882
:100AB0000B0700081907000825070008BD410008BA
:100AC000427574746F6E3300290700082707000809
:100AD000350700083F070008054810B5446803E0E3
:100AE0002046FFF77FFEE46C002CF9D110BD00001A
:100AF000200000202DE9F04F87B00446059000202B
:100B0000CDE9011001F10209C4490870C44914F883
:100B1000012B8246CA75897D80468A4270D214F8BC
:100B2000015B002D6CD000BF14F8016BF10701D000
:100B30000B2100E00A218B46B10775D5B8F1000FF3
:100B400041D0B748DA4547890ED1F0060CD4694642
:100B5000304602F023FB022817D17F1E03D3AF4992
:100B600009780029F3D004E1BAF10A0F03D00A2072
:100B7000824602F03BF9DFF8A48269460E2002F0BB
:100B80000DFB022804D04FF000080128EBD108E04B
:100B90007F1E03D398F800100029EED04FF0000814
:100BA000E7E0009989F80010009A09F10101120AA2
:100BB00001F8012B009A120C01F8012B009A120E79
:100BC00001F8012B8946F10650D5E17854F8040B61
:100BD000934F61F31F600490B88959460390DA453A
:100BE00003D008468A4602F001F9BB467F890021FE
:100BF000304602F0D3FA022803D0012808D108E0D9
:100C0000DDE07F1E791C03D0844909780029EED0ED
:100C1000AFE0BBF80A706946304602F0BFFA02281E
:100C200003D0012818D107E041E07F1E14D37B498F
:100C300009780029EFD00FE0DBF81010009A11407E
:100C4000049A914208D00399491E0391491C03D08C
:100C5000724909780029DCD0DBF8102000990A409D
:100C600004998A4271D040F010006EE0B8F1000F94
:100C700075D15946DA4503D008468A4602F0B6F8DF
:100C80006748DFF898B147890021304602F086FABC
:100C9000022802D001286CD106E07F1E69D39BF8A0
:100CA00000100029F0D064E04FF0010857E0B8F1DF
:100CB000000F2DD0BAF10A0F03D00A20824602F0AD
:100CC00095F85748478969460E2002F067FA0228CE
:100CD00002D001284DD107E07F1E791C49D04F4931
:100CE00009780029EFD044E0009889F800000099C5
:100CF00009F10100090A00F8011B00994FF00008F2
:100D0000090C00F8011B0099090E00F8011B81462F
:100D1000E17854F8040B61F31F600090B10603D52D
:100D20003F49086101201AE05946DA4503D00846D8
:100D30008A4602F05BF83A48DFF8E0B04789694636
:100D4000304602F02BFA022802D0012811D106E029
:100D50007F1E0ED39BF800100029F0D009E0029905
:100D6000491C02912D49097819B96D1E7FF4DCAE3A
:100D700009E045B114F8011B8A0701D5C90600D561
:100D8000241D6D1EF5E7012838D1BAF10A0F02D0F3
:100D90000A2002F02BF82248204EB8F1000F4589B6
:100DA00021D069460E2002F0F9F9022802D001286C
:100DB00024D105E06D1E21D331780029F1D01DE04A
:100DC000009989F80010009A09F10101120A01F84E
:100DD000012B009A120C01F8012B009A120E01F857
:100DE000012B89460AE000210E2002F0D7F90228E3
:100DF00004D16D1E02D331780029F4D0DDE901124F
:100E00000A700199487001990598A9EB0101201A0F
:100E100007B041EA0040BDE8F08F00002800002044
:100E2000143700202DE9F84FDFF83C8100270446F5
:100E300038460D4601F1030A88F800704B4914F852
:100E4000012BCA75897D8A4222D234F8026B002EAA
:100E50001ED014F8019B5FEAC97001D00B2000E09E
:100E60000A20834601F0C2FF5FEA89705DD53F48E2
:100E700044890021484602F091F9022802D0012855
:100E800069D134E0641E66D398F800100029F0D0D0
:100E900061E03EB9BBF10A0F02D00A2001F0A6FFC3
:100EA0004FF00E09314844896946484602F076F908
:100EB000022802D001284ED106E0641E4BD398F8D8
:100EC00000100029F0D046E000998AF80010009A3E
:100ED0000AF10101120A01F8012B009A120C01F823
:100EE000012B009A120E01F8012B8A467F1C761EF8
:100EF000CFD230E0E17854F8040B61F31F6000902A
:100F00001A48B0F80A806946484602F047F90228B4
:100F100002D001281FD107E0B8F101081BD3124904
:100F200009780029EFD016E07F1C761EE2D2BBF1D3
:100F30000A0F02D00A2001F059FF0C480A4E4489DA
:100F400000210E2002F02AF9022804D1641E02D3E7
:100F500031780029F4D02F70390A6970A870AAEB93
:100F60000500BDE8F88F000028000020143700209D
:100F70002DE9FF470278A2F180031F2B04D800F06F
:100F800097F904B0BDE8F08701F8012B0C4610F882
:100F900001CB01250221FF23DFF8EC920027BB4A99
:100FA0004FF00116BCF11E0F73D2DFE80CF00F3AC0
:100FB0004B5EEFEEED72EC6C737272727272777B55
:100FC00095A3B1D5FF727272727272AC0278611C15
:100FD0000020062A21D006DC052A1ED2DFE802F016
:100FE0001D1D1D1D0C00F02A0DD0FD2A15D0FE2A56
:100FF00011D0FF2A11D109E0A54802680A604068B3
:101000004860082009E01320087005E040200870BF
:101010004F70022001E00D700120207000F10210DD
:10102000AFE705789B4A4FF4005125B1012D02D05E
:1010300023704E461DE14078C00701D0516126E083
:10104000116124E02746047834B1012C05D0022C2C
:1010500007D000243C700CE10124157003F058F80F
:10106000F8E7117003F006F8F4E7177040F6036034
:10107000CDE90007CDE902716946874801F0EEF835
:1010800027702E46F5E000884000401EFDD12770F5
:10109000CFE7F5E0677027700E46EAE0214600F0E2
:1010A0006FFB33E0C17800687C4E61F31F6000285D
:1010B0006DD07B49884202D3557055600AE079496A
:1010C00057700144B1FBF0F0022801D9801E00E006
:1010D000012050602770CCE010F8015B0DB94FF48F
:1010E00080750146284603F05DFDED1DE808277078
:1010F000060458E0007800F00301491C1175C0F3A4
:1011000080005075E6E7214600F0E2F80646B0E0C0
:1011100004F8017B25460124264610F8017B16E0E1
:1011200010F8018B814601462A46404601F0E6FF51
:1011300018F03F0000D14020C01DC1080C44641CC1
:1011400009EB01005FEA086201D50D440E447F1EE1
:10115000E6D264F31F468CE010F8015B0021957520
:101160000B460BE002EB030C10F8016B8CF81860D7
:1011700002EB430C5B1CACF820103144AB42F1D3C2
:1011800000200CE012E077E053E033E027E024E0B9
:1011900013181B7EC91A02EB4003401C1986A84293
:1011A000F6D327702E0406F1011662E011780229A9
:1011B00013D10078D075917D88420ED20E2001F0B7
:1011C00015FE01F031FF27706070010AA170010C5B
:1011D000E170000E2071344E4BE0237049E001783D
:1011E0001172B0F801105181B0F80300908127709E
:1011F0002E4E3EE012782146012A14D0022A15D044
:10120000421C12F8013B43B112F8014BA50701D56E
:10121000E40600D5121D5B1EF6D1101A0F700004F3
:101220004F70801C72E700F089F86FE7FFF762FCEF
:101230006CE705461078214601280BD002280DD016
:101240000F704F70A7700320E97889070AD540F422
:1012500080260EE0284600F001FAF5E72846FFF761
:10126000E1FDF1E7B5F801104FF4802202EB814671
:10127000064306F1011084E6214600F085FB45E7B0
:1012800004F8013C30467CE60100020014370020DF
:1012900058B0000800100140000C0140010004009B
:1012A00020A107003F420F000500010001000500DA
:1012B00000784FF0011208701046704710B502F028
:1012C000D9FA02F093FABDE8104002F045BB0000E5
:1012D0002DE9F047002201F8012B012510F8017BD0
:1012E0008A46A946044620E014F8016B16F03F0038
:1012F00000D14020C01D4FEAD008300608D50E4866
:10130000016821F0F0010160016841F08001016095
:1013100052462146304602F0C9FF300602D5C2448B
:10132000C14401E0444445446D1C7F1EDCD249EABF
:101330000540BDE8F0870000040C01402DE9F04FA6
:1013400087B08B4601F1020904460590C14900208F
:101350000290087001906578A41C8046002D6FD023
:10136000DFF8F4A214F8016BB1076AD5B8F1000FE9
:101370003BD0BAF80A7006F0110001280AD0DFF855
:10138000D48269460E2002F0D3FF022812D04FF01B
:10139000000805E06946304602F0CAFF022802D084
:1013A000012806D10FE07F1E03D3AA49097800293E
:1013B000F0D0FCE07F1E03D398F800100029E0D0A5
:1013C0004FF00008F3E0009989F80010009A09F145
:1013D0000101120A01F8012B009A120C01F8012BED
:1013E000009A120E01F8012B8946F1064DD5E178DD
:1013F00054F8040B61F31F600490BAF80C000390DA
:10140000F00712D0BAF80A700021304602F090FFBF
:10141000022802D0012807D107E07F1E791C03D0E3
:101420008C4909780029EFD0C1E0BAF80A70694602
:10143000304602F07DFF022804D0012819D108E0CF
:10144000D5E060E07F1E14D3824909780029EED0F0
:101450000FE0DAF8102000990A4004998A4208D077
:101460000399491E0391491C03D07A490978002940
:10147000DBD0DAF8102000990A4004998A4201D0A2
:1014800040F01000012816D13BE0BAF80A70F107CD
:1014900015D0B8F1000F34D10021304602F048FFDA
:1014A000022802D0012806D106E07F1E7FD36949B9
:1014B00009780029F0D07AE04FF0010821E0694670
:1014C000304602F035FF022802D001286FD106E035
:1014D0007F1E6CD35F4909780029F0D067E000993E
:1014E00089F80010009A09F10101120A01F8012B94
:1014F000009A120C01F8012B009A120E01F8012B30
:101500008946002148E0B8F1000F25D0BAF80A70EA
:1015100069460E2002F00CFF022802D0012846D1B5
:1015200006E07F1E43D34B4909780029F0D03EE006
:10153000009889F80000009909F10100090A00F8F3
:10154000011B00994FF00008090C00F8011B0099DD
:10155000090E00F8011B8146E17854F8040B61F391
:101560001F600090B10603D5CAF81000012014E0F6
:10157000BAF80A706946304602F0DAFE022802D054
:10158000012814D107E07F1E791C10D03149097859
:101590000029EFD00BE0012101910299491C029131
:1015A0002C49097819B96D1E7FF4DCAE09E045B10C
:1015B00014F8011B8A0701D5C90600D5241D6D1E2C
:1015C000F5E7012837D1B8F1000F24D0BAF80A5056
:1015D000204E69460E2002F0ABFE022802D0012800
:1015E00029D105E06D1E26D331780029F1D022E003
:1015F000009989F80010009A09F10101120A01F816
:10160000012B009A120C01F8012B009A120E01F81E
:10161000012B89460FE0019969B1BAF80A500D4EC5
:1016200000210E2002F084FE022804D16D1E02D398
:1016300031780029F4D002998BF800108BF8010062
:101640000598A9EB0B01201A07B041EA0040BDE85C
:10165000F08F000028000020143700202DE9F84FFB
:10166000DFF814810027044638460D4601F1030ACD
:1016700088F80070B4F80160E41C002E73D014F8F0
:10168000019BDFF8F8B05FEA89715CD55FEAC97148
:101690003CD0BBF80A400021484602F049FE02282F
:1016A00002D001285FD131E0641E5CD398F80010AD
:1016B0000029F0D057E026B95FEAC97001D04FF099
:1016C0000E09BBF80A406946484602F031FE02287E
:1016D00002D0012847D106E0641E44D398F80010D8
:1016E0000029F0D03FE000998AF80010009A0AF132
:1016F0000101120A01F8012B009A120C01F8012BCA
:10170000009A120E01F8012B8A467F1C761ED2D257
:1017100029E0E17854F8040B61F31F600090BBF8F6
:101720000A806946484602F003FE022802D00128DA
:1017300019D107E0B8F1010815D30F49097800293C
:10174000EFD010E07F1C761EE3D2BBF80A400A4EB1
:1017500000210E2002F0ECFD022804D1641E02D309
:1017600031780029F4D02F70390A6970A870AAEB7B
:101770000500BDE8F88F0000280000201437002085
:101780002DE9F0478A464179D0F80260447861F348
:101790001F665B49057886B0E00701F1040206D0B8
:1017A000EB074FF4806001D0086000E01060A007F4
:1017B00006D5AB074FF4007001D5086000E010605B
:1017C00060074FF0010307D5A808C00701D04D48B6
:1017D00001E04C48001D036020064FF000072AD5A9
:1017E000E8095FEAC078DFF8209100970197029737
:1017F00003974FF400604FF0020C08D0086000908F
:101800006946CDF80CC0484600F028FD13E0106092
:1018100000900DF10408112088E809106946484637
:1018200000F01CFD06F068FA38480490042204A970
:10183000374806F089FD33493148091F001FEEB3D0
:10184000344A964200D91646334B06EBC602D60000
:10185000D3F804205FEAC47C05D0D0F800C0CCF3F4
:10186000802CAC4523D15FEA847C06D5D0F800C03B
:10187000CCF3402CBCEB550F19D15FEA447C06D564
:10188000D1F800C00CF0010CBCEB950F0FD15FEA52
:10189000846C02D55FEA551C09D15FEA046C0CD553
:1018A000D0F800C0CCF3C02CBCEBD51F05D0D3F8CA
:1018B00004C0ACEB020CB445CCD300E002E04FF026
:1018C000E022176102680368C2F38022C3F3402359
:1018D000096842EA430201F0010142EA8102094932
:1018E000083909680068C1F3400142EAC101C00A31
:1018F00041EAC0108AF8000006B00848BDE8F08749
:10190000100C014010080140000C01400400FA05D1
:101910000CED00E0C0C62D00001000E00100060044
:10192000174808B50021017041708A1E426001729B
:1019300064224281818101220161027541758175B4
:101940001048816941F004018161816901F004015D
:101950000091816941F008018161816901F008010C
:101960000091816941F010018161806900F01000EF
:10197000009002F07FFBBDE8084002F0C9BB000008
:101980001437002000100240F8B504461448002621
:101990000D460278012A03D0FF21022A10D10AE065
:1019A0002179D4F8010061F31F600090694600209E
:1019B00002F0BEFC10E02278C275807D824201D325
:1019C00029700AE0082001F011FA2179D4F8010009
:1019D00061F31F6001F038FE2E700248F8BD000070
:1019E0001437002001000500014800F015BB00007D
:1019F00090240020014800F00FBB00004C24002080
:101A0000014800F009BB00008C220020014800F0D2
:101A100003BB0000D0220020014800F0FDBA000006
:101A200014230020014800F0F7BA000058230020DA
:101A300030B590F840500124AC40C56B6C60046830
:101A400063604368102B036803D099600068C2602C
:101A500030BD9A600068C16030BD70472DE9FC411F
:101A6000254C002625A16670254804F0EDFFE8BB53
:101A70002449234805F0BEF832E02248407AA8B352
:101A800094F90100204F1F4900EB800007EB800014
:101A90000931FEF79AFB01250820CDE9000561799F
:101AA0002B4601F10800C208002002F083F9082348
:101AB000009516A26179184602F0B8F9009594F9DC
:101AC0000100082300EB800007EB80026179102001
:101AD00002F0ACF96079083060716078401C607089
:101AE0000849074805F086F8002800E000E0C4D067
:101AF0006671BDE8FC81000004000020303A00005F
:101B0000240600200C060020041F00202E000000E8
:101B10002DE9FC4100240126144DDFF854800827EC
:101B2000CDE900760123621CA979002002F042F978
:101B3000082300960FA2A979184602F077F90096BB
:101B4000A9790823C808C0EBC002102058F8322039
:101B500002F06CF9A879641C0830E4B2A871042C76
:101B6000DED30020A871BDE8FC8100000400002045
:101B7000C43900202E0000007CB501240825CDE9E1
:101B80000054002123462246084602F013F9082398
:101B90001CA200211846009402F048F91A4800944B
:101BA0001A4900780823C0EBC00051F8302000210A
:101BB000102002F03BF9CDE9005401230222082154
:101BC000002002F0F7F808230EA2194618460094E8
:101BD00002F02CF90E4800940E490078082300EB1F
:101BE000800001EB80021946102002F01FF9082343
:101BF00009A210211E20009402F018F9BDE87C40D3
:101C000002F01AB82E00000038000020C43900206D
:101C100012000020041F0020537461727420466C6F
:101C2000617368002DE9FC4101240C27CDE90074A3
:101C3000002123462246084602F0BCF80C2320A2CD
:101C400000210820009402F0F1F80025DFF87480EC
:101C50005FF01E0605EB450008EB800206EB400036
:101C6000C0B20C230021009402F0AEF96D1CEDB25D
:101C70000A2DEFD3CDE900740123022208210020B0
:101C800002F098F808210C230DA20846009402F0F7
:101C9000CDF80D4F002500BF05EB450007EB800296
:101CA00006EB4000C0B20C230821009402F08CF92E
:101CB0006D1CEDB20A2DEFD3BDE8FC4101F0E2BF8F
:101CC0002E0000006E950008E69500082DE9FC5FE7
:101CD00001460122814804F0E3FD81490870E0B922
:101CE000804D012400272C7006F006F8002815D03E
:101CF00006F03EFC88B906F021FC70B906F066FCDF
:101D000005F0FAFF002809D000F0AAFB0646E0061D
:101D100006F0A6FB20B106F009FC0020BDE8FC9F00
:101D200006F084FB0028F8D1DFF8B0A14FF48068FA
:101D30004FF00C094FF47A7B287800284ED0694B7D
:101D400042460A336849654804F0AFFE6889404559
:101D500001D20020287007F10060424662490090DD
:101D600006F0ACFB0028D8D142466049009806F046
:101D7000BBF842465C495D48FEF71AFA48B101F0EB
:101D800089FE0C235AA208211420009402F04EF878
:101D90009CE007F58067DAF80C00FEF700FBCDE960
:101DA00000013846FEF7FBFADDE90023FEF788FA6A
:101DB0000022534BFEF712FAFEF7FEFACDE900942B
:101DC000024603230021322001F0F4FF0C234DA230
:101DD00000214620009402F029F8ADE705F08CFFC1
:101DE00000289BD0E878401CE87000F039FB811B8C
:101DF000D846B1FBF8F2CDE9009400214F4602230A
:101E0000084601F0D7FF0C233FA200210D200094CB
:101E100002F00CF800F024FB801B0A21B0FBF1F06B
:101E20006421B0FBF1F201FB1202CDE90074022340
:101E30000021122001F0BEFF0C2334A200211E203D
:101E4000009401F0F3FF00F00BFB811BB1FBF8F1F4
:101E5000DAF80C00CDE90074B0FBF1F202230021A6
:101E60005A2001F0A7FF0C2329A200216920009429
:101E700001F0DCFF4FF40051274800F0E4FA0020A5
:101E800006F08EF8CDE9007403236422002132208D
:101E900001F090FF0C231BA200214620009401F0CA
:101EA000C5FF1E4F00264FF0230800BF06EB46007B
:101EB00007EB800208EB4000C0B20C231021009415
:101EC00002F082F8761CF6B2082EEFD3584600F0E6
:101ED000B3F901F0DFFD2C7001201FE7E4030020BF
:101EE0000000002004000020040B0020041B002040
:101EF000566572696679204661696C64212100002B
:101F000000005940250000002E0000005300000092
:101F10004B622F7300000000001001400E95000876
:101F200080EA104080EA10200149C0B2085C704786
:101F300060B0000890F82600704710B590F82110A6
:101F40000022022905D00421816380F8202001208D
:101F500010BD01680B6823F00E030B6001680B686D
:101F600023F001030B6090F84030C46B012101FAAB
:101F700003F3636080F8211080F82020104610BD24
:101F800010B590F821100024022903D004218163A8
:101F900001243DE001680A6822F00E020A6001682F
:101FA0000A6822F001020A601A4A0168914201D1CE
:101FB000012121E0174A1432914201D110211BE086
:101FC000144A2832914201D1891515E0114A3C3258
:101FD000914201D189140FE00E4A5032914202D150
:101FE0004FF4803108E00B4A6432914202D14FF441
:101FF000801101E04FF08071064A083A51600121DA
:1020000080F82110002180F82010416B01B1884731
:10201000204610BD080002402DE9F05FC16B0C683E
:1020200001680B68D0F840C0042202FA0CF2494D56
:10203000DFF824A1494E4A4FDFF828B1DFF828E144
:1020400022422CD05A072AD50A68920603D40A687D
:1020500022F004020A600168A94201D1042219E0B9
:10206000514501D1402215E0B14202D14FF48062C6
:1020700010E0B94202D14FF480420BE0594502D141
:102080004FF4802206E0714502D14FF4800201E056
:102090004FF080622F4908394A60C16A3BE04FF037
:1020A000020808FA0CF818EA040F4FF000094FF084
:1020B000010235D05FEA837832D50B689B0605D4E0
:1020C0000B6823F00A030B6080F821200168A94205
:1020D00001D1022219E0514501D1202215E0B1427F
:1020E00002D14FF4007210E0B94202D14FF4005215
:1020F0000BE0594502D14FF4003206E0714502D1A0
:102100004FF4001201E04FF00072124908394A60A2
:1021100080F82090816A00291AD0BDE8F05F084756
:10212000082505FA0CF5254212D01B0710D50B68BF
:1021300023F00E030B6090F84010C36B02FA01F11C
:102140005960826380F8212080F82090016BE2E7DB
:10215000BDE8F09F080002401C0002403000024031
:1021600044000240580002406C00024030B528B3E1
:1021700008C8134914221944B1FBF2F18900C16364
:1021800010498163022141771A6843F6F0718A434E
:10219000D0E900142143D0E902452C4321430469CE
:1021A000214344692143846921431143196000217B
:1021B0004163012242770177084630BD012030BDDE
:1021C000F8FFFDBF0000024070B5044690F8200003
:1021D000002501280CD0012084F8200094F821600B
:1021E0000020012E06D084F820000225284670BD6C
:1021F000022070BD022684F82160A0632068066872
:1022000026F0010606602046FFF712FCE06A00286F
:102210002068016802D041F00E0106E021F00401BF
:1022200001602068016841F00A01016020680168CE
:1022300041F001010160D9E770B5044600F010F9E2
:102240000546601C02D004480078044400F008F9F8
:10225000401BA042FAD370BDD00300202DE9F84FF7
:10226000DFF8B891002409F1040A0AF1040B2346AF
:102270000F270BF1040EC9E00125A5402A40AA4210
:102280007DD1674ED1F804C0ACEB0608B44532D01E
:1022900014DCBCF1030F3AD009DCBCF1000F2AD0EA
:1022A000BCF1010F1CD0BCF1020F31D11DE0BCF11B
:1022B000110F17D0BCF1120F2AD119E0B8F5881F01
:1022C00019D006DCB8F5803F15D0B8F5801F1FD1B6
:1022D00011E0B8F5001F0ED0B8F5041F18D10AE0C0
:1022E000CB6815E0CB681B1D12E0CB6808330FE00C
:1022F000CB680C330CE08B682BB1012B4FF008033B
:1023000003D0456104E0042302E0056100E00023FE
:10231000FF2A01D8064601E000F104064FEA8405D1
:1023200001D9A5F12005D6F8008007FA05FC28EAB6
:102330000C0803FA05F548EA0508C6F800804D6860
:10234000ED0062D5374DAE6946F00106AE61AD696C
:1023500024F0030605F001050095334D06EB050C4E
:10236000DCF80850A607360F07FA06F825EA080534
:10237000DFF8B880404503D14FF0000817E044E093
:10238000DFF8AC80404502D14FF001080FE0DFF8E4
:10239000A480404502D14FF0020808E0DFF89880A1
:1023A000404502D14FF0030801E04FF0040808FA5D
:1023B00006F848EA0508CCF808804D68D9F80060AE
:1023C000ED034D4601D5164300E096432E604D685F
:1023D000DAF80060AD03554601D5164300E0964398
:1023E0002E604D68DBF80060ED025D4601D51643B6
:1023F00000E096432E604D68DEF80060AD02754641
:1024000001D5164300E096432E60641C0D682A46F1
:10241000E5407FF431AFBDE8F88F000000040140D3
:1024200000001110001002400000014000080140AF
:10243000000C014000100140001401408068084079
:1024400000D001207047C2680A4201D04161704744
:10245000016170470AB1016170470904FBE70000A0
:102460000148806870470000D0030020024881685E
:102470000278114481607047D0030020002809DBF6
:1024800000F01F02012191404009800000F1E0208E
:10249000C0F8001170470000F0B40E4B1B680C46EA
:1024A000C3F30223C3F10705042D00D90425191D28
:1024B000072901D2002300E0DB1E012606FA05F100
:1024C000491E214099409E40761E16403143F0BC83
:1024D00003F066BA0CED00E00148006870470000A8
:1024E000C80300200448054900684968044AC1F34C
:1024F0000221515CC8407047C80300200010024010
:10250000CCB200080448054900684968044AC1F390
:10251000C221515CC8407047C8030020001002402F
:10252000CCB2000870B5040005D00025A56294F86F
:10253000510010B106E0012070BD84F850502046D3
:1025400000F02EF8022084F851002068016821F084
:1025500040010160D4E901010843D4E903121143A9
:10256000084361690843218B01F400710843E16964
:102570000843216A0843A16A084321680860A069EA
:10258000042101EA1040216848602068C16921F4F3
:102590000061C1616565012084F85100002070BDB3
:1025A0002DE9F04186B00024009401940294039434
:1025B00006463E4B02683E48022103259A424DD111
:1025C000826942F480528261826902F480520492EC
:1025D000826942F0040282618069DFF8D88000F0ED
:1025E000040004902020CDE900010395694640468F
:1025F000FFF734FE80271120CDE90070694603956E
:102600004046FFF72BFE4020CDE9000469464046D6
:102610000294FFF723FE294D274801C5102091C5DC
:10262000264845F810496C61AC61EC61FFF79EFDEE
:10263000B5646E62214D204844351438C5E9000464
:10264000C5E902472C616C61AC612846EC61FFF77B
:102650008DFDF5646E6206B0BDE8F081184B9A42BC
:10266000F9D1C26942F48042C261C26902F4804277
:102670000492826942F0080282618069039500F049
:10268000080004904FF42040CDE900010D4D69464B
:102690002846FFF7E3FD4FF48040CDE9000469468A
:1026A00028460294FFF7DAFDD5E70000003001402C
:1026B0000010024000080140300002404C2400207D
:1026C00000380040000C01402DE9F84F044690F816
:1026D000500000270A9E1D4692468B464FF0010986
:1026E00001280ED0012084F85000FFF7B9FE804683
:1026F00094F85100616801280CD0B1F5827F07D1B0
:1027000002E00220BDE8F88FA16809B9042801D0D1
:102710000227C2E0BBF1000F27D0BAF1000F24D08E
:102720001DB394F85100042802D0052084F851000C
:1027300000206065C4F838A0E587A587C4F830B0EC
:10274000E586A5862064606420680168490603D494
:10275000016841F040010160E068B0F5006F606819
:1027600005D0E8B3012D46D07FE0012795E008B100
:10277000012D39D1206B21680088C860206B801C36
:102780002063E08E401EE0862EE020688168890785
:102790000FD5E18E69B1B9F1010F0AD1216B09881A
:1027A000C160206B801C2063E08E401EE0864FF0ED
:1027B000000920688168C9070CD0E18F51B1C06859
:1027C000A16B0880A06B801CA063E08F401EE08797
:1027D0004FF00109FFF744FEA0EB0800B04200E013
:1027E00009E001D3701C50D1E08E0028CDD1E08FDC
:1027F0000028CAD13FE0206B216800780873206B65
:10280000401C2063E08E401EE0862EE02068816838
:1028100089070FD5E18E69B1B9F1010F0AD1216B9A
:1028200009780173206B401C2063E08E401EE08617
:102830004FF0000920688168C9070CD0E18F51B1C1
:10284000C068A16B0870A06B401CA063E08F401EA5
:10285000E0874FF00109FFF703FEA0EB0800B0424C
:1028600002D3701C01D010E07EB1E08E0028CDD1E3
:10287000E08F0028CAD142463146204601F0A6FC2E
:1028800028B101272020606507E0032705E0A06844
:1028900018B92068C16880680090012084F8510050
:1028A000002084F8500038462CE710B5401EB0F1E7
:1028B000807F01D3012010BD4FF0E02460610F2123
:1028C000601703F06DF80020A06107202061002050
:1028D00010BD10B504460068416994F83920C1F371
:1028E000C011212A0BD151B1416921F08001416110
:1028F000206B08B1FFF721FB204602F0A1FC206805
:10290000416994F83A20C1F38011222A0BD151B1C8
:10291000416921F040014161606B08B1FFF70DFB97
:10292000204602F07FFC002010BD704770B50268A1
:1029300004461068D168536910F00F0F50D003F0AF
:10294000010501F4907635435DD0C20705D0CA0574
:1029500003D5E26B42F00102E263420705D5DA07D4
:1029600003D0E26B42F00202E263820705D5DA0788
:1029700003D0E26B42F00402E263020705D5DA07F6
:1029800003D0E26B42F00802E263E26B002A33D02C
:10299000800604D5880602D5204602F05AFC20683D
:1029A0004069E16BC0F38010090700D428B32046CA
:1029B00002F038FC2068416949061AD5416921F0C6
:1029C00040014161606BA0B11B494163606BFFF73F
:1029D000D7FA002810D0606B416BBDE87040084703
:1029E000830610D58B060ED52046BDE8704002F058
:1029F00030BC2046FFF799FF70BD2046FFF795FFDA
:102A00000020E06370BD030606D50B0604D5204602
:102A1000BDE8704002F0C4BC4006F3D54806F1D5CD
:102A2000D168204621F04001D160202184F839107E
:102A300000F099F970BD00008551000870B50400E0
:102A400004D094F83900002510B106E0012070BDD3
:102A500084F83850204600F023F8242084F8390008
:102A60002068C16821F40051C160204602F03CFC9E
:102A70002068016921F4904101612068416921F0D9
:102A80002A0141612068C16841F40051C160E563D9
:102A9000202084F8390084F83A00002070BD00003E
:102AA0002DE9F04385B0002400940194029403942E
:102AB0000546DFF844C10368504802210322504F05
:102AC00080264FF0100863454FD1836943F480435B
:102AD0008361836903F480430493836943F00403AF
:102AE00083618069039200F0040004900802CDE93C
:102AF000000169463846FFF7B1FBF000CDE900045C
:102B0000694638460294FFF7A9FB3F4F3D484FF412
:102B10004059C7E902463C61E7E805084FF0200844
:102B200087E810033848143FFFF720FB2F637D62CE
:102B3000354F344844371430C7E90004C7E902462A
:102B400007F114033C6183E810033846FFF70EFBDE
:102B50006F630022114625207D62FFF79DFC252032
:102B6000FFF78CFC05B0BDE8F083DFF8A0C063453B
:102B7000F8D1C36943F40033C361C36903F400337C
:102B80000493836943F0040383618069039200F036
:102B9000040004900420CDE9000169463846FFF79F
:102BA0005DFB0820CDE90004694638460294FFF732
:102BB00055FB154F134888372830C7E90004C7E98B
:102BC00002463C617C61BC613846FC61FFF7CEFA8D
:102BD0006F637D6244370B48C7E902463C617C6104
:102BE000BC613C30FC61C7E900083846FFF7BEFA1B
:102BF0002F637D62B6E700000038014000100240FC
:102C000000080140440002408C22002000440040A3
:102C1000F8B5044690F83A0020283CD1C1B3BAB3C5
:102C200094F83800012836D0012084F83800A162D9
:102C3000A2850025E563222084F83A00636B1748DB
:102C40009862636B1648D862636B16481863606BB2
:102C5000134645630846666B216802463046091DE7
:102C6000FFF7B2FA206801684168009184F8385093
:102C7000C16841F48071C1602068416941F001017F
:102C800041612068416941F0400141610020F8BD87
:102C9000FFE70120FBE70220F9E70000DF51000811
:102CA0001B52000895510008704770472DE9F84302
:102CB000044690F839001F4616460D46202850D18C
:102CC000A5B19EB194F8380001284AD0012084F8BB
:102CD00038004FF00008C4F83C80212084F8390007
:102CE000FFF7BEFBA6848146E68426E00120BDE80E
:102CF000F883E08C401EE084A0684B46B0F5805F0E
:102D00004FF000024FF080012046009703D002F000
:102D100078FBE8B90DE002F074FBC8B92888216897
:102D2000C0F308004860206908B16D1C05E0AD1CC7
:102D300003E0216815F8010B4860E08C0028D8D129
:102D40004B46002240212046009702F05AFB08B172
:102D50000320CCE7202084F8390084F83880002054
:102D6000C5E70220C3E7704770B501780124072941
:102D70000DD0084D2978002908D101464022064887
:102D8000FDF7F2F905492C704020086070BD044839
:102D9000047070BD01000020800A0020C0030020E4
:102DA000280000207047FEE71CB505F0EBF800286E
:102DB0001BD09E208DF80000E7208DF801006946A9
:102DC000102001F0EFFE05F0DDF800280DD0002006
:102DD0008DF800006946082001F0E4FE01A90020FA
:102DE00005F060F8012800D000201CBD0349497897
:102DF00009B100F005B800F063B8000014370020F6
:102E00002DE9F0432B4A4FF4007717601115131D7D
:102E100019601160196011601F60196011601960FC
:102E20001160254E01243460244D95F817C005EB40
:102E30004C09B9F820501DB1196011606D1EFBD10D
:102E40001E4D18351CF80550DFF86CC00CF1040C51
:102E50000AE000BF5FEAC07801D0346001E0CCF83E
:102E600000401960116040086D1EF3D1B9F8305070
:102E70007DB1C00701D0346001E0CCF8004019609A
:102E80001160346001E0196011606D1EFBD11760A4
:102E900006E01760C00701D0346001E0CCF80040C4
:102EA00019601160196011601F6019601160346051
:102EB000BDE8F083100C01401008014014370020D9
:102EC0002DE9F047554B4FF40078C3F800801A15F0
:102ED0001C1D2260524F79680D466D1EFDD11A608F
:102EE0000D466D1EFDD122600D466D1EFDD11A608E
:102EF0000D466D1EFDD1C4F8008022600D466D1E8A
:102F0000FDD11A600D466D1EFDD122600D466D1E6D
:102F1000FDD11A600D466D1EFDD1424E0125356072
:102F200097F817C007EB4C0AE146BAF820C0BCF18D
:102F3000000F0AD022600F467F1EFDD11A600F4697
:102F40007F1EFDD1BCF1010CF4D1DFF8D4C00CF12F
:102F5000180C19F80CC0DFF8CC9009F104090EE048
:102F6000C70701D0356001E0C9F8005022600F4664
:102F70007F1EFDD11A600F467F1EFDD14008BCF1B7
:102F8000010CEDD1BAF8307027B3C00701D035601D
:102F900001E0C9F8005022600846401EFDD11A60C9
:102FA0000846401EFDD1356007E022600846401EFD
:102FB000FDD11A600846401EFDD17F1EF5D1C3F831
:102FC000008022600846401EFDD11A600846401E5F
:102FD000FDD10FE0C3F80080C00701D0356001E0EB
:102FE000C9F8005022600846401EFDD11A6008460C
:102FF000401EFDD122600846401EFDD11A600846E1
:10300000401EFDD1C4F8008022600846401EFDD15C
:103010001A60491EFDD13560BDE8F087100C0140F3
:103020001437002010080140F0B5314C4FF4007601
:1030300026602215231D1A602E4841680D466D1E1C
:10304000FDD122600D466D1EFDD11E601A600D4639
:103050006D1EFDD122600D466D1EFDD11A600D461C
:103060006D1EFDD122600D466D1EFDD1C57D4DB199
:103070001A600846401EFDD122600846401EFDD160
:103080006D1EF5D10027DFF870C01F251A600846B5
:10309000401EFDD1DCF800002260C0F3400E08465F
:1030A000401EFDD147EACE7047086D1EEED1266066
:1030B0001A600846401EFDD1DCF800002260C0F313
:1030C00040050846401EFDD147EAC5701A600D460E
:1030D0006D1EFDD122600D466D1EFDD11E601A6071
:1030E0000B465B1EFDD12260491EFDD1F0BD0000E4
:1030F000100C014014370020080801402DE9F04F62
:1031000010F03F0500D14025DFF884A044064FF4BD
:1031100000734FF0010EAAF1040B4FF4806801D543
:103120005C4600E0544623602EE000BF11F8016BBE
:1031300000244FF0080C1FE0F307734601D0154F31
:1031400001E0144F3F1D3B60CAF80080124B5B68E2
:103150001F467F1EFDD10F4F083F3F68CBF8008010
:10316000C7F340095B1EFDD1630876086D1E43EA74
:10317000C914BCF1010C01D0002DDDD124FA0CF4EE
:10318000030601D502F8014B002DCFD1BDE8F08F29
:10319000140C01401008014014370020034A5278F3
:1031A0000AB100F005B800F0D1B8000014370020D3
:1031B0002DE9F04F624C4FF4007626602215231D56
:1031C0001A6022601E601A6022601A6022605D4DE3
:1031D000ED7D1DB11A6022606D1EFBD14508DFF840
:1031E00068B15FEAC57CABF104074FF0010501D07F
:1031F0003D6001E0CBF800501A60DFF84C81A8F187
:103200000C08D8F800C0A246CCF3400C2260840819
:103210004FEA4C0CE40701D03D6001E0CBF80050D0
:103220001A60D8F80040C146C4F34004CAF8002030
:103230004CEA040CC408E40701D03D6001E0CBF87F
:1032400000501A60D9F80040CE46C4F340085446F6
:10325000CAF800204CEA880ABAF1010F01D02660B2
:103260005BE0DFF8E0C05FEA80789CF816009CF82D
:1032700017C0A0EB0C092BD54FF000081F20F34618
:103280001A60DBF800C022604FEA5C0C48EACC7C94
:103290004FEA5C08401EF3D1B9F1010011D01A6069
:1032A000DBF800C0CCF3400C00E01A602260401E46
:1032B000FBD126601A60226048EACC7079B30860BE
:1032C0002DE026601A60DBF80000C0F3400CF2E746
:1032D00008681F214FEA0B0C5FEAC07801D03D60FF
:1032E00001E0CCF800501A6022604008491EF3D17A
:1032F000B9F101010AD0C00701D03D6001E0CCF86E
:1033000000501A602260491EFBD1A8E72660C00762
:1033100001D03D6001E0CCF800501A6022601A60D4
:1033200022601E601A6022603D600648007A01E05B
:103330001A602260401EFBD25046BDE8F08F0000AC
:10334000100C014014370020140801402DE9F34F00
:10335000BA4B81B04FF400741C601A151F1D3A60FF
:10336000DFF8DCC2DCF804100D466D1EFDD11A60DA
:103370000D466D1EFDD13C603A600D466D1EFDD1BF
:103380001A600D466D1EFDD13A600D466D1EFDD1D1
:103390001A600D466D1EFDD19CF817604EB13A6063
:1033A0000D466D1EFDD11A600D466D1EFDD1761EB7
:1033B000F5D14508DFF88C925FEAC578A9F10406DB
:1033C0004FF0010501D0356001E0C9F8005090468A
:1033D000BA463A600A46521EFDD19A4F0C3F3A68EF
:1033E000C3F80080C2F3400C42468846B8F1010899
:1033F000FCD14FEA90084FEA4C0C5FEAC87801D044
:10340000356001E0C9F80050CAF800204FEA010811
:10341000B8F10108FCD1BB463F689E46C7F34007A0
:103420001A600B465B1EFDD1C3084CEA070CDB0794
:1034300001D0356001E0C9F80050CAF800200B4601
:103440005B1EFDD1DBF80030CEF80020C3F340084E
:1034500073460F467F1EFDD14CEA880EBEF1010F68
:1034600009D01C60CAF800200846401EFDD11A6031
:10347000491EFDD1B9E0724F5FEA807CB87DFF7DC7
:10348000A0EB0700009057D54FF0000C5FF01F072E
:10349000CAF800200846401EFDD1DBF800001A6083
:1034A000C0F340080846401EFDD14CEAC8704FEA00
:1034B000500C7F1EECD10098401E29D0CAF8002085
:1034C0004FEA0108B8F10108FCD1DBF800701A607E
:1034D000C7F3400917468846B8F10108FCD1401EE1
:1034E0000CD0CAF800708846B8F10108FCD11F6002
:1034F0004FEA0108B8F10108FCD1F0E71C60CAF8F6
:1035000000700846401EFDD11F60491EFDD10DE030
:103510001C601746CAF800200846401EFDD1DBF8A3
:1035200000001F60C0F34009491EFDD102994CEA1A
:10353000C970D9B3086058E002984FF01F0C0068BA
:10354000C70701D0356001E0C9F80050CAF8002073
:103550000F467F1EFDD11A600F467F1EFDD1400829
:10356000BCF1010CECD1009F7F1E2ED0C00701D012
:10357000356001E0C9F800501046D046CAF8002076
:103580004FEA010CBCF1010CFCD118604FEA010CB0
:10359000BCF1010CFCD17F1E0DD0C8F800008C4698
:1035A000BCF1010CFCD118608C4600E01DE0BCF1C0
:1035B000010CFAD1EFE71C60C8F800000F467F1E2F
:1035C000FDD11860491EFDD10FE01C60C00701D07D
:1035D000356001E0C9F800501746CAF800200846D7
:1035E000401EFDD11F60491EFDD15146CAF8002082
:1035F000134F78684FEA000CBCF1010CFCD11A6043
:103600004FEA000CBCF1010CFCD10C600A600446CE
:10361000641EFDD11A600446641EFDD135603D7AFA
:1036200007E00A600446641EFDD11A600446641E69
:10363000FDD16D1EF5D27046BDE8FE8F100C014025
:1036400014370020140801402DE9F04F644B4FF46B
:1036500000771F601A151C1D2260624E71680D46AE
:103660006D1EFDD11A600D466D1EFDD127602260D2
:103670000D466D1EFDD11A600D466D1EFDD12260F6
:103680000D466D1EFDD11A600D466D1EFDD196F8DA
:1036900017C0BCF1000A0AD022600D466D1EFDD194
:1036A0001A600D466D1EFDD1BCF1010CF4D1DFF89E
:1036B00038810125C8F8005022608C46BCF1010C0D
:1036C000FCD11A604FEA010CBCF1010CFCD1226064
:1036D0004FEA010CBCF1010CFCD11A604FEA010C5D
:1036E000BCF1010CFCD122604FEA010CBCF1010CD1
:1036F000FCD11A604FEA010CBCF1010CFCD1DFF8DF
:10370000E8904FF01F0CA9F10409B346C60702D098
:10371000C9F8005001E0C8F8005022600E46761E3D
:10372000FDD11A600E46761EFDD14008BCF1010C99
:10373000ECD19BF816C0ACEB0A06761E2CD0C00765
:1037400002D0C9F8005001E0C8F8005010462260CD
:103750004FEA010CBCF1010CFCD118604FEA010CDE
:10376000BCF1010CFCD1761E0CD020604FEA010C9C
:10377000BCF1010CFCD118604FEA010CBCF1010C4A
:10378000FCD1F0E71F6020600E46761EFDD1186068
:103790000846401EFDD10FE01F60C00702D0C9F8E7
:1037A000005001E0C8F8005022600846401EFDD1DC
:1037B0001A600846401EFDD122600846401EFDD119
:1037C0001A600846401EFDD1276022600846401E50
:1037D000FDD11A60491EFDD1C9F80050BDE8F08F37
:1037E000100C014014370020140801401E4808B591
:1037F000416941F00101416140691C4900F001004B
:1038000000901B4801604FF480414160402181607D
:103810008021C1600021016141618161C161FEF7C8
:10382000A5FC002211460C20FEF736FE0C20FEF708
:1038300025FE002211460D20FEF72EFE0D20FEF77C
:103840001DFE002211461020FEF726FE1020FEF776
:1038500015FE002211461120FEF71EFEBDE80840AD
:103860001120FEF70BBE00000010024008000240CD
:10387000842100202DE9F04F85B0002432480094C7
:10388000019402940394816941F01001816181697E
:1038900001F010010491816941F020018161816989
:1038A00001F020010491816941F004018161816985
:1038B00001F004010491816941F00801816180698E
:1038C000DFF8889000F008004FF460460490002272
:1038D00031464846FEF7BEFDDFF874A04FF4887805
:1038E000002241465046FEF7B5FDDFF868B00022E1
:1038F00041F638415846FEF7ADFD022701250397F2
:103900000096CDE9015469464846FEF7A7FC01221E
:1039100031464846FEF79EFDCDF800800397CDE97D
:10392000015469465046FEF799FC41F23B00CDE94F
:1039300000050320CDE9024069465846FEF78EFC9B
:1039400005B0BDE8F08F00000010024000100140FB
:1039500000080140000C01400C480B4902220160A4
:103960004FF48271416000218160C0E9031201229D
:1039700042615202C0E906210162416281620A216C
:10398000C162FEF7CFBD000000380040F4230020E4
:1039900010B5104C0E480C2120600F4860600020CC
:1039A000A060E060C4E90401A061E0612046FFF787
:1039B00045F82068C16841F01001C1600748A4F1D2
:1039C000440102782046BDE81040FFF721B900000D
:1039D000003801400C22002080841E001C000020C2
:1039E00010B5104C0E480C2120604FF4E13060609F
:1039F0000020A060E060C4E90401A061E06120460D
:103A0000FFF71CF82068C16841F01001C16006484A
:103A1000A4F1840102782046BDE81040FFF7F8B811
:103A2000004400404C2200201C000020FEE7000063
:103A3000F8B50024144F01265FF01E0504EB440086
:103A400007EB800205EB4000C0B20C23002100967A
:103A500000F0BAFA641CE4B20C2CEFD30B4F002434
:103A600004EB440007EB800205EB40000C23C0B2DE
:103A70001946009600F0A8FA641CE4B20C2CEFD3AF
:103A8000BDE8F84000F0D8B816930008A6930008E7
:103A90007047000010B40021084B0A465FF0000098
:103AA00003EB8004401CC0B262548028F8D3491C48
:103AB000C9B20429F2D310BC00F0BEB8D43400203F
:103AC00030B5CC0801F0070301259D40EBB2064D4F
:103AD00005EB8005C808285C0AB1184302E063EAD8
:103AE0000000C043285530BDD4340020F0B54B4809
:103AF00085B0816941F001018161806900F00100B8
:103B000004904748416821F0E06141F00071416054
:103B10003B200125CDE900050320424C0390694676
:103B20002046FEF79BFB01223B212046FEF792FC3C
:103B30003C4E0824103634600A20FEF77DFB371D0A
:103B40003C600A20FEF778FB34603D600021AE2027
:103B500000F070FA0021084600F06CFA00211020F5
:103B600000F068FA0021084600F064FA0021B02055
:103B700000F060FA0021812000F05CFA0021FF20B3
:103B800000F058FA0021A12000F054FA0021A620EC
:103B900000F050FA0021A82000F04CFA00211F206C
:103BA00000F048FA0021C82000F044FA0021D32098
:103BB00000F040FA0021084600F03CFA0021D52030
:103BC00000F038FA0021802000F034FA0021D920DA
:103BD00000F030FA00211F2000F02CFA0021DA203A
:103BE00000F028FA0021084600F024FA0021DB202A
:103BF00000F020FA0021402000F01CFA00218D2066
:103C000000F018FA0021142000F014FAFFF742FF28
:103C10000021AF2000F00EFA05B0F0BD0010024008
:103C200000000140000C01400246012000E050432A
:103C3000491EC9B2FBD2704770B5114E002400BFB7
:103C400004F1B000C0B2002100F0F4F900210846F0
:103C500000F0F0F90021102000F0ECF95FF0000511
:103C600006EB85000121005D00F0E4F96D1CEDB26A
:103C7000802DF5D3641CE4B2042CE1D370BD0000A8
:103C8000D434002070B5114E002400BF04F1B00000
:103C9000C0B2002100F0CEF90021084600F0CAF9B8
:103CA0000021102000F0C6F95FF0000506EB85004A
:103CB0000121005D00F0BEF96D1CEDB2802DF5D341
:103CC000641CE4B2042CE1D370BD0000D4340020A5
:103CD0002DE9FC4F1C460E4682468B460190082B70
:103CE0000DD0600700D0012000EBD40061084843EC
:103CF000C0B28146203AD0B2009000204BE00620AE
:103D0000F7E7082C13D00C2C18D0102C1BD0182C33
:103D100044D10098234900EBC00000BF01EB8001B3
:103D2000002711F80850E80712D00B9A13E000980A
:103D30001D4900EB400001EB4001F1E700981B49F1
:103D400000EB4000EAE71A49009801EB0011E7E7B1
:103D50000B9828B3002231465046FFF7B1FE761C7F
:103D60007F1C6D08FFB2F6B2082FDCD30AF1010008
:103D700000F0FF0A082C0AD00199AAEB0100B0EB71
:103D8000540F04D10BF108008A4600F0FF0B08F134
:103D900001005E46C0B280464845B2D3BDE8FC8F04
:103DA0000122D8E7FCA200085E9600089898000857
:103DB0000C9D00082DE9FF4F81B00026DDE90EA91A
:103DC0001D469346804634464FEA5A0727E0281B93
:103DD000401EC1B20A20FFF727FFBBFBF0F00A210B
:103DE000B0FBF1F201FB120026B9691E8C4201DA28
:103DF00048B101263030C2B207FB0480C0B253463E
:103E0000CDF8009006E007FB0480C0B253462022A4
:103E1000CDF800900299FFF75BFF641CE4B2AC425E
:103E2000D5D305B0BDE8F04FFFF706BF2DE9F84147
:103E30001E46154688460446079F0BE0334641461A
:103E400020460097FFF744FF082E0CD004EB5600E5
:103E5000C4B26D1C2A78A2F120005E28EED9BDE81C
:103E6000F841FFF7E9BEA41DE4B2F2E72DE9FE4FE9
:103E700003F042FF002878D0FFF70CFE3C4E0A21E9
:103E80003C4F30780122B0FBF1F0307000EB800045
:103E900007EB8001384802F003FD384D4FF4005421
:103EA0004FF0010A78B10C2335A21E210020CDF875
:103EB00000A0FFF7BBFF03B021462846BDE8F04F46
:103EC0000122FEF7C7BA002221462846FEF7C2FAB1
:103ED00039E02F480078012842D02EA15546D1E97B
:103EE0000001CDF800A0CDE901010C232BA2242173
:103EF0003E20FFF79BFF0C232CA224211E200095BF
:103F0000FFF794FF00240DF104084FF03E094FF431
:103F1000FA7B04EB440109EB4100009518F80420FA
:103F2000C0B20C232421FFF7D3FE5846FEF784F9D4
:103F3000641CE4B2042CECD30C231EA224214120E7
:103F40000095FFF773FF307800EB800007EB8000EF
:103F5000FDF7BCFE0028BCD0BDE8FE4F03F0CCBE90
:103F6000184900200870F7E7FFE7BDE8FE8F000062
:103F700010000020041F0020E40300200010014076
:103F80004F70656E2042696E206661696C656400E1
:103F9000110000202E2E2E2E0000000020202020B8
:103FA00020202020202020202000000057414954BC
:103FB0000000000020202020202020202020202081
:103FC00020202000180000202DE9FF4F98460C46C5
:103FD000834689460025DDF834A024E002980026B7
:103FE000475D380601D5524603E0BAF1000F12D002
:103FF000002221465846FFF763FD641C7806E4B2B0
:10400000070EA4EB0901414507D10BF101004C4615
:1040100000F0FF0B05E00122EBE7761CF6B2082E5C
:10402000DFD36D1CEDB24545D8D3BDE8FF4FFFF798
:1040300029BE0000F0B50E4B02241A1F09B114600E
:1040400000E01C6001261E600021102720251D6055
:104050005FEA006C01D5176000E01F601560400644
:10406000491C000EC9B20829F1D316601460F0BDD6
:10407000140C01402DE9F04186B02248002402943E
:10408000816941F008018161816901F008010491B1
:10409000816941F00401816180691B4900F00400DD
:1040A000049040F60160086040F201600126DFF8EC
:1040B0005880CDE900060325A8F11008694603954C
:1040C0004046FEF7CBF8F0021127CDE90007CDE915
:1040D000026569464046FEF7C1F80220CDE90004BA
:1040E00069464046CDE90245FEF7B8F87003CDE9D0
:1040F000000769460548CDE90245FEF7AFF806B06E
:10410000BDE8F08100100240100C01400010014099
:104110002DE9F0411F4886B0816941F004018161B9
:1041200080691D4900F004000024049002944FF4BB
:10413000606008604FF4C0600126DFF85C80CDE964
:1041400000060325A8F11008694603954046FEF7CE
:1041500085F8F0021127CDE90007CDE9026569462F
:104160004046FEF77BF840F60300CDE900046946BF
:104170004046CDE90245FEF771F87003CDE900072E
:1041800069460648CDE90245FEF768F806B0BDE885
:10419000F081000000100240100C014000100140AE
:1041A0007047000040210148FEF748B9000C01406B
:1041B00080210148FEF742B9000C01404FF48071A4
:1041C0000148FEF73BB90000000C014038B50B4632
:1041D000009204460022802100F01CF8002804D040
:1041E000606D40F020006065032038BD3EB5FF24BF
:1041F0008DF80800012301AA02A905480094FEF7E2
:1042000063FA08B18DF804409DF804003EBD00003B
:10421000F42300202DE9F0411D4617460E460446C2
:10422000DDF8188008E0681C06D0FEF719F9A0EB4D
:104230000800A8420BD255B12068806836EA000019
:1042400030D00020B842EED10020BDE8F0812068D7
:10425000416821F0E00141606068B0F5827F0BD1D8
:10426000A068B0F5004F02D0B0F5806F04D120688F
:10427000016821F040010160A06AB0F5005F09D13A
:104280002068016821F4005101602068016841F450
:1042900000510160012084F85100002084F8500092
:1042A0000320D2E70120CDE770470000F0B510F001
:1042B0003F0300D140231D4C07064FF400764FF416
:1042C0008060A4F104052ED5DFF860C0ACF10C0CC1
:1042D000002B27D0002108260BE02060DCF80070BE
:1042E0002860C7F3402749085B1E41EAC711761EC4
:1042F00001D0002BF1D1F14002F8011BE8E700BF2B
:1043000011F8012B08270BE05FEAC27C01D02E6078
:1043100000E026602060286052085B1E7F1E02D0ED
:10432000002BF1D1F0BD002BEAD1F0BD140C0140FF
:10433000034A52780AB100F005B800F01BBA000039
:10434000143700202DE9F04FFA4A89464FF40075E2
:10435000014615601315141D23601360C00701D0BA
:10436000156000E02560236013604808C70701D08E
:10437000156000E02560236013600E188808C707E9
:1043800001D0156000E02560236013600644C80872
:10439000C70701D0156000E025602360136030443A
:1043A000C00701D0156000E0256023601360256020
:1043B00023601360156023601360DFF87883A8F131
:1043C0000C08D8F8006026F0F006C8F80060D8F8AD
:1043D000006046F08006C8F80060DFF85CA39AF839
:1043E0001400060003D023601360761EFBD1236007
:1043F000DFF840C3ACF1080CDCF800601360C6F3D2
:1044000040262360DCF800701360C7F3402746EABB
:1044100047062360DCF800701360C7F3402746EAC4
:104420008706012E16D0022E6FD0042EFCD021302C
:1044300003D023601360401EFBD1D8F8001021F098
:10444000F001C8F80010D8F8001041F03001C8F8A9
:1044500000108AE1890731D500272020E346236038
:10446000DBF800101360490A7F0847EAC177401E55
:10447000F5D13846FDF754FD2360DBF800101360DA
:1044800080EA5120C00700D00826B9F1000F01D002
:10449000C9F800709AF8140018B123601360401E28
:1044A000FBD1D8F8001021F0F001C8F80010D8F8BE
:1044B000001041F03001C8F8001020E118B123606D
:1044C0001360401EFAE7D8F8001021F0F001C8F898
:1044D0000010D8F8001041F03001C8F80010D9F8E9
:1044E00000703846FDF71CFD844694485FEAC778A3
:1044F0004FF0C06101D0106000E011607F081360D0
:104500005FEAC77802D0106001E001E111607F0826
:1045100013605FEAC77801D0106000E011607F0887
:1045200013605FEAC77801D0106000E011607F0877
:1045300013605FEAC77801D0106000E011607F0867
:1045400013605FEAC77801D0106000E011607F0857
:1045500013605FEAC77801D0106000E011607F0847
:1045600013605FEAC77801D0106000E011607F0837
:1045700013605FEAC77801D0106000E011607F0827
:1045800013605FEAC77801D0106000E011607F0817
:1045900013605FEAC77801D0106000E011607F0807
:1045A00013605FEAC77801D0106000E011607F08F7
:1045B00013605FEAC77801D0106000E011607F08E7
:1045C00013605FEAC77801D0106000E011607F08D7
:1045D00013605FEAC77801D0106000E011607F08C7
:1045E00013605FEAC77801D0106000E011607F08B7
:1045F00013605FEAC77801D0106000E011607F08A7
:1046000013605FEAC77801D0106000E011607F0896
:1046100013605FEAC77801D0106000E011607F0886
:1046200013605FEAC77801D0106000E011607F0876
:1046300013605FEAC77801D0106000E011607F0866
:1046400013605FEAC77801D0106000E011607F0856
:1046500013605FEAC77801D0106000E011607F0846
:1046600013605FEAC77801D0106000E011607F0836
:1046700013605FEAC77801D0106000E011607F0826
:1046800013605FEAC77801D0106000E011607F0816
:1046900013605FEAC77801D0106000E011607F0806
:1046A00013605FEAC77801D0106000E011607F08F6
:1046B00013605FEAC77801D0106000E011607F08E6
:1046C00013605FEAC77801D0106000E011607F08D6
:1046D00013605FEAC77801D0106000E011607F08C6
:1046E0001360FF0701D0106000E0116013605FEA03
:1046F000CC7001D0156000E02560236013609AF84B
:10470000080090B3256023601360401EFBD12CE0AD
:104710009AF815704FB15FEA817C06D54FF0210CF5
:1047200023601360BCF1010CFAD148B1236013601F
:10473000401EFAE7100C014014370020000200046C
:10474000D8F800C02CF0F00CC8F800C0D8F800C0B1
:104750004CF0300CC8F800C03FB1880705D4256084
:10476000212023601360401EFBD115603046BDE858
:10477000F08F00002DE9F04FFA4A89464FF400759A
:10478000014615601315141D23601360C00701D086
:10479000156000E02560236013604808C70701D05A
:1047A000156000E02560236013600E188808C707B5
:1047B00001D0156000E02560236013600644C8083E
:1047C000C70701D0156000E0256023601360304406
:1047D000C00701D0156000E02560236013602560EC
:1047E00023601360156023601360DFF87883A8F1FD
:1047F0000C08D8F8006026F0F006C8F80060D8F879
:10480000006046F08006C8F80060DFF85CA39AF804
:104810001400060003D023601360761EFBD12360D2
:10482000DFF840C3ACF1080CDCF800601360C6F39D
:1048300040262360DCF800701360C7F3402746EA87
:1048400047062360DCF800701360C7F3402746EA90
:104850008706012E16D0022E6FD0042EFCD02130F8
:1048600003D023601360401EFBD1D8F8001021F064
:10487000F001C8F80010D8F8001041F03001C8F875
:1048800000108AE1890731D500272020E346236004
:10489000DBF800101360490A7F0847EAC177401E21
:1048A000F5D13846FDF73CFB2360DBF800101360C0
:1048B00080EA5120C00700D00826B9F1000F01D0CE
:1048C000C9F800709AF8140018B123601360401EF4
:1048D000FBD1D8F8001021F0F001C8F80010D8F88A
:1048E000001041F03001C8F8001020E118B1236039
:1048F0001360401EFAE7D8F8001021F0F001C8F864
:104900000010D8F8001041F03001C8F80010D9F8B4
:1049100000703846FDF704FB844694485FEAC77888
:104920004FF0C06101D0106000E011607F0813609B
:104930005FEAC77802D0106001E001E111607F08F2
:1049400013605FEAC77801D0106000E011607F0853
:1049500013605FEAC77801D0106000E011607F0843
:1049600013605FEAC77801D0106000E011607F0833
:1049700013605FEAC77801D0106000E011607F0823
:1049800013605FEAC77801D0106000E011607F0813
:1049900013605FEAC77801D0106000E011607F0803
:1049A00013605FEAC77801D0106000E011607F08F3
:1049B00013605FEAC77801D0106000E011607F08E3
:1049C00013605FEAC77801D0106000E011607F08D3
:1049D00013605FEAC77801D0106000E011607F08C3
:1049E00013605FEAC77801D0106000E011607F08B3
:1049F00013605FEAC77801D0106000E011607F08A3
:104A000013605FEAC77801D0106000E011607F0892
:104A100013605FEAC77801D0106000E011607F0882
:104A200013605FEAC77801D0106000E011607F0872
:104A300013605FEAC77801D0106000E011607F0862
:104A400013605FEAC77801D0106000E011607F0852
:104A500013605FEAC77801D0106000E011607F0842
:104A600013605FEAC77801D0106000E011607F0832
:104A700013605FEAC77801D0106000E011607F0822
:104A800013605FEAC77801D0106000E011607F0812
:104A900013605FEAC77801D0106000E011607F0802
:104AA00013605FEAC77801D0106000E011607F08F2
:104AB00013605FEAC77801D0106000E011607F08E2
:104AC00013605FEAC77801D0106000E011607F08D2
:104AD00013605FEAC77801D0106000E011607F08C2
:104AE00013605FEAC77801D0106000E011607F08B2
:104AF00013605FEAC77801D0106000E011607F08A2
:104B000013605FEAC77801D0106000E011607F0891
:104B10001360FF0701D0106000E0116013605FEACE
:104B2000CC7001D0156000E02560236013609AF816
:104B3000080090B3256023601360401EFBD12CE079
:104B40009AF815704FB15FEA817C06D54FF0210CC1
:104B500023601360BCF1010CFAD148B123601360EB
:104B6000401EFAE7100C0140143700200002000438
:104B7000D8F800C02CF0F00CC8F800C0D8F800C07D
:104B80004CF0300CC8F800C03FB1880705D4256050
:104B9000212023601360401EFBD115603046BDE824
:104BA000F08F0000F0B50C4E00234FF40074371D59
:104BB0001A4665000DE012B911F8013B08225FEAC0
:104BC000C37C01D0346000E03C603D6035605B0830
:104BD000521E401EEFD2F0BD100C01402DE9F84FDF
:104BE000DFF8B8802E4C002698F8001020790125B7
:104BF000012904D003290FD002291ED042E0182831
:104C000004D20830C0B22071182801D318202071B6
:104C1000C0B20838009509E020B1083810F0FF0054
:104C2000207100D12671009520790830C1B2082387
:104C30001CA26E20FFF7FAF824E01B49C008087098
:104C40001A480521017002214170FEF723FFDFF8A9
:104C5000609000274FF01D0A07EB470009EB800228
:104C60000AEB4000C0B20C2308210095FFF7ACF915
:104C70007F1CFFB20A2FEFD34FF4FA70FDF7DCFA76
:104C8000FEF708FF88F800600095082309A2217943
:104C90006E20FFF7CBF8BDE8F88F00001100002070
:104CA0000400002020200000120000201800002036
:104CB000969400083C3C00002DE9F84FDFF8BC80DA
:104CC0000027012698F800002D4C012804D0032865
:104CD00010D0022820D046E0E079182804D208300D
:104CE000C0B2E071182801D31820E071C0B20838B2
:104CF00000960AE0E07920B1083810F0FF00E0717A
:104D000000D1E7710096E0790830C1B208231DA2F6
:104D10006E20FFF78BF826E0FEF7BCFEDFF8689008
:104D200000254FF01D0A00BF05EB450009EB80028E
:104D30000AEB4000C0B20C2308210096FFF744F9AB
:104D40006D1CEDB20A2DEFD3E0791049C008087050
:104D50004FF4FA70FDF770FAFEF79CFE0C4805213F
:104D600001700221417088F800700096082309A2A2
:104D7000E1796E20FFF75AF8BDE8F88F11000020A6
:104D80000400002020200000969400083800002035
:104D9000180000203C3C00002DE9F84F314F324C08
:104DA0000125397860780026012905D0032910D023
:104DB000B846022929D01DE00C2804D20C30C0B21C
:104DC00060700C2801D30C206070C0B20C380095C4
:104DD0000AE00C2801D30C38607010F0FF0F00D1EE
:104DE0006670009560780C30C1B20C231FA20020C1
:104DF000FFF71CF83E7000950C231DA2617800207F
:104E0000FFF714F80020BDE8F88FFEF743FE607846
:104E1000154CA41D10B10C2819D01EE0042065709B
:104E2000DFF85090207000274FF01E0A07EB470074
:104E300009EB80020AEB4000C0B20C230821009568
:104E4000FFF7C2F87F1CFFB20C2FEFD305E0022062
:104E500060700520207088F8006088F80060607835
:104E6000D1E70000110000201200002020200000E7
:104E70003E3E000016930008F8B5224E224C002753
:104E80003178207A0125012904D003290FD0022985
:104E90001ED02DE0102804D20830C0B22072102895
:104EA00001D310202072C0B20838009509E020B16B
:104EB000083810F0FF00207200D127720095207A88
:104EC0000830C1B2082311A26E20FEF7AFFF0FE039
:104ED0000F4920B1082805D0102808D008E00D702F
:104EE000032002E0022008700420487000E0A57052
:104EF00037700095082307A2217A6E20FEF796FFEF
:104F0000F8BD000011000020040000202020000057
:104F1000180000203C3C00002DE9F843384C0125E6
:104F200000950C2335A2A1786E20FEF77FFFDFF8F5
:104F3000D4800826002798F80000012804D0032810
:104F40000DD002281ED055E0A0780C30C0B2A07061
:104F5000082800D3A6700095A0780C380BE0A07844
:104F60000C2801D30C38A07010F0FF0F00D1A770EF
:104F70000095A0780C30C1B20C2323A26E20FEF75E
:104F800055FF37E0FEF786FD1D48A1780722801DFA
:104F90001E2411B1082918D02CE006210270DFF878
:104FA0006C904170002600BF06EB460009EB8002C2
:104FB00004EB4000C0B20C2310210095FFF704F869
:104FC000761CF6B20A2EEFD314E00670DFF840909C
:104FD0004270002606EB460009EB800204EB40001D
:104FE000C0B20C2310210095FEF7EEFF761CF6B23E
:104FF0000A2EEFD388F80070BDE8F8833C3C00002F
:105000001200002011000020202000006E950008F2
:10501000E69500080CB50021244801910091026832
:1050200042F480320260026802F400320092019A77
:10503000521C0192009A002AF5D00268920333D5DF
:10504000012100911A490A6842F010020A600A68B8
:1050500022F007020A600A6842F004020A6041680E
:10506000416041684160416841F48061416041684C
:1050700021F47C114160416841F4E811416001680C
:1050800041F08071016001688901FCD5416821F01F
:1050900003014160416841F0020141604168C1F390
:1050A00081010229FAD10CBD00910CBD0010024013
:1050B0000020024010B5154CA01F21784279914282
:1050C00002D04171FEF7E6FC207807281DD2DFE808
:1050D00000F004080C101C141800BDE81040FEF786
:1050E000A7BCBDE81040FCF713BDBDE81040FCF7BD
:1050F000B5BCBDE81040FEF7B9BEBDE81040FCF7F6
:105100003BBDBDE81040FCF78DBD10BD1800002070
:1051100010B5074C2078401CC0B220700A2803D973
:10512000FBF7DAFC00202070BDE81040FDF79EB9C7
:10513000CC0300200F4810B5016841F00101016067
:1051400041680D4A1140416001680C4A11400160FC
:10515000016821F480210160416821F4FE01416071
:105160004FF41F018160FFF755FF05494FF00060C4
:10517000086010BD001002400000FFF8FFFFF6FEBF
:1051800008ED00E010B5406A0021C185C184FDF73B
:10519000CCFB10BD70B5446A2068406994F83910A2
:1051A000C0F3C0100025212904D118B1E5842046A0
:1051B00000F046F82068406994F83A10C0F3801077
:1051C000222904D118B1E585204600F02BF8E06BC8
:1051D00040F01000E0632046FDF7A7FB70BD10B55E
:1051E0000146406A09680968890613D40021C1850F
:1051F0000168CA6822F48072CA6001684A6922F0B4
:1052000001024A6101684A6922F040024A61202194
:1052100080F83A10FDF748FD10BD10B5406AFDF763
:1052200044FD10BD0168CA6822F49072CA6001682A
:105230004A6922F001024A61202180F83A10704741
:105240000168CA6822F0C002CA60202180F83910C3
:10525000704710B590F83A10222901D0022010BDF5
:105260008168B1F5805F11D00169002901681FD004
:10527000496801F07F03816A4A1C82620B70C18D0C
:10528000491E0904090CC18518D02BE00269816A06
:10529000002A0268526805D0D2B20A80816A491C8D
:1052A0008162ECE7C2F308020A80816A891CF7E791
:1052B0004A68816A4B1C83620A70E0E70168CA6829
:1052C00022F02002CA600168CA6822F48072CA60B3
:1052D00001684A6922F001024A61202180F83A10EF
:1052E000FDF7E2FC002010BD2DE9F0410446006806
:1052F0000169E26821F44051114301612169A0680C
:105300000843616908432168CA6841F20C639A4303
:105310000243CA6020684169A26921F440711143C7
:1053200041611E49206864253226884202D1FDF77A
:10533000E9F801E0FDF7D6F800EBC00101EB001140
:1053400060686FF018078000B1FBF0F2B2FBF5F275
:10535000B1FBF0F37A4303EB8202B1FBF0F306EB0F
:105360000212B2FBF5F2B3FBF5F302F0F00202EB2E
:105370000312B1FBF0F3B1FBF0F0B0FBF5F07843B2
:1053800003EB800006EB0010B0FBF5F0216800F0A5
:105390000F0010448860BDE8F08100000038014033
:1053A00090F83910212901D0022070478168B1F5A9
:1053B000805F016A0BD04A1C026202680978516062
:1053C000C18C491E0904090CC1840ED017E009885C
:1053D0000268C1F30801516001690029016A02D025
:1053E000491C0162ECE7891CFBE70168CA6822F0EE
:1053F0008002CA600068C16841F04001C1600020BD
:1054000070472DE9F041984617460E460446069D22
:105410001DE0681C1BD02DB1FDF722F8A0EB0800A1
:10542000A84214D92068C16821F4D071C1602068F5
:10543000416921F001014161202084F8390084F89C
:105440003A00002084F838000320BDE8F08120688D
:10545000006836EA000004D00020B842D9D000200D
:10546000F3E70120F9E700000F4808B5006801687C
:10547000C943C90612D401684168009101684068B7
:105480000948FDF726FA0948006840680849097884
:10549000081A08490870084901200870BDE808404A
:1054A0000148FDF743BA00000C220020D022002062
:1054B0001C0000201A0000201B0000200F4808B527
:1054C00000680168C943C90612D4016841680091A7
:1054D000016840680948FDF7FCF909480068406820
:1054E00008490978081A0849087008490120087015
:1054F000BDE808400148FDF719BA00004C22002021
:10550000142300201C0000201A0000201B00002093
:1055100070B5074D074C47F6FF7605E0268000F092
:105520000F01284603F070F920880104F6D470BDFD
:1055300054380020445C00402DE9F041DFF87C80C5
:105540001F4C47F6FF7605E0268005F00F01404628
:1055500003F05AF925882804F6D41A4E68054FF04E
:10556000000709D54FF6FF302080301D07804046E8
:1055700003F0BCFB80203080280513D54FF2FF706C
:10558000208030884106104804D03780018821F4FB
:1055900000610180018841F008010180018841F02B
:1055A00004010180E80405D54EF6FF7020804046D6
:1055B00003F026F82780BDE8F08100005438002071
:1055C000445C00404C5C0040405C0040FEE7000052
:1055D00070B5040300F03CF900F0E4F80F4E4FF40E
:1055E0008055002229463046FCF734FF2020FEF784
:1055F000FDFDC4F30740FEF7F9FDC4F30720FEF7F5
:10560000F5FDE0B2FEF7F2FD012229463046FCF737
:1056100021FFBDE8704000F0C5B80000000C01405B
:10562000F0B585B000240094019402940394FEF731
:1056300093F92048C16941F48041C161C16901F415
:1056400080410491816941F00801816180694FF4D2
:10565000805500F00800049001AA0095012003265F
:1056600082E85100144F69463846FCF7F7FD0122E5
:1056700029463846FCF7EEFE4FF420400090022009
:105680000190694603963846FCF7E8FDA800CDE98D
:105690000004694638460294FCF7E0FD00F040F84B
:1056A0000649FF28088002D0002005B0F0BD012087
:1056B000FBE7000000100240000C01401E0000202B
:1056C0002DE9F041DFF8548015460C4606464FF4AC
:1056D0008057002239464046FCF7BCFE0320FEF707
:1056E00085FDC4F30740FEF781FDC4F30720FEF7F4
:1056F0007DFDE0B2FEF77AFD002405E0FF20FEF715
:1057000075FD3055641CA4B2AC42F7D3394640460F
:10571000BDE8F0410122FCF79DBE0000000C0140F5
:1057200070B5124E00244FF480552246294630466B
:10573000FCF790FE9020FEF759FD0020FEF756FD85
:105740000020FEF753FD0020FEF750FDFF20FEF77E
:105750004DFD44EA0024FF20FEF748FD04430122EA
:1057600029463046FCF776FE204670BD000C01400D
:1057700070B50B4E4FF48055002229463046FCF799
:1057800069FE0520FEF732FDFF20FEF72FFD0446DF
:10579000012229463046FCF75DFE204670BD000020
:1057A000000C01402DE91040FFF7E2FFC007FBD1DC
:1057B00010BD00002DE9F05FC1F30B06DFF88C800F
:1057C0000F0BC6F58054894682461546A24200D882
:1057D000144639038B464FF480524046FFF770FF62
:1057E000002006E0321818F80210FF2903D1401CEF
:1057F00080B2A042F6D3A04222D23846FFF7E8FE9C
:10580000002006E01AF800208319401C08F8032045
:1058100080B2A042F6D359464FF480524FEA0800B6
:1058200000F02CF8A5420FD0281BA244A14400266A
:1058300085B24FF480547F1CA542CAD82C46C8E7D5
:10584000224649465046EBE7BDE8F09FD4240020AD
:1058500070B5094D4FF48054002221462846FCF7CC
:10586000F9FD0620FEF7C2FC21462846BDE870403F
:105870000122FCF7EFBD0000000C01402DE9F041D2
:105880000746C8B2C0F580740E461546A24200D83D
:1058900014464FF4807822463146384600F00EF820
:1058A000A54208D0281B2744264485B24446A54279
:1058B000F1D82C46EFE7BDE8F08100002DE9F0417A
:1058C00015460C460646FFF7C3FFDFF850804FF43D
:1058D0008057002239464046FCF7BCFD0220FEF707
:1058E00085FCC4F30740FEF781FCC4F30720FEF7F4
:1058F0007DFCE0B2FEF77AFC002404E0305DFEF7A8
:1059000075FC641CA4B2AC42F8D30122394640466F
:10591000FCF7A0FDBDE8F041FFF744BF000C0140DB
:1059200010B51D4C6078012805D0062803D0072843
:1059300001D0FFF7BFFB607808282BD2DFE800F02A
:10594000040810161A1E2226BDE81040FFF724BADC
:105950001248006800281DD0BDE8104003F0E4BBE9
:10596000FFF78AFABDE81040FAF7F8BDBDE810402D
:10597000FFF7A2B9BDE81040FFF730B9BDE810400D
:10598000FFF7CABABDE8104003F03EBCBDE81040C6
:1059900003F0E6BB10BD000018000020C00300208B
:1059A0000907090E002804DB00F1E02080F800144C
:1059B000704700F00F0000F1E02080F8141D7047E0
:1059C000BFF34F8F05480168054A01F4E0611143B8
:1059D0000160BFF34F8F00BFFDE700000CED00E05A
:1059E0000400FA0502E008C8121F08C1002AFAD113
:1059F00070477047002001E001C1121F002AFBD14F
:105A00007047000010B54FF4A8711B48FAF7C5FBAA
:105A100019481AA1342201601BA181631DA10167ED
:105A20001FA1C0F8A81021A1C0F8E01022A1C0F861
:105A300018112449001DFAF797FB0F483422224918
:105A40003C30FAF791FB0C48342220497430FAF7C5
:105A50008BFB094834221E49AC30FAF785FB064817
:105A600034221C49E430FAF77FFBBDE810403422B1
:105A700019491A48FAF778BBC439002053544D33FA
:105A8000324630585800000053544D333246315896
:105A90005800000053544D3332463358580000002C
:105AA00053544D33324634585800000053544D334C
:105AB000324637585800000053544D333248375857
:105AC0005800000064B40008E4B5000888B7000876
:105AD000ACB8000804BA000838BE0008E03A00205C
