:020000040800F2
:10000000603C002045010008933700085F2A000883
:100010009137000891050008F95000080000000021
:100020000000000000000000000000001B4000086D
:100030006919000800000000153F0008254C000861
:100040005F0100085F0100085F0100085F01000810
:100050005F0100085F0100085F0100085F01000800
:100060005F0100085F0100085F0100085F010008F0
:10007000F5180008011900080D19000819190008E1
:1000800025190008311900085F01000841500008D7
:10009000695000085F0100085F0100085F01000867
:1000A0005F0100085F0100085F0100085F010008B0
:1000B0005F0100085F0100085F0100085F010008A0
:1000C0005F0100085F0100085F0100085F01000890
:1000D0005F010008994F0008ED4F00085F0100081C
:1000E0005F0100085F0100085F0100085F01000870
:1000F0005F0100085F0100085F0100085F01000860
:100100005F0100085F0100085F0100085F0100084F
:100110005F0100085F0100085F0100085F0100083F
:100120005F0100085F0100085F0100085F0100082F
:10013000DFF80CD000F0BAF900480047756D0008F0
:10014000603C00200648804706480047FEE7FEE77F
:10015000FEE7FEE7FEE7FEE7FEE7FEE7FEE7FEE777
:10016000494C00083101000840EA01039B0703D015
:1001700009E008C9121F08C0042AFAD203E011F8E6
:10018000013B00F8013B521EF9D27047D2B201E0A8
:1001900000F8012B491EFBD270470022F6E710B58C
:1001A00013460A4604461946FFF7F0FF204610BDE5
:1001B000034611F8012B00F8012B002AF9D118464B
:1001C00070472DE9FE4F81EA030404F0004421F05A
:1001D000004100944FF0000B23F0004350EA01046B
:1001E0005ED052EA03045BD0C3F30A54C1F30A554C
:1001F0002C44A4F2F3340194A0FB0254C1F3130184
:1002000041F48011C3F3130343F4801301FB024450
:1002100000FB034E840A970A44EA815447EA835755
:10022000A4FB076802958D0A05FB07854FEA932C0E
:1002300004FB0C542705029D4FEA065847EA16377F
:10024000B5EB08056EEB070C870E920E47EA811797
:1002500042EA8312A7FB0201B6EB0B0164EB000438
:100260002B0D43EA0C335E1844EB1C50DA46514622
:10027000E7FB0201C5F313044FEA0B3343EA1453BF
:100280004FEA0432019C43EA0603A4F10C040294F1
:10029000009CCDE900B400F0BAF803B0BDE8F08FDF
:1002A00000200146F9E72DE9F04D81EA030404F04E
:1002B000004B21F0004514464FF0000A23F00041A6
:1002C00050EA050220D054EA01021DD0C5F30A57B6
:1002D0000246C5F31303C1F31300C1F30A5640F4F9
:1002E000801543F48013A7EB0608101BD64608F2CE
:1002F000FD3873EB050002D308F1010801E0921804
:100300005B41B8F1000F03DA00200146BDE8F08D33
:1003100000204FF48011064684460EE0171B73EB55
:10032000050705D3121B63EB050306434CEA010CDA
:1003300049084FEA300092185B4150EA0107EDD1BD
:1003400052EA030012D082EA040083EA050108435E
:1003500005D0101BAB4106D20122002306E000228B
:100360004FF0004302E06FF0010253101AEB060059
:100370004CEB085110EB0A0041EB0B01BDE8F04DCE
:1003800000F036B80EB540F2334102910021CDE9BC
:1003900000110A460B4600F03AF803B000BDC1F365
:1003A0000A5210B5C1F3130140F2FF3341F480113A
:1003B0009A4201DA002010BD40F233439A42A2F281
:1003C000334203DC524200F003F810BD904010BDF0
:1003D000202A04DB203A21FA02F00021704721FA9A
:1003E00002F3D040C2F12002914008431946704701
:1003F00010B5141E73F1000408DA401C41F100012D
:1004000092185B411A4301D120F0010010BD2DE983
:10041000F04D92469B4611B1B1FA81F202E0B0FA7A
:1004200080F22032904600F053F804460F4640EA2E
:100430000A0041EA0B0153465A46084313D01146BD
:1004400053EA010019D0C8F140025046FFF7C0FF3F
:1004500005460E4650465946424600F039F80843D4
:1004600005D0012004E020463946BDE8F08D00208B
:10047000054346EAE0762C4337430A986305E40ACD
:10048000A0EB08000022FD0A44EA47540A3002D5D6
:1004900000200146E9E7010510196941DDE9084539
:1004A00000196941BDE8F04DA2E70000064C074D78
:1004B00006E0E06840F0010394E807009847103434
:1004C000AC42F6D3FFF738FE90B00008B0B0000899
:1004D000202A04DB203A00FA02F100207047914004
:1004E000C2F1200320FA03F319439040704770B51E
:1004F0008C1810F8015B15F0070301D110F8013BCF
:100500002A1106D110F8012B03E010F8016B01F855
:10051000016B5B1EF9D12B0705D40023521E0DD4AD
:1005200001F8013BFAE710F8013BCB1A921C03E0FB
:1005300013F8015B01F8015B521EF9D5A142D8D333
:10054000002070BD02494A68C264486070470000DC
:100550002800002070470000014901200870704702
:1005600014000020704770477047000001490220C6
:1005700008707047140000207047704770470000F3
:10058000014903200870704714000020704770472D
:10059000FEE7072903D000EB81008262704700214B
:1005A00000EB81039A62491CC9B20729F8D370474E
:1005B0002DE9F04107460C4615461E4650212046BF
:1005C000FFF7EBFD20223946201D04F017FB14F83D
:1005D000240F20F00F00093020F0F0009030207040
:1005E0000920A07044F8245C607866F30100607014
:1005F000A847617860F383016170002084F82600C9
:10060000243C2046BDE8F041FFF79CBF70B504468E
:10061000206880476D4E707094F825100025C1F356
:100620008102824228D094F84A20521CD2B284F827
:100630004A20022A20D360F3830184F8251084F82D
:100640004A5094F8240000F00F01092904D002292F
:1006500002D0010705D00FE020F00F0084F824003D
:100660000AE03178B9B3357020F00F00401C84F8EF
:100670002400042084F8260094F8240010F00F01D0
:1006800035D001295ED0022924D194F84910491CA3
:10069000C9B284F849100F2909D320F00F0000F1E6
:1006A000090020F0F00000F1900084F8240011D33C
:1006B00094F8240000090DD084F84950A16A09B1CA
:1006C0002046884714F8240F20F00F00093020F04E
:1006D000F000207070BDFFE720F00F00401C84F890
:1006E0002400E16A0029C7D020468847C4E794F86F
:1006F0002500C0F3810100F003008142EAD184F8B3
:10070000265094F84B00401CC0B284F84B003228AD
:10071000E0D394F84800401C10F0FF0084F8480033
:1007200008D084F84850032084F82600616B09B192
:100730002046884794F84B00FF28CBD1322084F81C
:100740004B00C7E794F8261079B1032931D004296A
:10075000C0D184F84B5020F00F000930357020F0E4
:10076000F000403084F82400B4E794F849100F29D1
:1007700013D80221B1EB101F0FD184F82610216B82
:1007800009B12046884714F8240F20F00F000930E3
:1007900020F0F000903020709CE704F8495FA570CD
:1007A00020F00F00801C20F0F000203004F8250C11
:1007B00090E784F84B5020F00F000930357020F09E
:1007C000F000303084F8240084E700002800002086
:1007D00010B50023314A324932A0FFF7E9FE334A0F
:1007E00000212F48FFF7D5FE314A02212C48FFF7A0
:1007F000D0FE304A03212A48FFF7CBFE2E4A0421BF
:100800002748FFF7C6FE264900232C4A50312CA06A
:10081000FFF7CEFE22482C4A00215030FFF7B9FEE8
:100820001F482A4A02215030FFF7B3FE1C48284ACD
:1008300003215030FFF7ADFE1948264A04215030FD
:10084000FFF7A7FE16490023234AA03123A0FFF794
:10085000AFFE1348234A0021A030FFF79AFE10484C
:10086000214A0221A030FFF794FE0D481F4A0321C0
:10087000A030FFF78EFE0A481D4A0421A030FFF782
:1008800088FE074801F0F4F90548503001F0F0F90E
:100890000348BDE81040A03001F0EAB9193F000854
:1008A00078100020427574746F6E3100590500088D
:1008B000550500086505000867050008253F000884
:1008C000427574746F6E32006D050008690500088A
:1008D000790500087B050008313F000842757474F3
:1008E0006F6E3300810500087D0500088D05000846
:1008F0008F05000810B50548446803E02046FFF75F
:1009000085FEE46C002CF9D110BD00002800002009
:1009100070B50D460478002C00D101240948012C43
:1009200006D0022C09D000242C704FF0011070BDAD
:100930000121017003F0B4FAF6E70221017003F01F
:1009400069FAF1E7DC2800200278407842EA0020CA
:1009500000EB4000C000401EFDD108700048704709
:10096000010002007FB50546084900240C7001947F
:10097000029440F603610091022103916946044804
:1009800001F01AFB2C7004B0012070BDDC2800209F
:10099000000C014030B504464278801C002A0BD080
:1009A00010F8013B9D0703D5DB0602D5001D00E0D2
:1009B000001D521E002AF3D100220A704A70001B4B
:1009C0000004801C30BD00002DE9FF470D46027871
:1009D000DFF848800027002A07D0012A1BD0FF201B
:1009E0002870404604B0BDE8F087467802974FF47F
:1009F000005400941120019002200390DFF8209011
:100A00006946484601F0D8FAF00702D0C9F8144008
:100A100001E0C9F810402F704046E3E701000200F2
:100A2000001001400022062824D006DC052821D22F
:100A3000DFE800F0202020200C00F0280DD0FD2859
:100A400018D0FE2813D0FF2814D10AE00A48026803
:100A50000A604068486008220CE0132008700122F8
:100A600008E04020087000204870022202E00120C7
:100A70000870012210467047AEA10008F0B510F8CA
:100A8000014B104EB4750022002308E010F8015B02
:100A9000F7183D7606EB43073A842A445B1CA342D1
:100AA000F4D3002006E033181B7ED21A06EB400375
:100AB0001A86401CA042F6D300200870641C200453
:100AC000401CF0BDDC28002010B50C460E490A7809
:100AD000022A14D10078C875897D88420FD20E2071
:100AE00001F0DAFF02F00CF9002121706070010AB8
:100AF000A170010CE170000E2071044810BDFF20B0
:100B000020704FF0011010BDDC280020050001000E
:100B10002DE9F047002201F8012B88460125012428
:100B200010F8017B15E010F8016B814642464946FA
:100B3000304602F053F906F03F0000B94020C01DD6
:100B4000C10809EB01000D446D1C320601D5884433
:100B50000C447F1E791CE6D1204665F31F40BDE89A
:100B6000F08700002DE9F04F85B004460494002082
:100B7000029003918E1CC44900220A700025814610
:100B8000C24A14F8011BD175927D91427ED214F8AD
:100B9000018BB8F1000F7AD014F801BB5FEACB717A
:100BA00001D00B2700E00A275FEA8B7170D5B9F1FD
:100BB000000F3AD0B548B0F80AA0BD4210D15FEAA4
:100BC000CB600DD46946584602F05CF902281ED16C
:100BD000BAF1010A1BD3AC4909780029F2D016E01A
:100BE0000A2D03D00A25284601F056FFDFF8989217
:100BF00069460E2002F046F9022806D1BAF1010A30
:100C000003D399F800100029F2D04FF00009012811
:100C10003DD1009931700099090A71700099090C51
:100C2000B1700099090EF170361D5FEACB6154D5A1
:100C300020786178E27840EA0120A178090441EA4D
:100C4000026108430190241D9048B0F80CA0BD42F9
:100C500003D03D46284601F01FFF8C4847890021FC
:100C6000584602F00FF9022806D17F1E791C03D0E6
:100C7000854909780029F2D0012808D1834847899D
:100C80006946584602F0FEF8022802E0DEE0A0E0E5
:100C900041E006D17F1E791C03D07B4909780029E9
:100CA000EED001280DD17949009A09691140019AC5
:100CB000914206D0BAF1010A03D373490978002999
:100CC000DCD07249009A09691140019A914201D021
:100CD00040F0100001287CD172E0B9F1000F6FD113
:100CE000BD4203D03D46284601F0D6FE67484789FD
:100CF000DFF894A10021584602F0C4F8022806D17A
:100D00007F1E791C03D09AF800100029F2D0012828
:100D100064D1814654E0B9F1000F25D00A2D03D0EB
:100D20000A25284601F0B8FE5848B0F80AA06946DE
:100D30000E2002F0A7F8022806D1BAF1010A03D367
:100D4000514909780029F2D0012847D10098307024
:100D50000098000A70700098000CB0700098000EA7
:100D6000F070361D4FF0000920786178E27840EA93
:100D70000120A178090441EA026108430090241D82
:100D80005FEA8B6103D541490861012018E0BD424B
:100D900003D03D46284601F07FFE3C484789DFF8F6
:100DA000E8A06946584602F06DF8022806D17F1E79
:100DB000791C03D09AF800100029F2D001280DD137
:100DC0000299491C02913049097811B9A8F101082A
:100DD00000E003E0B8F1000F7FF4DEAEB8F1000FE1
:100DE0000DD014F8011B8A0703D5C90602D5241DAE
:100DF00000E0241DA8F10108B8F1000FF1D101288D
:100E000034D10A2D02D00A2001F046FEB9F1000FBC
:100E10001DD01E4845891C4F69460E2002F032F84D
:100E2000022805D16D1E691C02D039780029F3D043
:100E300001281BD1009931700099090A717000993D
:100E4000090CB1700099090EF170361D0EE00F48C3
:100E500045890D4F00210E2002F014F8022805D11B
:100E60006D1E691C02D039780029F3D0DDE9021229
:100E70001170039948700398311A049805B0201A2C
:100E800041EA0040BDE8F08F30000020DC2800205F
:100E90002DE9F84F0446002600208846CF1C524911
:100EA00000220A70DFF844B114F8011B8BF8171008
:100EB0009BF81620914254D22178627841EA0225AB
:100EC000A41C002D4DD014F8019B5FEAC97002D01C
:100ED0004FF00B0A01E04FF00A0A504601F0DCFD2A
:100EE0005FEA89705DD541484489DFF8FCB0002194
:100EF000484601F0C7FF022806D1641E611C03D0DA
:100F00009BF800100029F2D0012862D126E03DB9FB
:100F1000BAF10A0F02D00A2001F0BEFD4FF00E090F
:100F2000324844896946484601F0ACFF022806D1A0
:100F3000641E611C03D09BF800100029F2D0012828
:100F400047D1009939700099090A79700099090C04
:100F5000B9700099090EF9703F1D761C6D1E691C51
:100F6000D5D136E020786178E27840EA0120A17896
:100F7000090441EA026108430090241D1B48B0F8AF
:100F80000AB06946484601F07DFF022806D1BBF150
:100F9000010B03D3144909780029F2D0012818D194
:100FA000761C6D1E681CDDD1BAF10A0F02D00A2032
:100FB00001F072FD0D4844890B4D00210E2001F017
:100FC00061FF022805D1641E611C02D02978002926
:100FD000F3D088F80060310A88F8011088F8020020
:100FE000A7EB0800BDE8F88F30000020DC280020C7
:100FF00070B504460D460E492078C875897D884233
:1010000003D3FF202870012070BD082001F044FDAB
:101010006078A178227940EA0120E178090441EA68
:101020000261084302F0CEF900202870012070BD53
:10103000DC28002010B50278A2F180031F2B02D813
:1010400000F066F810BD01F8012B0C4610F8011BEA
:10105000172957D2DFE801F00C14181C44484C56ED
:101060005020245656565656282C3034383C4000D2
:101070000078611CFFF7D6FC207000F1021010BD53
:101080002146FFF7A1FC3AE02146FFF741FC36E09C
:101090002046FFF767FC32E02146FFF755FC2EE0C3
:1010A000204600F03DF82AE0214600F0B1FA26E0A3
:1010B000214600F07BFA22E0214600F079FB1EE099
:1010C000214600F039F81AE02146FFF721FD16E02D
:1010D0002146FFF7D3FC12E02146FFF7F5FC0EE0B6
:1010E000214600F0DBFB0AE0214600F0A1FB06E010
:1010F000214600F0ABFB02E0214600F0E5FB00F1E9
:10110000011010BDFF2004F8010C4FF0011010BDBC
:101110004FF0011203780B7000788038104670474A
:101120000021417001700220704710B502F054FA9E
:10113000BDE8104002F00CBA0078064A00F0030344
:101140005B1C1375C0F380005075002008704FF0D1
:1011500001107047DC2800202DE9F04F87B00446CD
:1011600006940020049005918D1CDFF8DCA200217C
:101170008AF80010002703916678A41C002E7DD009
:1011800014F8018B5FEA887179D587B3AF48B0F85E
:101190000A9008F0110001280DD101A9404602F083
:1011A0003DFF022815D1B9F1010912D39AF80010B8
:1011B0000029F2D00DE001A90E2002F02FFF022835
:1011C00006D1B9F1010903D39AF800100029F2D031
:1011D0000027012852D1019929700199090A6970E3
:1011E0000199090CA9700199090EE9702D1D5FEA9A
:1011F000C86152D520786178E27840EA0120A17870
:10120000090441EA026108430290241D8F48B0F8A6
:101210000CB05FEAC87011D08C48B0F80A90002179
:10122000404602F0FBFE022806D1B9F1010903D3C2
:101230009AF800100029F2D001281FD18348B0F895
:101240000A9001A9404602F0E9FE022806D1B9F150
:10125000010903D39AF800100029F2D0012810D117
:101260007A49019A09691140029A914209D0BBF169
:10127000010B06D39AF80010002901E08AE042E051
:10128000DCD07249019A09691140029A914201D059
:1012900040F0100001287DD132E06C49B1F80A908D
:1012A0005FEAC87111D05FBB0021404602F0B6FE74
:1012B000022806D1B9F1010903D39AF800100029D8
:1012C000F2D0012872D101271AE001A9404602F0AC
:1012D000A5FE022806D1B9F1010903D39AF800103E
:1012E0000029F2D0012861D1019929700199090AD8
:1012F00069700199090CA9700199090EE9702D1DF9
:101300000021039148E0F7B15048B0F80A9001A9D4
:101310000E2002F083FE022806D1B9F1010903D3A1
:101320009AF800100029F2D001283FD101982870C6
:101330000198000A68700198000CA8700198000ECE
:10134000E8702D1D002720786178E27840EA0120BE
:10135000A178090441EA026108430190241D5FEA73
:10136000886103D539490861012015E03748B0F894
:101370000A9001A9404602F051FE022806D1B9F1B7
:10138000010903D39AF800100029F2D001280DD1E9
:10139000012100E00AE003910499491C04919AF8A4
:1013A000001019B9761E002E7FF4EAAE5EB114F873
:1013B000011B8A0703D5C90602D5241D00E0241DA0
:1013C000761E002EF3D101282FD1EFB11F48468998
:1013D00001A90E2002F022FE022806D1761E711C01
:1013E00003D09AF800100029F2D001281DD10199EC
:1013F00029700199090A69700199090CA97001996C
:10140000090EE9702D1D10E0039971B10F4846894E
:1014100000210E2002F002FE022806D1761E711C69
:1014200003D09AF800100029F2D0DDE904121170FF
:10143000059948700598291A069807B0201A41EABC
:101440000040BDE8F08F000030000020DC280020C4
:101450002DE9F84F0446002600208946CF1CDFF80E
:1014600018A100218AF80010641C2178627841EAF2
:101470000225A41C002D74D014F8018BDFF8FCB0F9
:101480005FEA88715BD55FEAC87135D0BBF80A4066
:101490000021404602F0C2FD022806D1641E611CF4
:1014A00003D09AF800100029F2D0012859D123E086
:1014B00025B95FEAC87001D04FF00E08BBF80A40AA
:1014C0006946404602F0AAFD022806D1641E611C4E
:1014D00003D09AF800100029F2D0012841D10099D8
:1014E00039700099090A79700099090CB97000994E
:1014F000090EF9703F1D761C6D1E691CD8D130E0B5
:1015000020786178E27840EA0120A178090441EA74
:10151000026108430090241D1848B0F80AB06946DB
:10152000404602F07BFD022806D1BBF1010B03D33C
:101530009AF800100029F2D0012812D1761C6D1EF5
:10154000681CDDD10D48448900210E2002F066FDA3
:10155000022806D1641E611C03D09AF800100029ED
:10156000F2D089F80060310A89F8011089F8020088
:10157000A7EB0900BDE8F88F30000020DC28002030
:1015800038B50C464178827841EA0222C178007968
:10159000090441EA0060024300926946002002F01B
:1015A0003DFD00202070012038BD000030B50278DC
:1015B000437842EA03228378C0781B0443EA006040
:1015C00002430F48002A08D00E4D00240E4BAA42B9
:1015D00006D301225A705A600FE0FF220A7030BD14
:1015E0005C700A4D1544B5FBF2F2022A03D90325BB
:1015F000B2FBF5F200E001225A600C7030BD000031
:101600000100040080A81201DC280020FF50250200
:101610002DE9F04786B08846057844788178C2780D
:1016200041EA022601794079090441EA0060064353
:101630005849E00701F1040206D0EB074FF480603F
:1016400001D0086000E01060A00706D5AB074FF49A
:10165000007001D5086000E0106060074FF00103E2
:1016600008D5A808C00702D04B48036002E04A48EA
:10167000001D036020064FF000072BD5E8090297F4
:101680000397049705975FEAC07944484FF4006CCC
:101690004FF0020A09D0C1F800C0CDF808C0CDF85B
:1016A00014A002A900F088FC14E0C2F800C0CDF834
:1016B00008C0112103910493CDF814A002A900F0F1
:1016C0007BFC06F0ABFA36480190042201A93548AC
:1016D00006F006FE304B2F481B1F001FDEB33249B9
:1016E0008E4200D90E464FF0E02CCCF8187006EB75
:1016F000C601C900CCF814100521CCF81010E10780
:1017000004D00168C1F38022AA421CD1A10705D5EB
:101710000168C1F34021B1EB550F14D1610705D524
:101720001968C1F30001B1EB950F0CD1A10602D5E8
:10173000B7EB551F07D121060BD50168C1F3C021B6
:10174000B1EBD51F05D0DCF81010C1F30041002922
:10175000D5D0CCF810700168C1F380210268C2F3C3
:10176000402241EA42021968C1F3000142EA8102C3
:10177000094908390968C1F3400142EAC10100681A
:10178000C00A41EAC01088F8000006B00748BDE86A
:10179000F0870000100C014010080140000C0140CF
:1017A0000400FA050CED00E0C0C62D0001000600A3
:1017B00070B50D4610F8014B0146002C01D14FF4D5
:1017C0008074204602F084FF00202870E41DE008A9
:1017D000401C0004401C70BD08B513480021017076
:1017E0004170222242600172642242818181016142
:1017F00001220275417581750C48816941F008012B
:101800008161816901F008010091816941F0100155
:101810008161806900F01000009002F0FBFABDE8E1
:10182000084002F03DBB0000DC2800200010024010
:10183000054A1278012A03D0022A03D0FFF7AAB87A
:10184000FFF78ABCFFF78EB9DC28002010B50446EC
:101850001148007801280CD002280ED00020087012
:10186000487088700320E17889070AD540F4802009
:1018700010BD2046FFF7ECFDF5E72046FFF708FB1B
:10188000F1E76178A27841EA0221042202EB8101AA
:1018900040EA014010BD0000DC28002010B5084AD5
:1018A000037813724378847843EA04235381C3781E
:1018B000007943EA0020908100200870014810BDA3
:1018C000DC2800200100050010B5094A1278012A21
:1018D00007D0022A08D0FF200870012040F4A02081
:1018E00010BDFFF74DFEF9E7FFF782FBF6E70000BA
:1018F000DC280020014800F02DBA000098140020D8
:10190000014800F027BA000054140020014800F0FC
:1019100021BA000094120020014800F01BBA000018
:10192000D8120020014800F015BA00001C13002056
:10193000014800F00FBA00006013002030B590F8A5
:1019400040500124AC40C56B6C6004686360436820
:10195000102B04D0036899600068C26030BD036832
:101960009A600068C16030BD70470000F8B52C4C2B
:1019700000276770A7702BA004F06BFF2CA12D48E7
:1019800004F05AFE0126E0BB2B492A4804F03CFF34
:1019900034E02948407AA0B394F90200274D264943
:1019A00000EB800005EB80000931FEF701FC94F9A3
:1019B00001000A2200F10A0191FBF2F20C210091D0
:1019C000C1B20123002002F077F8009661780C2361
:1019D0001BA2082002F0B1F8009694F90200617889
:1019E00000EB800005EB80020C23102002F0A5F82C
:1019F00060780A306070A078401CA0700E490D48D5
:101A000000E003E004F000FF0028C2D00C230DA288
:101A100000216E20009602F090F86770F8BD00007B
:101A200004000020303A77726974652E62696E0096
:101A3000303A000008060020F0050020E60E0020E5
:101A40002E0000003C3C00002DE9F843174900201F
:101A5000487000240C27DFF85880012604EB84002E
:101A60004500E9B20123621C0020009702F024F82F
:101A7000E9B20C230FA20820009602F05EF8C4EB36
:101A8000C400009658F83020E9B20C23102002F070
:101A900054F8641CE4B2062CE0D30C2306A2002107
:101AA0006E20009602F049F8BDE8F883040000209B
:101AB0000C2B00202E0000003C3C00002DE9F84FCC
:101AC000014601225D4804F0DFFC5D49087010B159
:101AD0000020BDE8F88F5B4E0127377006F09EF8B6
:101AE00000287DD006F048FD08B10020F1E706F09F
:101AF00027FD08B10020ECE706F06CFD06F08EF83B
:101B000000286ED04FF0006006F0BAFC18B106F065
:101B10000FFD0020DDE706F09FFC08B10020D8E7AC
:101B20004FF000084FF4806B4FF00C093EE0454B3E
:101B30005A461B1D4449414804F0B4FDB08858453D
:101B400001D286F80080B0685A463F4900F1006033
:101B500006F0BCFC08B10020BBE7D6F808A00AF5E7
:101B6000806AC6F808A03548C068FEF70BFC04463A
:101B70000D465046FEF706FC22462B46FEF793FB29
:101B80000022324BFEF71DFBFEF709FCF060024617
:101B900002231E213220CDF8009001F08DFF0C238E
:101BA0002BA21E213E20009701F0C7FF30780028AD
:101BB000BDD106F033F8D0B34FF40051254800F002
:101BC000FAFA002006F056F9052364221E2120208F
:101BD000CDF8009001F070FF0C231DA21E2101E042
:101BE0002AE027E03E20009701F0A7FF0C231AA26D
:101BF00028210020009701F0A0FF0C2319A2322118
:101C00000020009701F099FF4FF47A7000F0C2F9BC
:101C100001F0C0FD86F8018086F80280C6F80880D1
:101C2000FFF7A4FE86F801803770012051E7FFE737
:101C300000204EE700204CE700204AE7C8030020C0
:101C40000100002004000020E60A002000005940A6
:101C500025000000001001403D3D3D3D3D3D3D3D26
:101C60003D3D0000464C41534820444F4E45000046
:101C700090F82600704710B590F821100022022934
:101C800005D00421816380F82020012010BD016867
:101C90000B6823F00E030B6001680B6823F001034F
:101CA0000B6090F84030C46B012101FA03F36360CC
:101CB00080F8211080F82020104610BD10B50024B7
:101CC00090F82110022903D00421816301243DE012
:101CD00001680A6822F00E020A6001680A6822F0B0
:101CE00001020A601A4A0168914201D1012121E0F2
:101CF000174A1432914201D110211BE0144A2832B4
:101D0000914201D1891515E0114A3C32914201D12D
:101D100089140FE00E4A5032914202D14FF48031C3
:101D200008E00B4A6432914202D14FF4801101E085
:101D30004FF08071064A083A5160012180F8211065
:101D4000002180F82010416B01B18847204610BD6A
:101D5000080002402DE9F05FC16B0A6801680B685A
:101D6000046C4FF0040A0AFA04FA4E4D4E4E4F4FDF
:101D7000DFF83CC1DFF83C81DFF83C911AEA020F42
:101D800031D05FEA437A2ED50A68920603D40A68F6
:101D900022F004020A600168A94201D1042119E07D
:101DA000B14201D1402115E0B94202D14FF4806126
:101DB00010E0614502D14FF480410BE0414502D172
:101DC0004FF4802106E0494502D14FF4800101E043
:101DD0004FF08061334A083A5160C16A00295FD0F0
:101DE000BDE8F05F08474FF0020E0EFA04FE1EEA4F
:101DF000020F4FF0000A4FF0010B35D05FEA837EEF
:101E000032D50A68920605D40A6822F00A020A60EE
:101E100080F821B00168A94201D1022119E0B14244
:101E200001D1202115E0B94202D14FF4007110E038
:101E3000614502D14FF400510BE0414502D14FF40E
:101E4000003106E0494502D14FF4001101E04FF0A6
:101E50000071144A083A516080F820A0816A002974
:101E60001ED0BDE8F05F08470825A540154217D0F1
:101E70001A0715D50A6822F00E020A6090F8401081
:101E8000C26B0BFA01F15160C0F838B080F821B094
:101E900080F820A0016B002902D0BDE8F05F084760
:101EA000BDE8F09F080002401C00024030000240E4
:101EB00044000240580002406C00024030B5002847
:101EC00027D0001D144A50F8041C14230A44B2FB06
:101ED000F3F29200C263114A8263022242770A68D7
:101EE00043F6F0739A43D0E900342343D0E9024526
:101EF0002C432343046923434469234384692343D4
:101F000013430B60002141630122427701770020D7
:101F100030BD012030BD0000F8FFFDBF00000240D1
:101F200070B50446002594F8200001280CD001204B
:101F300084F8200094F821600020012E06D084F857
:101F400020000225284670BD022070BD022684F8BC
:101F50002160A0632068066826F00106066020461E
:101F6000FFF7ECFCE06A28B12068016841F00E013F
:101F7000016009E02068016821F004010160206827
:101F8000016841F00A0101602068016841F0010127
:101F90000160D7E770B5044600F01CF90546601CE7
:101FA00002D004480078044400F014F9401BA04219
:101FB000FAD370BDB40300202DE9F84F00240023AC
:101FC000DFF8C4914FF00F0809F1040A0AF1040B7D
:101FD0000BF1040ED1E00127A7403A40BA4275D177
:101FE000DFF8A8C14D68A5EB0C0665452BD00DDCCC
:101FF000032D34D005DC35B3012D19D0022D2FD19E
:102000001BE0112D16D0122D2AD119E0B6F5881F2C
:1020100019D006DCB6F5803F15D0B6F5801F1FD16C
:1020200011E0B6F5001F0ED0B6F5041F18D10AE076
:10203000CB6815E0CB681B1D12E0CB6808330FE0BE
:10204000CB680C330CE08B6823B1012B04D0082340
:10205000476105E0042303E00823076100E0002353
:10206000FF2A01D8054601E000F1040502D84FEA35
:10207000840603E0A4F108064FEA86062F6808FAF2
:1020800006FC27EA0C0703FA06F647EA06072F6064
:102090004D68ED0070D53E4DAE6946F00106AE616B
:1020A000AD6905F0010500953A4D24F00306771956
:1020B000BE68A5072D0F08FA05FC26EA0C06DFF816
:1020C000D8C0604503D14FF0000C17E054E0DFF8B2
:1020D000CCC0604502D14FF0010C0FE0DFF8C0C06A
:1020E000604502D14FF0020C08E0DFF8B8C060454F
:1020F00002D14FF0030C01E04FF0040C0CFA05FC88
:102100004CEA060CC7F808C04D68ED0305D5D9F8B0
:1021100000501543C9F8005004E0D9F80050954329
:10212000C9F800504D68AD0305D5DAF800501543E5
:10213000CAF8005004E0DAF800509543CAF800509D
:102140004D68ED0205D5DBF800501543CBF8005083
:1021500004E0DBF800509543CBF800504D68AD0229
:1021600005D5DEF800501543CEF8005004E0DEF847
:1021700000509543CEF80050641C0A6832FA04F50A
:102180007FF429AFBDE8F88F000401400000111072
:10219000001002400000014000080140000C014016
:1021A00000100140001401408068084201D0012065
:1021B000704700207047C2680A4201D041617047F1
:1021C00001617047002A01D0016170470904016173
:1021D000704700000148806870470000B403002089
:1021E000024881680278114481607047B40300207E
:1021F000002809DB00F01F02012191404009800006
:1022000000F1E020C0F8001170470000F0B40D4666
:102210000D4B1B68C3F30223C3F10704042C00D940
:102220000424191D072901D2002300E0DB1E01262A
:1022300006FA04F1491E294099409E40761E164038
:102240003143F0BC03F008B90CED00E00148006830
:1022500070470000AC03002000B5FFF7F7FF04490A
:102260004968044AC1F30221515CC84000BD000026
:1022700000100240A0A4000800B5FFF7E7FF0449E2
:102280004968044AC1F3C221515CC84000BD000046
:1022900000100240A0A4000870B50446002C05D030
:1022A0000025A56294F8510010B106E0012070BD30
:1022B00084F85050204600F02FF8022084F8510096
:1022C0002068016821F040010160D4E90101084360
:1022D000D4E903121143084361690843218B01F4D7
:1022E00000710843E1690843216A0843A16A084371
:1022F00021680860A069042101EA10402168486053
:102300002068C16921F40061C1616565012084F81C
:102310005100002070BD0000F0B585B006460024D5
:102320000194029403940494384D31683848022291
:102330000323A94243D1816941F4805181618169BC
:1023400001F480510091816941F00401816180694B
:1023500000F004000090A0200190029204932D4D03
:1023600001A92846FFF728FE40200190029403941B
:1023700001A92846FFF720FE284D27482860102095
:102380006860AC608027EF602C616C61AC61EC61CF
:102390002846FFF793FDB5646E621F481438443534
:1023A00028606C60AC60EF602C616C61AC61EC61CA
:1023B0002846FFF783FDF5646E6205B0F0BD184D49
:1023C000A942FAD1C16941F48041C161C16901F4F6
:1023D00080410091816941F008018161806900F0CC
:1023E000080000904FF420400190029204930D4D9C
:1023F00001A92846FFF7E0FD4FF4804101910294C6
:10240000039401A92846FFF7D7FDD6E70030014025
:102410000010024000080140300002405414002027
:1024200000380040000C01402DE9F84F04460A9E98
:102430008A4693461F4601254FF0000894F8500045
:1024400001280ED0012084F85000FFF7C3FE81461A
:1024500094F85100616801280DD0B1F5827F07D151
:1024600002E00220BDE8F88FA16809B9042802D073
:102470004FF00208C3E0BAF1000F28D0BBF1000F03
:1024800025D0380023D094F85100042802D005202C
:1024900084F8510000206065C4F838B0E787A7874A
:1024A000C4F830A0E786A7862064606420680168CD
:1024B000490603D4016841F040010160E068B0F5CD
:1024C000006F07D06068E8B3012F48D07DE04FF07F
:1024D000010894E0606808B1012F39D1206B2168B0
:1024E0000088C860206B801C2063E08E401EE08660
:1024F0002EE02068816889070DD5E18E59B1012D44
:1025000009D1216B0988C160206B801C2063E08E9B
:10251000401EE086002520688168C9070BD0E18F46
:1025200049B1C068A16B0880A06B801CA063E08FDC
:10253000401EE0870125FFF74DFEA0EB0900B042E9
:1025400006D300E00BE0701C02D04FF0030856E009
:10255000E08E0028CDD1E08F0028CAD13BE0206B6F
:10256000216800780873206B401C2063E08E401EB9
:10257000E0862AE02068816889070DD5E18E59B18F
:10258000012D09D1216B09780173206B401C206358
:10259000E08E401EE086002520688168C9070BD0C8
:1025A000E18F49B1C068A16B0870A06B401CA063AB
:1025B000E08F401EE0870125FFF70CFEA0EB09002D
:1025C000B04201D3701C11D186B1E08E0028D1D168
:1025D000E08F0028CED14A463146204601F0B0FCBB
:1025E00038B14FF001082020606508E04FF0030883
:1025F00005E0A06818B92068C168806800900120D3
:10260000503460700020207040462BE710B5401E0B
:10261000B0F1807F01D3012010BD4FF0E024606154
:102620000F21601702F018FF0020A0610720206131
:10263000002010BD10B5044620684169C1F3C011E7
:1026400094F83920212A0BD151B1416921F0800140
:102650004161206B08B1FFF70EFB204602F087FBBB
:1026600020684169C1F3801194F83A20222A0BD1E5
:1026700051B1416921F040014161606B08B1FFF740
:10268000FAFA204602F058FB002010BD7047000007
:1026900070B5044622681068D168526900F00F03D3
:1026A000002B08D1850606D58D0604D52046BDE849
:1026B000704002F065BB002B5ED002F0010301F414
:1026C00090752B4358D0C30705D0CB0503D5E36BDA
:1026D00043F00103E363430705D5D30703D0E36B5E
:1026E00043F00203E363830705D5D30703D0E36B0D
:1026F00043F00403E363030705D5D20703D0E26B7D
:1027000042F00802E263E26B002A2AD0800604D578
:10271000880602D5204602F033FB20684069C0F3EA
:102720008010E16B090700D400B3204602F004FBDF
:1027300020684169490615D5416921F04001416190
:10274000606B58B115494163606BFFF7B7FA002819
:1027500007D0606B416BBDE8704008472046FFF72B
:1027600095FF70BD2046FFF791FF70BD2046FFF733
:102770008DFF0020E06370BD020606D50A0604D571
:102780002046BDE8704002F0D3BB4006F3D54806B2
:10279000F1D52046BDE8704002F0DCBA994C000843
:1027A00070B50446002C04D094F83900002510B10F
:1027B00006E0012070BD84F83850204600F022F871
:1027C000242084F839002068C16821F40051C160D8
:1027D000204602F023FB2068016921F49041016149
:1027E0002068416921F02A0141612068C16841F4F3
:1027F0000051C160E563202084F8390084F83A0074
:10280000002070BD2DE9F04385B0044600250195F8
:10281000029503950495DFF84CC1216852480222C5
:102820000323524E80274FF01008614552D1816931
:1028300041F480418161816901F4804100918169A5
:1028400041F004018161806900F0040000901002F1
:1028500001900292049301A93046FFF7ADFB3015B9
:1028600001900295039501A93046FFF7A5FB414E63
:102870003F483060C6F80480B560F7603561756127
:102880004FF02008C6F818804FF44059C6F81C9045
:102890003046FFF713FB2663746235481430443624
:1028A00030607560B560F76035617561C6F8188095
:1028B000C6F81C903046FFF701FB66637462002285
:1028C00011462520FFF7A2FC2520FFF791FC05B05B
:1028D000BDE8F083DFF8A0C06145F8D1C16941F4DB
:1028E0000031C161C16901F400310091816941F099
:1028F00004018161806900F00400009004200190CF
:102900000292049301A93046FFF756FB082001907C
:102910000295039501A93046FFF74EFB1448154E6A
:102920002830883630607560B560F7603561756154
:10293000B561F5613046FFF7C1FA666374620C4811
:102940003C3044363060C6F80480B560F7603561CD
:102950007561B561F5613046FFF7B0FA26637462C0
:10296000B5E70000003801400010024000080140B7
:1029700044000240941200200044004037B582B069
:102980000446134694F83A00202802D0022005B0ED
:1029900030BD039AA2B39BB394F83800012832D01B
:1029A000012084F83800A262A3850025E563222077
:1029B00084F83A00616B15488862616B1448C862FC
:1029C000616B14480863606B45632168606B091D87
:1029D000FFF7A6FA206801684168019184F8385031
:1029E000C16841F48071C1602068416941F0010112
:1029F00041612068416941F0400141610020C6E722
:102A0000FFE70120C3E70220C1E70000F34C000804
:102A10002F4D0008A94C0008704770477047000010
:102A200070B50178012507290DD0084C21780029BF
:102A300008D1014640220648FDF796FB257005495E
:102A40004020086070BD0448057070BD0200002081
:102A5000640A0020A4030020300000207047FEE735
:102A600008B50020009005F0F5F968B14EF29E70AF
:102A700005F0CCFA50B105F0EDF948B1684605F023
:102A8000B2F938B1012008BD002008BD002008BD02
:102A9000002008BD002008BD03494978002901D065
:102AA00000F004B800F06CB8DC2800202DE9F043F9
:102AB000304D4FF4007CC5F800C02C152E1D34603D
:102AC0002C6034602C60C6F800C034602C60346028
:102AD0002C60294F01223A602849CB7D01EB430944
:102AE000B9F82010002904D034602C60491E002958
:102AF000FAD122491831595C491EDFF87C8008F16F
:102B0000040859B1C30701D03A6001E0C8F80020B9
:102B100034602C604008491E0029F3D1B9F8301008
:102B2000A1B1C00701D03A6001E0C8F800203460CC
:102B30002C603A60491E21B134602C60491E002986
:102B4000FAD1C5F800C034602C6009E0C5F800C0B7
:102B5000C00701D03A6001E0C8F8002034602C6062
:102B600034602C60C6F800C034602C603A60BDE868
:102B7000F0830000100C014010080140DC28002008
:102B80002DE9F0475B4C4FF40078C4F8008004F165
:102B9000040C2715CCF80070574B59680A46521E92
:102BA000FDD127600A46521EFDD1CCF800700A46BE
:102BB000521EFDD127600A46521EFDD1CCF800807E
:102BC000CCF800700A46521EFDD127600A46521EFC
:102BD000FDD1CCF800700A46521EFDD127600A468E
:102BE000521EFDD1454E0125356093F8179003EB39
:102BF000490ABAF820305BB1CCF800700A46521E80
:102C0000FDD127600A46521EFDD15B1E002BF3D179
:102C1000394A183219F802305B1EDFF8E09009F1EA
:102C2000040993B1C20701D0356001E0C9F8005032
:102C3000CCF800700A46521EFDD127600A46521E8B
:102C4000FDD140085B1E002BECD1BAF830204AB30E
:102C5000C00701D0356001E0C9F80050CCF8007021
:102C60000846401EFDD127600846401EFDD1356054
:102C7000521E5AB1CCF800700846401EFDD12760A4
:102C80000846401EFDD1521E002AF3D1C4F8008030
:102C9000CCF800700846401EFDD127600846401E53
:102CA000FDD110E0C4F80080C00701D0356001E01C
:102CB000C9F80050CCF800700846401EFDD12760CE
:102CC0000846401EFDD1CCF800700846401EFDD1DC
:102CD00027600846401EFDD1CCF80080CCF800707B
:102CE0000846401EFDD12760491EFDD13560BDE874
:102CF000F0870000100C0140DC2800201008014083
:102D00002DE9F041324A4FF4007515601315141D7A
:102D10002360304E71680846401EFDD1136008469E
:102D2000401EFDD1256023600846401EFDD1136082
:102D30000846401EFDD123600846401EFDD11360A9
:102D40000846401EFDD1F67D56B123600846401E60
:102D5000FDD113600846401EFDD1761E002EF4D131
:102D600000271F26DFF870C023600846401EFDD1F3
:102D7000DCF80000C0F3400813600846401EFDD197
:102D800047EAC8704708761E002EEDD11560236013
:102D90000846401EFDD1DCF80000C0F34006136079
:102DA0000846401EFDD147EAC67023600E46761ED7
:102DB000FDD113600E46761EFDD1256023600C46C2
:102DC000641EFDD11360491EFDD1BDE8F0810000F5
:102DD000100C0140DC280020080801402DE9F04FCC
:102DE00000F03F03002B00D14023DFF88CA0450604
:102DF0004FF40074AAF1040B02D5CBF8004001E0B7
:102E0000CAF800404FF001094FF48068DFF86CE029
:102E10002DE011F8016B0027082420E0F50703D00E
:102E2000174DC5F8009003E0154D2D1DC5F8009015
:102E3000CAF80080DEF804C065466D1EFDD1104D55
:102E4000083D2D68C5F34005CBF80080BCF1010CAE
:102E5000FCD176087F0847EAC517641E5B1E0CB1DB
:102E6000002BDBD1E740040601D502F8017B002BE3
:102E7000CFD1BDE8F08F0000140C0140DC28002009
:102E800010080140034A5278002A01D000F004B82B
:102E900000F000B9DC2800202DE9F04F7A4F4FF404
:102EA00000733B6007F1040C5E00CCF800603E60EC
:102EB000CCF80030CCF800603E60CCF800603E609A
:102EC000DFF8C8E19EF81720002A05D0CCF8006092
:102ED0003E60521E002AF9D142086D4CD507A4F17C
:102EE00004084FF0010202D0C8F8002000E0226080
:102EF000CCF80060DFF898B1ABF10C0BDBF80050B8
:102F0000C5F340053E606D004FEA90095FEAC9795C
:102F100002D0C8F8002000E02260CCF80060DBF8A6
:102F20000090C9F340093E6045EA09054FEAD0091F
:102F30005FEAC97902D0C8F8002000E02260CCF82E
:102F40000060DBF80090C9F340093E6045EA89095A
:102F5000B9F1010F04D03B60CCF800603E607BE02B
:102F6000DFF828A185079AF816009AF817A0A0EBB9
:102F70000A0A38D500241F20CCF80060DBF8005086
:102F80006D083E6044EAC5746408401E0028F3D111
:102F9000AAF1010ABAF1000F18D0CCF80060DBF8F2
:102FA0000000C0F340003E60AAF1010ABAF1000F30
:102FB00007D0CCF800603E60AAF1010ABAF1000F18
:102FC000F7D13B60CCF800603E6007E03B60CCF896
:102FD0000060DBF80000C0F340003E6044EAC070CF
:102FE00079B3086038E008681F21C50702D0C8F827
:102FF000002000E02260CCF800603E604008491EDE
:103000000029F2D1AAF1010ABAF1000F1AD0C007C3
:1030100002D0C8F8002000E02260CCF800603E60DA
:10302000AAF1010ABAF1000F07D0CCF800603E60A7
:10303000AAF1010ABAF1000FF7D13B60CCF80060A9
:103040003E6009E03B60C00702D0C8F8002000E005
:103050002260CCF800603E60CCF800603E60CCF8A6
:103060000030CCF800603E60C8F800209EF80800F0
:1030700002E0CCF800603E60401E411CF9D109F02E
:10308000FF00BDE8F08F0000100C0140DC2800209C
:10309000140801402DE9F84FC74D4FF4007CC5F8E6
:1030A00000C005F1040A4FF48069CAF80090DFF807
:1030B0000CE3DEF8042013465B1EFDD1C5F800903A
:1030C00013465B1EFDD1CAF800C0CAF80090134633
:1030D0005B1EFDD1C5F8009013465B1EFDD1CAF8FA
:1030E000009013465B1EFDD1C5F8009013465B1E91
:1030F000FDD19EF8174064B1CAF8009013465B1EDC
:10310000FDD1C5F8009013465B1EFDD1641E002C56
:10311000F2D14308DC07AA4B4FF00106A3F10407E4
:1031200001D03E6000E01E60CAF800901446641EA4
:10313000FDD1DFF88CB2ABF10C0BDBF80040C4F32F
:103140004004C5F800909046B8F10108FCD1640035
:103150004FEA90085FEAC87801D03E6000E01E6048
:10316000CAF800909046B8F10108FCD1DBF8008065
:10317000C8F34008C5F800909646BEF1010EFCD198
:1031800044EA08044FEAD0085FEAC87801D03E60FC
:1031900000E01E60CAF800909046B8F10108FCD12A
:1031A000DBF80080C8F34008C5F800909646BEF1F1
:1031B000010EFCD144EA88040094009C012C0BD041
:1031C000C5F800C0CAF800901046401EFDD1C5F8F1
:1031D0000090521EFDD1C2E0DFF8E081840798F82C
:1031E000160098F81780A0EB080E5ED500241F2368
:1031F000CAF800901046401EFDD1DBF80000C0F375
:103200004008C5F800901046401EFDD144EAC87041
:1032100044085B1E002BEBD1AEF1010EBEF1000F96
:103220002FD0C846CAF800901046401EFDD1DBF8EA
:103230000000C0F34000C5F8008013465B1EFDD1BE
:10324000AEF1010EBEF1000F0ED0CAF80080134699
:103250005B1EFDD1C5F8008013465B1EFDD1AEF1AB
:10326000010EBEF1000FF0D1AB46C5F800C0CAF8A0
:10327000008013465B1EFDD1CBF80080521EFDD1AD
:103280000EE0C5F800C04B46CAF800901046401E3C
:10329000FDD1DBF80000C0F340002B60521EFDD1D1
:1032A00044EAC070F1B3086059E008681F24C10700
:1032B00001D03E6000E01E60CAF800901146491E31
:1032C000FDD1C5F800901146491EFDD14008641E8D
:1032D000002CECD1AEF1010EBEF1000F2FD0C007D3
:1032E00001D03E6000E01E604946CAF800901046DA
:1032F000401EFDD129601046401EFDD1AEF1010EE9
:10330000BEF1000F0DD0CAF800101046401EFDD1CE
:1033100029601046401EFDD1AEF1010EBEF1000F36
:10332000F1D100E01BE02B46C5F800C0CAF8001040
:103330001046401EFDD11960521EFDD10FE0C5F8A8
:1033400000C0C00701D03E6000E01E604946CAF8D8
:1033500000901046401EFDD12960521EFDD1CAF8D2
:10336000009016494A681046401EFDD1C5F80090ED
:103370001046401EFDD1CAF800C0CAF800901046A1
:10338000401EFDD1C5F800901046401EFDD13E60A4
:103390000B7A09E0CAF800901046401EFDD1C5F82E
:1033A00000901146491EFDD15B1E581CF2D10098B9
:1033B000C0B2BDE8F88F0000100C0140DC280020EE
:1033C000140801402DE9F04F5E4B4FF400751D606D
:1033D0001E151F1D3E60DFF87081D8F804100A46E4
:1033E000521EFDD11E600A46521EFDD13D603E6058
:1033F0000A46521EFDD11E600A46521EFDD13E6095
:103400000A46521EFDD11E600A46521EFDD198F892
:103410001740A44654B13E600A46521EFDD11E60BC
:103420000A46521EFDD1641E002CF4D1474C4FF0C9
:103430000109C4F800903E600A46521EFDD11E608C
:103440000A46521EFDD13E600A46521EFDD11E6044
:103450000A46521EFDD13E600A46521EFDD11E6034
:103460000A46521EFDD14FF01F0ADFF8E0B0ABF163
:10347000040BC20702D0CBF8009001E0C4F8009022
:103480003E600A46521EFDD11E600A46521EFDD104
:103490004008AAF1010ABAF1000FEAD198F8162003
:1034A000A2EB0C02521E3AB3C00702D0CBF8009038
:1034B00001E0C4F8009034463E600846401EFDD14D
:1034C0001C600846401EFDD1521E52B13C600846A9
:1034D000401EFDD11C600846401EFDD1521E002A30
:1034E000F4D11A461D603C600846401EFDD11460B0
:1034F0000846401EFDD110E01D60C00702D0CBF889
:10350000009001E0C4F8009032463E600846401E3C
:10351000FDD11A600846401EFDD13E600846401E9F
:10352000FDD11E600846401EFDD13D603E6008464C
:10353000401EFDD11E60491EFDD1CBF80090BDE8B4
:10354000F08F0000100C0140DC280020140801401E
:1035500008B51E48416941F001014161406900F030
:10356000010000901B481A4901604FF480414160FE
:10357000402181608021C160002101614161816140
:10358000C161FEF79BFC002211460C20FEF73EFEB7
:103590000C20FEF72DFE002211460D20FEF736FE10
:1035A0000D20FEF725FE002211461020FEF72EFE0C
:1035B0001020FEF71DFE002211461120FEF726FE08
:1035C000BDE808401120FEF713BE000000100240C5
:1035D000080002408C1100202DE9F04F85B0002436
:1035E00001940294039404943048816941F01001DD
:1035F0008161816901F010010091816941F0200130
:103600008161816901F020010091816941F004012B
:103610008161816901F004010091816941F0080133
:103620008161806900F008000090DFF884904FF419
:103630006047002239464846FEF7C4FDDFF874A013
:103640004FF48878002241465046FEF7BBFDDFF874
:1036500068B0002241F638415846FEF7B3FD0197A5
:103660000125029503940226049601A94846FEF717
:10367000A3FC012239464846FEF7A4FDCDF804809C
:1036800002950394049601A95046FEF795FC41F279
:103690003B000190029503940320049001A9584631
:1036A000FEF78AFC05B0BDE8F08F00000010024074
:1036B0000010014000080140000C01400C480B497B
:1036C00001604FF48271416000218160C16002227B
:1036D00002610122426152028261C1610162416262
:1036E00081620A21C162FEF7D7BD000000380040A8
:1036F000FC13002010B5104C0E4820600F4860608D
:103700000020A060E06020610C216161A061E061A7
:103710002046FFF745F82068C16841F01001C160FC
:103720000748A4F1440102782046BDE81040FFF7A5
:1037300025B90000003801401412002080841E00CA
:103740001D00002010B5104C0E4820604FF4E130F1
:1037500060600020A060E06020610C216161A061D8
:10376000E0612046FFF71CF82068C16841F01001B5
:10377000C1600648A4F1840102782046BDE81040EB
:10378000FFF7FCB800440040541200201D00002048
:10379000FEE7704710B40021084B0022002003EB25
:1037A000C0046254401CC0B28028F8D3491CC9B27E
:1037B0000829F3D310BC00F0D1B80000DC240020AD
:1037C00000B500218D2000F007FB0021142000F03F
:1037D00003FB0021AF205DF804EB00F0FDBA000010
:1037E00010B57F2813D83F2911D80723A3EBD103A5
:1037F000DBB201F00701C1F107040121A140C9B208
:10380000054C04EBC0001AB1C25C0A43C25410BD9F
:10381000C25C8A43C25410BDDC240020F0B585B0E0
:103820004B48816941F001018161806900F001002C
:1038300000904849486820F0E06040F0007048601F
:103840003B2001900127029703200490424C01A9DC
:103850002046FEF7B1FB01223B212046FEF7B2FCD9
:103860003D4E082410363460C820FEF793FB351D0A
:103870002C60C820FEF78EFB34602F600021AE2044
:1038800000F0AAFA0021D52000F0A6FA002150206D
:1038900000F0A2FA0021A82000F09EFA00213F20AB
:1038A00000F09AFA0021D32000F096FA0021084691
:1038B00000F092FA0021402000F08EFA00218D20C5
:1038C00000F08AFA0021142000F086FA002120205E
:1038D00000F082FA0021022000F07EFA0021A120EF
:1038E00000F07AFA0021C02000F076FA0021DA20F8
:1038F00000F072FA0021122000F06EFA00218120FF
:1039000000F06AFA0021EF2000F066FA0021D920C9
:1039100000F062FA0021F12000F05EFA0021DB20C5
:1039200000F05AFA0021302000F056FA0021A420BD
:1039300000F052FA0021A62000F04EFA0021AF203C
:1039400000F04AFAFFF73CFFFFF724FF05B0F0BD97
:103950000010024000000140000C014070B500253D
:103960000F4E05F1B000C0B2002100F035FA002181
:10397000084600F031FA0021102000F02DFA002452
:1039800006EBC4000121405D00F026FA641CE4B29D
:10399000802CF5D36D1CEDB2082DE2D370BD000074
:1039A000DC2400202DE9FF4F8246DDF834B00C46C0
:1039B0009946A04600272DE00298194900EB4000E7
:1039C00001EB8000C65D0025300605D55A4621462C
:1039D0005046FFF705FF07E0BBF1000F12D00022B1
:1039E00021465046FFF7FCFE7006060E641CE4B24A
:1039F000A4EB0800484507D144460AF1010A0AF041
:103A0000FF0A05E00122EBE76D1CEDB2082DDBD3C8
:103A10007F1CFFB24F45CFD3BDE8FF4FFFF79EBFDE
:103A20002E9D00082DE9F04F83460D469846A94685
:103A3000203A02F0FF0A002633E0B8F10C0F0CD058
:103A40001B4800EB0A10845D002720060CD5294690
:103A50005846099AFFF7C4FE0DE016490AEB4A00E2
:103A600001EB8000845DEFE7099890B100222946C0
:103A70005846FFF7B5FE6006040E6D1CEDB2A5EBCF
:103A80000900404507D14D460BF1010B0BF0FF0B30
:103A900005E00122EBE77F1CFFB2082FD5D3761C8F
:103AA000F6B24645C9D3BDE8F04FFFF757BF000057
:103AB0003E970008CA9200082DE9FF4F81B080466A
:103AC000DDF838B092461D46002600244FF001096B
:103AD0004FEA5B071FE0281B401EC1B20A2003F01B
:103AE00000FFBAFBF0F00A21B0FBF1F201FB12007B
:103AF00026B9691E8C4201DAA0B101263030C2B26B
:103B000007FB0480C0B25B46CDF800900299FFF736
:103B100089FF641CE4B2AC42DDD305B0BDE8F04FD0
:103B2000FFF71CBF07FB0480C0B25B462022CDF824
:103B300000900299FFF776FFEBE72DE9F841044684
:103B40000D4616469846079F14E07A2C02D90024A9
:103B50001035EDB23A2D03D900242546FFF71AFEA1
:103B600000973278434629462046FFF75BFF08342A
:103B7000E4B2761C30780028E7D1BDE8F841FFF7C1
:103B8000EDBE00002DE9FE4F04F048F800286FD08C
:103B9000FFF700FEDFF8DC900A2199F80000B0FB87
:103BA000F1F089F80000DFF8D0A000EB80000AEB0C
:103BB00080010122314802F067FC314E4FF400547D
:103BC000012570B10C232FA21E2100200095FFF7C4
:103BD000B4FF03B021463046BDE8F04F0122FEF7A6
:103BE000F1BA002221463046FEF7ECFA0C2329A256
:103BF000002114200095FFF7A0FF2FE028A003C8A4
:103C0000CDE901010C2328A21E2120200095FFF7F9
:103C100094FF0C2328A21E2100200095FFF78DFFA2
:103C2000002401AE20274FF4FA7804EB44000095FD
:103C300007EB4000325DC0B20C231E21FFF7F2FEFD
:103C40004046FEF7A7F9641CE4B2042CEDD30C2324
:103C50001BA21E2123200095FFF76FFF99F800009B
:103C600000EB80000AEB8000FDF728FF0028C5D09C
:103C7000BDE8FE8F05000020E60E0020C8030020EE
:103C8000001001404F70656E2042696E20666169C8
:103C90006C656400535441525420464C41534800D3
:103CA0002E2E2E2E0000000020202020202020205C
:103CB000202020202000000057414954000000002F
:103CC0002020202020202020202020202020200014
:103CD00010B509490A79824202D00871FFF75AFDEE
:103CE000FDF744FE054C00F021FDA0780028FAD134
:103CF000BDE81040FFF732BE15000020681100201B
:103D00002DE9F84180460F4615461E4668060124F7
:103D1000020E3346394640460094FFF743FE04EB5B
:103D20004500C2B208EB5600C0B233463946009493
:103D3000FFF738FEBDE8F8812DE9FF4F8246DDF838
:103D400034B00C469946A046002728E00298C65D8C
:103D50000025300605D55A4621465046FFF740FD5E
:103D600007E0BBF1000F12D0002221465046FFF7BA
:103D700037FD7006060E641CE4B2A4EB080048454B
:103D800007D144460AF1010A0AF0FF0A05E00122C0
:103D9000EBE76D1CEDB2082DDBD37F1CFFB24F4566
:103DA000D4D3BDE8FF8F000010B50949CA7882421C
:103DB00002D0C870FFF7EEFCFDF746FE054C00F0A0
:103DC000DFFDA0780028FAD1BDE81040FFF7C6BD9E
:103DD0001500002068110020F0B50D4A0226151FBD
:103DE000002901D02E6000E016600021102420235D
:103DF0001360070601D52C6000E014602B604006BC
:103E0000000E491CC9B20829F2D32E60F0BD000093
:103E1000140C01402DE9F04186B0002404941D48A3
:103E2000816941F008018161806900F0080001901A
:103E3000194940F60160086040F2016002900126D5
:103E4000039603250595DFF8508002A9A8F1100814
:103E50004046FEF7B1F8F00202901127039704964E
:103E6000059502A94046FEF7A7F8022002900394A8
:103E70000494059502A94046FEF79EF8700302904F
:103E800003970494059502A90448FEF795F806B037
:103E9000BDE8F08100100240100C0140001001400C
:103EA0002DE9FF410024029418494FF46060086036
:103EB0004FF4C06000900127019703250395DFF8B8
:103EC0004C806946A8F110084046FEF775F8F802E4
:103ED0000090112601960297039569464046FEF729
:103EE0006BF840F603000090019402940395694634
:103EF0004046FEF761F8780300900196029403951E
:103F000069460348FEF758F8BDE8FF81100C0140F0
:103F1000001001407047000040210148FEF744B9FD
:103F2000000C014080210148FEF73EB9000C014021
:103F30004FF480710148FEF737B90000000C0140D2
:103F400038B504460B46009200228021204600F03E
:103F50001BF828B1606D40F020006065032038BD7B
:103F6000002038BD3EB50190FF24012302AA01A91B
:103F700004480094FEF758FA00B102949DF8080036
:103F80003EBD0000FC1300202DE9F04104460E4622
:103F900017461D46DDF8188008E0681C06D0FEF7BD
:103FA00019F9A0EB0800A8420BD255B1206880682F
:103FB00036EA00002FD00020B842EED10020BDE844
:103FC000F0812068416821F0E00141606068B0F54F
:103FD000827F0BD1A068B0F5004F02D0B0F5806FA2
:103FE00004D12068016821F040010160A06AB0F5A9
:103FF000005F09D12068016821F400510160206848
:10400000016841F4005101600120503460700020CB
:1040100020700320D3E70120CEE77047034A52788F
:10402000002A01D000F004B800F05EB9DC280020BE
:104030002DE9F34F85B00546A94E4FF40079C6F837
:10404000009006F104083715C8F800703760E807DB
:1040500002D0C6F8009001E0C8F80090C8F80070DF
:10406000376029466808C20702D0C6F8009001E010
:10407000C8F80090C8F8007037600144A808C2076B
:1040800002D0C6F8009001E0C8F80090C8F80070AF
:1040900037600144E808C20702D0C6F8009001E08A
:1040A000C8F80090C8F8007037600844C00702D014
:1040B000C6F8009001E0C8F80090C8F800703760BA
:1040C0004FF0000AC8F80090C8F800703760C6F8D2
:1040D0000090C8F800703760CDF808A0CDF80CA0AB
:1040E000CDF804904FF0020BCDF810B07C4801A938
:1040F0001038FDF761FF7B48007D014628B1C8F804
:1041000000703760401E0028F9D1C8F80070DFF851
:10411000D0E1AEF1080EDEF80000C0F340203760B9
:10412000C8F80070DEF80020C2F34022376040EA91
:104130004200C8F80070DEF80020C2F34022376069
:1041400040EA82044FF0010C012C1ED0022C71D0E9
:10415000042C6FD0213129B1C8F800703760491E96
:104160000029F9D1CDF80CA0CDF80490CDF808C005
:10417000CDF810B05A4801A91038FDF71DFFC6F858
:104180000090E0B207B0BDE8F08FA80735D5002257
:1041900000212020C8F80070DEF80030C3F340236F
:1041A00037601944520842EAC372401E0028F1D118
:1041B000C8F80070DEF80000400A37604140C807C8
:1041C00000D00824069808B1069802604548007D92
:1041D00028B1C8F800703760401E0028F9D1CDF82A
:1041E0000CA0CDF80490CDF808C0CDF810B03C4834
:1041F00001A91038FDF7E0FE31E029B1C8F80070E0
:104200003760491E0029F9D1CDF80CA0CDF80490F3
:10421000CDF808C0CDF810B0314801A91038FDF72D
:10422000CBFE0698006800222021C30703D0C6F801
:10423000009002E022E0C8F80090C8F800703760F3
:1042400002444008491E0029EFD1D00702D0C6F829
:10425000009001E0C8F80090C8F80070376021486D
:10426000007A38B1C8F80090C8F800703760401E76
:104270000028F9D1C6F80090E0B283E7194A507DD2
:1042800040B1A80706D52120C8F800703760401E4D
:104290000028F9D129B1C8F800703760491E0029FB
:1042A000F9D1CDF80CA0CDF80490CDF808C0CDF828
:1042B00010B00B4801A91038FDF77EFE0948407D7B
:1042C00050B1A80708D4C8F800902120C8F80070A1
:1042D0003760401E0028F9D1C6F80090E0B251E7DF
:1042E000100C0140DC2800202DE9F34F85B0064674
:1042F0000022F54C4FF40079C4F8009004F1040852
:104300002715C8F80070F14D68680146491EFDD1B7
:1043100027600146491EFDD1F10702D0C4F8009084
:1043200001E0C8F80090C8F800700146491EFDD1B0
:1043300027600146491EFDD193197208D10702D0AA
:10434000C4F8009001E0C8F80090C8F80070014679
:10435000491EFDD127600146491EFDD11344B20814
:10436000D10702D0C4F8009001E0C8F80090C8F866
:1043700000700146491EFDD127600146491EFDD14E
:104380001344F208D10702D0C4F8009001E0C8F845
:104390000090C8F800700146491EFDD12760014613
:1043A000491EFDD19918C90702D0C4F8009001E058
:1043B000C8F80090C8F800700146491EFDD127607A
:1043C0000146491EFDD18A46C8F80090C8F8007021
:1043D0000146491EFDD127600146491EFDD1C4F8A2
:1043E0000090C8F800700146491EFDD12760401EAC
:1043F000FDD1CDF808A0CDF80CA0CDF804904FF079
:10440000020BCDF810B0B04801A91038FDF7D4FD6B
:104410002A7D11000CD06B68C8F800701846401E49
:10442000FDD127601846401EFDD1521E002AF3D14F
:10443000C8F8007068680246521EFDD1DFF888C2D5
:10444000ACF1080CDCF80020C2F3402227600346E0
:104450005B1EFDD1C8F8007003465B1EFDD1DCF881
:104460000030C3F3402327608646BEF1010EFCD125
:1044700042EA4303C8F800700246521EFDD1DCF840
:104480000020C2F34022276005466D1EFDD143EA9D
:104490008205012D24D0022D71D0042D6FD0213141
:1044A00059B1C8F800700246521EFDD1276002467D
:1044B000521EFDD1491E0029F3D1CDF80CA0CDF834
:1044C000049001200290CDF810B07F4801A9103867
:1044D000FDF772FDC4F80090E8B207B0BDE8F08FB8
:1044E000B2074DD54FF0000E00232022C8F800700F
:1044F0000146491EFDD1DCF80010C1F340262760BB
:104500000146491EFDD133444FEA5E0141EAC67EB1
:10451000521E002AEAD13A46C8F800706B4E014696
:10452000491EFDD1DCF80010C1F340212260401E7D
:10453000FDD14B40D80700D00825069810B1069849
:10454000C0F800E0337D63B17668C8F800203046DB
:10455000401EFDD122603146491EFDD15B1E002B5D
:10456000F3D1CDF80CA0CDF8049001200290CDF845
:1045700010B0554801A91038FDF71EFD47E05CE07A
:1045800059B1C8F800700246521EFDD1276002469C
:10459000521EFDD1491E0029F3D1CDF80CA0CDF853
:1045A000049001200290CDF810B0474801A91038BE
:1045B000FDF702FD069800684FF0000C20264349E5
:1045C0004B68C10702D0C4F8009001E0C8F8009021
:1045D000C8F800701946491EFDD127601A46521EC0
:1045E000FDD184444008761E002EEAD15FEACC70EB
:1045F00002D0C4F8009001E0C8F800903946C8F82D
:1046000000701846401EFDD121605B1EFDD12F4871
:10461000017A71B1C8F800904268C8F8007010467D
:10462000401EFDD127601046401EFDD1491E0029C5
:10463000F3D1C4F80090E8B24FE7DFF890C09CF8DF
:10464000152072B1B2070CD52123C8F800700246BC
:10465000521EFDD127600246521EFDD15B1E002B6B
:10466000F3D159B1C8F800700246521EFDD127603F
:104670000246521EFDD1491E0029F3D1CDF80CA0EF
:10468000CDF8049001200290CDF810B00E4801A999
:104690001038FDF791FC0D48417D89B1B1070FD469
:1046A000C8F8009021214268C8F800701046401EEA
:1046B000FDD127601046401EFDD1491E0029F3D1CF
:1046C000C4F80090E8B208E7100C0140DC28002094
:1046D0002DE9F04100220023134C124F4FF40076D5
:1046E000A7F1040C4FF48068656815E013B911F860
:1046F000012B0823D40702D0CCF8006000E03E6014
:10470000C7F800802C46641EFDD1CCF800802C46F2
:10471000641EFDD152085B1E401E441CE6D1BDE85C
:10472000F0810000140C0140DC2800202DE9FE4F30
:10473000DFF8C8B1DFF8C88101259BF8001098F9AF
:104740000100012904D003291DD002292FD056E0F1
:104750000A3040B288F8010098F9021001EB81019B
:10476000B0EB410F04DBF62000EB410088F80100BC
:10477000009598F801000C230A38C1B261A26E209E
:10478000FFF7DBF93BE00A3840B288F801000A285D
:1047900002DA002088F80100009598F801000C2347
:1047A0000A30C1B257A26E20FFF7C7F927E003F025
:1047B00035FA554E4FF4005470B3FEF7EBFF98F9FD
:1047C00001000A2190FBF1F042B288F8012002EBCF
:1047D0008200DFF838A101220AEB80014C4801F089
:1047E00053FE002835D00C234AA21E21002000953C
:1047F000FFF7A3F9012221463046FDF7E3FC002034
:104800008BF80000009598F801100C2345A26E204B
:10481000FFF793F9BDE8FE8F0C2343A2322100205D
:104820000095FFF78AF9002221463046FDF7CAFCC1
:104830004FF47A70FDF7AEFB0C233FA2322100202B
:104840000095FFF77AF9012221463046FDF7BAFCC0
:10485000D5E7002221463046FDF7B4FC00243B4E4C
:104860001D2704EB440006EB800207EB4000C0B2BA
:104870000C2300210095FFF75FFA641CE4B2082CBA
:10488000EFD32FE032A003C8CDE901010C2332A2FF
:104890001E2120200095FFF750F90C2332A21E2183
:1048A00000200095FFF749F9002401AE20274FF4BE
:1048B000FA7904EB4400009507EB4000325DC0B28A
:1048C0000C231E21FFF7AEF84846FDF763FB641C7E
:1048D000E4B2042CEDD30C2325A21E212320009545
:1048E000FFF72BF998F9010000EB80000AEB80003C
:1048F000FDF7E4F80028C5D081E70000140000208F
:10490000040000202020000000100140E60E0020DE
:10491000C80300204F70656E2042696E2066616991
:104920006C6564003C3C0000436F6E6E65637420F0
:104930004661696C65642100202020202020202011
:104940002020202020202020000000004EA1000870
:104950002E2E2E2E0000000020202020202020209F
:104960002020202020000000574149540000000072
:104970002020202020202020202020202020200057
:10498000F8B5294F294C0026397894F90100012502
:10499000012904D0032913D0022921D03AE00A309A
:1049A00040B26070322801DB322060700095607880
:1049B0000C230A38C1B21EA26E20FFF7BEF829E010
:1049C0000A3840B260700A2800DA66700095607894
:1049D0000C230A30C1B216A26E20FFF7AEF819E020
:1049E000FEF7D8FE0C2313A21E2114200095FFF71A
:1049F000A4F894F901000A2190FBF1F01149087024
:104A00004FF47A70FDF7C6FA0F480570FEF7C2FE44
:104A10000E4886703E70009561780C230CA26E20C3
:104A2000FFF78BF8F8BD0000140000200400002000
:104A300020200000536574205375636365737321F0
:104A4000000000004000002000000020681100204D
:104A50003C3C0000F8B500F0A9F8244E0125244C98
:104A60003078012804D0032814D0022824D034E060
:104A700020780C30C0B22070322801D33220207050
:104A8000009520780C230C38C1B21AA20020FFF741
:104A900054F822E020780C38C0B220701A2801D2D5
:104AA0001A202070009520780C230C30C1B211A27E
:104AB0000020FFF742F810E0FEF76CFE20780E4968
:104AC0001A2802D0262802D003E08D7001E00222CD
:104AD0008A70322801D10320887000203070009540
:104AE0000C2306A22178FFF728F8F8BD1400002057
:104AF0001500002020200000681100203E3E00002C
:104B0000AFF300800CB500220192009225480168A5
:104B100041F480310160016801F400310091019994
:104B2000491C019100990029F5D00168890302D53B
:104B30000121009100E000920099012930D11A4929
:104B40000A6842F010020A600A6822F007020A604E
:104B50000A6842F004020A604168416041684160AD
:104B6000416841F480614160416821F47C114160F9
:104B7000416841F4E8114160016841F080710160D1
:104B800001688901FCD5416821F003014160416859
:104B900041F0020141604168C1F381010229FAD16B
:104BA0000CBD0000001002400020024010B5114C66
:104BB0001149A0784A79904202D04871FEF7EAFD87
:104BC000A07848B101280BD002280DD003280FD1BE
:104BD000BDE81040FEF7D6BFBDE8104002F08ABE27
:104BE000BDE81040FFF7E0B8BDE81040FFF770B82F
:104BF00010BD0000681100201500002010B5002A2B
:104C000007D0034611F8014B03F8014B14B1521EB3
:104C1000F8D110BD002101E003F8011B521EFBD1A9
:104C200010BD000010B5074C2078401CC0B22070A9
:104C3000142803D9FBF75EFE00202070BDE8104069
:104C4000FDF7CEBAB003002010B50F48016841F05F
:104C50000101016041680D4A1140416001680C4A40
:104C600011400160016821F480210160416821F454
:104C7000FE0141604FF41F018160FFF741FF0549CC
:104C80004FF00060086010BD001002400000FFF807
:104C9000FFFFF6FE08ED00E010B5406A0021C18577
:104CA000C184FDF7F3FC10BD70B5446A206840690B
:104CB000C0F3C01094F839100025212904D118B18F
:104CC000E584204600F053F820684069C0F3801066
:104CD00094F83A10222904D118B1E585204600F055
:104CE0002BF8E06B40F01000E0632046FDF7CEFCAF
:104CF00070BD10B50146486A09680968890613D471
:104D00000021C1850168CA6822F48072CA60016806
:104D10004A6922F001024A6101684A6922F04002B0
:104D20004A61202180F83A10FDF776FE10BD10B5DB
:104D3000406AFDF772FE10BD0168CA6822F49072E5
:104D4000CA6001684A6922F001024A61202180F8A4
:104D50003A10704710B50168CA6822F04002CA6074
:104D6000202180F83910FDF759FE002010BD0168A0
:104D7000CA6822F0C002CA60202180F8391070474A
:104D800010B590F83A10222901D0022010BD816898
:104D9000B1F5805F11D0016919B30168496801F06C
:104DA0007F03816A4A1C82620B70C18D491E09040F
:104DB000090CC1851CD0002010BD816A02693AB17E
:104DC00002685268D2B20A80816A491C8162ECE7AB
:104DD00002685268C2F308020A80816A891C8162F3
:104DE000E3E701684A68816A4B1C83620A70DCE76A
:104DF0000168CA6822F02002CA600168CA6822F409
:104E00008072CA6001684A6922F001024A61202169
:104E100080F83A10FDF700FE002010BD2DE9F041AA
:104E2000044620680169E26821F4405111430161A0
:104E3000A16820690143606901432068C26841F2AA
:104E40000C639A430A43C26020684169A26921F455
:104E500040711143416135492068642532268842FA
:104E600032D1FDF709FA00EBC00101EB00106168D7
:104E70006FF018078900B0FBF1F2B2FBF5F2B0FB5E
:104E8000F1F37A4303EB8202B0FBF1F306EB02127B
:104E9000B2FBF5F2B3FBF5F302F0F00202EB031202
:104EA000B0FBF1F3B0FBF1F0B0FBF5F0784303EBAE
:104EB000800006EB0010B0FBF5F0216800F00F0059
:104EC00010448860BDE8F081FDF7C6F900EBC00131
:104ED00001EB001061686FF018078900B0FBF1F278
:104EE000B2FBF5F2B0FBF1F37A4303EB8202B0FBC5
:104EF000F1F306EB0212B2FBF5F2B3FBF5F302F0AD
:104F0000F00202EB0312B0FBF1F3B0FBF1F0B0FBE7
:104F1000F5F0784303EB800006EB0010B0FBF5F0F2
:104F2000216800F00F0010448860CBE70038014092
:104F300090F83910212901D0022070478168B1F51D
:104F4000805F0CD0016A4A1C0262026809785160D5
:104F5000C18C491E0904090CC18410D019E0016AF2
:104F600002680988C1F308015160016919B1016A39
:104F7000491C0162ECE7016A891C0162E8E70168EB
:104F8000CA6822F08002CA600068C16841F040012E
:104F9000C16000207047000008B50F480068016834
:104FA000C943C90612D4016841680091016840688C
:104FB0000948FDF73FFB094800684068084909783F
:104FC000081A08490870084901200870BDE808401F
:104FD0000148FDF75DBB000014120020D81200202C
:104FE0001D0000201B0000201C00002008B50F48F9
:104FF00000680168C943C90612D40168416800917C
:10500000016840680948FDF715FB094800684068D9
:1050100008490978081A08490870084901200870E9
:10502000BDE808400148FDF733BB000054120020E2
:105030001C1300201D0000201B0000201C0000206D
:1050400070B5074E074C47F6FF7505E0258001F067
:105050000F01304603F0FCFB21880804F6D470BD34
:105060001C2A0020445C00402DE9F0411F4F204DD8
:1050700047F6FF7605E02E8004F00F01384603F076
:10508000E7FB2C882004F6D4DFF8688060054FF039
:1050900000060BD54FF6FF30288008F1040006808B
:1050A000384603F08BFE8020A8F80000200511D5BB
:1050B0004FF2FF702880B8F80000400607D0A8F82B
:1050C00000600B48001F018821F400610180384610
:1050D00003F0A6FAE00405D54EF6FF7028803846A6
:1050E00003F092FA2E80BDE8F08100001C2A002017
:1050F000445C00404C5C0040FEE7000070B50403D7
:1051000000F042F900F0E8F80F4E4FF4805500220D
:1051100029463046FDF756F82020FEF723FFC4F35A
:105120000740FEF71FFFC4F30720FEF71BFFE0B2A6
:10513000FEF718FF012229463046FDF743F8BDE887
:10514000704000F0C9B80000000C0140F0B585B017
:1051500000240194029403940494FEF7AFFA2048CB
:10516000C16941F48041C161C16901F4804100918C
:10517000816941F008018161806900F008000090B8
:105180004FF4805501950120029003940326049664
:10519000144F01A93846FCF70FFF01222946384673
:1051A000FDF710F84FF4204101910220029004967F
:1051B00001A93846FCF700FFA8000190029403946F
:1051C00001A93846FCF7F8FE00F040F8064948808F
:1051D000FF2802D0002005B0F0BD0120FBE7000051
:1051E00000100240000C01401E0000202DE9F0419B
:1051F00005460C461646DFF850804FF480570022D3
:1052000039464046FCF7DEFF0320FEF7ABFEC4F351
:105210000740FEF7A7FEC4F30720FEF7A3FEE0B2A7
:10522000FEF7A0FE002405E0FF20FEF79BFE2855B8
:10523000641CA4B2B442F7D339464046BDE8F041FD
:105240000122FCF7BFBF0000000C01402DE9F04136
:105250000024134F4FF48056002231463846FCF7A5
:10526000B1FF9020FEF77EFE0020FEF77BFE0020BF
:10527000FEF778FE0020FEF775FEFF20FEF772FEB7
:1052800044EA0025FF20FEF76DFE40EA05040122F6
:1052900031463846FCF796FF2046BDE8F081000015
:1052A000000C014070B50B4D4FF480540022214694
:1052B0002846FCF787FF0520FEF754FEFF20FEF787
:1052C00051FE0646012221462846FCF77BFF304668
:1052D00070BD0000000C014010B5FFF7E3FFC007F0
:1052E000FBD110BD2DE9F05F80468A461546DFF8F8
:1052F00094904FEA1A37CAF30B06C6F58054A542BC
:1053000033D82C4631E0311819F80110FF2903D1A8
:10531000401C80B2A042F6D3A04214D23846FFF718
:10532000EDFE002006E0821918F8001009F80210BE
:10533000401C80B2A042F6D359464FF480524846F2
:1053400000F038F804E022465146404600F032F8BA
:10535000A54214D07F1C0026A044A244281B85B27D
:105360004FF48054A54200D82C464FEA073B4FF437
:10537000805259464846FFF739FF0020CAE7BDE88A
:10538000F09F0000DC14002070B5094D4FF48054EC
:10539000002221462846FCF715FF0620FEF7E2FD15
:1053A00021462846BDE870400122FCF70BBF0000F3
:1053B000000C01402DE9F04107460E461546F0B2BB
:1053C000C0F58074A54200D82C464FF4807807E0E1
:1053D00027442644281B85B24446A54200D82C46C3
:1053E00022463146384600F005F8A542F0D1BDE826
:1053F000F08100002DE9F04105460C461646FFF706
:10540000C3FFDFF850804FF48057002239464046F2
:10541000FCF7D8FE0220FEF7A5FDC4F30740FEF717
:10542000A1FDC4F30720FEF79DFDE0B2FEF79AFD53
:10543000002404E0285DFEF795FD641CA4B2B4428C
:10544000F8D3012239464046FCF7BCFEBDE8F041E6
:10545000FFF742BF000C01400907090E002804DBDA
:1054600000F1E02080F80014704700F00F0000F118
:10547000E02080F8141D704702E008C8121F08C120
:10548000002AFAD170477047002001E001C1121FC5
:10549000002AFBD17047000010B54FF4A8711B48DB
:1054A000FAF77BFE19481AA101601CA181631EA1B5
:1054B000016720A1C0F8A81021A1C0F8E01023A125
:1054C000C0F8181134222449001DFAF74DFE0F4888
:1054D000342222493C30FAF747FE0C483422204956
:1054E0007430FAF741FE094834221E49AC30FAF70D
:1054F0003BFE064834221C49E430FAF735FEBDE88D
:105500001040342219491A48FAF72EBE0C2B0020FD
:1055100053544D33324630585800000053544D33E5
:10552000324631585800000053544D3332463358F8
:105530005800000053544D33324634585800000090
:1055400053544D33324637585800000053544D33AE
:10555000324837585800000038A6000824A8000830
:10556000C8A90008ECAA000844AC000830B0000844
:10557000282C002010B54B78042B37DD202B06D0CB
:10558000212B17D0222B28D0232B2FD12AE01178C2
:105590005378D47841EA032193781B0443EA0463E7
:1055A000194340F82C1F117901715179417191799A
:1055B00081711BE010F82C1F11700188090A5170CD
:1055C0000168090C91700168090ED170017911719F
:1055D000417951718079907108E0026A32B149884D
:1055E000904703E0426A0AB149889047002010BD05
:1055F00038B504466268A08C116881420CD95168A4
:1056000051F820500C3204F120012846FFF7B2FF78
:10561000E96909B128468847002003460246014649
:105620000090204603F032FC38BD7047014882608C
:1056300001207047A003002010B5417A006803F0F4
:10564000F5FC002010BD000070B504460020E0709D
:10565000401EE062204601F093FD08B1042070BDB9
:1056600004F22E2001F080FB054694F830004AF643
:105670005526EB2803D0E92801D0E82830D1B542DF
:1056800006D1082219A104F1820001F03BFCC8B147
:1056900004F13B0001F068FB411E084220D14FF4A9
:1056A000007188421CD388421AD894F83D00B8B1E2
:1056B000411E084214D194F84000012804D0022869
:1056C00002D00DE0002070BD04F1410001F04CFB60
:1056D00030B104F1460001F047FB08B1002070BD75
:1056E000B54201D1022070BD032070BD4641543344
:1056F000322020200000000000E0401C02780AB1A7
:105700008A42FAD100787047891E4269921E8A4205
:1057100001D800207047826A408900FB0120704751
:1057200070B50C46DDE9045116461A462581226003
:105730008D4200D90D462B46314603F01DFB608A91
:10574000401C60822068284420602089401B208102
:10575000E58170BD2DE9F04180460F46D8F8005034
:10576000002F08D03946404601F032F9022809D20C
:105770000120BDE8F081EE6816B16869B04207D833
:10578000012605E0411CF4D069698142F1D83E460A
:105790002869D0B10024BE4215D1741C6869A042AA
:1057A00000D802242146404601F012F90128E0D039
:1057B000411CDED038B1E868022803D36969814210
:1057C00000D90646002414B118E00020D1E7344681
:1057D000641C6869A04204D80224022E01D2002071
:1057E000C7E72146404601F0F3F838B10128C0D0A0
:1057F000411CBED0B442EBD10020BAE74FF0FF36D7
:1058000032462146284602F0F7F828B927B1224649
:105810003946284602F0F0F820B101280FD00124C3
:105820002046A6E7EC60D5E90401891E884201D82C
:10583000401E2861287940F001002871F0E73446C5
:10584000EEE700002DE9F05F8B46DBF8009000F1F9
:1058500020070B222021384601F069FB00252E4647
:105860004FF008083046761C19F80040202C16D955
:105870002F2C0ED05C2C0CD02E2C01D045451BD3E8
:10588000B8F10B0F01D02E2C12D00620BDE8F09FEE
:10589000761C19F806002F28FAD05C28F8D009EBFE
:1058A0000600CBF8000085B33878E52830D031E029
:1058B00008254FF00B08D5E7204600F0D6F898B140
:1058C0003046761C19F800A0504600F0DBF818B1FD
:1058D000A8F10100854201D30620D7E7681C7C555A
:1058E000451C07F800A0BDE721460EA0FFF704FF06
:1058F00008B10620CAE7A4F16100192801D8203CAC
:10590000E4B228466D1C3C54ACE7FFE70620BDE737
:1059100005203870202C01D8042000E00020F87207
:105920000020B3E7222A2B2C3A3B3C3D3E3F5B5DF7
:105930007C7F00002DE9FF4F81B09B466A46012124
:10594000019800F04FFA18B1012005B0BDE8F08FC2
:10595000DDF800904FF03F080826F10101E07006E5
:10596000060E2EB106FB08F0B9FBF0F08842F6D81F
:1059700006B9FF264FF400720021584601F0D7FA0D
:105980000BF5DF744FF0000A454657E0029850F8D7
:105990002A70642F08D801D14F4605E04FF064000B
:1059A000B9FBF0F007FB00F705EB0700484501D80D
:1059B000A84201D2A9EB0507F7B3294604F1080074
:1059C00002F0E7F8394604F10C0002F0E2F803981F
:1059D000207108FB06F00246B5FBF0F0B5FBF8F1CC
:1059E000B1FBF6F306FB1311B5FBF8F308FB1353F9
:1059F0005B1C6170C02101EA900C4CEA030C84F836
:105A000002C0E0703D442B466D1EB5FBF2F0B5FBC5
:105A1000F8F2B2FBF6F706FB1727B5FBF8F208FB26
:105A20001252521C677101EA90011143A171E07199
:105A300010340AF1010A00E006E01D46BAF1040F35
:105A400002D20DB14D45A1D34AF655210BF5FF7099
:105A500002F0A7F8012300225946019800F004FA49
:105A600008B1012071E700206FE7812808D39F2843
:105A700001D801207047E0381C2801D80120704768
:105A800000207047402808D37E2801D801207047A5
:105A900080387C2801D80120704700207047000022
:105AA00006494FF47A620968B1FBF2F141430020E4
:105AB00001E000BF401C8842FBD37047AC030020CC
:105AC0002DE9F04105460E462F680021284600F0DA
:105AD00035F988B900243846A96901F051FB58B955
