:020000040800F2
:10000000E045002045010008FB320008C725000834
:10001000F932000845050008C1450008000000004D
:100020000000000000000000000000008738000809
:10003000A115000800000000A93700080D410008C4
:100040005F0100085F0100085F0100085F01000810
:100050005F0100085F0100085F0100085F01000800
:100060005F0100085F0100085F0100085F010008F0
:100070002D15000839150008451500085115000810
:100080005D150008691500085F01000809450008B2
:10009000314500085F0100085F0100085F010008AA
:1000A0005F0100085F0100085F0100085F010008B0
:1000B0005F0100085F0100085F0100085F010008A0
:1000C0005F0100085F0100085F0100085F01000890
:1000D0005F01000861440008B54400085F010008A2
:1000E0005F0100085F0100085F0100085F01000870
:1000F0005F0100085F0100085F0100085F01000860
:100100005F0100085F0100085F0100085F0100084F
:100110005F0100085F0100085F0100085F0100083F
:100120005F0100085F0100085F0100085F0100082F
:10013000DFF80CD000F0BAF900480047656100080C
:10014000E04500200648804706480047FEE7FEE7F6
:10015000FEE7FEE7FEE7FEE7FEE7FEE7FEE7FEE777
:10016000114100083101000840EA01039B0703D058
:1001700009E008C9121F08C0042AFAD203E011F8E6
:10018000013B00F8013B521EF9D27047D2B201E0A8
:1001900000F8012B491EFBD270470022F6E710B58C
:1001A00013460A4604461946FFF7F0FF204610BDE5
:1001B000034611F8012B00F8012B002AF9D118464B
:1001C00070472DE9FE4F81EA030404F0004421F05A
:1001D000004100944FF0000B23F0004350EA01046B
:1001E0005ED052EA03045BD0C3F30A54C1F30A554C
:1001F0002C44A4F2F3340194A0FB0254C1F3130184
:1002000041F48011C3F3130343F4801301FB024450
:1002100000FB034E840A970A44EA815447EA835755
:10022000A4FB076802958D0A05FB07854FEA932C0E
:1002300004FB0C542705029D4FEA065847EA16377F
:10024000B5EB08056EEB070C870E920E47EA811797
:1002500042EA8312A7FB0201B6EB0B0164EB000438
:100260002B0D43EA0C335E1844EB1C50DA46514622
:10027000E7FB0201C5F313044FEA0B3343EA1453BF
:100280004FEA0432019C43EA0603A4F10C040294F1
:10029000009CCDE900B400F0BAF803B0BDE8F08FDF
:1002A00000200146F9E72DE9F04D81EA030404F04E
:1002B000004B21F0004514464FF0000A23F00041A6
:1002C00050EA050220D054EA01021DD0C5F30A57B6
:1002D0000246C5F31303C1F31300C1F30A5640F4F9
:1002E000801543F48013A7EB0608101BD64608F2CE
:1002F000FD3873EB050002D308F1010801E0921804
:100300005B41B8F1000F03DA00200146BDE8F08D33
:1003100000204FF48011064684460EE0171B73EB55
:10032000050705D3121B63EB050306434CEA010CDA
:1003300049084FEA300092185B4150EA0107EDD1BD
:1003400052EA030012D082EA040083EA050108435E
:1003500005D0101BAB4106D20122002306E000228B
:100360004FF0004302E06FF0010253101AEB060059
:100370004CEB085110EB0A0041EB0B01BDE8F04DCE
:1003800000F036B80EB540F2334102910021CDE9BC
:1003900000110A460B4600F03AF803B000BDC1F365
:1003A0000A5210B5C1F3130140F2FF3341F480113A
:1003B0009A4201DA002010BD40F233439A42A2F281
:1003C000334203DC524200F003F810BD904010BDF0
:1003D000202A04DB203A21FA02F00021704721FA9A
:1003E00002F3D040C2F12002914008431946704701
:1003F00010B5141E73F1000408DA401C41F100012D
:1004000092185B411A4301D120F0010010BD2DE983
:10041000F04D92469B4611B1B1FA81F202E0B0FA7A
:1004200080F22032904600F053F804460F4640EA2E
:100430000A0041EA0B0153465A46084313D01146BD
:1004400053EA010019D0C8F140025046FFF7C0FF3F
:1004500005460E4650465946424600F039F80843D4
:1004600005D0012004E020463946BDE8F08D00208B
:10047000054346EAE0762C4337430A986305E40ACD
:10048000A0EB08000022FD0A44EA47540A3002D5D6
:1004900000200146E9E7010510196941DDE9084539
:1004A00000196941BDE8F04DA2E70000064C074D78
:1004B00006E0E06840F0010394E807009847103434
:1004C000AC42F6D3FFF738FEA4970008C4970008A3
:1004D000202A04DB203A00FA02F100207047914004
:1004E000C2F1200320FA03F319439040704770B51E
:1004F0008C1810F8015B15F0070301D110F8013BCF
:100500002A1106D110F8012B03E010F8016B01F855
:10051000016B5B1EF9D12B0705D40023521E0DD4AD
:1005200001F8013BFAE710F8013BCB1A921C03E0FB
:1005300013F8015B01F8015B521EF9D5A142D8D333
:10054000002070BDFEE7000070B50D460478002C59
:1005500000D101240948012C06D0022C09D0002426
:100560002C704FF0011070BD0121017003F0E2F812
:10057000F6E70221017003F097F8F1E7B0330020AD
:100580000278407842EA002000EB4000C000401EA4
:10059000FDD1087000487047010002007FB5054694
:1005A000084900240C700194029440F60361009104
:1005B000022103916946044801F0B2FA2C7004B09C
:1005C000012070BDB0330020000C014030B504465E
:1005D0004278801C002A0BD010F8013B9D0703D500
:1005E000DB0602D5001D00E0001D521E002AF3D1DB
:1005F00000220A704A70001B0004801C30BD0000FD
:100600002DE9FF470D460278DFF848800027002AD1
:1006100007D0012A1BD0FF202870404604B0BDE857
:10062000F087467802974FF400540094112001900F
:1006300002200390DFF820906946484601F070FAE6
:10064000F00702D0C9F8144001E0C9F810402F703B
:100650004046E3E7010002000010014000220628A6
:1006600024D006DC052821D2DFE800F0202020205D
:100670000C00F0280DD0FD2818D0FE2813D0FF283C
:1006800014D10AE00A4802680A60406848600822FB
:100690000CE013200870012208E0402008700020C0
:1006A0004870022202E001200870012210467047C3
:1006B00092920008F0B510F8014B104EB47500226C
:1006C000002308E010F8015BF7183D7606EB4307BE
:1006D0003A842A445B1CA342F4D3002006E033187A
:1006E0001B7ED21A06EB40031A86401CA042F6D3AA
:1006F00000200870641C2004401CF0BDB0330020B2
:1007000010B50C460E490A78022A14D10078C87533
:10071000897D88420FD20E2001F072FF02F0A4F80A
:10072000002121706070010AA170010CE170000EBF
:100730002071044810BDFF2020704FF0011010BD43
:10074000B0330020050001002DE9F047002201F838
:10075000012B88460125012410F8017B15E010F8D3
:10076000016B814642464946304602F0EBF806F0FE
:100770003F0000B94020C01DC10809EB01000D4435
:100780006D1C320601D588440C447F1E791CE6D1CD
:10079000204665F31F40BDE8F08700002DE9F04FCB
:1007A00085B0044604940020029003918E1CC44935
:1007B00000220A7000258146C24A14F8011BD17537
:1007C000927D91427ED214F8018BB8F1000F7AD05D
:1007D00014F801BB5FEACB7101D00B2700E00A27B8
:1007E0005FEA8B7170D5B9F1000F3AD0B548B0F817
:1007F0000AA0BD4210D15FEACB600DD469465846CD
:1008000002F0F4F802281ED1BAF1010A1BD3AC4958
:1008100009780029F2D016E00A2D03D00A252846CF
:1008200001F0EEFEDFF8989269460E2002F0DEF845
:10083000022806D1BAF1010A03D399F80010002961
:10084000F2D04FF0000901283DD100993170009994
:10085000090A71700099090CB1700099090EF170C4
:10086000361D5FEACB6154D520786178E27840EAA2
:100870000120A178090441EA026108430190241D86
:100880009048B0F80CA0BD4203D03D46284601F088
:10089000B7FE8C4847890021584602F0A7F8022885
:1008A00006D17F1E791C03D0854909780029F2D032
:1008B000012808D1834847896946584602F096F8CE
:1008C000022802E0DEE0A0E041E006D17F1E791CB4
:1008D00003D07B4909780029EED001280DD1794950
:1008E000009A09691140019A914206D0BAF1010AB1
:1008F00003D3734909780029DCD07249009A096949
:100900001140019A914201D040F0100001287CD1A1
:1009100072E0B9F1000F6FD1BD4203D03D462846C9
:1009200001F06EFE67484789DFF894A10021584620
:1009300002F05CF8022806D17F1E791C03D09AF8D9
:1009400000100029F2D0012864D1814654E0B9F1A9
:10095000000F25D00A2D03D00A25284601F050FEAD
:100960005848B0F80AA069460E2002F03FF8022865
:1009700006D1BAF1010A03D3514909780029F2D00E
:10098000012847D1009830700098000A70700098D4
:10099000000CB0700098000EF070361D4FF000098A
:1009A00020786178E27840EA0120A178090441EAE0
:1009B000026108430090241D5FEA8B6103D5414921
:1009C0000861012018E0BD4203D03D46284601F0F1
:1009D00017FE3C484789DFF8E8A06946584602F010
:1009E00005F8022806D17F1E791C03D09AF8001062
:1009F0000029F2D001280DD10299491C02913049F9
:100A0000097811B9A8F1010800E003E0B8F1000F7E
:100A10007FF4DEAEB8F1000F0DD014F8011B8A0789
:100A200003D5C90602D5241D00E0241DA8F1010844
:100A3000B8F1000FF1D1012834D10A2D02D00A20DB
:100A400001F0DEFDB9F1000F1DD01E4845891C4F95
:100A500069460E2001F0CAFF022805D16D1E691CEF
:100A600002D039780029F3D001281BD100993170C8
:100A70000099090A71700099090CB1700099090E6A
:100A8000F170361D0EE00F4845890D4F00210E20F4
:100A900001F0ACFF022805D16D1E691C02D0397827
:100AA0000029F3D0DDE90212117003994870039810
:100AB000311A049805B0201A41EA0040BDE8F08FD1
:100AC00021000020B03300202DE9F84F0446002615
:100AD00000208846CF1C524900220A70DFF844B13A
:100AE00014F8011B8BF817109BF81620914254D272
:100AF0002178627841EA0225A41C002D4DD014F81B
:100B0000019B5FEAC97002D04FF00B0A01E04FF081
:100B10000A0A504601F074FD5FEA89705DD54148CC
:100B20004489DFF8FCB00021484601F05FFF02284D
:100B300006D1641E611C03D09BF800100029F2D07E
:100B4000012862D126E03DB9BAF10A0F02D00A208D
:100B500001F056FD4FF00E09324844896946484677
:100B600001F044FF022806D1641E611C03D09BF8EB
:100B700000100029F2D0012847D10099397000995E
:100B8000090A79700099090CB9700099090EF97079
:100B90003F1D761C6D1E691CD5D136E0207861782A
:100BA000E27840EA0120A178090441EA02610843A1
:100BB0000090241D1B48B0F80AB06946484601F071
:100BC00015FF022806D1BBF1010B03D314490978A4
:100BD0000029F2D0012818D1761C6D1E681CDDD1C9
:100BE000BAF10A0F02D00A2001F00AFD0D4844892B
:100BF0000B4D00210E2001F0F9FE022805D1641EE4
:100C0000611C02D029780029F3D088F80060310AED
:100C100088F8011088F80200A7EB0800BDE8F88FFB
:100C200021000020B033002070B504460D460E4967
:100C30002078C875897D884203D3FF202870012061
:100C400070BD082001F0DCFC6078A178227940EAD0
:100C50000120E178090441EA0261084302F066F9E3
:100C600000202870012070BDB033002010B502783C
:100C7000A2F180031F2B02D800F066F810BD01F826
:100C8000012B0C4610F8011B172957D2DFE801F0A1
:100C90000C14181C44484C56502024565656565690
:100CA000282C3034383C40000078611CFFF7D6FC1B
:100CB000207000F1021010BD2146FFF7A1FC3AE0C0
:100CC0002146FFF741FC36E02046FFF767FC32E0A3
:100CD0002146FFF755FC2EE0204600F03DF82AE0C3
:100CE000214600F0B1FA26E0214600F07BFA22E02E
:100CF000214600F079FB1EE0214600F039F81AE0A9
:100D00002146FFF721FD16E02146FFF7D3FC12E054
:100D10002146FFF7F5FC0EE0214600F0DBFB0AE080
:100D2000214600F0A1FB06E0214600F0ABFB02E00B
:100D3000214600F0E5FB00F1011010BDFF2004F892
:100D4000010C4FF0011010BD4FF0011203780B7031
:100D500000788038104670470021417001700220F1
:100D6000704710B502F0ECF9BDE8104002F0A4B9EC
:100D70000078064A00F003035B1C1375C0F3800083
:100D80005075002008704FF001107047B0330020FC
:100D90002DE9F04F87B00446069400200490059199
:100DA0008D1CDFF8DCA200218AF8001000270391D7
:100DB0006678A41C002E7DD014F8018B5FEA887140
:100DC00079D587B3AF48B0F80A9008F01100012830
:100DD0000DD101A9404602F057FD022815D1B9F105
:100DE000010912D39AF800100029F2D00DE001A9F0
:100DF0000E2002F049FD022806D1B9F1010903D302
:100E00009AF800100029F2D00027012852D1019948
:100E100029700199090A69700199090CA970019951
:100E2000090EE9702D1D5FEAC86152D520786178FE
:100E3000E27840EA0120A178090441EA026108430E
:100E40000290241D8F48B0F80CB05FEAC87011D032
:100E50008C48B0F80A900021404602F015FD0228A7
:100E600006D1B9F1010903D39AF800100029F2D094
:100E700001281FD18348B0F80A9001A9404602F02A
:100E800003FD022806D1B9F1010903D39AF8001035
:100E90000029F2D0012810D17A49019A096911403C
:100EA000029A914209D0BBF1010B06D39AF80010C7
:100EB000002901E08AE042E0DCD07249019A096928
:100EC0001140029A914201D040F0100001287DD1DA
:100ED00032E06C49B1F80A905FEAC87111D05FBB8B
:100EE0000021404602F0D0FC022806D1B9F10109E8
:100EF00003D39AF800100029F2D0012872D10127FB
:100F00001AE001A9404602F0BFFC022806D1B9F15F
:100F1000010903D39AF800100029F2D0012861D109
:100F2000019929700199090A69700199090CA97040
:100F30000199090EE9702D1D0021039148E0F7B1D8
:100F40005048B0F80A9001A90E2002F09DFC02283A
:100F500006D1B9F1010903D39AF800100029F2D0A3
:100F600001283FD1019828700198000A6870019803
:100F7000000CA8700198000EE8702D1D0027207845
:100F80006178E27840EA0120A178090441EA02612F
:100F900008430190241D5FEA886103D5394908613F
:100FA000012015E03748B0F80A9001A9404602F048
:100FB0006BFC022806D1B9F1010903D39AF800109D
:100FC0000029F2D001280DD1012100E00AE00391AF
:100FD0000499491C04919AF8001019B9761E002E44
:100FE0007FF4EAAE5EB114F8011B8A0703D5C90687
:100FF00002D5241D00E0241D761E002EF3D1012809
:101000002FD1EFB11F48468901A90E2002F03CFC08
:10101000022806D1761E711C03D09AF80010002910
:10102000F2D001281DD1019929700199090A69702E
:101030000199090CA9700199090EE9702D1D10E0A4
:10104000039971B10F48468900210E2002F01CFC63
:10105000022806D1761E711C03D09AF800100029D0
:10106000F2D0DDE904121170059948700598291A2B
:10107000069807B0201A41EA0040BDE8F08F000052
:1010800021000020B03300202DE9F84F044600264F
:1010900000208946CF1CDFF818A100218AF8001033
:1010A000641C2178627841EA0225A41C002D74D0CA
:1010B00014F8018BDFF8FCB05FEA88715BD55FEA5A
:1010C000C87135D0BBF80A400021404602F0DCFB75
:1010D000022806D1641E611C03D09AF80010002972
:1010E000F2D0012859D123E025B95FEAC87001D0B8
:1010F0004FF00E08BBF80A406946404602F0C4FBB8
:10110000022806D1641E611C03D09AF80010002941
:10111000F2D0012841D1009939700099090A7970FB
:101120000099090CB9700099090EF9703F1D761CE1
:101130006D1E691CD8D130E020786178E27840EAF1
:101140000120A178090441EA026108430090241DAE
:101150001848B0F80AB06946404602F095FB0228EC
:1011600006D1BBF1010B03D39AF800100029F2D08D
:10117000012812D1761C6D1E681CDDD10D484489F2
:1011800000210E2002F080FB022806D1641E611CA3
:1011900003D09AF800100029F2D089F80060310AD3
:1011A00089F8011089F80200A7EB0900BDE8F88F63
:1011B00021000020B033002038B50C4641788278F9
:1011C00041EA0222C1780079090441EA0060024341
:1011D00000926946002002F057FB00202070012099
:1011E00038BD000030B50278437842EA03228378A4
:1011F000C0781B0443EA006002430F48002A08D06D
:101200000E4D00240E4BAA4206D301225A705A609A
:101210000FE0FF220A7030BD5C700A4D1544B5FB2B
:10122000F2F2022A03D90325B2FBF5F200E0012213
:101230005A600C7030BD00000100040080A812014B
:10124000B0330020FF5025022DE9F04786B08846D4
:10125000057844788178C27841EA0226017940799C
:10126000090441EA006006435849E00701F104021D
:1012700006D0EB074FF4806001D0086000E01060FA
:10128000A00706D5AB074FF4007001D5086000E059
:10129000106060074FF0010308D5A808C00702D00E
:1012A0004B48036002E04A48001D036020064FF0EF
:1012B00000072BD5E80902970397049705975FEA83
:1012C000C07944484FF4006C4FF0020A09D0C1F8CD
:1012D00000C0CDF808C0CDF814A002A900F020FC91
:1012E00014E0C2F800C0CDF808C0112103910493A6
:1012F000CDF814A002A900F013FC05F059FF364800
:101300000190042201A9354806F0B4FA304B2F4869
:101310001B1F001FDEB332498E4200D90E464FF02C
:10132000E02CCCF8187006EBC601C900CCF81410FC
:101330000521CCF81010E10704D00168C1F3802228
:10134000AA421CD1A10705D50168C1F34021B1EB28
:10135000550F14D1610705D51968C1F30001B1EB30
:10136000950F0CD1A10602D5B7EB551F07D1210669
:101370000BD50168C1F3C021B1EBD51F05D0DCF856
:101380001010C1F300410029D5D0CCF810700168CD
:10139000C1F380210268C2F3402241EA4202196887
:1013A000C1F3000142EA8102094908390968C1F321
:1013B000400142EAC1010068C00A41EAC01088F851
:1013C000000006B00748BDE8F0870000100C01409F
:1013D00010080140000C01400400FA050CED00E08B
:1013E000C0C62D000100060070B50D4610F8014B77
:1013F0000146002C01D14FF48074204602F09EFD7E
:1014000000202870E41DE008401C0004401C70BD52
:1014100008B5134800210170417022224260017218
:1014200064224281818101610122027541758175C9
:101430000C48816941F008018161816901F008016E
:101440000091816941F010018161806900F0100014
:10145000009002F029F9BDE8084002F06BB90000E5
:10146000B033002000100240054A1278012A03D050
:10147000022A03D0FFF7AAB8FFF78ABCFFF78EB99C
:10148000B033002010B504461148007801280CD074
:1014900002280ED000200870487088700320E17880
:1014A00089070AD540F4802010BD2046FFF7ECFDE7
:1014B000F5E72046FFF708FBF1E76178A27841EAFB
:1014C0000221042202EB810140EA014010BD00002C
:1014D000B033002010B5084A03781372437884783B
:1014E00043EA04235381C378007943EA00209081C2
:1014F00000200870014810BDB03300200100050035
:1015000010B5094A1278012A07D0022A08D0FF2014
:101510000870012040F4A02010BDFFF74DFEF9E750
:10152000FFF782FBF6E70000B0330020014800F02F
:10153000C5B900006C1F0020014800F0BFB90000D1
:10154000281F0020014800F0B9B90000681D0020E4
:10155000014800F0B3B90000AC1D0020014800F0C4
:10156000ADB90000F01D0020014800F0A7B900004F
:10157000341E002030B590F840500124AC40C56BBB
:101580006C60046863604368102B04D00368996042
:101590000068C26030BD03689A600068C16030BDF9
:1015A000704700002DE9F84F014601227B4804F006
:1015B00061F97B4EF07010B10020BDE8F88F012773
:1015C000377005F0F5FD00287ED006F097FA08B1D7
:1015D0000020F2E706F07EFA08B10020EDE706F001
:1015E000AFFA05F0E5FD00286FD04FF0006006F07F
:1015F00011FA18B106F066FA0020DEE706F0F6F9F7
:1016000008B10020D9E74FF4806B4FF00C084FF081
:1016100000093EE0624B5A461B1D62495F4804F0D8
:1016200037FAB088584501D286F80090F0685A46DB
:101630005C4900F1006006F013FA08B10020BCE735
:10164000D6F80CA00AF5806AC6F80CA05348C0680A
:10165000FEF798FE04460D465046FEF793FE2246DE
:101660002B46FEF720FE00224F4BFEF7AAFDFEF7A9
:1016700096FE3061024602231E216E20CDF80080C6
:1016800001F08EFF0C2349A21E217A20009701F061
:10169000C8FF30780028BDD105F08AFD002876D03B
:1016A0004FF40051424800F03AFB002005F0ACFE38
:1016B000052364221E215C20CDF8008001F070FF1C
:1016C0000C233AA21E2101E065E062E07A20009737
:1016D00001F0A7FF0C2337A228210020009701F07A
:1016E000A0FF0C2336A232210020009701F099FFC1
:1016F0004FF47A7000F002FA01F000FE642000F06E
:10170000FDF986F8019086F80290C6F80C902FA19A
:101710002F4804F087F968BB2D492D48183904F08B
:1017200069FA20E02A481838407A18B396F902007E
:10173000284C00EB800004EB8000A4F26B21FEF744
:1017400037FD009796F90200717800EB800004EBFA
:1017500080020C23002001F064FF70780A30707062
:10176000B078401CB0701A491948183904F042FA90
:101770000028D7D00C2318A200216E20009701F07A
:1017800050FF86F801903770012016E7FFE7002030
:1017900013E7002011E700200FE70000B01500203C
:1017A00000000020B011002000005940250000007A
:1017B000001001403D3D3D3D3D3D3D3D3D3D000076
:1017C000464C41534820444F4E450000303A0000FB
:1017D000F01700204C1A00203C3C000010B590F897
:1017E00021100022022905D00421816380F82020E5
:1017F000012010BD01680B6823F00E030B60016827
:101800000B6823F001030B6090F84030C46B01219A
:1018100001FA03F3636080F8211080F8202010465D
:1018200010BD000010B5002490F82110022903D04B
:101830000421816301243DE001680A6822F00E0260
:101840000A6001680A6822F001020A601A4A016807
:10185000914201D1012121E0174A1432914201D174
:1018600010211BE0144A2832914201D1891515E05C
:10187000114A3C32914201D189140FE00E4A503294
:10188000914202D14FF4803108E00B4A6432914218
:1018900002D14FF4801101E04FF08071064A083AFE
:1018A0005160012180F82110002180F82010416B47
:1018B00001B18847204610BD080002402DE9F05FC5
:1018C000C16B0A6801680B68046C4FF0040A0AFADD
:1018D00004FA4E4D4E4E4F4FDFF83CC1DFF83C81CD
:1018E000DFF83C911AEA020F31D05FEA437A2ED535
:1018F0000A68920603D40A6822F004020A600168AA
:10190000A94201D1042119E0B14201D1402115E0E1
:10191000B94202D14FF4806110E0614502D14FF429
:1019200080410BE0414502D14FF4802106E049455A
:1019300002D14FF4800101E04FF08061334A083A50
:101940005160C16A00295FD0BDE8F05F08474FF0E1
:10195000020E0EFA04FE1EEA020F4FF0000A4FF0CC
:10196000010B35D05FEA837E32D50A68920605D432
:101970000A6822F00A020A6080F821B00168A942D0
:1019800001D1022119E0B14201D1202115E0B94273
:1019900002D14FF4007110E0614502D14FF40051C3
:1019A0000BE0414502D14FF4003106E0494502D138
:1019B0004FF4001101E04FF00071144A083A5160F1
:1019C00080F820A0816A00291ED0BDE8F05F08479A
:1019D0000825A540154217D01A0715D50A6822F028
:1019E0000E020A6090F84010C26B0BFA01F15160D0
:1019F000C0F838B080F821B080F820A0016B002931
:101A000002D0BDE8F05F0847BDE8F09F0800024043
:101A10001C000240300002404400024058000240D6
:101A20006C00024030B5002827D0001D144A50F841
:101A3000041C14230A44B2FBF3F29200C263114A5D
:101A40008263022242770A6843F6F0739A43D0E930
:101A500000342343D0E902452C4323430469234344
:101A6000446923438469234313430B60002141638A
:101A7000012242770177002030BD012030BD0000F7
:101A8000F8FFFDBF0000024070B50446002594F841
:101A9000200001280CD0012084F8200094F8216057
:101AA0000020012E06D084F820000225284670BDB3
:101AB000022070BD022684F82160A06320680668B9
:101AC00026F0010606602046FFF754FDE06A28B1C3
:101AD0002068016841F00E01016009E0206801689A
:101AE00021F0040101602068016841F00A010160F1
:101AF0002068016841F001010160D7E770B5044634
:101B000000F01CF90546601C02D00448007804442B
:101B100000F014F9401BA042FAD370BD9C110020C4
:101B20002DE9F84F00240023DFF8C4914FF00F088F
:101B300009F1040A0AF1040B0BF1040ED1E00127AC
:101B4000A7403A40BA4275D1DFF8A8C14D68A5EB6D
:101B50000C0665452BD00DDC032D34D005DC35B3E8
:101B6000012D19D0022D2FD11BE0112D16D0122DD1
:101B70002AD119E0B6F5881F19D006DCB6F5803FEA
:101B800015D0B6F5801F1FD111E0B6F5001F0ED09D
:101B9000B6F5041F18D10AE0CB6815E0CB681B1D11
:101BA00012E0CB6808330FE0CB680C330CE08B6895
:101BB00023B1012B04D00823476105E0042303E08F
:101BC0000823076100E00023FF2A01D8054601E051
:101BD00000F1040502D84FEA840603E0A4F10806E8
:101BE0004FEA86062F6808FA06FC27EA0C0703FA74
:101BF00006F647EA06072F604D68ED0070D53E4DAA
:101C0000AE6946F00106AE61AD6905F001050095CB
:101C10003A4D24F003067719BE68A5072D0F08FA80
:101C200005FC26EA0C06DFF8D8C0604503D14FF06A
:101C3000000C17E054E0DFF8CCC0604502D14FF053
:101C4000010C0FE0DFF8C0C0604502D14FF0020C7C
:101C500008E0DFF8B8C0604502D14FF0030C01E0A6
:101C60004FF0040C0CFA05FC4CEA060CC7F808C04F
:101C70004D68ED0305D5D9F800501543C9F800505B
:101C800004E0D9F800509543C9F800504D68AD0301
:101C900005D5DAF800501543CAF8005004E0DAF828
:101CA00000509543CAF800504D68ED0205D5DBF8A9
:101CB00000501543CBF8005004E0DBF8005095438A
:101CC000CBF800504D68AD0205D5DEF80050154345
:101CD000CEF8005004E0DEF800509543CEF80050F6
:101CE000641C0A6832FA04F57FF429AFBDE8F88F66
:101CF00000040140000011100010024000000140EB
:101D000000080140000C0140001001400014014097
:101D10008068084201D00120704700207047C268E7
:101D20000A4201D04161704701617047002A01D029
:101D30000161704709040161704700000148806833
:101D4000704700009C11002002488168027811440D
:101D5000816070479C110020002809DB00F01F0201
:101D6000012191404009800000F1E020C0F80011FD
:101D700070470000F0B40D460D4B1B68C3F30223FF
:101D8000C3F10704042C00D90424191D072901D22A
:101D9000002300E0DB1E012606FA04F1491E29405B
:101DA00099409E40761E16403143F0BC02F0B8BD0B
:101DB0000CED00E001480068704700009811002019
:101DC00000B5FFF7F7FF04494968044AC1F302214F
:101DD000515CC84000BD000000100240849500081E
:101DE00000B5FFF7E7FF04494968044AC1F3C2217F
:101DF000515CC84000BD00000010024084950008FE
:101E000070B50446002C05D00025A56294F8510059
:101E100010B106E0012070BD84F85050204600F05B
:101E20002FF8022084F851002068016821F0400159
:101E30000160D4E901010843D4E9031211430843C6
:101E400061690843218B01F400710843E16908438B
:101E5000216A0843A16A084321680860A069042137
:101E600001EA1040216848602068C16921F40061DE
:101E7000C1616565012084F85100002070BD00003B
:101E8000F0B585B0064600240194029403940494AE
:101E9000384D3168384802220323A94243D1816971
:101EA00041F480518161816901F48051009181691F
:101EB00041F004018161806900F004000090A020DD
:101EC0000190029204932D4D01A92846FFF728FEA8
:101ED000402001900294039401A92846FFF720FEB8
:101EE000284D2748286010206860AC608027EF608C
:101EF0002C616C61AC61EC612846FFF793FDB56421
:101F00006E621F481438443528606C60AC60EF6026
:101F10002C616C61AC61EC612846FFF783FDF564D0
:101F20006E6205B0F0BD184DA942FAD1C16941F405
:101F30008041C161C16901F480410091816941F032
:101F400008018161806900F0080000904FF4204092
:101F50000190029204930D4D01A92846FFF7E0FD80
:101F60004FF4804101910294039401A92846FFF7A0
:101F7000D7FDD6E7003001400010024000080140C4
:101F800030000240281F002000380040000C0140B3
:101F90002DE9F84F04460A9E8A4693461F460125BE
:101FA0004FF0000894F8500001280ED0012084F86A
:101FB0005000FFF7C3FE814694F851006168012884
:101FC0000DD0B1F5827F07D102E00220BDE8F88F85
:101FD000A16809B9042802D04FF00208C3E0BAF1A1
:101FE000000F28D0BBF1000F25D0380023D094F883
:101FF0005100042802D0052084F8510000206065BB
:10200000C4F838B0E787A787C4F830A0E786A7866A
:102010002064606420680168490603D4016841F0C7
:1020200040010160E068B0F5006F07D06068E8B378
:10203000012F48D07DE04FF0010894E0606808B1BE
:10204000012F39D1206B21680088C860206B801C6B
:102050002063E08E401EE0862EE0206881688907BC
:102060000DD5E18E59B1012D09D1216B0988C160CF
:10207000206B801C2063E08E401EE08600252068D7
:102080008168C9070BD0E18F49B1C068A16B088096
:10209000A06B801CA063E08F401EE0870125FFF746
:1020A0004DFEA0EB0900B04206D300E00BE0701C2F
:1020B00002D04FF0030856E0E08E0028CDD1E08F2B
:1020C0000028CAD13BE0206B216800780873206BA0
:1020D000401C2063E08E401EE0862AE02068816874
:1020E00089070DD5E18E59B1012D09D1216B0978F0
:1020F0000173206B401C2063E08E401EE0860025AB
:1021000020688168C9070BD0E18F49B1C068A16B15
:102110000870A06B401CA063E08F401EE087012583
:10212000FFF70CFEA0EB0900B04201D3701C11D1E7
:1021300086B1E08E0028D1D1E08F0028CED14A466A
:102140003146204601F031FB38B14FF00108202024
:10215000606508E04FF0030805E0A06818B9206842
:10216000C1688068009001205034607000202070A9
:1021700040462BE710B5401EB0F1807F01D301200F
:1021800010BD4FF0E02460610F21601702F0C8FB22
:102190000020A06107202061002010BD10B504467A
:1021A00020684169C1F3C01194F83920212A0BD16C
:1021B00051B1416921F080014161206B08B1FFF705
:1021C0000DFB204602F037F820684169C1F3801109
:1021D00094F83A20222A0BD151B1416921F04001F3
:1021E0004161606B08B1FFF7F9FA204602F008F888
:1021F000002010BD7047000070B5044622681068CA
:10220000D168526900F00F03002B08D1850606D56E
:102210008D0604D52046BDE8704002F015B8002BAD
:102220005ED002F0010301F490752B4358D0C30730
:1022300005D0CB0503D5E36B43F00103E36343070C
:1022400005D5D30703D0E36B43F00203E3638307B1
:1022500005D5D30703D0E36B43F00403E36303071F
:1022600005D5D20703D0E26B42F00802E263E26BCD
:10227000002A2AD0800604D5880602D5204601F01F
:10228000E3FF20684069C0F38010E16B090700D4C8
:1022900000B3204601F0B4FF20684169490615D516
:1022A000416921F040014161606B58B115494163BA
:1022B000606BFFF7B7FA002807D0606B416BBDE891
:1022C000704008472046FFF795FF70BD2046FFF796
:1022D00091FF70BD2046FFF78DFF0020E06370BDC9
:1022E000020606D50A0604D52046BDE8704002F075
:1022F00083B84006F3D54806F1D52046BDE87040C6
:1023000001F08CBF6141000870B50446002C04D078
:1023100094F83900002510B106E0012070BD84F862
:102320003850204600F022F8242084F83900206834
:10233000C16821F40051C160204601F0D3FF20683C
:10234000016921F4904101612068416921F02A016D
:1023500041612068C16841F40051C160E5632020FB
:1023600084F8390084F83A00002070BD2DE9F0436C
:1023700085B0044600250195029503950495DFF884
:102380004CC12168524802220323524E80274FF04D
:102390001008614552D1816941F4804181618169B0
:1023A00001F480410091816941F0040181618069FB
:1023B00000F004000090100201900292049301A921
:1023C0003046FFF7ADFB301501900295039501A94A
:1023D0003046FFF7A5FB414E3F483060C6F8048009
:1023E000B560F760356175614FF02008C6F8188058
:1023F0004FF44059C6F81C903046FFF713FB266394
:10240000746235481430443630607560B560F760EA
:1024100035617561C6F81880C6F81C903046FFF724
:1024200001FB66637462002211462520FFF7A2FCBF
:102430002520FFF791FC05B0BDE8F083DFF8A0C0D0
:102440006145F8D1C16941F40031C161C16901F44C
:1024500000310091816941F004018161806900F0DF
:1024600004000090042001900292049301A93046D8
:10247000FFF756FB082001900295039501A930460D
:10248000FFF74EFB1448154E2830883630607560D3
:10249000B560F76035617561B561F5613046FFF78C
:1024A000C1FA666374620C483C3044363060C6F84A
:1024B0000480B560F76035617561B561F5613046DE
:1024C000FFF7B0FA26637462B5E7000000380140F8
:1024D000001002400008014044000240681D002036
:1024E0000044004037B582B00446134694F83A00E1
:1024F000202802D0022005B030BD039AA2B39BB3BE
:1025000094F83800012832D0012084F83800A26203
:10251000A3850025E563222084F83A00616B154805
:102520008862616B1448C862616B14480863606B11
:1025300045632168606B091DFFF7A6FA20680168F2
:102540004168019184F83850C16841F48071C160DC
:102550002068416941F0010141612068416941F011
:10256000400141610020C6E7FFE70120C3E70220E8
:10257000C1E70000BB410008F741000871410008B5
:10258000704770477047000070B501780125072932
:102590000DD0084C2178002908D101464022064878
:1025A000FDF7E2FD257005494020086070BD044834
:1025B000057070BD14000020DC1B0020901100206D
:1025C000210000207047FEE708B50020009004F0CD
:1025D0000BFF68B14EF29E7004F0E2FF50B104F0C0
:1025E00003FF48B1684604F0C8FE38B1012008BDB9
:1025F000002008BD002008BD002008BD002008BD47
:1026000003494978002901D000F004B800F06CB803
:10261000B03300202DE9F043304D4FF4007CC5F875
:1026200000C02C152E1D34602C6034602C60C6F860
:1026300000C034602C6034602C60294F01223A6065
:102640002849CB7D01EB4309B9F82010002904D0BB
:1026500034602C60491E0029FAD122491831595C96
:10266000491EDFF87C8008F1040859B1C30701D086
:102670003A6001E0C8F8002034602C604008491E30
:102680000029F3D1B9F83010A1B1C00701D03A60E8
:1026900001E0C8F8002034602C603A60491E21B186
:1026A00034602C60491E0029FAD1C5F800C034609E
:1026B0002C6009E0C5F800C0C00701D03A6001E015
:1026C000C8F8002034602C6034602C60C6F800C06C
:1026D00034602C603A60BDE8F0830000100C0140CB
:1026E00010080140B03300202DE9F0475B4C4FF457
:1026F0000078C4F8008004F1040C2715CCF80070B1
:10270000574B59680A46521EFDD127600A46521E91
:10271000FDD1CCF800700A46521EFDD127600A4652
:10272000521EFDD1CCF80080CCF800700A46521E33
:10273000FDD127600A46521EFDD1CCF800700A4632
:10274000521EFDD127600A46521EFDD1454E01257D
:10275000356093F8179003EB490ABAF820305BB163
:10276000CCF800700A46521EFDD127600A46521E60
:10277000FDD15B1E002BF3D1394A183219F8023013
:102780005B1EDFF8E09009F1040993B1C20701D0A4
:10279000356001E0C9F80050CCF800700A46521EBE
:1027A000FDD127600A46521EFDD140085B1E002B5A
:1027B000ECD1BAF830204AB3C00701D0356001E04F
:1027C000C9F80050CCF800700846401EFDD12760C3
:1027D0000846401EFDD13560521E5AB1CCF800703B
:1027E0000846401EFDD127600846401EFDD1521EFE
:1027F000002AF3D1C4F80080CCF800700846401ECF
:10280000FDD127600846401EFDD110E0C4F80080CD
:10281000C00701D0356001E0C9F80050CCF8007065
:102820000846401EFDD127600846401EFDD1CCF869
:1028300000700846401EFDD127600846401EFDD1AD
:10284000CCF80080CCF800700846401EFDD127600F
:10285000491EFDD13560BDE8F0870000100C014035
:10286000B0330020100801402DE9F041324A4FF406
:10287000007515601315141D2360304E71680846ED
:10288000401EFDD113600846401EFDD12560236027
:102890000846401EFDD113600846401EFDD123604E
:1028A0000846401EFDD113600846401EFDD1F67D4E
:1028B00056B123600846401EFDD113600846401EF5
:1028C000FDD1761E002EF4D100271F26DFF870C040
:1028D00023600846401EFDD1DCF80000C0F340082C
:1028E00013600846401EFDD147EAC8704708761EAF
:1028F000002EEDD1156023600846401EFDD1DCF8A6
:102900000000C0F3400613600846401EFDD147EAB0
:10291000C67023600E46761EFDD113600E46761EED
:10292000FDD1256023600C46641EFDD11360491E55
:10293000FDD1BDE8F0810000100C0140B033002053
:10294000080801402DE9F04F00F03F03002B00D1B3
:102950004023DFF88CA045064FF40074AAF1040B65
:1029600002D5CBF8004001E0CAF800404FF0010961
:102970004FF48068DFF86CE02DE011F8016B002760
:10298000082420E0F50703D0174DC5F8009003E0B8
:10299000154D2D1DC5F80090CAF80080DEF804C062
:1029A00065466D1EFDD1104D083D2D68C5F34005EF
:1029B000CBF80080BCF1010CFCD176087F0847EA17
:1029C000C517641E5B1E0CB1002BDBD1E74004066B
:1029D00001D502F8017B002BCFD1BDE8F08F0000BC
:1029E000140C0140B033002010080140034A527813
:1029F000002A01D000F004B800F000B9B033002084
:102A00002DE9F04F7A4F4FF400733B6007F1040C4F
:102A10005E00CCF800603E60CCF80030CCF800607E
:102A20003E60CCF800603E60DFF8C8E19EF81720F9
:102A3000002A05D0CCF800603E60521E002AF9D171
:102A400042086D4CD507A4F104084FF0010202D0F2
:102A5000C8F8002000E02260CCF80060DFF898B1F0
:102A6000ABF10C0BDBF80050C5F340053E606D0088
:102A70004FEA90095FEAC97902D0C8F8002000E067
:102A80002260CCF80060DBF80090C9F340093E609A
:102A900045EA09054FEAD0095FEAC97902D0C8F8CA
:102AA000002000E02260CCF80060DBF80090C9F361
:102AB00040093E6045EA8909B9F1010F04D03B6045
:102AC000CCF800603E607BE0DFF828A185079AF82B
:102AD00016009AF817A0A0EB0A0A38D500241F2088
:102AE000CCF80060DBF800506D083E6044EAC57425
:102AF0006408401E0028F3D1AAF1010ABAF1000FC0
:102B000018D0CCF80060DBF80000C0F340003E6055
:102B1000AAF1010ABAF1000F07D0CCF800603E60BC
:102B2000AAF1010ABAF1000FF7D13B60CCF80060BE
:102B30003E6007E03B60CCF80060DBF80000C0F3CB
:102B400040003E6044EAC07079B3086038E008682D
:102B50001F21C50702D0C8F8002000E02260CCF891
:102B600000603E604008491E0029F2D1AAF1010A26
:102B7000BAF1000F1AD0C00702D0C8F8002000E058
:102B80002260CCF800603E60AAF1010ABAF1000FA1
:102B900007D0CCF800603E60AAF1010ABAF1000F3C
:102BA000F7D13B60CCF800603E6009E03B60C007B5
:102BB00002D0C8F8002000E02260CCF800603E603F
:102BC000CCF800603E60CCF80030CCF800603E608D
:102BD000C8F800209EF8080002E0CCF800603E60D3
:102BE000401E411CF9D109F0FF00BDE8F08F000044
:102BF000100C0140B0330020140801402DE9F84FBB
:102C0000C74D4FF4007CC5F800C005F1040A4FF42D
:102C10008069CAF80090DFF80CE3DEF80420134660
:102C20005B1EFDD1C5F8009013465B1EFDD1CAF8AE
:102C300000C0CAF8009013465B1EFDD1C5F8009095
:102C400013465B1EFDD1CAF8009013465B1EFDD1F2
:102C5000C5F8009013465B1EFDD19EF8174064B185
:102C6000CAF8009013465B1EFDD1C5F800901346CC
:102C70005B1EFDD1641E002CF2D14308DC07AA4B79
:102C80004FF00106A3F1040701D03E6000E01E6092
:102C9000CAF800901446641EFDD1DFF88CB2ABF187
:102CA0000C0BDBF80040C4F34004C5F800909046DC
:102CB000B8F10108FCD164004FEA90085FEAC878D7
:102CC00001D03E6000E01E60CAF800909046B8F166
:102CD0000108FCD1DBF80080C8F34008C5F800907B
:102CE0009646BEF1010EFCD144EA08044FEAD00832
:102CF0005FEAC87801D03E6000E01E60CAF800902C
:102D00009046B8F10108FCD1DBF80080C8F3400818
:102D1000C5F800909646BEF1010EFCD144EA880445
:102D20000094009C012C0BD0C5F800C0CAF800909C
:102D30001046401EFDD1C5F80090521EFDD1C2E0E4
:102D4000DFF8E081840798F8160098F81780A0EB68
:102D5000080E5ED500241F23CAF800901046401EBE
:102D6000FDD1DBF80000C0F34008C5F80090104624
:102D7000401EFDD144EAC87044085B1E002BEBD115
:102D8000AEF1010EBEF1000F2FD0C846CAF8009078
:102D90001046401EFDD1DBF80000C0F34000C5F82E
:102DA000008013465B1EFDD1AEF1010EBEF1000F97
:102DB0000ED0CAF8008013465B1EFDD1C5F8008016
:102DC00013465B1EFDD1AEF1010EBEF1000FF0D136
:102DD000AB46C5F800C0CAF8008013465B1EFDD1A3
:102DE000CBF80080521EFDD10EE0C5F800C04B4666
:102DF000CAF800901046401EFDD1DBF80000C0F379
:102E000040002B60521EFDD144EAC070F1B308604F
:102E100059E008681F24C10701D03E6000E01E6031
:102E2000CAF800901146491EFDD1C5F80090114620
:102E3000491EFDD14008641E002CECD1AEF1010EFC
:102E4000BEF1000F2FD0C00701D03E6000E01E6031
:102E50004946CAF800901046401EFDD12960104630
:102E6000401EFDD1AEF1010EBEF1000F0DD0CAF82B
:102E700000101046401EFDD129601046401EFDD1B5
:102E8000AEF1010EBEF1000FF1D100E01BE02B46C8
:102E9000C5F800C0CAF800101046401EFDD11960E8
:102EA000521EFDD10FE0C5F800C0C00701D03E6042
:102EB00000E01E604946CAF800901046401EFDD151
:102EC0002960521EFDD1CAF8009016494A68104682
:102ED000401EFDD1C5F800901046401EFDD1CAF835
:102EE00000C0CAF800901046401EFDD1C5F8009001
:102EF0001046401EFDD13E600B7A09E0CAF80090F2
:102F00001046401EFDD1C5F800901146491EFDD166
:102F10005B1E581CF2D10098C0B2BDE8F88F0000CB
:102F2000100C0140B0330020140801402DE9F04F8F
:102F30005E4B4FF400751D601E151F1D3E60DFF8CF
:102F40007081D8F804100A46521EFDD11E600A4650
:102F5000521EFDD13D603E600A46521EFDD11E60EC
:102F60000A46521EFDD13E600A46521EFDD11E6029
:102F70000A46521EFDD198F81740A44654B13E604F
:102F80000A46521EFDD11E600A46521EFDD1641E25
:102F9000002CF4D1474C4FF00109C4F800903E607A
:102FA0000A46521EFDD11E600A46521EFDD13E60E9
:102FB0000A46521EFDD11E600A46521EFDD13E60D9
:102FC0000A46521EFDD11E600A46521EFDD14FF028
:102FD0001F0ADFF8E0B0ABF1040BC20702D0CBF858
:102FE000009001E0C4F800903E600A46521EFDD1F8
:102FF0001E600A46521EFDD14008AAF1010ABAF12C
:10300000000FEAD198F81620A2EB0C02521E3AB338
:10301000C00702D0CBF8009001E0C4F8009034461D
:103020003E600846401EFDD11C600846401EFDD192
:10303000521E52B13C600846401EFDD11C6008463D
:10304000401EFDD1521E002AF4D11A461D603C607C
:103050000846401EFDD114600846401EFDD110E018
:103060001D60C00702D0CBF8009001E0C4F80090CA
:1030700032463E600846401EFDD11A600846401E9A
:10308000FDD13E600846401EFDD11E600846401E30
:10309000FDD13D603E600846401EFDD11E60491EC8
:1030A000FDD1CBF80090BDE8F08F0000100C01407E
:1030B000B03300201408014008B51E48416941F0B2
:1030C00001014161406900F0010000901B481A496C
:1030D00001604FF480414160402181608021C160E6
:1030E0000021016141618161C161FEF79BFC002209
:1030F00011460C20FEF73EFE0C20FEF72DFE0022AE
:1031000011460D20FEF736FE0D20FEF725FE0022AB
:1031100011461020FEF72EFE1020FEF71DFE0022A5
:1031200011461120FEF726FEBDE808401120FEF7EB
:1031300013BE00000010024008000240601C002086
:103140002DE9F04F85B00024019402940394049477
:103150003048816941F010018161816901F01001FD
:103160000091816941F020018161816901F02001B4
:103170000091816941F004018161816901F00401DC
:103180000091816941F008018161806900F00800C7
:103190000090DFF884904FF460470022394648469B
:1031A000FEF7C4FDDFF874A04FF488780022414692
:1031B0005046FEF7BBFDDFF868B0002241F638410B
:1031C0005846FEF7B3FD01970125029503940226A8
:1031D000049601A94846FEF7A3FC01223946484659
:1031E000FEF7A4FDCDF8048002950394049601A98E
:1031F0005046FEF795FC41F23B0001900295039486
:103200000320049001A95846FEF78AFC05B0BDE8EA
:10321000F08F000000100240001001400008014043
:10322000000C01400C480B4901604FF48271416071
:1032300000218160C16002220261012242615202CA
:103240008261C1610162416281620A21C162FEF74D
:10325000D7BD000000380040D01E002010B5104C33
:103260000E4820600F4860600020A060E060206190
:103270000C216161A061E0612046FFF745F82068FC
:10328000C16841F01001C1600748A4F1440102780F
:103290002046BDE81040FFF725B900000038014086
:1032A000E81C002080841E001700002010B5104C80
:1032B0000E4820604FF4E13060600020A060E060C4
:1032C00020610C216161A061E0612046FFF71CF8DC
:1032D0002068C16841F01001C1600648A4F1840172
:1032E00002782046BDE81040FFF7FCB800440040DB
:1032F000281D002017000020FEE7704710B40021B1
:10330000084B0022002003EBC0046254401CC0B2F2
:103310008028F8D3491CC9B20829F3D310BC00F0A7
:10332000D1B80000B02F002000B500218D2000F0A2
:103330009DF90021142000F099F90021AF205DF8DB
:1033400004EB00F093B9000010B57F2813D83F2993
:1033500011D80723A3EBD103DBB201F00701C1F1C0
:1033600007040121A140C9B2054C04EBC0001AB109
:10337000C25C0A43C25410BDC25C8A43C25410BD31
:10338000B02F0020F0B585B04B48816941F00101B4
:103390008161806900F0010000904849486820F090
:1033A000E06040F0007048603B20019001270297E8
:1033B00003200490424C01A92046FEF7B1FB0122F4
:1033C0003B212046FEF7B2FC3D4E08241036346007
:1033D000C820FEF793FB351D2C60C820FEF78EFB3E
:1033E00034602F600021AE2000F040F90021D5208C
:1033F00000F03CF90021502000F038F90021A8200D
:1034000000F034F900213F2000F030F90021D320F2
:1034100000F02CF90021084600F028F90021402096
:1034200000F024F900218D2000F020F90021142063
:1034300000F01CF90021202000F018F900210220E2
:1034400000F014F90021A12000F010F90021C020A3
:1034500000F00CF90021DA2000F008F90021122018
:1034600000F004F90021812000F000F90021EF2094
:1034700000F0FCF80021D92000F0F8F80021F1203C
:1034800000F0F4F80021DB2000F0F0F800213020FB
:1034900000F0ECF80021A42000F0E8F80021A620BC
:1034A00000F0E4F80021AF2000F0E0F8FFF73CFF67
:1034B000FFF724FF05B0F0BD0010024000000140FE
:1034C000000C014070B500250F4E05F1B000C0B2F0
:1034D000002100F0CBF80021084600F0C7F80021D9
:1034E000102000F0C3F8002406EBC4000121405D69
:1034F00000F0BCF8641CE4B2802CF5D36D1CEDB276
:10350000082DE2D370BD0000B02F00202DE9F04F50
:1035100083460D469846A946203A02F0FF0A002647
:1035200033E0B8F10C0F0CD01B4800EB0A10845D9F
:10353000002720060CD529465846099AFFF704FFB4
:103540000DE016490AEB4A0001EB8000845DEFE7CD
:10355000099890B1002229465846FFF7F5FE60060B
:10356000040E6D1CEDB2A5EB0900404507D14D4698
:103570000BF1010B0BF0FF0B05E00122EBE77F1CC9
:10358000FFB2082FD5D3761CF6B24645C9D3BDE8A5
:10359000F04FFFF797BF0000A28C00082E880008AC
:1035A0002DE9FF4F81B08046DDF838B092461D46C8
:1035B000002600244FF001094FEA5B071FE0281B9B
:1035C000401EC1B20A2003F0D9FCBAFBF0F00A2178
:1035D000B0FBF1F201FB120026B9691E8C4201DA40
:1035E000A0B101263030C2B207FB0480C0B25B46F6
:1035F000CDF800900299FFF789FF641CE4B2AC4259
:10360000DDD305B0BDE8F04FFFF75CBF07FB0480DA
:10361000C0B25B462022CDF800900299FFF776FFFA
:10362000EBE72DE9F84104460D4616469846079FFC
:1036300014E07A2C02D900241035EDB23A2D03D9CA
:1036400000242546FFF75AFE009732784346294664
:103650002046FFF75BFF0834E4B2761C3078002880
:10366000E7D1BDE8F841FFF72DBF0000F0B50D4AE6
:103670000226151F002901D02E6000E016600021EF
:10368000102420231360070601D52C6000E014608D
:103690002B604006000E491CC9B20829F2D32E60E7
:1036A000F0BD0000140C01402DE9F04186B000246B
:1036B00004941D48816941F008018161806900F02E
:1036C00008000190194940F60160086040F201606D
:1036D00002900126039603250595DFF8508002A984
:1036E000A8F110084046FEF71BFAF00202901127DD
:1036F00003970496059502A94046FEF711FA0220A9
:10370000029003940494059502A94046FEF708FA36
:103710007003029003970494059502A90448FEF7EC
:10372000FFF906B0BDE8F08100100240100C014026
:10373000001001402DE9FF410024029418494FF484
:10374000606008604FF4C060009001270197032576
:103750000395DFF84C806946A8F110084046FEF753
:10376000DFF9F80200901126019602970395694649
:103770004046FEF7D5F940F603000090019402940C
:10378000039569464046FEF7CBF978030090019611
:103790000294039569460348FEF7C2F9BDE8FF812C
:1037A000100C014000100140704738B504460B462C
:1037B000009200228021204600F01CF828B1606DA4
:1037C00040F020006065032038BD002038BD0000B7
:1037D0003EB50190FF24012302AA01A904480094E8
:1037E000FEF7D6FB00B102949DF808003EBD000034
:1037F000D01E00202DE9F04104460E4617461D4616
:10380000DDF8188008E0681C06D0FEF797FAA0EBF8
:103810000800A8420BD255B12068806836EA000043
:103820002FD00020B842EED10020BDE8F081206802
:10383000416821F0E00141606068B0F5827F0BD102
:10384000A068B0F5004F02D0B0F5806F04D12068B9
:10385000016821F040010160A06AB0F5005F09D164
:103860002068016821F4005101602068016841F47A
:10387000005101600120503460700020207003204E
:10388000D3E70120CEE77047034A5278002A01D0DF
:1038900000F004B800F05EB9B03300202DE9F34F1A
:1038A00085B00546A94E4FF40079C6F8009006F1A0
:1038B00004083715C8F800703760E80702D0C6F86A
:1038C000009001E0C8F80090C8F800703760294601
:1038D0006808C20702D0C6F8009001E0C8F800905E
:1038E000C8F8007037600144A808C20702D0C6F8C3
:1038F000009001E0C8F80090C8F8007037600144FB
:10390000E808C20702D0C6F8009001E0C8F80090AD
:10391000C8F8007037600844C00702D0C6F80090AD
:1039200001E0C8F80090C8F8007037604FF0000A56
:10393000C8F80090C8F800703760C6F80090C8F862
:1039400000703760CDF808A0CDF80CA0CDF8049039
:103950004FF0020BCDF810B07C4801A91038FEF7EB
:10396000DFF87B48007D014628B1C8F80070376059
:10397000401E0028F9D1C8F80070DFF8D0E1AEF1A0
:10398000080EDEF80000C0F340203760C8F8007071
:10399000DEF80020C2F34022376040EA4200C8F857
:1039A0000070DEF80020C2F34022376040EA820453
:1039B0004FF0010C012C1ED0022C71D0042C6FD0C2
:1039C000213129B1C8F800703760491E0029F9D1AA
:1039D000CDF80CA0CDF80490CDF808C0CDF810B00B
:1039E0005A4801A91038FEF79BF8C6F80090E0B2DB
:1039F00007B0BDE8F08FA80735D5002200212020B0
:103A0000C8F80070DEF80030C3F340233760194473
:103A1000520842EAC372401E0028F1D1C8F8007073
:103A2000DEF80000400A37604140C80700D0082493
:103A3000069808B1069802604548007D28B1C8F88C
:103A400000703760401E0028F9D1CDF80CA0CDF8E9
:103A50000490CDF808C0CDF810B03C4801A910384A
:103A6000FEF75EF831E029B1C8F800703760491EF2
:103A70000029F9D1CDF80CA0CDF80490CDF808C0FC
:103A8000CDF810B0314801A91038FEF749F8069872
:103A9000006800222021C30703D0C6F8009002E08E
:103AA00022E0C8F80090C8F800703760024440086F
:103AB000491E0029EFD1D00702D0C6F8009001E0DE
:103AC000C8F80090C8F8007037602148007A38B113
:103AD000C8F80090C8F800703760401E0028F9D17F
:103AE000C6F80090E0B283E7194A507D40B1A807BC
:103AF00006D52120C8F800703760401E0028F9D193
:103B000029B1C8F800703760491E0029F9D1CDF8F5
:103B10000CA0CDF80490CDF808C0CDF810B00B483B
:103B200001A91038FDF7FCFF0948407D50B1A807F6
:103B300008D4C8F800902120C8F800703760401EF3
:103B40000028F9D1C6F80090E0B251E7100C01400E
:103B5000B03300202DE9F34F85B006460022F54C26
:103B60004FF40079C4F8009004F104082715C8F850
:103B70000070F14D68680146491EFDD1276001467D
:103B8000491EFDD1F10702D0C4F8009001E0C8F849
:103B90000090C8F800700146491EFDD1276001461B
:103BA000491EFDD193197208D10702D0C4F80090C4
:103BB00001E0C8F80090C8F800700146491EFDD128
:103BC00027600146491EFDD11344B208D10702D037
:103BD000C4F8009001E0C8F80090C8F800700146F1
:103BE000491EFDD127600146491EFDD11344F2084C
:103BF000D10702D0C4F8009001E0C8F80090C8F8DE
:103C000000700146491EFDD127600146491EFDD1C5
:103C10009918C90702D0C4F8009001E0C8F80090D4
:103C2000C8F800700146491EFDD127600146491EB3
:103C3000FDD18A46C8F80090C8F800700146491EB8
:103C4000FDD127600146491EFDD1C4F80090C8F897
:103C500000700146491EFDD12760401EFDD1CDF800
:103C600008A0CDF80CA0CDF804904FF0020BCDF8D1
:103C700010B0B04801A91038FDF752FF2A7D11009D
:103C80000CD06B68C8F800701846401EFDD1276044
:103C90001846401EFDD1521E002AF3D1C8F800700C
:103CA00068680246521EFDD1DFF888C2ACF1080CEC
:103CB000DCF80020C2F34022276003465B1EFDD1E2
:103CC000C8F8007003465B1EFDD1DCF80030C3F37A
:103CD000402327608646BEF1010EFCD142EA430331
:103CE000C8F800700246521EFDD1DCF80020C2F375
:103CF0004022276005466D1EFDD143EA8205012D55
:103D000024D0022D71D0042D6FD0213159B1C8F8C3
:103D100000700246521EFDD127600246521EFDD1A0
:103D2000491E0029F3D1CDF80CA0CDF80490012054
:103D30000290CDF810B07F4801A91038FDF7F0FED1
:103D4000C4F80090E8B207B0BDE8F08FB2074DD5D7
:103D50004FF0000E00232022C8F800700146491ED3
:103D6000FDD1DCF80010C1F3402627600146491E52
:103D7000FDD133444FEA5E0141EAC67E521E002A5D
:103D8000EAD13A46C8F800706B4E0146491EFDD193
:103D9000DCF80010C1F340212260401EFDD14B40F1
:103DA000D80700D00825069810B10698C0F800E0A2
:103DB000337D63B17668C8F800203046401EFDD1DF
:103DC00022603146491EFDD15B1E002BF3D1CDF898
:103DD0000CA0CDF8049001200290CDF810B0554809
:103DE00001A91038FDF79CFE47E05CE059B1C8F826
:103DF00000700246521EFDD127600246521EFDD1C0
:103E0000491E0029F3D1CDF80CA0CDF80490012073
:103E10000290CDF810B0474801A91038FDF780FE98
:103E2000069800684FF0000C202643494B68C107F4
:103E300002D0C4F8009001E0C8F80090C8F8007003
:103E40001946491EFDD127601A46521EFDD18444F1
:103E50004008761E002EEAD15FEACC7002D0C4F88A
:103E6000009001E0C8F800903946C8F80070184684
:103E7000401EFDD121605B1EFDD12F48017A71B13A
:103E8000C8F800904268C8F800701046401EFDD186
:103E900027601046401EFDD1491E0029F3D1C4F809
:103EA0000090E8B24FE7DFF890C09CF8152072B19F
:103EB000B2070CD52123C8F800700246521EFDD16E
:103EC00027600246521EFDD15B1E002BF3D159B173
:103ED000C8F800700246521EFDD127600246521EED
:103EE000FDD1491E0029F3D1CDF80CA0CDF80490E6
:103EF00001200290CDF810B00E4801A91038FDF74E
:103F00000FFE0D48417D89B1B1070FD4C8F800906C
:103F100021214268C8F800701046401EFDD127607C
:103F20001046401EFDD1491E0029F3D1C4F800906F
:103F3000E8B208E7100C0140B03300202DE9F04151
:103F400000220023134C124F4FF40076A7F1040C0B
:103F50004FF48068656815E013B911F8012B082348
:103F6000D40702D0CCF8006000E03E60C7F80080C3
:103F70002C46641EFDD1CCF800802C46641EFDD179
:103F800052085B1E401E441CE6D1BDE8F0810000D3
:103F9000140C0140B033002070B5304E4021304643
:103FA000FDF7B6FE38B9C820FDF7A8FD4021304620
:103FB000FDF7AEFE28B180213046FDF7A9FE88B19D
:103FC00018E040213046FDF7A3FE0446402130466C
:103FD000FDF79EFE20B100218C42F2D0012070BD81
:103FE0000121F9E76420FDF789FD80213046FDF7C6
:103FF0008FFE38B14FF4807529463046FDF788FEB4
:1040000088B118E080213046FDF782FE0446802109
:104010003046FDF77DFE20B100218C42F2D0022017
:1040200070BD0121F9E7C820FDF768FD294630463B
:10403000FDF76EFE08B1002070BD29463046FDF741
:1040400067FE044629463046FDF762FE20B1002295
:104050009442F2D0032070BD0122F9E7000C014028
:10406000AFF300800CB50022019200922548016850
:1040700041F480310160016801F40031009101993F
:10408000491C019100990029F5D00168890302D5E6
:104090000121009100E000920099012930D11A49D4
:1040A0000A6842F010020A600A6822F007020A60F9
:1040B0000A6842F004020A60416841604168416058
:1040C000416841F480614160416821F47C114160A4
:1040D000416841F4E8114160016841F0807101607C
:1040E00001688901FCD5416821F003014160416804
:1040F00041F0020141604168C1F381010229FAD116
:104100000CBD00000010024000200240FDF71CBE64
:1041100010B50F48016841F00101016041680D4A86
:104120001140416001680C4A11400160016821F4AE
:1041300080210160416821F4FE0141604FF41F01BC
:104140008160FFF78DFF05494FF00060086010BDEA
:10415000001002400000FFF8FFFFF6FE08ED00E04F
:1041600010B5406A0021C185C184FEF743F810BD37
:1041700070B5446A20684069C0F3C01094F83910E3
:104180000025212904D118B1E584204600F053F818
:1041900020684069C0F3801094F83A10222904D1B5
:1041A00018B1E585204600F02BF8E06B40F01000D8
:1041B000E0632046FEF71EF870BD10B50146486A60
:1041C00009680968890613D40021C1850168CA6895
:1041D00022F48072CA6001684A6922F001024A61D1
:1041E00001684A6922F040024A61202180F83A10B1
:1041F000FEF7C6F910BD10B5406AFEF7C2F910BD52
:104200000168CA6822F49072CA6001684A6922F0A3
:1042100001024A61202180F83A10704710B5016808
:10422000CA6822F04002CA60202180F83910FEF7E7
:10423000A9F9002010BD0168CA6822F0C002CA6056
:10424000202180F83910704710B590F83A102229D3
:1042500001D0022010BD8168B1F5805F11D00169E5
:1042600019B30168496801F07F03816A4A1C8262C0
:104270000B70C18D491E0904090CC1851CD000209A
:1042800010BD816A02693AB102685268D2B20A80EE
:10429000816A491C8162ECE702685268C2F3080235
:1042A0000A80816A891C8162E3E701684A68816A41
:1042B0004B1C83620A70DCE70168CA6822F02002A6
:1042C000CA600168CA6822F48072CA6001684A69DB
:1042D00022F001024A61202180F83A10FEF750F9DD
:1042E000002010BD2DE9F041044620680169E26814
:1042F00021F4405111430161A168206901436069C3
:1043000001432068C26841F20C639A430A43C260C9
:1043100020684169A26921F4407111434161354926
:10432000206864253226884232D1FDF759FD00EB22
:10433000C00101EB001061686FF018078900B0FB45
:10434000F1F2B2FBF5F2B0FBF1F37A4303EB820238
:10435000B0FBF1F306EB0212B2FBF5F2B3FBF5F39F
:1043600002F0F00202EB0312B0FBF1F3B0FBF1F04C
:10437000B0FBF5F0784303EB800006EB0010B0FBD8
:10438000F5F0216800F00F0010448860BDE8F0816E
:10439000FDF716FD00EBC00101EB001061686FF046
:1043A00018078900B0FBF1F2B2FBF5F2B0FBF1F3B4
:1043B0007A4303EB8202B0FBF1F306EB0212B2FB8D
:1043C000F5F2B3FBF5F302F0F00202EB0312B0FBDF
:1043D000F1F3B0FBF1F0B0FBF5F0784303EB8000B4
:1043E00006EB0010B0FBF5F0216800F00F00104460
:1043F0008860CBE70038014090F83910212901D0BE
:10440000022070478168B1F5805F0CD0016A4A1CB8
:104410000262026809785160C18C491E0904090CC6
:10442000C18410D019E0016A02680988C1F308014B
:104430005160016919B1016A491C0162ECE7016A26
:10444000891C0162E8E70168CA6822F08002CA603C
:104450000068C16841F04001C16000207047000061
:1044600008B50F4800680168C943C90612D401683D
:1044700041680091016840680948FDF78FFE0948CE
:104480000068406808490978081A0849087008490E
:1044900001200870BDE808400148FDF7ADBE0000EE
:1044A000E81C0020AC1D0020170000201500002093
:1044B0001600002008B50F4800680168C943C90606
:1044C00012D4016841680091016840680948FDF70D
:1044D00065FE09480068406808490978081A0849D3
:1044E0000870084901200870BDE808400148FDF740
:1044F00083BE0000281D0020F01D002017000020B2
:10450000150000201600002070B5074E074C47F636
:10451000FF7505E0258001F00F01304603F046FCF1
:1045200021880804F6D470BDF0340020445C0040BB
:104530002DE9F0411F4F204D47F6FF7605E02E8014
:1045400004F00F01384603F031FC2C882004F6D427
:10455000DFF8688060054FF000060BD54FF6FF309E
:10456000288008F104000680384603F0D9FE802038
:10457000A8F80000200511D54FF2FF702880B8F888
:104580000000400607D0A8F800600B48001F018813
:1045900021F400610180384603F0F0FAE00405D50B
:1045A0004EF6FF702880384603F0DCFA2E80BDE816
:1045B000F0810000F0340020445C00404C5C00407E
:1045C000FEE7000070B5040300F042F900F0E8F8DF
:1045D0000F4E4FF48055002229463046FDF7A6FBCA
:1045E0002020FFF7F5F8C4F30740FFF7F1F8C4F314
:1045F0000720FFF7EDF8E0B2FFF7EAF801222946BD
:104600003046FDF793FBBDE8704000F0C9B80000EC
:10461000000C0140F0B585B000240194029403948D
:104620000494FEF7FFFD2048C16941F48041C16157
:10463000C16901F480410091816941F00801816103
:10464000806900F0080000904FF48055019501202A
:104650000290039403260496144F01A93846FDF7EF
:104660005FFA012229463846FDF760FB4FF42041EE
:10467000019102200290049601A93846FDF750FAF4
:10468000A80001900294039401A93846FDF748FA66
:1046900000F040F806494880FF2802D0002005B00D
:1046A000F0BD0120FBE7000000100240000C0140BB
:1046B000180000202DE9F04105460C461646DFF8AB
:1046C00050804FF48057002239464046FDF72EFBBC
:1046D0000320FFF77DF8C4F30740FFF779F8C4F330
:1046E0000720FFF775F8E0B2FFF772F8002405E045
:1046F000FF20FFF76DF82855641CA4B2B442F7D32D
:1047000039464046BDE8F0410122FDF70FBB0000ED
:10471000000C01402DE9F0410024134F4FF4805666
:10472000002231463846FDF701FB9020FFF750F894
:104730000020FFF74DF80020FFF74AF80020FFF7B0
:1047400047F8FF20FFF744F844EA0025FF20FFF771
:104750003FF840EA0504012231463846FDF7E6FA03
:104760002046BDE8F0810000000C014070B50B4D03
:104770004FF48054002221462846FDF7D7FA052041
:10478000FFF726F8FF20FFF723F80646012221460F
:104790002846FDF7CBFA304670BD0000000C014002
:1047A00010B5FFF7E3FFC007FBD110BD2DE9F05FA7
:1047B00080468A461546DFF894904FEA1A37CAF3C6
:1047C0000B06C6F58054A54233D82C4631E031188B
:1047D00019F80110FF2903D1401C80B2A042F6D382
:1047E000A04214D23846FFF7EDFE002006E0821901
:1047F00018F8001009F80210401C80B2A042F6D34D
:1048000059464FF48052484600F038F804E02246FA
:104810005146404600F032F8A54214D07F1C0026D5
:10482000A044A244281B85B24FF48054A54200D86E
:104830002C464FEA073B4FF4805259464846FFF753
:1048400039FF0020CAE7BDE8F09F0000B01F00203C
:1048500070B5094D4FF48054002221462846FDF7DB
:1048600065FA0620FEF7B4FF21462846BDE87040F1
:104870000122FDF75BBA0000000C01402DE9F04178
:1048800007460E461546F0B2C0F58074A54200D822
:104890002C464FF4807807E027442644281B85B235
:1048A0004446A54200D82C4622463146384600F000
:1048B00005F8A542F0D1BDE8F08100002DE9F041F6
:1048C00005460C461646FFF7C3FFDFF850804FF44D
:1048D0008057002239464046FDF728FA0220FEF7AD
:1048E00077FFC4F30740FEF773FFC4F30720FEF71A
:1048F0006FFFE0B2FEF76CFF002404E0285DFEF7D6
:1049000067FF641CA4B2B442F8D301223946404682
:10491000FDF70CFABDE8F041FFF742BF000C014083
:104920000907090E002804DB00F1E02080F80014DC
:10493000704700F00F0000F1E02080F8141D704770
:1049400002E008C8121F08C1002AFAD17047704758
:10495000002001E001C1121F002AFBD1704710B5F1
:104960004B78042B37DD202B06D0212B17D0222BA0
:1049700028D0232B2FD12AE011785378D47841EA1C
:10498000032193781B0443EA0463194340F82C1F66
:104990001179017151794171917981711BE010F8A0
:1049A0002C1F11700188090A51700168090C91705F
:1049B0000168090ED17001791171417951718079C5
:1049C000907108E0026A32B14988904703E0426A78
:1049D0000AB149889047002010BD38B50446626886
:1049E000A08C116881420CD9516851F820500C32CA
:1049F00004F120012846FFF7B2FFE96909B1284612
:104A0000884700200346024601460090204603F0F6
:104A1000EFFC38BD704700000148826001207047FC
:104A20008C11002010B5417A006803F0B1FD002020
:104A300010BD000070B504460020E070401EE0622A
:104A4000204601F0DDFE08B1042070BD04F22E20E6
:104A500001F082FB054694F830004AF65526EB2813
:104A600003D0E92801D0E82830D1B54206D1082288
:104A700019A104F1820001F085FDC8B104F13B00E9
:104A800001F06AFB411E084220D14FF400718842B8
:104A90001CD388421AD894F83D00B8B1411E084290
:104AA00014D194F84000012804D0022802D00DE06F
:104AB000002070BD04F1410001F04EFB30B104F163
:104AC000460001F049FB08B1002070BDB54201D19C
:104AD000022070BD032070BD464154333220202097
:104AE0000000000000E0401C02780AB18A42FAD1BE
:104AF00000787047891E4269921E8A4201D80020C0
:104B00007047826A408900FB0120704770B50C46EF
:104B1000DDE9045116461A46258122608D4200D9EE
:104B20000D462B46314603F0D9FB608A401C60825B
:104B30002068284420602089401B2081E58170BDC9
:104B40002DE9F04180460F46D8F80050002F08D0DC
:104B50003946404601F032F9022809D20120BDE869
:104B6000F081EE6816B16869B04207D8012605E009
:104B7000411CF4D069698142F1D83E462869D0B120
:104B80000024BE4215D1741C6869A04200D80224DA
:104B90002146404601F012F90128E0D0411CDED048
:104BA00038B1E868022803D36969814200D9064612
:104BB000002414B118E00020D1E73446641C686971
:104BC000A04204D80224022E01D20020C7E72146C9
:104BD000404601F0F3F838B10128C0D0411CBED0E6
:104BE000B442EBD10020BAE74FF0FF3632462146FF
:104BF000284602F0CBF928B927B122463946284683
:104C000002F0C4F920B101280FD001242046A6E704
:104C1000EC60D5E90401891E884201D8401E286154
:104C2000287940F001002871F0E73446EEE70000F3
:104C30002DE9F05F8B46DBF8009000F120070B2296
:104C40002021384601F0B3FC00252E464FF008081D
:104C50003046761C19F80040202C16D92F2C0ED087
:104C60005C2C0CD02E2C01D045451BD3B8F10B0F7A
:104C700001D02E2C12D00620BDE8F09F761C19F82A
:104C800006002F28FAD05C28F8D009EB0600CBF8F4
:104C9000000085B33878E52830D031E008254FF0A2
:104CA0000B08D5E7204600F0D6F898B13046761CC0
:104CB00019F800A0504600F0DBF818B1A8F1010087
:104CC000854201D30620D7E7681C7C55451C07F8B0
:104CD00000A0BDE721460EA0FFF704FF08B10620A3
:104CE000CAE7A4F16100192801D8203CE4B22846A3
:104CF0006D1C3C54ACE7FFE70620BDE7052038708B
:104D0000202C01D8042000E00020F8720020B3E736
:104D1000222A2B2C3A3B3C3D3E3F5B5D7C7F0000D2
:104D20002DE9FF4F81B09B466A460121019800F0B2
:104D30004FFA18B1012005B0BDE8F08FDDF8009002
:104D40004FF03F080826F10101E07006060E2EB173
:104D500006FB08F0B9FBF0F08842F6D806B9FF264A
:104D60004FF400720021584601F021FC0BF5DF746E
:104D70004FF0000A454657E0029850F82A70642F19
:104D800008D801D14F4605E04FF06400B9FBF0F0C0
:104D900007FB00F705EB0700484501D8A84201D200
:104DA000A9EB0507F7B3294604F1080002F0BBF9A7
:104DB000394604F10C0002F0B6F90398207108FBA3
:104DC00006F00246B5FBF0F0B5FBF8F1B1FBF6F3E7
:104DD00006FB1311B5FBF8F308FB13535B1C617062
:104DE000C02101EA900C4CEA030C84F802C0E07088
:104DF0003D442B466D1EB5FBF2F0B5FBF8F2B2FB5D
:104E0000F6F706FB1727B5FBF8F208FB1252521C07
:104E1000677101EA90011143A171E07110340AF148
:104E2000010A00E006E01D46BAF1040F02D20DB1FE
:104E30004D45A1D34AF655210BF5FF7002F07BF9E1
:104E4000012300225946019800F004FA08B101201C
:104E500071E700206FE7812808D39F2801D801203F
:104E60007047E0381C2801D80120704700207047A7
:104E7000402808D37E2801D80120704780387C283C
:104E800001D80120704700207047000006494FF408
:104E90007A620968B1FBF2F14143002001E000BFF2
:104EA000401C8842FBD37047981100202DE9F04147
:104EB00005460E462F680021284600F035F988B9CE
:104EC00000243846A96901F09BFC58B9E9690A78C1
:104ED000E52A0CD05AB100240121284600F064F8DC
:104EE0000028EED0042800D10720BDE8F081641C22
:104EF000B442F7D0F0E72DE9F04105460C462846CC
:104F000002F050FD10B10120BDE8F0812146284695
:104F1000FFF7F0FD0746EF6205F130004FF4007235
:104F20000021804601F043FB0126002400E03444C8
:104F30006889A04207D9F3B23A196878414600F06F
:104F400089F90028F3D06889A04201D00120DBE76D
:104F50000020D9E770B5044626680021204600F0FD
:104F6000E3F800281DD13046A16901F049FC05464F
:104F7000B5B9E0690178A9B1C17A01F03F01A17129
:104F8000C17A090705D40B2204F1200101F0FAFAD5
:104F900030B10021204600F007F80546002DE2D090
:104FA000284670BD0425FBE72DE9F04704468946F5
:104FB0002768266920364FF00008B6F5001F01D398
:104FC000C4F81880A06910B1F10503D047E00420AF
:104FD000BDE8F087401CA061616929B17889401E55
:104FE00010EA562F08D03AE03889B0EB561F36D871
:104FF000C4F818800420EBE7204600F0DFFE0546E9
:10500000012D01D80220E3E7681C16D07869A84278
:105010001FD8B9F1000F12D020466169FFF790FD4B
:10502000054685B1012D10D0681C10D029463846A0
:10503000FFF761FF68B10120CAE70120C8E7C4F8A3
:1050400018800420C4E70720C2E70220C0E701203F
:10505000BEE7656129463846FFF74CFDA061266131
:10506000C6F3080038443030E0610020B0E770B586
:1050700004460D460420266821E0304601F0C0FBBE
:1050800000BBE2691178B1B1D27A02F03F02A2719D
:10509000E5290AD02E2908D00F2A06D022F02001B7
:1050A00008290AD00021A9420CD000212046FFF790
:1050B0007BFF20B106E0042004E00121F3E7A169B1
:1050C0000029DAD1002801D00021A16170BD70B59E
:1050D0000446266801212046FFF7E8FE054695B9FB
:1050E0003046A16901F08CFB054665B920220021FC
:1050F000E06901F05CFA0B2204F12001E06901F0A3
:105100004DFA0120F070284670BD70B50446256840
:10511000A169284601F074FB002804D1E269E52169
:1051200011700121E97070BD2DE9F04106460D4670
:105130003768B5F5001F01D2E80602D00220BDE8AD
:10514000F0813561B4681CB93878032800D37C6AD3
:105150001CB178894FEA40281AE03889B0EB551F16
:1051600001D80220EBE7786AB06118E021463046AA
:1051700000F024FE0446601C06D0022C02D378699D
:10518000A04203D80220DAE70120D8E7A5EB080502
:105190004545EBD221463846FFF7ACFCB06174615F
:1051A000B06948B100EB5520B061C5F30800384440
:1051B0003030F0610020C2E70220C0E7002803D0B1
:1051C000012803D001207047FFF724BA012070475F
:1051D000002803D0012812D0042070474FF48050DB
:1051E000012904D0022904D0032906D103E010606C
:1051F00003E0108001E001201060002070470020D3
:1052000070472DE9F0410E4615461C46002804D093
:10521000012813D00420BDE8F0814FF4007709E0A5
:1052200069023A463046FFF745FA6D1C06F50076EE
:10523000641EE4B2002CF3D10020ECE70020EAE782
:10524000002803D0012803D00120704700207047B8
:10525000084670472DE9F0410E4615461C460028C9
:1052600004D0012813D00420BDE8F0814FF400776A
:1052700009E069023A463046FFF798FA6D1C06F5D8
:105280000076641EE4B2002CF3D10020ECE700208D
:10529000EAE700002DE9FF4F8DB00C461546984611
:1052A0000DA800F025FE002803DA0B2011B0BDE8A0
:1052B000F08FFE49002651F8201001B10E70C0B2E7
:1052C0000B9004B9FA4C0B98FFF778FFC10701D097
:1052D0000320EBE7400701D50A20E7E76068099063
:1052E000012730B909AA03210B98FFF771FF00B11C
:1052F000099709984FF4004120B1884202D8421E14
:10530000104200D009974FF4007A207800F00F0087
:105310000C906078421E012A00D901200290A068FA
:10532000421E8A4205D21021B0FBF1F201FB1201AC
:1053300001B150460190E068B0F1807F02D8411E73
:10534000084200D00020B0FBFAF7B8FBFAF00A9050
:105350000A9858B165B100200790069007AA01216C
:105360000B98FFF735FF28B101209FE711209DE73B
:1053700011209BE70C98000706D407983F2803D913
:105380003F2106913F3807900799802901D20E20CE
:105390008CE7802F00D980270C98800702D50C98C5
:1053A000C0070AD00C98C00709D0022640F6F57352
:1053B0003C46032E05D04CB338E00326F6E7132015
:1053C00074E77CB94FEA514800200124DFF8E0C2BD
:1053D000ACF10E0C01E0401C64003CF810200AB156
:1053E0004245F8D9B1FBF4F00AEB8002D21DB2FBC2
:1053F000FAF94FF02008002203924FF6F57290421E
:1054000002D9AC4A90422BD90E204FE74FEA11380F
:1054100000200124DFF898C2ACF11C0C01E0401C14
:1054200064003CF810200AB14245F8D9B1FBF4F011
:10543000984203D9042202EB400006E0012600EB6B
:105440004000401C032202EB50005044401EB0FBC1
:10545000FAF94FF0010801984001B0FBFAF003900F
:10546000069800EB080B03980BEB0002029809FB6F
:105470000022099802EB000CACF1010C401E2CEA52
:10548000000CACEB0200032E1AD0DDF808C0B0FB14
:10549000FCFE0CFB1E0CBCF1000F04D0401E08F1FA
:1054A00001080BF1010BDDF808C0B0FBFCF08144F2
:1054B000069802EB0412101A884204D90E20F5E671
:1054C00080448344F4E70298A1EB080209FB102210
:1054D0000398101AB0FBF4F00890032E0AD1089834
:1054E0004FF6F572904205D817B967087FF460AFA0
:1054F0000E20DBE6022E1FD108984FF6F57290427F
:1055000011D92FB94020B0EB440F01D367004FE70A
:105510000C98800701D503264AE717B96700802F4A
:10552000F5D90E20C2E60898984205D817B9670049
:10553000802FECD90E20B9E6012E04D108989842AC
:1055400001D90E20B2E652460021284601F02FF87C
:105550000B2259A1284601F021F8514605F10B0014
:1055600001F0E9FD6C731FFA88F105F10E0001F0FE
:10557000E2FD02982874032E0FD0019881B205F144
:10558000110001F0D8FD0799B1F5803F07D289B22B
:1055900005F1130001F0CFFD05E00020EEE705F175
:1055A000200001F0C0FDF82068753F2105F11800CA
:1055B00001F0C1FDFF2105F11A0001F0BCFD05F16C
:1055C0001C00069901F0AFFD80273E494FF02908E5
:1055D000032E24D005F1270001F0A5FD1FFA89F163
:1055E00005F1160001F0A7FD85F8247085F82680E6
:1055F000132235A105F12B0000F0D0FF4AF6552704
:1056000005F5FF703946804601F095FD01232946D6
:10561000069A0B98FFF71EFE20B3012046E605F11F
:10562000430001F080FD494605F1240001F07BFDB7
:10563000022105F12C0001F076FD012105F1300079
:1056400001F079FD062105F1320001F074FD85F8C5
:10565000407085F84280132220A105F1470000F038
:105660009DFFCBE7032E58D1069A0123921D2946B0
:105670000B98FFF7EFFD52460021284600F097FFF8
:105680001B49284601F04FFD1A4905F5F27001F05B
:105690004AFD089905F5F470491E01F044FD022108
:1056A00005F5F67001F03FFD394625E0AC1100200C
:1056B00094970008F5FFFF0FEBFE904D53444F53B6
:1056C000352E30000000384B4E4F204E414D4520C6
:1056D0002020204641542020202020004E4F204EE4
:1056E000414D4520202020464154333220202000C7
:1056F0005252614172724161404601F01CFD069AAE
:105700000123D21D29460B98FFF7A4FD069A012319
:10571000521C29460B98FFF79DFD0A9A002102FBB7
:105720000AF2284600F043FF002000903AE0032EE2
:105730000DD0012E1CD06FF00701284601F0F3FCBC
:105740004F460A98874215D9DDF8288013E06FF09C
:105750000701284601F0E7FC4FF0FF31281D01F05A
:10576000E2FC6FF0704105F1080001F0DCFCE7E7B6
:105770002D49E2E7B84608F0FF035A4629460B9840
:10578000FFF768FD08B1012090E552460021284648
:1057900000F00DFFC344A7EB0807002FD1D10098FC
:1057A000401C0090029900988842C0D3032E00D07C
:1057B000039C0A98844201D90A9F00E02746FBB265
:1057C0005A4629460B98FFF745FD08B101206DE5C3
:1057D000BB44E41B002CECD1032E05D00798B0F598
:1057E000803F03D3062204E00C2202E0022E16D0F2
:1057F00001220C9800070AD4079804900020059015
:105800002B4604A90B98FFF78BFA0028BCD1002285
:1058100011460B98FFF7DCFC18B1012046E5042285
:10582000E7E7002042E50000F8FFFF0017B581B070
:10583000144602980090684600F05AFB002802DAED
:105840000B2004B010BD0A4B53F82010002201B108
:105850000A70019901B10A7043F820102CB100229E
:1058600001A902A800F0AAFEEBE70020E9E700008A
:10587000AC1100202DE9F7438CB00546002D0BD06C
:1058800002F03F06324669460DA800F097FE044636
:105890004FF0000824B1BBE009200FB0BDE8F08351
:1058A0000098019001A80D9900F04BFA04462000E1
:1058B00004D19DF82F00000600D5062416F01C0F19
:1058C00044D044B1042C03D101A8FFF700FC0446E6
:1058D00046F0080609E09DF80A0010F0110F01D00B
:1058E000072402E0700700D5082474BB300739D5BF
:1058F0000899009800F012FC0746089848490E30B5
:1059000001F011FC08992020C87200220899009823
:1059100001F0F5FB089800211C3001F004FC009810
:105920000121C1708FB1D0F82C900022394601A816
:1059300001F0A9FB0446200014D14946009800F06C
:105940005FFF044600987F1EC7600BE054B99DF8C6
:105950000A00C10601D5042404E0B10702D5C0073E
:1059600000D0072444B9300701D546F0400600981E
:10597000C06A286208986862F4BB0899009800F031
:10598000CDFBA86008981C3000F0DBFBE8600098B5
:1059900028600098C088A8802E7485F81180C5F80A
:1059A0001C80C5F8148005F128004FF40072002116
:1059B000814600F0FCFDB0062AD5EE68E6B16E61C6
:1059C000009840894702A9680AE0284600F0F6F9E5
:1059D0000146012900D80224481C00D10124F61BED
:1059E0000CB9BE42F1D8A96134B9F00510D00098C5
:1059F000FFF780F888B100E00AE000EB5622EA6188
:105A00000098012349464078FFF7FBFB00B10124D1
:105A10000CB1C5F8008020463FE70224F8E70000FB
:105A20000000384B33B581B00546002D07D0002269
:105A3000694602A800F0C2FD044614B123E0092023
:105A40003EBD009828602846029900F07AF9044685
:105A5000B4B995F82B00000609D4A879C00605D57D
:105A6000E969009800F05AFBA86000E005243CB901
:105A70000098C088A88000212846FFF755FB0446FF
:105A8000042C00D105240CB10020286020463EBD26
:105A90002DE9FC5F04460F46164698460020C8F8DC
:105AA00000006946204602F0A7FE002812D1607C63
:105AB00000280FD1207CC0070BD06169E068401A34
:105AC000864200D9064604F128004FF001090190F2
:105AD0008BE00720BDE8FC9F6069C1056DD100998E
