:020000040800F2
:100000009827002045010008DB0E00089B0C000823
:10001000D90E00082B02000891160008000000000D
:10002000000000000000000000000000C3130008F2
:10003000CD02000800000000E5120008711400085D
:100040005F0100085F0100085F0100085F01000810
:100050005F0100085F0100085F0100085F01000800
:100060005F0100085F0100085F0100085F010008F0
:100070009D020008A90200085F0100085F01000856
:10008000B5020008C10200085F010008D915000888
:10009000011600085F0100085F0100085F01000809
:1000A0005F0100085F0100085F0100085F010008B0
:1000B0005F0100085F0100085F0100085F010008A0
:1000C0005F0100085F0100085F0100085F01000890
:1000D0005F0100085F0100085F0100085F01000880
:1000E0005F0100085F0100085F0100085F01000870
:1000F0005F0100085F0100085F0100085F01000860
:100100005F0100085F0100085F0100085F0100084F
:100110005F0100085F0100085F0100085F0100083F
:100120005F0100085F0100085F0100085F0100082F
:10013000DFF80CD000F03CF800480047451A0008F2
:10014000982700200648804706480047FEE7FEE75C
:10015000FEE7FEE7FEE7FEE7FEE7FEE7FEE7FEE777
:10016000751400083101000840EA01039B0703D021
:1001700009E008C9121F08C0042AFAD203E011F8E6
:10018000013B00F8013B521EF9D27047D2B201E0A8
:1001900000F8012B491EFBD270470022F6E710B58C
:1001A00013460A4604461946FFF7F0FF204610BDE5
:1001B000064C074D06E0E06840F0010394E80700B4
:1001C00098471034AC42F6D3FFF7B6FFAC310008C5
:1001D000CC31000870B58C1810F8015B15F00703DE
:1001E00001D110F8013B2A1106D110F8012B03E0D0
:1001F00010F8016B01F8016B5B1EF9D12B0705D4D8
:100200000023521E0DD401F8013BFAE710F8013B20
:10021000CB1A921C03E013F8015B01F8015B521E3C
:10022000F9D5A142D8D3002070BDFEE710B500F08B
:1002300079FD00F033FD00F0E7FDBDE8104000F06F
:1002400009BE000008B51348002101704170222248
:100250004260017264224281818101610122027542
:10026000417581750C48816941F00801816181699E
:1002700001F008010091816941F0100181618069FC
:1002800000F01000009000F0ADFFBDE8084000F065
:10029000EFBF00006415002000100240014800F08C
:1002A00029B80000DC140020014800F023B8000049
:1002B00098140020014800F01DB8000060130020D1
:1002C000014800F017B80000A4130020704700BFD9
:1002D00000BF0A228221FE20401E10F0FF00FBD149
:1002E000491E11F0FF01F7D1521E12F0FF02F3D1A7
:1002F000704700002DE9F05FC16B0A6801680B6868
:10030000046C4FF0040A0AFA04FA4E4D4E4E4F4F59
:10031000DFF83CC1DFF83C81DFF83C911AEA020FBC
:1003200031D05FEA437A2ED50A68920603D40A6870
:1003300022F004020A600168A94201D1042119E0F7
:10034000B14201D1402115E0B94202D14FF48061A0
:1003500010E0614502D14FF480410BE0414502D1EC
:100360004FF4802106E0494502D14FF4800101E0BD
:100370004FF08061334A083A5160C16A00295FD06A
:10038000BDE8F05F08474FF0020E0EFA04FE1EEAC9
:10039000020F4FF0000A4FF0010B35D05FEA837E69
:1003A00032D50A68920605D40A6822F00A020A6069
:1003B00080F821B00168A94201D1022119E0B142BF
:1003C00001D1202115E0B94202D14FF4007110E0B3
:1003D000614502D14FF400510BE0414502D14FF489
:1003E000003106E0494502D14FF4001101E04FF021
:1003F0000071144A083A516080F820A0816A0029EF
:100400001ED0BDE8F05F08470825A540154217D06B
:100410001A0715D50A6822F00E020A6090F84010FB
:10042000C26B0BFA01F15160C0F838B080F821B00E
:1004300080F820A0016B002902D0BDE8F05F0847DA
:10044000BDE8F09F080002401C000240300002405E
:1004500044000240580002406C00024030B50028C1
:1004600027D0001D144A50F8041C14230A44B2FB80
:10047000F3F29200C263114A8263022242770A6851
:1004800043F6F0739A43D0E900342343D0E90245A0
:100490002C4323430469234344692343846923434E
:1004A00013430B6000214163012242770177002052
:1004B00030BD012030BD0000F8FFFDBF000002404C
:1004C0002DE9F84F00240023DFF8C4914FF00F0806
:1004D00009F1040A0AF1040B0BF1040ED1E0012723
:1004E000A7403A40BA4275D1DFF8A8C14D68A5EBE4
:1004F0000C0665452BD00DDC032D34D005DC35B35F
:10050000012D19D0022D2FD11BE0112D16D0122D47
:100510002AD119E0B6F5881F19D006DCB6F5803F60
:1005200015D0B6F5801F1FD111E0B6F5001F0ED013
:10053000B6F5041F18D10AE0CB6815E0CB681B1D87
:1005400012E0CB6808330FE0CB680C330CE08B680B
:1005500023B1012B04D00823476105E0042303E005
:100560000823076100E00023FF2A01D8054601E0C7
:1005700000F1040502D84FEA840603E0A4F108065E
:100580004FEA86062F6808FA06FC27EA0C0703FAEA
:1005900006F647EA06072F604D68ED0070D53E4D20
:1005A000AE6946F00106AE61AD6905F00105009542
:1005B0003A4D24F003067719BE68A5072D0F08FAF7
:1005C00005FC26EA0C06DFF8D8C0604503D14FF0E1
:1005D000000C17E054E0DFF8CCC0604502D14FF0CA
:1005E000010C0FE0DFF8C0C0604502D14FF0020CF3
:1005F00008E0DFF8B8C0604502D14FF0030C01E01D
:100600004FF0040C0CFA05FC4CEA060CC7F808C0C5
:100610004D68ED0305D5D9F800501543C9F80050D1
:1006200004E0D9F800509543C9F800504D68AD0377
:1006300005D5DAF800501543CAF8005004E0DAF89E
:1006400000509543CAF800504D68ED0205D5DBF81F
:1006500000501543CBF8005004E0DBF80050954300
:10066000CBF800504D68AD0205D5DEF800501543BB
:10067000CEF8005004E0DEF800509543CEF800506C
:10068000641C0A6832FA04F57FF429AFBDE8F88FDC
:100690000004014000001110001002400000014061
:1006A00000080140000C014000100140001401400E
:1006B000002A01D001617047090401617047000000
:1006C00001488068704700008C1100200248816852
:1006D00002781144816070478C110020002809DBEA
:1006E00000F01F02012191404009800000F1E0204C
:1006F000C0F8001170470000F0B40D460D4B1B68A8
:10070000C3F30223C3F10704042C00D90424191DE8
:10071000072901D2002300E0DB1E012606FA04F1BE
:10072000491E294099409E40761E16403143F0BC38
:1007300000F0AFBF0CED00E001480068704700001A
:100740008811002000B5FFF7F7FF04494968044A03
:10075000C1F30221515CC84000BD000000100240FE
:10076000A431000800B5FFF7E7FF04494968044ACF
:10077000C1F3C221515CC84000BD0000001002401E
:10078000A431000870B50446002C05D00025A562F0
:1007900094F8510010B106E0012070BD84F850506B
:1007A000204600F02FF8022084F8510020680168EC
:1007B00021F040010160D4E901010843D4E90312AA
:1007C0001143084361690843218B01F40071084318
:1007D000E1690843216A0843A16A08432168086067
:1007E000A069042101EA1040216848602068C169BD
:1007F00021F40061C1616565012084F85100002089
:1008000070BD0000F0B585B0064600240194029446
:1008100003940494384D3168384802220323A942D6
:1008200043D1816941F480518161816901F4805132
:100830000091816941F004018161806900F0040048
:100840000090A0200190029204932D4D01A928460A
:10085000FFF736FE402001900294039401A9284638
:10086000FFF72EFE284D2748286010206860AC60F6
:100870008027EF602C616C61AC61EC612846FFF76A
:10088000EDFDB5646E621F481438443528606C6015
:10089000AC60EF602C616C61AC61EC612846FFF7E5
:1008A000DDFDF5646E6205B0F0BD184DA942FAD1C8
:1008B000C16941F48041C161C16901F48041009185
:1008C000816941F008018161806900F008000090B1
:1008D0004FF420400190029204930D4D01A9284647
:1008E000FFF7EEFD4FF4804101910294039401A9BA
:1008F0002846FFF7E5FDD6E7003001400010024032
:1009000000080140300002409814002000380040E8
:10091000000C01402DE9F84F04460A9E8A46934692
:100920001F4601254FF0000894F8500001280ED012
:10093000012084F85000FFF7C3FE814694F851006F
:10094000616801280DD0B1F5827F07D102E0022055
:10095000BDE8F88FA16809B9042802D04FF0020859
:10096000C3E0BAF1000F28D0BBF1000F25D038004A
:1009700023D094F85100042802D0052084F85100B7
:1009800000206065C4F838B0E787A787C4F830A0B6
:10099000E786A7862064606420680168490603D45E
:1009A000016841F040010160E068B0F5006F07D0D8
:1009B0006068E8B3012F48D07DE04FF0010894E073
:1009C000606808B1012F39D1206B21680088C860A8
:1009D000206B801C2063E08E401EE0862EE02068A5
:1009E000816889070DD5E18E59B1012D09D1216B9F
:1009F0000988C160206B801C2063E08E401EE08669
:100A0000002520688168C9070BD0E18F49B1C06813
:100A1000A16B0880A06B801CA063E08F401EE08764
:100A20000125FFF74DFEA0EB0900B04206D300E020
:100A30000BE0701C02D04FF0030856E0E08E002857
:100A4000CDD1E08F0028CAD13BE0206B216800782F
:100A50000873206B401C2063E08E401EE0862AE075
:100A60002068816889070DD5E18E59B1012D09D122
:100A7000216B09780173206B401C2063E08E401EBF
:100A8000E086002520688168C9070BD0E18F49B155
:100A9000C068A16B0870A06B401CA063E08F401E73
:100AA000E0870125FFF70CFEA0EB0900B04201D35F
:100AB000701C11D186B1E08E0028D1D1E08F0028C2
:100AC000CED14A463146204600F00DFC38B14FF0F9
:100AD00001082020606508E04FF0030805E0A068E9
:100AE00018B92068C1688068009001205034607097
:100AF0000020207040462BE770B50446002C04D03F
:100B000094F83900002510B106E0012070BD84F88A
:100B10003850204600F022F8242084F8390020685C
:100B2000C16821F40051C160204600F0CBFC206870
:100B3000016921F4904101612068416921F02A0195
:100B400041612068C16841F40051C160E563202023
:100B500084F8390084F83A00002070BDF0B585B003
:100B6000064600240194029403940494374F31689C
:100B7000374802220323374DB94221D1816941F41C
:100B800080418161816901F480410091816941F076
:100B900004018161806900F004000090100201905E
:100BA0000292049301A92846FFF78AFC29150191B6
:100BB0000294039401A92846FFF782FC05B0F0BD1A
:100BC000254FB942FAD1C16941F40031C161C1690F
:100BD00001F400310091816941F004018161806973
:100BE00000F004000090042001900292049301A9F7
:100BF0002846FFF765FC082001900294039401A9A0
:100C00002846FFF75DFC164D144828606C60AC6008
:100C10008027EF602C616C61AC61EC612846FFF7C6
:100C20001DFC75636E620D48143044352860102039
:100C30006860AC60EF602C616C61AC61EC6128466F
:100C4000FFF70CFC35636E62B8E700000038014026
:100C50000010024000080140004400406C000240C7
:100C60006013002070B50A4601780125072909D0D4
:100C7000064C2178002904D101460548FFF774FA93
:100C8000257070BD0348057070BD00000100002094
:100C900098110020190000207047FEE708B51E4893
:100CA000416941F001014161406900F0010000909B
:100CB0001B481A4901604FF4804141604021816026
:100CC0008021C1600021016141618161C161FFF743
:100CD000C5FB002211460C20FFF70EFD0C20FFF78C
:100CE000FDFC002211460D20FFF706FD0D20FFF749
:100CF000F5FC002211461020FFF7FEFC1020FFF744
:100D0000EDFC002211461120FFF7F6FCBDE808407B
:100D10001120FFF7E3BC0000001002400800024071
:100D20009C1200202DE9F04F85B00024019402941C
:100D3000039404943048816941F010018161816914
:100D400001F010010091816941F020018161816908
:100D500001F020010091816941F004018161816904
:100D600001F004010091816941F00801816180690D
:100D700000F008000090DFF884904FF4C045002296
:100D800029464846FFF794FCDFF874A04FF48877B3
:100D9000002239465046FFF78BFCDFF868B041F679
:100DA0000448002241465846FFF782FC0195012580
:100DB000029503940226049601A94846FFF780FB9A
:100DC000019702950394049601A95046FFF778FB1A
:100DD000032001900294039401A95846FFF770FB89
:100DE000CDF8048002950394049601A95846FFF7B4
:100DF00067FB05B0BDE8F08F001002400010014015
:100E000000080140000C014010B510480E49016077
:100E10004FF48271416000218160C16001614161D4
:100E20004FF4007282610822C261016241628162F4
:100E30000A21C162FFF7A6FC054908B1022008702B
:100E40000120087010BD000000300140E8130020B0
:100E5000030000200B480A4901604FF48271416091
:100E600000218160C160016141614FF400728261C3
:100E7000C1610162416281620A21C162FFF782BCE5
:100E800000380040401400200848074901604FF432
:100E9000E131416000218160C16001610C22426149
:100EA0008161C161FFF728BE00380140E0120020D7
:100EB0000848074901604FF4E13141600021816039
:100EC000C16001610C2242618161C161FFF714BE02
:100ED0000044004020130020FEE7704710B50522B3
:100EE0000D49302000F040F90B4905220A3110204D
:100EF00000F0DCF80020084A02F10A01145C0B5CE7
:100F0000A34203D1401CC0B20528F7D3052801D065
:100F1000012010BD002010BD0A00002070B5072080
:100F200000F0E8F80446600614D5602000F0E2F80E
:100F3000024600260E4D212A07D20E49612000F0FC
:100F4000B5F801202870AE8004E02E70FF21E22069
:100F500000F02EF9E00605D5E00703D0FF21E120DF
:100F600000F026F92146BDE87040272000F020B9A6
:100F7000040000202015002009498888401C80B208
:100F800088800123012803D14A78521C4A708B7053
:100F9000B0F5FA7F02D38B80002088708878704784
:100FA000040000202DE9F04104460D463D4F4FF46A
:100FB0008076002231463846FFF77AFB05223A490F
:100FC0002A2000F0D1F838490522491F302000F0CE
:100FD000CBF80121212000F0EBF80121222000F0C4
:100FE000E7F81A21242000F0E3F82946252000F034
:100FF000DFF80F21262000F0DBF8012C24D0022C92
:101000002BD0032C32D00E21202000F0D1F8FF216C
:10101000E12000F0CDF8FF21E22000F0C9F85020D7
:1010200000F074F9732000F071F901213C2000F008
:10103000BFF806213D2000F0BBF831463846BDE838
:10104000F0410122FFF734BB4121312000F0B0F81C
:101050000F21202000F0ACF8EFE74121312000F013
:10106000A7F80E21202000F0A3F8E6E7FF21E120F9
:1010700000F09EF8FF21E22000F09AF80F212020D6
:1010800000F096F8502000F041F9732000F03EF98E
:1010900001213C2000F08CF806213D2000F088F86A
:1010A000CBE70000000801400F0000202DE9F041CF
:1010B00004460D461646DFF83880002210214046CF
:1010C000FFF7F6FA204600F021F90746002405E074
:1010D000002000F01BF92855641CE4B2B442F7D399
:1010E000012210214046FFF7E3FA3846BDE8F081BF
:1010F0000008014070B50546094C00221021204629
:10110000FFF7D6FA284600F001F9002000F0FEF8BB
:101110000546012210212046FFF7CAFA284670BD75
:10112000000801402DE9F04107460E460C4D4FF4F2
:101130008074002221462846FFF7BAFA05220949A1
:101140002A2000F011F832463946A02000F00CF8B1
:1011500021462846BDE8F0410122FFF7A9BA000068
:10116000000801400A0000202DE9F04104460D4628
:101170001646DFF83880002210214046FFF798FA23
:10118000204600F0C3F80746002404E0285D00F084
:10119000BDF8641CE4B2B442F8D3012210214046E9
:1011A000FFF786FA3846BDE8F081000000080140EC
:1011B00070B506460D460A4C002210212046FFF766
:1011C00077FA304600F0A2F80646284600F09EF86E
:1011D000012210212046FFF76BFA304670BD000057
:1011E000000801402DE9F04186B0002404941D4818
:1011F000816941F010018161806900F01000019067
:10120000194940F60160086040F201600290012631
:10121000039603250595DFF8508002A9A8F1100870
:101220004046FFF74DF9F00202901127039704960C
:10123000059502A94046FFF743F902200290039466
:101240000494059502A94046FFF73AF9700302900D
:1012500003970494059502A90448FFF731F906B0F5
:10126000BDE8F08100100240100C01400010014068
:101270002DE9FF410024029418494FF46060086092
:101280004FF4C06000900127019703250395DFF814
:101290004C806946A8F110084046FFF711F9F802A2
:1012A0000090112601960297039569464046FFF784
:1012B00007F940F6030000900194029403956946F3
:1012C0004046FFF7FDF878030090019602940395DD
:1012D00069460348FFF7F4F8BDE8FF81100C0140B0
:1012E00000100140704738B504460B4600920022BA
:1012F0008021204600F01CF828B1606D40F02000ED
:101300006065032038BD002038BD00003EB5019067
:10131000FF24012302AA01A904480094FFF7FAFA66
:1013200000B102949DF808003EBD0000E8130020C3
:101330002DE9F04104460E4617461D46DDF818809B
:1013400008E0681C06D0FFF7BBF9A0EB0800A84234
:101350000BD255B12068806836EA00002FD00020FB
:10136000B842EED10020BDE8F0812068416821F04C
:10137000E00141606068B0F5827F0BD1A068B0F5F4
:10138000004F02D0B0F5806F04D12068016821F0D1
:1013900040010160A06AB0F5005F09D120680168D2
:1013A00021F4005101602068016841F4005101609E
:1013B000012050346070002020700320D3E701200A
:1013C000CEE77047AFF300800CB500220192009287
:1013D0002548016841F480310160016801F4003161
:1013E00000910199491C019100990029F5D00168EB
:1013F000890302D50121009100E0009200990129A2
:1014000030D11A490A6842F010020A600A6822F0D4
:1014100007020A600A6842F004020A6041684160FB
:1014200041684160416841F480614160416821F454
:101430007C114160416841F4E8114160016841F06C
:101440008071016001688901FCD5416821F00301C8
:101450004160416841F0020141604168C1F381018E
:101460000229FAD10CBD0000001002400020024009
:10147000FFF72CB910B50F48016841F00101016078
:1014800041680D4A1140416001680C4A11400160F9
:10149000016821F480210160416821F4FE0141606E
:1014A0004FF41F018160FFF78DFF05494FF0006089
:1014B000086010BD001002400000FFF8FFFFF6FEBC
:1014C00008ED00E02DE9F041044620680169E2687A
:1014D00021F4405111430161A16820690143606911
:1014E00001432068C26841F20C639A430A43C26018
:1014F00020684169A26921F4407111434161354975
:10150000206864253226884232D1FFF72BF900EBA0
:10151000C00101EB001061686FF018078900B0FB93
:10152000F1F2B2FBF5F2B0FBF1F37A4303EB820286
:10153000B0FBF1F306EB0212B2FBF5F2B3FBF5F3ED
:1015400002F0F00202EB0312B0FBF1F3B0FBF1F09A
:10155000B0FBF5F0784303EB800006EB0010B0FB26
:10156000F5F0216800F00F0010448860BDE8F081BC
:10157000FFF7E8F800EBC00101EB001061686FF0C5
:1015800018078900B0FBF1F2B2FBF5F2B0FBF1F302
:101590007A4303EB8202B0FBF1F306EB0212B2FBDB
:1015A000F5F2B3FBF5F302F0F00202EB0312B0FB2D
:1015B000F1F3B0FBF1F0B0FBF5F0784303EB800002
:1015C00006EB0010B0FBF5F0216800F00F001044AE
:1015D0008860CBE70038014070B5074E074C47F6EE
:1015E000FF7505E0258001F00F01304600F044FF53
:1015F00021880804F6D470BDA4160020445C004085
:101600002DE9F0411F4F204D47F6FF7605E02E8073
:1016100004F00F01384600F02FFF2C882004F6D488
:10162000DFF8688060054FF000060BD54FF6FF30FD
:10163000288008F104000680384601F0D7F98020A0
:10164000A8F80000200511D54FF2FF702880B8F8E7
:101650000000400607D0A8F800600B48001F018872
:1016600021F400610180384600F0EEFDE00405D56C
:101670004EF6FF702880384600F0DAFD2E80BDE877
:10168000F0810000A4160020445C00404C5C004047
:10169000FEE70907090E002804DB00F1E02080F8CE
:1016A0000014704700F00F0000F1E02080F8141DD6
:1016B000704702E008C8121F08C1002AFAD170471B
:1016C0007047002001E001C1121F002AFBD17047C2
:1016D00010B54B78042B37DD202B06D0212B17D0EB
:1016E000222B28D0232B2FD12AE011785378D478BD
:1016F00041EA032193781B0443EA0463194340F849
:101700002C1F1179017151794171917981711BE01F
:1017100010F82C1F11700188090A51700168090C1A
:1017200091700168090ED17001791171417951717F
:101730008079907108E0026A32B14988904703E0ED
:10174000426A0AB149889047002010BD38B5044666
:101750006268A08C116881420CD9516851F8205000
:101760000C3204F120012846FFF7B2FFE96909B104
:10177000284688470020034602460146009020463E
:1017800001F09CF938BD7047014882600120704724
:101790007811002010B5417A006801F05FFA00204E
:1017A00010BD70B50C46DDE9045116461A46258178
:1017B00022608D4200D90D462B46314601F0F4F8E7
:1017C000608A401C60822068284420602089401B79
:1017D0002081E58170BD000070B5054601F000FC78
:1017E000084C216941F0020121616561206940F0E6
:1017F0004000206101F0F4FB206920F0020020612C
:1018000070BD00000020024004480169090603D5AC
:1018100003494160034941607047000000200240D5
:1018200023016745AB89EFCD2DE9F04105460F4611
:101830001446A00500D0FEE70C48016819B9012143
:101840000160FFF7E1FF4FF480660BE02846FFF7E9
:10185000C3FF32463946284601F0D4FBA4F5806424
:1018600005F58065B442F1D2BDE8F0818411002015
:1018700070B50446002004F580510D4691F85E10C5
:10188000002901D0216D11B1204600F0C9F90028CE
:1018900015DD4FF0010185F85E1094F834100A064A
:1018A00004F1580105D582B22046BDE8704000F031
:1018B00097BC82B22046BDE8704000F0A2B90FDAB2
:1018C00094F83400000605D5207A40F080012068A5
:1018D00001F0DCF92046BDE87040012100F070BC49
:1018E0002046BDE87040002100F06ABCF8B504460F
:1018F0006368A08C196881420DD9596851F820009D
:10190000C16841B1618CCAB2090A45691DB1E68C52
:101910000C330096A847002003460246014600907B
:10192000204601F0CBF8F8BD10B5114603484160E0
:101930000348FFF797F9012010BD0000781100203F
:101940003417002010B5417A006801F087F9FFF7DD
:10195000A3F9002010BD000070B50446344B19886F
:1019600047F27000014043F22002514048F28025C6
:10197000294319802F4968230B8028230B812225B6
:101980008B896FF3090365F38F238B81284D2D1D00
:101990002B8848F281060340534033432B80C823F1
:1019A0000B82A8230B8310258B8B6FF3090365F340
:1019B0008F238B831E4B08331D8848F282660540B7
:1019C000554035431D804FF494730B84E8230B85F9
:1019D00022258B8D6FF3090365F38F238B85144DBF
:1019E00010352B880340534048F2840003432B807A
:1019F0004FF4D470A1F840004FF4B470A1F848003F
:101A00002222B1F84C006FF3090062F38F20A1F895
:101A10004C00882104F10800FEF7BFFB0020A081E4
:101A20000548A0610548E0610548C4F88C0070BD18
:101A3000005C0040006000405D3100085831000843
:101A40006431000808B5002000F0CEFD04461B49B3
:101A5000204601F0CAF8204600F052FFFEF7E6FBF0
:101A6000FEF7F0FBFFF710FAFFF722FAFFF736FA5E
:101A70001349087018B933210420FFF793FA0026A0
:101A8000104C8027104DDFF844800EE001F0FCF987
:101A9000206838B1009783B2297A0D4A286801F08E
:101AA0000DF826600B4800F092FEFFF737FAFFF7BB
:101AB00063FAD8F800000028EAD0E7E70C1100200C
:101AC0000000002080110020580000207C11002020
:101AD000741700209800002070B515460498840201
:101AE0000448224600EB83212846FEF73DFB2046B2
:101AF00070BD00000060000810B511460298840215
:101B00000348224600EB8320FFF78EFE204610BDDF
:101B10000060000810B5044694F83400002805D190
:101B2000206B18B1617A206801F0B0F8207A40F09B
:101B30008001206801F0AAF804F128012046BDE8E0
:101B400010401F2200F05DB800F5805191F85E2032
:101B5000002A10D0012A07D0002281F85E201F221F
:101B600000F1280100F04DB8B1F85C10026D511A77
:101B70000165FFF77DBE704738B5044604F5805017
:101B8000002290F85E1000290BD0012929D080F89E
:101B90005E2004F128012046BDE838401F2200F0F5
:101BA00030B8124BA16A994203D1B0F858001F28EF
:101BB0000CD0009294F8351020230522204600F026
:101BC00062FA2046BDE83840FFF7A4BF0848A06489
:101BD000E06AE064206B20652046BDE83840FFF7EE
:101BE00047BE2046BDE83840FFF742BE555342434A
:101BF000555342534FF48060186028201060002035
:101C0000704770B504460D461346617A2A4620682F
:101C100001F019F8617A2068BDE8704001F01EB843
:101C200008B590F8371023294FD00FDC15293CD088
:101C300005DC31B3032928D0122917D129E01A294C
:101C400037D01B2929D01E2910D12AE02F294CD0AA
:101C500006DC25293DD028293FD02A2906D140E09D
:101C6000352946D0552928D05A292AD0002100915B
:101C700090F835102023052200F005FA4FF0FF30D0
:101C800008BDBDE8084000F0B9BABDE8084000F062
:101C9000D2B9BDE8084000F02FB8BDE8084000F018
:101CA000FAB9BDE8084000F016B9BDE8084000F0F8
:101CB000B1B8BDE8084000F0E7B8BDE8084000F062
:101CC0009DB8BDE8084000F0B1B8BDE8084000F09C
:101CD0007DB9BDE8084000F042B9BDE8084000F019
:101CE000FCB8BDE8084000F0EBB9BDE8084000F0E2
:101CF000E5B9002008BD00002DE9F04107464FF08E
:101D0000FF3407F1370607F1580024210546FEF796
:101D100044FA386A80B1D0F810C0BCF1000F0BD083
:101D200097F835102B4632463846E0470446002CDB
:101D300002DD2046BDE8F0817078C0071ED0B07883
:101D40006870B07820B180280AD0832812D110E0C2
:101D5000072400202871802068718320A87109E081
:101D60000E2419A0016869604168A9600089A881F2
:101D700000E00424200AA870EC701CE02C46607877
:101D800040F0800060700220A070E07820F00F002A
:101D9000801CE0701F2020710EA00168A1604068C7
:101DA000E06010220EA104F11000FEF7DDF911A091
:101DB0000068206224243079F17840EA01203C65F3
:101DC0008442B7DC2046B5E75455534231323334B0
:101DD000353600005465656E7955534200000000A9
:101DE0004D534320424F542044454D4F2020202046
:101DF00000000000312E30200000000008B5002156
:101E0000009190F835102023052200F03CF94FF0A6
:101E1000FF3008BD08B50021009190F8351020234F
:101E2000052200F030F94FF0FF3008BD2DE9F041F8
:101E3000054605F1370605F158040027AF65EF6543
:101E4000E07820F08000E070286A00280AD0C2689C
:101E500042B195F835102846904788B1E07820F0D7
:101E60008000E070A7710620E071307AF17940EAD5
:101E7000012008212965082800DB0820BDE8F08141
:101E8000E07840F08000ECE770B5054605F13706D4
:101E900005F158040020A865A07820F08000A0700B
:101EA000286A00280AD0C26842B195F83510284641
:101EB000904760B1A07820F08000A07003202070CF
:101EC000042028653079042800D9042070BDA0784A
:101ED00040F08000F1E7002070472DE9F843064606
:101EE00006F128053046006D002836DD2C46217DA0
:101EF000627C41EA0267A17CE27C090441EA02219A
:101F00000F43E17DA27DAB6841EA0221B3FBF1F111
:101F10004FF48054A04201D2024600E02246B2FBB8
:101F2000F1F292B2181AB4694FF0FF384CB1B0FB1D
:101F3000F1F00092C319697B06F158023046A047C0
:101F400000E04046002808DA00200090697B112359
:101F50000322304600F097F84046BDE8F8832DE9AB
:101F6000FC41054605F158040026266066606F694D
:101F7000002F20D095F835106B4601AA2846B847A7
:101F8000002818DB0198401E0190000E2070019877
:101F9000000C60700198000AA0700198E070009831
:101FA000010E2171010C6171010AA171E07108201B
:101FB0002865BDE8FC81009695F835103A23022289
:101FC000284600F060F84FF0FF30F2E72DE9FC41C1
:101FD000054605F15804002626606660A6606F6914
:101FE000002F1DD095F835106B4601AA2846B8473A
:101FF000002815DB0820E0700198010E2171010C0A
:102000006171010AA171E071022020720098010C37
:102010006172010AA172E0720C202865BDE8FC81A2
:10202000009695F835103A230222284600F02BF846
:102030004FF0FF30F2E770B5054605F137067078CE
:10204000C00702D04FF0FF3070BD05F158041221D7
:102050002046FEF7A2F8207820F07F007030207034
:102060000C20E07105F58055A07815F85F1F61F32D
:102070000300A07068782073A87860733079122804
:10208000E2D9122070BD009900F5805000F85F2F52
:1020900043708170704710B500F1370109790A0962
:1020A0000AD18A0708D5026A32B1536923B101F017
:1020B000010290F835109847002010BD00207047AD
:1020C0002DE9F84F054605F1280405F1480604F10D
:1020D0000F0005F580510B4691F85E1000274FF078
:1020E000FF394FF48058002904D001292AD04846EE
:1020F000BDE8F88F0120296A21B18A6812B1617B9D
:102100002846904760B1296A21B1CA6812B1617B43
:102110002846904768B1B0684045E9D34046E7E7B4
:102120000097617B3A2303222846FFF7ACFF48461D
:10213000DEE70097617B272307222846FFF7A3FFEE
:102140004846D5E74179827890F804C041EA0262B6
:10215000C178090441EA0C210A43017AC07941EAB5
:102160000020A168B1FBF0F0B3F85830B3FBF0F3F6
:102170001FFA83FAD5F81CC0BCF1000F0CD0B3686D
:10218000C91AB1FBF0F08318CDF800A0617B05F10E
:1021900058022846E04700E04846002808DA009741
:1021A0000323617B1A462846FFF76DFF48469FE7E9
:1021B000B168081AB06040459AD3404698E70000DD
:1021C000064A826480F8541041F25E0102220A54E9
:1021D0000D2200F1480100F003B8000055534253AE
:1021E00038B50C4641F25C010A5200210091017A97
:1021F00013460068224600F061FC38BD38B504463D
:10220000206A002806D0826822B194F83510204652
:10221000904708B1002038BD0020009094F8351098
:102220003A2302222046FFF72EFF4FF0FF3038BD41
:102230000448018821F0040101804FF41C41018011
:1022400070470000405C00400448018841F00801EC
:102250000180018841F0040101807047405C00402A
:1022600010B50446208B617A83B26269206800F061
:10227000EAFC617A206800F0F1FC0020E072A07AAC
:1022800038B1042805D821684968401E01EB800058
:10229000C464002010BD30B411461A46C468002C36
:1022A00002D0A44630BC604730BC0020704700001C
:1022B000F8B50D46046862682978C1F34113012B13
:1022C00001D00020F8BDEB88F3B1090613D50C321C
:1022D00016462946FFF7FCF9EB88E08C834201D0D3
:1022E000802000E00020009032460021204600F0CF
:1022F000E5FB0120F8BD0C320021204600F0A3FCD4
:10230000084860610120F8BD0C322946FFF7E0F96A
:1023100000200346024601460090204600F0CEFB16
:102320000120F8BD4D170008027A8A4202D10169E6
:1023300029B10847827A8A4201D10021C172002066
:1023400070474068002811D00A7802F00302012A81
:102350000CD18A880368934208D9406850F822005B
:1023600020B1426812B1526802B110470020704794
:10237000F0B501F07F0048F2C0064CF280054BF644
:102380008F7448F2800348F68F7200281DD00F0624
:102390004FEA4160234901EBD0502ED5B0F8001C24
:1023A000490605D5B0F8001C11403143A0F8001CC7
:1023B000B0F8001C48F6BF72114081F0100181F0A6
:1023C00020011943A0F8001CF0BD174801884906F8
:1023D00003D501881140314301800188490403D5A8
:1023E00001881140294301800188214081F48051F6
:1023F00081F4005119430180F0BDB0F8001C49047C
:1024000005D5B0F8001C11402943A0F8001CB0F815
:10241000001C214081F4805181F400511943A0F83F
:10242000001CF0BD00500040005C0040002204E0B1
:102430000021491CC829FCD3521C8242F8D37047A2
:102440000B48816941F0040181610A48016841F447
:1024500080210160016821F400210160016841F4DC
:10246000403101600349801410310860704700005A
:1024700000100240040801402DE9F04180460E465C
:102480001F4800EB8605B5F8004C20040AD540F63D
:102490008F77A6B104EA0700A5F8000C3146404644
:1024A00000F0BAFA200628D548F60F700440A5F8C7
:1024B000004C31464046BDE8F04100F03FBB2005EE
:1024C00008D508F12001404600F08AFA404600F0A5
:1024D0000DFC03E03146404600F09EFA094804EA4C
:1024E000070101804BF68F7204EA020181F440512A
:1024F00048F2800211430180D4E7BDE8F08100007A
:1025000000500040005C0040F8B504460E46002133
:1025100000257088020A082A46D2DFE802F0450446
:102520000A1045451C38D4F88C00016871B30D7849
:102530003AE0D4F88C00416841B34D8834E0C0B231
:10254000D4F88C20D36883422ED9916851F820109A
:10255000E1B10D7828E021680A2008702168062082
:102560004870D4F88C1020680968D1F80220C0F8AF
:102570000220C988C180D4F88C0021680068407CA2
:1025800008722168002048720A2521680CE0D4F8FE
:102590008C00416801B14D8820682A46FDF7E4FDB2
:1025A0002168072048702168C1B1F088A84200D88E
:1025B00005462068884203D02A46FDF7D5FD2168EC
:1025C000E08CA84201D0802000E000200A46009064
:1025D0002B460021204600F071FAF8BD2046BDE8E8
:1025E000F840002100F052BB024800F580710860FD
:1025F00008467047A415002010B50446A08C617AE7
:1026000083B2226A206800F01EFB617A2068BDE870
:10261000104000F023BB30B411461A46C468002CA9
:1026200002D0A44630BC604730BC00207047000098
:10263000F8B5046865680A7802F00303012B27D116
:102640004B78062B24D14B882226B6EB132F1FD1B3
:10265000038E9FB2866ADEB1D7B1C888B84200D86F
:1026600007462068B04204D03A463146FDF77CFD6B
:102670002668E08CB84201D0802000E00020009065
:102680003B4632460021204600F018FA0120F8BDF2
:10269000C2F34112012A01D00020F8BD4A78002679
:1026A0000C2A73D2DFE802F072531638727272721B
:1026B000724806294988090A80F83410C16901B1B5
:1026C000884700231A4619462046009600F0F6F97E
:1026D0000120F8BD90F834002873E08C012801D067
:1026E000802000E000200090012305F10C02002171
:1026F000204600F0E3F90120F8BD897880F8351014
:10270000C16901B1884700231A4619462046009640
:1027100000F0D4F90120F8BDE08C012801D0802020
:1027200000E000200090012305F10C02002120466A
:1027300000F0C4F90120F8BDCB8805F10C0200219E
:10274000204600F080FA124860610120F8BD628CDA
:1027500002F0FF0C170A002386693EB1C988009178
:1027600005F10C0362463946B04783B2E08C9842CB
:1027700001D0802000E00020009005F10C02002133
:10278000204600F09BF90120F8BDFFE70020FBE7A1
:10279000ED1800080169002900D0084700207047A3
:1027A00010B504461F2204F128012046FFF729FA3C
:1027B00041F25E0000210155206A002806D0016820
:1027C000002903D02046BDE81040084710BD70B571
:1027D000064606F580540025B4F85810002904D0A8
:1027E0003046FFF7C9F9A4F85850B4F85A00002849
:1027F00004D03046FFF7A8F9A4F85A5070BD30B4A1
:1028000011461A4641F258031A52C468002C02D0ED
:10281000A44630BC604730BC0120704738B5044640
:10282000206842680878C0F34113012B04D14B782B
:10283000FE2B03D0FF2B19D0002038BD4B889BB94D
:10284000C988012910D100060ED5A07A107320681E
:10285000C18C012901D0802100E0002100910123D9
:102860000C32002100F02AF9012038BD4A884AB90B
:10287000C98839B9000605D4206A18B1416809B180
:10288000204688470020002300901A4619462068F9
:1028900000F014F9012038BD10B500F580515A310F
:1028A0004A880A800169002900D08847002010BDAD
:1028B00030B440684C060DD001F07F04641E00EB7C
:1028C0008400C06D30B1446824B1E46814B1A446FA
:1028D00030BC604730BC0020704740684A060ED0CC
:1028E00001F07F02521E00EB8200C06C002806D06F
:1028F0004268002A03D09268002A00D0104770472F
:1029000010B5FFF79DFD1420FFF790FD154AD06923
:1029100040F40000D061144B0120188000241C807A
:10292000181D01884905FCD504800F48103004802B
:102930004FF41C401880906940F0040090610B48EF
:10294000016841F480210160016821F400210160E7
:10295000016821F44031016005494FF4801008609E
:1029600010BD000000100240405C0040040801401F
:1029700000E100E030B58888C0F309000988094B00
:10298000490803EB8101431C5D08002306E031F890
:10299000044B1470240A5470921C5B1CAB42F6D397
:1029A00030BD00000060004030B5581C4508088864
:1029B0000A4C400804EB8004888863F3090088808F
:1029C000002008E01178537841EA0321921C24F892
:1029D000041B401CC0B2A842F4D330BD00600040CC
:1029E0000A460149FFF7C6BF0860004070B5456858
:1029F000002D10D0A9688847002409E0686850F8C5
:102A0000240020B1416811B1096801B18847641CF4
:102A10002868A042F2D870BD2DE9F04706460D4661
:102A200005EB850006EB80042834224800EB85097D
:102A3000B9F8008C204800EB0517606800281FD00B
:102A4000F7B1A189421839463046FFF793FFB9889C
:102A50006FF30901B980A18901448BB2A381B169E7
:102A6000495D814202D16089834209D30027C5B103
:102A7000294630466268FFF71BFFC8B16089A08114
:102A8000A089618988420AD24BF68F7008EA000853
:102A900088F4405048F280010843A9F8000CBDE8D2
:102AA000F087716911B13046884777616760E7E761
:102AB000A781E5E700500040086000402DE9FC4197
:102AC0001746089A0C461B4901EB8406B6F8005CD1
:102AD00004EB840100EB810128314FEAD21C0A8A01
:102AE0006CF300020A820A894FF0FF3C002A02D0F0
:102AF0006046BDE8FC81C5F30112022A01D06046A0
:102B0000F7E700224A82C269125DCDE900320A4A23
:102B10003B4602EB0412FEF744FE48F6BF70054048
:102B200085F0300048F280010843A6F8000C002030
:102B3000DFE7000000500040006000402DE9FC414C
:102B400004460B4603EB830004EB800128311E484A
:102B500000EB8305B5F8000C00264E821B4800EB05
:102B600003120889002809D10F7CFF071ED0D4F872
:102B70001CC0CF891CF803C0674517D1E669F35C18
:102B8000CDE9000320460B68FEF70BFEB5F8000CFC
:102B900048F6BF71084080F0100080F0200048F235
:102BA00080010843A5F8000CBDE8FC812BB1194653
:102BB0002046BDE8FC41FFF790BE21690029F3D013
:102BC000204688472661EFE7005000400060004043
:102BD000017A002905D0034A41F0800111800021CB
:102BE000017270474C5C0040704710B50022CA6407
:102BF0000A654A658A65CA650A664A668A66002366
:102C00001CE04A6852F82320BAB11468844200D00C
:102C10001060147A3CB104F07F04042C03D8641EC5
:102C200001EB8404E264547A3CB104F07F04042C88
:102C300003D8641E01EB8404E2655B1C0A689A42B7
:102C4000DFD8416010BD01EB810100EB8100C26261
:102C50004386002181860020704700000A4A02EB6B
:102C60008102B2F8003C01EB810100EB8100002100
:102C700081864BF68F70034083F4405048F2800108
:102C80000843A2F8000C70470050004010B501F056
:102C90007F0048F6BF7348F2800200280FD00C0670
:102CA0004FEA41600F4901EBD05010D5B0F8001C3D
:102CB000194081F010011143A0F8001C10BD0A4911
:102CC0000888184080F010001043088010BDB0F84C
:102CD000001C4BF68F73194081F480511143A0F80A
:102CE000001C10BD00500040005C004070B505465F
:102CF00005F1200421462846FFF723FB002805D1D3
:102D000021462846BDE8704000F002B870BD0000C2
:102D100038B504464A78002559480C2A7ED2DFE8A7
:102D200002F01A84A95EA90615A92A3A44548878A3
:102D300020722046FFF758FF5248206100231A46B0
:102D4000194620460095FFF7B9FE38BD2046BDE87C
:102D50003840FFF7D9BBA1890160E08C022801D07F
:102D6000802000E0002000900223454A00212046F8
:102D7000FFF7A4FE38BD617A0160E08C012801D024
:102D8000802000E00020009001233D4A00212046E1
:102D9000FFF794FE38BD8878607200231A46194602
:102DA00020460095FFF78AFE38BDA17A0160E08CCD
:102DB000012801D0802000E0002000900123304A4B
:102DC00000212046FFF77AFE38BD8878A0720023E4
:102DD0001A46194620460095FFF770FE38BD087860
:102DE00000F00300022803D0488801280AD016E02A
:102DF000097901F07F00052811D22046BDE838404E
:102E0000FFF744BFE07A40F00100E07200231A4669
:102E1000194620460095FFF751FE38BD2AE02046AE
:102E2000BDE838400021FFF731BF087800F003000B
:102E3000022803D0488801280AD015E0097901F05A
:102E40007F00052810D22046BDE83840FFF790BA31
:102E5000E07A20F00100E07200231A46194620466D
:102E60000095FFF72BFED8E72046BDE8384000214B
:102E7000FFF70CBF2046BDE838400021FFF706BF32
:102E80001C000020D12B0008F8B54D4C4D4D0026FC
:102E90002778082328784C4A4C49092F0CD2DFE8C0
:102EA00007F0050C414C58626C7984004848007862
:102EB000002801D00120207080E000204349454DCA
:102EC00060392A5C0A54401CC0B21E28F9D33F481E
:102ED0001E216038FEF726F9FDF7F9F900203B4E78
:102EE000403E2918897F3154401CC0B21E28F8D3B7
:102EF00036481E214038FEF715F9FDF7E8F90020A5
:102F0000291891F83C103154401CC0B20528F7D361
:102F10002E4805214038FEF705F9FDF7D8F90220C3
:102F200020704BE040B329481E222B492038FDF782
:102F30001BF92E700320207040E000202349203927
:102F40000B5C1354401CC0B21E28F9D3042020701F
:102F500034E088B11E2220491C48FDF705F92E7087
:102F6000052020702AE0002016180D5CB577401C63
:102F7000C0B21E28F8D3237020E0F8B113481649D8
:102F800060380A680266097980F864102E7007209C
:102F9000207013E0002016180D5C86F83C50401C91
:102FA000C0B20528F7D3237008E00C4800964023F0
:102FB000017A0068044AFFF781FD26700020F8BD01
:102FC0000200002004000020D91100207A12002005
:102FD0000100002098110020201500202000002072
:102FE0004FF48010064902E0002803DD401ECA6845
:102FF000D207F9D1C868800601D52020C860704783
:10300000002002402DE9F04105460C461646FFF728
:10301000E7FF0C4F386940F00100386109E0207883
:10302000617840EA01202880FFF7DAFFB61EA41C71
:10303000AD1C022EF3D2386920F001003861BDE8E2
:10304000F08100000020024012010002EF02014066
:103050008304110000010102030100000902820043
:10306000040100806409040000020300000009213B
:103070001101000122180007058203400001070525
:103080000203400001080B010202020100090401D1
:1030900000010202010005240010010524010001C5
:1030A000042402020524060001070588031000011C
:1030B00009040200020A0000000705810220000145
:1030C0000705010220000109040300020806500060
:1030D00007058402400001070504024000010000CA
:1030E000040309040E034B0053005F004400490031
:1030F0005900000022034B00530020003900390022
:103100003600200043004D005300490053002D00BD
:103110004400410050000000180339003900360017
:103120005F003900390036005F0039003900360091
:10313000E0300008E4300008F430000818310008DE
:103140000600FF0901A1010902150025FF75089578
:1031500040810209039102C04020400040402040CD
:1031600000400000483000085C30000830310008A2
:103170000400000061220008B12200082923000891
:1031800097220008F9250008312600089527000835
:1031900017260008A12700081D2800089928000804
:1031A000FF2700080000000001020304CC310008E2
:1031B0000000002098110000D40100085C320008D3
:1031C0009811002000160000C2160008920114AAEF
:1031D000BBCC3A01050110138431240802021329E3
:1031E000191B084504C11334173320401A402441E9
:1031F000B2181A7414140101081389171B089504D6
:103200001A742C32201A870C01241A9440A3040447
:1032100013F51B1408D91A1B08F90401FF01FF015B
:10322000FF01FF01FF01FF01FF01FF01FF01FF019E
:10323000FF01FF01FF01FF01FF01FF01541A2003FD
:103240003A5807211A9808320413FC10142059190F
:0C32500002710835A24A0401721000004F
:0400000508000131BD
:00000001FF
