:020000040800F2
:10000000403C002045010008ED3B00089F2D000802
:10001000D13A0008E90600087D56000800000000FB
:100020000000000000000000000000004F44000835
:10003000DD1A00080000000049430008455100088F
:100040005F0100085F0100085F0100085F01000810
:100050005F0100085F0100085F0100085F01000800
:100060005F0100085F0100085F0100085F010008F0
:10007000691A0008751A0008811A00088D1A00080C
:10008000991A0008A51A00085F010008C555000864
:10009000ED5500085F0100085F0100085F010008DE
:1000A0005F0100085F0100085F0100085F010008B0
:1000B0005F0100085F0100085F0100085F010008A0
:1000C0005F0100085F0100085F0100085F01000890
:1000D0005F0100081D550008715500085F01000808
:1000E0005F0100085F0100085F0100085F01000870
:1000F0005F0100085F0100085F0100085F01000860
:100100005F0100085F0100085F0100085F0100084F
:100110005F0100085F0100085F0100085F0100083F
:100120005F0100085F0100085F0100085F0100082F
:10013000DFF80CD000F0BAF900480047DD72000883
:10014000403C00200648804706480047FEE7FEE79F
:10015000FEE7FEE7FEE7FEE7FEE7FEE7FEE7FEE777
:10016000695100083101000840EA01039B0703D0F0
:1001700009E008C9121F08C0042AFAD203E011F8E6
:10018000013B00F8013B521EF9D27047D2B201E0A8
:1001900000F8012B491EFBD270470022F6E710B58C
:1001A00013460A4604461946FFF7F0FF204610BDE5
:1001B000034611F8012B00F8012B002AF9D118464B
:1001C00070472DE9FE4F81EA030404F0004421F05A
:1001D000004100944FF0000B23F0004350EA01046B
:1001E0005ED052EA03045BD0C3F30A54C1F30A554C
:1001F0002C44A4F2F3340194A0FB0254C1F3130184
:1002000041F48011C3F3130343F4801301FB024450
:1002100000FB034E840A970A44EA815447EA835755
:10022000A4FB076802958D0A05FB07854FEA932C0E
:1002300004FB0C542705029D4FEA065847EA16377F
:10024000B5EB08056EEB070C870E920E47EA811797
:1002500042EA8312A7FB0201B6EB0B0164EB000438
:100260002B0D43EA0C335E1844EB1C50DA46514622
:10027000E7FB0201C5F313044FEA0B3343EA1453BF
:100280004FEA0432019C43EA0603A4F10C040294F1
:10029000009CCDE900B400F0BAF803B0BDE8F08FDF
:1002A00000200146F9E72DE9F04D81EA030404F04E
:1002B000004B21F0004514464FF0000A23F00041A6
:1002C00050EA050220D054EA01021DD0C5F30A57B6
:1002D0000246C5F31303C1F31300C1F30A5640F4F9
:1002E000801543F48013A7EB0608101BD64608F2CE
:1002F000FD3873EB050002D308F1010801E0921804
:100300005B41B8F1000F03DA00200146BDE8F08D33
:1003100000204FF48011064684460EE0171B73EB55
:10032000050705D3121B63EB050306434CEA010CDA
:1003300049084FEA300092185B4150EA0107EDD1BD
:1003400052EA030012D082EA040083EA050108435E
:1003500005D0101BAB4106D20122002306E000228B
:100360004FF0004302E06FF0010253101AEB060059
:100370004CEB085110EB0A0041EB0B01BDE8F04DCE
:1003800000F036B80EB540F2334102910021CDE9BC
:1003900000110A460B4600F03AF803B000BDC1F365
:1003A0000A5210B5C1F3130140F2FF3341F480113A
:1003B0009A4201DA002010BD40F233439A42A2F281
:1003C000334203DC524200F003F810BD904010BDF0
:1003D000202A04DB203A21FA02F00021704721FA9A
:1003E00002F3D040C2F12002914008431946704701
:1003F00010B5141E73F1000408DA401C41F100012D
:1004000092185B411A4301D120F0010010BD2DE983
:10041000F04D92469B4611B1B1FA81F202E0B0FA7A
:1004200080F22032904600F053F804460F4640EA2E
:100430000A0041EA0B0153465A46084313D01146BD
:1004400053EA010019D0C8F140025046FFF7C0FF3F
:1004500005460E4650465946424600F039F80843D4
:1004600005D0012004E020463946BDE8F08D00208B
:10047000054346EAE0762C4337430A986305E40ACD
:10048000A0EB08000022FD0A44EA47540A3002D5D6
:1004900000200146E9E7010510196941DDE9084539
:1004A00000196941BDE8F04DA2E70000064C074D78
:1004B00006E0E06840F0010394E807009847103434
:1004C000AC42F6D3FFF738FE48B6000868B600081D
:1004D000202A04DB203A00FA02F100207047914004
:1004E000C2F1200320FA03F319439040704770B51E
:1004F0008C1810F8015B15F0070301D110F8013BCF
:100500002A1106D110F8012B03E010F8016B01F855
:10051000016B5B1EF9D12B0705D40023521E0DD4AD
:1005200001F8013BFAE710F8013BCB1A921C03E0FB
:1005300013F8015B01F8015B521EF9D5A142D8D333
:10054000002070BD02494A68C264486070470000DC
:100550002C0000202DE9F84307F06EFD012500284E
:1005600063D00C2335A232210020009503F013FD47
:10057000364E374F0122307800EB800007EB8001C8
:10058000344806F087FADFF8D0806C0368B10C239A
:1005900032A224210020009503F0FDFC21464046B4
:1005A000BDE8F843012201F047BF00222146404642
:1005B00001F042FF0024DFF8B4804FF0230904EB80
:1005C000440008EB800209EB4000C0B20C23182164
:1005D000009503F0E1FD641CE4B2082CEFD34FF06A
:1005E0000008234D234C05E0207801280DD007F0AA
:1005F00023FD88B1307800EB800007EB800001F02C
:1006000093FB0028F0D0BDE8F88384F8008085F8DB
:10061000008085F80180F6E703F0EAFA84F80080AC
:100620000520287002206870EDE70C2312A2322109
:100630000020009503F0AFFCE5E70000436F6E6E0D
:10064000656374656421212100000000160000200C
:10065000EA0E0020CC030020001001404F70656EB0
:100660002042696E206661696C656400CAA6000854
:100670001D00002015000020446973636F6E6E65D5
:1006800063746564000000007047000001490120A8
:10069000087070471500002010B506484178012900
:1006A00003D000210170417010BD012080F3138838
:1006B00005F0E6F91D00002070477047014902204F
:1006C00008707047150000207047704770470000A1
:1006D000014903200870704715000020012080F3B5
:1006E000138805F0CDF97047FEE7072903D000EB2A
:1006F000810082627047002100EB81039A62491CED
:10070000C9B20729F8D370472DE9F04107460C46D6
:1007100015461E4650212046FFF73FFD2022394650
:10072000201D04F0FBFC14F8240F20F00F0009300A
:1007300020F0F000903020700920A07044F8245C74
:10074000607866F301006070A847617860F3830108
:100750006170002084F82600243C2046BDE8F0416A
:10076000FFF7F0BE70B50446206880476D4E70708C
:1007700094F825100025C1F38102824228D094F814
:100780004A20521CD2B284F84A20022A20D360F3B5
:10079000830184F8251084F84A5094F8240000F06E
:1007A0000F01092904D0022902D0010705D00FE06A
:1007B00020F00F0084F824000AE03178B9B33570D6
:1007C00020F00F00401C84F82400042084F8260048
:1007D00094F8240010F00F0135D001295ED00229D1
:1007E00024D194F84910491CC9B284F849100F2942
:1007F00009D320F00F0000F1090020F0F00000F113
:10080000900084F8240011D394F8240000090DD03E
:1008100084F84950A16A09B12046884714F8240F8A
:1008200020F00F00093020F0F000207070BDFFE7CD
:1008300020F00F00401C84F82400E16A0029C7D092
:1008400020468847C4E794F82500C0F3810100F0F2
:1008500003008142EAD184F8265094F84B00401CF2
:10086000C0B284F84B003228E0D394F84800401C12
:1008700010F0FF0084F8480008D084F848500320A6
:1008800084F82600616B09B12046884794F84B0034
:10089000FF28CBD1322084F84B00C7E794F826100C
:1008A00079B1032931D00429C0D184F84B5020F00C
:1008B0000F000930357020F0F000403084F824003B
:1008C000B4E794F849100F2913D80221B1EB101F97
:1008D0000FD184F82610216B09B12046884714F8FF
:1008E000240F20F00F00093020F0F000903020702D
:1008F0009CE704F8495FA57020F00F00801C20F0F1
:10090000F000203004F8250C90E784F84B5020F0DC
:100910000F000930357020F0F000303084F82400EA
:1009200084E700002C0000201FB5002001904FF448
:10093000E070009001200290032003906946334844
:1009400001F074FC0023324A324933A0FFF7DCFE89
:10095000334A00212F48FFF7C8FE324A02212D48B2
:10096000FFF7C3FE304A03212A48FFF7BEFE2F4A95
:1009700004212848FFF7B9FE264900232C4A5031AC
:100980002CA0FFF7C1FE23482C4A00215030FFF76E
:10099000ACFE20482A4A02215030FFF7A6FE1D482F
:1009A000284A03215030FFF7A0FE1A48264A0421A6
:1009B0005030FFF79AFE17490023244AA03124A0A3
:1009C000FFF7A2FE1348244A0021A030FFF78DFE56
:1009D0001048224A0221A030FFF787FE0D48204A26
:1009E0000321A030FFF781FE0A481E4A0421A030EF
:1009F000FFF77BFE074801F075FA0648503001F01A
:100A000071FA0448A03001F06DFA1FBD000C0140DE
:100A10004D4300087C100020427574746F6E3100E5
:100A20008D0600088906000899060008B906000826
:100A300059430008427574746F6E3200BD06000899
:100A4000BB060008C9060008CB060008654300087D
:100A5000427574746F6E3300D1060008CD0600082D
:100A6000DD060008E706000810B50548446803E005
:100A70002046FFF777FEE46C002CF9D110BD000092
:100A80002C00002070B50D460478002C00D1012404
:100A90000948012C06D0022C09D000242C704FF0FC
:100AA000011070BD0121017003F014FCF6E7022172
:100AB000017003F0C9FBF1E7BC2800200278407800
:100AC00042EA002000EB4000C000401EFDD108704B
:100AD00000487047010002007FB505460849002420
:100AE0000C700194029440F603610091022103917D
:100AF0006946044801F09AFB2C7004B0012070BDD7
:100B0000BC280020000C014030B504464278801C0F
:100B1000002A0BD010F8013B9D0703D5DB0602D558
:100B2000001D00E0001D521E002AF3D100220A70B1
:100B30004A70001B0004801C30BD00002DE9FF47F7
:100B40000D460278DFF848800027002A07D0012AE6
:100B50001BD0FF202870404604B0BDE8F0874678DF
:100B600002974FF40054009411200190022003904A
:100B7000DFF820906946484601F058FBF00702D0A4
:100B8000C9F8144001E0C9F810402F704046E3E76F
:100B900001000200001001400022062824D006DCDB
:100BA000052821D2DFE800F0202020200C00F028CA
:100BB0000DD0FD2818D0FE2813D0FF2814D10AE04C
:100BC0000A4802680A604068486008220CE0132066
:100BD0000870012208E040200870002048700222BE
:100BE00002E001200870012210467047F2A80008B8
:100BF000F0B510F8014B104EB4750022002308E048
:100C000010F8015BF7183D7606EB43073A842A4457
:100C10005B1CA342F4D3002006E033181B7ED21ADB
:100C200006EB40031A86401CA042F6D30020087051
:100C3000641C2004401CF0BDBC28002010B50C46EC
:100C40000E490A78022A14D10078C875897D884235
:100C50000FD20E2002F0C0F802F0F2F9002121704C
:100C60006070010AA170010CE170000E207104484F
:100C700010BDFF2020704FF0011010BDBC280020D7
:100C8000050001002DE9F047002201F8012B8846FC
:100C90000125012410F8017B15E010F8016B814655
:100CA00042464946304602F039FA06F03F0000B9A4
:100CB0004020C01DC10809EB01000D446D1C320627
:100CC00001D588440C447F1E791CE6D1204665F38B
:100CD0001F40BDE8F08700002DE9F04F85B00446C5
:100CE00004940020029003918E1CC44900220A70D3
:100CF00000258146C24A14F8011BD175927D9142AC
:100D00007ED214F8018BB8F1000F7AD014F801BB31
:100D10005FEACB7101D00B2700E00A275FEA8B71F5
:100D200070D5B9F1000F3AD0B548B0F80AA0BD426D
:100D300010D15FEACB600DD46946584602F042FA02
:100D400002281ED1BAF1010A1BD3AC490978002947
:100D5000F2D016E00A2D03D00A25284602F03CF80E
:100D6000DFF8989269460E2002F02CFA022806D18C
:100D7000BAF1010A03D399F800100029F2D04FF01C
:100D8000000901283DD1009931700099090A71705C
:100D90000099090CB1700099090EF170361D5FEAD7
:100DA000CB6154D520786178E27840EA0120A178BF
:100DB000090441EA026108430190241D9048B0F8FB
:100DC0000CA0BD4203D03D46284602F005F88C48F1
:100DD00047890021584602F0F5F9022806D17F1E06
:100DE000791C03D0854909780029F2D0012808D15F
:100DF000834847896946584602F0E4F9022802E030
:100E0000DEE0A0E041E006D17F1E791C03D07B49E3
:100E100009780029EED001280DD17949009A096995
:100E20001140019A914206D0BAF1010A03D37349E5
:100E300009780029DCD07249009A09691140019AA9
:100E4000914201D040F0100001287CD172E0B9F14C
:100E5000000F6FD1BD4203D03D46284601F0BCFFD4
:100E600067484789DFF894A10021584602F0AAF9A3
:100E7000022806D17F1E791C03D09AF800100029A1
:100E8000F2D0012864D1814654E0B9F1000F25D099
:100E90000A2D03D00A25284601F09EFF5848B0F8D5
:100EA0000AA069460E2002F08DF9022806D1BAF197
:100EB000010A03D3514909780029F2D0012847D10A
:100EC000009830700098000A70700098000CB070A4
:100ED0000098000EF070361D4FF000092078617800
:100EE000E27840EA0120A178090441EA026108435E
:100EF0000090241D5FEA8B6103D541490861012000
:100F000018E0BD4203D03D46284601F065FF3C484D
:100F10004789DFF8E8A06946584602F053F90228ED
:100F200006D17F1E791C03D09AF800100029F2D058
:100F300001280DD10299491C02913049097811B953
:100F4000A8F1010800E003E0B8F1000F7FF4DEAE85
:100F5000B8F1000F0DD014F8011B8A0703D5C9069C
:100F600002D5241D00E0241DA8F10108B8F1000FEE
:100F7000F1D1012834D10A2D02D00A2001F02CFF32
:100F8000B9F1000F1DD01E4845891C4F69460E203F
:100F900002F018F9022805D16D1E691C02D03978BB
:100FA0000029F3D001281BD1009931700099090A5A
:100FB00071700099090CB1700099090EF170361D1D
:100FC0000EE00F4845890D4F00210E2002F0FAF87F
:100FD000022805D16D1E691C02D039780029F3D092
:100FE000DDE902121170039948700398311A0498D0
:100FF00005B0201A41EA0040BDE8F08F340000201F
:10100000BC2800202DE9F84F044600260020884621
:10101000CF1C524900220A70DFF844B114F8011BBA
:101020008BF817109BF81620914254D221786278E1
:1010300041EA0225A41C002D4DD014F8019B5FEA63
:10104000C97002D04FF00B0A01E04FF00A0A504677
:1010500001F0C2FE5FEA89705DD541484489DFF83E
:10106000FCB00021484602F0ADF8022806D1641E0B
:10107000611C03D09BF800100029F2D0012862D136
:1010800026E03DB9BAF10A0F02D00A2001F0A4FE11
:101090004FF00E09324844896946484602F092F8FA
:1010A000022806D1641E611C03D09BF800100029A1
:1010B000F2D0012847D1009939700099090A797056
:1010C0000099090CB9700099090EF9703F1D761C42
:1010D0006D1E691CD5D136E020786178E27840EA4F
:1010E0000120A178090441EA026108430090241D0F
:1010F0001B48B0F80AB06946484602F063F8022877
:1011000006D1BBF1010B03D3144909780029F2D0B1
:10111000012818D1761C6D1E681CDDD1BAF10A0FAA
:1011200002D00A2001F058FE0D4844890B4D0021E1
:101130000E2002F047F8022805D1641E611C02D07F
:1011400029780029F3D088F80060310A88F8011066
:1011500088F80200A7EB0800BDE8F88F34000020F3
:10116000BC28002070B504460D460E492078C8758D
:10117000897D884203D3FF202870012070BD08209C
:1011800001F02AFE6078A178227940EA0120E17816
:10119000090441EA0261084302F0B4FA0020287011
:1011A000012070BDBC28002010B50278A2F1800398
:1011B0001F2B02D800F066F810BD01F8012B0C4679
:1011C00010F8011B172957D2DFE801F00C14181C86
:1011D00044484C565020245656565656282C3034E7
:1011E000383C40000078611CFFF7D6FC207000F10D
:1011F000021010BD2146FFF7A1FC3AE02146FFF79F
:1012000041FC36E02046FFF767FC32E02146FFF75D
:1012100055FC2EE0204600F03DF82AE0214600F083
:10122000B1FA26E0214600F07BFA22E0214600F0E8
:1012300079FB1EE0214600F039F81AE02146FFF75D
:1012400021FD16E02146FFF7D3FC12E02146FFF70F
:10125000F5FC0EE0214600F0DBFB0AE0214600F041
:10126000A1FB06E0214600F0ABFB02E0214600F0C6
:10127000E5FB00F1011010BDFF2004F8010C4FF058
:10128000011010BD4FF0011203780B700078803808
:10129000104670470021417001700220704710B560
:1012A00002F03AFBBDE8104002F0F2BA0078064ABC
:1012B00000F003035B1C1375C0F380005075002021
:1012C00008704FF001107047BC2800202DE9F04F46
:1012D00087B0044606940020049005918D1CDFF829
:1012E000DCA200218AF80010002703916678A41C74
:1012F000002E7DD014F8018B5FEA887179D587B311
:10130000AF48B0F80A9008F0110001280DD101A9EA
:10131000404603F09DF8022815D1B9F1010912D316
:101320009AF800100029F2D00DE001A90E2003F078
:101330008FF8022806D1B9F1010903D39AF80010F9
:101340000029F2D00027012852D101992970019972
:10135000090A69700199090CA9700199090EE970CF
:101360002D1D5FEAC86152D520786178E27840EAA5
:101370000120A178090441EA026108430290241D7A
:101380008F48B0F80CB05FEAC87011D08C48B0F844
:101390000A900021404603F05BF8022806D1B9F11B
:1013A000010903D39AF800100029F2D001281FD1B7
:1013B0008348B0F80A9001A9404603F049F8022892
:1013C00006D1B9F1010903D39AF800100029F2D02F
:1013D000012810D17A49019A09691140029A914273
:1013E00009D0BBF1010B06D39AF80010002901E0E7
:1013F0008AE042E0DCD07249019A09691140029A00
:10140000914201D040F0100001287DD132E06C49BA
:10141000B1F80A905FEAC87111D05FBB0021404665
:1014200003F016F8022806D1B9F1010903D39AF89E
:1014300000100029F2D0012872D101271AE001A979
:10144000404603F005F8022806D1B9F1010903D39B
:101450009AF800100029F2D0012861D10199297071
:101460000199090A69700199090CA9700199090E7D
:10147000E9702D1D0021039148E0F7B15048B0F804
:101480000A9001A90E2002F0E3FF022806D1B9F16B
:10149000010903D39AF800100029F2D001283FD1A6
:1014A000019828700198000A68700198000CA870D3
:1014B0000198000EE8702D1D002720786178E278F1
:1014C00040EA0120A178090441EA02610843019041
:1014D000241D5FEA886103D539490861012015E0C0
:1014E0003748B0F80A9001A9404602F0B1FF02283F
:1014F00006D1B9F1010903D39AF800100029F2D0FE
:1015000001280DD1012100E00AE003910499491C52
:1015100004919AF8001019B9761E002E7FF4EAAEF5
:101520005EB114F8011B8A0703D5C90602D5241D34
:1015300000E0241D761E002EF3D101282FD1EFB13B
:101540001F48468901A90E2002F082FF022806D119
:10155000761E711C03D09AF800100029F2D00128E1
:101560001DD1019929700199090A69700199090C25
:10157000A9700199090EE9702D1D10E0039971B150
:101580000F48468900210E2002F062FF022806D192
:10159000761E711C03D09AF800100029F2D0DDE904
:1015A00004121170059948700598291A069807B019
:1015B000201A41EA0040BDE8F08F0000340000200E
:1015C000BC2800202DE9F84F04460026002089465B
:1015D000CF1CDFF818A100218AF80010641C2178C4
:1015E000627841EA0225A41C002D74D014F8018B06
:1015F000DFF8FCB05FEA88715BD55FEAC87135D06F
:10160000BBF80A400021404602F022FF022806D122
:10161000641E611C03D09AF800100029F2D0012842
:1016200059D123E025B95FEAC87001D04FF00E0808
:10163000BBF80A406946404602F00AFF022806D17C
:10164000641E611C03D09AF800100029F2D0012812
:1016500041D1009939700099090A79700099090CF3
:10166000B9700099090EF9703F1D761C6D1E691C3A
:10167000D8D130E020786178E27840EA0120A17882
:10168000090441EA026108430090241D1848B0F89B
:101690000AB06946404602F0DBFE022806D1BBF1E3
:1016A000010B03D39AF800100029F2D0012812D1BF
:1016B000761C6D1E681CDDD10D48448900210E206A
:1016C00002F0C6FE022806D1641E611C03D09AF8FF
:1016D00000100029F2D089F80060310A89F8011061
:1016E00089F80200A7EB0900BDE8F88F340000205C
:1016F000BC28002038B50C464178827841EA0222A5
:10170000C1780079090441EA006002430092694609
:10171000002002F09DFE00202070012038BD000056
:1017200030B50278437842EA03228378C0781B04FC
:1017300043EA006002430F48002A08D00E4D0024FF
:101740000E4BAA4206D301225A705A600FE0FF22C4
:101750000A7030BD5C700A4D1544B5FBF2F2022AE6
:1017600003D90325B2FBF5F200E001225A600C70A8
:1017700030BD00000100040080A81201BC28002038
:10178000FF5025022DE9F04786B088460578447859
:101790008178C27841EA022601794079090441EA58
:1017A000006006435849E00701F1040206D0EB0748
:1017B0004FF4806001D0086000E01060A00706D5FB
:1017C000AB074FF4007001D5086000E010606007BF
:1017D0004FF0010308D5A808C00702D04B480360AA
:1017E00002E04A48001D036020064FF000072BD599
:1017F000E80902970397049705975FEAC079444880
:101800004FF4006C4FF0020A09D0C1F800C0CDF8C7
:1018100008C0CDF814A002A900F008FD14E0C2F839
:1018200000C0CDF808C0112103910493CDF814A095
:1018300002A900F0FBFC06F0FFFB364801900422F1
:1018400001A9354806F05AFF304B2F481B1F001FD7
:10185000DEB332498E4200D90E464FF0E02CCCF870
:10186000187006EBC601C900CCF814100521CCF89D
:101870001010E10704D00168C1F38022AA421CD1F4
:10188000A10705D50168C1F34021B1EB550F14D173
:10189000610705D51968C1F30001B1EB950F0CD1B3
:1018A000A10602D5B7EB551F07D121060BD501685C
:1018B000C1F3C021B1EBD51F05D0DCF81010C1F386
:1018C00000410029D5D0CCF810700168C1F3802107
:1018D0000268C2F3402241EA42021968C1F30001E2
:1018E00042EA8102094908390968C1F3400142EA24
:1018F000C1010068C00A41EAC01088F8000006B0C3
:101900000748BDE8F0870000100C014010080140B6
:10191000000C01400400FA050CED00E0C0C62D00EB
:101920000100060070B50D4610F8014B0146002C71
:1019300001D14FF48074204603F0E4F800202870B1
:10194000E41DE008401C0004401C70BD08B51348AD
:1019500000210170417022224260017264224281A2
:101960008181016101220275417581750C4881698F
:1019700041F008018161816901F0080100918169EC
:1019800041F010018161806900F01000009002F0C8
:101990005BFCBDE8084002F09DBC0000BC280020B4
:1019A00000100240054A1278012A03D0022A03D00F
:1019B000FFF7AAB8FFF78ABCFFF78EB9BC28002052
:1019C00010B504461148007801280CD002280ED02A
:1019D00000200870487088700320E17889070AD5D4
:1019E00040F4802010BD2046FFF7ECFDF5E72046CF
:1019F000FFF708FBF1E76178A27841EA02210422AF
:101A000002EB810140EA014010BD0000BC2800202B
:101A100010B5084A037813724378847843EA0423A4
:101A20005381C378007943EA002090810020087038
:101A3000014810BDBC2800200100050010B5094A6E
:101A40001278012A07D0022A08D0FF20087001204E
:101A500040F4A02010BDFFF74DFEF9E7FFF782FB31
:101A6000F6E70000BC280020014800F0ADBA0000F5
:101A700078140020014800F0A7BA000034140020B8
:101A8000014800F0A1BA000074120020014800F0E3
:101A90009BBA0000B8120020014800F095BA00007F
:101AA000FC120020014800F08FBA00004013002013
:101AB00030B590F840500124AC40C56B6C600468B0
:101AC00063604368102B04D0036899600068C260AB
:101AD00030BD03689A600068C16030BD7047000087
:101AE000F8B5244C0026667023A1244805F0AAF816
:101AF000E8BB2349214805F08DF932E02048407ABF
:101B0000A8B394F901001F4D1D4900EB800005EBBF
:101B100080000931FEF74CFBE1780C2001F10C024A
:101B2000B2FBF0F200900123002002F0F3F901274C
:101B300000970C2314A2E178082002F02CFA0097F9
:101B400094F901000C2300EB800005EB8002E178A2
:101B5000102002F020FAE0780C30E0706078401C31
:101B600060700749054805F055F90028C6D0E670B1
:101B7000F8BD000004000020303A00000C060020F0
:101B8000F4050020EA0E00202E0000002DE9F843A5
:101B900000240C27154DDFF8589001264FF00A0855
:101BA00000970123621C2979002002F0B3F9009606
:101BB0000C2310A22979082002F0EDF929790C23D1
:101BC000B1FBF8F0C0EBC00059F8302010200096AF
:101BD00002F0E1F928790A302871641CE4B2062C7D
:101BE000DED300202871BDE8F88300000400002047
:101BF000EC2A00202E00000038B50C25012300211E
:101C00001A460846009502F085F901240C2319A212
:101C100000210820009402F0BEF9174800941749EB
:101C200000780C23C0EBC00051F8302000211020B8
:101C300002F0B1F9012302220C210020009502F0EC
:101C400069F90C230BA219460820009402F0A3F9AD
:101C50000B4800940B4900780C2300EB800001EB4B
:101C600080021946102002F096F9BDE8384002F0D3
:101C7000A3B800002E00000044000020EC2A002041
:101C800016000020EA0E00202DE9F8430C2701235E
:101C900000211A460846009702F03CF901260C2361
:101CA0001EA200210820009602F075F90024DFF83A
:101CB00070801E2504EB440008EB800205EB400019
:101CC000C0B20C230021009602F066FA641CE4B254
:101CD0000A2CEFD3012302220C210020009702F0EE
:101CE00019F90C230DA219460820009602F053F9A9
:101CF00000240C4F04EB440007EB800205EB40008E
:101D00000C23C0B21946009602F046FA641CE4B2F5
:101D10000A2CEFD3BDE8F84302F04EB82E000000C5
:101D200002A800087AA800082DE9F84F0146012210
:101D30005F4804F0AFFE5F49087010B10020BDE8B5
:101D4000F88F5D4E0127377006F076F900287DD0B8
:101D500006F0F6FD08B10020F1E706F0D5FD08B168
:101D60000020ECE706F01AFE06F066F900286ED0B7
:101D70004FF0006006F056FD18B106F0BDFD0020E2
:101D8000DDE706F033FD08B10020D8E74FF0000989
:101D90004FF4806B4FF00C083EE0474B5A469B1DBA
:101DA0004649434804F084FFF088584501D286F83C
:101DB0000090F0685A46414900F1006006F060FD6D
:101DC00008B10020BBE7D6F80CA00AF5806AC6F877
:101DD0000CA03748C068FEF7D5FA04460D465046B9
:101DE000FEF7D0FA22462B46FEF75DFA0022344B6E
:101DF000FEF7E7F9FEF7D3FAB06002460323242189
:101E00003220CDF8008002F085F80C232DA2242189
:101E10004620009702F0BFF830780028BDD106F0C8
:101E20000BF9E8B34FF40051274800F0FEFA002008
:101E300006F02EFA0323642224213220CDF80080FC
:101E400002F068F80C231FA2242101E02DE02AE013
:101E50004620009702F09FF800241C4D4FF0230805
:101E600004EB440005EB800208EB4000C0B20C23F9
:101E70001821009702F090F9641CE4B2082CEFD30B
:101E80004FF47A7000F0C0F90C2311A23021002029
:101E9000009702F080F8C6F80C90377001204EE7EA
:101EA000FFE700204BE7002049E7002047E700005C
:101EB000CC0300200000002004000020EA0A0020DB
:101EC000000059402500000000100140A2A70008B2
:101ED0002020202020202020202020202020202002
:101EE0002020200090F82600704710B590F82110AF
:101EF0000022022905D00421816380F820200120DE
:101F000010BD01680B6823F00E030B6001680B68BD
:101F100023F001030B6090F84030C46B012101FAFB
:101F200003F3636080F8211080F82020104610BD74
:101F300010B5002490F82110022903D004218163F8
:101F400001243DE001680A6822F00E020A6001687F
:101F50000A6822F001020A601A4A0168914201D11E
:101F6000012121E0174A1432914201D110211BE0D6
:101F7000144A2832914201D1891515E0114A3C32A8
:101F8000914201D189140FE00E4A5032914202D1A0
:101F90004FF4803108E00B4A6432914202D14FF491
:101FA000801101E04FF08071064A083A516001212A
:101FB00080F82110002180F82010416B01B1884782
:101FC000204610BD080002402DE9F05FC16B0A6891
:101FD00001680B68046C4FF0040A0AFA04FA4E4DCB
:101FE0004E4E4F4FDFF83CC1DFF83C81DFF83C91AB
:101FF0001AEA020F31D05FEA437A2ED50A689206B8
:1020000003D40A6822F004020A600168A94201D1DF
:10201000042119E0B14201D1402115E0B94202D1B9
:102020004FF4806110E0614502D14FF480410BE034
:10203000414502D14FF4802106E0494502D14FF4D9
:10204000800101E04FF08061334A083A5160C16A73
:1020500000295FD0BDE8F05F08474FF0020E0EFA8E
:1020600004FE1EEA020F4FF0000A4FF0010B35D0BC
:102070005FEA837E32D50A68920605D40A6822F0A8
:102080000A020A6080F821B00168A94201D1022148
:1020900019E0B14201D1202115E0B94202D14FF43B
:1020A000007110E0614502D14FF400510BE0414551
:1020B00002D14FF4003106E0494502D14FF400113E
:1020C00001E04FF00071144A083A516080F820A0F6
:1020D000816A00291ED0BDE8F05F08470825A540A9
:1020E000154217D01A0715D50A6822F00E020A60A9
:1020F00090F84010C26B0BFA01F15160C0F838B093
:1021000080F821B080F820A0016B002902D0BDE842
:10211000F05F0847BDE8F09F080002401C00024045
:102120003000024044000240580002406C0002406F
:1021300030B5002827D0001D144A50F8041C142381
:102140000A44B2FBF3F29200C263114A8263022294
:1021500042770A6843F6F0739A43D0E90034234388
:10216000D0E902452C4323430469234344692343B4
:102170008469234313430B600021416301224277AA
:102180000177002030BD012030BD0000F8FFFDBF09
:102190000000024070B50446002594F82000012894
:1021A0000CD0012084F8200094F821600020012E3A
:1021B00006D084F820000225284670BD022070BD9C
:1021C000022684F82160A0632068066826F00106D4
:1021D00006602046FFF76CFCE06A28B120680168C1
:1021E00041F00E01016009E02068016821F004015E
:1021F00001602068016841F00A01016020680168FF
:1022000041F001010160D7E770B5044600F01CF908
:102210000546601C02D004480078044400F014F91C
:10222000401BA042FAD370BDB80300202DE9F84F3F
:1022300000240023DFF8C4914FF00F0809F1040ACD
:102240000AF1040B0BF1040ED1E00127A7403A403C
:10225000BA4275D1DFF8A8C14D68A5EB0C066545FB
:102260002BD00DDC032D34D005DC35B3012D19D076
:10227000022D2FD11BE0112D16D0122D2AD119E0DD
:10228000B6F5881F19D006DCB6F5803F15D0B6F537
:10229000801F1FD111E0B6F5001F0ED0B6F5041F48
:1022A00018D10AE0CB6815E0CB681B1D12E0CB68A3
:1022B00008330FE0CB680C330CE08B6823B1012BA3
:1022C00004D00823476105E0042303E008230761E5
:1022D00000E00023FF2A01D8054601E000F10405D3
:1022E00002D84FEA840603E0A4F108064FEA860606
:1022F0002F6808FA06FC27EA0C0703FA06F647EAF5
:1023000006072F604D68ED0070D53E4DAE6946F072
:102310000106AE61AD6905F0010500953A4D24F066
:1023200003067719BE68A5072D0F08FA05FC26EAF3
:102330000C06DFF8D8C0604503D14FF0000C17E061
:1023400054E0DFF8CCC0604502D14FF0010C0FE043
:10235000DFF8C0C0604502D14FF0020C08E0DFF8A2
:10236000B8C0604502D14FF0030C01E04FF0040CFF
:102370000CFA05FC4CEA060CC7F808C04D68ED03E2
:1023800005D5D9F800501543C9F8005004E0D9F834
:1023900000509543C9F800504D68AD0305D5DAF8F3
:1023A00000501543CAF8005004E0DAF80050954395
:1023B000CAF800504D68ED0205D5DBF80050154312
:1023C000CBF8005004E0DBF800509543CBF8005008
:1023D0004D68AD0205D5DEF800501543CEF800502B
:1023E00004E0DEF800509543CEF80050641C0A6803
:1023F00032FA04F57FF429AFBDE8F88F00040140FC
:1024000000001110001002400000014000080140CF
:10241000000C014000100140001401408068084297
:1024200001D00120704700207047C2680A4201D0E5
:102430004161704701617047002A01D00161704716
:10244000090401617047000001488068704700007E
:10245000B803002002488168027811448160704707
:10246000B8030020002809DB00F01F020121914081
:102470004009800000F1E020C0F800117047000022
:10248000F0B40D460D4B1B68C3F30223C3F10704E0
:10249000042C00D90424191D072901D2002300E0CF
:1024A000DB1E012606FA04F1491E294099409E4090
:1024B000761E16403143F0BC03F0D2BA0CED00E0BA
:1024C0000148006870470000B003002000B5FFF726
:1024D000F7FF04494968044AC1F30221515CC8402E
:1024E00000BD00000010024058AA000800B5FFF728
:1024F000E7FF04494968044AC1F3C221515CC8405E
:1025000000BD00000010024058AA000870B5044643
:10251000002C05D00025A56294F8510010B106E00A
:10252000012070BD84F85050204600F02FF80220A2
:1025300084F851002068016821F040010160D4E96D
:1025400001010843D4E903121143084361690843B8
:10255000218B01F400710843E1690843216A0843B3
:10256000A16A084321680860A069042101EA1040BB
:10257000216848602068C16921F40061C161656516
:10258000012084F85100002070BD0000F0B585B036
:10259000064600240194029403940494384D316853
:1025A000384802220323A94243D1816941F4805172
:1025B0008161816901F480510091816941F00401D8
:1025C0008161806900F004000090A02001900292D7
:1025D00004932D4D01A92846FFF728FE40200190C5
:1025E0000294039401A92846FFF720FE284D2748AE
:1025F000286010206860AC608027EF602C616C61FF
:10260000AC61EC612846FFF793FDB5646E621F482C
:102610001438443528606C60AC60EF602C616C61EC
:10262000AC61EC612846FFF783FDF5646E6205B08E
:10263000F0BD184DA942FAD1C16941F48041C16190
:10264000C16901F480410091816941F00801816113
:10265000806900F0080000904FF420400190029241
:1026600004930D4D01A92846FFF7E0FD4FF480418A
:1026700001910294039401A92846FFF7D7FDD6E7FC
:1026800000300140001002400008014030000240CC
:102690003414002000380040000C01402DE9F84FB0
:1026A00004460A9E8A4693461F4601254FF00008BD
:1026B00094F8500001280ED0012084F85000FFF754
:1026C000C3FE814694F85100616801280DD0B1F530
:1026D000827F07D102E00220BDE8F88FA16809B926
:1026E000042802D04FF00208C3E0BAF1000F28D04E
:1026F000BBF1000F25D0380023D094F851000428F6
:1027000002D0052084F8510000206065C4F838B07C
:10271000E787A787C4F830A0E786A78620646064AF
:1027200020680168490603D4016841F04001016056
:10273000E068B0F5006F07D06068E8B3012F48D0BB
:102740007DE04FF0010894E0606808B1012F39D1B5
:10275000206B21680088C860206B801C2063E08E9D
:10276000401EE0862EE02068816889070DD5E18E45
:1027700059B1012D09D1216B0988C160206B801CE2
:102780002063E08E401EE086002520688168C9072E
:102790000BD0E18F49B1C068A16B0880A06B801C91
:1027A000A063E08F401EE0870125FFF74DFEA0EB00
:1027B0000900B04206D300E00BE0701C02D04FF0DD
:1027C000030856E0E08E0028CDD1E08F0028CAD162
:1027D0003BE0206B216800780873206B401C20636D
:1027E000E08E401EE0862AE02068816889070DD5CA
:1027F000E18E59B1012D09D1216B09780173206B4C
:10280000401C2063E08E401EE08600252068816821
:10281000C9070BD0E18F49B1C068A16B0870A06BEC
:10282000401CA063E08F401EE0870125FFF70CFEEF
:10283000A0EB0900B04201D3701C11D186B1E08E2B
:102840000028D1D1E08F0028CED14A46314620461B
:1028500001F090FD38B14FF001082020606508E0DC
:102860004FF0030805E0A06818B92068C1688068C7
:1028700000900120503460700020207040462BE70B
:1028800010B5401EB0F1807F01D3012010BD4FF084
:10289000E02460610F21601703F0E2F80020A061DE
:1028A00007202061002010BD10B504462068416952
:1028B000C1F3C01194F83920212A0BD151B14169DB
:1028C00021F080014161206B08B1FFF70EFB20462B
:1028D00002F0DDFC20684169C1F3801194F83A20D0
:1028E000222A0BD151B1416921F040014161606B55
:1028F00008B1FFF7FAFA204602F0AEFC002010BD46
:102900007047000070B5044622681068D1685269AB
:1029100000F00F03002B08D1850606D58D0604D5DF
:102920002046BDE8704002F0BBBC002B5ED002F038
:10293000010301F490752B4358D0C30705D0CB0594
:1029400003D5E36B43F00103E363430705D5D307E6
:1029500003D0E36B43F00203E363830705D5D3079A
:1029600003D0E36B43F00403E363030705D5D20709
:1029700003D0E26B42F00802E263E26B002A2AD045
:10298000800604D5880602D5204602F089FC20681E
:102990004069C0F38010E16B090700D400B3204602
:1029A00002F05AFC20684169490615D5416921F0B9
:1029B00040014161606B58B115494163606BFFF79D
:1029C000B7FA002807D0606B416BBDE8704008473C
:1029D0002046FFF795FF70BD2046FFF791FF70BDC1
:1029E0002046FFF78DFF0020E06370BD020606D58C
:1029F0000A0604D52046BDE8704002F029BD400615
:102A0000F3D54806F1D52046BDE8704002F032BC4F
:102A1000B951000870B50446002C04D094F8390070
:102A2000002510B106E0012070BD84F83850204622
:102A300000F022F8242084F839002068C16821F4CD
:102A40000051C160204602F079FC2068016921F440
:102A5000904101612068416921F02A0141612068AB
:102A6000C16841F40051C160E563202084F8390059
:102A700084F83A00002070BD2DE9F04385B004468B
:102A800000250195029503950495DFF84CC1216856
:102A9000524802220323524E80274FF0100861450E
:102AA00052D1816941F480418161816901F48041A1
:102AB0000091816941F004018161806900F00400A6
:102AC0000090100201900292049301A93046FFF792
:102AD000ADFB301501900295039501A93046FFF733
:102AE000A5FB414E3F483060C6F80480B560F760F2
:102AF000356175614FF02008C6F818804FF44059D1
:102B0000C6F81C903046FFF713FB26637462354805
:102B10001430443630607560B560F76035617561BA
:102B2000C6F81880C6F81C903046FFF701FB6663B4
:102B30007462002211462520FFF7A2FC2520FFF732
:102B400091FC05B0BDE8F083DFF8A0C06145F8D185
:102B5000C16941F40031C161C16901F400310091E2
:102B6000816941F004018161806900F004000090F6
:102B7000042001900292049301A93046FFF756FB0E
:102B8000082001900295039501A93046FFF74EFBFE
:102B90001448154E2830883630607560B560F7608F
:102BA00035617561B561F5613046FFF7C1FA66635D
:102BB00074620C483C3044363060C6F80480B5601E
:102BC000F76035617561B561F5613046FFF7B0FAC0
:102BD00026637462B5E7000000380140001002402F
:102BE00000080140440002407412002000440040EC
:102BF00037B582B00446134694F83A00202802D034
:102C0000022005B030BD039AA2B39BB394F83800FC
:102C1000012832D0012084F83800A262A385002563
:102C2000E563222084F83A00616B15488862616B85
:102C30001448C862616B14480863606B456321687F
:102C4000606B091DFFF7A6FA2068016841680191D1
:102C500084F83850C16841F48071C16020684169CE
:102C600041F0010141612068416941F04001416149
:102C70000020C6E7FFE70120C3E70220C1E700000C
:102C8000135200084F520008C9510008704770479E
:102C90002DE9F84304460D4691461E4694F8390046
:102CA000202802D00220BDE8F883B5B1B9F1000FA9
:102CB00013D094F83800012811D0012084F838008E
:102CC0000027E763212084F83900FFF7BDFB804629
:102CD000A4F82490A4F826902DE00120E3E7022038
:102CE000E1E7E08C401EE084A068B0F5805F09D089
:102CF0004346002280212046009602F0DCFBB0B162
:102D00000320D0E74346002280212046009602F0AF
:102D1000D2FB08B10320C6E728882168C0F3080069
:102D20004860206908B16D1C05E0AD1C03E0216816
:102D300015F8010B4860E08C0028D2D143460022F0
:102D400040212046009602F0B6FB08B10320AAE716
:102D500020203834607027700020A4E770470000FE
:102D600070B50178012507290DD0084C217800297C
:102D700008D1014640220648FDF7F6F925700549BD
:102D80004020086070BD0448057070BD010000203F
:102D9000680A0020A8030020340000207047FEE7E6
:102DA00008B50020009005F063FA68B14EF29E70FD
:102DB00005F03AFB50B105F05BFA48B1684605F002
:102DC00020FA38B1012008BD002008BD002008BD50
:102DD000002008BD002008BD03494978002901D022
:102DE00000F004B800F06CB8BC2800202DE9F043D6
:102DF000304D4FF4007CC5F800C02C152E1D3460FA
:102E00002C6034602C60C6F800C034602C603460E4
:102E10002C60294F01223A602849CB7D01EB430900
:102E2000B9F82010002904D034602C60491E002914
:102E3000FAD122491831595C491EDFF87C8008F12B
:102E4000040859B1C30701D03A6001E0C8F8002076
:102E500034602C604008491E0029F3D1B9F83010C5
:102E6000A1B1C00701D03A6001E0C8F80020346089
:102E70002C603A60491E21B134602C60491E002943
:102E8000FAD1C5F800C034602C6009E0C5F800C074
:102E9000C00701D03A6001E0C8F8002034602C601F
:102EA00034602C60C6F800C034602C603A60BDE825
:102EB000F0830000100C014010080140BC280020E5
:102EC0002DE9F0475B4C4FF40078C4F8008004F122
:102ED000040C2715CCF80070574B59680A46521E4F
:102EE000FDD127600A46521EFDD1CCF800700A467B
:102EF000521EFDD127600A46521EFDD1CCF800803B
:102F0000CCF800700A46521EFDD127600A46521EB8
:102F1000FDD1CCF800700A46521EFDD127600A464A
:102F2000521EFDD1454E0125356093F8179003EBF5
:102F3000490ABAF820305BB1CCF800700A46521E3C
:102F4000FDD127600A46521EFDD15B1E002BF3D136
:102F5000394A183219F802305B1EDFF8E09009F1A7
:102F6000040993B1C20701D0356001E0C9F80050EF
:102F7000CCF800700A46521EFDD127600A46521E48
:102F8000FDD140085B1E002BECD1BAF830204AB3CB
:102F9000C00701D0356001E0C9F80050CCF80070DE
:102FA0000846401EFDD127600846401EFDD1356011
:102FB000521E5AB1CCF800700846401EFDD1276061
:102FC0000846401EFDD1521E002AF3D1C4F80080ED
:102FD000CCF800700846401EFDD127600846401E10
:102FE000FDD110E0C4F80080C00701D0356001E0D9
:102FF000C9F80050CCF800700846401EFDD127608B
:103000000846401EFDD1CCF800700846401EFDD198
:1030100027600846401EFDD1CCF80080CCF8007037
:103020000846401EFDD12760491EFDD13560BDE830
:10303000F0870000100C0140BC280020100801405F
:103040002DE9F041324A4FF4007515601315141D37
:103050002360304E71680846401EFDD1136008465B
:10306000401EFDD1256023600846401EFDD113603F
:103070000846401EFDD123600846401EFDD1136066
:103080000846401EFDD1F67D56B123600846401E1D
:10309000FDD113600846401EFDD1761E002EF4D1EE
:1030A00000271F26DFF870C023600846401EFDD1B0
:1030B000DCF80000C0F3400813600846401EFDD154
:1030C00047EAC8704708761E002EEDD115602360D0
:1030D0000846401EFDD1DCF80000C0F34006136036
:1030E0000846401EFDD147EAC67023600E46761E94
:1030F000FDD113600E46761EFDD1256023600C467F
:10310000641EFDD11360491EFDD1BDE8F0810000B1
:10311000100C0140BC280020080801402DE9F04FA8
:1031200000F03F03002B00D14023DFF88CA04506C0
:103130004FF40074AAF1040B02D5CBF8004001E073
:10314000CAF800404FF001094FF48068DFF86CE0E6
:103150002DE011F8016B0027082420E0F50703D0CB
:10316000174DC5F8009003E0154D2D1DC5F80090D2
:10317000CAF80080DEF804C065466D1EFDD1104D12
:10318000083D2D68C5F34005CBF80080BCF1010C6B
:10319000FCD176087F0847EAC517641E5B1E0CB198
:1031A000002BDBD1E740040601D502F8017B002BA0
:1031B000CFD1BDE8F08F0000140C0140BC280020E6
:1031C00010080140034A5278002A01D000F004B8E8
:1031D00000F000B9BC2800202DE9F04F7A4F4FF4E1
:1031E00000733B6007F1040C5E00CCF800603E60A9
:1031F000CCF80030CCF800603E60CCF800603E6057
:10320000DFF8C8E19EF81720002A05D0CCF800604E
:103210003E60521E002AF9D142086D4CD507A4F138
:1032200004084FF0010202D0C8F8002000E022603C
:10323000CCF80060DFF898B1ABF10C0BDBF8005074
:10324000C5F340053E606D004FEA90095FEAC97919
:1032500002D0C8F8002000E02260CCF80060DBF863
:103260000090C9F340093E6045EA09054FEAD009DC
:103270005FEAC97902D0C8F8002000E02260CCF8EB
:103280000060DBF80090C9F340093E6045EA890917
:10329000B9F1010F04D03B60CCF800603E607BE0E8
:1032A000DFF828A185079AF816009AF817A0A0EB76
:1032B0000A0A38D500241F20CCF80060DBF8005043
:1032C0006D083E6044EAC5746408401E0028F3D1CE
:1032D000AAF1010ABAF1000F18D0CCF80060DBF8AF
:1032E0000000C0F340003E60AAF1010ABAF1000FED
:1032F00007D0CCF800603E60AAF1010ABAF1000FD5
:10330000F7D13B60CCF800603E6007E03B60CCF852
:103310000060DBF80000C0F340003E6044EAC0708B
:1033200079B3086038E008681F21C50702D0C8F8E3
:10333000002000E02260CCF800603E604008491E9A
:103340000029F2D1AAF1010ABAF1000F1AD0C00780
:1033500002D0C8F8002000E02260CCF800603E6097
:10336000AAF1010ABAF1000F07D0CCF800603E6064
:10337000AAF1010ABAF1000FF7D13B60CCF8006066
:103380003E6009E03B60C00702D0C8F8002000E0C2
:103390002260CCF800603E60CCF800603E60CCF863
:1033A0000030CCF800603E60C8F800209EF80800AD
:1033B00002E0CCF800603E60401E411CF9D109F0EB
:1033C000FF00BDE8F08F0000100C0140BC28002079
:1033D000140801402DE9F84FC74D4FF4007CC5F8A3
:1033E00000C005F1040A4FF48069CAF80090DFF8C4
:1033F0000CE3DEF8042013465B1EFDD1C5F80090F7
:1034000013465B1EFDD1CAF800C0CAF800901346EF
:103410005B1EFDD1C5F8009013465B1EFDD1CAF8B6
:10342000009013465B1EFDD1C5F8009013465B1E4D
:10343000FDD19EF8174064B1CAF8009013465B1E98
:10344000FDD1C5F8009013465B1EFDD1641E002C13
:10345000F2D14308DC07AA4B4FF00106A3F10407A1
:1034600001D03E6000E01E60CAF800901446641E61
:10347000FDD1DFF88CB2ABF10C0BDBF80040C4F3EC
:103480004004C5F800909046B8F10108FCD16400F2
:103490004FEA90085FEAC87801D03E6000E01E6005
:1034A000CAF800909046B8F10108FCD1DBF8008022
:1034B000C8F34008C5F800909646BEF1010EFCD155
:1034C00044EA08044FEAD0085FEAC87801D03E60B9
:1034D00000E01E60CAF800909046B8F10108FCD1E7
:1034E000DBF80080C8F34008C5F800909646BEF1AE
:1034F000010EFCD144EA88040094009C012C0BD0FE
:10350000C5F800C0CAF800901046401EFDD1C5F8AD
:103510000090521EFDD1C2E0DFF8E081840798F8E8
:10352000160098F81780A0EB080E5ED500241F2324
:10353000CAF800901046401EFDD1DBF80000C0F331
:103540004008C5F800901046401EFDD144EAC870FE
:1035500044085B1E002BEBD1AEF1010EBEF1000F53
:103560002FD0C846CAF800901046401EFDD1DBF8A7
:103570000000C0F34000C5F8008013465B1EFDD17B
:10358000AEF1010EBEF1000F0ED0CAF80080134656
:103590005B1EFDD1C5F8008013465B1EFDD1AEF168
:1035A000010EBEF1000FF0D1AB46C5F800C0CAF85D
:1035B000008013465B1EFDD1CBF80080521EFDD16A
:1035C0000EE0C5F800C04B46CAF800901046401EF9
:1035D000FDD1DBF80000C0F340002B60521EFDD18E
:1035E00044EAC070F1B3086059E008681F24C107BD
:1035F00001D03E6000E01E60CAF800901146491EEE
:10360000FDD1C5F800901146491EFDD14008641E49
:10361000002CECD1AEF1010EBEF1000F2FD0C0078F
:1036200001D03E6000E01E604946CAF80090104696
:10363000401EFDD129601046401EFDD1AEF1010EA5
:10364000BEF1000F0DD0CAF800101046401EFDD18B
:1036500029601046401EFDD1AEF1010EBEF1000FF3
:10366000F1D100E01BE02B46C5F800C0CAF80010FD
:103670001046401EFDD11960521EFDD10FE0C5F865
:1036800000C0C00701D03E6000E01E604946CAF895
:1036900000901046401EFDD12960521EFDD1CAF88F
:1036A000009016494A681046401EFDD1C5F80090AA
:1036B0001046401EFDD1CAF800C0CAF8009010465E
:1036C000401EFDD1C5F800901046401EFDD13E6061
:1036D0000B7A09E0CAF800901046401EFDD1C5F8EB
:1036E00000901146491EFDD15B1E581CF2D1009876
:1036F000C0B2BDE8F88F0000100C0140BC280020CB
:10370000140801402DE9F04F5E4B4FF400751D6029
:103710001E151F1D3E60DFF87081D8F804100A46A0
:10372000521EFDD11E600A46521EFDD13D603E6014
:103730000A46521EFDD11E600A46521EFDD13E6051
:103740000A46521EFDD11E600A46521EFDD198F84F
:103750001740A44654B13E600A46521EFDD11E6079
:103760000A46521EFDD1641E002CF4D1474C4FF086
:103770000109C4F800903E600A46521EFDD11E6049
:103780000A46521EFDD13E600A46521EFDD11E6001
:103790000A46521EFDD13E600A46521EFDD11E60F1
:1037A0000A46521EFDD14FF01F0ADFF8E0B0ABF120
:1037B000040BC20702D0CBF8009001E0C4F80090DF
:1037C0003E600A46521EFDD11E600A46521EFDD1C1
:1037D0004008AAF1010ABAF1000FEAD198F81620C0
:1037E000A2EB0C02521E3AB3C00702D0CBF80090F5
:1037F00001E0C4F8009034463E600846401EFDD10A
:103800001C600846401EFDD1521E52B13C60084665
:10381000401EFDD11C600846401EFDD1521E002AEC
:10382000F4D11A461D603C600846401EFDD114606C
:103830000846401EFDD110E01D60C00702D0CBF845
:10384000009001E0C4F8009032463E600846401EF9
:10385000FDD11A600846401EFDD13E600846401E5C
:10386000FDD11E600846401EFDD13D603E60084609
:10387000401EFDD11E60491EFDD1CBF80090BDE871
:10388000F08F0000100C0140BC28002014080140FB
:1038900008B51E48416941F001014161406900F0ED
:1038A000010000901B481A4901604FF480414160BB
:1038B000402181608021C1600021016141618161FD
:1038C000C161FEF735FC002211460C20FEF7D8FD41
:1038D0000C20FEF7C7FD002211460D20FEF7D0FD9B
:1038E0000D20FEF7BFFD002211461020FEF7C8FD97
:1038F0001020FEF7B7FD002211461120FEF7C0FD93
:10390000BDE808401120FEF7ADBD000000100240E8
:10391000080002406C1100202DE9F04F85B0002412
:1039200001940294039404943048816941F0100199
:103930008161816901F010010091816941F02001EC
:103940008161816901F020010091816941F00401E8
:103950008161816901F004010091816941F00801F0
:103960008161806900F008000090DFF884904FF4D6
:103970006047002239464846FEF75EFDDFF874A036
:103980004FF48878002241465046FEF755FDDFF897
:1039900068B0002241F638415846FEF74DFD0197C8
:1039A0000125029503940226049601A94846FEF7D4
:1039B0003DFC012239464846FEF73EFDCDF8048025
:1039C00002950394049601A95046FEF72FFC41F29C
:1039D0003B000190029503940320049001A95846EE
:1039E000FEF724FC05B0BDE8F08F00000010024097
:1039F0000010014000080140000C01400C480B4938
:103A000001604FF48271416000218160C160022237
:103A100002610122426152028261C161016241621E
:103A200081620A21C162FEF771BD000000380040CA
:103A3000DC13002010B5104C0E4820600F48606069
:103A40000020A060E06020610C216161A061E06164
:103A50002046FEF7DFFF2068C16841F01001C16019
:103A60000748A4F1440102782046BDE81040FFF762
:103A7000BFB8000000380140F411002080841E000F
:103A80002100002010B5104C0E4820604FF4E130AA
:103A900060600020A060E06020610C216161A06195
:103AA000E0612046FEF7B6FF2068C16841F01001D2
:103AB000C1600648A4F1840102782046BDE81040A8
:103AC000FFF796B800440040341200202100002087
:103AD000FEE70000F8B5012500220C231146142052
:103AE000009500F03DFB0C230122002120200095D1
:103AF00000F036FB0C23022200212C20009500F060
:103B00002FFB0C23032200213820009500F028FB16
:103B10000C23042200214420009500F021FB0C23FB
:103B2000052200215020009500F01AFB0C230622EC
:103B300000215C20009500F013FB0C2307220021DC
:103B40006820009500F00CFB0C2320A219460020F1
:103B5000009500F020FA0024214F1E2604EB4400BB
:103B600007EB800206EB4000C0B20C231821009541
:103B700000F012FB641CE4B20C2CEFD30024194FAC
:103B800004EB440007EB800206EB4000C0B20C23BC
:103B90002421009500F000FB641CE4B20C2CEFD350
:103BA0000024114F04EB440007EB800206EB4000B9
:103BB000C0B20C233021009500F0EEFA641CE4B290
:103BC0000C2CEFD3BDE8F84000F0F6B83D3D3D3D8C
:103BD0003D3D3D3D3D3D3D3D3D3D3D3D0000000009
:103BE0001AA50008AAA500083AA600087047000018
:103BF00010B40021084B0022002003EBC0046254E3
:103C0000401CC0B28028F8D3491CC9B20829F3D39C
:103C100010BC00F0D1B80000BC24002000B5002189
:103C20008D2000F0F3FA0021142000F0EFFA0021BB
:103C3000AF205DF804EB00F0E9BA000010B57F2872
:103C400013D83F2911D80723A3EBD103DBB201F02E
:103C50000701C1F107040121A140C9B2054C04EBE1
:103C6000C0001AB1C25C0A43C25410BDC25C8A4390
:103C7000C25410BDBC240020F0B585B04B4881690A
:103C800041F001018161806900F001000090484924
:103C9000486820F0E06040F0007048603B200190F0
:103CA0000127029703200490424C01A92046FEF709
:103CB000BDFA01223B212046FEF7BEFB3D4E082403
:103CC00010363460C820FEF79FFA351D2C60C820DE
:103CD000FEF79AFA34602F600021AE2000F096FAC9
:103CE0000021D52000F092FA0021502000F08EFA39
:103CF0000021A82000F08AFA00213F2000F086FA77
:103D00000021D32000F082FA0021084600F07EFA5C
:103D10000021402000F07AFA00218D2000F076FA90
:103D20000021142000F072FA0021202000F06EFA29
:103D30000021022000F06AFA0021A12000F066FABA
:103D40000021C02000F062FA0021DA2000F05EFAC3
:103D50000021122000F05AFA0021812000F056FACA
:103D60000021EF2000F052FA0021D92000F04EFA95
:103D70000021F12000F04AFA0021DB2000F046FA91
:103D80000021302000F042FA0021A42000F03EFA89
:103D90000021A62000F03AFA0021AF2000F036FA08
:103DA000FFF73CFFFFF724FF05B0F0BD0010024015
:103DB00000000140000C014070B500250F4E05F1D8
:103DC000B000C0B2002100F021FA0021084600F046
:103DD0001DFA0021102000F019FA002406EBC4009F
:103DE0000121405D00F012FA641CE4B2802CF5D38E
:103DF0006D1CEDB2082DE2D370BD0000BC24002084
:103E00002DE9FF4F8246DDF834B00C469946A046B6
:103E100000272DE00298194900EB400001EB8000DB
:103E2000C65D0025300605D55A4621465046FFF7A7
:103E300005FF07E0BBF1000F12D0002221465046DB
:103E4000FFF7FCFE7006060E641CE4B2A4EB08004B
:103E5000484507D144460AF1010A0AF0FF0A05E085
:103E60000122EBE76D1CEDB2082DDBD37F1CFFB206
:103E70004F45CFD3BDE8FF4FFFF79EBF62A20008BA
:103E80002DE9F04F83460D469846A946203A02F0A8
:103E9000FF0A002633E0B8F10C0F0CD01B4800EBF2
:103EA0000A10845D002720060CD529465846099A39
:103EB000FFF7C4FE0DE016490AEB4A0001EB800053
:103EC000845DEFE7099890B1002229465846FFF734
:103ED000B5FE6006040E6D1CEDB2A5EB0900404571
:103EE00007D14D460BF1010B0BF0FF0B05E0012252
:103EF000EBE77F1CFFB2082FD5D3761CF6B2464500
:103F0000C9D3BDE8F04FFFF757BF0000729C00080F
:103F1000FE9700082DE9FF4F81B08046DDF838B0EC
:103F200092461D46002600244FF001094FEA5B0728
:103F30001FE0281B401EC1B20A2003F05CFFBAFB41
:103F4000F0F00A21B0FBF1F201FB120026B9691E64
:103F50008C4201DAA0B101263030C2B207FB0480E6
:103F6000C0B25B46CDF800900299FFF789FF641C50
:103F7000E4B2AC42DDD305B0BDE8F04FFFF71CBFA3
:103F800007FB0480C0B25B462022CDF80090029966
:103F9000FFF776FFEBE72DE9F84104460D4616469C
:103FA0009846079F14E07A2C02D900241035EDB210
:103FB0003A2D03D900242546FFF71AFE00973278E0
:103FC000434629462046FFF75BFF0834E4B2761CDF
:103FD00030780028E7D1BDE8F841FFF7EDBE0000DA
:103FE0002DE9FE4F04F028F800287CD0FFF700FEF2
:103FF000DFF810810A2198F80000B0FBF1F088F892
:104000000000DFF8049100EB800009EB8001012241
:104010003E4802F03FFD3E4E4FF40054012570B182
:104020000C233CA21E2100200095FFF7B4FF03B033
:1040300021463046BDE8F04F0122FEF7FDB90022CF
:1040400021463046FEF7F8F90024364E232704EBCC
:10405000440006EB800207EB4000C0B20C230021B5
:10406000009500F099F8641CE4B2082CEFD333E01B
:104070002D48007801283FD02CA003C8CDE90101CC
:104080000C232CA230213E200095FFF784FF0C2347
:104090002CA230211E200095FFF77DFF002401AEE9
:1040A0003E274FF4FA7A04EB4400009507EB4000FA
:1040B000325DC0B20C233021FFF7E2FE5046FEF71E
:1040C000A3F8641CE4B2042CEDD30C231FA230210E
:1040D00041200095FFF75FFF98F8000000EB80009B
:1040E00009EB800000E00BE0FDF71EFE0028BFD0CA
:1040F000BDE8FE4F03F0A0BF184900200870F7E7A5
:10410000BDE8FE8F14000020EA0E0020CC03002042
:10411000001001404F70656E2042696E2066616933
:104120006C656400CAA60008150000202E2E2E2EF5
:1041300000000000202020202020202020202020FF
:10414000200000005741495400000000202020209A
:104150002020202020202020202020001D000020C2
:104160002DE9F84180460F4615461E466806012493
:10417000020E3346394640460094FFF741FE04EBF9
:104180004500C2B208EB5600C0B23346394600942F
:10419000FFF736FEBDE8F8812DE9FF4F8246DDF8D6
:1041A00034B00C469946A046002728E00298C65D28
:1041B0000025300605D55A4621465046FFF73EFDFC
:1041C00007E0BBF1000F12D0002221465046FFF756
:1041D00035FD7006060E641CE4B2A4EB08004845E9
:1041E00007D144460AF1010A0AF0FF0A05E001225C
:1041F000EBE76D1CEDB2082DDBD37F1CFFB24F4502
:10420000D4D3BDE8FF4FFFF7D7BD0000F0B50D4A8E
:104210000226151F002901D02E6000E01660002143
:10422000102420231360070601D52C6000E01460E1
:104230002B604006000E491CC9B20829F2D32E603B
:10424000F0BD0000140C01402DE9F04186B00024BF
:1042500004941D48816941F008018161806900F082
:1042600008000190194940F60160086040F20160C1
:1042700002900126039603250595DFF8508002A9D8
:10428000A8F110084046FDF7D1FFF0020290112777
:1042900003970496059502A94046FDF7C7FF022043
:1042A000029003940494059502A94046FDF7BEFFD1
:1042B0007003029003970494059502A90448FDF742
:1042C000B5FF06B0BDE8F08100100240100C0140BF
:1042D000001001402DE9FF410024029418494FF4D9
:1042E000606008604FF4C0600090012701970325CB
:1042F0000395DFF84C806946A8F110084046FDF7A9
:1043000095FFF802009011260196029703956946E1
:104310004046FDF78BFF40F60300009001940294A5
:10432000039569464046FDF781FF780300900196AA
:104330000294039569460348FDF778FFBDE8FF81C5
:10434000100C01400010014070470000402101485E
:10435000FEF764B8000C014080210148FEF75EB80A
:10436000000C01404FF480710148FEF757B800007F
:10437000000C014038B504460B4600920022802113
:10438000204600F01BF828B1606D40F02000606509
:10439000032038BD002038BD3EB50190FF24012325
:1043A00002AA01A904480094FEF778F900B102942A
:1043B0009DF808003EBD0000DC1300202DE9F0410F
:1043C00004460E4617461D46DDF8188008E0681CB6
:1043D00006D0FEF739F8A0EB0800A8420BD255B181
:1043E0002068806836EA00002FD00020B842EED165
:1043F0000020BDE8F0812068416821F0E0014160C3
:104400006068B0F5827F0BD1A068B0F5004F02D094
:10441000B0F5806F04D12068016821F0400101608F
:10442000A06AB0F5005F09D12068016821F400514D
:1044300001602068016841F400510160012050349E
:104440006070002020700320D3E70120CEE7704782
:10445000034A5278002A01D000F004B800F05EB997
:10446000BC2800202DE9F34F85B00546A94E4FF436
:104470000079C6F8009006F104083715C8F80070F6
:104480003760E80702D0C6F8009001E0C8F8009055
:10449000C8F80070376029466808C20702D0C6F81D
:1044A000009001E0C8F80090C8F80070376001443F
:1044B000A808C20702D0C6F8009001E0C8F8009032
:1044C000C8F8007037600144E808C20702D0C6F897
:1044D000009001E0C8F80090C8F800703760084408
:1044E000C00702D0C6F8009001E0C8F80090C8F8F4
:1044F000007037604FF0000AC8F80090C8F80070EC
:104500003760C6F80090C8F800703760CDF808A092
:10451000CDF80CA0CDF804904FF0020BCDF810B000
:104520007C4801A91038FDF781FE7B48007D0146DB
:1045300028B1C8F800703760401E0028F9D1C8F8CB
:104540000070DFF8D0E1AEF1080EDEF80000C0F335
:1045500040203760C8F80070DEF80020C2F3402227
:10456000376040EA4200C8F80070DEF80020C2F36D
:104570004022376040EA82044FF0010C012C1ED02B
:10458000022C71D0042C6FD0213129B1C8F80070F1
:104590003760491E0029F9D1CDF80CA0CDF8049060
:1045A000CDF808C0CDF810B05A4801A91038FDF771
:1045B0003DFEC6F80090E0B207B0BDE8F08FA80756
:1045C00035D5002200212020C8F80070DEF8003028
:1045D000C3F3402337601944520842EAC372401EB5
:1045E0000028F1D1C8F80070DEF80000400A3760FA
:1045F0004140C80700D00824069808B10698026018
:104600004548007D28B1C8F800703760401E00287A
:10461000F9D1CDF80CA0CDF80490CDF808C0CDF8B4
:1046200010B03C4801A91038FDF700FE31E029B177
:10463000C8F800703760491E0029F9D1CDF80CA0E8
:10464000CDF80490CDF808C0CDF810B0314801A9DC
:104650001038FDF7EBFD0698006800222021C30703
:1046600003D0C6F8009002E022E0C8F80090C8F835
:104670000070376002444008491E0029EFD1D0077E
:1046800002D0C6F8009001E0C8F80090C8F80070A9
:1046900037602148007A38B1C8F80090C8F8007037
:1046A0003760401E0028F9D1C6F80090E0B283E7D9
:1046B000194A507D40B1A80706D52120C8F80070DE
:1046C0003760401E0028F9D129B1C8F80070376062
:1046D000491E0029F9D1CDF80CA0CDF80490CDF8F1
:1046E00008C0CDF810B00B4801A91038FDF79EFDA9
:1046F0000948407D50B1A80708D4C8F8009021208F
:10470000C8F800703760401E0028F9D1C6F8009044
:10471000E0B251E7100C0140BC2800202DE9F34F16
:1047200085B006460022F54C4FF40079C4F800909D
:1047300004F104082715C8F80070F14D68680146B7
:10474000491EFDD127600146491EFDD1F10702D067
:10475000C4F8009001E0C8F80090C8F80070014665
:10476000491EFDD127600146491EFDD193197208EB
:10477000D10702D0C4F8009001E0C8F80090C8F852
:1047800000700146491EFDD127600146491EFDD13A
:104790001344B208D10702D0C4F8009001E0C8F871
:1047A0000090C8F800700146491EFDD127600146FF
:1047B000491EFDD11344F208D10702D0C4F800907D
:1047C00001E0C8F80090C8F800700146491EFDD10C
:1047D00027600146491EFDD19918C90702D0C4F8C7
:1047E000009001E0C8F80090C8F800700146491E2A
:1047F000FDD127600146491EFDD18A46C8F80090C8
:10480000C8F800700146491EFDD127600146491EC7
:10481000FDD1C4F80090C8F800700146491EFDD1D2
:104820002760401EFDD1CDF808A0CDF80CA0CDF832
:1048300004904FF0020BCDF810B0B04801A9103829
:10484000FDF7F4FC2A7D11000CD06B68C8F80070ED
:104850001846401EFDD127601846401EFDD1521E4D
:10486000002AF3D1C8F8007068680246521EFDD1D4
:10487000DFF888C2ACF1080CDCF80020C2F340225B
:10488000276003465B1EFDD1C8F8007003465B1E1F
:10489000FDD1DCF80030C3F3402327608646BEF12B
:1048A000010EFCD142EA4303C8F800700246521ED2
:1048B000FDD1DCF80020C2F34022276005466D1EC2
:1048C000FDD143EA8205012D24D0022D71D0042DA3
:1048D0006FD0213159B1C8F800700246521EFDD187
:1048E00027600246521EFDD1491E0029F3D1CDF8A2
:1048F0000CA0CDF8049001200290CDF810B07F48B4
:1049000001A91038FDF792FCC4F80090E8B207B096
:10491000BDE8F08FB2074DD54FF0000E00232022E6
:10492000C8F800700146491EFDD1DCF80010C1F343
:10493000402627600146491EFDD133444FEA5E01FF
:1049400041EAC67E521E002AEAD13A46C8F80070F3
:104950006B4E0146491EFDD1DCF80010C1F3402129
:104960002260401EFDD14B40D80700D00825069894
:1049700010B10698C0F800E0337D63B17668C8F8DE
:1049800000203046401EFDD122603146491EFDD137
:104990005B1E002BF3D1CDF80CA0CDF804900120C4
:1049A0000290CDF810B0554801A91038FDF73EFC33
:1049B00047E05CE059B1C8F800700246521EFDD1D4
:1049C00027600246521EFDD1491E0029F3D1CDF8C1
:1049D0000CA0CDF8049001200290CDF810B047480B
:1049E00001A91038FDF722FC069800684FF0000C72
:1049F000202643494B68C10702D0C4F8009001E06B
:104A0000C8F80090C8F800701946491EFDD127600B
:104A10001A46521EFDD184444008761E002EEAD16B
:104A20005FEACC7002D0C4F8009001E0C8F80090B2
:104A30003946C8F800701846401EFDD121605B1E43
:104A4000FDD12F48017A71B1C8F800904268C8F8CA
:104A500000701046401EFDD127601046401EFDD15B
:104A6000491E0029F3D1C4F80090E8B24FE7DFF8FF
:104A700090C09CF8152072B1B2070CD52123C8F85C
:104A800000700246521EFDD127600246521EFDD123
:104A90005B1E002BF3D159B1C8F800700246521EBC
:104AA000FDD127600246521EFDD1491E0029F3D1D7
:104AB000CDF80CA0CDF8049001200290CDF810B0F4
:104AC0000E4801A91038FDF7B1FB0D48417D89B1B1
:104AD000B1070FD4C8F8009021214268C8F80070CF
:104AE0001046401EFDD127601046401EFDD1491ED4
:104AF0000029F3D1C4F80090E8B208E7100C014097
:104B0000BC2800202DE9F04100220023134C124F55
:104B10004FF40076A7F1040C4FF48068656815E047
:104B200013B911F8012B0823D40702D0CCF8006088
:104B300000E03E60C7F800802C46641EFDD1CCF832
:104B400000802C46641EFDD152085B1E401E441C92
:104B5000E6D1BDE8F0810000140C0140BC28002023
:104B60002DE9F84F314F324D01263978A8784FF0B2
:104B70000008012904D0032913D0022923D049E0D9
:104B80000C30C0B2A8703C2801D33C20A87000961D
:104B9000A8780C230C38C1B226A26E20FFF7FBF9CF
:104BA00038E00C2801D30C38A870A87808B985F82B
:104BB00002800096A8780C230C30C1B21DA26E2092
:104BC000FFF7E9F926E00C21B0FBF1F01A49087073
:104BD0001A480521017002214170FFF709F80024ED
:104BE000DFF85C904FF01D0A04EB440009EB8002F3
:104BF0000AEB4000C0B20C2318210096FFF7CCFA54
:104C0000641CE4B20A2CEFD34FF4FA70FDF7FCFAFF
:104C1000FEF7EEFF87F8008000960C2309A2A97822
:104C20006E20FFF7B8F9BDE8F88F000015000020EE
:104C30000400002020200000160000201D0000209D
:104C40002AA700083C3C00002DE9F84F314F01260F
:104C5000314D38784FF00008012804D0032814D0D3
:104C6000022823D04AE068790A30C0B268713C2833
:104C700001D33C206871009668790C230A38C1B2D0
:104C800026A26E20FFF787F938E068790A38C0B2AB
:104C9000687108B985F80580009668790C230A3098
:104CA000C1B21EA26E20FFF776F927E0FEF7A0FF43
:104CB0000024DFF86C904FF01D0A04EB440009EB70
:104CC00080020AEB4000C0B20C2318210096FFF7C7
:104CD00063FA641CE4B20A2CEFD368790A21B0FBB2
:104CE000F1F0104908704FF4FA70FDF78DFAFEF7F5
:104CF0007FFF0D48052101700221417087F8008077
:104D000000960C2309A269796E20FFF744F9BDE8EB
:104D1000F88F000015000020040000202020000073
:104D20002AA70008440000201D0000203C3C000091
:104D30002DE9F84FDFF81C91DFF81C81002799F866
:104D4000001098F801000125012904D0032916D08C
:104D5000022934D026E00C30C0B288F80100302897
:104D600002D3302088F80100009598F801000C2348
:104D70000C38C1B239A20020FFF70DF912E00C384F
:104D8000C0B288F80100182802D2182088F8010063
:104D9000009598F801000C230C30C1B22FA200201E
:104DA000FFF7F9F889F8007000950C232CA298F809
:104DB00001100020FFF7EFF80020BDE8F88FFEF7A4
:104DC00017FF254E98F80100F61D4FF0050B4FF028
:104DD0001E0A182802D0242816D01BE07570042063
:104DE000307000241F4904EB440001EB80020AEB01
:104DF0004000C0B20C2318210095FFF7CDF9641CC8
:104E0000E4B20C2CEED305E00220707086F800B0FE
:104E100089F8007098F80100302816D1062030700B
:104E200086F801B00024DFF8408004EB440008EB72
:104E300080020AEB4000C0B20C2318210095FFF756
:104E4000ABF9641CE4B20C2CEFD389F800707078D5
:104E5000B3E700001500002016000020202000000D
:104E60003E3E00001AA500083AA60008F8B5234EF9
:104E7000234C002731780125A078012904D003298B
:104E800013D0022923D030E00C30C0B2A0700C281F
:104E900001D30C20A0700095A0780C230C38C1B26F
:104EA00018A26E20FFF777F81FE00C2801D30C380A
:104EB000A070A0780C2800D2A7700095A0780C23D1
:104EC0000C30C1B20FA26E20FFF765F80DE00C495F
:104ED000C91D10B10C2804D007E00D7003204870E4
:104EE00003E00220087004204870377000950C23FE
:104EF00005A2A1786E20FFF74EF8F8BD150000203E
:104F000016000020202000003C3C00002DE9F84362
:104F10003B4C012500950C2338A2E1786E20FFF769
:104F20003AF8384F4FF000083878012804D00328A9
:104F300014D0022825D05CE0E0780C30C0B2E070DC
:104F40000C2801D30C20E0700095E0780C230C387D
:104F5000C1B22DA26E20FFF71EF84AE0E0780C28BF
:104F600001D30C38E070E07808B984F8038000952C
:104F7000E0780C230C30C1B223A26E20FFF70BF8AF
:104F800037E0FEF735FE1E49E0780722C91D1E26D0
:104F900010B10C2817D02CE00A70062048700024AD
:104FA000DFF8689004EB440009EB800206EB400058
:104FB000C0B20C2318210095FFF7EEF8641CE4B290
:104FC0000A2CEFD315E0082008704A700024DFF89F
:104FD000409004EB440009EB800206EB4000C0B2B5
:104FE0000C2318210095FFF7D7F8641CE4B20A2CB3
:104FF000EFD387F80080BDE8F88300003C3C000058
:1050000016000020150000202020000002A8000843
:105010007AA80008AFF300800CB50022019200923C
:105020002548016841F480310160016801F40031D4
:1050300000910199491C019100990029F5D001685E
:10504000890302D50121009100E000920099012915
:1050500030D11A490A6842F010020A600A6822F048
:1050600007020A600A6842F004020A60416841606F
:1050700041684160416841F480614160416821F4C8
:105080007C114160416841F4E8114160016841F0E0
:105090008071016001688901FCD5416821F003013C
:1050A0004160416841F0020141604168C1F3810102
:1050B0000229FAD10CBD000000100240002002407D
:1050C00010B5154CE11F20788A79904202D0887182
:1050D000FEF78EFD207807281DD2DFE800F00408D7
:1050E0000C101C141800BDE81040FEF7F3BCBDE81E
:1050F0001040FCF74BBDBDE81040FCF7F1BCBDE82B
:105100001040FEF76DBFBDE81040FCF775BDBDE86F
:105110001040FCF7B9BD10BD1D00002010B5002ADD
:1051200007D0034611F8014B03F8014B14B1521E8E
:10513000F8D110BD002101E003F8011B521EFBD184
:1051400010BD000010B5074C2078401CC0B2207084
:105150000A2803D9FBF788FC00202070BDE8104026
:10516000FDF778B9B403002010B50F48016841F08D
:105170000101016041680D4A1140416001680C4A1B
:1051800011400160016821F480210160416821F42F
:10519000FE0141604FF41F018160FFF73BFF0549AD
:1051A0004FF00060086010BD001002400000FFF8E2
:1051B000FFFFF6FE08ED00E010B5406A0021C18552
:1051C000C184FDF79DFB10BD70B5446A206840693D
:1051D000C0F3C01094F839100025212904D118B16A
:1051E000E584204600F053F820684069C0F3801041
:1051F00094F83A10222904D118B1E585204600F030
:105200002BF8E06B40F01000E0632046FDF778FBE0
:1052100070BD10B50146486A09680968890613D44B
:105220000021C1850168CA6822F48072CA600168E1
:105230004A6922F001024A6101684A6922F040028B
:105240004A61202180F83A10FDF720FD10BD10B50D
:10525000406AFDF71CFD10BD0168CA6822F4907217
:10526000CA6001684A6922F001024A61202180F87F
:105270003A10704710B50168CA6822F04002CA604F
:10528000202180F83910FDF769FD002010BD01686C
:10529000CA6822F0C002CA60202180F83910704725
:1052A00010B590F83A10222901D0022010BD816873
:1052B000B1F5805F11D0016919B30168496801F047
:1052C0007F03816A4A1C82620B70C18D491E0904EA
:1052D000090CC1851CD0002010BD816A02693AB159
:1052E00002685268D2B20A80816A491C8162ECE786
:1052F00002685268C2F308020A80816A891C8162CE
:10530000E3E701684A68816A4B1C83620A70DCE744
:105310000168CA6822F02002CA600168CA6822F4E3
:105320008072CA6001684A6922F001024A61202144
:1053300080F83A10FDF7AAFC002010BD2DE9F041DD
:10534000044620680169E26821F44051114301617B
:10535000A16820690143606901432068C26841F285
:105360000C639A430A43C26020684169A26921F430
:1053700040711143416135492068642532268842D5
:1053800032D1FDF7B3F800EBC00101EB001061680A
:105390006FF018078900B0FBF1F2B2FBF5F2B0FB39
:1053A000F1F37A4303EB8202B0FBF1F306EB021256
:1053B000B2FBF5F2B3FBF5F302F0F00202EB0312DD
:1053C000B0FBF1F3B0FBF1F0B0FBF5F0784303EB89
:1053D000800006EB0010B0FBF5F0216800F00F0034
:1053E00010448860BDE8F081FDF770F800EBC00163
:1053F00001EB001061686FF018078900B0FBF1F253
:10540000B2FBF5F2B0FBF1F37A4303EB8202B0FB9F
:10541000F1F306EB0212B2FBF5F2B3FBF5F302F087
:10542000F00202EB0312B0FBF1F3B0FBF1F0B0FBC2
:10543000F5F0784303EB800006EB0010B0FBF5F0CD
:10544000216800F00F0010448860CBE7003801406D
:1054500090F83910212901D0022070478168B1F5F8
:10546000805F0CD0016A4A1C0262026809785160B0
:10547000C18C491E0904090CC18410D019E0016ACD
:1054800002680988C1F308015160016919B1016A14
:10549000491C0162ECE7016A891C0162E8E70168C6
:1054A000CA6822F08002CA600068C16841F0400109
:1054B000C160002070472DE9F04104460E461746B2
:1054C0009846069D1DE0681C1BD02DB1FCF7BCFF63
:1054D000A0EB0800A84214D92068C16821F4D0715B
:1054E000C1602068416921F001014161202084F8F8
:1054F000390084F83A00002084F838000320BDE821
:10550000F0812068006836EA000004D00020B8422C
:10551000D9D00020F3E70120F9E7000008B50F48D3
:1055200000680168C943C90612D401684168009146
:10553000016840680948FDF7B7F909480068406804
:1055400008490978081A08490870084901200870B4
:10555000BDE808400148FDF7D5B90000F41100206E
:10556000B8120020210000201F0000202000002091
:1055700008B50F4800680168C943C90612D401681C
:1055800041680091016840680948FDF78DF90948B4
:105590000068406808490978081A084908700849ED
:1055A00001200870BDE808400148FDF7ABB90000D4
:1055B00034120020FC120020210000201F000020D7
:1055C0002000002070B5074E074C47F6FF7505E038
:1055D000258001F00F01304603F01EFB21880804EE
:1055E000F6D470BDFC290020445C00402DE9F04158
:1055F0001F4F204D47F6FF7605E02E8004F00F0187
:10560000384603F009FB2C882004F6D4DFF86880C4
:1056100060054FF000060BD54FF6FF30288008F1EB
:1056200004000680384603F0ADFD8020A8F8000095
:10563000200511D54FF2FF702880B8F80000400611
:1056400007D0A8F800600B48001F018821F4006112
:105650000180384603F0C8F9E00405D54EF6FF7026
:105660002880384603F0B4F92E80BDE8F0810000B0
:10567000FC290020445C00404C5C0040FEE7000038
:1056800070B5040300F042F900F0E8F80F4E4FF453
:105690008055002229463046FCF7CEFE2020FEF73A
:1056A0007BFEC4F30740FEF777FEC4F30720FEF746
:1056B00073FEE0B2FEF770FE012229463046FCF789
:1056C000BBFEBDE8704000F0C9B80000000C01400E
:1056D000F0B585B000240194029403940494FEF77D
:1056E0008DF92048C16941F48041C161C16901F46B
:1056F00080410091816941F008018161806900F079
:10570000080000904FF48055019501200290039409
:1057100003260496144F01A93846FCF787FD0122A1
:1057200029463846FCF788FE4FF4204101910220BB
:105730000290049601A93846FCF778FDA800019074
:105740000294039401A93846FCF770FD00F040F87C
:1057500006494880FF2802D0002005B0F0BD012096
:10576000FBE7000000100240000C01402200002076
:105770002DE9F04105460C461646DFF850804FF4FF
:105780008057002239464046FCF756FE0320FEF7BC
:1057900003FEC4F30740FEF7FFFDC4F30720FEF746
:1057A000FBFDE0B2FEF7F8FD002405E0FF20FEF768
:1057B000F3FD2855641CA4B2B442F7D339464046E1
:1057C000BDE8F0410122FCF737BE0000000C0140AB
:1057D0002DE9F0410024134F4FF48056002231464A
:1057E0003846FCF729FE9020FEF7D6FD0020FEF794
:1057F000D3FD0020FEF7D0FD0020FEF7CDFDFF20F9
:10580000FEF7CAFD44EA0025FF20FEF7C5FD40EA89
:105810000504012231463846FCF70EFE2046BDE85D
:10582000F0810000000C014070B50B4D4FF4805426
:10583000002221462846FCF7FFFD0520FEF7ACFDBF
:10584000FF20FEF7A9FD0646012221462846FCF767
:10585000F3FD304670BD0000000C014010B5FFF7AD
:10586000E3FFC007FBD110BD2DE9F05F80468A46FB
:105870001546DFF894904FEA1A37CAF30B06C6F5BF
:105880008054A54233D82C4631E0311819F8011064
:10589000FF2903D1401C80B2A042F6D3A04214D20B
:1058A0003846FFF7EDFE002006E0821918F80010D8
:1058B00009F80210401C80B2A042F6D359464FF4BA
:1058C0008052484600F038F804E0224651464046EF
:1058D00000F032F8A54214D07F1C0026A044A24458
:1058E000281B85B24FF48054A54200D82C464FEABD
:1058F000073B4FF4805259464846FFF739FF0020D6
:10590000CAE7BDE8F09F0000BC14002070B5094D47
:105910004FF48054002221462846FCF78DFD0620D6
:10592000FEF73AFD21462846BDE870400122FCF70B
:1059300083BD0000000C01402DE9F04107460E46F2
:105940001546F0B2C0F58074A54200D82C464FF43D
:10595000807807E027442644281B85B24446A542A8
:1059600000D82C4622463146384600F005F8A542BC
:10597000F0D1BDE8F08100002DE9F04105460C466C
:105980001646FFF7C3FFDFF850804FF48057002220
:1059900039464046FCF750FD0220FEF7FDFCC4F3FB
:1059A0000740FEF7F9FCC4F30720FEF7F5FCE0B270
:1059B000FEF7F2FC002404E0285DFEF7EDFC641C19
:1059C000A4B2B442F8D3012239464046FCF734FD74
:1059D000BDE8F041FFF742BF000C014010B51E4C7E
:1059E0006078012805D0062803D0072801D0FFF7EA
:1059F00067FB607808282DD2DFE800F00408121851
:105A00001C202428BDE81040FFF792B91348016814
:105A100000291FD000210160BDE8104003F000BE46
:105A2000FFF724FABDE81040FAF794BDBDE8104036
:105A3000FFF70AB9BDE81040FFF792B8BDE8104083
:105A4000FFF764BABDE8104003F05CBEBDE810404B
:105A500003F004BE10BD00001D000020A8030020BC
:105A60000907090E002804DB00F1E02080F800148B
:105A7000704700F00F0000F1E02080F8141D70471F
:105A8000BFF34F8F05480168054A01F4E0611143F7
:105A90000160BFF34F8F00BFFDE700000CED00E099
:105AA0000400FA0502E008C8121F08C1002AFAD152
:105AB00070477047002001E001C1121F002AFBD18E
:105AC0007047000010B54FF4A8711B48FAF765FB4A
:105AD00019481AA101601CA181631EA1016720A1C0
