:020000040800F2
:10000000B826002001010008D72A0008F31E0008C6
:10001000D52A0008E7010008893400080000000024
:10002000000000000000000000000000DF2B0008BE
:100030007510000800000000DD2B000835320008B4
:100040001B0100081B0100081B0100081B01000820
:100050001B0100081B0100081B0100081B01000810
:100060001B0100081B0100081B0100081B01000800
:1000700045100008511000081B0100081B01000872
:100080005D100008691000081B010008A13300087A
:10009000C93300081B0100081B0100081B010008F0
:1000A0001B0100081B0100081B0100081B010008C0
:1000B0001B0100081B0100081B0100081B010008B0
:1000C0001B0100081B0100081B0100081B010008A0
:1000D0001B0100081B0100081B0100081B01000890
:1000E0001B0100081B0100081B010008DFF80CD0F1
:1000F00000F03CF80048004781380008B82600208E
:100100000648804706480047FEE7FEE7FEE7FEE7B1
:10011000FEE7FEE7FEE7FEE7FEE7FEE7A1320008A6
:10012000ED00000840EA01039B0703D009E008C97D
:10013000121F08C0042AFAD203E011F8013B00F8AC
:10014000013B521EF9D27047D2B201E000F8012BF8
:10015000491EFBD270470022F6E710B513460A4647
:1001600004461946FFF7F0FF204610BD064C074D28
:1001700006E0E06840F0010394E807009847103477
:10018000AC42F6D3FFF7B6FF104F0008304F00081F
:1001900070B58C1810F8015B15F0070301D110F849
:1001A000013B2A1106D110F8012B03E010F8016B76
:1001B00001F8016B5B1EF9D12B0705D40023521EF9
:1001C0000DD401F8013BFAE710F8013BCB1A921C61
:1001D00003E013F8015B01F8015B521EF9D5A1425F
:1001E000D8D3002070BDFEE72DE9F04F87B004465C
:1001F00005900020CDE9011001F10209C449087001
:10020000C44914F8012B8246CA75897D80468A420A
:1002100070D214F8015B002D6CD000BF14F8016B94
:10022000F10701D00B2100E00A218B46B10775D5FB
:10023000B8F1000F41D0B748DA4547890ED1F00632
:100240000CD46946304602F02DF8022817D17F1EE3
:1002500003D3AF4909780029F3D004E1BAF10A0FBA
:1002600003D00A20824601F067FEDFF8A4826946C7
:100270000E2002F017F8022804D04FF000080128E1
:10028000EBD108E07F1E03D398F800100029EED0D0
:100290004FF00008E7E0009989F80010009A09F192
:1002A0000101120A01F8012B009A120C01F8012B2E
:1002B000009A120E01F8012B8946F10650D5E1781B
:1002C00054F8040B934F61F31F600490B8895946AA
:1002D0000390DA4503D008468A4601F02DFEBB465E
:1002E0007F890021304601F0DDFF022803D001287C
:1002F00008D108E0DDE07F1E791C03D0844909782D
:100300000029EED0AFE0BBF80A706946304601F034
:10031000C9FF022803D0012818D107E041E07F1E61
:1003200014D37B4909780029EFD00FE0DBF81010D7
:10033000009A1140049A914208D00399491E0391F2
:10034000491C03D0724909780029DCD0DBF8102061
:1003500000990A4004998A4271D040F010006EE082
:10036000B8F1000F75D15946DA4503D008468A46E0
:1003700001F0E2FD6748DFF898B147890021304677
:1003800001F090FF022802D001286CD106E07F1E08
:1003900069D39BF800100029F0D064E04FF0010809
:1003A00057E0B8F1000F2DD0BAF10A0F03D00A20A0
:1003B000824601F0C1FD5748478969460E2001F089
:1003C00071FF022802D001284DD107E07F1E791C61
:1003D00049D04F4909780029EFD044E0009889F8C6
:1003E0000000009909F10100090A00F8011B0099B9
:1003F0004FF00008090C00F8011B0099090E00F8E5
:10040000011B8146E17854F8040B61F31F600090F2
:10041000B10603D53F49086101201AE05946DA4583
:1004200003D008468A4601F087FD3A48DFF8E0B07D
:1004300047896946304601F035FF022802D001287D
:1004400011D106E07F1E0ED39BF800100029F0D0DA
:1004500009E00299491C02912D49097819B96D1ECC
:100460007FF4DCAE09E045B114F8011B8A0701D521
:10047000C90600D5241D6D1EF5E7012838D1BAF153
:100480000A0F02D00A2001F057FD2248204EB8F191
:10049000000F458921D069460E2001F003FF022894
:1004A00002D0012824D105E06D1E21D33178002926
:1004B000F1D01DE0009989F80010009A09F10101BE
:1004C000120A01F8012B009A120C01F8012B009A74
:1004D000120E01F8012B89460AE000210E2001F0DE
:1004E000E1FE022804D16D1E02D331780029F4D038
:1004F000DDE901120A700199487001990598A9EB8C
:100500000101201A07B041EA0040BDE8F08F000069
:1005100060110020581400202DE9F84FDFF83C81CD
:100520000027044638460D4601F1030A88F800709A
:100530004B4914F8012BCA75897D8A4222D234F8BE
:10054000026B002E1ED014F8019B5FEAC97001D027
:100550000B2000E00A20834601F0EEFC5FEA897080
:100560005DD53F4844890021484601F09BFE0228A2
:1005700002D0012869D134E0641E66D398F80010D7
:100580000029F0D061E03EB9BBF10A0F02D00A2089
:1005900001F0D2FC4FF00E093148448969464846C3
:1005A00001F080FE022802D001284ED106E0641E30
:1005B0004BD398F800100029F0D046E000998AF853
:1005C0000010009A0AF10101120A01F8012B009AA9
:1005D000120C01F8012B009A120E01F8012B8A4629
:1005E0007F1C761ECFD230E0E17854F8040B61F323
:1005F0001F6000901A48B0F80A806946484601F02A
:1006000051FE022802D001281FD107E0B8F10108ED
:100610001BD3124909780029EFD016E07F1C761E03
:10062000E2D2BBF10A0F02D00A2001F085FC0C488F
:100630000A4E448900210E2001F034FE022804D124
:10064000641E02D331780029F4D02F70390A697002
:10065000A870AAEB0500BDE8F88F0000601100202B
:10066000581400202DE9FF470278A2F180031F2BC8
:1006700004D800F0A9F904B0BDE8F08701F8012B17
:1006800010F801CB0C46034601250220FF21C44E81
:100690000027C44A4FF00119BCF1170F77D2DFE8E9
:1006A0000CF00C375568FDFCFB76FA777F76767692
:1006B00076768287A5B2BCE2F9001A78611C002028
:1006C000062A21D006DC052A1ED2DFE802F01D1D15
:1006D0001D1D0C00F02A0DD0FD2A15D0FE2A11D0C8
:1006E000FF2A11D109E0B04802680A6040684860FA
:1006F000082009E01320087005E0402008704F70C2
:10070000022001E00D700120207000F10210B2E71C
:100710001A7822B1012A41D02170304639E193F88C
:1007200001804FF400551121CDE90051CDE902704F
:10073000DFF878926946484600F09AFD5FEAC87093
:10074000484601D0456129E0056127E026461C782E
:1007500034B1012C05D0022C07D000243470C4E041
:100760000124157002F000FAF8E7107002F0B4F9F5
:10077000F4E717704FF47C41CDE90017CDE9027022
:1007800069468B4800F074FD2770284601E103E1BB
:10079000188800EB4000C000401EFDD12770BCE768
:1007A00067702770F5E02146184600F035FBF0E051
:1007B000DE7818687F4B66F31F6028B17E49884257
:1007C00004D3557055600EE021700DE07B495770E1
:1007D0000144B1FBF0F0022803D90321B0FBF1F092
:1007E00000E00120506027701846D2E01D78591CA7
:1007F0000DB94FF48075284602F0F2FCED1DE808B3
:100800002770000456E0187800F00301491C1175A8
:10081000C0F380005075277067E004F8017B25461F
:100820000124264613F8017B17E000BF13F8018B63
:1008300099462A461946404601F0E6FC18F03F006A
:1008400000D14020C01DC0080444641C09EB000313
:100850005FEA086101D5054406447F1EE6D23046B2
:1008600064F31F4095E013F8011B002091750546C5
:100870000CE000BF02EB050C13F8016B8CF818605C
:1008800002EB450C6D1CACF8200030448D42F1D3D6
:1008900000230BE011E078E055E033E027E0D518C5
:1008A0002D7E401B02EB43055B1C28868B42F6D352
:1008B0002770080400F101106BE01078022813D1B2
:1008C0001878D075927D90420ED20E2001F034FB44
:1008D00001F030FC27706070010AA170010CE1701A
:1008E000000E2071364854E02170484651E01878D7
:1008F0001072B3F801005081B3F8030090812770A3
:10090000304846E0127818462146012A15D0022ABE
:1009100016D0431C13F8012B4AB100BF13F8014B4A
:10092000A50701D5E40600D51B1D521EF6D1181AE5
:100930000F7000044F70801C2BE000F04BF828E093
:10094000FFF752FC25E010781D46214601280BD008
:1009500002280DD00F704F70A7700321E878800730
:100960000BD541F4802014E0184600F0C3F902E0F2
:100970001846FFF7D1FD0146F0E7B5F801004FF446
:10098000802202EB8040084303E02146184600F035
:1009900029FB00F101106EE604F8011C48466AE6E6
:1009A0000100020058140020944D0008001001407E
:1009B000000C01400100040080A81201FF50250234
:1009C000050001000100050000784FF001120870D9
:1009D000104670472DE9F04F87B08B4601F10209B0
:1009E00004460590C1490020029008700190657886
:1009F000A41C8046002D6FD0DFF8F4A214F8016B20
:100A0000B1076AD5B8F1000F3BD0BAF80A7006F00A
:100A1000110001280AD0DFF8D48269460E2002F0C6
:100A2000DFF8022812D04FF0000805E06946304692
:100A300002F0D6F8022802D0012806D10FE07F1E6E
:100A400003D3AA4909780029F0D0FCE07F1E03D324
:100A500098F800100029E0D04FF00008F3E000996A
:100A600089F80010009A09F10101120A01F8012B1E
:100A7000009A120C01F8012B009A120E01F8012BBA
:100A80008946F1064DD5E17854F8040B61F31F60F7
:100A90000490BAF80C000390F00712D0BAF80A706C
:100AA0000021304602F09CF8022802D0012807D12C
:100AB00007E07F1E791C03D08C4909780029EFD00C
:100AC000C1E0BAF80A706946304602F089F8022897
:100AD00004D0012819D108E0D5E060E07F1E14D3CE
:100AE000824909780029EED00FE0DAF81020009949
:100AF0000A4004998A4208D00399491E0391491C6F
:100B000003D07A4909780029DBD0DAF8102000995F
:100B10000A4004998A4201D040F01000012816D101
:100B20003BE0BAF80A70F10715D0B8F1000F34D1E4
:100B30000021304602F054F8022802D0012806D1E4
:100B400006E07F1E7FD3694909780029F0D07AE05A
:100B50004FF0010821E06946304602F041F80228D2
:100B600002D001286FD106E07F1E6CD35F4909785F
:100B70000029F0D067E0009989F80010009A09F187
:100B80000101120A01F8012B009A120C01F8012B45
:100B9000009A120E01F8012B8946002148E0B8F1B5
:100BA000000F25D0BAF80A7069460E2002F018F836
:100BB000022802D0012846D106E07F1E43D34B49CC
:100BC00009780029F0D03EE0009889F800000099EB
:100BD00009F10100090A00F8011B00994FF0000813
:100BE000090C00F8011B0099090E00F8011B814651
:100BF000E17854F8040B61F31F600090B10603D54F
:100C0000CAF81000012014E0BAF80A7069463046AC
:100C100001F0E6FF022802D0012814D107E07F1E70
:100C2000791C10D0314909780029EFD00BE001215F
:100C300001910299491C02912C49097819B96D1E3C
:100C40007FF4DCAE09E045B114F8011B8A0701D539
:100C5000C90600D5241D6D1EF5E7012837D1B8F16E
:100C6000000F24D0BAF80A50204E69460E2001F039
:100C7000B7FF022802D0012829D105E06D1E26D336
:100C800031780029F1D022E0009989F80010009A0B
:100C900009F10101120A01F8012B009A120C01F866
:100CA000012B009A120E01F8012B89460FE00199E1
:100CB00069B1BAF80A500D4E00210E2001F090FFE4
:100CC000022804D16D1E02D331780029F4D0029994
:100CD0008BF800108BF801000598A9EB0B01201A86
:100CE00007B041EA0040BDE8F08F0000601100202D
:100CF000581400202DE9F84FDFF81481002704462E
:100D000038460D4601F1030A88F80070B4F8016016
:100D1000E41C002E73D014F8019BDFF8F8B05FEAF2
:100D200089715CD55FEAC9713CD0BBF80A400021EB
:100D3000484601F055FF022802D001285FD131E07A
:100D4000641E5CD398F800100029F0D057E026B953
:100D50005FEAC97001D04FF00E09BBF80A4069463E
:100D6000484601F03DFF022802D0012847D106E0A5
:100D7000641E44D398F800100029F0D03FE0009999
:100D80008AF80010009A0AF10101120A01F8012BF9
:100D9000009A120C01F8012B009A120E01F8012B97
:100DA0008A467F1C761ED2D229E0E17854F8040BE3
:100DB00061F31F600090BBF80A806946484601F065
:100DC0000FFF022802D0012819D107E0B8F101086D
:100DD00015D30F4909780029EFD010E07F1C761E4B
:100DE000E3D2BBF80A400A4E00210E2001F0F8FEC3
:100DF000022804D1641E02D331780029F4D02F7068
:100E0000390A6970A870AAEB0500BDE8F88F0000E8
:100E100060110020581400202DE9F04389464179E3
:100E2000D0F80260447861F31F665249057885B0B6
:100E3000E00701F1040206D0EB074FF4806001D017
:100E4000086000E01060A00706D5AB074FF4006013
:100E500001D5086000E01060600707D5A808C30747
:100E60004FF4005001D0086000E0106020064FF001
:100E7000000727D5E8095FEAC0783F480097019747
:100E8000029703974FF480534FF0020C07D00B608A
:100E90006946CDF80CC0009300F0EAF912E0136047
:100EA0001121CDE900310121CDE9021C694600F094
:100EB000DFF903F05BF831480490042204A93048BC
:100EC00003F086F92B49091FAEB32E48864200D99C
:100ED00006464FF0E020876106EBC602D200426171
:100EE00005220261E20704D00A68C2F38022AA4206
:100EF0001BD1A20705D50A68C2F3C022B2EB550F79
:100F000013D1620705D50A68C2F34032B2EB950FE0
:100F10000BD1A20601D56A0907D122060AD50A68B3
:100F2000C2F30032B2EBD51F04D00269C2F3004213
:100F3000002AD7D0076108680A68C0F38020C2F38E
:100F4000C02240EA42020868C0F3403042EA800210
:100F50000848083800680968C0F3803042EAC000D9
:100F6000090B40EAC11089F8000005B00648BDE849
:100F7000F0830000100C0140000C01400400FA0551
:100F80000CED00E0C0C62D0001000600134808B5B6
:100F9000002101704170222242600172642242816C
:100FA0008181012201610275417581750C48816959
:100FB00041F008018161816901F0080100918169B6
:100FC00041F010018161806900F01000009001F093
:100FD00083FDBDE8084001F0C7BD000058140020A3
:100FE00000100240F8B50446144800260D46027869
:100FF000012A03D0FF21022A10D10AE02179D4F876
:10100000010061F31F6000906946002001F0E8FDD7
:1010100010E02278C275807D824201D329700AE0F7
:10102000082000F089FF2179D4F8010061F31F60E6
:1010300001F05AFB2E700248F8BD00005814002041
:1010400001000500014800F03BB800004C130020EF
:10105000014800F035B8000008130020014800F0F6
:101060002FB80000D0130020014800F029B800007C
:101070001414002070477047002200F001B80000EF
:1010800030B50E4B054601205C7A012C15D8587AF4
:1010900000241C54587A03EB800045605D7A03F10C
:1010A00008002A54587A421C5A72303008703A208C
:1010B00048702F208870CC70002030BDAC16002006
:1010C0002DE9F05FC16B0C6801680B68D0F840C077
:1010D000042202FA0CF2494DDFF824A1494E4A4F8E
:1010E000DFF828B1DFF828E122422CD05A072AD5B0
:1010F0000A68920603D40A6822F004020A600168B2
:10110000A94201D1042219E0514501D1402215E044
:10111000B14202D14FF4806210E0B94202D14FF4E3
:1011200080420BE0594502D14FF4802206E0714520
:1011300002D14FF4800201E04FF080622F4908395C
:101140004A60C16A3BE04FF0020808FA0CF818EA5E
:10115000040F4FF000094FF0010235D05FEA8378A9
:1011600032D50B689B0605D40B6823F00A030B608D
:1011700080F821200168A94201D1022219E05145DD
:1011800001D1202215E0B14202D14FF4007210E0EB
:10119000B94202D14FF400520BE0594502D14FF44D
:1011A000003206E0714502D14FF4001201E04FF029
:1011B0000072124908394A6080F82090816A00293B
:1011C0001AD0BDE8F05F0847082505FA0CF525425E
:1011D00012D01B0710D50B6823F00E030B6090F89C
:1011E0004010C36B02FA01F15960826380F821203C
:1011F00080F82090016BE2E7BDE8F09F0800024014
:101200001C000240300002404400024058000240EE
:101210006C00024030B528B308C8134914221944A1
:10122000B1FBF2F18900C16310498163022141776A
:101230001A6843F6F0718A43D0E900142143D0E9DB
:1012400002452C43214304692143446921438469B5
:101250002143114319600021416301224277017744
:10126000084630BD012030BDF8FFFDBF0000024040
:101270002DE9F84FDFF8B891002409F1040A0AF1CA
:10128000040B23460F270BF1040EC9E00125A540EE
:101290002A40AA427DD1674ED1F804C0ACEB0608C3
:1012A000B44532D014DCBCF1030F3AD009DCBCF1F8
:1012B000000F2AD0BCF1010F1CD0BCF1020F31D1BC
:1012C0001DE0BCF1110F17D0BCF1120F2AD119E0AB
:1012D000B8F5881F19D006DCB8F5803F15D0B8F5F1
:1012E000801F1FD111E0B8F5001F0ED0B8F5041F04
:1012F00018D10AE0CB6815E0CB681B1D12E0CB6863
:1013000008330FE0CB680C330CE08B682BB1012B5A
:101310004FF0080303D0456104E0042302E00561B7
:1013200000E00023FF2A01D8064601E000F1040690
:101330004FEA840501D9A5F12005D6F8008007FA07
:1013400005FC28EA0C0803FA05F548EA0508C6F882
:1013500000804D68ED0062D5374DAE6946F001065C
:10136000AE61AD6924F0030605F001050095334D2B
:1013700006EB050CDCF80850A607360F07FA06F84E
:1013800025EA0805DFF8B880404503D14FF0000892
:1013900017E044E0DFF8AC80404502D14FF001088F
:1013A0000FE0DFF8A480404502D14FF0020808E0CA
:1013B000DFF89880404502D14FF0030801E04FF07C
:1013C000040808FA06F848EA0508CCF808804D68D1
:1013D000D9F80060ED034D4601D5164300E0964371
:1013E0002E604D68DAF80060AD03554601D516430E
:1013F00000E096432E604D68DBF80060ED025D462C
:1014000001D5164300E096432E604D68DEF800607B
:10141000AD02754601D5164300E096432E60641C6C
:101420000D682A46E5407FF431AFBDE8F88F000033
:1014300000040140000011100010024000000140B3
:1014400000080140000C0140001001400014014060
:101450000AB1016170470904FBE700000148806898
:10146000704700007811002070B5040011D0216889
:101470004CF6CC400860216845F255500860D4E92C
:10148000000141602168A0688860FFF7E7FF05461A
:1014900009E0012070BD00BFFFF7E0FF401B3028CE
:1014A00001D9032070BD2068C0680028F4D12168EC
:1014B0004AF6AA200860002070BD0000024881683A
:1014C000027811448160704778110020074810B5F8
:1014D000016841F010010160032000F075F8002060
:1014E00000F006F800F024F8002010BD00200240B3
:1014F00070B50D4D04464FF47A712878B1FBF0F0C9
:101500000A490968B1FBF0F000F02EFC48B9102C34
:1015100007D200222146501E00F036F800206C60F1
:1015200070BD012070BD00007811002084110020E2
:101530000C4808B5816941F001018161816901F0C0
:1015400001010091C16941F08051C161C06900F0A1
:10155000805000900448416821F0E06141F0007142
:10156000416008BD0010024000000140002809DB76
:1015700000F01F02012191404009800000F1E020AD
:10158000C0F8001170470000F0B40E4B1B680C4609
:10159000C3F30223C3F10705042D00D90425191D47
:1015A000072901D2002300E0DB1E012606FA05F11F
:1015B000491E214099409E40761E16403143F0BCA2
:1015C00001F063BF0CED00E0064900F00702086877
:1015D0004FF6FF03184040EA0220034A1043086018
:1015E000704700000CED00E00000FA052DE9F8431B
:1015F00005460078354CC00754D0E0690026C0008D
:1016000008D4E06940F08050E061E069012600F014
:10161000805000902E480168C90512D401688046A8
:1016200041F480710160FFF719FF074605E000BF34
:10163000FFF714FFC01B642823D8D8F80000C005AA
:10164000F6D5206A10F4407021D0A98801F44071C9
:1016500081421CD0206A1F49012220F440700A6098
:1016600000220A602062C00711D0FFF7F7FE07468C
:1016700041F2883808E000BFFFF7F0FEC11B41458A
:1016800002D90320BDE8F883206A8007F4D5206AD8
:10169000696820F44070084320621EB1E06920F0C0
:1016A0008050E0612878800705D56068A96820F43B
:1016B0004040084360602878C00605D56068E96846
:1016C00020F48000084360600020DBE70010024047
:1016D00000700040400442422DE9F0470F460500EB
:1016E00061D0434E306800F00700B84209D230683C
:1016F00020F0070038433060306800F00700B8423F
:1017000051D128683B4C810712D5400703D560684A
:1017100040F4E06060602878000703D5606840F41A
:10172000605060606068A96820F0F0000843606065
:101730002878C00728D06868012810D021680228BE
:1017400010D0890700292EDA616821F003010143D6
:101750006160FFF783FE804641F288390DE0216821
:101760008903EFE78901EDE7FFF778FEA0EB0801B9
:10177000494502D90320BDE8F0876068696800F038
:101780000C00B0EB810FEFD1306800F00700B842D9
:101790000BD9306820F0070038433060306800F023
:1017A0000700B84201D00120E5E72878400705D5B9
:1017B0006068E96820F4E06008436060287800070A
:1017C00006D56068296920F4605040EAC100606075
:1017D00000F038F86168084AC1F30311515CC84051
:1017E0000649086006480068FFF782FE0020C2E74D
:1017F0000020024000100240F84E00088411002032
:101800007C1100200448054900684968044AC1F376
:101810000221515CC8407047841100200010024032
:10182000084F00080448054900684968044AC1F3A4
:10183000C221515CC8407047841100200010024052
:10184000084F000812A185B00FC98DE80F0014A041
:10185000144A006804905168134801F00C03042BEB
:1018600010D0082B0ED1C1F38343C9031DF8030028
:101870000AD5516804AAC1F34041515C0A4A504359
:10188000B0FBF1F005B0704708494843FAE70000A3
:1018900002030405060708090A0B0C0D0E0F1010B1
:1018A000010200000010024000127A0000093D0011
:1018B0002DE9F84F040070D02078C04DC00749D002
:1018C0006868C0F38100012807D06868C0F3810010
:1018D000022809D16868C00306D52868800339D575
:1018E00060680028E7D035E06068B0F5803F0BD035
:1018F00010B1B0F5A02F11D0286820F480302860F6
:10190000286820F4802002E0286840F480302860B5
:10191000606890B1FFF7A2FD06460AE0286840F42F
:1019200080202860F0E700BFFFF798FD801B642847
:1019300073D828688003F7D50CE0FFF78FFD0646C3
:1019400005E000BFFFF78AFD801B6428F0D82868F7
:101950008003F7D420789A4E80074FF001094FF0AA
:10196000000839D5686810F00C0F07D06868C0F31C
:101970008100022809D16868C00306D4286880075E
:1019800014D52069012808D110E02069B0B1C6F84B
:101990000090FFF763FD074605E00AE1FFF75EFDF3
:1019A000C01B0228C4D828688007F7D52868616959
:1019B00020F0F80040EAC10028600DE0C6F8008081
:1019C000FFF74CFD074604E0FFF748FDC01B022867
:1019D00023D828688007F7D4207800072CD57948C9
:1019E000A169D9B1C0F80090FFF738FD074604E0BF
:1019F000FFF734FDC01B02280FD8686A8007F7D5AF
:101A000071484FF4FA510068B0FBF1F0009000BF4C
:101A10000098411E0091FAD20EE080E0C0F80080EC
:101A2000FFF71CFD074604E0FFF718FDC01B022866
:101A300075D8686A8007F7D42078400760D5E869D0
:101A40000027C00008D4E86940F08050E861E869E8
:101A5000012700F0805000905C480168C90513D44C
:101A60000168834641F480710160FFF7F7FC82460C
:101A700006E000BFFFF7F2FCA0EB0A0064284ED896
:101A8000DBF80000C005F5D5E06801280AD008B1F0
:101A9000052813D0286A20F001002862286A20F067
:101AA000040002E0286A40F001002862E06841F288
:101AB000883B98B1FFF7D2FC82460BE0286A40F0E1
:101AC00004002862EEE700BFFFF7C8FCA0EB0A01A4
:101AD00059455AD8286A8007F6D50CE0FFF7BEFCB6
:101AE000824605E0FFF7BAFCA0EB0A0159454CD845
:101AF000286A8007F6D41FB1E86920F08050E861B9
:101B0000E06988B36968C1F38101022944D00228E1
:101B1000C6F8608004D0FFF7A1FC044638E034E04A
:101B2000FFF79CFC074604E0FFF798FCC01B022867
:101B30002BD828688001F7D4206AB0F5803F05D102
:101B40006868A16820F4003008436860D4E908019F
:101B50000843696821F4741108436860C6F860900E
:101B6000FFF77CFC044606E025E000BFFFF776FCAB
:101B7000001B022809D828688001F7D51BE000BFA8
:101B8000FFF76CFC001B022802D90320BDE8F88F88
:101B900028688001F4D40EE00128F7D06868226A32
:101BA00000F48031914204D1616A00F470108842DF
:101BB00001D00120EAE70020E8E700000010024021
:101BC0000000424280044242841100200070004024
:101BD00070B5040005D00025A56294F8510010B13D
:101BE00006E0012070BD84F85050204600F02EF829
:101BF000022084F851002068016821F04001016052
:101C0000D4E901010843D4E903121143084361698F
:101C10000843218B01F400710843E1690843216AFC
:101C20000843A16A084321680860A069042101EA09
:101C30001040216848602068C16921F40061C161D9
:101C40006565012084F85100002070BDF0B585B0B5
:101C50000024009401940294039406463B4D0368CB
:101C60003B4902200322AB4249D18B6943F48053A4
:101C70008B618B6903F4805304938B6943F00403F5
:101C80008B618969334D01F004010491A021CDE9F4
:101C90000010039269462846FFF7EAFA4020CDE992
:101CA0000004694628460294FFF7E2FA2B4D2A48C1
:101CB000802701C5102091C5284845F810496C615E
:101CC000AC61EC61FFF7A6FA08B1FFF7D4F9B5648F
:101CD0006E62224D204844351438C5E90004C5E938
:101CE00002472C616C61AC612846EC61FFF792FA07
:101CF00008B1FFF7C0F9F5646E6205B0F0BD184D8C
:101D0000AB42FAD1CB6943F48043CB61CB6903F496
:101D1000804304938B6943F008038B618969114DFB
:101D200001F0080104914FF42041CDE90010039225
:101D300069462846FFF79CFA4FF48040CDE900043D
:101D4000694628460294FFF793FAD6E7003001402F
:101D5000001002400008014030000240081300203B
:101D600000380040000C014010B5401EB0F1807FEB
:101D700001D3012010BD4FF0E02460610F216017F6
:101D800001F083FB0020A06107202061002010BD2E
:101D900070B5040004D094F83900002510B106E0B5
:101DA000012070BD84F83850204600F023F824202C
:101DB00084F839002068C16821F40051C1602046D0
:101DC00001F092FA2068016921F4904101612068D4
:101DD000416921F02A0141612068C16841F4005144
:101DE000C160E563202084F8390084F83A000020BF
:101DF00070BD0000F0B585B0002406460094019443
:101E0000029403940068284988424BD12748C1694D
:101E100041F40031C161C16901F40031049181696B
:101E200041F0040181618069214D00F004000490BB
:101E30000420009002200190032003906946284668
:101E4000FFF716FA0820CDE90004694628460294F7
:101E5000FFF70EFA184D17488027C5E90004C5E9B9
:101E600002472C616C61AC612846EC61FFF7D2F946
:101E700008B1FFF700F975636E620F4D0D484435E8
:101E8000143001C5102091C50B4845F81049443065
:101E90006C61AC61EC61FFF7BDF908B1FFF7EBF8DD
:101EA00035636E6205B0F0BD004400400010024092
:101EB000000801406C000240D013002070B5027889
:101EC0000124072A0AD0074D2A78002A05D10A469C
:101ED00001460548FEF726F92C7070BD03480470D2
:101EE00070BD0000611100209814002060110020D6
:101EF0007047FEE71CB502F0A2F800281BD09E2018
:101F00008DF80000E7208DF801006946102001F0EF
:101F100067F902F094F800280DD000208DF8000039
:101F20006946082001F05CF901A9002002F066F87A
:101F3000012800D000201CBD0349497809B100F0F8
:101F400005B800F053B8000058140020F0B5254A39
:101F50004FF4006616601115131D196011601960A9
:101F600011601E601960116019601160CC0014606E
:101F70001D4DEF7D05EB470CBCF820501DB11960DD
:101F800011606D1EFBD1184D18357D5D07E0C70748
:101F900001D0146000E01C601960116040086D1EE3
:101FA000F5D1BCF8305075B1C00701D0146000E025
:101FB0001C6019601160146001E0196011606D1EF1
:101FC000FBD1166005E01660C00701D0146000E088
:101FD0001C6019601160196011601E601960116049
:101FE0001460F0BD100C0140581400202DE9F0439E
:101FF0004E4B4FF400671F601A151C1D22604C4E9B
:1020000071680D466D1EFDD11A600D466D1EFDD125
:1020100022600D466D1EFDD11A600D466D1EFDD16C
:10202000276022600D466D1EFDD11A600D466D1EA3
:10203000FDD122600D466D1EFDD11A600D466D1E4C
:10204000FDD14FF400551D6096F8178006EB480946
:10205000B9F820C0BCF1000F0AD022600E46761EEF
:10206000FDD11A600E46761EFDD1BCF1010CF4D1F3
:102070002F4E183618F806C00DE0C60701D01D60B7
:1020800000E0256022600E46761EFDD11A600E46E5
:10209000761EFDD14008BCF1010CEED1B9F83060DC
:1020A00016B3C00701D01D6000E02560226008461D
:1020B000401EFDD11A600846401EFDD11D6007E09C
:1020C00022600846401EFDD11A600846401EFDD120
:1020D000761EF5D11F6022600846401EFDD11A60B1
:1020E0000846401EFDD10DE01F60C00701D01D60F5
:1020F00000E0256022600846401EFDD11A600846B7
:10210000401EFDD122600846401EFDD11A600846DF
:10211000401EFDD1276022600846401EFDD11A6096
:10212000491EFDD11D60BDE8F0830000100C014088
:1021300058140020F0B5324C4FF40066266022158A
:10214000231D1A602F4841680D466D1EFDD1226087
:102150000D466D1EFDD11E601A600D466D1EFDD12F
:1021600022600D466D1EFDD11A600D466D1EFDD11B
:1021700022600D466D1EFDD1C57D4DB11A60084629
:10218000401EFDD122600846401EFDD16D1EF5D1D6
:10219000DFF86CC000271F25ACF1080C1A60084658
:1021A000401EFDD1DCF800002260C0F3803E0846EE
:1021B000401EFDD147EACE7047086D1EEED1266065
:1021C0001A600846401EFDD1DCF800002260C0F312
:1021D00080350846401EFDD147EAC5701A600D469D
:1021E0006D1EFDD122600D466D1EFDD11E601A6070
:1021F0000B465B1EFDD12260491EFDD1F0BD0000E3
:10220000100C0140581400202DE9F04F10F03F054C
:1022100000D14025DFF884A044064FF400634FF45A
:10222000005EAAF1040B4FF4806801D55C4600E023
:10223000544623602DE000BF11F8017B00244FF0CD
:10224000080C1EE0FB0702D0CBF800E001E0CAF862
:1022500000E0CAF80080124B5B681E46761EFDD176
:102260000E4E0C3E3668CBF80080C6F380395B1EFC
:10227000FDD163087F086D1E43EAC914BCF1010C4F
:1022800001D0002DDED124FA0CF4030601D502F8AA
:10229000014B002DD0D1BDE8F08F0000140C01409F
:1022A00058140020034A52780AB100F005B800F033
:1022B000BBB80000581400202DE9F04F584B4FF4E4
:1022C00000661E601A151C1D22601A6026602260BE
:1022D0001A6022601A60DFF84CB19BF817501DB1EC
:1022E00022601A606D1EFBD14508EF074FF40055C0
:1022F00001D01D6000E025602260494F083FD7F8FB
:1023000000C01A60CCF3803C4FEA90084FEA4C0CB6
:102310005FEAC87801D01D6000E025602260D7F830
:1023200000801A60C8F380384CEA080C4FEAD008E5
:102330005FEAC87801D01D6000E025602260D7F810
:1023400000801A60C8F380384CEA880ABAF1010F9D
:1023500001D01E6052E0DFF8CCC05FEA80789CF8C4
:1023600016009CF817C0A0EB0C0928D54FF0000C04
:102370001F202260D7F800801A604FEA98384CEA94
:10238000C87C4FEA5C0C401EF3D1B9F1010010D0BB
:1023900022603F68C7F3803700E022601A60401E69
:1023A000FBD11E6022601A604CEAC77041B308601E
:1023B00026E01E6022603868C0F38037F3E70868C3
:1023C0001F21C70701D01D6000E0256022601A6050
:1023D0004008491EF5D1B9F1010109D0C00701D06B
:1023E0001D6000E0256022601A60491EFBD1B0E745
:1023F0001E60C00701D01D6000E0256022601A60E9
:1024000022601A60266022601A601D609BF8080036
:1024100001E022601A60401EFBD25046BDE8F08FFA
:10242000100C0140581400202DE9F84FAC4A4FF42D
:1024300000658E4615601415131D1C60A94F796840
:102440000E46761EFDD114600E46761EFDD11D602F
:102450001C600E46761EFDD114600E46761EFDD120
:102460001C600E46761EFDD114600E46761EFDD110
:1024700097F817C0BCF1000F0AD01C600E46761EFC
:10248000FDD114600E46761EFDD1BCF1010CF4D1D5
:1024900046085FEAC67C4FF4005601D0166000E0A3
:1024A0001E601C604FEA010CBCF1010CFCD1DFF88E
:1024B0003082A8F10808D8F800C01460CCF3803C42
:1024C0000F467F1EFDD14FEA4C074FEA900C5FEAA2
:1024D000CC7C01D0166000E01E601C604FEA010C4D
:1024E000BCF1010CFCD1D8F800C0C246CCF3803C52
:1024F000A04614600C46641EFDD1C40847EA0C07D0
:10250000E40701D0166000E01E60C3F800800C46AE
:10251000641EFDD1DAF80040C2F80080C4F38034B4
:102520004FEA010CBCF1010CFCD147EA840BBBF172
:10253000010F0AD01560C3F800800846401EFDD187
:10254000C2F80080491EFDD1A0E0664C8707A07D3F
:10255000E47DA0EB0400009050D54FF0000C1F2448
:10256000404618600F467F1EFDD1DAF800701060FB
:10257000C7F380374FEA0109B9F10109FCD14CEAF0
:10258000C7774FEA570C641EEBD1009C641E2700EE
:1025900020D018600C46641EFDD1DAF800401060AF
:1025A000C4F380390C46641EFDD17C1E09D018602E
:1025B0000F467F1EFDD110600F467F1EFDD1641EA9
:1025C000F5D1156018600C46641EFDD11060491EDF
:1025D000FDD10BE0156018600C46641EFDD1DAF8E1
:1025E00000401060C4F38039491EFDD14CEAC97027
:1025F000BEF1000F4AD0CEF8000047E0DEF8004000
:102600004FF01F0C4046E70701D0166000E01E6047
:1026100018600F467F1EFDD110600F467F1EFDD152
:102620006408BCF1010CEED1009F7F1E20D0E407AE
:1026300001D0166000E01E6018600C46641EFDD1DB
:1026400010600C46641EFDD17F1E08D018600C4639
:10265000641EFDD110600C46641EFDD1F4E71560C8
:1026600018600C46641EFDD11060491EFDD10DE0BE
:102670001560E40701D0166000E01E600446186093
:102680000846401EFDD11460491EFDD1C3F80080EC
:10269000144948680446641EFDD1C2F8008004460F
:1026A000641EFDD11D60C3F800800446641EFDD188
:1026B000C2F800800446641EFDD116600C7A09E061
:1026C000C3F800800146491EFDD1C2F800800146D2
:1026D000491EFDD1641EF3D25846BDE8F88F0000B4
:1026E000100C0140581400202DE9F043584B4FF4D2
:1026F00000671F601A151C1D2260DFF85891D9F879
:1027000004100D466D1EFDD11A600D466D1EFDD1E3
:10271000276022600D466D1EFDD11A600D466D1EAC
:10272000FDD122600D466D1EFDD11A600D466D1E55
:10273000FDD199F81760B6F1000809D022600D4666
:102740006D1EFDD11A600D466D1EFDD1761EF5D1B0
:102750004FF40056266022600D466D1EFDD11A60B2
:102760000D466D1EFDD122600D466D1EFDD11A6015
:102770000D466D1EFDD122600D466D1EFDD11A6005
:102780000D466D1EFDD14FF01F0CC50701D01E6018
:1027900000E0266022600D466D1EFDD11A600D46D8
:1027A0006D1EFDD14008BCF1010CEED199F8165018
:1027B000A5EB08056D1E29D0C00701D01E6000E002
:1027C0002660104622608C46BCF1010CFCD11860DA
:1027D0004FEA010CBCF1010CFCD16D1E0CD0206045
:1027E0004FEA010CBCF1010CFCD118604FEA010C5E
:1027F000BCF1010CFCD1F0E71F6020600D466D1E9E
:10280000FDD118600846401EFDD10DE01F60C007D5
:1028100001D01E6000E0266022600846401EFDD107
:102820001A600846401EFDD122600846401EFDD1B8
:102830001A600846401EFDD1276022600846401EEF
:10284000FDD11A60491EFDD11E60BDE8F083000075
:10285000100C0140581400201F4808B5416941F090
:102860000101416140691D4900F0010000901C48D0
:1028700001604FF480414160402181608021C1604E
:102880000021016141618161C161FEF7C3FC08B1B2
:10289000FEF7F1FB002211460C20FEF775FE0C201E
:1028A000FEF764FE002211460D20FEF76DFE0D209E
:1028B000FEF75CFE002211461020FEF765FE102098
:1028C000FEF754FE002211461120FEF75DFEBDE822
:1028D00008401120FEF74ABE0010024008000240E6
:1028E0000812002010B504490448FEF7C5FB024950
:1028F000491E087010BD0000A11100208C1100209D
:102900002DE9F04F85B000243248009401940294E0
:102910000394816941F010018161816901F0100126
:102920000491816941F020018161816901F02001F8
:102930000491816941F004018161816901F0040120
:102940000491816941F0080181618069DFF8889014
:1029500000F008004FF4C045049000222946484684
:10296000FEF776FDDFF874A04FF488770022394631
:102970005046FEF76DFDDFF868B041F604480022CE
:1029800041465846FEF764FD009502260125039650
:10299000CDE9015469464846FEF76AFC0097039664
:1029A000CDE9015469465046FEF762FC0320CDE9AB
:1029B0000004694658460294FEF75AFCCDF80080A0
:1029C0000396CDE9015469465846FEF751FC05B01F
:1029D000BDE8F08F001002400010014000080140E7
:1029E000000C0140094810B5074901600021416011
:1029F00040F6FF718160FEF737FD002803D0BDE887
:102A00001040FEF738BB10BD003000404C120020D3
:102A1000104810B50E4901604FF4827141600021E9
:102A20008160C1604FF400720161C0E905120822A3
:102A3000C0E90721416281620A21C162FFF7C8F83B
:102A4000002803D0BDE81040FEF715BB10BD000004
:102A500000300140581200200F4810B50D490160A8
:102A60004FF48271416000218160C1604FF40072B7
:102A70000161C0E90512C1610162416281620A21FE
:102A8000C162FFF7A5F8002803D0BDE81040FEF7AB
:102A9000F2BA10BD00380040B01200200C4810B54A
:102AA0000A4901604FF4E1314160002181600C224C
:102AB000C160C0E904128161C161FFF769F90028B2
:102AC00003D0BDE81040FEF7D6BA10BD0044004068
:102AD00090130020FEE770472DE9F04186B01F48B3
:102AE00000240294816941F01001816180691C49D0
:102AF00000F0100004904FF43C4008604FF4305058
:102B00000126DFF85C80CDE900060325A8F1100856
:102B1000694603954046FEF7ABFB4FF41040112782
:102B2000CDE90007CDE9026569464046FEF7A0FB06
:102B3000B003CDE9000469464046CDE90245FEF701
:102B400097FB7003CDE9000769460648CDE90245C9
:102B5000FEF78EFB06B0BDE8F081000000100240D9
:102B6000100C0140001001402DE9FF4119490024DB
:102B70004FF4E050029408604FF440600126DFF803
:102B80005480CDE900060325A8F110086946039595
:102B90004046FEF76DFB30031127CDE90007CDE974
:102BA000026569464046FEF763FB4FF46040CDE99D
:102BB000000469464046CDE90245FEF759FB700323
:102BC000CDE9000769460448CDE90245FEF750FB10
:102BD000BDE8FF81100C01400010014070477047B4
:102BE000034A52780AB100F005B800F01BB90000A2
:102BF000581400202DE9F34F884D074685B04FF457
:102C00000060286044102E1D34602C60F90701D04C
:102C1000286000E0306034602C607908CB0701D078
:102C2000286000E0306034602C607A18B908CB0767
:102C300001D0286000E0306034602C600A44F9085C
:102C4000CB0701D0286000E0306034602C60114474
:102C5000C90701D0286000E0306034602C6000219A
:102C6000306034602C60286034602C604FF0020BC0
:102C70008146CDE90001CDE9021B68488A466946D4
:102C80001038FEF7F5FA6648007D011E03D0346067
:102C90002C60401EFBD1B046334634605F48083894
:102CA00002682C60C2F3C022346006682C60C6F350
:102CB000C02642EA46021C6003682C60C3F3C023AE
:102CC00042EA83064FF0010E012E19D0022E7CD06D
:102CD000042E7AD0213104D0404604602C60491E75
:102CE000FBD14E48CDE9009E4C4669461038CDE9EF
:102CF00002ABFEF7BDFA2C6007B03046BDE8F08F9E
:102D0000BA072BD500273A46202341460C60D0F85D
:102D100000C02C60CCF3C02C7F08624447EACC771B
:102D20005B1EF3D10C6000682C6082EAD022D007D1
:102D300000D00826069800B107603948007D18B118
:102D40000C602C60401EFBD13448CDE9009E6946E2
:102D50001038CDE902ABFEF78BFA28E021B14046EE
:102D600004602C60491EFBD12C48CDE9009E6946C9
:102D70001038CDE902ABFEF77BFA06980021202738
:102D8000006842464FEA09035FEAC07C01D02B602D
:102D900000E0136014602C60014440087F1EF3D1F2
:102DA000C80701D02B6000E0136014602C601C4841
:102DB000007A30B14146C8F800900C602C60401E8B
:102DC000FBD1C5F8009097E7FFE7154A507D38B171
:102DD000B80705D5212043461C602C60401EFBD15E
:102DE00021B1404604602C60491EFBD10B48CDE95F
:102DF000009E69461038CDE902ABFEF739FA084863
:102E0000407D0028DDD0B807DBD44146C8F80090EB
:102E100021200C602C60401EFBD1D2E7100C014039
:102E2000581400202DE9F34FEB4D85B04FF40061AD
:102E300007464FF0000C29604C102E1D3460E74A05
:102E4000506803465B1EFDD12C6003465B1EFDD11E
:102E5000FB0701D0296000E03160346003465B1E4F
:102E6000FDD12C6003465B1EFDD17B08BC445FEAAC
:102E7000C37801D0296000E0316034604FEA000877
:102E8000B8F10108FCD12C604FEA0008B8F1010844
:102E9000FCD19C44BB085FEAC37801D0296000E004
:102EA000316034604FEA0008B8F10108FCD12C60B1
:102EB0004FEA0008B8F10108FCD19C44FB085FEA26
:102EC000C37801D0296000E0316034604FEA000827
:102ED000B8F10108FCD12C604FEA0008B8F10108F4
:102EE000FCD16344DB0701D0296000E0316034602D
:102EF00003465B1EFDD12C6003465B1EFDD1316095
:102F000034608446BCF1010CFCD12C604FEA000C0B
:102F1000BCF1010CFCD1296034608446BCF1010C89
:102F2000FCD12C609046401EFDD10220CDE902303C
:102F3000A9488A4600919B46019369461038FEF7DE
:102F400097F998F814C042465FEA0C010BD050681C
:102F5000346003465B1EFDD12C6003465B1EFDD131
:102F6000BCF1010CF4D13460D8F8040003465B1EB8
:102F7000FDD1DFF864C2ACF1080CDCF800302C6045
:102F8000C3F3C0230246521EFDD134600246521ED6
:102F9000FDD1DCF800202C60C2F3C0224FEA00080B
:102FA000B8F10108FCD143EA4202B146346006465A
:102FB000761EFDD1DCF80060E046C6F3C0262C602A
:102FC00003465B1EFDD142EA86064FF0010E012E3C
:102FD00020D0022E7DD0042E7BD021310AD04B464A
:102FE0001C600246521EFDD12C600246521EFDD1CD
:102FF000491EF5D10220CDE902B07748CDE900AEF7
:10300000544669461038FEF733F92C6007B0304655
:10301000BDE8F08FBA0746D5002211465FF02007C1
:10302000C9F8004003465B1EFDD1D8F800302C6083
:10303000C3F3C02C03465B1EFDD15208614442EA33
:10304000CC727F1EECD14B46C9F80040DFF88CC132
:1030500007467F1EFDD1D8F800702C60C7F3C0274B
:10306000401EFDD17940C80700D00826069800B15F
:1030700002609CF814205AB1DCF804001C60014680
:10308000491EFDD12C600146491EFDD1521EF5D1CD
:103090000220CDE902B05048CDE900AE69461038B3
:1030A000FEF7E6F841E051B14B461C600246521E65
:1030B000FDD12C600246521EFDD1491EF5D10220E1
:1030C000CDE902B04448CDE900AED046694610389B
:1030D00000E03EE0FEF7CCF8069840490023006887
:1030E00049684FF0200C4F46C207424601D02A6083
:1030F00000E03A603C600A46521EFDD12C600A4650
:10310000521EFDD103444008BCF1010CECD1D8079C
:10311000404601D0286000E0386022463C60084606
:10312000401EFDD12A60491EFDD12C48027A6AB1A9
:103130004B46C9F800A040681C600146491EFDD1FD
:103140002C600146491EFDD1521EF5D1C5F800A0E4
:103150005CE7DFF888C09CF8152072B1BA070CD57F
:103160002123C846C8F800400246521EFDD12C60FB
:103170000246521EFDD15B1EF4D1E04651B14B46D2
:103180001C600246521EFDD12C600246521EFDD12B
:10319000491EF5D10220CDE902B00F48CDE900AEBD
:1031A00069461038FEF764F898F815100029CDD05C
:1031B000B907CBD44B46C9F800A0D8F804002122A7
:1031C0001C600146491EFDD12C600146491EFDD1FF
:1031D000521EF5D1BAE70000100C0140581400202F
:1031E000F0B5124F124A00252C464FF4006EA7F19D
:1031F000040C3E15526815E014B911F8015B08245F
:10320000EB0702D0CCF800E001E0C7F800E03E6038
:1032100013465B1EFDD1CCF8006013465B1EFDD14A
:103220006D08641E401EE7D2F0BD0000140C014082
:1032300058140020FEF742B930B593B028216846F3
:10324000FCF789FF14210AA8FCF785FF00240F94DE
:103250000920012110940090119412944FF48030B1
:1032600004910691CDE901040225CDE907504FF400
:10327000E01009906846FEF71BFB0F20CDE90A0518
:103280006802CDE90C4002210AA80E94FEF724FA48
:1032900010200F9012940FA8FEF7A8F913B030BDBC
:1032A0000D48016841F00101016041680B4A11407D
:1032B000416001680A4A11400160016821F48021DF
:1032C0000160416821F4FE0141604FF41F018160FB
:1032D0000449C00308607047001002400000FFF876
:1032E000FFFFF6FE08ED00E02DE9F041044600681E
:1032F0000169E26821F44051114301612169A0682C
:103300000843616908432168CA6841F20C639A4323
:103310000243CA6020684169A26921F440711143E7
:1033200041611E49206864253226884202D1FEF799
:1033300079FA01E0FEF766FA00EBC00101EB00113B
:1033400060686FF018078000B1FBF0F2B2FBF5F295
:10335000B1FBF0F37A4303EB8202B1FBF0F306EB2F
:103360000212B2FBF5F2B3FBF5F302F0F00202EB4E
:103370000312B1FBF0F3B1FBF0F0B0FBF5F07843D2
:1033800003EB800006EB0010B0FBF5F0216800F0C5
:103390000F0010448860BDE8F08100000038014053
:1033A00070B5074D074C47F6FF7605E0268000F024
:1033B0000F01284601F04AF820880104F6D470BDB8
:1033C0001C160020445C00402DE9F041DFF87C80B1
:1033D0001F4C47F6FF7605E0268005F00F014046BA
:1033E00001F034F825882804F6D41A4E68054FF009
:1033F000000709D54FF6FF302080301D078040467A
:1034000001F09CFA80203080280513D54FF2FF7020
:10341000208030884106104804D03780018821F48C
:1034200000610180018841F008010180018841F0BC
:1034300004010180E80405D54EF6FF702080404667
:1034400000F000FF2780BDE8F08100001C1600207E
:10345000445C00404C5C0040405C0040024801215C
:10346000017000787047000088110020012070472B
:103470000020704702480121017000787047000069
:103480008811002000207047FEE70907090E002878
:1034900004DB00F1E02080F80014704700F00F001A
:1034A00000F1E02080F8141D704702E008C8121FE8
:1034B00008C1002AFAD170477047002001E001C11D
:1034C000121F002AFBD1704710B54B78042B2EDD5C
:1034D000202B06D0212B11D0222B22D0232B26D11A
:1034E00021E0D378116863F31F6140F82C1F117934
:1034F0000171517941719179817118E010F82C1F97
:1035000011700188090A51700168090C91700168F5
:10351000090ED170017911714179517180799071E1
:1035200005E0026A00E0426A0AB14988904700203B
:1035300010BD38B542680446808C116881420CD9B0
:1035400051680C3251F8205004F120012846FFF751
:10355000BBFFE96909B128468847002003460246B7
:1035600001460090204601F051FA38BD7047000036
:1035700001484260012070473800002010B5417AB0
:10358000006801F00FFB002010BD000070B5DDE900
:10359000040408810B60A04200D92046441C650841
:1035A00014880F4E640806EB8404968860F30906BD
:1035B0009680002206E000BF33F8026B521C24F80C
:1035C000046BD2B2AA42F7D34A8A521C4A820A68D2
:1035D00002440A600A89121A0A81C88170BD00007B
:1035E000006000402DE9F05F814617468B4690054C
:1035F00000D0FEE72748DFF8A0804FF48061026822
:1036000052B901220260D8F810204046120603D5B4
:10361000224A4260224A42608A465446A74236D332
:103620004D4601F0A5FBD8F8100040F00201C8F8A3
:103630001010C8F81450D8F8100040F04001C8F835
:10364000101001F095FBD8F8100020F00201C8F826
:1036500010104E465D4601F08BFBD8F8100040F08C
:103660000101C8F810102888308001F081FBA41EE9
:10367000AD1CB61C022CF6D2D8F8101021F00101B6
:10368000C8F8101009F58069A7F58067C5E7BDE89F
:10369000F09F0000741100200020024023016745C4
:1036A000AB89EFCD70B500F58055044695F85E0006
:1036B00008B1206D48B3204600F094F9002813DDCE
:1036C0004FF0010185F85E1094F834100A0682B2BA
:1036D00004F15801204603D5BDE8704000F0FABB64
:1036E000BDE8704000F06FB90FDA94F834000006BE
:1036F00005D5207A40F08001206801F06BFA0121A5
:103700002046BDE8704000F0D5BB0021F8E7F8B5D1
:1037100043680446808C196881420DD9596851F874
:103720002000C16841B1618C4569CAB2090A1DB166
:10373000E68C0C330096A84700200346024601465B
:103740000090204601F062F9F8BD0000044810B571
:10375000026011460348FEF7B1FB012010BD0000D6
:1037600038000020A811002010B5417A006801F04F
:1037700019FAFEF7BDFB002010BD000070B53549F9
:1037800004460B8847F27000034043F22002534086
:1037900048F280252B430B802F49682322250B807C
:1037A00028230B818B896FF3090365F38F23294D40
:1037B0008B812D1D2B8848F28106034053403343F3
:1037C0002B80C8230B82A8230B838B8B10256FF3D0
:1037D000090365F38F238B831E4B08331D8848F242
:1037E00082660540554035431D804FF494730B8429
:1037F000E8230B858B8D22256FF3090365F38F2357
:10380000144D8B8510352B880340534048F28400BB
:1038100003432B804FF4D470A1F840004FF4B470F0
:10382000A1F84800B1F84C0022226FF3090062F3BE
:103830008F20A1F84C00882104F10800FCF78BFCD4
:103840000020A0810548A0610548E0610548C4F852
:103850008C0070BD005C004000600040B14E00086C
:10386000AC4E0008B84E000810B5002305E0DC009F
:1038700021FA04F4C4545B1CDBB29342F7D310BDAD
:1038800008B5FDF723FEFFF7D7FCFFF739F8FEF781
:10389000E3FFFFF7BDF8FFF701F9FFF7DDF8FFF7EA
:1038A000A1F8FFF71FF8002000F086FE04460F493C
:1038B00001F041F9204600F0E5FF0D4C002680277D
:1038C00004F10805206808B101F036FA606838B1E3
:1038D000009783B2297A074A286801F097F8666052
:1038E0000348483000F029FFECE70000E410002016
:1038F00038000020E811002010B5104602998C0213
:103900000349224601EB8321FCF70CFC204610BD45
:103910000060000810B51146029884020348224650
:1039200000EB8320FFF75EFE204610BD006000081C
:1039300038B5044600F58050002190F85E2004F16F
:10394000280552B1012A2ED080F85E102946204663
:10395000BDE838401F2200F036B8154BA26A9A42E3
:1039600003D1B0F858001F2817D0009194F83510F3
:1039700020230522204600F02BFA94F8340028B9C1
:10398000206B18B1617A206801F024F9207A40F0A8
:103990008001206801F01EF9D8E70648A064E06ABB
:1039A000E064206B20652046BDE83840FFF77ABE12
:1039B00055534243555342534FF4806018602820BA
:1039C00010600020704770B50D460446417A1346DA
:1039D00000682A4601F0DBF8617A2068BDE8704093
:1039E00001F0E0B8F8B590F8371000274FF0FF3637
:1039F00000F1370500F15804232972D00FDC152996
:103A00001DD005DC09B3032934D0122917D154E0A5
:103A10001A2968D01B2954D01E2910D15FE02F2904
:103A20001DD006DC25297BD028297AD02A2906D169
:103A3000ACE0352913D0552901D05A2976D000970A
:103A4000202390F83510052211E00446006A30B1B9
:103A5000826822B194F835102046904708B10020C2
:103A6000F8BD009794F835103A230222204600F062
:103A7000AFF903E007466878C00701D03046F8BDCB
:103A800012212046FCF767FB2078A7F6A17720F0EB
:103A90007F00703020700C20E07107F50057A0788F
:103AA000397861F30300A07078782073B878607378
:103AB00028791228E3D91220F8BDBDE8F84000F0BB
:103AC00069B829790A090AD18A0708D5026A32B188
:103AD000536923B101F0010290F835109847384638
:103AE000F8BD47E0FFE706468765A07820F0800034
:103AF000A070306A58B1C2684AB196F835103046A5
:103B000090470028A0780ED020F08000A0700320FD
:103B100020700420306528790428E1D90420DFE7EB
:103B20002CE02FE002E040F08000EFE787650646DA
:103B3000C765E07820F08000E070306A58B1C26854
:103B40004AB196F83510304690470028E0780ED0FC
:103B500020F08000E070A7710620E071B5F8070042
:103B6000082140BA31650828BADB0820B8E740F0E0
:103B70008000EFE7BDE8F84000F0F6B8BDE8F84097
:103B800000F0BCB8BDE8F84000F082B8BDE8F840ED
:103B900000F027B92DE9F041064600F1370558300D
:103BA0004FF0FF3424210746FCF7D5FA306A60B1A4
:103BB000D0F810C0BCF1000F07D096F835103B4686
:103BC0002A463046E047041E45DC6878C0071ED010
:103BD000A8787870A87820B180280AD0832812D1DC
:103BE00010E0002038718020072478718320B8719C
:103BF00009E01AA00E24016879604168B960008963
:103C0000B88100E00424200AB870FC701CE07878C9
:103C10003C4640F0800078700220B870F87810229E
:103C200020F00F00801CF8701F2038710EA0016872
:103C3000B9604068F8600FA104F11000FCF772FA57
:103C400011A0006820622424B5F80300346540BA4E
:103C5000844200DC2046BDE8F08100005455534208
:103C600031323334353600005465656E7955534230
:103C7000000000004D534320424F542044454D4F17
:103C80002020202000000000312E30200000000005
:103C9000F8B5044600F12805006D00282DDDD5F8A3
:103CA00011202B7D12BAE98A22F0FF02AE681A4376
:103CB00049BAB6FBF1F34FF480510746884200D26F
:103CC0003946B1FBF3F1301AA76989B24FF0FF36DC
:103CD00057B1B0FBF3F083180091697B04F15802EF
:103CE0002046B847002808DA00200090697B11239D
:103CF0000322204600F06CF83046F8BD2DE9FC4167
:103D000000268665C6654769054600F1580407B375
:103D100095F8351001AB6A462846B847002818DBED
:103D20000098401E0090000E20700098000C6070FB
:103D30000098000AA0700098E0700198010E2171AF
:103D4000010C6171010AA171E07108202865BDE8CC
:103D5000FC81009695F835103A230222284600F09F
:103D600037F84FF0FF30F2E72DE9FC410026866579
:103D7000C66506664769054600F15804EFB195F837
:103D8000351001AB6A462846B847002815DB0820E5
:103D9000E0700098010E2171010C6171010AA1719E
:103DA000E071022020720198010C6172010AA17277
:103DB000E0720C202865BDE8FC81009695F835106E
:103DC0003A230222284600F003F84FF0FF30F2E7D2
:103DD000A0F6A17000F50050009902704370817048
:103DE00070472DE9F84F044604F5805300F128068A
:103DF00000F14805373093F85E1000274FF0FF3A86
:103E00004FF4805911B1012921D01DE0216A012010
:103E100069B18A682AB1717B2046904748B1216A0E
:103E200021B1CA6812B1717B2046904728B1A868B9
:103E30003BE00097717B3A2332E00097717B2723A8
:103E400007222046FFF7C4FF5046BDE8F88FD0F8A0
:103E50000210427909BA21F0FF011143B0F80700BE
:103E6000B26840BAB2FBF0F0B3F85830D4F81CC0D6
:103E7000B3FBF0F31FFA83F8BCF1000F0DD0AB6871
:103E8000CDF80080D21AB2FBF0F04318717B04F138
:103E900058022046E047002804DA0097717B03238C
:103EA0000322CEE7A968081AA8604845CDD3484642
:103EB000CBE70000064A826480F8541041F25E01AC
:103EC00002220A540D2200F1480100F003B800005C
:103ED0005553425338B541F25C031A520023009304
:103EE000047A13460A460068214600F08FFD38BD6B
:103EF0002DE9FF41FDF74AF81A4900244FF4E0503C
:103F0000029408604FF440600126DFF85880CDE944
:103F100000060325A8F11008694603954046FDF701
:103F2000A7F930031127CDE90007CDE902656946FD
:103F30004046FDF79DF94FF46040CDE90004694625
:103F40004046CDE90245FDF793F97003CDE900073E
:103F500069460548CDE90245FDF78AF904B001201C
:103F6000BDE8F081100C014000100140F8B50020C0
:103F7000204904460090401E086064254860FFF711
:103F8000B7FFFDF7B7FF002824D01E21002000F066
:103F900005F900281ED00021082000F0FFF80028B5
:103FA00018D04FF0A041042000F0F8F8002811D0FC
:103FB0004FF020466946042000F020F8002809D080
:103FC000009836EA000002D0641CAC42F2DBAC423E
:103FD00001D10020F8BD0849042000F0DFF80028D6
:103FE000F8D00021082000F0D9F80028F2D00120F4
:103FF000F8BD000064110020000F005038B50C46D9
:1040000000F00C006946801C00F027F800212160B8
:104010009DF8032041EA026121609DF8022041EAF7
:10402000024121609DF8012041EA022121609DF8B2
:10403000002011432160012800D0002038BD1CB5AC
:1040400000206946FF220A54401CC0B20828FAD357
:104050003320FFF7C5F801201CBD70B50D4606469C
:10406000002429463046FEF7BBFD022803D1641C1C
:10407000E4B20A2CF5D370BD38B50D46044600F005
:104080007F4100F0F0000143082000F087F800288D
:1040900005D034B90E484168A94201D1012038BD8C
:1040A000456004F00C04042229466846641CFFF7AE
:1040B000DBFB69462046FFF7D0FF012805D10E2023
:1040C0000021FFF7CAFF0128E9D0002038BD000019
:1040D00064110020F8B50D4604462AB3960813492A
:1040E0000020FFF7C9FF00281FD005270422214622
:1040F0006846FFF7B9FB69463846FFF7AEFF01286F
:1041000012D10D27002407E029463846FFF7A5FF06
:10411000012809D1641C2D1DB442F5D30E200021C5
:10412000FFF79BFF012800D00020F8BD52000023BC
:1041300070B50C46054608490020FFF79DFF002892
:1041400009D0A807C00E04FA00F1284600F006F8CE
:10415000002800D0012070BD5000002338B50C4667
:10416000014604226846FFF77FFB05206946FFF7FA
:1041700074FF012810D1042221466846FFF774FB22
:104180000D206946FFF769FF012805D10E200021A7
:10419000FFF763FF012800D0002038BD38B508289C
:1041A00006D10A4A13688B4201D1012038BD116043
:1041B00000F00C0404226846FFF756FB69462046CF
:1041C000FFF74BFF0128F1D0002038BD641100201B
:1041D0002DE9F04114460E46054608E031782846A0
:1041E000FFF7A6FF002829D0641E6D1C761C24B39F
:1041F000A807F3D1DFF84880032C1CD9D8F80000B9
:10420000411E2940471ABC4201D224F003073A4616
:1042100031462846FFF75EFF00280FD03D443E445C
:10422000E41BE9E731782846FFF782FF002805D034
:10423000641E6D1C761C002CF4D10120BDE8F081B9
:104240006C1100200448018821F0040101804FF422
:104250001C41018070470000405C004010B50446DE
:10426000008B617A83B26269206800F090FC617A09
:10427000206800F097FC0020E072A07A30B104289A
:1042800004D82168496801EB80008464002010BDD7
:1042900030B4C46811461CB1A44630BC1A4660470D
:1042A00030BC002070470000F8B50D46046809785E
:1042B000C1F341136268012B01D00020F8BDEB88E7
:1042C000EBB1090612D50C3216462946FFF7FCF869
:1042D000EB88E08C834201D0802000E00020324651
:1042E00000900021204600F091FB06E000212046CE
:1042F0000C3200F04CFC064860610120F8BD2946F4
:104300000C32FFF7E1F80020034602460090E8E790
:1043100033350008027A8A4202D1016929B108477F
:10432000827A8A4201D10021C17200207047406820
:1043300088B10A7802F00302012A0CD18A88036846
:10434000934208D9406850F8220020B1426812B167
:10435000526802B11047002070470000F0B511F01C
:104360007F0F48F2C0064CF280044BF68F7548F27E
:10437000800348F68F7218D00F064FEA41601E493D
:1043800001EBD050B0F8001C25D5490605D5B0F892
:10439000001C11403143A0F8001CB0F8001C48F686
:1043A000BF72114081F0300122E0144801884906B3
:1043B00003D501881140314301800188490403D5A8
:1043C00001881140214301800188294081F4405136
:1043D00019430180F0BD490405D5B0F8001C114017
:1043E0002143A0F8001CB0F8001C294081F4405182
:1043F0001943A0F8001CF0BD00500040005C0040D4
:10440000002104E00222521CC82AFCD3491C81422C
:10441000F8D370470B48816941F0040181610A4873
:10442000016841F480210160016821F400210160EC
:10443000016841F440310160034980141031086083
:104440007047000000100240040801402DE9F041CF
:1044500080461F480E4600EB8105B5F8004C20044D
:104460000AD540F68F77A6B104EA0700A5F8000C3C
:104470003146404600F078FA200627D548F60F70FE
:104480000440A5F8004C31464046BDE8F04100F03C
:10449000FFBA200508D508F12001404600F048FA8F
:1044A000404600F0C1FB03E03146404600F05CFAB4
:1044B000084804EA070101804BF68F71214081F41E
:1044C000405148F2800211430180D5E7BDE8F081F8
:1044D00000500040005C0040F8B5044648880E4695
:1044E0000025010A082961D2DFE801F060040A1002
:1044F00060601C37D4F88C00016810E00D783AE059
:10450000D4F88C004168E9B34D8834E0D4F88C10BD
:10451000C0B2CA68824249D9896851F8201000297E
:10452000ECD143E021680A20087021680620487019
:10453000D4F88C1020680968D1F80220C0F8022055
:10454000C988C180D4F88C0021680068407C08725A
:10455000216800200A2548720BE0D4F88C004168DD
:1045600001B14D8820682A46FBF7DCFD2168072051
:104570004870216831B1F088A84200D8054620680B
:10458000884200E012E003D02A46FBF7CBFD216809
:10459000E08CA84201D0802000E000200A46009074
:1045A0002B460021204600F031FAF8BD2046BDE838
:1045B000F840002100F00EBB024800F58071086051
:1045C000084670471C15002010B50446808C617A9F
:1045D00083B2226A206800F0DAFA617A2068BDE8C6
:1045E000104000F0DFBA30B4C46811461CB1A446D4
:1045F00030BC1A46604730BC00207047F8B50468EC
:104600000A7802F003036668012B22D14B78062B4F
:104610001FD14B882225B5EB132F1AD1038E876A41
:104620009DB2B7B1ADB1C888A84200D80546206890
:10463000B84204D02A463946FBF774FD2768E08C5F
:10464000A84201D0802000E000202B463A4600908E
:1046500016E0C2F34112012A4FD14A7800250C2AF4
:104660004BD2DFE802F04A3312154A4A4A4A4A2836
:10467000061C4988090A80F8341013E0884714E0C2
:104680000021204600F0C2F91EE090F8340030739B
:10469000E08C01280DD08020012300902AE0897849
:1046A00080F83510C1690029E8D100231A46009529
:1046B000E6E70020F0E7CB880021204606F10C0257
:1046C00000F065FA0E4860610120F8BD638C8569D1
:1046D000DAB21F0A002335B1C988009106F10C0334
:1046E0003946A84783B2E08C984201D0802000E090
:1046F0000020009006F10C02C2E70020F8BD000087
:104700000F370008016901B108470020704710B554
:1047100004461F2200F12801FFF755F941F25E001F
:1047200000210155206A002806D00168002903D025
:104730002046BDE81040084710BD70B500F5805414
:104740000546B4F85800002620B12846FFF7F0F8D7
:10475000A4F85860B4F85A0000280ED094F85E10FF
:10476000284641B1012909D084F85E601F2200F17A
:104770002801FFF728F9A4F85A6070BDB4F85C105E
:10478000026D511A0165FEF78DFFF4E7114630B452
:1047900041F258021352C4681CB1A44630BC1A46F8
:1047A000604730BC0120704738B504460068426855
:1047B0000878C0F34113012B04D14B78FE2B03D0B2
:1047C000FF2B18D0002038BD4B8893B9C988012928
:1047D0000FD100060DD5A07A10732068C18C012975
:1047E00001D0802100E000210091012300210C3242
:1047F00013E0012038BD4A884AB9C98839B9000692
:1048000005D4206A18B1416809B1204688470020C4
:10481000002300901A461946206800F0F7F8E8E7F0
:1048200010B500F58051B1F85C20A1F85A2001695B
:1048300001B18847002010BD30B440684C060CD050
:1048400001F07F0400EB8400806D30B1446824B136
:10485000E46814B1A44630BC604730BC0020704707
:1048600040684A060DD001F07F0200EB8200806CA8
:10487000002806D04268002A03D09268002A00D09F
:104880001047704710B5FFF7C5FD1420FFF7B8FDBE
:10489000164AD06940F40000D0611548012101801A
:1048A00000210180031D1C886405FCD51980104B74
:1048B000103319804FF41C410180906940F00400CE
:1048C00090610C48016841F480210160016821F485
:1048D00000210160016821F4403101604FF0E021C6
:1048E0004FF48010C1F8000110BD0000001002401C
:1048F000405C00400408014030B5888809880B4BB3
:104900004908C0F3090003EB8103411C4D08002452
:1049100008E000BF33F8041B02F8011B090A02F883
:10492000011B641CAC42F5D330BD000000600040A8
:104930000A460149FFF7E0BF0860004070B54568CE
:10494000002D10D0A9688847002409E0686850F855
:10495000240020B1416811B1096801B18847641C85
:104960002868A042F2D870BD2DE9F0470D460746F1
:1049700001EB850007EB8004224800EB81008146B3
:10498000B0F8008C204800EB0516E06A2834F8B136
:10499000F6B1A189421831463846FFF7ADFFB1881C
:1049A0006FF30901B180A18901448BB2A381B96978
:1049B000495D814202D16089834209D30026C5B195
:1049C000294638466268FFF737FFC8B16089A08181
:1049D000A089618988420AD24BF68F7108EA0100EA
:1049E00080F4405048F280010843A9F8000CBDE86B
:1049F000F087796911B1384688477E616660E7E7DC
:104A0000A681E5E700500040086000402DE9FC4128
:104A10001E460B468C001C49089F6518B5F8004CD3
:104A200003EB830100EB81014FEAD71C31F8387F9B
:104A30006CF3000721F810794FF0FF37B1F808C088
:104A4000BCF1000F04D1C4F3011CBCF1020F02D071
:104A50003846BDE8FC8100274F82C769FF5CCDE97D
:104A600000670A4E06EB031613463246FEF78EFD2C
:104A700048F6BF70044084F0300048F280010843DB
:104A8000A5F8000C0020E4E7005000400060004062
:104A90002DE9FC411F4A044602EB810501EB810030
:104AA000B5F8002C04EB8000002646871A4A038ED6
:104AB00002EB011228304BB9077CFF071DD0D4F858
:104AC0001CC0C7891CF801C0674516D1E669715C36
:104AD000CDE90031014603682046FEF757FDB5F8E1
:104AE000000C48F6BF71084080F0300048F28001A9
:104AF0000843A5F8000CBDE8FC8121B12046BDE8C3
:104B0000FC41FFF7ADBE21690029F4D0204688475B
:104B10002661F0E70050004000600040017A002963
:104B200005D0034A41F080011180002101727047D5
:104B30004C5C0040704710B50022CA640A654A65A3
:104B40008A65CA650A664A6613468A661AE04A6832
:104B500052F82320AAB11468844200D01060147A5D
:104B600034B104F07F04042C02D801EB8404A26465
:104B7000547A34B104F07F04042C02D801EB84048D
:104B8000A2655B1C0A689A42E1D8416010BD01EB46
:104B9000810100EB81000021C262438681860846C4
:104BA000704700000A4A02EB8103B3F8002C01EBC6
:104BB000810100EB8100002181864BF68F7002405D
:104BC00082F4405048F280010843A3F8000C70477B
:104BD0000050004010B511F07F0F48F6BF7348F247
:104BE00080020CD00C064FEA41600D4901EBD05019
:104BF000B0F8001C0BD5194081F010010CE00949F8
:104C00000888184080F010001043088010BD4BF653
:104C10008F73194081F480511143A0F8001C10BD1E
:104C200000500040005C004070B500F120050446D3
:104C30002946FFF77CFB002805D129462046BDE820
:104C4000704000F001B870BD38B504464A780025C0
:104C500037480C2A6AD2DFE802F01351693A690634
:104C60000E691E273137887820722046FFF762FFD1
:104C7000304820611AE02046BDE83840FFF72CBCE0
:104C8000A1890160E08C022801D0802000E0002092
:104C90000223009006E0617A11E0802000E000200D
:104CA00001230090224A04E08878607200231A46AB
:104CB000009500212046FFF7A9FE38BDA17A0160CA
:104CC000E08C0128EBD0E8E78878A072EEE708785E
:104CD00000F00300022803D0488801280AD025E00C
:104CE000097901F07F00052820D22046BDE8384030
:104CF000FFF770BFE07A40F0010015E0087800F09F
:104D00000300022803D0488801280AD00EE0097960
:104D100001F07F00052809D22046BDE83840FFF7A2
:104D20001DBBE07A20F00100E072BFE70021DCE764
:104D3000701100201D4B000838B50A4C207800285F
:104D40000FD00949A1F14100FBF78CFC0748002571
:104D50000095017A00684023034AFFF757FE25704B
:104D6000012038BD61110020D9140020000000206E
:104D70004FF48010064902E0002803DD401ECA6897
:104D8000D207F9D1C868800601D52020C8607047D5
:104D9000002002403939365F3939360012010002ED
:104DA000EF02014083041100000101020301000031
:104DB000090282000401008064090400000203006B
:104DC000000009211101000122180007058203409B
:104DD000000107050203400001080B010202020165
:104DE0000009040100010202010005240010010570
:104DF000240100010424020205240600010705889D
:104E00000310000109040200020A000000070581E6
:104E1000022000010705010220000109040300022D
:104E200008065000070584024000010705040240FF
:104E300000010000040309040E034B0053005F004F
:104E4000440049005900000022034B005300200099
:104E5000390039003600200043004D00530049005E
:104E600053002D0044004100500000001803390099
:104E7000390036005F003900390036005F00390024
:104E800039003600344E0008384E0008484E0008FD
:104E90006C4E00080600FF0901A10109021500255A
:104EA000FF75089540810209039102C0402040002F
:104EB00040402040004000009C4D0008B04D0008DC
:104EC000844E000804000000C9450008FD450008A4
:104ED00005470008E74500080F470008A9470008F4
:104EE000214800088D4700085D420008A9420008DB
:104EF0001543000891420008000000000000000077
:104F0000010203040607080900000000010203046F
:104F1000304F000800000020A81100009001000898
:104F2000C84F0008A811002010150000BA3400086E
:104F30004113C84E24080202134D371B086904C1EF
:104F400013A8113320401A9424410213181AE81CA4
:104F5000140101081371351B087D041AE83432204E
:104F60001A6D0C01241AD840A3040413B93914088B
:104F7000F9381B08150801FF01FF01FF01FF01FFC0
:104F800001FF01FF01FF01FF01FF01FF01FF01FF21
:104F900001FF01FF01FF0154320413501114207D61
:104FA000370263081B204004415A8008B9897132D6
:104FB0000182103B24F410135D341B0875041A7130
:084FC000041A85041A6D048136
:04000005080000ED02
:00000001FF
