:020000040800F2
:10000000B817002045010008E71300085F11000839
:10001000E51300082B020008B11D000800000000D5
:10002000000000000000000000000000D3170008DE
:100030001103000800000000F516000899180008D8
:100040005F0100085F0100085F0100085F01000810
:100050005F0100085F0100085F0100085F01000800
:100060005F0100085F0100085F0100085F010008F0
:100070009D020008A9020008B5020008C10200089C
:10008000CD020008D90200085F010008F91C000831
:10009000211D00085F0100085F0100085F010008E2
:1000A0005F0100085F0100085F0100085F010008B0
:1000B0005F0100085F0100085F0100085F010008A0
:1000C0005F0100085F0100085F0100085F01000890
:1000D0005F010008511C0008A51C00085F01000812
:1000E0005F0100085F0100085F0100085F01000870
:1000F0005F0100085F0100085F0100085F01000860
:100100005F0100085F0100085F0100085F0100084F
:100110005F0100085F0100085F0100085F0100083F
:100120005F0100085F0100085F0100085F0100082F
:10013000DFF80CD000F03CF80048004751200008E0
:10014000B81700200648804706480047FEE7FEE74C
:10015000FEE7FEE7FEE7FEE7FEE7FEE7FEE7FEE777
:100160009D1800083101000840EA01039B0703D0F5
:1001700009E008C9121F08C0042AFAD203E011F8E6
:10018000013B00F8013B521EF9D27047D2B201E0A8
:1001900000F8012B491EFBD270470022F6E710B58C
:1001A00013460A4604461946FFF7F0FF204610BDE5
:1001B000064C074D06E0E06840F0010394E80700B4
:1001C00098471034AC42F6D3FFF7B6FFCC2E0008A8
:1001D000EC2E000870B58C1810F8015B15F00703C1
:1001E00001D110F8013B2A1106D110F8012B03E0D0
:1001F00010F8016B01F8016B5B1EF9D12B0705D4D8
:100200000023521E0DD401F8013BFAE710F8013B20
:10021000CB1A921C03E013F8015B01F8015B521E3C
:10022000F9D5A142D8D3002070BDFEE710B500F08B
:10023000DBFF00F095FF01F049F8BDE8104001F048
:100240006BB8000008B513480021017041702222EC
:100250004260017264224281818101610122027542
:10026000417581750C48816941F00801816181699E
:1002700001F008010091816941F0100181618069FC
:1002800000F01000009001F0B5F9BDE8084001F061
:10029000F7B900008805002000100240014800F076
:1002A000A7B8000044050020014800F0A1B80000F4
:1002B00000050020014800F09BB80000400300202A
:1002C000014800F095B8000084030020014800F0C8
:1002D0008FB80000C8030020014800F089B8000072
:1002E0000C04002030B590F840500124AC40C56BA0
:1002F0006C60046863604368102B04D003689960E5
:100300000068C26030BD03689A600068C16030BD9B
:10031000704710B590F821100022022905D0042161
:10032000816380F82020012010BD01680B6823F054
:100330000E030B6001680B6823F001030B6090F85B
:100340004030C46B012101FA03F3636080F821108F
:1003500080F82020104610BD10B5002490F8211020
:10036000022903D00421816301243DE001680A6869
:1003700022F00E020A6001680A6822F001020A6097
:100380001A4A0168914201D1012121E0174A143231
:10039000914201D110211BE0144A2832914201D12F
:1003A000891515E0114A3C32914201D189140FE0C0
:1003B0000E4A5032914202D14FF4803108E00B4A8C
:1003C0006432914202D14FF4801101E04FF080710C
:1003D000064A083A5160012180F82110002180F876
:1003E0002010416B01B18847204610BD0800024033
:1003F0002DE9F05FC16B0A6801680B68046C4FF06F
:10040000040A0AFA04FA4E4D4E4E4F4FDFF83CC133
:10041000DFF83C81DFF83C911AEA020F31D05FEA45
:10042000437A2ED50A68920603D40A6822F00402A1
:100430000A600168A94201D1042119E0B14201D149
:10044000402115E0B94202D14FF4806110E06145CE
:1004500002D14FF480410BE0414502D14FF480219D
:1004600006E0494502D14FF4800101E04FF0806180
:10047000334A083A5160C16A00295FD0BDE8F05F95
:1004800008474FF0020E0EFA04FE1EEA020F4FF06C
:10049000000A4FF0010B35D05FEA837E32D50A683F
:1004A000920605D40A6822F00A020A6080F821B098
:1004B0000168A94201D1022119E0B14201D12021F4
:1004C00015E0B94202D14FF4007110E0614502D14C
:1004D0004FF400510BE0414502D14FF4003106E0EA
:1004E000494502D14FF4001101E04FF00071144A68
:1004F000083A516080F820A0816A00291ED0BDE82A
:10050000F05F08470825A540154217D01A0715D5F2
:100510000A6822F00E020A6090F84010C26B0BFAD3
:1005200001F15160C0F838B080F821B080F820A007
:10053000016B002902D0BDE8F05F0847BDE8F09FDD
:10054000080002401C00024030000240440002400B
:10055000580002406C00024030B5002827D0001D32
:10056000144A50F8041C14230A44B2FBF3F292001C
:10057000C263114A8263022242770A6843F6F0732B
:100580009A43D0E900342343D0E902452C43234366
:1005900004692343446923438469234313430B6061
:1005A00000214163012242770177002030BD012004
:1005B00030BD0000F8FFFDBF0000024070B50446EA
:1005C000002594F8200001280CD0012084F8200098
:1005D00094F821600020012E06D084F82000022526
:1005E000284670BD022070BD022684F82160A063F9
:1005F0002068066826F0010606602046FFF772FEB6
:10060000E06A28B12068016841F00E01016009E04C
:100610002068016821F0040101602068016841F050
:100620000A0101602068016841F001010160D7E71B
:100630002DE9F84F00240023DFF8C4914FF00F0894
:1006400009F1040A0AF1040B0BF1040ED1E00127B1
:10065000A7403A40BA4275D1DFF8A8C14D68A5EB72
:100660000C0665452BD00DDC032D34D005DC35B3ED
:10067000012D19D0022D2FD11BE0112D16D0122DD6
:100680002AD119E0B6F5881F19D006DCB6F5803FEF
:1006900015D0B6F5801F1FD111E0B6F5001F0ED0A2
:1006A000B6F5041F18D10AE0CB6815E0CB681B1D16
:1006B00012E0CB6808330FE0CB680C330CE08B689A
:1006C00023B1012B04D00823476105E0042303E094
:1006D0000823076100E00023FF2A01D8054601E056
:1006E00000F1040502D84FEA840603E0A4F10806ED
:1006F0004FEA86062F6808FA06FC27EA0C0703FA79
:1007000006F647EA06072F604D68ED0070D53E4DAE
:10071000AE6946F00106AE61AD6905F001050095D0
:100720003A4D24F003067719BE68A5072D0F08FA85
:1007300005FC26EA0C06DFF8D8C0604503D14FF06F
:10074000000C17E054E0DFF8CCC0604502D14FF058
:10075000010C0FE0DFF8C0C0604502D14FF0020C81
:1007600008E0DFF8B8C0604502D14FF0030C01E0AB
:100770004FF0040C0CFA05FC4CEA060CC7F808C054
:100780004D68ED0305D5D9F800501543C9F8005060
:1007900004E0D9F800509543C9F800504D68AD0306
:1007A00005D5DAF800501543CAF8005004E0DAF82D
:1007B00000509543CAF800504D68ED0205D5DBF8AE
:1007C00000501543CBF8005004E0DBF8005095438F
:1007D000CBF800504D68AD0205D5DEF8005015434A
:1007E000CEF8005004E0DEF800509543CEF80050FB
:1007F000641C0A6832FA04F57FF429AFBDE8F88F6B
:1008000000040140000011100010024000000140EF
:1008100000080140000C014000100140001401409C
:10082000002A01D00161704709040161704700008E
:100830000148806870470000240100200248816858
:10084000027811448160704724010020002809DBF0
:1008500000F01F02012191404009800000F1E020DA
:10086000C0F8001170470000F0B40D460D4B1B6836
:10087000C3F30223C3F10704042C00D90424191D77
:10088000072901D2002300E0DB1E012606FA04F14D
:10089000491E294099409E40761E16403143F0BCC7
:1008A00001F087BA0CED00E00148006870470000D5
:1008B0002001002000B5FFF7F7FF04494968044A0A
:1008C000C1F30221515CC84000BD0000001002408D
:1008D000C42E000800B5FFF7E7FF04494968044A41
:1008E000C1F3C221515CC84000BD000000100240AD
:1008F000C42E000870B50446002C05D00025A56262
:1009000094F8510010B106E0012070BD84F85050F9
:10091000204600F02FF8022084F85100206801687A
:1009200021F040010160D4E901010843D4E9031238
:100930001143084361690843218B01F400710843A6
:10094000E1690843216A0843A16A084321680860F5
:10095000A069042101EA1040216848602068C1694B
:1009600021F40061C1616565012084F85100002017
:1009700070BD0000F0B585B00646002401940294D5
:1009800003940494384D3168384802220323A94265
:1009900043D1816941F480518161816901F48051C1
:1009A0000091816941F004018161806900F00400D7
:1009B0000090A0200190029204932D4D01A9284699
:1009C000FFF736FE402001900294039401A92846C7
:1009D000FFF72EFE284D2748286010206860AC6085
:1009E0008027EF602C616C61AC61EC612846FFF7F9
:1009F000B3FDB5646E621F481438443528606C60DE
:100A0000AC60EF602C616C61AC61EC612846FFF773
:100A1000A3FDF5646E6205B0F0BD184DA942FAD190
:100A2000C16941F48041C161C16901F48041009113
:100A3000816941F008018161806900F0080000903F
:100A40004FF420400190029204930D4D01A92846D5
:100A5000FFF7EEFD4FF4804101910294039401A948
:100A60002846FFF7E5FDD6E70030014000100240C0
:100A7000000801403000024000050020003800401E
:100A8000000C01402DE9F84F04460A9E8A46934621
:100A90001F4601254FF0000894F8500001280ED0A1
:100AA000012084F85000FFF7C3FE814694F85100FE
:100AB000616801280DD0B1F5827F07D102E00220E4
:100AC000BDE8F88FA16809B9042802D04FF00208E8
:100AD000C3E0BAF1000F28D0BBF1000F25D03800D9
:100AE00023D094F85100042802D0052084F8510046
:100AF00000206065C4F838B0E787A787C4F830A045
:100B0000E786A7862064606420680168490603D4EC
:100B1000016841F040010160E068B0F5006F07D066
:100B20006068E8B3012F48D07DE04FF0010894E001
:100B3000606808B1012F39D1206B21680088C86036
:100B4000206B801C2063E08E401EE0862EE0206833
:100B5000816889070DD5E18E59B1012D09D1216B2D
:100B60000988C160206B801C2063E08E401EE086F7
:100B7000002520688168C9070BD0E18F49B1C068A2
:100B8000A16B0880A06B801CA063E08F401EE087F3
:100B90000125FFF74DFEA0EB0900B04206D300E0AF
:100BA0000BE0701C02D04FF0030856E0E08E0028E6
:100BB000CDD1E08F0028CAD13BE0206B21680078BE
:100BC0000873206B401C2063E08E401EE0862AE004
:100BD0002068816889070DD5E18E59B1012D09D1B1
:100BE000216B09780173206B401C2063E08E401E4E
:100BF000E086002520688168C9070BD0E18F49B1E4
:100C0000C068A16B0870A06B401CA063E08F401E01
:100C1000E0870125FFF70CFEA0EB0900B04201D3ED
:100C2000701C11D186B1E08E0028D1D1E08F002850
:100C3000CED14A463146204600F05DFD38B14FF036
:100C400001082020606508E04FF0030805E0A06877
:100C500018B92068C1688068009001205034607025
:100C60000020207040462BE710B5044620684169FB
:100C7000C1F3C01194F83920212A0BD151B1416937
:100C800021F080014161206B08B1FFF742FB204653
:100C900000F097FE20684169C1F3801194F83A2072
:100CA000222A0BD151B1416921F040014161606BB1
:100CB00008B1FFF72EFB204600F068FE002010BDB3
:100CC0007047000070B5044622681068D168526908
:100CD00000F00F03002B08D1850606D58D0604D53C
:100CE0002046BDE8704000F075BE002B5ED002F0DB
:100CF000010301F490752B4358D0C30705D0CB05F1
:100D000003D5E36B43F00103E363430705D5D30742
:100D100003D0E36B43F00203E363830705D5D307F6
:100D200003D0E36B43F00403E363030705D5D20765
:100D300003D0E26B42F00802E263E26B002A2AD0A1
:100D4000800604D5880602D5204600F043FE2068C0
:100D50004069C0F38010E16B090700D400B320465E
:100D600000F014FE20684169490615D5416921F05B
:100D700040014161606B58B115494163606BFFF7F9
:100D8000EBFA002807D0606B416BBDE87040084764
:100D90002046FFF795FF70BD2046FFF791FF70BD1D
:100DA0002046FFF78DFF0020E06370BD020606D5E8
:100DB0000A0604D52046BDE8704000F0E3BE4006B8
:100DC000F3D54806F1D52046BDE8704000F0ECBDF3
:100DD000ED18000870B50446002C04D094F83900D2
:100DE000002510B106E0012070BD84F8385020467F
:100DF00000F022F8242084F839002068C16821F42A
:100E00000051C160204600F033FE2068016921F4E2
:100E1000904101612068416921F02A014161206807
:100E2000C16841F40051C160E563202084F83900B5
:100E300084F83A00002070BD2DE9F04385B00446E7
:100E400000250195029503950495DFF84CC12168B2
:100E5000524802220323524E80274FF0100861456A
:100E600052D1816941F480418161816901F48041FD
:100E70000091816941F004018161806900F0040002
:100E80000090100201900292049301A93046FFF7EE
:100E9000CFFB301501900295039501A93046FFF76D
:100EA000C7FB414E3F483060C6F80480B560F7602C
:100EB000356175614FF02008C6F818804FF440592D
:100EC000C6F81C903046FFF747FB2663746235482E
:100ED0001430443630607560B560F7603561756117
:100EE000C6F81880C6F81C903046FFF735FB6663DD
:100EF0007462002211462520FFF7B6FC2520FFF77B
:100F0000A5FC05B0BDE8F083DFF8A0C06145F8D1CD
:100F1000C16941F40031C161C16901F4003100913E
:100F2000816941F004018161806900F00400009052
:100F3000042001900292049301A93046FFF778FB48
:100F4000082001900295039501A93046FFF770FB38
:100F50001448154E2830883630607560B560F760EB
:100F600035617561B561F5613046FFF7F5FA666385
:100F700074620C483C3044363060C6F80480B5607A
:100F8000F76035617561B561F5613046FFF7E4FAE8
:100F900026637462B5E7000000380140001002408B
:100FA000000801404400024040030020004400408B
:100FB00037B582B00446134694F83A00202802D090
:100FC000022005B030BD039AA2B39BB394F8380059
:100FD000012832D0012084F83800A262A3850025C0
:100FE000E563222084F83A00616B15488862616BE2
:100FF0001448C862616B14480863606B45632168DC
:10100000606B091DFFF7DAFA2068016841680191F9
:1010100084F83850C16841F48071C160206841692A
:1010200041F0010141612068416941F040014161A5
:101030000020C6E7FFE70120C3E70220C1E7000068
:101040004719000883190008FD1800087047704709
:101050002DE9F84304460D4691461E4694F83900A2
:10106000202802D00220BDE8F883B5B1B9F1000F05
:1010700013D094F83800012811D0012084F83800EA
:101080000027E763212084F83900FFF7D1FB804671
:10109000A4F82490A4F826902DE00120E3E7022094
:1010A000E1E7E08C401EE084A068B0F5805F09D0E5
:1010B0004346002280212046009600F096FDB0B104
:1010C0000320D0E74346002280212046009600F00E
:1010D0008CFD08B10320C6E728882168C0F308000A
:1010E0004860206908B16D1C05E0AD1C03E0216873
:1010F00015F8010B4860E08C0028D2D1434600224D
:1011000040212046009600F070FD08B10320AAE7B8
:1011100020203834607027700020A4E7704700005A
:1011200070B50178012507290DD0084C21780029D8
:1011300008D1014640220648FFF716F825700549F8
:101140004020086070BD0448057070BD010000209B
:10115000B6010020180100201D0000207047FEE7A6
:1011600008B51E48416941F001014161406900F044
:10117000010000901B481A4901604FF48041416012
:10118000402181608021C160002101614161816154
:10119000C161FFF7E1F9002211460C20FFF764FB63
:1011A0000C20FFF753FB002211460D20FFF75CFBDC
:1011B0000D20FFF74BFB002211461020FFF754FBD8
:1011C0001020FFF743FB002211461120FFF74CFBD4
:1011D000BDE808401120FFF739BB000000100240B5
:1011E00008000240380200202DE9F04F85B00024AD
:1011F00001940294039404943048816941F01001F1
:101200008161816901F010010091816941F0200143
:101210008161816901F020010091816941F004013F
:101220008161816901F004010091816941F0080147
:101230008161806900F008000090DFF884904FF42D
:10124000C045002229464846FFF7EAFADFF874A0B5
:101250004FF48877002239465046FFF7E1FADFF86D
:1012600068B041F60448002241465846FFF7D8FAD4
:1012700001950125029503940226049601A948468A
:10128000FFF7D6F9019702950394049601A95046F9
:10129000FFF7CEF9032001900294039401A9584668
:1012A000FFF7C6F9CDF8048002950394049601A9CE
:1012B0005846FFF7BDF905B0BDE8F08F00100240B9
:1012C0000010014000080140000C014010B510481A
:1012D0000E4901604FF48271416000218160C1605C
:1012E000016141614FF4007282610822C2610162B2
:1012F000416281620A21C162FFF7FCFA054908B127
:10130000022008700120087010BD0000003001406C
:1013100050040020060000200B480A4901604FF4E9
:101320008271416000218160C160016141614FF4BF
:1013300000728261C1610162416281620A21C162FF
:10134000FFF7D8BA00380040A804002010B5104CB0
:101350000E4820604FF4E11060600020A060E06063
:1013600020610C216161A061E0612046FFF732FD40
:101370002068C16841F01001C1600648A4F1440131
:1013800002782046BDE81040FFF712BE0038014049
:10139000C00200200500002010B5104C0E4820604F
:1013A0004FF4E13060600020A060E06020610C211B
:1013B0006161A061E0612046FFF70CFD2068C16813
:1013C00041F01001C1600648A4F184010278204672
:1013D000BDE81040FFF7ECBD0044004000030020D2
:1013E00005000020FEE7704710B505220D493020AA
:1013F00000F0C2F80B4905220A31102000F098F8DD
:101400000020084A02F10A01145C0B5CA34203D1DC
:10141000401CC0B20528F7D3052801D0012010BD1B
:10142000002010BD0E0000202DE9F04104460D46BD
:101430003D4F4FF48076002231463846FFF7F0F9F1
:1014400005223A492A2000F097F838490522491F19
:10145000302000F091F80121212000F0B1F80121A5
:10146000222000F0ADF81A21242000F0A9F8294626
:10147000252000F0A5F80F21262000F0A1F8012C6E
:1014800024D0022C2BD0032C32D00E21202000F0AF
:1014900097F8FF21E12000F093F8FF21E22000F00F
:1014A0008FF8502000F03AF9732000F037F901214D
:1014B0003C2000F085F806213D2000F081F83146FF
:1014C0003846BDE8F0410122FFF7AAB94121312099
:1014D00000F076F80F21202000F072F8EFE74121AC
:1014E000312000F06DF80E21202000F069F8E6E7C9
:1014F000FF21E12000F064F8FF21E22000F060F815
:101500000F21202000F05CF8502000F007F9732034
:1015100000F004F901213C2000F052F806213D20A2
:1015200000F04EF8CBE70000000801401300002057
:101530002DE9F04104460D461646DFF838800022BA
:1015400010214046FFF76CF9204600F0E7F8074607
:10155000002405E0002000F0E1F82855641CE4B206
:10156000B442F7D3012210214046FFF759F938461B
:10157000BDE8F081000801402DE9F04104460D4628
:101580001646DFF83880002210214046FFF748F960
:10159000204600F0C3F80746002404E0285D00F070
:1015A000BDF8641CE4B2B442F8D3012210214046D5
:1015B000FFF736F93846BDE8F08100000008014029
:1015C00070B506460D460A4C002210212046FFF752
:1015D00027F9304600F0A2F80646284600F09EF8AB
:1015E000012210212046FFF71BF9304670BD000094
:1015F000000801402DE9F04186B0002404941D4804
:10160000816941F010018161806900F01000019052
:10161000194940F60160086040F20160029001261D
:10162000039603250595DFF8508002A9A8F110085C
:101630004046FEF7FDFFF002029011270397049643
:10164000059502A94046FEF7F3FF0220029003949D
:101650000494059502A94046FEF7EAFF7003029044
:1016600003970494059502A90448FEF7E1FF06B02C
:10167000BDE8F08100100240100C01400010014054
:101680002DE9FF410024029418494FF4606008607E
:101690004FF4C06000900127019703250395DFF800
:1016A0004C806946A8F110084046FEF7C1FFF802D9
:1016B0000090112601960297039569464046FEF771
:1016C000B7FF40F603000090019402940395694629
:1016D0004046FEF7ADFF7803009001960294039513
:1016E00069460348FEF7A4FFBDE8FF81100C0140E6
:1016F00000100140704738B504460B4600920022A6
:101700008021204600F01CF828B1606D40F02000D8
:101710006065032038BD002038BD00003EB5019053
:10172000FF24012302AA01A904480094FFF7AAF9A3
:1017300000B102949DF808003EBD00005004002056
:101740002DE9F04104460E4617461D46DDF8188087
:1017500008E0681C06D0FFF76BF8A0EB0800A84271
:101760000BD255B12068806836EA00002FD00020E7
:10177000B842EED10020BDE8F0812068416821F038
:10178000E00141606068B0F5827F0BD1A068B0F5E0
:10179000004F02D0B0F5806F04D12068016821F0BD
:1017A00040010160A06AB0F5005F09D120680168BE
:1017B00021F4005101602068016841F4005101608A
:1017C000012050346070002020700320D3E70120F6
:1017D000CEE77047AFF300800CB500220192009273
:1017E0002548016841F480310160016801F400314D
:1017F00000910199491C019100990029F5D00168D7
:10180000890302D50121009100E00092009901298D
:1018100030D11A490A6842F010020A600A6822F0C0
:1018200007020A600A6842F004020A6041684160E7
:1018300041684160416841F480614160416821F440
:101840007C114160416841F4E8114160016841F058
:101850008071016001688901FCD5416821F00301B4
:101860004160416841F0020141604168C1F381017A
:101870000229FAD10CBD00000010024000200240F5
:1018800010B503461878012203E09C5C2044C0B2E6
:10189000521C8A42F9DB10BDFEF7D0BF10B50F48CD
:1018A000016841F00101016041680D4A1140416049
:1018B00001680C4A11400160016821F48021016037
:1018C000416821F4FE0141604FF41F018160FFF780
:1018D00081FF05494FF00060086010BD0010024014
:1018E0000000FFF8FFFFF6FE08ED00E010B5406ACB
:1018F0000021C185C184FFF7E3F910BD70B5446ACA
:1019000020684069C0F3C01094F8391000252129DF
:1019100004D118B1E584204600F053F820684069EE
:10192000C0F3801094F83A10222904D118B1E5854B
:10193000204600F02BF8E06B40F01000E0632046FA
:10194000FFF7BEF970BD10B50146486A096809681D
:10195000890613D40021C1850168CA6822F4807207
:10196000CA6001684A6922F001024A6101684A6955
:1019700022F040024A61202180F83A10FFF766FB0E
:1019800010BD10B5406AFFF762FB10BD0168CA6860
:1019900022F49072CA6001684A6922F001024A6129
:1019A000202180F83A10704710B50168CA6822F00B
:1019B0004002CA60202180F83910FFF7AFFB0020F9
:1019C00010BD0168CA6822F0C002CA60202180F8F8
:1019D0003910704710B590F83A10222901D0022032
:1019E00010BD8168B1F5805F11D0016919B301683C
:1019F000496801F07F03816A4A1C82620B70C18DC5
:101A0000491E0904090CC1851CD0002010BD816A43
:101A100002693AB102685268D2B20A80816A491CEE
:101A20008162ECE702685268C2F308020A80816AA8
:101A3000891C8162E3E701684A68816A4B1C836202
:101A40000A70DCE70168CA6822F02002CA600168F7
:101A5000CA6822F48072CA6001684A6922F00102F1
:101A60004A61202180F83A10FFF7F0FA002010BDFB
:101A70002DE9F041044620680169E26821F44051F3
:101A800011430161A1682069014360690143206835
:101A9000C26841F20C639A430A43C26020684169FC
:101AA000A26921F4407111434161354920686425E0
:101AB0003226884232D1FEF70DFF00EBC00101EB68
:101AC000001061686FF018078900B0FBF1F2B2FBFB
:101AD000F5F2B0FBF1F37A4303EB8202B0FBF1F3D2
:101AE00006EB0212B2FBF5F2B3FBF5F302F0F002E3
:101AF00002EB0312B0FBF1F3B0FBF1F0B0FBF5F039
:101B0000784303EB800006EB0010B0FBF5F0216892
:101B100000F00F0010448860BDE8F081FEF7CAFEB7
:101B200000EBC00101EB001061686FF0180789003D
:101B3000B0FBF1F2B2FBF5F2B0FBF1F37A4303EB49
:101B40008202B0FBF1F306EB0212B2FBF5F2B3FB3B
:101B5000F5F302F0F00202EB0312B0FBF1F3B0FB7D
:101B6000F1F0B0FBF5F0784303EB800006EB0010DA
:101B7000B0FBF5F0216800F00F0010448860CBE75F
:101B80000038014090F83910212901D00220704717
:101B90008168B1F5805F0CD0016A4A1C026202685C
:101BA00009785160C18C491E0904090CC18410D008
:101BB00019E0016A02680988C1F3080151600169EE
:101BC00019B1016A491C0162ECE7016A891C0162D2
:101BD000E8E70168CA6822F08002CA600068C1684C
:101BE00041F04001C160002070472DE9F0410446FA
:101BF0000E4617469846069D1DE0681C1BD02DB169
:101C0000FEF716FEA0EB0800A84214D92068C168B0
:101C100021F4D071C1602068416921F00101416166
:101C2000202084F8390084F83A00002084F8380035
:101C30000320BDE8F0812068006836EA000004D087
:101C40000020B842D9D00020F3E70120F9E70000D6
:101C500008B50F4800680168C943C90612D4016875
:101C600041680091016840680948FEF7FDFF094896
:101C70000068406808490978081A08490870084946
:101C800001200870BDE808400148FFF71BB80000BC
:101C9000C002002084030020050000200300002073
:101CA0000400002008B50F4800680168C943C90650
:101CB00012D4016841680091016840680948FEF744
:101CC000D3FF09480068406808490978081A08499C
:101CD0000870084901200870BDE808400148FEF777
:101CE000F1BF000000030020C80300200500002011
:101CF000030000200400002070B5074E074C47F693
:101D0000FF7505E0258001F00F01304600F008FB6B
:101D100021880804F6D470BDC8060020445C004049
:101D20002DE9F0411F4F204D47F6FF7605E02E804C
:101D300004F00F01384600F0F3FA2C882004F6D4A2
:101D4000DFF8688060054FF000060BD54FF6FF30D6
:101D5000288008F104000680384600F013FD80203A
:101D6000A8F80000200511D54FF2FF702880B8F8C0
:101D70000000400607D0A8F800600B48001F01884B
:101D800021F400610180384600F0B2F9E00405D585
:101D90004EF6FF702880384600F09EF92E80BDE890
:101DA000F0810000C8060020445C00404C5C00400C
:101DB000FEE70907090E002804DB00F1E02080F8A7
:101DC0000014704700F00F0000F1E02080F8141DAF
:101DD000704702E008C8121F08C1002AFAD17047F4
:101DE0007047002001E001C1121F002AFBD170479B
:101DF00010B54B78042B37DD202B06D0212B17D0C4
:101E0000222B28D0232B2FD12AE011785378D47895
:101E100041EA032193781B0443EA0463194340F821
:101E20002C1F1179017151794171917981711BE0F8
:101E300010F82C1F11700188090A51700168090CF3
:101E400091700168090ED170017911714179517158
:101E50008079907108E0026A32B14988904703E0C6
:101E6000426A0AB149889047002010BD38B504463F
:101E70006268A08C116881420CD9516851F82050D9
:101E80000C3204F120012846FFF7B2FFE96909B1DD
:101E90002846884700200346024601460090204617
:101EA00000F0D8FC38BD70470148826001207047BF
:101EB0001401002010B5417A006800F09BFD00205D
:101EC00010BD70B50C46DDE9045116461A46258151
:101ED00022608D4200D90D462B46314600F030FC81
:101EE000608A401C60822068284420602089401B52
:101EF0002081E58170BDF8B504466368A08C19683F
:101F000081420DD9596851F82000C16841B1618CF6
:101F1000CAB2090A45691DB1E68C0C330096A84780
:101F200000200346024601460090204600F092FC45
:101F3000F8BD000010B51146034841600348FFF7A3
:101F4000EFF8012010BD0000140100205807002008
:101F500010B5417A006800F04DFDFFF7FFF8002052
:101F600010BD000070B50446344B198847F270006C
:101F7000014043F22002514048F280252943198054
:101F80002F4968230B8028230B8122258B896FF32F
:101F9000090365F38F238B81284D2D1D2B8848F273
:101FA00081060340534033432B80C8230B82A82370
:101FB0000B8310258B8B6FF3090365F38F238B83C2
:101FC0001E4B08331D8848F2826605405540354354
:101FD0001D804FF494730B84E8230B8522258B8D91
:101FE0006FF3090365F38F238B85144D10352B8810
:101FF0000340534048F2840003432B804FF4D470D5
:10200000A1F840004FF4B470A1F848002222B1F8C2
:102010004C006FF3090062F38F20A1F84C00882177
:1020200004F10800FEF7B9F80020A0810548A0617E
:102030000548E0610548C4F88C0070BD005C0040B4
:10204000006000408D2E0008882E0008942E0008A5
:10205000002000F01DFA04461549204600F091FCCE
:10206000204600F019FBFEF7E1F8FEF7EBF8FFF76A
:102070006DF9FFF791F9FFF7B7F90E49087018B934
:1020800033210420FFF7D0F94FF4FA630F220AA19D
:102090000D48FEF7DDFF0D4C0D4D0E4922780A4824
:1020A000FEF786FF28680028F7D000F0B9FDF4E7B6
:1020B000A800002000000020537461727420444185
:1020C000505F545821000000C0020020050000208D
:1020D000180100207C0200200448018821F004013E
:1020E00001804FF41C41018070470000405C0040BB
:1020F0000448018841F008010180018841F0040191
:1021000001807047405C004010B50446208B617A26
:1021100083B26269206800F062FC617A206800F096
:1021200069FC0020E072A07A38B1042805D8216843
:102130004968401E01EB8000C464002010BD30B42B
:1021400011461A46C468002C02D0A44630BC604731
:1021500030BC002070470000F8B50D460468626886
:102160002978C1F34113012B01D00020F8BDEB8881
:10217000F3B1090613D50C3216462946FFF738FE8F
:10218000EB88E08C834201D0802000E000200090AA
:1021900032460021204600F05DFB0120F8BD0C32E4
:1021A0000021204600F01BFC084860610120F8BDBA
:1021B0000C322946FFF71CFE00200346024601466A
:1021C0000090204600F046FB0120F8BD6D1E00087F
:1021D000027A8A4202D1016929B10847827A8A4289
:1021E00001D10021C172002070474068002811D041
:1021F0000A7802F00302012A0CD18A88036893420C
:1022000008D9406850F8220020B1426812B15268E3
:1022100002B1104700207047F0B501F07F0048F28E
:10222000C0064CF280054BF68F7448F2800348F6E6
:102230008F7200281DD00F064FEA4160234901EB41
:10224000D0502ED5B0F8001C490605D5B0F8001CBA
:1022500011403143A0F8001CB0F8001C48F6BF72D2
:10226000114081F0100181F020011943A0F8001CF9
:10227000F0BD17480188490603D501881140314354
:1022800001800188490403D5018811402943018058
:102290000188214081F4805181F40051194301806B
:1022A000F0BDB0F8001C490405D5B0F8001C114081
:1022B0002943A0F8001CB0F8001C214081F4805193
:1022C00081F400511943A0F8001CF0BD00500040FB
:1022D000005C0040002204E00021491CC829FCD316
:1022E000521C8242F8D370470B48816941F00401C7
:1022F00081610A48016841F480210160016821F48C
:1023000000210160016841F44031016003498014FB
:1023100010310860704700000010024004080140BE
:102320002DE9F04180460E461F4800EB8605B5F8C2
:10233000004C20040AD540F68F77A6B104EA0700C6
:10234000A5F8000C3146404600F032FA200628D5A8
:1023500048F60F700440A5F8004C31464046BDE8F1
:10236000F04100F0B7BA200508D508F12001404639
:1023700000F002FA404600F085FB03E0314640469B
:1023800000F016FA094804EA070101804BF68F7243
:1023900004EA020181F4405148F2800211430180B5
:1023A000D4E7BDE8F081000000500040005C004030
:1023B000F8B504460E46002100257088020A082A56
:1023C00046D2DFE802F045040A1045451C38D4F82F
:1023D0008C00016871B30D783AE0D4F88C00416844
:1023E00041B34D8834E0C0B2D4F88C20D368834226
:1023F0002ED9916851F82010E1B10D7828E02168BC
:102400000A200870216806204870D4F88C102068D3
:102410000968D1F80220C0F80220C988C180D4F828
:102420008C0021680068407C087221680020487296
:102430000A2521680CE0D4F88C00416801B14D8870
:1024400020682A46FDF790FE216807204870216821
:10245000C1B1F088A84200D805462068884203D060
:102460002A46FDF781FE2168E08CA84201D0802039
:1024700000E000200A4600902B460021204600F094
:10248000E9F9F8BD2046BDE8F840002100F0CABADD
:10249000024800F58071086008467047C8050020B2
:1024A00010B50446A08C617A83B2226A206800F0DD
:1024B00096FA617A2068BDE8104000F09BBA30B40B
:1024C00011461A46C468002C02D0A44630BC6047AE
:1024D00030BC002070470000F8B5046865680A78D1
:1024E00002F00303012B27D14B78062B24D14B8814
:1024F0002226B6EB132F1FD1038E9FB2866ADEB160
:10250000D7B1C888B84200D807462068B04204D086
:102510003A463146FDF728FE2668E08CB84201D0E5
:10252000802000E0002000903B46324600212046FB
:1025300000F090F90120F8BDC2F34112012A01D048
:102540000020F8BD4A7800260C2A73D2DFE802F09A
:102550007253163872727272724806294988090AD3
:1025600080F83410C16901B1884700231A46194622
:102570002046009600F06EF90120F8BD90F8340076
:102580002873E08C012801D0802000E0002000901A
:10259000012305F10C020021204600F05BF9012027
:1025A000F8BD897880F83510C16901B188470023EA
:1025B0001A4619462046009600F04CF90120F8BD55
:1025C000E08C012801D0802000E000200090012351
:1025D00005F10C020021204600F03CF90120F8BD75
:1025E000CB8805F10C020021204600F0F8F91248D2
:1025F00060610120F8BD628C02F0FF0C170A002315
:1026000086693EB1C988009105F10C0362463946DE
:10261000B04783B2E08C984201D0802000E00020D7
:10262000009005F10C020021204600F013F9012072
:10263000F8BDFFE70020FBE7F71E0008016900294D
:1026400000D008470020704730B440684C060DD0D9
:1026500001F07F04641E00EB8400C06D30B144685B
:1026600024B1E46814B1A44630BC604730BC0020FB
:10267000704740684A060ED001F07F02521E00EB00
:102680008200C06C002806D04268002A03D09268FD
:10269000002A00D01047704710B5FFF725FE142020
:1026A000FFF718FE154AD06940F40000D061144BC2
:1026B0000120188000241C80181D01884905FCD5C4
:1026C00004800F48103004804FF41C40188090693B
:1026D00040F0040090610B48016841F480210160E2
:1026E000016821F400210160016821F4403101609A
:1026F00005494FF48010086010BD00000010024032
:10270000405C00400408014000E100E030B58888EA
:10271000C0F309000988094B490803EB8101431CF8
:102720005D08002306E031F8044B1470240A54704D
:10273000921C5B1CAB42F6D330BD00000060004031
:1027400030B5581C450808880A4C400804EB800442
:10275000888863F309008880002008E011785378A6
:1027600041EA0321921C24F8041B401CC0B2A84279
:10277000F4D330BD006000400A460149FFF7C6BFF0
:102780000860004070B54568002D10D0A9688847E2
:10279000002409E0686850F8240020B1416811B1B4
:1027A000096801B18847641C2868A042F2D870BD4E
:1027B0002DE9F04706460D4605EB850006EB800443
:1027C0002834224800EB8509B9F8008C204800EB3A
:1027D0000517606800281FD0F7B1A1894218394653
:1027E0003046FFF793FFB9886FF30901B980A189DB
:1027F00001448BB2A381B169495D814202D16089F4
:10280000834209D30027C5B1294630466268FFF7E5
:102810001BFFC8B16089A081A089618988420AD262
:102820004BF68F7008EA000888F4405048F28001A7
:102830000843A9F8000CBDE8F087716911B1304672
:10284000884777616760E7E7A781E5E700500040C8
:10285000086000402DE9FC411746089A0C461B49C8
:1028600001EB8406B6F8005C04EB840100EB810107
:1028700028314FEAD21C0A8A6CF300020A820A89C4
:102880004FF0FF3C002A02D06046BDE8FC81C5F352
:102890000112022A01D06046F7E700224A82C2698B
:1028A000125DCDE900320A4A3B4602EB0412FFF703
:1028B00008FB48F6BF70054085F0300048F2800103
:1028C0000843A6F8000C0020DFE70000005000409D
:1028D000006000402DE9FC4104460B4603EB8300F9
:1028E00004EB800128311E4800EB8305B5F8000C8D
:1028F00000264E821B4800EB03120889002809D1EC
:102900000F7CFF071ED0D4F81CC0CF891CF803C071
:10291000674517D1E669F35CCDE9000320460B68F3
:10292000FFF7CFFAB5F8000C48F6BF71084080F009
:10293000100080F0200048F280010843A5F8000C48
:10294000BDE8FC812BB119462046BDE8FC41FFF7EC
:1029500090BE21690029F3D0204688472661EFE721
:102960000050004000600040017A002905D0034A71
:1029700041F0800111800021017270474C5C0040E1
:10298000704710B50022CA640A654A658A65CA653F
:102990000A664A668A6600231CE04A6852F82320C9
:1029A000BAB11468844200D01060147A3CB104F0CB
:1029B0007F04042C03D8641E01EB8404E264547A7F
:1029C0003CB104F07F04042C03D8641E01EB8404A2
:1029D000E2655B1C0A689A42DFD8416010BD01EBDA
:1029E000810100EB8100C2624386002181860020C4
:1029F000704700000A4A02EB8102B2F8003C01EB8A
:102A0000810100EB8100002181864BF68F7003402D
:102A100083F4405048F280010843A2F8000C70474C
:102A20000050004010B501F07F0048F6BF7348F237
:102A3000800200280FD00C064FEA41600F4901EBDD
:102A4000D05010D5B0F8001C194081F0100111438E
:102A5000A0F8001C10BD0A490888184080F010003A
:102A60001043088010BDB0F8001C4BF68F7319405E
:102A700081F480511143A0F8001C10BD00500040AB
:102A8000005C004070B5054605F12004214628464B
:102A9000FFF7ABFB002805D121462846BDE8704072
:102AA00000F002B870BD000038B504464A78002531
:102AB00059480C2A7ED2DFE802F01A84A95EA906E2
:102AC00015A92A3A4454887820722046FFF758FF07
:102AD0005248206100231A46194620460095FFF708
:102AE000B9FE38BD2046BDE83840FFF761BCA1897A
:102AF0000160E08C022801D0802000E000200090DE
:102B00000223454A00212046FFF7A4FE38BD617A22
:102B10000160E08C012801D0802000E000200090BE
:102B200001233D4A00212046FFF794FE38BD8878F6
:102B3000607200231A46194620460095FFF78AFE68
:102B400038BDA17A0160E08C012801D0802000E02E
:102B5000002000900123304A00212046FFF77AFE32
:102B600038BD8878A07200231A4619462046009581
:102B7000FFF770FE38BD087800F00300022803D08C
:102B8000488801280AD016E0097901F07F0005285D
:102B900011D22046BDE83840FFF744BFE07A40F04C
:102BA0000100E07200231A46194620460095FFF7FF
:102BB00051FE38BD2AE02046BDE838400021FFF72D
:102BC00031BF087800F00300022803D048880128AC
:102BD0000AD015E0097901F07F00052810D22046BF
:102BE000BDE83840FFF718BBE07A20F00100E07242
:102BF00000231A46194620460095FFF72BFED8E71A
:102C00002046BDE838400021FFF70CBF2046BDE854
:102C100038400021FFF706BF200000206929000886
:102C20002DE9F843494C002701262078DFF8208160
:102C3000002809D00225012823D0DFF818910228A6
:102C40002FD008287ED166E098F80000B8B1424D38
:102C5000AA20287040214148FEF712FE85F8410065
:102C6000FB2085F8420001203C490A1812F8012C8B
:102C70002A54401CC0B24128F7D3267062E0277066
:102C800060E04FF4FA663346432233493448FEF796
:102C9000DFF90028F7D140213248FDF77EFA257090
:102CA00050E0DFF8C48098F80000012801D02570BA
:102CB00048E099F800202D492D48FDF755FA0120EC
:102CC00028492B4D0B182A5C03F8012C401CC0B27C
:102CD0004128F7D32878AA280ED195F84200FB287E
:102CE0000AD140211F48FEF7CBFD95F841108842DC
:102CF00002D10820207009E0802000901D480323A5
:102D00001DA2017A0068FFF7A5FD26701B48077019
:102D100088F8007016E01A4800974023017A00688E
:102D2000104AFFF797FD277088F800701548076074
:102D300099F800200D490A48FEF73AF94321064860
:102D4000FDF72BFA0020BDE8F88300000200002008
:102D5000010000200500002073010020B6010020C2
:102D6000C0020020F7010020040000207C020020A7
:102D7000300100205C00002045525200030000207A
:102D8000240000201801002012010002EF0201407F
:102D900083041100000101020301000009026B001D
:102DA00003010080640904000002030000000921FF
:102DB00011010001221800070582034000010705E8
:102DC0000203400001080B01020202010009040194
:102DD0000001020201000524001001052401000188
:102DE00004240202052406000107058803100001DF
:102DF00009040200020A0000000705810220000108
:102E00000705010220000100040309040E034B0022
:102E100053005F0044004900590000002C034B00A0
:102E20005300200057006900720065006C006500C7
:102E300073007300200043004D005300490053000D
:102E40002D004400410050001803390039003600BD
:102E50005F003900390036005F0039003900360064
:102E6000082E00080C2E00081C2E0008482E000812
:102E70000600FF0901A1010902150025FF7508954B
:102E800040810209039102C04020400040402040A0
:102E900000400000882D00089C2D0008602E0008CE
:102EA000040000000921000859210008D121000870
:102EB0003F210008A1240008D92400083D2600086D
:102EC000BF2400080000000001020304EC2E0008EB
:102ED0000000002030010000D4010008442F000849
:102EE0003001002088160000E21D000842018243E4
:102EF00014AABBCC3A0105011013B42E2408020217
:102F000013351F1B085104C11358073320401A7092
:102F10002441B2181AA4141401010813A91E1B0895
:102F2000B5041A982C32201AA70C012022241B2049
:102F30005C044132031A9C0CDA657C016135A24ABB
:042F40000401721006
:0400000508000131BD
:00000001FF
